:100000000C943E010C9403240C9430240C946F0146
:100010000C946F010C946F010C946F010C946F01A0
:100020000C946F010C942B1F0C946F010C946F01B6
:100030000C946F010C946F010C946F010C946F0180
:100040000C945D240C946F010C9444260C946F0165
:100050000C946F010C946F010C946F010C946F0160
:100060000C94651D0C946F01332E322E32004746DE
:10007000492053656C66205465737400536574752C
:10008000700053657276696365204C6576656C0017
:100090004D61782043757272656E740044696F64B7
:1000A0006520436865636B0056656E742052657108
:1000B000276420436865636B004261636B6C69670A
:1000C000687420547970650047726F756E642043C0
:1000D0006865636B0052657374617274004578697A
:1000E0007400506F776572204F6E0053656C662008
:1000F00054657374004175746F204465746563744E
:1001000000537663204C6576656C3A204C31005381
:100110007663204C6576656C3A204C32002D2D5369
:100120007475636B2052656C61792D2D002D2D4502
:10013000617274682047726F756E642D2D0054458E
:100140005354204641494C454400455653452045AB
:1001500052524F520056454E542052455155495225
:1001600045440044494F44452043484B20464149BB
:100170004C45440047464349204641554C54004EA7
:100180004F2047524F554E4400535455434B205235
:10019000454C41590053746F707065640057616934
:1001A00074696E6700536C656570696E67004556CB
:1001B00020436F6E6E6563746564004556204E6F14
:1001C0007420436F6E6E656374656400526561648C
:1001D00079004368617267696E6700526573746184
:1001E0007274204E6F773F00202020005665727396
:1001F000696F6E20004F70656E2045565345202074
:1002000020202020200052657374617274696E672B
:100210002E2E2E00312E302E300000000000240043
:1002200027002A0000000000250028002B00000005
:10023000000023002600290004040404040404042C
:100240000202020202020303030303030102040881
:100250001020408001020408102001020408102030
:100260000000000700020100000304060000000077
:100270000000000025181A196D1C402711241FBE0C
:10028000CFEFD8E0DEBFCDBF14BE88E10FB6F89443
:1002900080936000109260000FBE12E0A0E0B1E019
:1002A000EAECF2E502C005900D92A438B107D9F747
:1002B00015E0A4E8B2E001C01D92A332B107E1F756
:1002C00012E0CCE7D2E004C02297FE010E94282968
:1002D000C437D107C9F70E947A270C9463290C947C
:1002E0000000FB01DC010D900020E9F7119705905B
:1002F0000D920020E1F70895FB01DC0105900D92BD
:100300000020E1F70895FB01DC010D900020E9F7E2
:10031000119701900D920020E1F70895AEE0B0E052
:10032000E4E9F1E00C943A290D891E8986E08C837A
:100330001A8309838FEF9FE79E838D839E01275E3B
:100340003F4FCE0101966F89788DA9010E94B201BD
:100350002F813885020F131FF80110822E96E4E0DA
:100360000C945629ABE0B0E0E8EBF1E00C942C29BA
:100370003C012B015A01FC0117821682838181FD09
:1003800003C06FEF7FEFC6C19AE0892E1E0108946B
:10039000211C311CF3012381F20123FD859123FFF0
:1003A00081912F01882309F4B2C1853239F423FDEC
:1003B000859123FF81912F01853229F490E0B301CB
:1003C0000E94A503E7CF982FFF24EE249924FFE194
:1003D000FF15D0F09B3269F09C3228F4903259F02E
:1003E000933291F40EC09D3249F0903369F441E0AC
:1003F00024C052E0F52A84E0F82A28C098E0F92ABF
:1004000025C0E0E1FE2A22C0F7FC29C0892F8053D5
:100410008A3070F4F6FE05C0989C902C1124980E3A
:1004200015C0E89CE02C1124E80EF0E2FF2A0EC073
:100430009E3229F4F6FC6BC140E4F42A07C09C36D6
:1004400019F450E8F52A02C0983649F4F20123FD68
:10045000959123FF91912F01992309F0B8CF892F0E
:100460008554833018F08052833038F444E050E0F3
:10047000A40EB51E5FE359830FC0933631F0933756
:1004800079F0933509F056C020C0F5018081898349
:1004900042E050E0A40EB51E610101E010E012C080
:1004A000F501C080D180F6FC03C06FEF7FEF02C082
:1004B000692D70E042E050E0A40EB51EC6010E9416
:1004C0009A038C015FE7F52214C0F501C080D1804A
:1004D000F6FC03C06FEF7FEF02C0692D70E042E0D1
:1004E00050E0A40EB51EC6010E948F038C0150E897
:1004F000F52AF3FE07C01AC080E290E0B3010E9423
:10050000A503EA948E2D90E008171907A8F30EC0F2
:10051000F601F7FC8591F7FE81916F0190E0B30140
:100520000E94A503E110EA94015010400115110545
:1005300079F7EAC0943611F0993669F5F7FE08C0EC
:10054000F501208131814281538184E090E00AC02D
:10055000F501808191819C01442737FD4095542FFE
:1005600082E090E0A80EB91E9FE6F92257FF09C06D
:1005700050954095309521953F4F4F4F5F4FE0E8A4
:10058000FE2ACA01B901A1012AE030E00E94D1038C
:10059000D82ED21840C0953729F41F2D1F7E2AE08F
:1005A00030E01DC01F2D197F9F3661F0903720F479
:1005B000983509F0ACC00FC0903739F0983709F082
:1005C000A6C004C028E030E00AC0106114FD146029
:1005D00020E130E004C014FD166020E132E017FF96
:1005E00008C0F501608171818281938144E050E00F
:1005F00008C0F50180819181BC0180E090E042E07B
:1006000050E0A40EB51EA1010E94D103D82ED2182D
:100610008FE7F82EF122F6FE0BC05EEFF522D9141B
:1006200038F4F4FE07C0F2FC05C08FEEF82202C0D9
:100630001D2D01C0192DF4FE0DC0FE01ED0DF11DA3
:100640008081803319F499EEF92208C01F5FF2FE11
:1006500005C003C08F2D867809F01F5F0F2DF3FCB6
:1006600014C0F0FE0FC01E1510F09D2C0BC09D2C69
:100670009E0C911A1E2D06C080E290E0B3010E94EC
:10068000A5031F5F1E15C0F304C01E1510F4E11A68
:1006900001C0EE2404FF0FC080E390E0B3010E948C
:1006A000A50302FF1DC001FD03C088E790E00EC056
:1006B00088E590E00BC0802F867891F001FF02C0A2
:1006C0008BE201C080E2F7FC8DE290E0B3010E9472
:1006D000A50306C080E390E0B3010E94A5039A94AD
:1006E000D914C0F3DA94F101ED0DF11D808190E091
:1006F000B3010E94A503DD20A9F706C080E290E0C7
:10070000B3010E94A503EA94EE20C1F743CEF301A2
:1007100066817781CB012B96E2E10C944829FC019C
:100720000590615070400110D8F7809590958E0F1C
:100730009F1F0895FC016150704001900110D8F78F
:10074000809590958E0F9F1F08950F931F93CF93C1
:10075000DF938C01EB018B8181FF1BC082FF0DC0F9
:100760002E813F818C819D812817390764F4E881AF
:10077000F9810193F983E88306C0E885F985802F24
:100780000995892B31F48E819F8101969F838E83F9
:1007900002C00FEF1FEFC801DF91CF911F910F91A2
:1007A0000895FA01AA27283051F1203181F1E89407
:1007B0006F936E7F6E5F7F4F8F4F9F4FAF4FB1E054
:1007C0003ED0B4E03CD0670F781F891F9A1FA11D4F
:1007D000680F791F8A1F911DA11D6A0F711D811D50
:1007E000911DA11D20D009F468943F912AE0269F15
:1007F00011243019305D3193DEF6CF010895462F74
:100800004770405D4193B3E00FD0C9F7F6CF462F54
:100810004F70405D4A3318F0495D31FD40524193BD
:1008200002D0A9F7EACFB4E0A6959795879577957A
:100830006795BA95C9F700976105710508959B0101
:10084000AC010A2E06945795479537952795BA958A
:10085000C9F7620F731F841F951FA01D0895FC0127
:100860008FEF82A711A680E49FE190938B00809385
:100870008A001182108208950F931F93CF93DF9304
:10088000EC0189010E9412228985882321F0CE0182
:10089000B8010E94B827DF91CF911F910F91089561
:1008A000FC018185882319F0CF010E94B8270895A3
:1008B000CF93DF93EC01462F60E00E9412228985DE
:1008C000882339F06091AA017091AB01CE010E949A
:1008D000B827DF91CF910895CF93DF93EC018C81FE
:1008E0008F5F8C83823008F01C828FE493E061E09C
:1008F00070E00E945804EC81F0E0EE0FFF1FEF5013
:10090000FE4F208131818FE493E060E070E041E0B0
:1009100050E00E943C04DF91CF910895CF93DF9384
:10092000EC018C818F5F8C83823008F01C828FE415
:1009300093E061E070E00E9458048FE493E060E08F
:1009400041E00E94122280911A039C8183FD03C022
:10095000992319F008C0992331F08FE493E060E007
:1009600071E00E945004EC81F0E0EE0FFF1FEF50A9
:10097000FE4F608171818FE493E00E945004DF910B
:10098000CF910895CF93DF93EC018C818F5F8C839F
:10099000823008F01C828FE493E061E070E00E94F6
:1009A00058048FE493E060E041E00E9412228091BD
:1009B0001A039C8182FD03C0992319F008C0992372
:1009C00031F08FE493E060E071E00E945004EC812C
:1009D000F0E0EE0FFF1FEF50FE4F608171818FE45A
:1009E00093E00E945004DF91CF910895CF93DF935D
:1009F000EC018C818F5F8C83823008F01C828FE445
:100A000093E061E070E00E9458048FE493E060E0BE
:100A100041E00E94122280911A0390911B032C81C5
:100A200091FD03C0222319F008C0222331F08FE486
:100A300093E060E071E00E945004EC81F0E0EE0F82
:100A4000FF1FEF50FE4F608171818FE493E00E94A1
:100A50005004DF91CF910895CF93DF93EC018C8107
:100A60008F5F8C83823008F01C828FE493E061E01A
:100A700070E00E9458048FE493E060E041E00E943F
:100A8000122280911A039C8181FD03C0992319F0E1
:100A900008C0992331F08FE493E060E071E00E9498
:100AA0005004EC81F0E0EE0FFF1FEF50FE4F60812D
:100AB00071818FE493E00E945004DF91CF910895FB
:100AC000CF93DF93EC018C818F5F8C83833008F0B0
:100AD0001C828FE493E061E070E00E9458048FE490
:100AE00093E060E041E00E94122280911A0380FDB1
:100AF00002C021E001C022E030E08C8190E001964C
:100B00002817390731F48FE493E060E071E00E9428
:100B10005004EC81F0E0EE0FFF1FE053FE4F6081C8
:100B200071818FE493E00E945004DF91CF9108958A
:100B3000CF93DF93EC018C818F5F8C83823008F040
:100B40001C828FE493E061E070E00E9458048FE41F
:100B500093E060E041E00E9412228FE493E060E0C5
:100B600071E00E945004EC81F0E0EE0FFF1FEA52AA
:100B7000FE4F608171818FE493E00E945004DF9109
:100B8000CF910895CF92DF92EF92FF920F931F9330
:100B9000DF93CF93CDB7DEB761970FB6F894DEBF82
:100BA0000FBECDBF7C01262F6A01DC0119968C9106
:100BB000882349F1C70160E0422F0E94122200D031
:100BC00000D000D0EDB7FEB731968E010F5F1F4FFA
:100BD000ADB7BEB712961C930E93119782E091E0C9
:100BE00093838283D582C4820E948E01198AEDB7D5
:100BF000FEB736960FB6F894FEBF0FBEEDBFC70125
:100C0000B8010E94B82761960FB6F894DEBF0FBEF8
:100C1000CDBFCF91DF911F910F91FF90EF90DF90AB
:100C2000CF9008950F931F93CF93DF93EC011C8215
:100C300080911A0380FD04C08AED91E041E003C079
:100C400081EE91E042E098878F831D821E8202C070
:100C50009F5F9E83AF81B8859E81FD01E90FF11DE5
:100C600080818823A9F7292F21502E83A20FB11D3F
:100C70008C918D8330912E0390E0EF81F885E90F00
:100C8000F11D8081831711F49C8303C09F5F291796
:100C9000A0F7413019F028E031E002C02BE031E04C
:100CA00000D000D000D0EDB7FEB731960EEB12E0C9
:100CB000ADB7BEB712961C930E9311978EE091E0DC
:100CC00093838283358324830E948E01EDB7FEB720
:100CD00036960FB6F894FEBF0FBEEDBF8FE493E0DB
:100CE00060E070E0A8010E94C20500D000D000D0F2
:100CF000ADB7BEB71196EDB7FEB7128301838DE194
:100D000091E013969C938E9312978C81EF81F885D6
:100D1000E80FF11D808114968C93149715961C9200
:100D20000E948E018DB79EB706960FB6F8949EBFAF
:100D30000FBE8DBF8FE493E061E070E0A8010E94D8
:100D4000C205DF91CF911F910F910895FF920F93EC
:100D50001F93F0901A0340911B0303EA13E0C801AC
:100D600062E070E00E94461CC80163E070E04F2D15
:100D70000E94461C1F910F91FF900895FC01848DE5
:100D8000958D662311F08F7D01C08062958F848FD1
:100D90000E94A6060895FC01848D958D662311F0AE
:100DA0008F7E01C08061958F848F0E94A606089572
:100DB000FC01848D958D662311F0877F09C0128A0E
:100DC000138A148A158A16861786108A118A8860F3
:100DD000958F848F0E94A60608950F931F938C0110
:100DE0008FE493E060E070E041E050E020E031E02B
:100DF0000E943C04D8011496EC91F0E0EE0FFF1F26
:100E0000EF50FE4F608171818FE493E00E945004A7
:100E100060E0F8018481882309F461E08EEF92E0BC
:100E20000E94D80664EF71E080E090E00E94B32455
:100E300084E892E01F910F910895FC01848D958DB7
:100E4000662311F08B7F01C08460958F848F0E9490
:100E5000A60608950F931F938C018FE493E060E042
:100E600070E041E050E020E031E00E943C04D80115
:100E70001496EC91F0E0EE0FFF1FEF50FE4F6081F3
:100E800071818FE493E00E94500460E0F801848156
:100E9000882309F461E08EEF92E00E941D0764EF61
:100EA00071E080E090E00E94B32484E892E01F911A
:100EB0000F910895FC01848D958D662311F09D7F1F
:100EC00001C09260958F848F0E94A60608950F93AB
:100ED0001F938C018FE493E060E070E041E050E00C
:100EE00020E031E00E943C04D8011496EC91F0E03F
:100EF000EE0FFF1FEF50FE4F608171818FE493E092
:100F00000E94500460E0F8018481882309F461E0C4
:100F10008EEF92E00E945A0764EF71E080E090E06B
:100F20000E94B32484E892E01F910F910895FC0180
:100F3000848D958D662311F08D7F01C08260958F21
:100F4000848F0E94A60608950F931F938C018FE44F
:100F500093E060E070E041E050E020E031E00E948A
:100F60003C04D8011496EC91F0E0EE0FFF1FEF5017
:100F7000FE4F608171818FE493E00E94500460E035
:100F8000F8018481882309F461E08EEF92E00E94E9
:100F9000970764EF71E080E090E00E94B32484E85A
:100FA00092E01F910F910895CF93DF93EC018C8114
:100FB0008F5F8C839E81981708F41C828FE493E0E6
:100FC00061E070E00E9458048FE493E060E041E04B
:100FD0000E9412228C81EF81F885E80FF11D90911B
:100FE0002E038081981731F48FE493E060E071E084
:100FF0000E9450048C81EF81F885E80FF11D60811B
:1010000080915803882339F08FE493E070E04AE040
:1010100050E00E9490288FE493E062E271E00E9429
:101020005004DF91CF910895FC0194818581981738
:1010300050F4E92FF0E0EE0FFF1FE455FE4F019052
:10104000F081E02D06C08FE493E00E94C422E0E02E
:10105000F0E0CF010895CF93DF93EC018FE493E0AC
:101060000E949E2280FF52C031E00AC089819A818D
:10107000AB81BC810097A105B10509F4188230E06D
:101080002881222361F0213009F045C089819A81AD
:10109000AB81BC810097A105B10509F43CC03323A5
:1010A00081F189819A81AB81BC810097A105B1054D
:1010B00041F4222331F40E94A52469837A838B832F
:1010C0009C830E94A5249B01AC0189819A81AB81FC
:1010D000BC81281B390B4A0B5B0B8881882339F4B0
:1010E0002436310541055105B4F081E008C0813056
:1010F00091F4245F3140404050406CF082E088839E
:101100000AC019821A821B821C8205C08881823023
:1011100009F0B5CFABCFDF91CF91089581E160E0C9
:101120000E94732581E161E00E94992508952F9224
:101130003F924F925F926F927F928F929F92AF9267
:10114000BF92CF92DF92EF92FF920F931F93DF93A4
:10115000CF93CDB7DEB72C970FB6F894DEBF0FBE96
:10116000CDBF0E94A52469837A838B839C8322242C
:10117000332421011C861B861F82188619861A8635
:10118000EE24EA94FE2C87011E821D8295C080E029
:101190000E9451253C01882477FC8094982C2FEFE5
:1011A000E2162FEFF2062FEF02072FEF120781F161
:1011B00090E031E0E31632E0F30630E0030730E080
:1011C00013070CF091E080E041E0641642E0740601
:1011D00040E0840640E094060CF081E09817C1F0EE
:1011E000D601C5012F81388549855A85821B930B0D
:1011F000A40BB50B0697A105B10550F04B855C8596
:101200004F5F5F4F5C874B87AF82B886C986DA86AF
:101210008B859C858130910508F44CC08330910505
:1012200020F0039709F046C014C0A4019301205098
:10123000324040405040CA01B9010E94A328260E06
:10124000371E481E591EED81FE813196FE83ED83C7
:1012500031C08D819E819C0140E050E0C201B1010E
:101260000E94E92879018A0171E0A72EB12CC12CD6
:10127000D12C05C00894A11CB11CC11CD11CC601F5
:10128000B501A60195010E94A328E616F7060807F6
:10129000190780F70894A108B108C108D108C60150
:1012A000B50127ED30E040E050E00E94A3289B010B
:1012B000AC0119C0840173010E94A5245B016C017B
:1012C000DC01CB0129813A814B815C81821B930B2C
:1012D000A40BB50B8397A105B10508F458CF20E006
:1012E00030E040E050E0B901CA012C960FB6F89406
:1012F000DEBF0FBECDBFCF91DF911F910F91FF9049
:10130000EF90DF90CF90BF90AF909F908F907F90A5
:101310006F905F904F903F902F900895AF92BF9243
:10132000CF92DF92EF92FF920F931F93CF93DF93B1
:101330006B015A01EFEFEE2EE3E0FE2E00E010E02D
:10134000C0E0D0E081E00E9451250817190714F48D
:101350008C0104C08E159F050CF47C012196C436C7
:10136000D10581F7F601F182E082F5011183008356
:10137000DF91CF911F910F91FF90EF90DF90CF9071
:10138000BF90AF900895CF93DF93EC011A8219823A
:1013900082E00E94F125892B19F081E0888301C049
:1013A0001882DF91CF9108950F931F938C0188E0ED
:1013B00060E00E94992587E060E00E94992589E01D
:1013C00060E00E949925F801868D8F7B868F0E94B0
:1013D000BC20035C1F4FF801608371838283938379
:1013E0000D5310400E94A524F80165AB76AB87AB86
:1013F00090AF1F910F91089580910203882321F0EF
:1014000081E080930103089580911C03806880939C
:101410001C038EEF92E00E94D40910928B00109270
:101420008A0082E090E09093FF028093FE0281E0C8
:101430008093000308950F931F938C0188E061E06F
:101440000E94992587E061E00E94992589E061E08A
:101450000E949925F801868D8064868F0E94BC20A9
:10146000F80161AF72AF83AF94AF0E94A524F80179
:1014700061AB72AB83AB94AB1F910F910895AF92A8
:10148000BF92CF92DF92EF92FF920F931F93DF9361
:10149000CF9300D000D0CDB7DEB77C010E94A52449
:1014A0005B016C01F70111A51F3F39F465E070E0A5
:1014B00080E090E00E94B3249BC21E3FB9F5F70183
:1014C000868D86FF95C285A996A9A7A9B0ADA81655
:1014D000B906CA06DB0608F48BC2C701BE016F5FFE
:1014E0007F4FAE014D5F5F4F24E630E00E948E09D2
:1014F0002B813C81F70181A192A12817390790F433
:1015000085A996A9A7A9B0ADA81AB90ACA0ADB0A83
:10151000F8EBAF16FBE0BF06F0E0CF06F0E0DF0629
:1015200008F466C2C7010E94D40962C283E00E9427
:10153000F1256C0184E00E94F1255C01F701868DA4
:1015400086FF36C0848D83FD99C00E94A524F701D3
:1015500021A932A943A954A9621B730B840B950BD3
:10156000695E73408040904008F488C021E0C21654
:10157000D10409F083C031E0A316B10409F07EC0A4
:1015800087E0F70181A7C7010E94D409F701868986
:101590008F3F11F08F5F868B0E94A52460567444A4
:1015A000824F9F4FF70166877787808B918B06C2AA
:1015B000173019F5F70182899389A489B5890397B2
:1015C000A105B10508F0F7C10E94A524F701268501
:1015D000378540895189621773078407950708F496
:1015E000EAC182899389A489B5890196A11DB11D9B
:1015F000828B938BA48BB58B41C0F701848D84FDC6
:101600003DC0CD2811F0AB28B9F5183071F0F701C5
:10161000838D882351F40E94A524F701678B708F76
:10162000818F928F838D8F5F838F0E94A524F70116
:1016300025A936A947A950AD621B730B840B950BE6
:10164000695E73408040904080F00E94A524F701BD
:101650002789308D418D528D621B730B840B950B46
:10166000695E73408040904010F4183039F488E08F
:10167000F70181A708E0A3C1F701138E00E091E014
:10168000F7018281882309F441C086E081A7818522
:101690009285A385B4850397A105B10508F091C192
:1016A000163059F085858F3F11F08F5F8587F701E0
:1016B00011861286138614861DC00E94A524F70188
:1016C0002581368147815085621773078407950706
:1016D00008F477C1C70102960E94C309F70181850A
:1016E0009285A385B4850196A11DB11D818792873E
:1016F000A387B4870E94A52460567444824F9F4FED
:10170000F70165837683878390875BC1992309F40A
:101710006FC0812F8650833058F480E49FE190930E
:101720008B0080938A00F7011182108211A610E0CD
:10173000C701BE016F5F7F4FAE014D5F5F4F24E673
:1017400030E00E948E09F701448D41FD3CC180814B
:101750009181019709F037C129813A8187A190A52C
:101760002817390708F42FC105E017C0F70181A138
:1017700092A12817390710F002E00FC0F70183A1EA
:1017800094A12817390740F442FF28C185A196A1EA
:101790008217930708F022C103E0011749F1F7010E
:1017A00083A5081741F00E94A524F70164A775A737
:1017B00086A797A71DC00E94A524F701A4A4B5A4DD
:1017C000C6A4D7A4013029F02AEF30E040E050E071
:1017D00004C029E130E040E050E06A197B098C093F
:1017E0009D09621773078407950710F0F70101A799
:1017F000F70103A781A5811709F4A1C0813009F47D
:101800003DC0823009F44BC08330B1F5F70180A9A7
:10181000282F30E0C90106978E9760F4B901882718
:1018200077FD8095982F25E830E040E050E00E9459
:10183000A32815C0C901C4974D97D0F4C901AA27A0
:1018400097FDA095BA2F80569F4FAF4FBF4F05E031
:10185000880F991FAA1FBB1F0A95D1F7BC0170936F
:101860008B0060938A0081E090E0F7019183808390
:10187000C7010E941B0A63C0843069F4C7010E943B
:10188000D40980E49FE190938B0080938A00F70154
:101890001182108254C08630C9F1853099F5C70194
:1018A0000E94D409F70180A9282F30E0C9010697CA
:1018B0008E9760F4B901882777FD8095982F25E8E9
:1018C00030E040E050E00E94A32815C0C901C49751
:1018D0004D97A8F5C901AA2797FDA095BA2F805664
:1018E0009F4FAF4FBF4FF5E0880F991FAA1FBB1F37
:1018F000FA95D1F7BC0170938B0060938A0081E068
:1019000090E00DC0873011F0883069F4C7010E9463
:10191000D40910928B0010928A0082E090E0F701C7
:10192000918380830CC080E49FE190938B0080932F
:101930008A00F70111821082C7010E94D409F701C1
:1019400012A781A5833009F053C0C7010E949708F0
:101950002DE430E0E20EF31EF70160837183828391
:10196000938323EB3FEFE20EF31E87010F5B1F4FC4
:10197000F80180819181A281B38125E430E0E20EFB
:10198000F31EF70180839183A283B3832BEB3FEF98
:10199000E20EF31E0E94BC20F70121AD32AD43AD33
:1019A00054AD621B730B840B950BF801608371833C
:1019B000828393831DC087E0F70181A707E090E051
:1019C0005FCE06E015CF2B813C81F701878D90A17A
:1019D0002817390708F4CACE01E0DFCEF70185A148
:1019E00096A18217930710F000E0D7CE04E0D5CE81
:1019F0000F900F900F900F90CF91DF911F910F914B
:101A0000FF90EF90DF90CF90BF90AF900895FC01D2
:101A1000858580FF02C0611167E0CF010E946322CB
:101A20000895DC015F96EEEBF1E08AE001900D9203
:101A30008150E1F708950F931F93CF93DF938C01AB
:101A400081E0F8018283118286E061E00E947325C3
:101A5000C0E0D0E086E061E00E94992580E49FE14B
:101A60000E940C2586E060E00E94992580E49FE1B9
:101A70000E940C25F8018181882321F42196C2332C
:101A8000D10541F782E00E94F1250197D9F3F801D1
:101A90001282DF91CF911F910F910895AF92BF9263
:101AA000CF92DF92EF92FF920F931F937C016B0115
:101AB0005A018C01025F1F4FC801B9010E947C01CD
:101AC000C701B601A50198010E943C041F910F9126
:101AD000FF90EF90DF90CF90BF90AF900895CF929E
:101AE000DF92EF92FF920F931F937C016B018C01A9
:101AF000025F1F4FC801BA010E947C01C701B601F5
:101B0000A8010E94C2051F910F91FF90EF90DF90F6
:101B1000CF9008950F931F93FC0114820FE413E0FC
:101B2000C80160E070E04BED51E00E946F0D409104
:101B3000F1015091F201C80161E070E00E94C2051C
:101B40001F910F910895EF92FF920F931F938C01B5
:101B50002FE4E22E23E0F22EFC0142815381C701E3
:101B600060E070E00E946F0D20911A0330911B031A
:101B700093E0369527959A95E1F72170F801248333
:101B800000D000D000D0ADB7BEB711960EEB12E07A
:101B9000EDB7FEB71283018384E291E013969C9324
:101BA0008E931297E22FF0E0EE0FFF1FEF50FE4FE3
:101BB0008081918115969C938E9314970E948E013B
:101BC0008DB79EB706960FB6F8949EBF0FBE8DBF19
:101BD000C70161E070E0A8010E94C2051F910F914A
:101BE000FF90EF900895EF92FF920F931F938C0157
:101BF0005FE4E52E53E0F52EFC0142815381C701DD
:101C000060E070E00E946F0D20911A0330911B0379
:101C100036952795369527952170F801248300D0B5
:101C200000D000D0ADB7BEB711960EEB12E0EDB705
:101C3000FEB71283018384E291E013969C938E9306
:101C40001297E22FF0E0EE0FFF1FEF50FE4F808162
:101C5000918115969C938E9314970E948E018DB757
:101C60009EB706960FB6F8949EBF0FBE8DBFC701F4
:101C700061E070E0A8010E94C2051F910F91FF90E2
:101C8000EF900895EF92FF920F931F93CF93DF93FE
:101C90008C017FE4E72E73E0F72EDC0112964D9164
:101CA0005C911397C70160E070E00E946F0DE091B6
:101CB0001B03E695E170E801EC8300D000D000D072
:101CC000ADB7BEB711960EEB12E0CDB7DEB71A83F3
:101CD000098384E291E013969C938E931297F0E02F
:101CE000EE0FFF1FEF50FE4F8081918115969C9360
:101CF0008E9314970E948E01EDB7FEB736960FB6FD
:101D0000F894FEBF0FBEEDBFC70161E070E0A8010F
:101D10000E94C205DF91CF911F910F91FF90EF902C
:101D20000895EF92FF920F931F938C012FE4E22E00
:101D300023E0F22EFC0142815381C70160E070E094
:101D40000E946F0D20911A0330911B033695279541
:101D50002170F801248300D000D000D0ADB7BEB709
:101D600011960EEB12E0EDB7FEB71283018384E209
:101D700091E013969C938E931297E22FF0E0EE0F72
:101D8000FF1FEF50FE4F8081918115969C938E939B
:101D900014970E948E018DB79EB706960FB6F894E1
:101DA0009EBF0FBE8DBFC70161E070E0A8010E9419
:101DB000C2051F910F91FF90EF900895CF93DF938D
:101DC000EC014A815B818FE493E060E070E00E9467
:101DD0006F0D80911A0385FD02C01C8206C080FD34
:101DE00002C081E001C082E08C838FE493E061E077
:101DF00070E00E9458048FE493E060E070E041E0FE
:101E000050E020E031E00E943C04EC81F0E0EE0F75
:101E1000FF1FE053FE4F608171818FE493E00E94C9
:101E20005004DF91CF9108950F931F93CF93DF93C9
:101E3000EC014A815B818FE493E060E070E00E94F6
:101E40006F0DE0E08091BD02813009F0E1E0EC83AC
:101E500000D000D000D0ADB7BEB711960EEB12E0A7
:101E6000CDB7DEB71A83098384E291E013969C9381
:101E70008E931297F0E0EE0FFF1FEA52FE4F808123
:101E8000918115969C938E9314970E948E018DB725
:101E90009EB706960FB6F8949EBF0FBE8DBF8FE417
:101EA00093E061E070E0A8010E94C205DF91CF914C
:101EB0001F910F910895DC0114968C9114978F5FF8
:101EC00014968C93149715969C911597981718F45F
:101ED00014961C9214971496EC91149715968C9165
:101EE000E81718F04DED50E00AC0F0E0EE0FFF1FCC
:101EF000E455FE4F0190F081E02D428153818FE443
:101F000093E061E070E00E946F0D08950F931F93BE
:101F1000FC0114820FE413E042815381C80160E0A8
:101F200070E00E946F0DE091AC01F091AD01428133
:101F30005381C80161E070E00E946F0D1F910F9105
:101F40000895EF92FF920F931F938C019B017A01EA
:101F500060E070E0A9010E946F0DC80161E070E0CF
:101F6000A7010E946F0D1F910F91FF90EF900895B0
:101F70006F927F928F929F92AF92BF92CF92DF9299
:101F8000EF92FF920F931F93CF93DF936C0180E446
:101F90009FE190938B0080938A00F601118210825A
:101FA00085E061E00E9499258FE493E062EE70E0A5
:101FB0004BEE50E00E94A10FF601848D85FD05C116
:101FC00066E970E080E090E00E94B32481E00E9426
:101FD000512510928B0010928A0022E030E0F60129
:101FE00031832083855893400CF4EFC083E00E9436
:101FF000F1258C0184E00E94F1257C0188E061E0FC
:102000000E94992589E061E00E9499256AEF70E0BD
:1020100080E090E00E94B32483E00E94F1253C011F
:1020200084E00E94F1254C0188E060E00E9499253F
:1020300089E060E00E9499256AEF70E080E090E01E
:102040000E94B32487E061E00E9499256AEF70E066
:1020500080E090E00E94B32483E00E94F1255C01BF
:1020600084E00E94F125EC0187E060E00E94992560
:102070006AEF70E080E090E00E94B324000F111F2F
:102080000E0D1F1D0330110509F05EC09301220FD4
:10209000331F280D391DA501440F551F4C0F5D1F1F
:1020A0002330310534F4213031058CF5232B31F008
:1020B000D6C02330310509F0D2C011C043305105DC
:1020C00019F4C2E0D0E002C0C0E0D0E0F601848D97
:1020D00084FD3FC04330510509F0BEC03AC0F6014F
:1020E000848D83FD06C04330510519F4C3E0D0E070
:1020F00008C04115510519F4C2E0D0E002C0C0E0AB
:10210000D0E0415050404230510518F525C0F6014D
:10211000848D84FD06C04330510549F0C4E0D0E011
:1021200008C04330510519F0C0E0D0E002C0C1E062
:10213000D0E02130310521F44230510551F486C000
:102140004130510531F485C0F601848D84FF84C08F
:1021500086C0C130D10559F48FE493E065EF70E09B
:1021600041E051E00E94A10FC1E0D0E00BC0C230BD
:10217000D10541F48FE493E065EF70E04FE051E06A
:102180000E94A10FCE010397029728F48FE493E0F9
:1021900061E00E94070DC330D10529F48FE493E07C
:1021A0006DE271E007C0C430D10541F48FE493E0E3
:1021B0006DE171E04EE351E00E94A10F64EF71E028
:1021C00080E090E00E94B32402C0C0E0D0E0F601BD
:1021D000848D958D91FD1DC0C60102960E941B0D38
:1021E000F60183818823A9F48FE493E061E00E94E3
:1021F000070D8FE493E06EE670E04EE351E00E943D
:10220000A10F64EF71E080E090E00E94B324C5E08C
:10221000D0E085E060E00E94992580E49FE1909302
:102220008B0080938A00F601118210828C2FDF913F
:10223000CF911F910F91FF90EF90DF90CF90BF90C3
:10224000AF909F908F907F906F900895C2E0D0E004
:1022500080CFC2E0D0E08BCFC4E0D0E088CFC0E038
:10226000D0E085CF8FE493E061E070E046E052E09B
:102270000E946F0D2EE088E190E00FB6F894A895CB
:10228000809360000FBE2093600008950F931F930A
:102290008C018FE493E060E070E041E050E020E0EA
:1022A00031E00E943C04D8011496EC91F0E0EE0F6E
:1022B000FF1FEF50FE4F608171818FE493E00E9419
:1022C000500464EF71E080E090E00E94B324F801D4
:1022D0008481882319F40E943211FFCF80E090E0BE
:1022E0001F910F9108950F931F93CF93DF93EC01EC
:1022F0008985882351F08E01025F1F4FC8010E941B
:102300007C01CE01B8010E94B827DF91CF911F91C7
:102310000F9108958F929F92AF92BF92CF92DF92CA
:10232000EF92FF920F931F93CF93DF93982E892EF6
:102330000091270380911A0380FD02C021E001C0B3
:1023400022E080912803081709F44BC28DB79EB78D
:1023500008970FB6F8949EBF0FBE8DBFEDB7FEB7BE
:102360003196CEEBD2E0ADB7BEB71296DC93CE93EA
:10237000119788EC91E09383828324831582809166
:102380002E03868317820E948E01EDB7FEB7389622
:102390000FB6F894FEBF0FBEEDBF053009F4B3C011
:1023A000063080F4023009F44DC0033020F40130CF
:1023B00009F03EC11AC0033009F473C0043009F0BB
:1023C00037C18DC0083009F4DCC0093038F406305C
:1023D00009F4AFC0073009F02BC1BFC00E3F09F4AC
:1023E00000C10F3F09F024C1E0C08DE061E00E9410
:1023F000992585E060E00E949925892D982D62E05D
:102400000E94070D892D982D0E94C422892D982D98
:1024100060E040E00E941222892D982D6CEC71E062
:102420000E947311892D982D6AE070E040E050E021
:102430009E010E943C04892D982D61E070E04BEBD9
:1024400051E02CC08DE061E00E94992585E061E0BB
:102450000E949925892D982D63E00E94070D892DF2
:10246000982D0E94C422892D982D60E040E00E94A2
:102470001222892D982D6CEC71E00E947311892D28
:10248000982D6AE070E040E050E09E010E943C041C
:10249000892D982D61E070E04EEA51E00E946F0DA9
:1024A000A4C18DE060E00E94992585E060E00E9473
:1024B0009925892D982D66E00E94070D892D982D6C
:1024C0000E94C422892D982D60E040E00E941222D3
:1024D000892D982D62ED71E00E947311B4C08DE0DA
:1024E00060E00E94992585E061E00E949925892D90
:1024F000982D61E00E94070D892D982D6AE471E006
:1025000045E551E013C08DE060E00E94992585E02B
:1025100061E00E949925892D982D61E00E94070DA8
:10252000892D982D6AE471E043E651E00E94A10FE5
:102530005CC18DE060E00E94992585E061E00E9429
:102540009925892D982D61E00E94070D892D982DE0
:102550006AE471E044E751E0E9CF8DE060E00E9479
:10256000992585E061E00E949925892D982D61E0EB
:102570000E94070D892D982D6AE471E04FE751E024
:10258000D5CF8DE060E00E94992585E061E00E9452
:102590009925892D982D61E00E94070D892D982D90
:1025A0006AE471E049E851E0C1CF8DE060E00E944B
:1025B000992585E061E00E949925892D982D65E097
:1025C0000E94070D892D982D0E94C422892D982DD7
:1025D00060E040E00E941222892D982D65E971E0AB
:1025E0001BC08DE061E00E94992585E061E00E94BA
:1025F0009925892D982D65E00E94070D892D982D2C
:102600000E94C422892D982D60E040E00E94122291
:10261000892D982D65EA71E00E947311892D982DFE
:102620006AE070E040E050E09E010E943C04DDC0A2
:102630008DE060E00E94992585E061E00E94992587
:10264000033009F0D2C0A0904B03B0904C03C0906F
:102650004D03D0904E038EEB92E0F8EEAF16F3E010
:10266000BF06F0E0CF06F0E0DF06E8F400D000D0CF
:1026700000D0EDB7FEB73196ADB7BEB712969C93BA
:102680008E93119788E291E093838283B582A4822E
:102690000E948E01EDB7FEB736960FB6F894FEBFD6
:1026A0000FBEEDBF45C02DB73EB7285030400FB626
:1026B000F8943EBF0FBE2DBF0DB71EB70F5F1F4F63
:1026C000ADB7BEB712969C938E9311978EE291E0B0
:1026D000F80193838283C601B50128EE33E040E020
:1026E00050E00E94E928D80115963C932E93149748
:1026F000C601B50128EE33E040E050E00E94E92831
:102700006E5C7F4F8F4F9F4F24E630E040E050E0FB
:102710000E94E928F801378326830E948E012DB795
:102720003EB7285F3F4F0FB6F8943EBF0FBE2DBF98
:10273000CEEBD2E0892D982D6AE070E040E050E0C9
:102740009E010E943C04A0903F03B0904003C090C3
:102750004103D09042038091430390914403A091A0
:102760004503B0914603A816B906CA06DB06E9F18F
:10277000C601B5010E9489207C01C601B5010E94F5
:1027800083208C01C601B5010E947D20ADB7BEB784
:102790001A970FB6F894BEBF0FBEADBFEDB7FEB728
:1027A00031961296DC93CE93119726E331E0338372
:1027B0002283F582E48217830683918780870E94B3
:1027C0008E01EDB7FEB73A960FB6F894FEBF0FBE76
:1027D000EDBF892D982D61E070E0AE010E94C20529
:1027E00004C0662309F0B2CD2BCFDF91CF911F91AA
:1027F0000F91FF90EF90DF90CF90BF90AF909F90A0
:102800008F900895FC018585613011F48E7F01C0A1
:1028100081608587CF01642F0E948A1108951F93DC
:10282000CF93DF93EC01162F8FE493E00E94021404
:102830008C8D9D8D112311F4916001C09E7F9D8F21
:102840008C8F0E94A60680E090E0DF91CF911F91CF
:102850000895CF93DF93EC018FE493E060E070E0A4
:1028600041E050E020E031E00E943C04EC81F0E0E7
:10287000EE0FFF1FEA52FE4F608171818FE493E0FB
:102880000E94500460E08C81882309F461E08EEF9F
:1028900092E040E00E940F1490E08C81882309F4BC
:1028A00091E09093BD028FE493E060E040E00E94ED
:1028B000021464EF71E080E090E00E94B32484E8A9
:1028C00092E0DF91CF910895FF920F931F93CF93E2
:1028D000DF93EC01F42E8C8D80FD02C080E101C0FD
:1028E00080E5663030F0861748F068AB00E010E015
:1028F00008C086E088AB01E010E003C088AB02E0CE
:1029000010E08C8D80FD02C081E001C082E060E0BB
:1029100070E0813011F061E070E083EA93E048A953
:102920000E94461C88819981019781F588A9282FEA
:1029300030E0C90106978E9760F4B901882777FDCA
:102940008095982F25E830E040E050E00E94A328D1
:1029500015C0C901C4974D97C8F4C901AA2797FDAE
:10296000A095BA2F80569F4FAF4FBF4F25E0880FDD
:10297000991FAA1FBB1F2A95D1F7BC0170938B002A
:1029800060938A0081E090E099838883FF2029F09A
:102990008FE493E061E00E948A11C801DF91CF913A
:1029A0001F910F91FF900895CF93DF93EC018FE477
:1029B00093E060E070E041E050E020E031E00E9410
:1029C0003C048C81EF81F885E80FF11D60818091D6
:1029D0005803882339F08FE493E070E04AE050E038
:1029E0000E9490288FE493E062E271E00E9450041C
:1029F00064EF71E080E090E00E94B32480911A03BC
:102A000080FD02C081E001C082E060E070E08130C2
:102A100011F061E070E08C81EF81F885E80FF11D25
:102A200083EA93E040810E94461C8C81EF81F88507
:102A3000E80FF11D8EEF92E0608140E00E94641487
:102A400084E892E0DF91CF9108950F931F93CF9385
:102A5000DF93EC01162F042F8C8D9D8D623021F4B5
:102A600081609D8F8C8F04C08E7F9D8F8C8F11E035
:102A70000E94A60660E070E0113011F061E070E0A5
:102A800083EA93E00E943F1C682F81508E3F20F024
:102A9000113009F56CE006C0663010F416E00BC08A
:102AA000113029F4162F613130F010E104C0162FD7
:102AB000613508F010E5CE010E94110DCE01612FA5
:102AC00040E00E946414002341F08FE493E061E051
:102AD0000E948A1102C068E2E3CFDF91CF911F917B
:102AE0000F910895CF93DF93EC016C81662321F45D
:102AF0008EEF92E061E008C08EEF92E040E00E942D
:102B000025158EEF92E060E00E94BE068FE493E010
:102B100060E070E041E050E020E031E00E943C04E1
:102B2000EC81F0E0EE0FFF1FE053FE4F60817181FA
:102B30008FE493E00E9450040E94A60664EF71E0C7
:102B400080E090E00E94B32484E892E0DF91CF918E
:102B50000895CF93DF93EC0189A58E3F19F180E4AE
:102B60009FE190938B0080938A00198218828EEFE8
:102B700089A78FE493E060E00E948A1199A58AA555
:102B8000981721F08EE693E00E9447198EEF8AA7EE
:102B90000E94A5246854744F8F4F9F4F6DAB7EAB3E
:102BA0008FAB98AFDF91CF9108950F931F93CF9381
:102BB000DF93EC01062F0E942B088881813079F485
:102BC00089819A81AB81BC810097A105B10509F08B
:102BD0009DC01882AD81BE81109729F40DC082304E
:102BE00009F094C023C0ED91FC9111970280F3810C
:102BF000E02DCD0109958AC0002309F087C080919E
:102C000027038F3F19F08E3F09F07CC08FEF809330
:102C100028031092270380E49FE190938B00809318
:102C20008A001092FF021092FE0270C089819A8180
:102C3000AB81BC810097A105B10509F467C0198279
:102C40001A821B821C82AD81BE81109709F443C099
:102C5000ED91FC9111970480F581E02DCD0109954E
:102C6000DC019E838D830097D9F082E0A438B807F9
:102C700019F414960C911497ED91FC911197019011
:102C8000F081E02DCD010995ED81FE8182E0E438EF
:102C9000F807E1F501500483CF010E945B0F36C0B5
:102CA0008FEF809328031092270380E49FE1909395
:102CB0008B0080938A001092FF021092FE028FE434
:102CC00093E06F8141E00E9402148FE493E061E0A1
:102CD0000E948A111BC08EEF92E00E94A91580917C
:102CE0005C03809581708F838FE493E060E041E026
:102CF0000E94021404E812E0C8010E94860F1E839D
:102D00000D8304C08EEF92E00E94A915DF91CF9150
:102D10001F910F910895AF92BF92CF92DF92EF92E1
:102D2000FF920F931F93CF93DF93EC0183EA93E01D
:102D300062E070E00E943F1C182F00E083EA93E0FD
:102D400063E070E00E943F1CE82EFF24E02AF12A95
:102D50002FEFE2162FEFF20641F0F0FE06C08FE4EF
:102D600093E060E041E00E94021488E061E00E948C
:102D7000732587E061E00E94732589E061E00E948D
:102D8000732583E060E00E94732584E060E00E9488
:102D9000732583E061E00E94992584E061E00E9450
:102DA0009925CE010E94D4091092800020E43FE1D1
:102DB000309387002093860081E180938100229ADE
:102DC0008091800080628093800030938B002093FC
:102DD0008A00198218828FEFE8168FEFF80619F42F
:102DE0001D8E1C8E07C0FD8EEC8EE0FC03C0DD2422
:102DF000D39402C072E0D72E1E8E19861A861B86C7
:102E00001C861D861A8A1B8A1C8A1D8A1E8A1B8E96
:102E100019A61AA667E0A62E58E0B52E49E0C42EE2
:102E2000CE010E94B80F382F9C8D95FD04C08150B3
:102E3000823008F4D32E93FD05C0333019F4A9A6CF
:102E400021E001C020E08C8D84FD04C0343011F4F9
:102E5000B9A621E08C8D9D8D91FD04C0353011F413
:102E6000C9A602C0222309F10E94A5247B018C017E
:102E70000AC08EE693E060E00E94C91B86EB92E0F8
:102E800061E00E94D5150E94A5246E197F09800B70
:102E9000910B605A7B4B8D40904058F31EC0873099
:102EA00009F4BECF883009F4BBCFCE016D2D40E0D0
:102EB0000E942515CE0102960E94C3098DE060E0B4
:102EC0000E949925DF91CF911F910F91FF90EF9074
:102ED000DF90CF90BF90AF90089589A58930F9F623
:102EE0009FCF8EE693E061E00E94C91B8EEF92E0D7
:102EF0000E943F0A8FE493E060E00E948A1186EB13
:102F000092E060E00E94D5150895CF93DF93EC0125
:102F100089A58F3FE1F010928B0010928A0082E029
:102F200090E0998388838FEF89A7CE010E94D4090E
:102F30008FE493E060E00E948A1199A58AA5981712
:102F400021F08EE693E00E9447198FEF8AA7DF9168
:102F5000CF91089568E670E00E947C0108950F9378
:102F60001F938C01FC0115868DE061E00E947325A2
:102F700085E061E00E9473258DE060E00E94992564
:102F800085E060E00E94992581E0F8018487C8010E
:102F900060E142E022E00E94D122C80167E00E9485
:102FA0006322C80167E00E94070DC80160E070E07D
:102FB00045EF51E00E946F0DC80160E070E041E014
:102FC00050E02CEE31E00E944E0DC80168E670E042
:102FD0000E947311C80168EE71E00E94731160E2F3
:102FE00073E080E090E00E94B3241F910F91089558
:102FF0008FE493E00E94AF178EEF92E00E948B1651
:10300000089588E10FB6F8948093600010926000F4
:103010000FBE80E195E040E855E260E070E00E947C
:10302000752686EB92E00E948E0880E06CEF79E0D6
:1030300043E050E00E94E0230E94F817089560E208
:1030400041E020E00E942F2108958EE492E09093C9
:103050008502809384028CE790E0909387028093AE
:10306000860220E0322F3F5FE22FF0E0EE0FFF1FDD
:10307000E455FE4F80819181892B11F0232FF2CFEF
:10308000209389028AE392E090938B0280938A02D4
:1030900082E890E090938D0280938C0280E392E02E
:1030A0009093900280938F0280E990E09093920237
:1030B0008093910286E292E0909399028093980225
:1030C0008CE990E090939B0280939A0284E492E0D2
:1030D00090939E0280939D0289EB90E09093A002D2
:1030E00080939F028CE192E09093A3028093A202CE
:1030F0008EE690E09093A5028093A40282E192E094
:103100009093A8028093A70288EA90E09093AA0285
:103110008093A90288E092E09093AD028093AC0284
:1031200088EC90E09093AF028093AE028EEF91E036
:103130009093B2028093B10285ED90E09093B40237
:103140008093B3021092B6021092B7021092B802A6
:103150001092B9021092BA021092BC021092BB02F5
:103160008FE493E00E941F180895BC0120E040E026
:1031700050E004C02295207F41E050E0FB01E40FC5
:10318000F51FE0818E2F80538A3010F4280F06C07F
:103190008E2F8154863010F4E7532E0F41305105A5
:1031A00049F7822F08951F93CF93DF93DC01019697
:1031B00090969C938E935F9781E0D3968C93D39750
:1031C00011961C9111971C5DED0122969D012D5FBA
:1031D0003F4F22C08032A1F4105E1882D3968C91AA
:1031E000D397E82FFF27E7FDF095EE0FFF1FEA0FBB
:1031F000FB1F30A3278F8F5FD3968C93D39709C083
:103200008A3231F4FE011192CF010E94B51807C035
:10321000180F21962F5F3F4F88818823D9F620E031
:1032200030E0181711F021E030E0C901DF91CF91B3
:103230001F9108951092A20310926E0310928C03B6
:1032400008951F93CF93DF93EC01162F80E195E053
:1032500064E20E942D27112319F461E871E002C095
:1032600065E871E080E195E00E9481278E8D8823DA
:1032700029F080E195E0BE010E94812780E195E080
:103280006DE00E942D27DF91CF911F9108950F933C
:103290001F938DB79EB70A970FB6F8949EBF0FBEC7
:1032A0008DBFEDB7FEB731960EEB12E0ADB7BEB7EE
:1032B00012961C930E93119789E891E09383828371
:1032C00084E290E09583848380912703868317822C
:1032D0008DE090E0918780870E948E018DB79EB728
:1032E0000A960FB6F8949EBF0FBE8DBF80E195E0A1
:1032F000B8010E9481271F910F9108950F931F938A
:10330000CF93DF938C01DC015E961C925E975F96F3
:10331000ED91FC9190978081873409F487C18335C2
:1033200009F493C0863409F025C281818534A1F166
:10333000863434F4823471F0843409F01BC227C01F
:10334000823509F47AC0833509F47AC0803509F0F2
:1033500011C227C0F80181A192A19C01F90160E08E
:103360002AE007C0629F802D1124692F6053680FE7
:10337000319690819923B1F780915C0380FF02C060
:10338000611167E08FE493E00E946322EFC18EEF4A
:1033900092E00E948517EAC18EEF92E00E942F040E
:1033A000E5C1D80191968C91919792969C919C0140
:1033B000F90160E02AE007C0629F802D1124692F87
:1033C0006053680F319690819923B1F7F80183A17A
:1033D00094A19C01F90140E02AE007C0429F802DA2
:1033E0001124492F4053480F319690819923B1F70A
:1033F000D801979624E030E050E206C0ED91FD91AF
:10340000319750832F5F3F4FF80183A9992787FD9C
:1034100090952817390794F3C5A1D6A18FE493E0BE
:103420000E94122280915803882309F49FC18FE4DF
:1034300093E0BE010E94B82799C10E94321196C143
:103440008EEF92E00E94A91591C18181873409F421
:103450007DC088347CF4833499F1843424F480333F
:1034600009F088C117C0843409F44AC0853409F0D2
:1034700081C15BC0823509F4A0C0833524F48C344B
:1034800009F078C175C0833509F4A9C0863509F003
:1034900071C1BAC0D801D3968C91D397823009F00C
:1034A00069C160E09196ED91FC91929780818033A3
:1034B00009F061E08EEF92E041E00E940F141BC022
:1034C000F80183A9823009F055C181A192A19C0124
:1034D000F90160E02AE007C0629F802D1124692F66
:1034E0006053680F319690819923B1F78EEF92E087
:1034F00041E00E946414EC01009709F437C134C123
:10350000D801D3968C91D397823009F033C160E013
:103510009196ED91FC9192978081803309F061E062
:103520008EEF92E00E94970721C1F80183A98230B3
:1035300009F020C190E001A0F2A1E02D808180334C
:1035400009F091E0D801D4969C9310C1F80183A9A9
:10355000823009F00FC160E001A0F2A1E02D80816E
:10356000803309F061E08EEF92E00E94D806FEC041
:10357000D801D3968C91D397823009F0FBC09196F5
:10358000ED91FC919297608161330CF4F3C0633349
:1035900024F0613409F0EEC00AC060538EEF92E06F
:1035A00041E00E9425158EEF92E060E003C08EEFAF
:1035B00092E061E00E94BE06D9C0F80183A9823082
:1035C00009F0D8C060E001A0F2A1E02D8081803335
:1035D00009F061E08EEF92E00E94CB06C7C0D801EF
:1035E000D3968C91D397823009F0C4C060E0919655
:1035F000ED91FC9192978081803309F061E08EEF2C
:1036000092E00E945A07B2C0F80183A9823009F003
:10361000B1C060E001A0F2A1E02D8081803309F00B
:1036200061E08EEF92E00E941D07A0C08181853489
:1036300091F1863424F4833409F09CC007C08335AB
:1036400009F454C0863509F095C07CC080911A03F6
:1036500080FD03C020E130E002C020E530E08DB7FE
:103660009EB708970FB6F8949EBF0FBE8DBFEDB7FB
:10367000FEB73196ADB7BEB712961C930E93119755
:1036800083E991E09383828386E090E0958384834D
:10369000378326831DC0ADB7BEB718970FB6F89411
:1036A000BEBF0FBEADBFEDB7FEB7319612961C93ED
:1036B0000E93119789E991E09383828380912E0381
:1036C0008483158280911A0390911B0397838683CC
:1036D0000E948E0181E0F801868F8DB79EB7089613
:1036E0000FB6F8949EBF0FBE8DBF40C0ADB7BEB73A
:1036F0001A970FB6F894BEBF0FBEADBFEDB7FEB7B9
:10370000319612961C930E93119781EA91E0938360
:103710008283809127038483158280913F03909157
:103720004003A0914103B091420386839783A08711
:10373000B1870E948E0181E0F801868F8DB79EB718
:103740000A96CECFC8010E94AA17C80168EA71E0A4
:103750000E948301C80164E172E00E94710181E06E
:10376000D8015E968C9302C060E007C061E0C0E0C3
:10377000D0E003C060E0CFEFDFEFC8010E94211965
:10378000F8011082168ECE01DF91CF911F910F911B
:103790000895AF92BF92CF92DF92EF92FF920F9374
:1037A0001F93CF93DF93EC01662349F09091270399
:1037B00080912803981719F0CE010E94471980E1E3
:1037C00095E00E94D2265C01009721F431E0E32EBF
:1037D000F12C49C0CC24DD2421E0E22EF12C01E0C3
:1037E0003EC080E195E00E94FD26182F8CA9882319
:1037F00029F080E195E0612F0E942D27143219F401
:1038000018830E8F29C08881843231F58E8D8E31D8
:103810000CF5E82FFF27E7FDF0958F5F1D30A9F429
:10382000EC0FFD1F10828E8FCE010E94D318892BC2
:1038300029F4CE010E947E197C010EC018821E8ED2
:10384000CE0160E00E94211907C0EC0FFD1F10831C
:103850008E8F02C018821E8E0894C11CD11CCA14FF
:10386000DB040CF4BECFC701DF91CF911F910F9104
:10387000FF90EF90DF90CF90BF90AF900895F999AF
:10388000FECF72BD61BDF89A80B50895F999FECF5B
:103890001FBA72BD61BD40BD0FB6F894FA9AF99A8D
:1038A0000FBE089581E08093E9036093C6031092F0
:1038B000E7031092E80308959091C4038091C50333
:1038C000981710F080E00895E92FF0E0EC55FC4FD8
:1038D00080819F5F9093C40308950895DF93CF93F1
:1038E0000F92CDB7DEB769838091E903882389F011
:1038F0008091E803803290F48091E703E82FF0E0B4
:10390000E953FC4F60838F5F8093E7038093E80364
:1039100005C0CE01019661E00E944A1D0F90CF9133
:10392000DF9108958091C60367EC73E04091E8034E
:1039300021E00E94071D1092E7031092E803109205
:10394000E9030895413208F040E2862F64EA73E00B
:103950000E94D01C1092C4038093C50308950E9456
:10396000A21C08951092C4031092C5031092E7039D
:103970001092E8030E94BD1C08951092EB03449A34
:10398000459AE9EBF0E080818E7F808380818D7F96
:10399000808388E48093B80085E48093BC00089518
:1039A000982F413210F040E030C08091EB03882323
:1039B000E1F781E08093EB038FEF80935604109240
:1039C00011044150409312044F5F990F91609093FE
:1039D000EC0385EE8093BC008091EB038130E1F332
:1039E00080911104841710F44091110420E030E01C
:1039F0000AC0FB01E20FF31FD901AF50BC4F8C91FD
:103A000080832F5F3F4F2417A0F3842F08951F93C7
:103A1000582F122F413210F081E03AC08091EB0311
:103A20008823E1F782E08093EB038FEF80935604C5
:103A30001092110440931204A1EFB3E0FB0102C005
:103A400081918D938E2F861B8417D0F3852F90E064
:103A5000880F991F8093EC0385EE8093BC0011239F
:103A600021F08091EB038230E1F3809156048F3F87
:103A700011F480E00DC080915604803211F482E090
:103A800007C080915604803311F084E001C083E0C8
:103A90001F910895482F613210F081E008958091C0
:103AA000EB03843011F082E0089560933404A3E1C5
:103AB000B4E0842F9C01F90102C081918D938E2F77
:103AC000841B8617D0F380E008951F920F920FB6E3
:103AD0000F9211242F933F934F935F936F937F9394
:103AE0008F939F93AF93BF93EF93FF938091B90010
:103AF00090E0887F90708036910509F4DCC08136B3
:103B00009105CCF58832910509F47BC08932910585
:103B1000B4F48031910509F46FC0813191053CF412
:103B2000009709F431C1089709F039C165C088319F
:103B3000910509F466C0809709F031C17DC08034D9
:103B4000910509F49FC08134910544F480339105B7
:103B500009F47DC0C89709F022C184C08035910561
:103B600009F484C08835910509F491C08834910521
:103B700009F015C198C08839910509F4FDC089394B
:103B80009105ECF48837910509F495C089379105C2
:103B90004CF48836910509F48EC08037910509F000
:103BA000FEC089C08838910509F4E6C080399105C6
:103BB00009F487C08038910509F0F1C082C0803BCC
:103BC000910509F4B0C0813B91054CF4803A910510
:103BD00009F489C0883A910509F0E1C0A4C0803C8D
:103BE000910509F4CDC0883C910509F4C9C0883B12
:103BF000910509F0D4C0ACC08091EC038093BB0068
:103C0000B9C09091110480911204981768F49091B2
:103C10001104E92FF0E0EF50FC4F80818093BB004E
:103C20009F5F90931104A6C085ED8093BC008091A6
:103C3000BC0084FDFCCFB1C080E28093560485EDCA
:103C40008093BC008091BC0084FDFCCFA6C080E3C3
:103C50008093560485ED8093BC008091BC0084FD68
:103C6000FCCF9BC088E3809356048AC080911104E6
:103C70009091BB00E82FF0E0EF50FC4F90838F5FF6
:103C800080931104909111048091120471C080916D
:103C900011049091BB00E82FF0E0EF50FC4F9083AF
:103CA0008F5F8093110485ED8093BC008091BC00F0
:103CB00084FDFCCF72C083E08093EB031092550427
:103CC00059C080915504803208F056C08091550447
:103CD0009091BB00E82FF0E0EB5CFB4F90838F5F8F
:103CE0008093550447C080915504803230F4E091B0
:103CF0005504F0E0EB5CFB4F108285ED8093BC0037
:103D00008091BC0084FDFCCF1092EB0360915504C0
:103D1000E091EF03F091F00385E394E070E0099502
:103D2000109255042DC084E08093EB03109233046D
:103D300010923404E091ED03F091EE030995809127
:103D40003404882329F481E080933404109213040E
:103D500090913304E92FF0E0ED5EFB4F808180937A
:103D6000BB009F5F9093330490913304809134049F
:103D7000981710F485EC01C085E88093BC000FC053
:103D800085EC8093BC0009C01092560485ED8093A9
:103D9000BC008091BC0084FDFCCF1092EB03FF912E
:103DA000EF91BF91AF919F918F917F916F915F91B3
:103DB0004F913F912F910F900FBE0F901F9018952C
:103DC00080915D0490915E04A0915F04B0916004C5
:103DD0000196A11DB11D80935D0490935E04A09394
:103DE0005F04B093600480915D0490915E04A091A3
:103DF0005F04B091600420915704309158044091C1
:103E0000590450915A0482179307A407B50710F17B
:103E1000809161048823F1F481E0809361048091B2
:103E20005D0490915E04A0915F04B0916004821BD8
:103E3000930BA40BB50B80935D0490935E04A09349
:103E40005F04B0936004E0915B04F0915C04099519
:103E50001092610408951F920F920FB60F921124D1
:103E60002F933F934F935F936F937F938F939F9382
:103E7000AF93BF93EF93FF9380916204909163049B
:103E80008093B2000E94E01EFF91EF91BF91AF912D
:103E90009F918F917F916F915F914F913F912F9162
:103EA0000F900FBE0F901F9018958F929F92AF9218
:103EB000BF92CF92DF92EF92FF920F931F93CF9317
:103EC000DF937B018C01EA012CE330E040E050E01D
:103ED0000E94E9286883C801B7012CE330E040E084
:103EE00050E00E94E928122F032FF42EE52E622FB6
:103EF000732F842F952F2CE330E040E050E00E9498
:103F0000E9286983612F702F8F2D9E2D2CE330E0DF
:103F100040E050E00E94E928122F032FF42EE52EF6
:103F2000622F732F842F952F28E130E040E050E07E
:103F30000E94E9286A83612F702F8F2D9E2D28E122
:103F400030E040E050E00E94E92879018A01C80190
:103F5000B7016C5F7F4F8F4F9F4F27E030E040E00D
:103F600050E00E94E9286F5F6B8320E0AA24BB2405
:103F7000650101C02F5F822E9924F401EE54F84FA1
:103F8000CF0183709070892B99F4CF0164E670E0C3
:103F90000E94D628892B39F4CF0160E971E00E9494
:103FA000D628892B29F48EE691E0A0E0B0E004C089
:103FB0008DE691E0A0E0B0E0A80EB91ECA1EDB1E9F
:103FC000C501A0E0B0E0E816F9060A071B0790F665
:103FD0002E83F401EE54F84F83E0882E912C8E222C
:103FE0009F228114910499F4CF0164E670E00E944D
:103FF000D628892B39F4CF0160E971E00E94D628D8
:10400000892B29F48EE691E0A0E0B0E004C08DE6B3
:1040100091E0A0E0B0E0A81AB90ACA0ADB0A980148
:1040200087010A191B092C093D09CF0164E670E0DC
:104030000E94D6287C01CF0160E971E00E94D62859
:10404000AC01E4E5F2E060E0613051F481149104E8
:1040500049F4E114F10441F44115510529F002C07D
:10406000808103C08CE101C08DE190E0A0E0B0E070
:10407000081719072A073B0740F0081B190B2A0BE2
:104080003B0B6F5F31966C30F9F66F5F6D83802F5D
:104090008F5F8C83DF91CF911F910F91FF90EF90F5
:1040A000DF90CF90BF90AF909F908F900895EF9248
:1040B000FF920F931F937B018C0180917B04909161
:1040C0007C04A0917D04B0917E04E816F9060A07ED
:1040D0001B0771F0C801B70140E754E00E94551F6B
:1040E000E0927B04F0927C0400937D0410937E04A4
:1040F0001F910F91FF90EF9008950E94572080919B
:10410000700490E008950E9457208091710490E01F
:1041100008950E9457208091720490E00895609362
:1041200066047093670480936804909369042091F7
:10413000F5013091F6014091F7015091F801260FF9
:10414000371F481F591F20936A0430936B04409314
:104150006C0450936D0482E090E090936F04809320
:104160006E040E94A5246093770470937804809372
:10417000790490937A040895EF92FF920F931F931E
:104180001CC02F5F3F4F4F4F5F4F2093660430930B
:104190006704409368045093690488EE93E0A0E0BC
:1041A000B0E0E80EF91E0A1F1B1FE0927704F092A0
:1041B00078040093790410937A040E94A524E09077
:1041C0007704F09078040091790410917A046E19C4
:1041D0007F09800B910B2091660430916704409118
:1041E000680450916904685E73408040904048F6CE
:1041F00080916A0490916B04A0916C04B0916D045D
:10420000281739074A075B07E8F0E0916404F0914A
:1042100065043097B9F0099561157105810591051F
:1042200019F00E948F200EC020E030E080916E04D3
:1042300090916F04892B11F021E030E030936F04EE
:1042400020936E0460916604709167048091680405
:10425000909169041F910F91FF90EF900895FC01D8
:1042600084E692E091838083442311F481E001C0CD
:1042700082E0818720876783128214860895682FE1
:104280008AEE93E00E946E1C08951F93162FFC0186
:10429000678160628AEE93E070E00E94521C89E0C0
:1042A0000E943F21812F0E943F218AEE93E00E94CD
:1042B000921C8823D1F71F9108951F93162FFC019C
:1042C000678160628AEE93E070E00E94521C83E195
:1042D0000E943F21812F0E943F218AEE93E00E949D
:1042E000921C8823D1F71F910895DF92EF92FF92DD
:1042F0000F931F93CF93DF937C01062FD42EFC01E5
:104300008485C62FD0E08130A1F5638504FD60610E
:10431000C5FD6860C6FD646007FD6260DD2019F0C0
:10432000162F106A02C0162F1062C701612F0E945B
:104330005D211F7DC701612F0E945D21F70163850B
:10434000C0FD6061C1FD6860C2FD6460C3FD626064
:10435000DD2019F0162F106A02C0162F1062C70157
:10436000612F0E945D211F7DC701612F0E945D2189
:1043700037C0D695C7959E012877442319F0922F10
:10438000966002C0922F9460F701838183FD02C082
:1043900010E001C010E8192BC701612F0E944521D0
:1043A0001B7FC701612F0E944521602F6F70660F30
:1043B000660F660FDD2011F0666001C06460F701D2
:1043C000838183FD02C010E001C010E8162BC701F5
:1043D000612F0E9445211B7FC701612F0E9445214B
:1043E000DF91CF911F910F91FF90EF90DF90089593
:1043F000FC018185882321F0CF0141E00E947521D5
:10440000089540E00E9475210895FC01818588236C
:1044100041F06381862F846083836C60CF010E94AA
:1044200001220895DF93CF93CDB7DEB728970FB65B
:10443000F894DEBF0FBECDBF9C01FC0181858823AF
:10444000D9F0FE013196AAE6B2E088E00D90019223
:104450008150E1F7F9018581841710F4482F41500C
:10446000E42FF0E0EE0FFF1FEC0FFD1F8181680FBE
:104470006068C9010E94012228960FB6F894DEBF39
:104480000FBECDBFCF91DF9108950F931F93162FCD
:10449000072FFC01678160628AEE93E070E00E9462
:1044A000521C82E10E943F21812F0E943F21802FD8
:1044B0000E943F218AEE93E00E94921C8823D1F74C
:1044C0001F910F910895FC0181858823B1F18085AA
:1044D000882311F087E0682784858130F1F480EC2F
:1044E00091E09387828760FF04C080E891E0938722
:1044F000828761FF05C0828593858F779387828746
:1045000062FF05C0828593859E7F9387828762853F
:104510007385CF010E94452208958381662311F09F
:10452000886001C0877F8383838183FD02C060E050
:1045300001C060E8CF010E9445210895CF93DF9329
:10454000EC0189858823E9F06F8160628AEE93E04F
:1045500070E00E94521C82E10E943F218AEE93E0AB
:104560000E94921C6F8160628AEE93E070E041E0ED
:1045700050E00E94AF1C8AEE93E00E945C1C809584
:104580008F71DF91CF910895FC018185882341F0DF
:10459000CF0161E00E94012280ED97E00E940C258E
:1045A00008950F931F93CF93DF93EC01142F022FE5
:1045B00062E370E080E090E00E94B3248AEE93E032
:1045C0000E94B21C8C856F818130B1F560628AEEE9
:1045D00093E070E00E94521C80E00E943F218FE136
:1045E0000E943F218AEE93E00E94921C882321F0D2
:1045F0008985823009F466C06F8160628AEE93E03B
:1046000070E00E94521C8CE00E943F218FE10E94CA
:104610003F218AEE93E00E94921C882321F0898535
:10462000823009F44FC06F8160628AEE93E070E0DF
:104630000E94521C81E038C060628AEE93E070E014
:104640000E94521C80E00E943F218FEF0E943F2178
:1046500080E00E943F2180E00E943F2180E00E9494
:104660003F2180E00E943F2180E00E943F2180E0C6
:104670000E943F2180E00E943F2180E00E943F2174
:1046800080E00E943F218AEE93E00E94921C8823E2
:1046900019F089858230B1F06F8160628AEE93E013
:1046A00070E00E94521C80E00E943F2180E00E9446
:1046B0003F218AEE93E00E94921C882329F089858D
:1046C000823011F4198677C08985823011F481E037
:1046D0008987123018F08A8188608A831D831E8240
:1046E000002329F0113019F48A8184608A838C8533
:1046F0008130B9F41B861A8610E0CE0168E30E946F
:104700005D21CE0168E10E945D211F5F1330A9F792
:10471000CE0168E20E945D21CE0168E00E945D2129
:1047200020C0CE016CE90E944521CE0168E90E94BB
:104730004521CE016CE90E944521CE0168E90E9425
:104740004521CE016CE90E944521CE0168E90E9415
:104750004521CE0164E90E944521CE0160E90E9415
:10476000452165E070E080E090E00E94B3246A811A
:104770006062CE010E94012265E070E080E090E07E
:104780000E94B3246A816062CE010E94012265E02A
:1047900070E080E090E00E94B3248CE08B83CE0137
:1047A0000E940522CE010E94C42282E08C83CE01A9
:1047B00066E00E940122DF91CF911F910F91089531
:1047C000823000F5E82FF0E0EE0FFF1FE158FB4FBD
:1047D00071836083882319F08130A1F408C080912F
:1047E00069008C7F842B80936900E89A08958091FA
:1047F0006900440F551F440F551F837F842B8093FE
:104800006900E99A08951F920F920FB60F92112432
:104810002F933F934F935F936F937F938F939F93C8
:10482000AF93BF93EF93FF9380917F0490918004A7
:10483000892B29F0E0917F04F09180040995FF9184
:10484000EF91BF91AF919F918F917F916F915F9108
:104850004F913F912F910F900FBE0F901F90189581
:104860001F920F920FB60F9211242F933F934F93E5
:104870005F936F937F938F939F93AF93BF93EF93C8
:10488000FF938091810490918204892B29F0E0911B
:104890008104F09182040995FF91EF91BF91AF914E
:1048A0009F918F917F916F915F914F913F912F9148
:1048B0000F900FBE0F901F9018951F920F920FB67A
:1048C0000F9211242F933F938F939F93AF93BF9396
:1048D0008091870490918804A0918904B0918A0402
:1048E00030918B040196A11DB11D232F2D5F2D3713
:1048F00020F02D570196A11DB11D20938B048093AC
:10490000870490938804A0938904B0938A048091CB
:10491000830490918404A0918504B091860401964B
:10492000A11DB11D8093830490938404A0938504FA
:10493000B0938604BF91AF919F918F913F912F913A
:104940000F900FBE0F901F9018958FB7F89420917D
:104950008704309188044091890450918A048FBF64
:10496000B901CA0108959B01AC017FB7F894809109
:10497000830490918404A0918504B091860466B567
:10498000A89B05C06F3F19F00196A11DB11D7FBF07
:10499000BA2FA92F982F8827860F911DA11DB11D11
:1049A00062E0880F991FAA1FBB1F6A95D1F7BC014F
:1049B0002DC0FFB7F8948091830490918404A09156
:1049C0008504B0918604E6B5A89B05C0EF3F19F0B9
:1049D0000196A11DB11DFFBFBA2FA92F982F8827BF
:1049E0008E0F911DA11DB11DE2E0880F991FAA1F16
:1049F000BB1FEA95D1F7861B970B885E9340C8F2E0
:104A0000215030404040504068517C4F21153105C5
:104A10004105510571F60895019739F0880F991FE6
:104A2000880F991F02970197F1F70895789484B53C
:104A3000826084BD84B5816084BD85B5826085BD9A
:104A400085B5816085BDEEE6F0E080818160808380
:104A5000E1E8F0E010828081826080838081816063
:104A60008083E0E8F0E0808181608083E1EBF0E02A
:104A7000808184608083E0EBF0E0808181608083CE
:104A8000EAE7F0E0808184608083808182608083B7
:104A90008081816080838081806880831092C100E2
:104AA0000895982F8E3008F09E5097708091F901EC
:104AB0008295880F880F807C892B80937C00809161
:104AC0007A00806480937A0080917A0086FDFCCF22
:104AD0002091780040917900942F80E030E0282BDD
:104AE000392BC9010895482F50E0CA01845B9D4FBE
:104AF000FC012491485C5D4FFA0184918823C1F048
:104B0000E82FF0E0EE0FFF1FE65EFD4FA591B49198
:104B1000662341F49FB7F8948C91209582238C935F
:104B20009FBF08959FB7F8948C91822B8C939FBF61
:104B30000895482F50E0CA01805A9D4FFC012491EE
:104B4000CA01845B9D4FFC013491485C5D4FFA01C2
:104B50009491992309F444C0222351F1233071F038
:104B6000243028F42130A1F0223011F514C0263071
:104B7000B1F02730C1F02430D9F404C08091800016
:104B80008F7703C0809180008F7D8093800010C05C
:104B900084B58F7702C084B58F7D84BD09C08091B4
:104BA000B0008F7703C08091B0008F7D8093B000FC
:104BB000E92FF0E0EE0FFF1FEC5DFD4FA591B491E2
:104BC000662341F49FB7F8948C91309583238C939E
:104BD0009FBF08959FB7F8948C91832B8C939FBFB0
:104BE0000895682F70E0CB01805A9D4FFC012491FD
:104BF000CB01845B9D4FFC014491685C7D4FFB01C0
:104C00009491992319F420E030E03CC0222351F123
:104C1000233071F0243028F42130A1F0223011F536
:104C200014C02630B1F02730C1F02430D9F404C0CC
:104C3000809180008F7703C0809180008F7D80936A
:104C4000800010C084B58F7702C084B58F7D84BD8D
:104C500009C08091B0008F7703C08091B0008F7D34
:104C60008093B000892F90E0880F991F825D9D4F3F
:104C7000FC01A591B4918C9120E030E0842311F0E7
:104C800021E030E0C90108951F920F920FB60F92F4
:104C900011242F933F934F938F939F93EF93FF9301
:104CA0004091C600E0910C05F0910D0531969F01F1
:104CB0002F773070319780910E0590910F0528174E
:104CC000390739F0E457FB4F408330930D052093AB
:104CD0000C05FF91EF919F918F914F913F912F91F3
:104CE0000F900FBE0F901F901895CF93DF93EC019C
:104CF0009A01AB01E885F985203081EE380780E024
:104D0000480780E0580709F449C081E090E00A882C
:104D100002C0880F991F0A94E2F7808360E079E06F
:104D20008DE390E00E940B292150304040405040DC
:104D3000CA01B90122E030E040E050E00E940B29B6
:104D4000EC81FD813083EE81FF812083EA85FB8544
:104D5000208141E050E0CA010E8402C0880F991FF3
:104D60000A94E2F7282B2083EA85FB852081CA017B
:104D70000F8402C0880F991F0A94E2F7282B208322
:104D8000EA85FB858081088802C0440F551F0A947C
:104D9000E2F7842B8083DF91CF910895108220E188
:104DA00030E0CECFDC011296ED91FC911397E058E4
:104DB000FF4F2191319180819181281B390B2F77F1
:104DC0003070C9010895DC011296ED91FC911397A2
:104DD000EE57FF4F2081318192918291E058F0404F
:104DE0008217930719F42FEF3FEF05C0E20FF31F6F
:104DF0008081282F30E0C9010895DC011296ED91E1
:104E0000FC911397DF01AE57BF4F2D913C91119745
:104E1000E058FF4F80819181E058F040821793075E
:104E200019F42FEF3FEF0BC0E20FF31F80812F5FCC
:104E30003F4F2F7730702D933C93282F30E0C901DE
:104E40000895DC011296ED91FC911397EE57FF4FF8
:104E500080819181929382930895FC01A085B18510
:104E600021898C9190E0022E02C0959587950A9435
:104E7000E2F780FFF6CF0484F585E02D6083089586
:104E800086E792E090931105809310058CE894E0FA
:104E9000909313058093120585EC90E0909315058F
:104EA0008093140584EC90E0909317058093160589
:104EB00080EC90E0909319058093180581EC90E0C8
:104EC00090931B0580931A0586EC90E090931D0546
:104ED00080931C0584E080931E0583E080931F056A
:104EE00087E08093200585E08093210581E0809311
:104EF000220508950E9416250E9401180E9471172C
:104F0000FDCF0F931F93CF93DF938C01EB0109C06B
:104F10002196D801ED91FC910190F081E02DC8011E
:104F2000099568816623A1F7DF91CF911F910F91B9
:104F30000895EF92FF920F931F93CF93DF938C010D
:104F40007B01EA010CC0D7016D917D01D801ED9183
:104F5000FC910190F081E02DC801099521972097DF
:104F600091F7DF91CF911F910F91FF90EF900895EE
:104F7000DC01ED91FC910280F381E02D099508950B
:104F80002F923F924F925F926F927F928F929F9259
:104F9000AF92BF92CF92DF92EF92FF920F931F9347
:104FA000DF93CF93CDB7DEB7A0970FB6F894DEBFEF
:104FB0000FBECDBF1C016A017B0141155105610582
:104FC000710549F440E350E060E070E020E030E03B
:104FD0000E945A2856C0882499245401422E5524F0
:104FE0006624772401E010E00C0F1D1F080D191D29
:104FF000C701B601A30192010E94E928F80160836C
:105000000894811C911CA11CB11CC701B601A3010D
:1050100092010E94E928C901DA016C017D01C114E5
:10502000D104E104F104F1F681E0E82EF12CEC0E5C
:10503000FD1EE80CF91C3E010894611C711CD50191
:10504000C4010197A109B1096C01C818D90816C09B
:10505000F601EE0DFF1D40814A3010F4405D01C0A5
:10506000495C552747FD5095652F752FC10120E0FC
:1050700030E00E945A280894E108F1086E147F0479
:1050800039F7A0960FB6F894DEBF0FBECDBFCF9113
:10509000DF911F910F91FF90EF90DF90CF90BF9025
:1050A000AF909F908F907F906F905F904F903F90C8
:1050B0002F900895EF92FF920F931F93CF93DF935A
:1050C000EC017A018B012115310541F4E881F98168
:1050D0000190F081E02D642F09951BC02A30310525
:1050E000B1F477FF10C04DE250E060E070E020E0E6
:1050F00030E00E945A2810950095F094E094E11C4D
:10510000F11C011D111DCE01B801A7012AE00E946A
:10511000C027DF91CF911F910F91FF90EF900895DD
:10512000EF92FF920F931F937B019A010027F7FCE8
:105130000095102FB801A7010E945A281F910F91C6
:10514000FF90EF900895629FD001739FF001829FBE
:10515000E00DF11D649FE00DF11D929FF00D839F06
:10516000F00D749FF00D659FF00D9927729FB00DA3
:10517000E11DF91F639FB00DE11DF91FBD01CF01B6
:1051800011240895AA1BBB1B51E107C0AA1FBB1F16
:10519000A617B70710F0A61BB70B881F991F5A95C3
:1051A000A9F780959095BC01CD01089597FB092E34
:1051B00007260AD077FD04D0E5DF06D000201AF4D8
:1051C000709561957F4F0895F6F7909581959F4F63
:1051D0000895A1E21A2EAA1BBB1BFD010DC0AA1F38
:1051E000BB1FEE1FFF1FA217B307E407F50720F050
:1051F000A21BB30BE40BF50B661F771F881F991FCB
:105200001A9469F760957095809590959B01AC0113
:10521000BD01CF01089597FB092E05260ED057FD3D
:1052200004D0D7DF0AD0001C38F450954095309553
:1052300021953F4F4F4F5F4F0895F6F7909580951A
:10524000709561957F4F8F4F9F4F0895EE0FFF1F11
:105250000590F491E02D09942F923F924F925F9226
:105260006F927F928F929F92AF92BF92CF92DF9276
:10527000EF92FF920F931F93CF93DF93CDB7DEB7DB
:10528000CA1BDB0B0FB6F894DEBF0FBECDBF09946F
:105290002A88398848885F846E847D848C849B84C6
:1052A000AA84B984C884DF80EE80FD800C811B81D4
:1052B000AA81B981CE0FD11D0FB6F894DEBF0FBE03
:0A52C000CDBFED010895F894FFCF73
:1052CA002B00252D313673004C32004C31002573EA
:1052DA00204D61782043757272656E74002B2564C7
:1052EA00410041002B2573002534646D41002533AC
:1052FA00642E25644100253032643A253032643AFE
:10530A002530326400202020202020202020202048
:10531A002020202020004175746F004C6576656C52
:10532A002031004C6576656C203200524742004DB0
:10533A006F6E6F6368726F6D6500596573004E6FAB
:10534A00004E4B20004F4B20002563535420256408
:10535A0025630025642025640025642025303478DF
:10536A0000256420256C6400200045019D028A0204
:10537A008F029802A702AC02A202B10200006B03DC
:10538A000C03B202000004014C25643A2564410072
:10539A0056015B0163016B016F01060A0C0E0F10C7
:1053AA00000A0C1014181E20282E343C40484B507A
:1053BA00007A017E012C01000001000000008A0D24
:1053CA006C04461100000000A30D8E04ED060000D7
:1053DA000000F30DC2042A0700000000420EF60482
:1053EA00670700000000910E2C05A40700000000CA
:1053FA001206D407D41400000000DE0E60057215F0
:10540A0000000000140F9805291400000000860F00
:10541A005B0F14081F1C1F1E1F1E1F1F1E1F1E1F8F
:10542A0000000000F821812799270000400014009D
:10543A005400000000002D2781279927D226FD2637
:04544A00E32621270D
:00000001FF
