:100000000C9492010C94B72F0C94E42F0C94C30120
:100010000C94C3010C94C3010C94C3010C94C30150
:100020000C94C3010C94B12A0C94C3010C94C30129
:100030000C94C3010C94C3010C94C3010C94C30130
:100040000C9411300C94C3010C94F8310C94C3013E
:100050000C94C3010C94C3010C94C3010C94C30110
:100060000C948A260C94C301332E322E320047465C
:10007000492053656C66205465737400536574752C
:10008000700053657276696365204C6576656C0017
:100090004D61782043757272656E740044696F64B7
:1000A0006520436865636B0056656E742052657108
:1000B000276420436865636B004261636B6C69670A
:1000C000687420547970650047726F756E642043C0
:1000D0006865636B0052657374617274004578697A
:1000E0007400446174652F54696D65005365742014
:1000F0004D6F6E74680053657420446179005365D8
:100100007420596561720053657420486F757200E0
:10011000536574204D696E7574650044656C617932
:100120002054696D65720053657420537461727454
:1001300020486F7572005365742053746172742087
:100140004D696E005365742053746F7020486F754D
:1001500072005365742053746F70204D696E0050A7
:100160006F776572204F6E0053656C66205465731F
:1001700074004175746F2044657465637400537630
:1001800063204C6576656C3A204C310053766320D1
:100190004C6576656C3A204C32002D2D5374756396
:1001A0006B2052656C61792D2D002D2D4561727487
:1001B000682047726F756E642D2D0054455354208E
:1001C0004641494C45440045565345204552524FFF
:1001D000520056454E54205245515549524544000F
:1001E00044494F44452043484B204641494C4544EF
:1001F0000047464349204641554C54004E4F204746
:10020000524F554E4400535455434B2052454C4198
:10021000590053746F707065640057616974696E3A
:100220006700536C656570696E6700455620436FC3
:100230006E6E6563746564004556204E6F7420438E
:100240006F6E6E656374656400000E1517110E0005
:100250000000000E0E0E00000000080C0E0C08003E
:10026000005265616479004368617267696E670076
:1002700052657374617274204E6F773F00536574DA
:1002800020446174652F54696D653F002020200073
:1002900056657273696F6E20004F70656E2045560B
:1002A0005345202020202020200052657374617265
:1002B00074696E672E2E2E001F1C1F1E1F1E1F1F0F
:1002C0001E1F1E1F00000000240027002A0000003F
:1002D0000000250028002B0000000000230026005D
:1002E00029000404040404040404020202020202B9
:1002F00003030303030301020408102040800102EA
:100300000408102001020408102000000007000269
:1003100001000003040600000000000000006A2441
:100320008F25F43211241FBECFEFD8E0DEBFCDBF42
:1003300014BE88E10FB6F8948093600010926000BC
:100340000FBE13E0A0E0B1E0E4E1FCE602C00590DE
:100350000D92A63CB107D9F716E0A6ECB3E001C0B8
:100360001D92AE37B107E1F713E0C4E2D3E004C059
:100370002297FE010E94CD35CE31D107C9F70E94E8
:100380002E330C9408360C940000FB01DC0102C0F3
:1003900005900D9241505040D8F70895FB01DC01C3
:1003A00005900D920020E1F70895FB01DC0104C0E7
:1003B0008D910190801921F441505040C8F7881B5D
:1003C000990B0895AEE0B0E0E8EEF1E00C94DF3573
:1003D0000D891E8986E08C831A8309838FEF9FE73E
:1003E0009E838D839E01275E3F4FCE0101966F89CC
:1003F000788DA9010E9406022F813885020F131FF4
:10040000F80110822E96E4E00C94FB35ABE0B0E0EE
:10041000ECE0F2E00C94D1353C012B015A01FC01D7
:1004200017821682838181FD03C06FEF7FEFC6C103
:100430009AE0892E1E010894211C311CF3012381AE
:10044000F20123FD859123FF81912F01882309F477
:10045000B2C1853239F423FD859123FF81912F01AB
:10046000853229F490E0B3010E94F903E7CF982F79
:10047000FF24EE249924FFE1FF15D0F09B3269F0B0
:100480009C3228F4903259F0933291F40EC09D3290
:1004900049F0903369F441E024C052E0F52A84E049
:1004A000F82A28C098E0F92A25C0E0E1FE2A22C0F7
:1004B000F7FC29C0892F80538A3070F4F6FE05C0FE
:1004C000989C902C1124980E15C0E89CE02C1124C7
:1004D000E80EF0E2FF2A0EC09E3229F4F6FC6BC152
:1004E00040E4F42A07C09C3619F450E8F52A02C00B
:1004F000983649F4F20123FD959123FF91912F0144
:10050000992309F0B8CF892F8554833018F0805291
:10051000833038F444E050E0A40EB51E5FE3598305
:100520000FC0933631F0933779F0933509F056C008
:1005300020C0F5018081898342E050E0A40EB51E01
:10054000610101E010E012C0F501C080D180F6FC2D
:1005500003C06FEF7FEF02C0692D70E042E050E012
:10056000A40EB51EC6010E94EE038C015FE7F522C2
:1005700014C0F501C080D180F6FC03C06FEF7FEF9F
:1005800002C0692D70E042E050E0A40EB51EC60125
:100590000E94E3038C0150E8F52AF3FE07C01AC05D
:1005A00080E290E0B3010E94F903EA948E2D90E07E
:1005B00008171907A8F30EC0F601F7FC8591F7FE9E
:1005C00081916F0190E0B3010E94F903E110EA9478
:1005D000015010400115110579F7EAC0943611F069
:1005E000993669F5F7FE08C0F50120813181428115
:1005F000538184E090E00AC0F501808191819C01E3
:10060000442737FD4095542F82E090E0A80EB91E94
:100610009FE6F92257FF09C05095409530952195E6
:100620003F4F4F4F5F4FE0E8FE2ACA01B901A101D9
:100630002AE030E00E942504D82ED21840C0953719
:1006400029F41F2D1F7E2AE030E01DC01F2D197FC9
:100650009F3661F0903720F4983509F0ACC00FC098
:10066000903739F0983709F0A6C004C028E030E090
:100670000AC0106114FD146020E130E004C014FDD4
:10068000166020E132E017FF08C0F501608171813A
:100690008281938144E050E008C0F501808191811E
:1006A000BC0180E090E042E050E0A40EB51EA10144
:1006B0000E942504D82ED2188FE7F82EF122F6FEDC
:1006C0000BC05EEFF522D91438F4F4FE07C0F2FC3B
:1006D00005C08FEEF82202C01D2D01C0192DF4FEB9
:1006E0000DC0FE01ED0DF11D8081803319F499EEEE
:1006F000F92208C01F5FF2FE05C003C08F2D867867
:1007000009F01F5F0F2DF3FC14C0F0FE0FC01E1583
:1007100010F09D2C0BC09D2C9E0C911A1E2D06C016
:1007200080E290E0B3010E94F9031F5F1E15C0F341
:1007300004C01E1510F4E11A01C0EE2404FF0FC01E
:1007400080E390E0B3010E94F90302FF1DC001FDA8
:1007500003C088E790E00EC088E590E00BC0802FD2
:10076000867891F001FF02C08BE201C080E2F7FCC5
:100770008DE290E0B3010E94F90306C080E390E0AF
:10078000B3010E94F9039A94D914C0F3DA94F101E9
:10079000ED0DF11D808190E0B3010E94F903DD2091
:1007A000A9F706C080E290E0B3010E94F903EA9441
:1007B000EE20C1F743CEF30166817781CB012B9602
:1007C000E2E10C94ED35FC010590615070400110A0
:1007D000D8F7809590958E0F9F1F0895FC0161506A
:1007E000704001900110D8F7809590958E0F9F1F53
:1007F00008950F931F93CF93DF938C01EB018B81AF
:1008000081FF1BC082FF0DC02E813F818C819D81A5
:100810002817390764F4E881F9810193F983E883A3
:1008200006C0E885F985802F0995892B31F48E81E2
:100830009F8101969F838E8302C00FEF1FEFC80137
:10084000DF91CF911F910F910895FA01AA272830C7
:1008500051F1203181F1E8946F936E7F6E5F7F4F8D
:100860008F4F9F4FAF4FB1E03ED0B4E03CD0670F09
:10087000781F891F9A1FA11D680F791F8A1F911D5C
:10088000A11D6A0F711D811D911DA11D20D009F4AC
:1008900068943F912AE0269F11243019305D3193EE
:1008A000DEF6CF010895462F4770405D4193B3E0D7
:1008B0000FD0C9F7F6CF462F4F70405D4A3318F07E
:1008C000495D31FD4052419302D0A9F7EACFB4E02F
:1008D000A6959795879577956795BA95C9F70097E7
:1008E0006105710508959B01AC010A2E0694579588
:1008F000479537952795BA95C9F7620F731F841FDF
:10090000951FA01D089581E08093F5040895FC01D2
:1009100080818823C1F09181992349F482818823C1
:1009200031F48381882319F48481882361F08381E1
:10093000981721F492818481981729F089EC94E02A
:1009400060E00E947E2D0895FF920F931F93F09018
:100950009804409199040CEF14E0C80162E070E043
:100960000E946825C80163E070E04F2D0E94682551
:100970001F910F91FF900895FC01848D958D662342
:1009800011F08F7B01C08064958F848F0E94A40436
:100990000895FC01848D958D662311F08F7D01C033
:1009A0008062958F848F0E94A4040895FC01848D39
:1009B000958D662311F0877F09C0128A138A148AE5
:1009C000158A16861786108A118A8860958F848FFB
:1009D0000E94A4040895FC01848D958D662311F076
:1009E0008B7F01C08460958F848F0E94A40408953A
:1009F000FC01848D958D662311F09D7F01C092606E
:100A0000958F848F0E94A4040895FC01848D958D98
:100A1000662311F08D7F01C08260958F848F0E94C4
:100A2000A40408958091980480FD02C081E001C073
:100A300082E060E070E0813011F061E070E08CEF06
:100A400094E04091AC040E9468250E94A40408959B
:100A5000CF93DF93EC018CEF94E064E070E00E94B0
:100A600061258F3F49F418828CEF94E064E070E0D8
:100A700040E00E94682501C088838CEF94E065E027
:100A800070E00E9461258F3F49F419828CEF94E059
:100A900065E070E040E00E94682501C089838CEF2A
:100AA00094E066E070E00E9461258F3F51F485E09C
:100AB0008A838CEF94E066E070E045E00E94682550
:100AC00001C08A838CEF94E067E070E00E946125AA
:100AD0008F3F51F486E08B838CEF94E067E070E009
:100AE00046E00E94682501C08B838CEF94E068E0AB
:100AF00070E00E9461258F3F51F487E38C838CEF77
:100B000094E068E070E047E30E94682501C08C83B0
:100B100060E67AEE80E090E043E854E00E94442AE8
:100B20000E94502ADF91CF9108950F931F938C015B
:100B300064EF71E080E090E00E946730F80184810A
:100B4000882319F42BE134E007C0813019F025E245
:100B500034E002C020E234E0C9011F910F910895F2
:100B60000F931F93CF93DF93EC0189010E94C62D51
:100B70008985882321F0CE01B8010E946C33DF9172
:100B8000CF911F910F910895FC018185882319F061
:100B9000CF010E946C3308950F931F938C0189EC51
:100BA00094E060E070E041E050E020E031E00E943D
:100BB000B005D8011496EC91F0E0EE0FFF1FEB5E4C
:100BC000FD4F6081718189EC94E00E94C40564EF5F
:100BD00071E080E090E00E946730F8018481882312
:100BE00019F026EC33E002C02DEF33E0C9011F916C
:100BF0000F9108950F931F938C0189EC94E060E0AE
:100C000070E041E050E020E031E00E94B005D80102
:100C10001496EC91F0E0EE0FFF1FEB5EFD4F60814C
:100C2000718189EC94E00E94C40560E0F801848140
:100C3000882309F461E08CE794E00E94D60464EF15
:100C400071E080E090E00E94673086EC93E01F91B5
:100C50000F9108950F931F938C0189EC94E060E04D
:100C600070E041E050E020E031E00E94B005D801A2
:100C70001496EC91F0E0EE0FFF1FEB5EFD4F6081EC
:100C8000718189EC94E00E94C40560E0F8018481E0
:100C9000882309F461E08CE794E00E94EB0464EFA0
:100CA00071E080E090E00E94673086EC93E01F9155
:100CB0000F9108950F931F938C0189EC94E060E0ED
:100CC00070E041E050E020E031E00E94B005D80142
:100CD0001496EC91F0E0EE0FFF1FEB5EFD4F60818C
:100CE000718189EC94E00E94C40560E0F801848180
:100CF000882309F461E08CE794E00E94F80464EF33
:100D000071E080E090E00E94673086EC93E01F91F4
:100D10000F9108950F931F938C0189EC94E060E08C
:100D200070E041E050E020E031E00E94B005D801E1
:100D30001496EC91F0E0EE0FFF1FEB5EFD4F60812B
:100D4000718189EC94E00E94C40560E0F80184811F
:100D5000882309F461E08CE794E00E94050564EFC4
:100D600071E080E090E00E94673086EC93E01F9194
:100D70000F910895CF93DF93EC01462F60E00E941E
:100D8000C62D8985882339F06091C8017091C90109
:100D9000CE010E946C33DF91CF910895CF93DF9302
:100DA000EC018C818F5F8C83823008F01C8289EC8F
:100DB00094E061E070E00E94BA068C81E82FF0E0D8
:100DC00020E030E08091EE04882311F421E030E04F
:100DD000E217F307B9F489EC94E060E070E041E0D9
:100DE00050E020E031E00E94B005EC81F0E0EE0F31
:100DF000FF1FEB5EFD4F6081718189EC94E00E94E2
:100E0000C4050EC0EE0FFF1FEB5EFD4F2081318148
:100E100089EC94E060E070E041E050E00E94B005B1
:100E2000DF91CF910895CF93DF93EC018C818F5F99
:100E30008C83833008F01C8289EC94E061E070E0E0
:100E40000E94BA06EC81F0E0EE0FFF1FEC54FD4F5C
:100E50002081318189EC94E060E070E041E050E075
:100E60000E94B005DF91CF910895CF93DF93EC01FD
:100E70008C818F5F8C83823008F01C8289EC94E037
:100E800061E070E00E94BA06EC81F0E0EE0FFF1F17
:100E9000EB5EFD4F2081318189EC94E060E070E0F1
:100EA00041E050E00E94B005DF91CF910895CF93CB
:100EB000DF93EC018C818F5F8C83823008F01C8281
:100EC00089EC94E061E070E00E94BA06EC81F0E009
:100ED000EE0FFF1FEB5EFD4F2081318189EC94E026
:100EE00060E070E041E050E00E94B005DF91CF91FA
:100EF0000895CF93DF93EC018C818F5F8C838230D8
:100F000008F01C8289EC94E061E070E00E94BA066F
:100F100089EC94E060E041E00E94C62D8091980445
:100F20009C8183FD03C0992319F008C0992331F0F7
:100F300089EC94E060E071E00E94C405EC81F0E08F
:100F4000EE0FFF1FEB5EFD4F6081718189EC94E035
:100F50000E94C405DF91CF910895CF93DF93EC01F8
:100F60008C818F5F8C83823008F01C8289EC94E046
:100F700061E070E00E94BA0689EC94E060E041E034
:100F80000E94C62D809198049C8182FD03C0992304
:100F900019F008C0992331F089EC94E060E071E029
:100FA0000E94C405EC81F0E0EE0FFF1FEB5EFD4FE9
:100FB0006081718189EC94E00E94C405DF91CF913A
:100FC0000895CF93DF93EC018C818F5F8C83823007
:100FD00008F01C8289EC94E061E070E00E94BA069F
:100FE00089EC94E060E041E00E94C62D8091980475
:100FF000909199042C8191FD03C0222319F008C01F
:10100000222331F089EC94E060E071E00E94C40595
:10101000EC81F0E0EE0FFF1FEB5EFD4F6081718110
:1010200089EC94E00E94C405DF91CF910895CF939D
:10103000DF93EC018C818F5F8C83823008F01C82FF
:1010400089EC94E061E070E00E94BA0689EC94E0DB
:1010500060E041E00E94C62D809198049C8181FD52
:1010600003C0992319F008C0992331F089EC94E06A
:1010700060E071E00E94C405EC81F0E0EE0FFF1F1C
:10108000EB5EFD4F6081718189EC94E00E94C405A4
:10109000DF91CF910895CF93DF93EC018C818F5F27
:1010A0008C83833008F01C8289EC94E061E070E06E
:1010B0000E94BA0689EC94E060E041E00E94C62DEF
:1010C0008091980480FD02C021E001C022E030E060
:1010D0008C8190E001962817390731F489EC94E06F
:1010E00060E071E00E94C405EC81F0E0EE0FFF1FAC
:1010F000EC50FE4F6081718189EC94E00E94C40540
:10110000DF91CF910895CF93DF93EC018C818F5FB6
:101110008C83823008F01C8289EC94E061E070E0FE
:101120000E94BA0689EC94E060E041E00E94C62D7E
:1011300089EC94E060E071E00E94C405EC81F0E08D
:10114000EE0FFF1FE650FE4F6081718189EC94E045
:101150000E94C405DF91CF910895CF92DF92EF9264
:10116000FF920F931F93DF93CF93CDB7DEB76197B5
:101170000FB6F894DEBF0FBECDBF7C01262F6A01EB
:10118000DC0119968C91882349F1C70160E0422F58
:101190000E94C62D00D000D000D0EDB7FEB731962A
:1011A0008E010F5F1F4FADB7BEB712961C930E9303
:1011B000119782E091E093838283D582C4820E945A
:1011C000E201198AEDB7FEB736960FB6F894FEBF66
:1011D0000FBEEDBFC701B8010E946C3361960FB618
:1011E000F894DEBF0FBECDBFCF91DF911F910F915D
:1011F000FF90EF90DF90CF9008950F931F93DC0145
:1012000014962C912093FB04EDB7FEB738970FB6D8
:10121000F894FEBF0FBEEDBF31960CE314E0ADB7FE
:10122000BEB712961C930E9311978091BC029091B9
:10123000BD02938382838091FA048483158226837E
:1012400017820E94E201EDB7FEB738960FB6F89408
:10125000FEBF0FBEEDBF89EC94E061E070E0A80135
:101260000E94AD084091FA048091FB044093F10480
:101270008093F2040CEF14E0C80167E070E00E9474
:101280006825C80168E070E04091F2040E9468257A
:101290000E94120564EF71E080E090E00E946730E8
:1012A00086EC93E01F910F910895FC0184818F5F7C
:1012B00084838C3308F0148224818091FB044CE3F6
:1012C00054E02817B1F48DB79EB708970FB6F8947D
:1012D0009EBF0FBE8DBFEDB7FEB73196ADB7BEB79F
:1012E00012965C934E9311978091BC029091BD022F
:1012F00013C0ADB7BEB718970FB6F894BEBF0FBEF8
:10130000ADBFEDB7FEB7319612965C934E93119731
:101310008091E0019091E101938382838091FA04AE
:1013200084831582268317820E94E2018DB79EB7BF
:1013300008960FB6F8949EBF0FBE8DBF89EC94E05F
:1013400061E070E04CE354E00E94AD0808950F9313
:101350001F93DC0114962C912093FB04EDB7FEB78C
:1013600038970FB6F894FEBF0FBEEDBF31960CE371
:1013700014E0ADB7BEB712961C930E9311978091EF
:10138000BC029091BD02938382838091FA0484838E
:101390001582268317820E94E201EDB7FEB73896C8
:1013A0000FB6F894FEBF0FBEEDBF89EC94E061E08C
:1013B00070E0A8010E94AD084091FA048091FB04FE
:1013C0004093EF048093F0040CEF14E0C80165E053
:1013D00070E00E946825C80166E070E04091F0046A
:1013E0000E9468250E94120564EF71E080E090E0A1
:1013F0000E94673086EC93E01F910F910895FC01E5
:1014000084818F5F84838C3308F0148224818091DF
:10141000FB044CE354E02817B1F48DB79EB708974E
:101420000FB6F8949EBF0FBE8DBFEDB7FEB73196D5
:10143000ADB7BEB712965C934E9311978091BC02E4
:101440009091BD0213C0ADB7BEB718970FB6F89410
:10145000BEBF0FBEADBFEDB7FEB7319612965C931F
:101460004E9311978091E0019091E10193838283E3
:101470008091FA0484831582268317820E94E201F8
:101480008DB79EB708960FB6F8949EBF0FBE8DBF5E
:1014900089EC94E061E070E04CE354E00E94AD0818
:1014A00008950F931F93DC0114962C912093FA0456
:1014B000EDB7FEB738970FB6F894FEBF0FBEEDBF7D
:1014C00031960CE314E0ADB7BEB712961C930E93A1
:1014D00011978091BA029091BB02938382832483F7
:1014E00015828091FB04868317820E94E201EDB78A
:1014F000FEB738960FB6F894FEBF0FBEEDBF89EC6D
:1015000094E061E070E0A8010E94AD0864EF71E032
:1015100080E090E00E9467308FE294E01F910F918D
:101520000895FC0184818F5F8483883108F01482E0
:1015300024818091FA044CE354E02817B1F48DB76C
:101540009EB708970FB6F8949EBF0FBE8DBFEDB73C
:10155000FEB73196ADB7BEB712965C934E93119716
:101560008091BA029091BB0213C0ADB7BEB7189775
:101570000FB6F894BEBF0FBEADBFEDB7FEB7319644
:1015800012965C934E9311978091E0019091E10146
:1015900093838283248315828091FB048683178240
:1015A0000E94E2018DB79EB708960FB6F8949EBFD1
:1015B0000FBE8DBF89EC94E061E070E04CE354E035
:1015C0000E94AD0808950F931F93DC0114962C918F
:1015D0002093FA04EDB7FEB738970FB6F894FEBF24
:1015E0000FBEEDBF31960CE314E0ADB7BEB7129657
:1015F0001C930E9311978091BA029091BB02938332
:101600008283248315828091FB04868317820E9443
:10161000E201EDB7FEB738960FB6F894FEBF0FBEE5
:10162000EDBF89EC94E061E070E0A8010E94AD0894
:1016300064EF71E080E090E00E9467308AE294E01D
:101640001F910F910895FC0184818F5F84838831FD
:1016500008F0148224818091FA044CE354E02817A6
:10166000B1F48DB79EB708970FB6F8949EBF0FBE22
:101670008DBFEDB7FEB73196ADB7BEB712965C938E
:101680004E9311978091BA029091BB0213C0ADB7EF
:10169000BEB718970FB6F894BEBF0FBEADBFEDB77B
:1016A000FEB7319612965C934E9311978091E001AC
:1016B0009091E10193838283248315828091FB04BE
:1016C000868317820E94E2018DB79EB708960FB6F7
:1016D000F8949EBF0FBE8DBF89EC94E061E070E08E
:1016E0004CE354E00E94AD080895CF93DF93EC01E2
:1016F0008C818F5F8C838C3308F01C8289EC94E0A2
:1017000061E070E00E94BA062C813091FA048CE30B
:1017100094E0231731F54DB75EB74E5050400FB6E9
:10172000F8945EBF0FBE4DBFEDB7FEB73196ADB7B3
:10173000BEB712969C938E9311978AE992E0938399
:1017400082838091F804848315828091F9048683D2
:1017500017828091F6049091F70491878087228701
:1017600022C0ADB7BEB71E970FB6F894BEBF0FBE6E
:10177000ADBFEDB7FEB7319612969C938E9311973D
:1017800089E192E0938382838091F80484831582B7
:101790008091F904868317828091F6049091F70472
:1017A0009187808732871386248715860E94E201FD
:1017B0004DB75EB7425F5F4F0FB6F8945EBF0FBE86
:1017C0004DBF89EC94E061E070E04CE354E00E948E
:1017D000AD08DF91CF9108950F931F93DC0114960C
:1017E0002C912093FA04EDB7FEB73E970FB6F8940C
:1017F000FEBF0FBEEDBF31960CE314E0ADB7BEB730
:1018000012961C930E93119780E892E09383828343
:101810008091F804848315828091F904868317826D
:101820008091F6049091F704918780872287138630
:101830008091FB04848715860E94E201EDB7FEB714
:101840003E960FB6F894FEBF0FBEEDBF89EC94E054
:1018500061E070E0A8010E94AD0864EF71E080E0F3
:1018600090E00E94673081E194E01F910F9108950C
:10187000CF93DF93EC018C818F5F8C83883108F0EC
:101880001C8289EC94E061E070E00E94BA064C8111
:101890008091FA042CE334E04817A1F48DB79EB789
:1018A0000E970FB6F8949EBF0FBE8DBFEDB7FEB773
:1018B0003196ADB7BEB712963C932E93119780E840
:1018C00092E011C0ADB7BEB71E970FB6F894BEBF79
:1018D0000FBEADBFEDB7FEB7319612963C932E9377
:1018E000119789E192E0938382838091F804848345
:1018F00015828091F904868317828091F604909175
:10190000F70491878087428713868091FB04848740
:1019100015860E94E2018DB79EB70E960FB6F89419
:101920009EBF0FBE8DBF89EC94E061E070E04CE398
:1019300054E00E94AD08DF91CF9108950F931F935B
:10194000DC0114962C912093F6041092F704EDB765
:10195000FEB73E970FB6F894FEBF0FBEEDBF3196AF
:101960000CE314E0ADB7BEB712961C930E9311971B
:1019700086E692E0938382838091F80484831582C3
:101980008091F90486831782208711868091FA045A
:10199000828713868091FB04848715860E94E2016A
:1019A000EDB7FEB73E960FB6F894FEBF0FBEEDBF83
:1019B00089EC94E061E070E0A8010E94AD0864EF5A
:1019C00071E080E090E00E9467308CE094E01F912D
:1019D0000F910895FC0184818F5F8483853110F01D
:1019E0008CE084836481262F30E08091F60490910E
:1019F000F7044CE354E028173907A1F48DB79EB7DC
:101A00000E970FB6F8949EBF0FBE8DBFEDB7FEB711
:101A10003196ADB7BEB712965C934E93119786E69A
:101A200092E011C0ADB7BEB71E970FB6F894BEBF17
:101A30000FBEADBFEDB7FEB7319612965C934E93D5
:101A4000119789E192E0938382838091F8048483E3
:101A500015828091F90486831782608711868091B0
:101A6000FA04828713868091FB04848715860E947E
:101A7000E2018DB79EB70E960FB6F8949EBF0FBECB
:101A80008DBF89EC94E061E070E04CE354E00E948B
:101A9000AD0808950F931F93DC0114962C912093A9
:101AA000F904EDB7FEB73E970FB6F894FEBF0FBE30
:101AB000EDBF31960CE314E0ADB7BEB712961C93A0
:101AC0000E9311978CE492E0938382838091F804C3
:101AD00084831582268317828091F6049091F704FF
:101AE000918780878091FA04828713868091FB0416
:101AF000848715860E94E201EDB7FEB73E960FB6C9
:101B0000F894FEBF0FBEEDBF89EC94E061E070E099
:101B1000A8010E94AD0864EF71E080E090E00E94AF
:101B2000673087E094E01F910F910895CF93DF9382
:101B3000EC018C818F5F8C83803210F081E08C838C
:101B400089EC94E061E070E00E94BA062C818091FB
:101B5000F9044CE354E02817A1F48DB79EB70E9713
:101B60000FB6F8949EBF0FBE8DBFEDB7FEB731968E
:101B7000ADB7BEB712965C934E9311978CE492E08A
:101B800011C0ADB7BEB71E970FB6F894BEBF0FBE5B
:101B9000ADBFEDB7FEB7319612965C934E93119799
:101BA00089E192E0938382838091F8048483158293
:101BB000268317828091F6049091F704918780879D
:101BC0008091FA04828713868091FB0484871586AE
:101BD0000E94E2018DB79EB70E960FB6F8949EBF95
:101BE0000FBE8DBF89EC94E061E070E04CE354E0FF
:101BF0000E94AD08DF91CF9108950F931F93DC01F0
:101C000014962C912093F804EDB7FEB73E970FB6CB
:101C1000F894FEBF0FBEEDBF31960CE314E0ADB7F4
:101C2000BEB712961C930E93119782E392E09383B2
:101C30008283248315828091F904868317828091A0
:101C4000F6049091F704918780878091FA04828747
:101C500013868091FB04848715860E94E201EDB70C
:101C6000FEB73E960FB6F894FEBF0FBEEDBF89ECEF
:101C700094E061E070E0A8010E94AD0864EF71E0BB
:101C800080E090E00E94673082E094E01F910F9125
:101C90000895CF93DF93EC018C818F5F8C838D301F
:101CA00010F081E08C8389EC94E061E070E00E94A8
:101CB000BA062C818091F8044CE354E02817A1F473
:101CC0008DB79EB70E970FB6F8949EBF0FBE8DBF0F
:101CD000EDB7FEB73196ADB7BEB712965C934E9393
:101CE000119782E392E011C0ADB7BEB71E970FB651
:101CF000F894BEBF0FBEADBFEDB7FEB731961296DA
:101D00005C934E93119789E192E0938382832483BD
:101D100015828091F904868317828091F604909150
:101D2000F704918780878091FA04828713868091D7
:101D3000FB04848715860E94E2018DB79EB70E963C
:101D40000FB6F8949EBF0FBE8DBF89EC94E061E0A2
:101D500070E04CE354E00E94AD08DF91CF9108950C
:101D60000F931F93CF93DF93EC011C828091980413
:101D700080FD04C08EEF91E041E003C085E092E079
:101D800042E098878F831D821E8202C09F5F9E83E0
:101D9000AF81B8859E81FD01E90FF11D8081882307
:101DA000A9F7292F21502E83A20FB11D8C918D836D
:101DB0003091AC0490E0EF81F885E90FF11D80814E
:101DC000831711F49C8303C09F5F2917A0F741304C
:101DD00019F028E031E002C02BE031E000D000D063
:101DE00000D0EDB7FEB731960CE314E0ADB7BEB747
:101DF00012961C930E9311978EE091E09383828349
:101E0000358324830E94E201EDB7FEB736960FB604
:101E1000F894FEBF0FBEEDBF89EC94E060E070E087
:101E2000A8010E94AD0800D000D000D0ADB7BEB769
:101E30001196EDB7FEB7128301838DE191E0139601
:101E40009C938E9312978C81EF81F885E80FF11D9A
:101E5000808114968C93149715961C920E94E2012F
:101E60008DB79EB706960FB6F8949EBF0FBE8DBF76
:101E700089EC94E061E070E0A8010E94AD08DF9178
:101E8000CF911F910F910895AF92BF92CF92EF9291
:101E90000F931F93DF93CF9300D000D000D0CDB726
:101EA000DEB7DC0114962C912093FB04EDB7FEB74E
:101EB0003E970FB6F894FEBF0FBEEDBF31960CE310
:101EC00014E0ADB7BEB712961C930E9311978AE932
:101ED00092E0938382838091F804848315828091B9
:101EE000F904868317828091F6049091F704918714
:101EF00080878091FA0482871386248715860E9442
:101F0000E201EDB7FEB73E960FB6F894FEBF0FBEE6
:101F1000EDBF89EC94E061E070E0A8010E94AD089B
:101F20006091F6047091F7045E010894A11CB11C45
:101F3000C5014091F8042091F9040091FA04E09061
:101F4000FB04CC240E949628C5010E94682964EFF6
:101F500071E080E090E00E94673086EC93E0269686
:101F60000FB6F894DEBF0FBECDBFCF91DF911F91AA
:101F70000F91EF90CF90BF90AF900895CF93DF93E4
:101F8000EC018C818F5F8C839E81981708F41C82F2
:101F900089EC94E061E070E00E94BA0689EC94E07C
:101FA00060E041E00E94C62D8C81EF81F885E80F4A
:101FB000F11D9091AC048081981731F489EC94E084
:101FC00060E071E00E94C4058C81EF81F885E80F24
:101FD000F11D60818091D204882339F089EC94E06E
:101FE00070E04AE050E00E94443489EC94E062E200
:101FF00071E00E94C405DF91CF910895FC019481A6
:102000008581981750F4E92FF0E0EE0FFF1FE6539B
:10201000FE4F0190F081E02D06C089EC94E00E9413
:10202000782EE0E0F0E0CF010895CF93DF93EC014C
:1020300089EC94E00E94522E80FF52C031E00AC029
:1020400089819A81AB81BC810097A105B10509F412
:10205000188230E02881222361F0213009F045C048
:1020600089819A81AB81BC810097A105B10509F4F2
:102070003CC0332381F189819A81AB81BC81009777
:10208000A105B10541F4222331F40E94593069833E
:102090007A838B839C830E9459309B01AC01898198
:1020A0009A81AB81BC81281B390B4A0B5B0B888161
:1020B000882339F42436310541055105B4F081E017
:1020C00008C0813091F4245F3140404050406CF0B2
:1020D00082E088830AC019821A821B821C8205C092
:1020E0008881823009F0B5CFABCFDF91CF910895D1
:1020F00081E160E00E94273181E161E00E944D3181
:102100000895CF93DF93EC011A82198282E00E9436
:10211000A531892B19F081E0888301C01882DF91F5
:10212000CF9108950F931F938C0188E060E00E9487
:102130004D3187E060E00E944D3189E060E00E940F
:102140004D31F801868D8F7B868F0E94422C035C77
:102150001F4FF80160837183828393830D53104076
:102160000E945930F80165AB76AB87AB90AF1F91F9
:102170000F91089580918004882321F081E080935D
:102180007F04089580919A04806880939A048CE774
:1021900094E00E94921010928B0010928A0082E0CC
:1021A00090E090937D0480937C0481E080937E0492
:1021B00008950F931F938C0188E061E00E944D31D8
:1021C00087E061E00E944D3189E061E00E944D317D
:1021D000F801868D8064868F0E94422CF80161AFE1
:1021E00072AF83AF94AF0E945930F80161AB72AB0C
:1021F00083AB94AB1F910F910895AF92BF92CF9292
:10220000DF92EF92FF920F931F93CF93DF936B01B7
:102210005A012FEFE22E23E0F22E00E010E0C0E0A2
:10222000D0E081E00E9405310817190714F48C01F1
:1022300004C08E159F050CF47C012196C436D1058F
:1022400081F7F601F182E082F50111830083DF91CD
:10225000CF911F910F91FF90EF90DF90CF90BF90A3
:10226000AF900895AF92BF92CF92DF92EF92FF921C
:102270000F931F93DF93CF9300D000D0CDB7DEB77D
:102280007C010E9459305B016C01F70111A51F3FD1
:1022900039F465E070E080E090E00E9467308BC226
:1022A0001E3FB9F5F701868D86FF85C285A996A9DF
:1022B000A7A9B0ADA816B906CA06DB0608F47BC20A
:1022C000C701BE016F5F7F4FAE014D5F5F4F24E6D8
:1022D00030E00E94FD102B813C81F70181A192A189
:1022E0002817390790F485A996A9A7A9B0ADA81A0F
:1022F000B90ACA0ADB0AF8EBAF16FBE0BF06F0E04A
:10230000CF06F0E0DF0608F456C2C7010E94921023
:1023100052C283E00E94A5316C0184E00E94A53185
:102320005C01F701868D86FF36C0848D83FD99C0E0
:102330000E945930F70121A932A943A954A9621B6F
:10234000730B840B950B695E73408040904008F4DA
:1023500088C021E0C216D10409F083C031E0A31681
:10236000B10409F07EC087E0F70181A7C7010E9490
:102370009210F70186898F3F11F08F5F868B0E9444
:10238000593060567444824F9F4FF70166877787B4
:10239000808B918BF6C1173019F5F70182899389EB
:1023A000A489B5890397A105B10508F0E7C10E948A
:1023B0005930F7012685378540895189621773079F
:1023C0008407950708F4DAC182899389A489B589BD
:1023D0000196A11DB11D828B938BA48BB58B41C03F
:1023E000F701848D84FD3DC0CD2811F0AB28B9F5EF
:1023F000183071F0F701838D882351F40E94593011
:10240000F701678B708F818F928F838D8F5F838FA2
:102410000E945930F70125A936A947A950AD621B82
:10242000730B840B950B695E73408040904080F085
:102430000E945930F7012789308D418D528D621BE2
:10244000730B840B950B695E73408040904010F4D1
:10245000183039F488E0F70181A708E093C1F7014B
:10246000138E00E091E0F7018281882309F441C0D6
:1024700086E081A781859285A385B4850397A10510
:10248000B10508F081C1163059F085858F3F11F0F4
:102490008F5F8587F70111861286138614861DC00B
:1024A0000E945930F7012581368147815085621796
:1024B00073078407950708F467C1C70102960E9455
:1024C0008110F70181859285A385B4850196A11DB0
:1024D000B11D81879287A387B4870E9459306056C7
:1024E0007444824F9F4FF70165837683878390877B
:1024F0004BC1992309F46FC0812F8650833058F463
:1025000080E49FE190938B0080938A00F701118211
:10251000108211A610E0C701BE016F5F7F4FAE01B0
:102520004D5F5F4F24E630E00E94FD10F701448DBF
:1025300041FD2CC180819181019709F027C129813A
:102540003A8187A190A52817390708F41FC105E033
:1025500017C0F70181A192A12817390710F002E0F6
:102560000FC0F70183A194A12817390740F442FF57
:1025700018C185A196A18217930708F012C103E044
:10258000011749F1F70183A5081741F00E9459305E
:10259000F70164A775A786A797A71DC00E945930A9
:1025A000F701A4A4B5A4C6A4D7A4013029F02AEF4A
:1025B00030E040E050E004C029E130E040E050E08D
:1025C0006A197B098C099D096217730784079507AF
:1025D00010F0F70101A7F70103A781A5811709F4FE
:1025E000A1C0813009F43DC0823009F44BC0833072
:1025F000B1F5F70180A9282F30E0C90106978E9721
:1026000060F4B901882777FD8095982F25E830E0A0
:1026100040E050E00E943C3515C0C901C4974D9779
:10262000D0F4C901AA2797FDA095BA2F80569F4FD5
:10263000AF4FBF4F45E0880F991FAA1FBB1F4A9598
:10264000D1F7BC0170938B0060938A0081E090E029
:10265000F70191838083C7010E94D91063C0843041
:1026600069F4C7010E94921080E49FE190938B006F
:1026700080938A00F7011182108254C08630C9F11C
:10268000853099F5C7010E949210F70180A9282F83
:1026900030E0C90106978E9760F4B901882777FD6D
:1026A0008095982F25E830E040E050E00E943C35CE
:1026B00015C0C901C4974D97A8F5C901AA2797FD70
:1026C000A095BA2F80569F4FAF4FBF4F35E0880F70
:1026D000991FAA1FBB1F3A95D1F7BC0170938B00BD
:1026E00060938A0081E090E00DC0873011F088305F
:1026F00069F4C7010E94921010928B0010928A0018
:1027000082E090E0F701918380830CC080E49FE138
:1027100090938B0080938A00F70111821082C70189
:102720000E949210F70112A781A5833009F043C0DF
:1027300087010F5B1F4FF80180819181A281B381D6
:1027400025E430E0E20EF31EF70180839183A2833B
:10275000B3832BEB3FEFE20EF31E0E94422CF701F6
:1027600021AD32AD43AD54AD621B730B840B950BA1
:10277000F80160837183828393831DC087E0F70132
:1027800081A707E090E06FCE06E025CF2B813C814A
:10279000F701878D90A12817390708F4DACE01E0F8
:1027A000EFCEF70185A196A18217930710F000E004
:1027B000E7CE04E0E5CE0F900F900F900F90CF91F1
:1027C000DF911F910F91FF90EF90DF90CF90BF901E
:1027D000AF900895FC01858580FF02C0611167E01C
:1027E000CF010E94172E0895DC015F96E2EEF1E022
:1027F0008AE001900D928150E1F708950F931F93A5
:10280000CF93DF938C0181E0F8018283118286E00F
:1028100061E00E942731C0E0D0E086E061E00E94E4
:102820004D3180E49FE10E94C03086E060E00E946C
:102830004D3180E49FE10E94C030F80181818823FE
:1028400021F42196C233D10541F782E00E94A531DF
:102850000197D9F3F8011282DF91CF911F910F9167
:102860000895AF92BF92CF92DF92EF92FF920F93B3
:102870001F937C016B015A018C01025F1F4FC8013D
:10288000B9010E94CE01C701B601A50198010E94BD
:10289000B0051F910F91FF90EF90DF90CF90BF9008
:1028A000AF900895CF92DF92EF92FF920F931F9314
:1028B0007C016B018C01025F1F4FC801BA010E94AD
:1028C000CE01C701B601A8010E94AD081F910F916A
:1028D000FF90EF90DF90CF900895EF92FF920F93CB
:1028E0001F938C0159ECE52E54E0F52EC70160E0F2
:1028F00070E042E551E00E9452142091FB04D8019F
:1029000014962C93EDB7FEB738970FB6F894FEBF28
:102910000FBEEDBF31960CE314E0ADB7BEB7129613
:102920001C930E9311978091BC029091BD029383EA
:1029300082838091FA0484831582268317820E9401
:10294000E201EDB7FEB738960FB6F894FEBF0FBEA2
:10295000EDBFC70161E070E0A8010E94AD081F91C2
:102960000F91FF90EF900895EF92FF920F931F93B6
:102970008C0169ECE62E64E0F62EC70160E070E0A1
:1029800046E351E00E9452142091FB04D8011496B2
:102990002C93EDB7FEB738970FB6F894FEBF0FBE75
:1029A000EDBF31960CE314E0ADB7BEB712961C93A1
:1029B0000E9311978091BC029091BD029383828304
:1029C0008091FA0484831582268317820E94E20193
:1029D000EDB7FEB738960FB6F894FEBF0FBEEDBF49
:1029E000C70161E070E0A8010E94AD081F910F913E
:1029F000FF90EF900895EF92FF920F931F938C0139
:102A000079ECE72E74E0F72EC70160E070E044E453
:102A100051E00E9452142091F1042093FA04309165
:102A2000F2043093FB04D80114962C93EDB7FEB753
:102A300038970FB6F894FEBF0FBEEDBF31960CE38A
:102A400014E0ADB7BEB712961C930E931197809108
:102A5000BA029091BB0293838283248315823683CA
:102A600017820E94E201EDB7FEB738960FB6F894D0
:102A7000FEBF0FBEEDBFC70161E070E0A8010E947C
:102A8000AD081F910F91FF90EF900895EF92FF9284
:102A90000F931F938C01E9ECEE2EE4E0FE2EC701AC
:102AA00060E070E047E251E00E9452142091EF0490
:102AB0002093FA043091F0043093FB04D80114966B
:102AC0002C93EDB7FEB738970FB6F894FEBF0FBE44
:102AD000EDBF31960CE314E0ADB7BEB712961C9370
:102AE0000E9311978091BA029091BB0293838283D7
:102AF00024831582368317820E94E201EDB7FEB768
:102B000038960FB6F894FEBF0FBEEDBFC70161E067
:102B100070E0A8010E94AD081F910F91FF90EF9007
:102B20000895CF93DF93EC0190E08091EE04882329
:102B300009F491E09C8389EC94E060E070E04BE163
:102B400051E00E94521489EC94E061E070E00E9430
:102B5000BA0689EC94E060E070E041E050E020E0EB
:102B600031E00E94B005EC81F0E0EE0FFF1FEB5E5C
:102B7000FD4F6081718189EC94E00E94C405DF9172
:102B8000CF9108950F931F93FC01148209EC14E078
:102B9000C80160E070E04BE151E00E9452144091A6
:102BA000B4025091B502C80161E070E00E94AD0826
:102BB0001F910F910895EF92FF920F931F938C0135
:102BC000B9ECEB2EB4E0FB2EC70160E070E040E111
:102BD00051E00E9452142091FB04D80114962C93CA
:102BE000EDB7FEB73E970FB6F894FEBF0FBEEDBF30
:102BF00031960CE314E0ADB7BEB712961C930E935A
:102C000011978AE992E0938382838091F804848308
:102C100015828091F904868317828091F604909141
:102C2000F704918780878091FA048287138624872E
:102C300015860E94E201EDB7FEB73E960FB6F894F6
:102C4000FEBF0FBEEDBFC70161E070E0A8010E94AA
:102C5000AD081F910F91FF90EF900895EF92FF92B2
:102C60000F931F938C0189ECE82E84E0F82EC701A6
:102C700060E070E047E051E00E9452142091FA04B5
:102C8000D80114962C93EDB7FEB73E970FB6F89483
:102C9000FEBF0FBEEDBF31960CE314E0ADB7BEB77B
:102CA00012961C930E93119780E892E0938382838F
:102CB0008091F804848315828091F90486831782B9
:102CC0008091F6049091F70491878087228713867C
:102CD0008091FB04848715860E94E201EDB7FEB760
:102CE0003E960FB6F894FEBF0FBEEDBFC70161E080
:102CF00070E0A8010E94AD081F910F91FF90EF9026
:102D000008950F931F93CF93DF93EC0189EC94E028
:102D100060E070E04EEF50E00E9452148091F604A3
:102D20008C838C50893040F08CE08C838CE090E078
:102D30009093F7048093F6048DB79EB70E970FB665
:102D4000F8949EBF0FBE8DBFEDB7FEB731960CE372
:102D500014E0ADB7BEB712961C930E93119786E69A
:102D600092E0938382838091F8048483158280911A
:102D7000F904868317828C81808711868091FA04FA
:102D8000828713868091FB04848715860E94E20166
:102D90008DB79EB70E960FB6F8949EBF0FBE8DBF2F
:102DA00089EC94E061E070E0A8010E94AD08DF9139
:102DB000CF911F910F910895EF92FF920F931F9360
:102DC0008C0199ECE92E94E0F92EC70160E070E0E7
:102DD00046EF50E00E9452142091F904D801149655
:102DE0002C93EDB7FEB73E970FB6F894FEBF0FBE1B
:102DF000EDBF31960CE314E0ADB7BEB712961C934D
:102E00000E9311978CE492E0938382838091F8046F
:102E100084831582268317828091F6049091F704AB
:102E2000918780878091FA04828713868091FB04C2
:102E3000848715860E94E201EDB7FEB73E960FB675
:102E4000F894FEBF0FBEEDBFC70161E070E0A801BE
:102E50000E94AD081F910F91FF90EF9008950F937E
:102E60001F93DF93CF9300D000D000D0CDB7DEB753
:102E70008C0189EC94E060E070E04CEE50E00E9440
:102E800052140E94AC2829833A834B835C836D8360
:102E90007E83A8EEB4E0FE01319686E001900D92AB
:102EA0008150E1F73091E9043093F8047091EA041D
:102EB0007093F9042091E80460E02093F604609395
:102EC000F7044091EB044093FA045091EC045093C2
:102ED000FB04D80114963C93EDB7FEB73E970FB6AE
:102EE000F894FEBF0FBEEDBF31960CE314E0ADB712
:102EF000BEB712961C930E93119782E392E09383D0
:102F00008283348315827683178220876187428784
:102F10001386548715860E94E201EDB7FEB73E96F0
:102F20000FB6F894FEBF0FBEEDBF89EC94E061E0F0
:102F300070E0A8010E94AD0826960FB6F894DEBF97
:102F40000FBECDBFCF91DF911F910F9108950F93C9
:102F50001F93FC01148209EC14E0C80160E070E0EA
:102F60004DE752E00E945214409115025091160212
:102F7000C80161E070E00E94AD081F910F910895B3
:102F80000F931F93FC01148209EC14E0C80160E068
:102F900070E040E752E00E945214409115025091B7
:102FA0001602C80161E070E00E94AD081F910F9108
:102FB0000895EF92FF920F931F938C0159ECE52E29
:102FC00054E0F52EFC0142815381C70160E070E0BE
:102FD0000E945214209198043091990443E0369550
:102FE00027954A95E1F72170F801248300D000D09D
:102FF00000D0ADB7BEB711960CE314E0EDB7FEB745
:103000001283018384E291E013969C938E9312972E
:10301000E22FF0E0EE0FFF1FEB5EFD4F808191810C
:1030200015969C938E9314970E94E2018DB79EB7DC
:1030300006960FB6F8949EBF0FBE8DBFC70161E024
:1030400070E0A8010E94AD081F910F91FF90EF90D2
:103050000895EF92FF920F931F938C01E9ECEE2EEF
:10306000E4E0FE2EFC0142815381C70160E070E084
:103070000E94521420919804309199043695279516
:10308000369527952170F801248300D000D000D018
:10309000ADB7BEB711960CE314E0EDB7FEB71283DF
:1030A000018384E291E013969C938E931297E22F12
:1030B000F0E0EE0FFF1FEB5EFD4F808191811596D2
:1030C0009C938E9314970E94E2018DB79EB706964B
:1030D0000FB6F8949EBF0FBE8DBFC70161E070E0D0
:1030E000A8010E94AD081F910F91FF90EF900895E5
:1030F000EF92FF920F931F93CF93DF938C0199EC84
:10310000E92E94E0F92ED80112964D915C91139717
:10311000C70160E070E00E945214E0919904E695C6
:10312000E170E801EC8300D000D000D0ADB7BEB7AD
:1031300011960CE314E0CDB7DEB71A83098384E25D
:1031400091E013969C938E931297F0E0EE0FFF1F81
:10315000EB5EFD4F8081918115969C938E93149721
:103160000E94E201EDB7FEB736960FB6F894FEBFA7
:103170000FBEEDBFC70161E070E0A8010E94AD087D
:10318000DF91CF911F910F91FF90EF900895EF92F3
:10319000FF920F931F938C0159ECE52E54E0F52E0E
:1031A000FC0142815381C70160E070E00E9452142B
:1031B0002091980430919904369527952170F80153
:1031C000248300D000D000D0ADB7BEB711960CE379
:1031D00014E0EDB7FEB71283018384E291E0139609
:1031E0009C938E931297E22FF0E0EE0FFF1FEB5EA1
:1031F000FD4F8081918115969C938E9314970E9428
:10320000E2018DB79EB706960FB6F8949EBF0FBE2B
:103210008DBFC70161E070E0A8010E94AD081F9159
:103220000F91FF90EF900895CF93DF93EC014A81C7
:103230005B8189EC94E060E070E00E945214809120
:10324000980485FD02C01C8206C080FD02C081E09A
:1032500001C082E08C8389EC94E061E070E00E9420
:10326000BA0689EC94E060E070E041E050E020E0D4
:1032700031E00E94B005EC81F0E0EE0FFF1FEC5052
:10328000FE4F6081718189EC94E00E94C405DF915A
:10329000CF9108950F931F93CF93DF93EC014A8151
:1032A0005B8189EC94E060E070E00E945214E0E001
:1032B00080913B04813009F0E1E0EC8300D000D044
:1032C00000D0ADB7BEB711960CE314E0CDB7DEB7B2
:1032D0001A83098384E291E013969C938E9312974C
:1032E000F0E0EE0FFF1FE650FE4F808191811596B2
:1032F0009C938E9314970E94E2018DB79EB7069619
:103300000FB6F8949EBF0FBE8DBF89EC94E061E0CC
:1033100070E0A8010E94AD08DF91CF911F910F913D
:103320000895DC0114968C9114978F5F14968C93FA
:10333000149715969C911597981718F414961C924B
:1033400014971496EC91149715968C91E81718F031
:103350004DED50E00AC0F0E0EE0FFF1FE653FE4FC8
:103360000190F081E02D4281538189EC94E061E08D
:1033700070E00E94521408950F931F93FC01148271
:1033800009EC14E042815381C80160E070E00E94C2
:103390005214E091CA01F091CB0142815381C801DE
:1033A00061E070E00E9452141F910F910895EF9216
:1033B000FF920F931F938C019B017A0160E070E0F4
:1033C000A9010E945214C80161E070E0A7010E94A7
:1033D00052141F910F91FF90EF9008956F927F927A
:1033E0008F929F92AF92BF92CF92DF92EF92FF9215
:1033F0000F931F93CF93DF936C0180E49FE1909331
:103400008B0080938A00F6011182108285E061E0D2
:103410000E944D3189EC94E06FE571E048E651E09F
:103420000E94D719F601848D85FD05C166E970E01B
:1034300080E090E00E94673081E00E9405311092A8
:103440008B0010928A0022E030E0F6013183208365
:10345000855893400CF4EFC083E00E94A5318C01A5
:1034600084E00E94A5317C0188E061E00E944D313A
:1034700089E061E00E944D316AEF70E080E090E009
:103480000E94673083E00E94A5313C0184E00E94E5
:10349000A5314C0188E060E00E944D3189E060E098
:1034A0000E944D316AEF70E080E090E00E9467304A
:1034B00087E061E00E944D316AEF70E080E090E0CB
:1034C0000E94673083E00E94A5315C0184E00E9485
:1034D000A531EC0187E060E00E944D316AEF70E0B9
:1034E00080E090E00E946730000F111F0E0D1F1D3D
:1034F0000330110509F05EC09301220F331F280D20
:10350000391DA501440F551F4C0F5D1F2330310598
:1035100034F4213031058CF5232B31F0D6C0233023
:10352000310509F0D2C011C04330510519F4C2E091
:10353000D0E002C0C0E0D0E0F601848D84FD3FC041
:103540004330510509F0BEC03AC0F601848D83FDB9
:1035500006C04330510519F4C3E0D0E008C041155E
:10356000510519F4C2E0D0E002C0C0E0D0E0415003
:1035700050404230510518F525C0F601848D84FD78
:1035800006C04330510549F0C4E0D0E008C04330E4
:10359000510519F0C0E0D0E002C0C1E0D0E0213018
:1035A000310521F44230510551F486C041305105B6
:1035B00031F485C0F601848D84FF84C086C0C1309B
:1035C000D10559F489EC94E062E771E04EE751E0EF
:1035D0000E94D719C1E0D0E00BC0C230D10541F440
:1035E00089EC94E062E771E04CE851E00E94D71961
:1035F000CE010397029728F489EC94E061E00E94E1
:10360000EA13C330D10529F489EC94E06AEA71E049
:1036100007C0C430D10541F489EC94E06AE971E057
:103620004BEB51E00E94D71964EF71E080E090E02D
:103630000E94673002C0C0E0D0E0F601848D958D15
:1036400091FD1DC0C60102960E94FE13F601838102
:103650008823A9F489EC94E061E00E94EA1389ECE4
:1036600094E06EE670E04BEB51E00E94D71964EFF6
:1036700071E080E090E00E946730C5E0D0E085E036
:1036800060E00E944D3180E49FE190938B00809335
:103690008A00F601118210828C2FDF91CF911F9149
:1036A0000F91FF90EF90DF90CF90BF90AF909F90E1
:1036B0008F907F906F900895C2E0D0E080CFC2E0FD
:1036C000D0E08BCFC4E0D0E088CFC0E0D0E085CFA1
:1036D00089EC94E061E070E04AEA52E00E94521402
:1036E0002EE088E190E00FB6F894A89580936000F2
:1036F0000FBE2093600008950F931F938C0189ECF7
:1037000094E060E070E041E050E020E031E00E94B1
:10371000B005D8011496EC91F0E0EE0FFF1FEB5EC0
:10372000FD4F6081718189EC94E00E94C40564EFD3
:1037300071E080E090E00E946730F8018481882386
:1037400019F40E94681BFFCF80E090E01F910F9159
:1037500008950F931F93CF93DF93EC0189858823FE
:1037600051F08E01025F1F4FC8010E94CE01CE01B1
:10377000B8010E946C33DF91CF911F910F91089592
:103780008F929F92AF92BF92CF92DF92EF92FF9271
:103790000F931F93DF93CF93CDB7DEB72C970FB660
:1037A000F894DEBF0FBECDBF982E892E162F009144
:1037B000A5048091980480FD03C0EE24E39402C028
:1037C00042E0E42E0E94AC282F83388749875A872D
:1037D0006B877C87DE011196FE01379686E00190AB
:1037E0000D928150E1F79091A5048091A60498175D
:1037F00009F412C32DB73EB7285030400FB6F894E5
:103800003EBF0FBE2DBFEDB7FEB731963CE3C32ED2
:1038100034E0D32EADB7BEB71296DC92CE9211979C
:103820008CEE91E093838283E48215828091AC04D4
:10383000868317820E94E2012DB73EB7285F3F4F73
:103840000FB6F8943EBF0FBE2DBF053009F4BFC0C0
:10385000063080F4023009F451C0033020F4013006
:1038600009F053C11AC0033009F47BC0043009F0D9
:103870004CC199C0083009F4E6C0093038F406306C
:1038800009F4B9C0073009F040C1C9C00E3F09F4BE
:1038900015C10F3F09F039C1ECC08DE061E00E9415
:1038A0004D3185E060E00E944D31892D982D62E018
:1038B0000E94EA13892D982D0E94782E892D982D2B
:1038C00060E040E00E94C62D8EEE94E00E948704E6
:1038D000892D982D61E672E00E94A91B892D982DF3
:1038E0006AE070E040E050E096010E94B005892D4A
:1038F000982D61E070E048E352E030C08DE061E077
:103900000E944D3185E061E00E944D31892D982D56
:1039100063E00E94EA13892D982D0E94782E892D4C
:10392000982D60E040E00E94C62D8EEE94E00E944B
:103930008704892D982D61E672E00E94A91B892DCC
:10394000982D6AE070E040E050E096010E94B005DA
:10395000892D982D61E070E04BE252E00E945214F4
:1039600051C28DE060E00E944D3185E060E00E9430
:103970004D31892D982D66E00E94EA13892D982DEE
:103980000E94782E892D982D60E040E00E94C62D7F
:103990008EEE94E00E948704892D982D67E672E0F0
:1039A0000E94A91BBDC08DE060E00E944D3185E002
:1039B00061E00E944D31892D982D61E00E94EA134B
:1039C000892D982D67EC71E042ED51E04FC08DE0FC
:1039D00060E00E944D3185E061E00E944D31892D0B
:1039E000982D61E00E94EA13892D982D67EC71E013
:1039F00040EE51E03BC08DE060E00E944D3185E03B
:103A000061E00E944D31892D982D61E00E94EA13FA
:103A1000892D982D67EC71E041EF51E027C08DE0D2
:103A200060E00E944D3185E061E00E944D31892DBA
:103A3000982D61E00E94EA13892D982D67EC71E0C2
:103A40004CEF51E013C08DE060E00E944D3185E005
:103A500061E00E944D31892D982D61E00E94EA13AA
:103A6000892D982D67EC71E046E052E00E94D7194D
:103A7000C9C18DE060E00E944D3185E061E00E94A7
:103A80004D31892D982D65E00E94EA13892D982DDE
:103A90000E94782E892D982D60E040E00E94C62D6E
:103AA000892D982D62E172E00E94A91B892D982D25
:103AB0006AE070E040E050E09601A2C18DE061E074
:103AC0000E944D3185E061E00E944D31892D982D95
:103AD00065E00E94EA13892D982D0E94782E892D89
:103AE000982D60E040E00E94C62D892D982D62E25D
:103AF00072E00E94A91B892D982D6AE070E040E0D9
:103B000050E096010E94B00568C08DE060E00E9420
:103B10004D3185E061E00E944D31033009F05AC01B
:103B2000A090BD04B090BE04C090BF04D090C0046B
:103B30008091C1049091C204A091C304B091C404C7
:103B4000A816B906CA06DB0609F45CC1C601B501B0
:103B50000E940F2C7C01C601B5010E94092C8C012A
:103B6000C601B5010E94032CADB7BEB71E970FB6B4
:103B7000F894BEBF0FBEADBFEDB7FEB731962CE3D4
:103B8000C22E24E0D22E1296DC92CE92119728E219
:103B900031E033832283F582E482178306839187A1
:103BA00080878C81828713868D81848715860E9409
:103BB000E2012DB73EB7225F3F4F0FB6F8943EBFEC
:103BC0000FBE2DBF892D982D61E070E0A6010E94E7
:103BD000AD0818C10E3F09F015C1809139049091CC
:103BE0003A04892B09F00EC1CE01019668EE74E00B
:103BF00046E050E00E94D501009709F403C1892DE9
:103C0000982D60E040E00E94C62D8EEE94E00E9468
:103C100087048091EE04882319F462E272E002C006
:103C20006AE172E0892D982D0E94A91B8DB79EB77D
:103C30000A970FB6F8949EBF0FBE8DBFEDB7FEB7C3
:103C400031960CE314E0ADB7BEB712961C930E93F9
:103C5000119783E491E0938382838C81848315821E
:103C60008D81868317828E81808711860E94E20172
:103C70002DB73EB7265F3F4F0FB6F8943EBF0FBE3D
:103C80002DBF892D982D60E070E041E050E0980153
:103C90000E94B0058091EE04882309F484C0892D28
:103CA000982D69E040E00E94C62D892D982D62E094
:103CB0000E947E2D892D982D60E00E947E2D8DB76B
:103CC0009EB708970FB6F8949EBF0FBE8DBFEDB795
:103CD000FEB73196ADB7BEB712961C930E931197EF
:103CE0008091E0019091E101938382838091EF04C0
:103CF000848315828091F004868317820E94E201FA
:103D00002DB73EB7285F3F4F0FB6F8943EBF0FBEAA
:103D10002DBF892D982D6BE070E040E050E09801B8
:103D20000E94B005892D982D69E041E00E94C62DC2
:103D3000892D982D61E00E947E2D892D982D60E0BF
:103D40000E947E2D8DB79EB708970FB6F8949EBF40
:103D50000FBE8DBFEDB7FEB73196ADB7BEB71296A9
:103D60001C930E9311978091E0019091E101938350
:103D700082838091F104848315828091F20486838A
:103D800017820E94E2012DB73EB7285F3F4F0FB662
:103D9000F8943EBF0FBE2DBF892D982D6BE070E0CB
:103DA00041E050E02CC08DB79EB708970FB6F8944D
:103DB0009EBF0FBE8DBFEDB7FEB73196ADB7BEB794
:103DC00012961C930E9311978CEE91E0938382834D
:103DD000E48215828091AC04868317820E94E201FE
:103DE0002DB73EB7285F3F4F0FB6F8943EBF0FBECA
:103DF0002DBF892D982D6AE070E040E050E09801D9
:103E00000E94B005A8EEB4E0FE01319686E0019074
:103E10000D928150E1F704C0112309F0EBCC7DCE67
:103E20002C960FB6F894DEBF0FBECDBFCF91DF91B9
:103E30001F910F91FF90EF90DF90CF90BF90AF90C8
:103E40009F908F900895FC0110828CEF94E064E0C5
:103E500070E040E00E9468258CE794E061E00E94F9
:103E6000BC040E94120589EC94E061E00E94C01B32
:103E70000895FC018585613011F48E7F01C0816059
:103E80008587CF01642F0E94C01B08951F93CF9395
:103E9000DF93EC01162F89EC94E00E94391F8C8D82
:103EA0009D8D112311F4916001C09E7F9D8F8C8F99
:103EB0000E94A40480E090E0DF91CF911F910895CB
:103EC000CF93DF93EC0189EC94E060E070E041E097
:103ED00050E020E031E00E94B005EC81F0E0EE0F10
:103EE000FF1FE650FE4F6081718189EC94E00E94D3
:103EF000C40560E08C81882309F461E08CE794E0DC
:103F000040E00E94461F90E08C81882309F491E0F4
:103F100090933B0489EC94E060E040E00E94391FFC
:103F200064EF71E080E090E00E94673086EC93E0FF
:103F3000DF91CF910895FF920F931F93CF93DF935B
:103F4000EC01F42E8C8D80FD02C080E101C080E583
:103F5000663030F0861748F068AB00E010E008C02B
:103F600086E088AB01E010E003C088AB02E010E01F
:103F70008C8D80FD02C081E001C082E060E070E0D5
:103F8000813011F061E070E08CEF94E048A90E946C
:103F9000682588819981019781F588A9282F30E0CB
:103FA000C90106978E9760F4B901882777FD80953F
:103FB000982F25E830E040E050E00E943C3515C0E5
:103FC000C901C4974D97C8F4C901AA2797FDA095C8
:103FD000BA2F80569F4FAF4FBF4F65E0880F991F94
:103FE000AA1FBB1F6A95D1F7BC0170938B00609329
:103FF0008A0081E090E099838883FF2029F089EC92
:1040000094E061E00E94C01BC801DF91CF911F9135
:104010000F91FF900895CF93DF93EC0189EC94E02A
:1040200060E070E041E050E020E031E00E94B00547
:104030008C81EF81F885E80FF11D60818091D204B9
:10404000882339F089EC94E070E04AE050E00E9467
:10405000443489EC94E062E271E00E94C40564EFAC
:1040600071E080E090E00E9467308091980480FDCC
:1040700002C081E001C082E060E070E0813011F0B8
:1040800061E070E08C81EF81F885E80FF11D8CEF25
:1040900094E040810E9468258C81EF81F885E80FCB
:1040A000F11D8CE794E0608140E00E949B1F86EC4C
:1040B00093E0DF91CF9108950F931F93CF93DF93F8
:1040C000EC01162F042F8C8D9D8D623021F48160C0
:1040D0009D8F8C8F04C08E7F9D8F8C8F11E00E94EE
:1040E000A40460E070E0113011F061E070E08CEF4A
:1040F00094E00E946125682F81508E3F20F011309E
:1041000009F56CE006C0663010F416E00BC0113003
:1041100029F4162F613130F010E104C0162F6135FB
:1041200008F010E5CE010E94F413CE01612F40E0AB
:104130000E949B1F002341F089EC94E061E00E9403
:10414000C01B02C060E5E3CFDF91CF911F910F91BB
:104150000895CF93DF93EC016C81662321F48CE703
:1041600094E061E008C08CE794E040E00E945C20AD
:104170008CE794E060E00E94C90489EC94E060E080
:1041800070E041E050E020E031E00E94B005EC81B9
:10419000F0E0EE0FFF1FEC50FE4F6081718189EC63
:1041A00094E00E94C4050E94A40464EF71E080E0E2
:1041B00090E00E94673086EC93E0DF91CF91089504
:1041C0001F93CF93DF93EC0189A58E3FD1F080E45C
:1041D0009FE190938B0080938A00198218821EEFD2
:1041E00019A789EC94E060E00E94C01B1AA70E9406
:1041F00059306854744F8F4F9F4F6DAB7EAB8FAB70
:1042000098AFDF91CF911F9108950F931F93DF9384
:10421000CF9300D000D000D0CDB7DEB78C01FC0129
:104220008781813009F081C00E94AC2829833A83BC
:104230004B835C836D837E83A8EEB4E0FE013196F0
:1042400086E001900D928150E1F78091EB04F80136
:1042500085836091EC0466838081882309F463C0C0
:104260002181222351F48281882339F48381882398
:1042700021F48481882309F456C0F801338123177F
:1042800029F492818481981709F44DC09CE3299FF9
:10429000A0011124F8018281480F511D399F90011E
:1042A00011248481280F311D8581899FC00111242B
:1042B000860F911D2417350750F48417950718F0C1
:1042C0002817390750F04817590708F103C0841719
:1042D0009507E8F082179307E8F48091A5048E3FD4
:1042E00011F58091390490913A04892BE1F48FEF14
:1042F0008093A6041092A50480E49FE190938B0024
:1043000080938A0010927D0410927C040CC0821766
:10431000930748F02F5F3F4F2817390720F08CE7AD
:1043200094E00E94E020F801178226960FB6F894D8
:10433000DEBF0FBECDBFCF91DF911F910F910895CA
:10434000FF920F931F938C01FF24F394FC01F082E2
:104350008CEF94E064E070E041E00E9468258CE717
:1043600094E060E00E94BC040E941205F801F7820C
:10437000C8010E94052189EC94E061E00E94C01B05
:104380001F910F91FF9008950F931F938C0189EC5B
:1043900094E060E070E041E050E020E031E00E9415
:1043A000B005D8011496EC91F0E0EE0FFF1FEB5E24
:1043B000FD4F6081718189EC94E00E94C40564EF37
:1043C00071E080E090E00E946730F80184818823EA
:1043D00029F48EEE94E00E94A02104C08EEE94E0B9
:1043E0000E94231F86EC93E01F910F9108950F9375
:1043F0001F93CF93DF93EC01062F0E941510888145
:10440000813079F489819A81AB81BC810097A105C3
:10441000B10509F0A6C01882AD81BE81109729F4BC
:104420000DC0823009F09DC023C0ED91FC91119721
:104430000280F381E02DCD01099593C0002309F09E
:1044400090C08091A5048F3F19F08E3F09F085C080
:104450008FEF8093A6041092A50480E49FE19093CF
:104460008B0080938A0010927D0410927C0479C0A6
:1044700089819A81AB81BC810097A105B10509F4BE
:1044800070C019821A821B821C82AD81BE81109776
:1044900009F44CC0ED91FC9111970480F581E02D59
:1044A000CD010995DC019E838D830097E1F083E0C7
:1044B000A63CB80719F414960C911497ED91FC9151
:1044C00011970190F081E02DCD010995ED81FE81DC
:1044D00083E0E63CF80709F044C001500483CF01B3
:1044E0000E9491193EC08091EE04882321F081E062
:1044F0008093F5040FC08FEF8093A6041092A5045B
:1045000080E49FE190938B0080938A0010927D0459
:1045100010927C0489EC94E06F8141E00E94391F85
:1045200089EC94E061E00E94C01B1BC08CE794E022
:104530000E94E0208091D604809581708F8389EC61
:1045400094E060E041E00E94391F06EC13E0C801EE
:104550000E94BC191E830D8304C08CE794E00E9466
:10456000E020DF91CF911F910F910895AF92BF92FC
:10457000CF92DF92EF92FF920F931F93CF93DF932F
:10458000EC018CEF94E062E070E00E946125182F4E
:1045900000E08CEF94E063E070E00E946125E82E7B
:1045A000FF24E02AF12A2FEFE2162FEFF20641F066
:1045B000F0FE06C089EC94E060E041E00E94391F03
:1045C00088E061E00E94273187E061E00E942731A6
:1045D00089E061E00E94273183E060E00E9427319A
:1045E00084E060E00E94273183E061E00E944D3169
:1045F00084E061E00E944D31CE010E949210109241
:10460000800020E43FE1309387002093860081E121
:1046100080938100229A8091800080628093800044
:1046200030938B0020938A00198218828FEFE8164E
:104630008FEFF80619F41D8E1C8E07C0FD8EEC8ED0
:10464000E0FC03C0DD24D39402C082E0D82E1E8E8D
:1046500019861A861B861C861D861A8A1B8A1C8A46
:104660001D8A1E8A1B8E19A61AA607E0A02E18E026
:10467000B12EB9E0CB2ECE010E94EE19382F9C8DC1
:1046800095FD04C08150823008F4D32E93FD05C0FF
:10469000333019F4A9A621E001C020E08C8D84FDFF
:1046A00004C0343011F4B9A621E08C8D9D8D91FDAC
:1046B00004C0353011F4C9A602C02223D9F00E94EB
:1046C00059307B018C0105C084E394E061E00E94D5
:1046D000F7210E9459306E197F09800B910B605AA7
:1046E0007B4B8D40904080F32FC0873021F2883083
:1046F00009F4C1CFCE016D2D40E00E945C20CE01B7
:1047000002960E9481108C8D86FD0CC08FEF8AA7C7
:1047100019A680E49FE190938B0080938A00198210
:10472000188203C0CE010E94E0208DE060E00E946C
:104730004D31DF91CF911F910F91FF90EF90DF905E
:10474000CF90BF90AF90089589A5893071F693CF2F
:104750008CE794E00E94321189EC94E060E00E94C2
:10476000C01B84E394E060E00E94F7218EEE94E0A9
:104770000E9405210895EF92FF920F931F938C01E1
:10478000FC0115868DE061E00E94273185E061E043
:104790000E9427318DE060E00E944D3185E060E0AD
:1047A0000E944D3181E0F8018487C80160E142E058
:1047B00022E00E94852EC80167E00E94172EC801E2
:1047C00067E00E94EA139CE3E92E94E0F92EC7010A
:1047D00069E472E048E050E00E94C501C80160E071
:1047E000A7010E948B2DC70161E572E048E050E00F
:1047F0000E94C501C80161E0A7010E948B2DC7017D
:1048000069E572E048E050E00E94C501C80162E03D
:10481000A7010E948B2DC8010E94782EC80160E07C
:1048200070E049E952E00E945214C80160E070E073
:1048300041E050E020E932E00E943114C80168E60E
:1048400070E00E94A91BC8016CE872E00E94A91BDD
:1048500060E273E080E090E00E9467301F910F916A
:10486000FF90EF90089583E495E00E94D7250E9481
:10487000AA288EEE94E00E94280589EC94E00E941C
:10488000BB238CE794E00E94B622089588E10FB61E
:10489000F89480936000109260000FBE8BE696E063
:1048A00040E052EC61E070E00E94293284E394E041
:1048B0000E94781080E06AEB70E143E050E00E94D3
:1048C000942F0E943324089560E241E020E00E948A
:1048D000B52C08958FE893E09093C7038093C603A7
:1048E0008CE790E09093C9038093C80320E0322FB7
:1048F0003F5FE22FF0E0EE0FFF1FE653FE4F808197
:104900009181892B11F0232FF2CF2093CB038BE7DA
:1049100093E09093CD038093CC0382E890E0909352
:10492000CF038093CE0381E793E09093D2038093EB
:10493000D10380E990E09093D4038093D30387E67A
:1049400093E09093DB038093DA038CE990E09093FB
:10495000DD038093DC0385E893E09093E00380938C
:10496000DF0389EB90E09093E2038093E1038DE510
:1049700093E09093E5038093E4038EE690E09093B8
:10498000E7038093E60383E593E09093EA03809343
:10499000E90388EA90E09093EC038093EB0389E4C9
:1049A00093E09093EF038093EE0388EC90E0909374
:1049B000F1038093F0038FE393E09093F4038093EB
:1049C000F30385ED90E09093F6038093F50385E380
:1049D00093E09093F9038093F80322EE30E0309354
:1049E000FB032093FA038BE293E09093FE03809302
:1049F000FD0381E293E090930304809302043093DB
:104A000005042093040487E193E0909308048093C5
:104A100007048DE093E090930D0480930C0483E0F1
:104A200093E0909312048093110489EF92E09093A5
:104A30001704809316042BE131E03093190420937E
:104A400018048FEE92E090931C0480931B04309323
:104A50001E0420931D0485EE92E090932104809320
:104A600020048BED92E0909326048093250481ED41
:104A700092E090932B0480932A0487EC92E0909329
:104A8000300480932F041092340410923504109255
:104A90003604109237041092380410923A0410929F
:104AA000390489EC94E00E94642488EE94E040E0AC
:104AB00050E060E070E00E94052881E08093F504FA
:104AC0000895F999FECF72BD61BDF89A80B5089539
:104AD000F999FECF1FBA72BD61BD40BD0FB6F89403
:104AE000FA9AF99A0FBE089581E080934205609387
:104AF0001F051092400510924105089590911D05E3
:104B000080911E05981710F080E00895E92FF0E0DD
:104B1000E350FB4F80819F5F90931D05089508959A
:104B2000DF93CF930F92CDB7DEB7698380914205B3
:104B3000882389F080914105803290F4809140056E
:104B4000E82FF0E0E05EFA4F60838F5F80934005CE
:104B50008093410505C0CE01019661E00E946F2659
:104B60000F90CF91DF9108950E9490250895809134
:104B70001F0560E275E04091410521E00E942C266E
:104B8000109240051092410510924205089541325D
:104B900008F040E2862F6DEF74E00E94F525109238
:104BA0001D0580931E0508950E94C7250895109243
:104BB0001D0510921E0510924005109241050E949D
:104BC000E225089510924405449A459AE9EBF0E0F5
:104BD00080818E7F808380818D7F808388E4809335
:104BE000B80085E48093BC000895982F413210F0FE
:104BF00040E030C0809144058823E1F781E0809354
:104C000044058FEF8093AF0510926A0541504093A1
:104C10006B054F5F990F91609093450585EE8093EA
:104C2000BC00809144058130E1F380916A058417CE
:104C300010F440916A0520E030E00AC0FB01E20F69
:104C4000F31FD901A65BBA4F8C9180832F5F3F4F32
:104C50002417A0F3842F08951F93582F122F413249
:104C600010F081E03AC0809144058823E1F782E0AA
:104C7000809344058FEF8093AF0510926A054093AF
:104C80006B05AAE4B5E0FB0102C081918D938E2FE4
:104C9000861B8417D0F3852F90E0880F991F80938F
:104CA000450585EE8093BC00112321F080914405D9
:104CB0008230E1F38091AF058F3F11F480E00DC0A9
:104CC0008091AF05803211F482E007C08091AF057A
:104CD000803311F084E001C083E01F910895482FD4
:104CE000613210F081E0089580914405843011F024
:104CF00082E0089560938D05ACE6B5E0842F9C01B9
:104D0000F90102C081918D938E2F841B8617D0F3F9
:104D100080E008951F920F920FB60F9211242F93E7
:104D20003F934F935F936F937F938F939F93AF9333
:104D3000BF93EF93FF938091B90090E0887F9070CC
:104D40008036910509F4DCC081369105CCF58832B6
:104D5000910509F47BC089329105B4F48031910545
:104D600009F46FC0813191053CF4009709F431C119
:104D7000089709F039C165C08831910509F466C00A
:104D8000809709F031C17DC08034910509F49FC03E
:104D90008134910544F48033910509F47DC0C897AE
:104DA00009F022C184C08035910509F484C088359A
:104DB000910509F491C08834910509F015C198C096
:104DC0008839910509F4FDC089399105ECF48837DB
:104DD000910509F495C0893791054CF48836910501
:104DE00009F48EC08037910509F0FEC089C088386B
:104DF000910509F4E6C08039910509F487C080382F
:104E0000910509F0F1C082C0803B910509F4B0C062
:104E1000813B91054CF4803A910509F489C0883AA8
:104E2000910509F0E1C0A4C0803C910509F4CDC012
:104E3000883C910509F4C9C0883B910509F0D4C0AC
:104E4000ACC0809145058093BB00B9C090916A05C4
:104E500080916B05981768F490916A05E92FF0E04E
:104E6000E65BFA4F80818093BB009F5F90936A0559
:104E7000A6C085ED8093BC008091BC0084FDFCCF72
:104E8000B1C080E28093AF0585ED8093BC00809136
:104E9000BC0084FDFCCFA6C080E38093AF0585ED08
:104EA0008093BC008091BC0084FDFCCF9BC088E354
:104EB0008093AF058AC080916A059091BB00E82F6E
:104EC000F0E0E65BFA4F90838F5F80936A059091E4
:104ED0006A0580916B0571C080916A059091BB0055
:104EE000E82FF0E0E65BFA4F90838F5F80936A05CE
:104EF00085ED8093BC008091BC0084FDFCCF72C026
:104F000083E0809344051092AE0559C08091AE05B0
:104F1000803208F056C08091AE059091BB00E82F1A
:104F2000F0E0E257FA4F90838F5F8093AE0547C061
:104F30008091AE05803230F4E091AE05F0E0E257AA
:104F4000FA4F108285ED8093BC008091BC0084FDF7
:104F5000FCCF109244056091AE05E0914805F091B8
:104F600049058EE895E070E009951092AE052DC0D8
:104F700084E08093440510928C0510928D05E09199
:104F80004605F0914705099580918D05882329F400
:104F900081E080938D0510926C0590918C05E92F2E
:104FA000F0E0E459FA4F80818093BB009F5F9093BB
:104FB0008C0590918C0580918D05981710F485ECE7
:104FC00001C085E88093BC000FC085EC8093BC00D5
:104FD00009C01092AF0585ED8093BC008091BC00A4
:104FE00084FDFCCF10924405FF91EF91BF91AF91EA
:104FF0009F918F917F916F915F914F913F912F91F1
:105000000F900FBE0F901F901895EF92FF920F9385
:105010001F93CF93DF93EC017A018B0180E89CEB27
:10502000A2E9B7ECE80EF91E0A1F1B1FC801B70161
:105030002CE330E040E050E00E948E356D83C801E3
:10504000B7012CE330E040E050E00E948E35122F93
:10505000032FF42EE52E622F732F842F952F2CE330
:1050600030E040E050E00E948E356C83612F702F5D
:105070008F2D9E2D2CE330E040E050E00E948E35D5
:10508000122F032FF42EE52E622F732F842F952FCE
:1050900028E130E040E050E00E948E356B83612FC4
:1050A000702F8F2D9E2D28E130E040E050E00E94CF
:1050B0008E3560E0A3E9BEEF70E0862F90E083704C
:1050C0009070892B09F471E0E62FEF5F472F50E0D5
:1050D000CA0183599E4F2817390738F0CD01841B28
:1050E000950B280F391F6E2FE7CF688341E0E42F1F
:1050F000F0E0E954FD4F8491772319F0423009F430
:105100008F5F90E0542F5F5F2817390720F0281B2E
:10511000390B452FECCF4983822F8F5F8A83DF9134
:10512000CF911F910F91FF90EF900895CF92EF9242
:105130000F93FC0187E0603D780710F0605D7740D9
:105140006083418322830383E482C5820F91EF90C1
:10515000CF90089581E00895BF92CF92DF92EF92B1
:10516000FF920F931F93DF93CF9300D000D000D016
:10517000CDB7DEB703E415E0C80168E670E00E9431
:1051800074256091B0057091B105C8010E94B425E5
:10519000C8010E94B725C80168E670E047E050E00A
:1051A0000E94D425C8010E947E259FE7B92EB8220F
:1051B000C8010E947E25C82EC8010E947E25D82ED7
:1051C000C8010E947E25C8010E947E25E82EC801E4
:1051D0000E947E25F82EC8010E947E25282F30E0EF
:1051E000B4E035952795BA95E1F74AEF5FEFB9013D
:1051F000649F9001659F300D749F300D1124820FC4
:1052000090E02B2D30E0A4E035952795AA95E1F7A5
:10521000B901649F9001659F300D749F300D11247A
:10522000B20E2C2D30E0F4E035952795FA95E1F794
:10523000B901649F9001659F300D749F300D11245A
:10524000C20E2D2D30E0E4E035952795EA95E1F783
:10525000B901649F9001659F300D749F300D11243A
:10526000D20E2E2D30E074E0359527957A95E1F732
:10527000B901649F9001659F300D749F300D11241A
:10528000E20E2F2D30E064E0359527956A95E1F721
:10529000B901649F9001659F300D749F300D1124FA
:1052A000F20E282F3F2D4E2D5D2D6C2D7B2D80E095
:1052B00026960FB6F894DEBF0FBECDBFCF91DF911B
:1052C0001F910F91FF90EF90DF90CF90BF900895C6
:1052D000DF92EF92FF920F931F937C0103E415E09E
:1052E000C80168E670E00E9474256091B005709175
:1052F000B105C8010E94B425F7012581822F6AE01B
:105300000E945B3546E0D42E8D9DC0011124280FEC
:10531000C801622F0E949025F7012481822F6AE044
:105320000E945B358D9DC0011124280FC801622F9A
:105330000E949025F7012381822F6AE00E945B354D
:105340008D9DC0011124280FC801622F0E94902555
:10535000C80160E00E949025F7012281822F6AE057
:105360000E945B358D9DC0011124280FC801622F5A
:105370000E949025F7012181822F6AE00E945B350F
:105380008D9DC0011124280FC801622F0E94902515
:10539000F7012081822F6AE00E945B358D9DC0015C
:1053A0001124280FC801622F0E9490256091B0053A
:1053B0007091B105C8010E94B425C8010E94B725AB
:1053C0001F910F91FF90EF90DF9008950F931F931F
:1053D000611571058105910569F481E090E0A0E017
:1053E000B0E08093B2059093B305A093B405B09359
:1053F000B50508C06093B2057093B3058093B405FA
:105400009093B5051093B7050093B6058091700091
:105410008E7F809370008091B0008C7F8093B0006D
:105420008091B100877F8093B1008091B6008F7D1D
:105430008093B600809170008D7F80937000809182
:10544000B10084608093B1008091B1008C7F809323
:10545000B100CA01B90120E034E244E75BE40E94F4
:10546000D93420E030E040E85CE30E94D9340E9467
:10547000573420E031E0261B370B3093BE052093D4
:10548000BD051F910F9108950F931F938A012FE679
:1054900032E143E85AE30E94E6291F910F910895F3
:1054A0001092B8051092B9051092BA051092BB057A
:1054B0001092BC058091BD059091BE058093B2000D
:1054C000E0E7F0E080818160808308958091B805F5
:1054D0009091B905A091BA05B091BB050196A11DA7
:1054E000B11D8093B8059093B905A093BA05B09308
:1054F000BB058091B8059091B905A091BA05B0910E
:10550000BB052091B2053091B3054091B40550918F
:10551000B50582179307A407B50710F18091BC0564
:105520008823F1F481E08093BC058091B8059091C7
:10553000B905A091BA05B091BB05821B930BA40BD2
:10554000B50B8093B8059093B905A093BA05B093B5
:10555000BB05E091B605F091B70509951092BC0521
:1055600008951F920F920FB60F9211242F933F931D
:105570004F935F936F937F938F939F93AF93BF935B
:10558000EF93FF938091BD059091BE058093B2008B
:105590000E94662AFF91EF91BF91AF919F918F91E9
:1055A0007F916F915F914F913F912F910F900FBE1F
:1055B0000F901F9018958F929F92AF92BF92CF92AB
:1055C000DF92EF92FF920F931F93CF93DF937B01B4
:1055D0008C01EA012CE330E040E050E00E948E357F
:1055E0006883C801B7012CE330E040E050E00E943E
:1055F0008E35122F032FF42EE52E622F732F842F5A
:10560000952F2CE330E040E050E00E948E35698316
:10561000612F702F8F2D9E2D2CE330E040E050E065
:105620000E948E35122F032FF42EE52E622F732F3A
:10563000842F952F28E130E040E050E00E948E3525
:105640006A83612F702F8F2D9E2D28E130E040E07E
:1056500050E00E948E3579018A01C801B7016C5F64
:105660007F4F8F4F9F4F27E030E040E050E00E9497
:105670008E356F5F6B8320E0AA24BB24650101C0D7
:105680002F5F822E9924F401EE54F84FCF018370DE
:105690009070892B99F4CF0164E670E00E947B350D
:1056A000892B39F4CF0160E971E00E947B35892BA9
:1056B00029F48EE691E0A0E0B0E004C08DE691E030
:1056C000A0E0B0E0A80EB91ECA1EDB1EC501A0E016
:1056D000B0E0E816F9060A071B0790F62E83F401DE
:1056E000EE54F84F83E0882E912C8E229F22811455
:1056F000910499F4CF0164E670E00E947B35892B18
:1057000039F4CF0160E971E00E947B35892B29F4DF
:105710008EE691E0A0E0B0E004C08DE691E0A0E06C
:10572000B0E0A81AB90ACA0ADB0A980187010A1967
:105730001B092C093D09CF0164E670E00E947B350E
:105740007C01CF0160E971E00E947B35AC01E5E9A5
:10575000F3E060E0613051F48114910449F4E11404
:10576000F10441F44115510529F002C0808103C0C4
:105770008CE101C08DE190E0A0E0B0E008171907CE
:105780002A073B0740F0081B190B2A0B3B0B6F5FE6
:1057900031966C30F9F66F5F6D83802F8F5F8C834D
:1057A000DF91CF911F910F91FF90EF90DF90CF90FD
:1057B000BF90AF909F908F900895EF92FF920F93BC
:1057C0001F937B018C018091D6059091D705A09104
:1057D000D805B091D905E816F9060A071B0771F03C
:1057E000C801B7014BEC55E00E94DB2AE092D605D8
:1057F000F092D7050093D8051093D9051F910F910A
:10580000FF90EF9008950E94DD2B8091CB0590E0F2
:1058100008950E94DD2B8091CC0590E008950E94B0
:10582000DD2B8091CD0590E008956093C1057093C4
:10583000C2058093C3059093C4052091BE023091A8
:10584000BF024091C0025091C102260F371F481F6E
:10585000591F2093C5053093C6054093C705509343
:10586000C80582E090E09093CA058093C9050E9424
:1058700059306093D2057093D3058093D4059093EB
:10588000D5050895EF92FF920F931F931CC02F5FD1
:105890003F4F4F4F5F4F2093C1053093C205409358
:1058A000C3055093C40588EE93E0A0E0B0E0E80E95
:1058B000F91E0A1F1B1FE092D205F092D305009338
:1058C000D4051093D5050E945930E090D205F09090
:1058D000D3050091D4051091D5056E197F09800B71
:1058E000910B2091C1053091C2054091C3055091A3
:1058F000C405685E73408040904048F68091C505BD
:105900009091C605A091C705B091C8052817390721
:105910004A075B07E8F0E091BF05F091C0053097BA
:10592000B9F00995611571058105910519F00E947D
:10593000152C0EC020E030E08091C9059091CA0579
:10594000892B11F021E030E03093CA052093C9057E
:105950006091C1057091C2058091C3059091C40505
:105960001F910F91FF90EF900895FC0185EA93E05D
:1059700091838083442311F481E001C082E0818718
:1059800020876783128214860895682F83E495E048
:105990000E94902508951F93162FFC016781606275
:1059A00083E495E070E00E94742589E00E94C52C94
:1059B000812F0E94C52C83E495E00E94B72588239F
:1059C000D1F71F9108951F93162FFC016781606224
:1059D00083E495E070E00E94742583E10E94C52C69
:1059E000812F0E94C52C83E495E00E94B72588236F
:1059F000D1F71F910895DF92EF92FF920F931F93BB
:105A0000CF93DF937C01062FD42EFC018485C62F13
:105A1000D0E08130A1F5638504FD6061C5FD68605B
:105A2000C6FD646007FD6260DD2019F0162F106A64
:105A300002C0162F1062C701612F0E94E32C1F7D48
:105A4000C701612F0E94E32CF7016385C0FD6061EF
:105A5000C1FD6860C2FD6460C3FD6260DD2019F0B5
:105A6000162F106A02C0162F1062C701612F0E9404
:105A7000E32C1F7DC701612F0E94E32C37C0D69510
:105A8000C7959E012877442319F0922F966002C093
:105A9000922F9460F701838183FD02C010E001C062
:105AA00010E8192BC701612F0E94CB2C1B7FC70167
:105AB000612F0E94CB2C602F6F70660F660F660FF0
:105AC000DD2011F0666001C06460F701838183FD11
:105AD00002C010E001C010E8162BC701612F0E9420
