:100000000C9492010C943E310C946B310C94C3010E
:100010000C94C3010C94C3010C94C3010C94C30150
:100020000C94C3010C94382C0C94C3010C94C301A0
:100030000C94C3010C94C3010C94C3010C94C30130
:100040000C9498310C94C3010C947F330C94C3012D
:100050000C94C3010C94C3010C94C3010C94C30110
:100060000C9411280C94C301332E322E32004746D3
:10007000492053656C66205465737400536574752C
:10008000700053657276696365204C6576656C0017
:100090004D61782043757272656E740044696F64B7
:1000A0006520436865636B0056656E742052657108
:1000B000276420436865636B004261636B6C69670A
:1000C000687420547970650047726F756E642043C0
:1000D0006865636B0052657374617274004578697A
:1000E0007400446174652F54696D65005365742014
:1000F0004D6F6E74680053657420446179005365D8
:100100007420596561720053657420486F757200E0
:10011000536574204D696E7574650044656C617932
:100120002054696D65720053657420537461727454
:1001300020486F7572005365742053746172742087
:100140004D696E005365742053746F7020486F754D
:1001500072005365742053746F70204D696E0050A7
:100160006F776572204F6E0053656C66205465731F
:1001700074004175746F2044657465637400537630
:1001800063204C6576656C3A204C310053766320D1
:100190004C6576656C3A204C32002D2D5374756396
:1001A0006B2052656C61792D2D002D2D4561727487
:1001B000682047726F756E642D2D0054455354208E
:1001C0004641494C45440045565345204552524FFF
:1001D000520056454E54205245515549524544000F
:1001E00044494F44452043484B204641494C4544EF
:1001F0000047464349204641554C54004E4F204746
:10020000524F554E4400535455434B2052454C4198
:10021000590053746F707065640057616974696E3A
:100220006700536C656570696E6700455620436FC3
:100230006E6E6563746564004556204E6F7420438E
:100240006F6E6E656374656400000E1517110E0005
:100250000000000E0E0E00000000080C0E0C08003E
:10026000005265616479004368617267696E670076
:1002700052657374617274204E6F773F00536574DA
:1002800020446174652F54696D653F002020200073
:1002900056657273696F6E20004F70656E2045560B
:1002A0005345202020202020200052657374617265
:1002B00074696E672E2E2E001F1C1F1E1F1E1F1F0F
:1002C0001E1F1E1F00000000240027002A0000003F
:1002D0000000250028002B0000000000230026005D
:1002E00029000404040404040404020202020202B9
:1002F00003030303030301020408102040800102EA
:100300000408102001020408102000000007000269
:100310000100000304060000000000000000F125B9
:1003200016277B3411241FBECFEFD8E0DEBFCDBF30
:1003300014BE88E10FB6F8948093600010926000BC
:100340000FBE13E0A0E0B1E0E2E2FFE602C00590DC
:100350000D92A43DB107D9F716E0A4EDB3E001C0BA
:100360001D92A039B107E1F713E0C4E2D3E004C065
:100370002297FE010E945437CE31D107C9F70E945F
:10038000B5340C948F370C940000FB01DC0102C0E3
:1003900005900D9241505040D8F70895FB01DC01C3
:1003A00005900D920020E1F70895FB01DC0104C0E7
:1003B0008D910190801921F441505040C8F7881B5D
:1003C000990B0895AEE0B0E0E8EEF1E00C946637EA
:1003D0000D891E8986E08C831A8309838FEF9FE73E
:1003E0009E838D839E01275E3F4FCE0101966F89CC
:1003F000788DA9010E9406022F813885020F131FF4
:10040000F80110822E96E4E00C948237ABE0B0E065
:10041000ECE0F2E00C9458373C012B015A01FC014E
:1004200017821682838181FD03C06FEF7FEFC6C103
:100430009AE0892E1E010894211C311CF3012381AE
:10044000F20123FD859123FF81912F01882309F477
:10045000B2C1853239F423FD859123FF81912F01AB
:10046000853229F490E0B3010E94F903E7CF982F79
:10047000FF24EE249924FFE1FF15D0F09B3269F0B0
:100480009C3228F4903259F0933291F40EC09D3290
:1004900049F0903369F441E024C052E0F52A84E049
:1004A000F82A28C098E0F92A25C0E0E1FE2A22C0F7
:1004B000F7FC29C0892F80538A3070F4F6FE05C0FE
:1004C000989C902C1124980E15C0E89CE02C1124C7
:1004D000E80EF0E2FF2A0EC09E3229F4F6FC6BC152
:1004E00040E4F42A07C09C3619F450E8F52A02C00B
:1004F000983649F4F20123FD959123FF91912F0144
:10050000992309F0B8CF892F8554833018F0805291
:10051000833038F444E050E0A40EB51E5FE3598305
:100520000FC0933631F0933779F0933509F056C008
:1005300020C0F5018081898342E050E0A40EB51E01
:10054000610101E010E012C0F501C080D180F6FC2D
:1005500003C06FEF7FEF02C0692D70E042E050E012
:10056000A40EB51EC6010E94EE038C015FE7F522C2
:1005700014C0F501C080D180F6FC03C06FEF7FEF9F
:1005800002C0692D70E042E050E0A40EB51EC60125
:100590000E94E3038C0150E8F52AF3FE07C01AC05D
:1005A00080E290E0B3010E94F903EA948E2D90E07E
:1005B00008171907A8F30EC0F601F7FC8591F7FE9E
:1005C00081916F0190E0B3010E94F903E110EA9478
:1005D000015010400115110579F7EAC0943611F069
:1005E000993669F5F7FE08C0F50120813181428115
:1005F000538184E090E00AC0F501808191819C01E3
:10060000442737FD4095542F82E090E0A80EB91E94
:100610009FE6F92257FF09C05095409530952195E6
:100620003F4F4F4F5F4FE0E8FE2ACA01B901A101D9
:100630002AE030E00E942504D82ED21840C0953719
:1006400029F41F2D1F7E2AE030E01DC01F2D197FC9
:100650009F3661F0903720F4983509F0ACC00FC098
:10066000903739F0983709F0A6C004C028E030E090
:100670000AC0106114FD146020E130E004C014FDD4
:10068000166020E132E017FF08C0F501608171813A
:100690008281938144E050E008C0F501808191811E
:1006A000BC0180E090E042E050E0A40EB51EA10144
:1006B0000E942504D82ED2188FE7F82EF122F6FEDC
:1006C0000BC05EEFF522D91438F4F4FE07C0F2FC3B
:1006D00005C08FEEF82202C01D2D01C0192DF4FEB9
:1006E0000DC0FE01ED0DF11D8081803319F499EEEE
:1006F000F92208C01F5FF2FE05C003C08F2D867867
:1007000009F01F5F0F2DF3FC14C0F0FE0FC01E1583
:1007100010F09D2C0BC09D2C9E0C911A1E2D06C016
:1007200080E290E0B3010E94F9031F5F1E15C0F341
:1007300004C01E1510F4E11A01C0EE2404FF0FC01E
:1007400080E390E0B3010E94F90302FF1DC001FDA8
:1007500003C088E790E00EC088E590E00BC0802FD2
:10076000867891F001FF02C08BE201C080E2F7FCC5
:100770008DE290E0B3010E94F90306C080E390E0AF
:10078000B3010E94F9039A94D914C0F3DA94F101E9
:10079000ED0DF11D808190E0B3010E94F903DD2091
:1007A000A9F706C080E290E0B3010E94F903EA9441
:1007B000EE20C1F743CEF30166817781CB012B9602
:1007C000E2E10C947437FC01059061507040011017
:1007D000D8F7809590958E0F9F1F0895FC0161506A
:1007E000704001900110D8F7809590958E0F9F1F53
:1007F00008950F931F93CF93DF938C01EB018B81AF
:1008000081FF1BC082FF0DC02E813F818C819D81A5
:100810002817390764F4E881F9810193F983E883A3
:1008200006C0E885F985802F0995892B31F48E81E2
:100830009F8101969F838E8302C00FEF1FEFC80137
:10084000DF91CF911F910F910895FA01AA272830C7
:1008500051F1203181F1E8946F936E7F6E5F7F4F8D
:100860008F4F9F4FAF4FB1E03ED0B4E03CD0670F09
:10087000781F891F9A1FA11D680F791F8A1F911D5C
:10088000A11D6A0F711D811D911DA11D20D009F4AC
:1008900068943F912AE0269F11243019305D3193EE
:1008A000DEF6CF010895462F4770405D4193B3E0D7
:1008B0000FD0C9F7F6CF462F4F70405D4A3318F07E
:1008C000495D31FD4052419302D0A9F7EACFB4E02F
:1008D000A6959795879577956795BA95C9F70097E7
:1008E0006105710508959B01AC010A2E0694579588
:1008F000479537952795BA95C9F7620F731F841FDF
:10090000951FA01D089581E0809307050895FC01BF
:1009100080818823C1F09181992349F482818823C1
:1009200031F48381882319F48481882361F08381E1
:10093000981721F492818481981729F08BED94E027
:1009400060E00E94052F0895FF920F931F93F0908F
:10095000A6044091A7040EE015E0C80162E070E033
:100960000E94EF26C80163E070E04F2D0E94EF2641
:100970001F910F91FF900895FC01848D958D662342
:1009800011F08F7B01C08064958F848F0E94A40436
:100990000895FC01848D958D662311F08F7D01C033
:1009A0008062958F848F0E94A4040895FC01848D39
:1009B000958D662311F0877F09C0128A138A148AE5
:1009C000158A16861786108A118A8860958F848FFB
:1009D0000E94A4040895FC01848D958D662311F076
:1009E0008B7F01C08460958F848F0E94A40408953A
:1009F000FC01848D958D662311F09D7F01C092606E
:100A0000958F848F0E94A4040895FC01848D958D98
:100A1000662311F08D7F01C08260958F848F0E94C4
:100A2000A40408958091A60480FD02C081E001C065
:100A300082E060E070E0813011F061E070E08EE013
:100A400095E04091BA040E94EF260E94A404089504
:100A5000CF93DF93EC018EE095E064E070E00E94BC
:100A6000E8268F3F49F418828EE095E064E070E05C
:100A700040E00E94EF2601C088838EE095E065E0AB
:100A800070E00E94E8268F3F49F419828EE095E0DD
:100A900065E070E040E00E94EF2601C089838EE0AF
:100AA00095E066E070E00E94E8268F3F51F485E013
:100AB0008A838EE095E066E070E045E00E94EF26D4
:100AC00001C08A838EE095E067E070E00E94E8262E
:100AD0008F3F51F486E08B838EE095E067E070E015
:100AE00046E00E94EF2601C08B838EE095E068E02F
:100AF00070E00E94E8268F3F51F487E38C838EE0FC
:100B000095E068E070E047E30E94EF2601C08C8327
:100B100060E67AEE80E090E043E854E00E94CB2B60
:100B20000E94D72BDF91CF9108950F931F938C01D3
:100B300064EF71E080E090E00E94EE31F801848182
:100B4000882319F429E234E007C0813019F023E347
:100B500034E002C02EE234E0C9011F910F910895E4
:100B60000F931F93CF93DF93EC0189010E944D2FC8
:100B70008985882321F0CE01B8010E94F334DF91EA
:100B8000CF911F910F910895FC018185882319F061
:100B9000CF010E94F33408950F931F938C018BEDC6
:100BA00094E060E070E041E050E020E031E00E943D
:100BB000B005D8011496EC91F0E0EE0FFF1FED5D4B
:100BC000FD4F608171818BED94E00E94C40564EF5C
:100BD00071E080E090E00E94EE31F801848188238A
:100BE00019F024ED33E002C02BE034E0C9011F917D
:100BF0000F9108950F931F938C018BED94E060E0AB
:100C000070E041E050E020E031E00E94B005D80102
:100C10001496EC91F0E0EE0FFF1FED5DFD4F60814B
:100C200071818BED94E00E94C40560E0F80184813D
:100C3000882309F461E08AE894E00E94D60464EF16
:100C400071E080E090E00E94EE3184ED93E01F912E
:100C50000F9108950F931F938C018BED94E060E04A
:100C600070E041E050E020E031E00E94B005D801A2
:100C70001496EC91F0E0EE0FFF1FED5DFD4F6081EB
:100C800071818BED94E00E94C40560E0F8018481DD
:100C9000882309F461E08AE894E00E94EB0464EFA1
:100CA00071E080E090E00E94EE3184ED93E01F91CE
:100CB0000F9108950F931F938C018BED94E060E0EA
:100CC00070E041E050E020E031E00E94B005D80142
:100CD0001496EC91F0E0EE0FFF1FED5DFD4F60818B
:100CE00071818BED94E00E94C40560E0F80184817D
:100CF000882309F461E08AE894E00E94F80464EF34
:100D000071E080E090E00E94EE3184ED93E01F916D
:100D10000F9108950F931F938C018BED94E060E089
:100D200070E041E050E020E031E00E94B005D801E1
:100D30001496EC91F0E0EE0FFF1FED5DFD4F60812A
:100D400071818BED94E00E94C40560E0F80184811C
:100D5000882309F461E08AE894E00E94050564EFC5
:100D600071E080E090E00E94EE3184ED93E01F910D
:100D70000F910895CF93DF93EC01462F60E00E941E
:100D80004D2F8985882339F06091D6017091D70164
:100D9000CE010E94F334DF91CF910895CF93DF937A
:100DA000EC018C818F5F8C83823008F01C828BED8C
:100DB00094E061E070E00E94BA068C81E82FF0E0D8
:100DC00020E030E080910005882311F421E030E03C
:100DD000E217F307B9F48BED94E060E070E041E0D6
:100DE00050E020E031E00E94B005EC81F0E0EE0F31
:100DF000FF1FED5DFD4F608171818BED94E00E94DE
:100E0000C4050EC0EE0FFF1FED5DFD4F2081318147
:100E10008BED94E060E070E041E050E00E94B005AE
:100E2000DF91CF910895CF93DF93EC018C818F5F99
:100E30008C83833008F01C828BED94E061E070E0DD
:100E40000E94BA06EC81F0E0EE0FFF1FEE53FD4F5B
:100E5000208131818BED94E060E070E041E050E072
:100E60000E94B005DF91CF910895CF93DF93EC01FD
:100E70008C818F5F8C83823008F01C828BED94E034
:100E800061E070E00E94BA06EC81F0E0EE0FFF1F17
:100E9000ED5DFD4F208131818BED94E060E070E0ED
:100EA00041E050E00E94B005DF91CF910895CF93CB
:100EB000DF93EC018C818F5F8C83823008F01C8281
:100EC0008BED94E061E070E00E94BA06EC81F0E006
:100ED000EE0FFF1FED5DFD4F208131818BED94E022
:100EE00060E070E041E050E00E94B005DF91CF91FA
:100EF0000895CF93DF93EC018C818F5F8C838230D8
:100F000008F01C828BED94E061E070E00E94BA066C
:100F10008BED94E060E041E00E944D2F8091A604AB
:100F20009C8183FD03C0992319F008C0992331F0F7
:100F30008BED94E060E071E00E94C405EC81F0E08C
:100F4000EE0FFF1FED5DFD4F608171818BED94E031
:100F50000E94C405DF91CF910895CF93DF93EC01F8
:100F60008C818F5F8C83823008F01C828BED94E043
:100F700061E070E00E94BA068BED94E060E041E031
:100F80000E944D2F8091A6049C8182FD03C099236D
:100F900019F008C0992331F08BED94E060E071E026
:100FA0000E94C405EC81F0E0EE0FFF1FED5DFD4FE8
:100FB000608171818BED94E00E94C405DF91CF9137
:100FC0000895CF93DF93EC018C818F5F8C83823007
:100FD00008F01C828BED94E061E070E00E94BA069C
:100FE0008BED94E060E041E00E944D2F8091A604DB
:100FF0009091A7042C8191FD03C0222319F008C011
:10100000222331F08BED94E060E071E00E94C40592
:10101000EC81F0E0EE0FFF1FED5DFD4F608171810F
:101020008BED94E00E94C405DF91CF910895CF939A
:10103000DF93EC018C818F5F8C83823008F01C82FF
:101040008BED94E061E070E00E94BA068BED94E0D5
:1010500060E041E00E944D2F8091A6049C8181FDBB
:1010600003C0992319F008C0992331F08BED94E067
:1010700060E071E00E94C405EC81F0E0EE0FFF1F1C
:10108000ED5DFD4F608171818BED94E00E94C405A0
:10109000DF91CF910895CF93DF93EC018C818F5F27
:1010A0008C83833008F01C828BED94E061E070E06B
:1010B0000E94BA068BED94E060E041E00E944D2F63
:1010C0008091A60480FD02C021E001C022E030E052
:1010D0008C8190E001962817390731F48BED94E06C
:1010E00060E071E00E94C405EC81F0E0EE0FFF1FAC
:1010F000EE5FFD4F608171818BED94E00E94C4052D
:10110000DF91CF910895CF93DF93EC018C818F5FB6
:101110008C83823008F01C828BED94E061E070E0FB
:101120000E94BA068BED94E060E041E00E944D2FF2
:101130008BED94E060E071E00E94C405EC81F0E08A
:10114000EE0FFF1FE85FFD4F608171818BED94E032
:101150000E94C405DF91CF910895CF92DF92EF9264
:10116000FF920F931F93DF93CF93CDB7DEB76197B5
:101170000FB6F894DEBF0FBECDBF7C01262F6A01EB
:10118000DC0119968C91882349F1C70160E0422F58
:101190000E944D2F00D000D000D0EDB7FEB73196A1
:1011A0008E010F5F1F4FADB7BEB712961C930E9303
:1011B000119782E091E093838283D582C4820E945A
:1011C000E201198AEDB7FEB736960FB6F894FEBF66
:1011D0000FBEEDBFC701B8010E94F33461960FB690
:1011E000F894DEBF0FBECDBFCF91DF911F910F915D
:1011F000FF90EF90DF90CF9008950F931F93DC0145
:1012000014962C9120930D05EDB7FEB738970FB6C5
:10121000F894FEBF0FBEEDBF31960AE414E0ADB7FF
:10122000BEB712961C930E9311978091CA029091AB
:10123000CB029383828380910C058483158226835D
:1012400017820E94E201EDB7FEB738960FB6F89408
:10125000FEBF0FBEEDBF8BED94E061E070E0A80132
:101260000E94AD0840910C0580910D054093030547
:10127000809304050EE015E0C80167E070E00E946D
:10128000EF26C80168E070E0409104050E94EF2657
:101290000E94120564EF71E080E090E00E94EE3160
:1012A00084ED93E01F910F910895FC0184818F5F7D
:1012B00084838C3308F01482248180910D054AE4E4
:1012C00054E02817B1F48DB79EB708970FB6F8947D
:1012D0009EBF0FBE8DBFEDB7FEB73196ADB7BEB79F
:1012E00012965C934E9311978091CA029091CB0213
:1012F00013C0ADB7BEB718970FB6F894BEBF0FBEF8
:10130000ADBFEDB7FEB7319612965C934E93119731
:101310008091EE019091EF019383828380910C057F
:1013200084831582268317820E94E2018DB79EB7BF
:1013300008960FB6F8949EBF0FBE8DBF8BED94E05C
:1013400061E070E04AE454E00E94AD0808950F9314
:101350001F93DC0114962C9120930D05EDB7FEB779
:1013600038970FB6F894FEBF0FBEEDBF31960AE472
:1013700014E0ADB7BEB712961C930E9311978091EF
:10138000CA029091CB029383828380910C0584835F
:101390001582268317820E94E201EDB7FEB73896C8
:1013A0000FB6F894FEBF0FBEEDBF8BED94E061E089
:1013B00070E0A8010E94AD0840910C0580910D05D8
:1013C00040930105809302050EE015E0C80165E039
:1013D00070E00E94EF26C80166E070E040910205CF
:1013E0000E94EF260E94120564EF71E080E090E019
:1013F0000E94EE3184ED93E01F910F910895FC015E
:1014000084818F5F84838C3308F0148224818091DF
:101410000D054AE454E02817B1F48DB79EB708973C
:101420000FB6F8949EBF0FBE8DBFEDB7FEB73196D5
:10143000ADB7BEB712965C934E9311978091CA02D6
:101440009091CB0213C0ADB7BEB718970FB6F89402
:10145000BEBF0FBEADBFEDB7FEB7319612965C931F
:101460004E9311978091EE019091EF0193838283C7
:1014700080910C0584831582268317820E94E201E5
:101480008DB79EB708960FB6F8949EBF0FBE8DBF5E
:101490008BED94E061E070E04AE454E00E94AD0816
:1014A00008950F931F93DC0114962C9120930C0543
:1014B000EDB7FEB738970FB6F894FEBF0FBEEDBF7D
:1014C00031960AE414E0ADB7BEB712961C930E93A2
:1014D00011978091C8029091C902938382832483DB
:1014E000158280910D05868317820E94E201EDB777
:1014F000FEB738960FB6F894FEBF0FBEEDBF8BED6A
:1015000094E061E070E0A8010E94AD0864EF71E032
:1015100080E090E00E94EE318DE394E01F910F9106
:101520000895FC0184818F5F8483883108F01482E0
:10153000248180910C054AE454E02817B1F48DB75A
:101540009EB708970FB6F8949EBF0FBE8DBFEDB73C
:10155000FEB73196ADB7BEB712965C934E93119716
:101560008091C8029091C90213C0ADB7BEB7189759
:101570000FB6F894BEBF0FBEADBFEDB7FEB7319644
:1015800012965C934E9311978091EE019091EF012A
:10159000938382832483158280910D05868317822D
:1015A0000E94E2018DB79EB708960FB6F8949EBFD1
:1015B0000FBE8DBF8BED94E061E070E04AE454E033
:1015C0000E94AD0808950F931F93DC0114962C918F
:1015D00020930C05EDB7FEB738970FB6F894FEBF11
:1015E0000FBEEDBF31960AE414E0ADB7BEB7129658
:1015F0001C930E9311978091C8029091C902938316
:1016000082832483158280910D05868317820E9430
:10161000E201EDB7FEB738960FB6F894FEBF0FBEE5
:10162000EDBF8BED94E061E070E0A8010E94AD0891
:1016300064EF71E080E090E00E94EE3188E394E096
:101640001F910F910895FC0184818F5F84838831FD
:1016500008F01482248180910C054AE454E0281794
:10166000B1F48DB79EB708970FB6F8949EBF0FBE22
:101670008DBFEDB7FEB73196ADB7BEB712965C938E
:101680004E9311978091C8029091C90213C0ADB7D3
:10169000BEB718970FB6F894BEBF0FBEADBFEDB77B
:1016A000FEB7319612965C934E9311978091EE019E
:1016B0009091EF01938382832483158280910D059D
:1016C000868317820E94E2018DB79EB708960FB6F7
:1016D000F8949EBF0FBE8DBF8BED94E061E070E08B
:1016E0004AE454E00E94AD080895CF93DF93EC01E3
:1016F0008C818F5F8C838C3308F01C828BED94E09F
:1017000061E070E00E94BA062C8130910C058AE4F9
:1017100094E0231731F54DB75EB74E5050400FB6E9
:10172000F8945EBF0FBE4DBFEDB7FEB73196ADB7B3
:10173000BEB712969C938E93119788EA92E093839A
:10174000828380910A058483158280910B058683AC
:1017500017828091080590910905918780872287DB
:1017600022C0ADB7BEB71E970FB6F894BEBF0FBE6E
:10177000ADBFEDB7FEB7319612969C938E9311973D
:1017800087E292E09383828380910A0584831582A5
:1017900080910B0586831782809108059091090539
:1017A0009187808732871386248715860E94E201FD
:1017B0004DB75EB7425F5F4F0FB6F8945EBF0FBE86
:1017C0004DBF8BED94E061E070E04AE454E00E948C
:1017D000AD08DF91CF9108950F931F93DC0114960C
:1017E0002C9120930C05EDB7FEB73E970FB6F894F9
:1017F000FEBF0FBEEDBF31960AE414E0ADB7BEB731
:1018000012961C930E9311978EE892E09383828335
:1018100080910A058483158280910B058683178247
:10182000809108059091090591878087228713860A
:1018300080910D05848715860E94E201EDB7FEB701
:101840003E960FB6F894FEBF0FBEEDBF8BED94E051
:1018500061E070E0A8010E94AD0864EF71E080E0F3
:1018600090E00E94EE318FE194E01F910F91089576
:10187000CF93DF93EC018C818F5F8C83883108F0EC
:101880001C828BED94E061E070E00E94BA064C810E
:1018900080910C052AE434E04817A1F48DB79EB777
:1018A0000E970FB6F8949EBF0FBE8DBFEDB7FEB773
:1018B0003196ADB7BEB712963C932E9311978EE832
:1018C00092E011C0ADB7BEB71E970FB6F894BEBF79
:1018D0000FBEADBFEDB7FEB7319612963C932E9377
:1018E000119787E292E09383828380910A05848333
:1018F000158280910B05868317828091080590914F
:101900000905918780874287138680910D0584871A
:1019100015860E94E2018DB79EB70E960FB6F89419
:101920009EBF0FBE8DBF8BED94E061E070E04AE496
:1019300054E00E94AD08DF91CF9108950F931F935B
:10194000DC0114962C912093080510920905EDB73F
:10195000FEB73E970FB6F894FEBF0FBEEDBF3196AF
:101960000AE414E0ADB7BEB712961C930E9311971C
:1019700084E792E09383828380910A0584831582B1
:1019800080910B05868317822087118680910C0534
:101990008287138680910D05848715860E94E20157
:1019A000EDB7FEB73E960FB6F894FEBF0FBEEDBF83
:1019B0008BED94E061E070E0A8010E94AD0864EF57
:1019C00071E080E090E00E94EE318AE194E01F91A6
:1019D0000F910895FC0184818F5F8483853110F01D
:1019E0008CE084836481262F30E0809108059091FB
:1019F00009054AE454E028173907A1F48DB79EB7CA
:101A00000E970FB6F8949EBF0FBE8DBFEDB7FEB711
:101A10003196ADB7BEB712965C934E93119784E79B
:101A200092E011C0ADB7BEB71E970FB6F894BEBF17
:101A30000FBEADBFEDB7FEB7319612965C934E93D5
:101A4000119787E292E09383828380910A058483D1
:101A5000158280910B05868317826087118680919D
:101A60000C058287138680910D05848715860E9458
:101A7000E2018DB79EB70E960FB6F8949EBF0FBECB
:101A80008DBF8BED94E061E070E04AE454E00E9489
:101A9000AD0808950F931F93DC0114962C912093A9
:101AA0000B05EDB7FEB73E970FB6F894FEBF0FBE1D
:101AB000EDBF31960AE414E0ADB7BEB712961C93A1
:101AC0000E9311978AE592E09383828380910A05B1
:101AD00084831582268317828091080590910905D9
:101AE0009187808780910C058287138680910D05F0
:101AF000848715860E94E201EDB7FEB73E960FB6C9
:101B0000F894FEBF0FBEEDBF8BED94E061E070E096
:101B1000A8010E94AD0864EF71E080E090E00E94AF
:101B2000EE3185E194E01F910F910895CF93DF93FB
:101B3000EC018C818F5F8C83803210F081E08C838C
:101B40008BED94E061E070E00E94BA062C818091F8
:101B50000B054AE454E02817A1F48DB79EB70E9701
:101B60000FB6F8949EBF0FBE8DBFEDB7FEB731968E
:101B7000ADB7BEB712965C934E9311978AE592E08B
:101B800011C0ADB7BEB71E970FB6F894BEBF0FBE5B
:101B9000ADBFEDB7FEB7319612965C934E93119799
:101BA00087E292E09383828380910A058483158281
:101BB0002683178280910805909109059187808777
:101BC00080910C058287138680910D058487158688
:101BD0000E94E2018DB79EB70E960FB6F8949EBF95
:101BE0000FBE8DBF8BED94E061E070E04AE454E0FD
:101BF0000E94AD08DF91CF9108950F931F93DC01F0
:101C000014962C9120930A05EDB7FEB73E970FB6B8
:101C1000F894FEBF0FBEEDBF31960AE414E0ADB7F5
:101C2000BEB712961C930E93119780E492E09383B3
:101C300082832483158280910B058683178280918D
:101C40000805909109059187808780910C0582870E
:101C5000138680910D05848715860E94E201EDB7F9
:101C6000FEB73E960FB6F894FEBF0FBEEDBF8BEDEC
:101C700094E061E070E0A8010E94AD0864EF71E0BB
:101C800080E090E00E94EE3180E194E01F910F919E
:101C90000895CF93DF93EC018C818F5F8C838D301F
:101CA00010F081E08C838BED94E061E070E00E94A5
:101CB000BA062C8180910A054AE454E02817A1F461
:101CC0008DB79EB70E970FB6F8949EBF0FBE8DBF0F
:101CD000EDB7FEB73196ADB7BEB712965C934E9393
:101CE000119780E492E011C0ADB7BEB71E970FB652
:101CF000F894BEBF0FBEADBFEDB7FEB731961296DA
:101D00005C934E93119787E292E0938382832483BE
:101D1000158280910B05868317828091080590912A
:101D200009059187808780910C05828713868091B1
:101D30000D05848715860E94E2018DB79EB70E9629
:101D40000FB6F8949EBF0FBE8DBF8BED94E061E09F
:101D500070E04AE454E00E94AD08DF91CF9108950D
:101D60000F931F93CF93DF93EC011C828091A60405
:101D700080FD04C08CE092E041E003C083E192E08A
:101D800042E098878F831D821E8202C09F5F9E83E0
:101D9000AF81B8859E81FD01E90FF11D8081882307
:101DA000A9F7292F21502E83A20FB11D8C918D836D
:101DB0003091BA0490E0EF81F885E90FF11D808140
:101DC000831711F49C8303C09F5F2917A0F741304C
:101DD00019F028E031E002C02BE031E000D000D063
:101DE00000D0EDB7FEB731960AE414E0ADB7BEB748
:101DF00012961C930E9311978EE091E09383828349
:101E0000358324830E94E201EDB7FEB736960FB604
:101E1000F894FEBF0FBEEDBF8BED94E060E070E084
:101E2000A8010E94AD0800D000D000D0ADB7BEB769
:101E30001196EDB7FEB7128301838DE191E0139601
:101E40009C938E9312978C81EF81F885E80FF11D9A
:101E5000808114968C93149715961C920E94E2012F
:101E60008DB79EB706960FB6F8949EBF0FBE8DBF76
:101E70008BED94E061E070E0A8010E94AD08DF9175
:101E8000CF911F910F910895AF92BF92CF92EF9291
:101E90000F931F93DF93CF9300D000D000D0CDB726
:101EA000DEB7DC0114962C9120930D05EDB7FEB73B
:101EB0003E970FB6F894FEBF0FBEEDBF31960AE411
:101EC00014E0ADB7BEB712961C930E93119788EA33
:101ED00092E09383828380910A05848315828091A6
:101EE0000B058683178280910805909109059187DB
:101EF000808780910C0582871386248715860E942F
:101F0000E201EDB7FEB73E960FB6F894FEBF0FBEE6
:101F1000EDBF8BED94E061E070E0A8010E94AD0898
:101F200060910805709109055E010894A11CB11C1F
:101F3000C50140910A0520910B0500910C05E09028
:101F40000D05CC240E941D2AC5010E94EF2A64EFD2
:101F500071E080E090E00E94EE3184ED93E02696FF
:101F60000FB6F894DEBF0FBECDBFCF91DF911F91AA
:101F70000F91EF90CF90BF90AF900895CF93DF93E4
:101F8000EC018C818F5F8C839E81981708F41C82F2
:101F90008BED94E061E070E00E94BA068BED94E076
:101FA00060E041E00E944D2F8C81EF81F885E80FC1
:101FB000F11D9091BA048081981731F48BED94E073
:101FC00060E071E00E94C4058C81EF81F885E80F24
:101FD000F11D60818091E404882339F08BED94E059
:101FE00070E04AE050E00E94CB358BED94E062E275
:101FF00071E00E94C405DF91CF910895FC019481A6
:102000008581981750F4E92FF0E0EE0FFF1FE8529A
:10201000FE4F0190F081E02D06C08BED94E00E9410
:10202000FF2FE0E0F0E0CF010895CF93DF93EC01C4
:102030008BED94E00E94D92F80FF52C031E00AC09E
:1020400089819A81AB81BC810097A105B10509F412
:10205000188230E02881222361F0213009F045C048
:1020600089819A81AB81BC810097A105B10509F4F2
:102070003CC0332381F189819A81AB81BC81009777
:10208000A105B10541F4222331F40E94E0316983B6
:102090007A838B839C830E94E0319B01AC01898110
:1020A0009A81AB81BC81281B390B4A0B5B0B888161
:1020B000882339F42436310541055105B4F081E017
:1020C00008C0813091F4245F3140404050406CF0B2
:1020D00082E088830AC019821A821B821C8205C092
:1020E0008881823009F0B5CFABCFDF91CF910895D1
:1020F00081E160E00E94AE3281E161E00E94D43271
:1021000008952F923F924F925F926F927F928F929B
:102110009F92AF92BF92CF92DF92EF92FF920F9376
:102120001F93DF93CF93CDB7DEB72C970FB6F894FC
:10213000DEBF0FBECDBF0E94E03169837A838B83FF
:102140009C832224332421011C861B861F8218862F
:1021500019861A86EE24EA94FE2C87011E821D82BF
:1021600095C080E00E948C323C01882477FC8094EA
:10217000982C2FEFE2162FEFF2062FEF02072FEF2A
:10218000120781F190E031E0E31632E0F30630E02F
:10219000030730E013070CF091E080E041E06416A3
:1021A00042E0740640E0840640E094060CF081E0D2
:1021B0009817C1F0D601C5012F81388549855A8508
:1021C000821B930BA40BB50B0697A105B10550F02C
:1021D0004B855C854F5F5F4F5C874B87AF82B886CE
:1021E000C986DA868B859C858130910508F44CC0C0
:1021F0008330910520F0039709F046C014C0A40174
:1022000093012050324040405040CA01B9010E9421
:10221000C336260E371E481E591EED81FE813196AB
:10222000FE83ED8331C08D819E819C0140E050E0B2
:10223000C201B1010E94153779018A0121E0A22E65
:10224000B12CC12CD12C05C00894A11CB11CC11CFF
:10225000D11CC601B501A60195010E94C336E61640
:10226000F7060807190780F70894A108B108C10804
:10227000D108C601B50127ED30E040E050E00E94F2
:10228000C3369B01AC0119C0840173010E94E03187
:102290005B016C01DC01CB0129813A814B815C81BE
:1022A000821B930BA40BB50B8397A105B10508F412
:1022B00058CF20E030E040E050E0B901CA012C9650
:1022C0000FB6F894DEBF0FBECDBFCF91DF911F9147
:1022D0000F91FF90EF90DF90CF90BF90AF909F90C5
:1022E0008F907F906F905F904F903F902F900895C8
:1022F000AF92BF92CF92DF92EF92FF920F931F9314
:10230000CF93DF936B015A013FEFE32E33E0F32EBF
:1023100000E010E0C0E0D0E081E00E948C320817BD
:10232000190714F48C0104C08E159F050CF47C0170
:102330002196C436D10581F7F601F182E082F501DC
:1023400011830083DF91CF911F910F91FF90EF9048
:10235000DF90CF90BF90AF900895CF93DF93EC01C3
:102360001A82198282E00E942C33892B19F081E0B5
:10237000888301C01882DF91CF9108950F931F9336
:102380008C0188E060E00E94D43287E060E00E9427
:10239000D43289E060E00E94D432F801868D8F7BD0
:1023A000868F0E94C92D035C1F4FF80160837183E3
:1023B000828393830D5310400E94E031F80165AB96
:1023C00076AB87AB90AF1F910F91089580918E04EB
:1023D000882321F081E080938D0408958091A804E2
:1023E00080688093A8048AE894E00E94BE1110924D
:1023F0008B0010928A0082E090E090938B0480938F
:102400008A0481E080938C0408950F931F938C01BC
:1024100088E061E00E94D43287E061E00E94D4321B
:1024200089E061E00E94D432F801868D8064868F55
:102430000E94C92DF80161AF72AF83AF94AF0E94C3
:10244000E031F80161AB72AB83AB94AB1F910F919C
:102450000895AF92BF92CF92DF92EF92FF920F93C7
:102460001F93DF93CF9300D000D0CDB7DEB77C01B0
:102470000E94E0315B016C01F70111A51F3F39F4A7
:1024800065E070E080E090E00E94EE319BC21E3F6C
:10249000B9F5F701868D86FF95C285A996A9A7A9EA
:1024A000B0ADA816B906CA06DB0608F48BC2C70190
:1024B000BE016F5F7F4FAE014D5F5F4F24E630E09E
:1024C0000E9478112B813C81F70181A192A12817EC
:1024D000390790F485A996A9A7A9B0ADA81AB90A99
:1024E000CA0ADB0AF8EBAF16FBE0BF06F0E0CF0646
:1024F000F0E0DF0608F466C2C7010E94BE1162C2A6
:1025000083E00E942C336C0184E00E942C335C0138
:10251000F701868D86FF36C0848D83FD99C00E94A9
:10252000E031F70121A932A943A954A9621B730B19
:10253000840B950B695E73408040904008F488C01E
:1025400021E0C216D10409F083C031E0A316B10422
:1025500009F07EC087E0F70181A7C7010E94BE1184
:10256000F70186898F3F11F08F5F868B0E94E031E3
:1025700060567444824F9F4FF70166877787808B40
:10258000918B06C2173019F5F70182899389A489C6
:10259000B5890397A105B10508F0F7C10E94E031A4
:1025A000F7012685378540895189621773078407AB
:1025B000950708F4EAC182899389A489B5890196AF
:1025C000A11DB11D828B938BA48BB58B41C0F701EC
:1025D000848D84FD3DC0CD2811F0AB28B9F51830AD
:1025E00071F0F701838D882351F40E94E031F701E7
:1025F000678B708F818F928F838D8F5F838F0E9407
:10260000E031F70125A936A947A950AD621B730B2C
:10261000840B950B695E73408040904080F00E946F
:10262000E031F7012789308D418D528D621B730B8C
:10263000840B950B695E73408040904010F4183015
:1026400039F488E0F70181A708E0A3C1F701138EF0
:1026500000E091E0F7018281882309F441C086E01F
:1026600081A781859285A385B4850397A105B105CE
:1026700008F091C1163059F085858F3F11F08F5FBA
:102680008587F70111861286138614861DC00E9465
:10269000E031F70125813681478150856217730744
:1026A0008407950708F477C1C70102960E94AD110F
:1026B000F70181859285A385B4850196A11DB11D81
:1026C00081879287A387B4870E94E0316056744463
:1026D000824F9F4FF70165837683878390875BC125
:1026E000992309F46FC0812F8650833058F480E419
:1026F0009FE190938B0080938A00F70111821082F2
:1027000011A610E0C701BE016F5F7F4FAE014D5FA4
:102710005F4F24E630E00E947811F701448D41FDBF
:102720003CC180819181019709F037C129813A81AB
:1027300087A190A52817390708F42FC105E017C015
:10274000F70181A192A12817390710F002E00FC00C
:10275000F70183A194A12817390740F442FF28C14B
:1027600085A196A18217930708F022C103E0011703
:1027700049F1F70183A5081741F00E94E031F70104
:1027800064A775A786A797A71DC00E94E031F7012F
:10279000A4A4B5A4C6A4D7A4013029F02AEF30E040
:1027A00040E050E004C029E130E040E050E06A1928
:1027B0007B098C099D09621773078407950710F040
:1027C000F70101A7F70103A781A5811709F4A1C0AB
:1027D000813009F43DC0823009F44BC08330B1F53B
:1027E000F70180A9282F30E0C90106978E9760F481
:1027F000B901882777FD8095982F25E830E040E0E3
:1028000050E00E94C33615C0C901C4974D97D0F45B
:10281000C901AA2797FDA095BA2F80569F4FAF4FA9
:10282000BF4F55E0880F991FAA1FBB1F5A95D1F7BC
:10283000BC0170938B0060938A0081E090E0F70107
:1028400091838083C7010E94051263C0843069F4BC
:10285000C7010E94BE1180E49FE190938B0080939A
:102860008A00F7011182108254C08630C9F1853088
:1028700099F5C7010E94BE11F70180A9282F30E009
:10288000C90106978E9760F4B901882777FD809576
:10289000982F25E830E040E050E00E94C33615C094
:1028A000C901C4974D97A8F5C901AA2797FDA0951E
:1028B000BA2F80569F4FAF4FBF4F45E0880F991FEB
:1028C000AA1FBB1F4A95D1F7BC0170938B00609380
:1028D0008A0081E090E00DC0873011F0883069F403
:1028E000C7010E94BE1110928B0010928A0082E0F4
:1028F00090E0F701918380830CC080E49FE1909386
:102900008B0080938A00F70111821082C7010E9418
:10291000BE11F70112A781A5833009F053C0C7018A
:102920000E9481102DE430E0E20EF31EF701608377
:1029300071838283938323EB3FEFE20EF31E8701C3
:102940000F5B1F4FF80180819181A281B38125E443
:1029500030E0E20EF31EF70180839183A283B383FC
:102960002BEB3FEFE20EF31E0E94C92DF70121ADC4
:1029700032AD43AD54AD621B730B840B950BF80164
:1029800060837183828393831DC087E0F70181A7F1
:1029900007E090E05FCE06E015CF2B813C81F70188
:1029A000878D90A12817390708F4CACE01E0DFCE41
:1029B000F70185A196A18217930710F000E0D7CE0A
:1029C00004E0D5CE0F900F900F900F90CF91DF9134
:1029D0001F910F91FF90EF90DF90CF90BF90AF903D
:1029E0000895FC01858580FF02C0611167E0CF0179
:1029F0000E949E2F0895DC015F96E0EFF1E08AE0EF
:102A000001900D928150E1F708950F931F93CF939A
:102A1000DF938C0181E0F8018283118286E061E01E
:102A20000E94AE32C0E0D0E086E061E00E94D43285
:102A300080E49FE10E94473286E060E00E94D43249
:102A400080E49FE10E944732F8018181882321F4CC
:102A50002196C233D10541F782E00E942C330197C1
:102A6000D9F3F8011282DF91CF911F910F91089550
:102A7000AF92BF92CF92DF92EF92FF920F931F938C
:102A80007C016B015A018C01025F1F4FC801B90123
:102A90000E94CE01C701B601A50198010E94B005B0
:102AA0001F910F91FF90EF90DF90CF90BF90AF906C
:102AB0000895CF92DF92EF92FF920F931F937C01C4
:102AC0006B018C01025F1F4FC801BA010E94CE0149
:102AD000C701B601A8010E94AD081F910F91FF9098
:102AE000EF90DF90CF900895EF92FF920F931F9396
:102AF0008C016BEDE62E64E0F62EC70160E070E01D
:102B000042E551E00E94591520910D05D801149617
:102B10002C93EDB7FEB738970FB6F894FEBF0FBEF3
:102B2000EDBF31960AE414E0ADB7BEB712961C9320
:102B30000E9311978091CA029091CB029383828366
:102B400080910C0584831582268317820E94E201FE
:102B5000EDB7FEB738960FB6F894FEBF0FBEEDBFC7
:102B6000C70161E070E0A8010E94AD081F910F91BC
:102B7000FF90EF900895EF92FF920F931F938C01B7
:102B80007BEDE72E74E0F72EC70160E070E046E3CE
:102B900051E00E94591520910D05D80114962C93EF
:102BA000EDB7FEB738970FB6F894FEBF0FBEEDBF76
:102BB00031960AE414E0ADB7BEB712961C930E939B
:102BC00011978091CA029091CB0293838283809166
:102BD0000C0584831582268317820E94E201EDB7DB
:102BE000FEB738960FB6F894FEBF0FBEEDBFC70113
:102BF00061E070E0A8010E94AD081F910F91FF9065
:102C0000EF900895EF92FF920F931F938C01EBEDDD
:102C1000EE2EE4E0FE2EC70160E070E044E451E0F7
:102C20000E9459152091030520930C05309104054D
:102C300030930D05D80114962C93EDB7FEB7389755
:102C40000FB6F894FEBF0FBEEDBF31960AE414E054
:102C5000ADB7BEB712961C930E9311978091C80220
:102C60009091C902938382832483158236831782CD
:102C70000E94E201EDB7FEB738960FB6F894FEBF9A
:102C80000FBEEDBFC70161E070E0A8010E94AD0872
:102C90001F910F91FF90EF900895EF92FF920F9385
:102CA0001F938C01FBEDEF2EF4E0FF2EC70160E0D7
:102CB00070E047E251E00E945915209101052093F0
:102CC0000C053091020530930D05D80114962C9314
:102CD000EDB7FEB738970FB6F894FEBF0FBEEDBF45
:102CE00031960AE414E0ADB7BEB712961C930E936A
:102CF00011978091C8029091C902938382832483A3
:102D00001582368317820E94E201EDB7FEB738962E
:102D10000FB6F894FEBF0FBEEDBFC70161E070E0D3
:102D2000A8010E94AD081F910F91FF90EF900895A8
:102D3000CF93DF93EC0190E080910005882309F4A4
:102D400091E09C838BED94E060E070E04BE151E01A
:102D50000E9459158BED94E061E070E00E94BA0684
:102D60008BED94E060E070E041E050E020E031E085
:102D70000E94B005EC81F0E0EE0FFF1FED5DFD4F0E
:102D8000608171818BED94E00E94C405DF91CF9149
:102D900008950F931F93FC0114820BED14E0C801FA
:102DA00060E070E04BE151E00E9459154091C20291
:102DB0005091C302C80161E070E00E94AD081F910C
:102DC0000F910895EF92FF920F931F938C01BBED2B
:102DD000EB2EB4E0FB2EC70160E070E040E151E073
:102DE0000E94591520910D05D80114962C93EDB72A
:102DF000FEB73E970FB6F894FEBF0FBEEDBF3196FB
:102E00000AE414E0ADB7BEB712961C930E93119767
:102E100088EA92E09383828380910A0584831582F5
:102E200080910B0586831782809108059091090592
:102E30009187808780910C05828713862487158669
:102E40000E94E201EDB7FEB73E960FB6F894FEBFC2
:102E50000FBEEDBFC70161E070E0A8010E94AD08A0
:102E60001F910F91FF90EF900895EF92FF920F93B3
:102E70001F938C018BEDE82E84E0F82EC70160E0F3
:102E800070E047E051E00E94591520910C05D801EF
:102E900014962C93EDB7FEB73E970FB6F894FEBF8D
:102EA0000FBEEDBF31960AE414E0ADB7BEB712967F
:102EB0001C930E9311978EE892E093838283809106
:102EC0000A058483158280910B0586831782809181
:102ED0000805909109059187808722871386809144
:102EE0000D05848715860E94E201EDB7FEB73E9678
:102EF0000FB6F894FEBF0FBEEDBFC70161E070E0F2
:102F0000A8010E94AD081F910F91FF90EF900895C6
:102F10000F931F93CF93DF93EC018BED94E060E070
:102F200070E04EEF50E00E945915809108058C83A7
:102F30008C50893040F08CE08C838CE090E0909352
:102F40000905809308058DB79EB70E970FB6F894C4
:102F50009EBF0FBE8DBFEDB7FEB731960AE414E0F9
:102F6000ADB7BEB712961C930E93119784E792E00B
:102F70009383828380910A058483158280910B0557
:102F8000868317828C818087118680910C058287C9
:102F9000138680910D05848715860E94E2018DB706
:102FA0009EB70E960FB6F8949EBF0FBE8DBF8BEDE9
:102FB00094E061E070E0A8010E94AD08DF91CF913C
:102FC0001F910F910895EF92FF920F931F938C0121
:102FD0009BEDE92E94E0F92EC70160E070E046EF2A
:102FE00050E00E94591520910B05D80114962C939E
:102FF000EDB7FEB73E970FB6F894FEBF0FBEEDBF1C
:1030000031960AE414E0ADB7BEB712961C930E9346
:1030100011978AE592E09383828380910A058483E5
:103020001582268317828091080590910905918762
:10303000808780910C058287138680910D05848797
:1030400015860E94E201EDB7FEB73E960FB6F894E2
:10305000FEBF0FBEEDBFC70161E070E0A8010E9496
:10306000AD081F910F91FF90EF9008950F931F935C
:10307000DF93CF9300D000D000D0CDB7DEB78C0166
:103080008BED94E060E070E04CEE50E00E9459154A
:103090000E94332A29833A834B835C836D837E832A
:1030A000AAEFB4E0FE01319686E001900D928150C6
:1030B000E1F73091FB0430930A057091FC047093A2
:1030C0000B052091FA0460E0209308056093090540
:1030D0004091FD0440930C055091FE0450930D0562
:1030E000D80114963C93EDB7FEB73E970FB6F8940F
:1030F000FEBF0FBEEDBF31960AE414E0ADB7BEB718
:1031000012961C930E93119780E492E0938382832E
:1031100034831582768317822087618742871386DE
:10312000548715860E94E201EDB7FEB73E960FB6B2
:10313000F894FEBF0FBEEDBF8BED94E061E070E050
:10314000A8010E94AD0826960FB6F894DEBF0FBE08
:10315000CDBFCF91DF911F910F9108950F931F93D2
:10316000FC0114820BED14E0C80160E070E04DE753
:1031700052E00E9459154091230250912402C80147
:1031800061E070E00E94AD081F910F9108950F93C8
:103190001F93FC0114820BED14E0C80160E070E0A5
:1031A00040E752E00E9459154091230250912402B9
:1031B000C80161E070E00E94AD081F910F91089571
:1031C000EF92FF920F931F938C015BEDE52E54E07D
:1031D000F52EFC0142815381C70160E070E00E943E
:1031E00059152091A6043091A70443E03695279500
:1031F0004A95E1F72170F801248300D000D000D077
:10320000ADB7BEB711960AE414E0EDB7FEB712836E
:10321000018384E291E013969C938E931297E22FA0
:10322000F0E0EE0FFF1FED5DFD4F8081918115965F
:103230009C938E9314970E94E2018DB79EB70696D9
:103240000FB6F8949EBF0FBE8DBFC70161E070E05E
:10325000A8010E94AD081F910F91FF90EF90089573
:10326000EF92FF920F931F938C01EBEDEE2EE4E0B3
:10327000FE2EFC0142815381C70160E070E00E9494
:1032800059152091A6043091A704369527953695B7
:1032900027952170F801248300D000D000D0ADB76D
:1032A000BEB711960AE414E0EDB7FEB712830183AE
:1032B00084E291E013969C938E931297E22FF0E0B4
:1032C000EE0FFF1FED5DFD4F8081918115969C9360
:1032D0008E9314970E94E2018DB79EB706960FB6A3
:1032E000F8949EBF0FBE8DBFC70161E070E0A801DA
:1032F0000E94AD081F910F91FF90EF900895EF92FB
:10330000FF920F931F93CF93DF938C019BEDE92ED8
:1033100094E0F92ED80112964D915C911397C70154
:1033200060E070E00E945915E091A704E695E17015
:10333000E801EC8300D000D000D0ADB7BEB7119645
:103340000AE414E0CDB7DEB71A83098384E291E082
:1033500013969C938E931297F0E0EE0FFF1FED5D96
:10336000FD4F8081918115969C938E9314970E94B6
:10337000E201EDB7FEB736960FB6F894FEBF0FBE6A
:10338000EDBFC70161E070E0A8010E94AD08DF91C8
:10339000CF911F910F91FF90EF900895EF92FF92C0
:1033A0000F931F938C015BEDE52E54E0F52EFC018D
:1033B00042815381C70160E070E00E94591520915D
:1033C000A6043091A704369527952170F80124832F
:1033D00000D000D000D0ADB7BEB711960AE414E01B
:1033E000EDB7FEB71283018384E291E013969C93BC
:1033F0008E931297E22FF0E0EE0FFF1FED5DFD4F71
:103400008081918115969C938E9314970E94E2017E
:103410008DB79EB706960FB6F8949EBF0FBE8DBFB0
:10342000C70161E070E0A8010E94AD081F910F91F3
:10343000FF90EF900895CF93DF93EC014A815B8179
:103440008BED94E060E070E00E9459158091A60435
:1034500085FD02C01C8206C080FD02C081E001C063
:1034600082E08C838BED94E061E070E00E94BA060C
:103470008BED94E060E070E041E050E020E031E06E
:103480000E94B005EC81F0E0EE0FFF1FEE5FFD4FF4
:10349000608171818BED94E00E94C405DF91CF9132
:1034A00008950F931F93CF93DF93EC014A815B81C3
:1034B0008BED94E060E070E00E945915E0E08091AF
:1034C0004904813009F0E1E0EC8300D000D000D065
:1034D000ADB7BEB711960AE414E0CDB7DEB71A83D4
:1034E000098384E291E013969C938E931297F0E007
:1034F000EE0FFF1FE85FFD4F8081918115969C9331
:103500008E9314970E94E2018DB79EB706960FB670
:10351000F8949EBF0FBE8DBF8BED94E061E070E02C
:10352000A8010E94AD08DF91CF911F910F910895DE
:10353000DC0114968C9114978F5F14968C931497DA
:1035400015969C911597981718F414961C92149739
:103550001496EC91149715968C91E81718F04DED90
:1035600050E00AC0F0E0EE0FFF1FE852FE4F01905E
:10357000F081E02D428153818BED94E061E070E0B9
:103580000E94591508950F931F93FC0114820BEDAF
:1035900014E042815381C80160E070E00E94591537
:1035A000E091D801F091D90142815381C80161E0D5
:1035B00070E00E9459151F910F910895EF92FF92AC
:1035C0000F931F938C019B017A0160E070E0A901C9
:1035D0000E945915C80161E070E0A7010E945915C9
:1035E0001F910F91FF90EF9008956F927F928F92AD
:1035F0009F92AF92BF92CF92DF92EF92FF920F9382
:103600001F93CF93DF936C0180E49FE190938B0035
:1036100080938A00F6011182108285E061E00E94A9
:10362000D4328BED94E06FE571E048E651E00E9402
:10363000DE1AF601848D85FD05C166E970E080E043
:1036400090E00E94EE3181E00E948C3210928B005B
:1036500010928A0022E030E0F60131832083855801
:1036600093400CF4EFC083E00E942C338C0184E083
:103670000E942C337C0188E061E00E94D43289E012
:1036800061E00E94D4326AEF70E080E090E00E9436
:10369000EE3183E00E942C333C0184E00E942C3305
:1036A0004C0188E060E00E94D43289E060E00E9432
:1036B000D4326AEF70E080E090E00E94EE3187E063
:1036C00061E00E94D4326AEF70E080E090E00E94F6
:1036D000EE3183E00E942C335C0184E00E942C33A5
:1036E000EC0187E060E00E94D4326AEF70E080E095
:1036F00090E00E94EE31000F111F0E0D1F1D0330D0
:10370000110509F05EC09301220F331F280D391DEA
:10371000A501440F551F4C0F5D1F2330310534F4B4
:10372000213031058CF5232B31F0D6C02330310503
:1037300009F0D2C011C04330510519F4C2E0D0E005
:1037400002C0C0E0D0E0F601848D84FD3FC043306C
:10375000510509F0BEC03AC0F601848D83FD06C054
:103760004330510519F4C3E0D0E008C041155105BC
:1037700019F4C2E0D0E002C0C0E0D0E041505040B7
:103780004230510518F525C0F601848D84FD06C030
:103790004330510549F0C4E0D0E008C04330510542
:1037A00019F0C0E0D0E002C0C1E0D0E02130310526
:1037B00021F44230510551F486C04130510531F4B5
:1037C00085C0F601848D84FF84C086C0C130D105D8
:1037D00059F48BED94E062E771E04EE751E00E940E
:1037E000DE1AC1E0D0E00BC0C230D10541F48BED50
:1037F00094E062E771E04CE851E00E94DE1ACE01ED
:103800000397029728F48BED94E061E00E94F11495
:10381000C330D10529F48BED94E06AEA71E007C06A
:10382000C430D10541F48BED94E06AE971E04BEBD3
:1038300051E00E94DE1A64EF71E080E090E00E94A7
:10384000EE3102C0C0E0D0E0F601848D958D91FD8F
:103850001DC0C60102960E940515F60183818823CA
:10386000A9F48BED94E061E00E94F1148BED94E0FB
:103870006EE670E04BEB51E00E94DE1A64EF71E0FF
:1038800080E090E00E94EE31C5E0D0E085E060E0AD
:103890000E94D43280E49FE190938B0080938A0051
:1038A000F601118210828C2FDF91CF911F910F9121
:1038B000FF90EF90DF90CF90BF90AF909F908F9050
:1038C0007F906F900895C2E0D0E080CFC2E0D0E05A
:1038D0008BCFC4E0D0E088CFC0E0D0E085CF8BEDC7
:1038E00094E061E070E04AEA52E00E9459152EE04F
:1038F00088E190E00FB6F894A895809360000FBE21
:103900002093600008950F931F938C018BED94E03A
:1039100060E070E041E050E020E031E00E94B0055E
:10392000D8011496EC91F0E0EE0FFF1FED5DFD4F16
:10393000608171818BED94E00E94C40564EF71E0B9
:1039400080E090E00E94EE31F8018481882319F430
:103950000E946F1CFFCF80E090E01F910F910895AF
:103960000F931F93CF93DF93EC018985882351F048
:103970008E01025F1F4FC8010E94CE01CE01B80127
:103980000E94F334DF91CF911F910F9108956F92B0
:103990007F928F929F92AF92BF92CF92DF92EF92DF
:1039A000FF920F931F93DF93CF93CDB7DEB72C9782
:1039B0000FB6F894DEBF0FBECDBF982E892E162FFE
:1039C0000091B3048091A60480FD03C0EE24E3942B
:1039D00002C042E0E42E0E94332A2F8338874987B1
:1039E0005A876B877C87DE011196FE01379686E049
:1039F00001900D928150E1F79091B3048091B4044D
:103A0000981709F48EC32DB73EB7285030400FB633
:103A1000F8943EBF0FBE2DBFEDB7FEB731963AE426
:103A2000C32E34E0D32EADB7BEB71296DC92CE9241
:103A300011978AEF91E093838283E48215828091CB
:103A4000BA04868317820E94E201EDB7FEB738966A
:103A50000FB6F894FEBF0FBEEDBF053009F4BFC02E
:103A6000063080F4023009F451C0033020F40130F4
:103A700009F053C11AC0033009F47BC0043009F0C7
:103A80004CC199C0083009F4E6C0093038F406305A
:103A900009F4B9C0073009F040C1C9C00E3F09F4AC
:103AA00015C10F3F09F039C1ECC08DE061E00E9403
:103AB000D43285E060E00E94D432892D982D62E0F6
:103AC0000E94F114892D982D0E94FF2F892D982D89
:103AD00060E040E00E944D2F80E095E00E94870466
:103AE000892D982D61E672E00E94B01C892D982DD9
:103AF0006AE070E040E050E096010E94B005892D38
:103B0000982D61E070E048E352E030C08DE061E064
:103B10000E94D43285E061E00E94D432892D982D34
:103B200063E00E94F114892D982D0E94FF2F892DAA
:103B3000982D60E040E00E944D2F80E095E00E94CB
:103B40008704892D982D61E672E00E94B01C892DB2
:103B5000982D6AE070E040E050E096010E94B005C8
:103B6000892D982D61E070E04BE252E00E945915DA
:103B7000CEC28DE060E00E94D43285E060E00E9419
:103B8000D432892D982D66E00E94F114892D982D4C
:103B90000E94FF2F892D982D60E040E00E944D2F5C
:103BA00080E095E00E948704892D982D67E672E0F9
:103BB0000E94B01CBDC08DE060E00E94D43285E060
:103BC00061E00E94D432892D982D61E00E94F114A9
:103BD000892D982D67EC71E042ED51E04FC08DE0EA
:103BE00060E00E94D43285E061E00E94D432892DE9
:103BF000982D61E00E94F114892D982D67EC71E0F9
:103C000040EE51E03BC08DE060E00E94D43285E0A0
:103C100061E00E94D432892D982D61E00E94F11458
:103C2000892D982D67EC71E041EF51E027C08DE0C0
:103C300060E00E94D43285E061E00E94D432892D98
:103C4000982D61E00E94F114892D982D67EC71E0A8
:103C50004CEF51E013C08DE060E00E94D43285E06B
:103C600061E00E94D432892D982D61E00E94F11408
:103C7000892D982D67EC71E046E052E00E94DE1A33
:103C800046C28DE060E00E94D43285E061E00E948F
:103C9000D432892D982D65E00E94F114892D982D3C
:103CA0000E94FF2F892D982D60E040E00E944D2F4B
:103CB000892D982D62E172E00E94B01C892D982D0B
:103CC0006AE070E040E050E096011FC28DE061E0E4
:103CD0000E94D43285E061E00E94D432892D982D73
:103CE00065E00E94F114892D982D0E94FF2F892DE7
:103CF000982D60E040E00E944D2F892D982D62E2C2
:103D000072E00E94B01C892D982D6AE070E040E0BE
:103D100050E096010E94B005E5C08DE060E00E9491
:103D2000D43285E061E00E94D432033009F0D7C07C
:103D3000A090D704B090D804C090D904D090DA04F1
:103D40008AE494E0F8EEAF16F3E0BF06F0E0CF06A9
:103D5000F0E0DF06E8F400D000D000D0EDB7FEB709
:103D60003196ADB7BEB712969C938E93119788E2A9
:103D700091E093838283B582A4820E94E201EDB731
:103D8000FEB736960FB6F894FEBF0FBEEDBF45C026
:103D90002DB73EB7285030400FB6F8943EBF0FBE47
:103DA0002DBF0DB71EB70F5F1F4FADB7BEB7129631
:103DB0009C938E9311978EE291E0F8019383828316
:103DC000C601B50128EE33E040E050E00E9415370F
:103DD000D80115963C932E931497C601B50128EE91
:103DE00033E040E050E00E9415376E5C7F4F8F4F0C
:103DF0009F4F24E630E040E050E00E941537F80184
:103E0000378326830E94E2012DB73EB7285F3F4FDC
:103E10000FB6F8943EBF0FBE2DBF2AE4622E24E0F9
:103E2000722E892D982D6AE070E040E050E09301F9
:103E30000E94B005A090CB04B090CC04C090CD04FB
:103E4000D090CE048091CF049091D004A091D10461
:103E5000B091D204A816B906CA06DB0609F457C108
:103E6000C601B5010E94962D7C01C601B5010E94D4
:103E7000902D8C01C601B5010E948A2DADB7BEB749
:103E80001E970FB6F894BEBF0FBEADBFEDB7FEB71D
:103E9000319612967C926E92119726E331E033832D
:103EA0002283F582E48217830683918780878C8141
:103EB000828713868D81848715860E94E201EDB783
:103EC000FEB73E960FB6F894FEBF0FBEEDBF892D2C
:103ED000982D61E070E0A3010E94AD0818C10E3F6B
:103EE00009F015C18091470490914804892B09F08D
:103EF0000EC1CE0101966AEF74E046E050E00E94E8
:103F0000D501009709F403C1892D982D60E040E0A8
:103F10000E944D2F80E095E00E948704809100056B
:103F2000882319F462E272E002C06AE172E0892D2E
:103F3000982D0E94B01C2DB73EB72A5030400FB6C6
:103F4000F8943EBF0FBE2DBFEDB7FEB731960AE421
:103F500014E0ADB7BEB712961C930E93119781E58E
:103F600091E0938382838C81848315828D81868303
:103F700017828E81808711860E94E201EDB7FEB71D
:103F80003A960FB6F894FEBF0FBEEDBF892D982D5F
:103F900060E070E041E050E098010E94B00580913F
:103FA0000005882309F484C0892D982D69E040E03C
:103FB0000E944D2F892D982D62E00E94052F892D9A
:103FC000982D60E00E94052F2DB73EB72850304055
:103FD0000FB6F8943EBF0FBE2DBFEDB7FEB73196BA
:103FE000ADB7BEB712961C930E9311978091EE0158
:103FF0009091EF01938382838091010584831582E0
:1040000080910205868317820E94E201EDB7FEB718
:1040100038960FB6F894FEBF0FBEEDBF892D982DD0
:104020006BE070E040E050E098010E94B005892DFF
:10403000982D69E041E00E944D2F892D982D61E077
:104040000E94052F892D982D60E00E94052F2DB725
:104050003EB7285030400FB6F8943EBF0FBE2DBF7C
:10406000EDB7FEB73196ADB7BEB712961C930E935F
:1040700011978091EE019091EF019383828380915B
:1040800003058483158280910405868317820E942C
:10409000E201EDB7FEB738960FB6F894FEBF0FBE3B
:1040A000EDBF892D982D6BE070E041E050E02CC011
:1040B0002DB73EB7285030400FB6F8943EBF0FBE24
:1040C0002DBFEDB7FEB73196ADB7BEB712961C93B4
:1040D0000E9311978AEF91E093838283E482158295
:1040E0008091BA04868317820E94E201EDB7FEB781
:1040F00038960FB6F894FEBF0FBEEDBF892D982DF0
:104100006AE070E040E050E098010E94B005AAEF3C
:10411000B4E0FE01319686E001900D928150E1F706
:1041200004C0112309F06FCC00CE2C960FB6F89482
:10413000DEBF0FBECDBFCF91DF911F910F91FF90DA
:10414000EF90DF90CF90BF90AF909F908F907F9037
:104150006F900895FC0110828EE095E064E070E0BD
:1041600040E00E94EF268AE894E061E00E94BC04EF
:104170000E9412058BED94E061E00E94C71C089537
:10418000FC018585613011F48E7F01C081608587D7
:10419000CF01642F0E94C71C08951F93CF93DF9314
:1041A000EC01162F8BED94E00E94C0208C8D9D8D2C
:1041B000112311F4916001C09E7F9D8F8C8F0E940E
:1041C000A40480E090E0DF91CF911F910895CF93F8
:1041D000DF93EC018BED94E060E070E041E050E0B3
:1041E00020E031E00E94B005EC81F0E0EE0FFF1F0F
:1041F000E85FFD4F608171818BED94E00E94C40502
:1042000060E08C81882309F461E08AE894E040E072
:104210000E94CD2090E08C81882309F491E0909356
:1042200049048BED94E060E040E00E94C02064EF20
:1042300071E080E090E00E94EE3184ED93E0DF9148
:10424000CF910895FF920F931F93CF93DF93EC01CB
:10425000F42E8C8D80FD02C080E101C080E56630C7
:1042600030F0861748F068AB00E010E008C086E048
:1042700088AB01E010E003C088AB02E010E08C8D59
:1042800080FD02C081E001C082E060E070E081302A
:1042900011F061E070E08EE095E048A90E94EF2601
:1042A00088819981019781F588A9282F30E0C9017B
:1042B00006978E9760F4B901882777FD8095982F2F
:1042C00025E830E040E050E00E94C33615C0C90147
:1042D000C4974D97C8F4C901AA2797FDA095BA2F96
:1042E00080569F4FAF4FBF4F65E0880F991FAA1FA1
:1042F000BB1F6A95D1F7BC0170938B0060938A0055
:1043000081E090E099838883FF2029F08BED94E091
:1043100061E00E94C71CC801DF91CF911F910F91EE
:10432000FF900895CF93DF93EC018BED94E060E074
:1043300070E041E050E020E031E00E94B0058C8167
:10434000EF81F885E80FF11D60818091E4048823F6
:1043500039F08BED94E070E04AE050E00E94CB35FC
:104360008BED94E062E271E00E94C40564EF71E0BD
:1043700080E090E00E94EE318091A60480FD02C0B2
:1043800081E001C082E060E070E0813011F061E026
:1043900070E08C81EF81F885E80FF11D8EE095E0EB
:1043A00040810E94EF268C81EF81F885E80FF11D96
:1043B0008AE894E0608140E00E94222184ED93E04D
:1043C000DF91CF9108950F931F93CF93DF93EC016B
:1043D000162F042F8C8D9D8D623021F481609D8F6E
:1043E0008C8F04C08E7F9D8F8C8F11E00E94A4045F
:1043F00060E070E0113011F061E070E08EE095E077
:104400000E94E826682F81508E3F20F0113009F578
:104410006CE006C0663010F416E00BC0113029F4D1
:10442000162F613130F010E104C0162F613508F00D
:1044300010E5CE010E94FB14CE01612F40E00E94E6
:104440002221002341F08BED94E061E00E94C71C23
:1044500002C068E2E3CFDF91CF911F910F910895E1
:10446000CF93DF93EC016C81662321F48AE894E01A
:1044700061E008C08AE894E040E00E94E3218AE815
:1044800094E060E00E94C9048BED94E060E070E08D
:1044900041E050E020E031E00E94B005EC81F0E026
:1044A000EE0FFF1FEE5FFD4F608171818BED94E099
:1044B0000E94C4050E94A40464EF71E080E090E0D3
:1044C0000E94EE3184ED93E0DF91CF9108951F9328
:1044D000CF93DF93EC0189A58E3FD1F080E49FE17B
:1044E00090938B0080938A00198218821EEF19A77F
:1044F0008BED94E060E00E94C71C1AA70E94E03197
:104500006854744F8F4F9F4F6DAB7EAB8FAB98AF9E
:10451000DF91CF911F9108950F931F93DF93CF9356
:1045200000D000D000D0CDB7DEB78C01FC01878170
:10453000813009F081C00E94332A29833A834B835A
:104540005C836D837E83AAEFB4E0FE01319686E042
:1045500001900D928150E1F78091FD04F80185836F
:104560006091FE0466838081882309F463C0218101
:10457000222351F48281882339F48381882321F412
:104580008481882309F456C0F8013381231729F464
:1045900092818481981709F44DC09CE3299FA00162
:1045A0001124F8018281480F511D399F9001112477
:1045B0008481280F311D8581899FC0011124860FB8
:1045C000911D2417350750F48417950718F0281704
:1045D000390750F04817590708F103C084179507A9
:1045E000E8F082179307E8F48091B3048E3F11F549
:1045F0008091470490914804892BE1F48FEF8093D8
:10460000B4041092B30480E49FE190938B008093F4
:104610008A0010928B0410928A040CC082179307B0
:1046200048F02F5F3F4F2817390720F08AE894E0C1
:104630000E946722F801178226960FB6F894DEBF13
:104640000FBECDBFCF91DF911F910F910895FF92C3
:104650000F931F938C01FF24F394FC01F0828EE0F2
:1046600095E064E070E041E00E94EF268AE894E083
:1046700060E00E94BC040E941205F801F782C801A4
:104680000E948C228BED94E061E00E94C71C1F9178
:104690000F91FF9008950F931F938C018BED94E081
:1046A00060E070E041E050E020E031E00E94B005C1
:1046B000D8011496EC91F0E0EE0FFF1FED5DFD4F79
:1046C000608171818BED94E00E94C40564EF71E01C
:1046D00080E090E00E94EE31F8018481882329F483
:1046E00080E095E00E94272304C080E095E00E94CE
:1046F000AA2084ED93E01F910F9108950F931F93CB
:10470000CF93DF93EC01062F0E9415108881813032
:1047100079F489819A81AB81BC810097A105B105AB
:1047200009F0A6C01882AD81BE81109729F40DC092
:10473000823009F09DC023C0ED91FC911197028059
:10474000F381E02DCD01099593C0002309F090C0BD
:104750008091B3048F3F19F08E3F09F085C08FEF31
:104760008093B4041092B30480E49FE190938B0093
:1047700080938A0010928B0410928A0479C08981F8
:104780009A81AB81BC810097A105B10509F470C085
:1047900019821A821B821C82AD81BE81109709F496
:1047A0004CC0ED91FC9111970480F581E02DCD0175
:1047B0000995DC019E838D830097E1F083E0A43DA1
:1047C000B80719F414960C911497ED91FC91119778
:1047D0000190F081E02DCD010995ED81FE8183E00E
:1047E000E43DF80709F044C001500483CF010E9462
:1047F000981A3EC080910005882321F081E08093C3
:1048000007050FC08FEF8093B4041092B30480E4C7
:104810009FE190938B0080938A0010928B041092FA
:104820008A048BED94E06F8141E00E94C0208BED03
:1048300094E061E00E94C71C1BC08AE894E00E94DB
:1048400067228091E804809581708F838BED94E0DE
:1048500060E041E00E94C02004ED13E0C8010E9426
:10486000C31A1E830D8304C08AE894E00E94672265
:10487000DF91CF911F910F910895AF92BF92CF9288
:10488000DF92EF92FF920F931F93CF93DF93EC0190
:104890008EE095E062E070E00E94E826182F00E0CC
:1048A0008EE095E063E070E00E94E826E82EFF24A9
:1048B000E02AF12A2FEFE2162FEFF20641F0F0FE88
:1048C00006C08BED94E060E041E00E94C02088E0EB
:1048D00061E00E94AE3287E061E00E94AE3289E082
:1048E00061E00E94AE3283E060E00E94AE3284E07C
:1048F00060E00E94AE3283E061E00E94D43284E046
:1049000061E00E94D432CE010E94BE11109280005C
:1049100020E43FE1309387002093860081E180937B
:104920008100229A80918000806280938000309381
:104930008B0020938A00198218828FEFE8168FEF80
:10494000F80619F41D8E1C8E07C0FD8EEC8EE0FC5F
:1049500003C0DD24D39402C082E0D82E1E8E1986B7
:104960001A861B861C861D861A8A1B8A1C8A1D8A2B
:104970001E8A1B8E19A61AA607E0A02E18E0B12EDB
:10498000B9E0CB2ECE010E94F51A382F9C8D95FDF3
:1049900004C08150823008F4D32E93FD05C033301B
:1049A00019F4A9A621E001C020E08C8D84FD04C08B
:1049B000343011F4B9A621E08C8D9D8D91FD04C099
:1049C000353011F4C9A602C02223D9F00E94E0318B
:1049D0007B018C0105C082E494E061E00E947E23AB
:1049E0000E94E0316E197F09800B910B605A7B4B5E
:1049F0008D40904080F32FC0873021F2883009F439
:104A0000C1CFCE016D2D40E00E94E321CE01029680
:104A10000E94AD118C8D86FD0CC08FEF8AA719A660
:104A200080E49FE190938B0080938A001982188222
:104A300003C0CE010E9467228DE060E00E94D43264
:104A4000DF91CF911F910F91FF90EF90DF90CF906A
:104A5000BF90AF90089589A5893071F693CF8AE809
:104A600094E00E9429128BED94E060E00E94C71C44
:104A700082E494E060E00E947E2380E095E00E9462
:104A80008C220895EF92FF920F931F938C01FC01EB
:104A900015868DE061E00E94AE3285E061E00E9403
:104AA000AE328DE060E00E94D43285E060E00E948A
:104AB000D43281E0F8018487C80160E142E022E05D
:104AC0000E940C30C80167E00E949E2FC80167E079
:104AD0000E94F1149AE4E92E94E0F92EC70169E4EA
:104AE00072E048E050E00E94C501C80160E0A70103
:104AF0000E94122FC70161E572E048E050E00E9479
:104B0000C501C80161E0A7010E94122FC70169E534
:104B100072E048E050E00E94C501C80162E0A701D0
:104B20000E94122FC8010E94FF2FC80160E070E0B0
:104B300049E952E00E945915C80160E070E041E087
:104B400050E020E932E00E943815C80168E670E0C4
:104B50000E94B01CC8016CE872E00E94B01C60E2C8
:104B600073E080E090E00E94EE311F910F91FF9082
:104B7000EF90089585E595E00E945E270E94312A16
:104B800080E095E00E9428058BED94E00E9442258C
:104B90008AE894E00E943D24089588E10FB6F894D5
:104BA00080936000109260000FBE8DE796E040E0B9
:104BB00052EC61E070E00E94B03382E494E00E9425
:104BC000781080E066EE71E143E050E00E941B3116
:104BD0000E94BA25089560E241E020E00E943C2E48
:104BE00008958DE993E09093D5038093D4038CE7E7
:104BF00090E09093D7038093D60320E0322F3F5F5D
:104C0000E22FF0E0EE0FFF1FE852FE4F808191810E
:104C1000892B11F0232FF2CF2093D90389E893E059
:104C20009093DB038093DA0382E890E09093DD03B6
:104C30008093DC038FE793E09093E0038093DF039E
:104C400080E990E09093E2038093E10385E793E0AD
:104C50009093E9038093E8038CE990E09093EB0351
:104C60008093EA0383E993E09093EE038093ED034E
:104C700089EB90E09093F0038093EF038BE693E051
:104C80009093F3038093F2038EE690E09093F50304
:104C90008093F40381E693E09093F8038093F70305
:104CA00088EA90E09093FA038093F90387E593E014
:104CB0009093FD038093FC0388EC90E09093FF03B6
:104CC0008093FE038DE493E09093020480930104AB
:104CD00085ED90E0909304048093030483E493E0D3
:104CE000909307048093060422EE30E03093090489
:104CF0002093080489E393E090930C0480930B04C1
:104D00008FE293E090931104809310043093130486
:104D10002093120485E293E0909316048093150487
:104D20008BE193E090931B0480931A0481E193E05C
:104D30009093200480931F0487E093E090932504D0
:104D4000809324042BE131E0309327042093260440
:104D50008DEF92E090932A048093290430932C04E1
:104D600020932B0483EF92E090932F0480932E04E2
:104D700089EE92E090933404809333048FED92E0B7
:104D8000909339048093380485ED92E090933E042B
:104D900080933D0410924204109243041092440404
:104DA0001092450410924604109248041092470451
:104DB0008BED94E00E94EB258AEF94E040E050E018
:104DC00060E070E00E948C2981E0809307050895DF
:104DD000F999FECF72BD61BDF89A80B50895F99931
:104DE000FECF1FBA72BD61BD40BD0FB6F894FA9AEE
:104DF000F99A0FBE089581E08093540560933105C0
:104E00001092520510925305089590912F058091AC
:104E10003005981710F080E00895E92FF0E0E15F89
:104E2000FA4F80819F5F90932F0508950895DF9337
:104E3000CF930F92CDB7DEB7698380915405882355
:104E400089F080915305803290F480915205E82FCB
:104E5000F0E0EE5CFA4F60838F5F809352058093A1
:104E6000530505C0CE01019661E00E94F6270F9020
:104E7000CF91DF9108950E94172708958091310501
:104E800062E375E04091530521E00E94B327109240
:104E9000520510925305109254050895413208F0BE
:104EA00040E2862F6FE075E00E947C2710922F056C
:104EB0008093300508950E944E27089510922F0583
:104EC0001092300510925205109253050E946927E6
:104ED000089510925605449A459AE9EBF0E08081D6
:104EE0008E7F808380818D7F808388E48093B8006B
:104EF00085E48093BC000895982F413210F040E083
:104F000030C0809156058823E1F781E080935605F3
:104F10008FEF8093C10510927C05415040937D0531
:104F20004F5F990F91609093570585EE8093BC0079
:104F3000809156058130E1F380917C05841710F44F
:104F400040917C0520E030E00AC0FB01E20FF31F36
:104F5000D901A45ABA4F8C9180832F5F3F4F2417F9
:104F6000A0F3842F08951F93582F122F413210F071
:104F700081E03AC0809156058823E1F782E0809372
:104F800056058FEF8093C10510927C0540937D05F7
:104F9000ACE5B5E0FB0102C081918D938E2F861B9D
:104FA0008417D0F3852F90E0880F991F80935705C1
:104FB00085EE8093BC00112321F08091560582304C
:104FC000E1F38091C1058F3F11F480E00DC0809125
:104FD000C105803211F482E007C08091C1058033A1
:104FE00011F084E001C083E01F910895482F6132E1
:104FF00010F081E0089580915605843011F082E030
:10500000089560939F05AEE7B5E0842F9C01F901F8
:1050100002C081918D938E2F841B8617D0F380E080
:1050200008951F920F920FB60F9211242F933F9362
:105030004F935F936F937F938F939F93AF93BF93A0
:10504000EF93FF938091B90090E0887F9070803655
:10505000910509F4DCC081369105CCF588329105C3
:1050600009F47BC089329105B4F48031910509F4CB
:105070006FC0813191053CF4009709F431C1089764
:1050800009F039C165C08831910509F466C080977F
:1050900009F031C17DC08034910509F49FC081348D
:1050A000910544F48033910509F47DC0C89709F057
:1050B00022C184C08035910509F484C088359105EA
:1050C00009F491C08834910509F015C198C0883958
:1050D000910509F4FDC089399105ECF488379105F3
:1050E00009F495C0893791054CF48836910509F487
:1050F0008EC08037910509F0FEC089C088389105BF
:1051000009F4E6C08039910509F487C0803891051B
:1051100009F0F1C082C0803B910509F4B0C0813B29
:1051200091054CF4803A910509F489C0883A9105BB
:1051300009F0E1C0A4C0803C910509F4CDC0883CD1
:10514000910509F4C9C0883B910509F0D4C0ACC0F1
:10515000809157058093BB00B9C090917C058091E8
:105160007D05981768F490917C05E92FF0E0E45AEA
:10517000FA4F80818093BB009F5F90937C05A6C00F
:1051800085ED8093BC008091BC0084FDFCCFB1C054
:1051900080E28093C10585ED8093BC008091BC00C6
:1051A00084FDFCCFA6C080E38093C10585ED80938C
:1051B000BC008091BC0084FDFCCF9BC088E3809341
:1051C000C1058AC080917C059091BB00E82FF0E07A
:1051D000E45AFA4F90838F5F80937C0590917C0511
:1051E00080917D0571C080917C059091BB00E82F76
:1051F000F0E0E45AFA4F90838F5F80937C0585ED51
:105200008093BC008091BC0084FDFCCF72C083E021
:10521000809356051092C00559C08091C005803218
:1052200008F056C08091C0059091BB00E82FF0E0D7
:10523000E056FA4F90838F5F8093C00547C08091FE
:10524000C005803230F4E091C005F0E0E056FA4F3E
:10525000108285ED8093BC008091BC0084FDFCCF62
:10526000109256056091C005E0915A05F0915B05DA
:1052700080EA95E070E009951092C0052DC084E0A9
:105280008093560510929E0510929F05E091580557
:10529000F0915905099580919F05882329F481E0B3
:1052A00080939F0510927E0590919E05E92FF0E076
:1052B000E258FA4F80818093BB009F5F90939E05D8
:1052C00090919E0580919F05981710F485EC01C080
:1052D00085E88093BC000FC085EC8093BC0009C0BA
:1052E0001092C10585ED8093BC008091BC0084FDC7
:1052F000FCCF10925605FF91EF91BF91AF919F9116
:105300008F917F916F915F914F913F912F910F906E
:105310000FBE0F901F901895EF92FF920F931F935F
:10532000CF93DF93EC017A018B0180E89CEBA2E93B
:10533000B7ECE80EF91E0A1F1B1FC801B7012CE3CA
:1053400030E040E050E00E9415376D83C801B7019E
:105350002CE330E040E050E00E941537122F032F7D
:10536000F42EE52E622F732F842F952F2CE330E03F
:1053700040E050E00E9415376C83612F702F8F2D15
:105380009E2D2CE330E040E050E00E941537122FB4
:10539000032FF42EE52E622F732F842F952F28E1F3
:1053A00030E040E050E00E9415376B83612F702F92
:1053B0008F2D9E2D28E130E040E050E00E9415370F
:1053C00060E0A3E9BEEF70E0862F90E083709070FC
:1053D000892B09F471E0E62FEF5F472F50E0CA01F7
:1053E00083599E4F2817390738F0CD01841B950B40
:1053F000280F391F6E2FE7CF688341E0E42FF0E0DC
:10540000E954FD4F8491772319F0423009F48F5FFE
:1054100090E0542F5F5F2817390720F0281B390BC5
:10542000452FECCF4983822F8F5F8A83DF91CF9105
:105430001F910F91FF90EF900895CF92EF920F93ED
:10544000FC0187E0603D780710F0605D7740608385
:10545000418322830383E482C5820F91EF90CF9032
:10546000089581E00895BF92CF92DF92EF92FF926C
:105470000F931F93DF93CF9300D000D000D0CDB710
:10548000DEB705E515E0C80168E670E00E94FB267E
:105490006091C2057091C305C8010E943B27C801F5
:1054A0000E943E27C80168E670E047E050E00E9495
:1054B0005B27C8010E9405279FE7B92EB822C801C3
:1054C0000E940527C82EC8010E940527D82EC801B2
:1054D0000E940527C8010E940527E82EC8010E94E6
:1054E0000527F82EC8010E940527282F30E0B4E0D8
:1054F00035952795BA95E1F74AEF5FEFB901649FBB
:105500009001659F300D749F300D1124820F90E043
:105510002B2D30E0A4E035952795AA95E1F7B90148
:10552000649F9001659F300D749F300D1124B20E61
:105530002C2D30E0F4E035952795FA95E1F7B90187
:10554000649F9001659F300D749F300D1124C20E31
:105550002D2D30E0E4E035952795EA95E1F7B90186
:10556000649F9001659F300D749F300D1124D20E01
:105570002E2D30E074E0359527957A95E1F7B90145
:10558000649F9001659F300D749F300D1124E20ED1
:105590002F2D30E064E0359527956A95E1F7B90144
:1055A000649F9001659F300D749F300D1124F20EA1
:1055B000282F3F2D4E2D5D2D6C2D7B2D80E02696C6
:1055C0000FB6F894DEBF0FBECDBFCF91DF911F9114
:1055D0000F91FF90EF90DF90CF90BF900895DF92F2
:1055E000EF92FF920F931F937C0105E515E0C80130
:1055F00068E670E00E94FB266091C2057091C305C9
:10560000C8010E943B27F7012581822F6AE00E9492
:10561000E23646E0D42E8D9DC0011124280FC8012A
:10562000622F0E941727F7012481822F6AE00E94CF
:10563000E2368D9DC0011124280FC801622F0E94FF
:105640001727F7012381822F6AE00E94E2368D9DA1
:10565000C0011124280FC801622F0E941727C8011A
:1056600060E00E941727F7012281822F6AE00E94E2
:10567000E2368D9DC0011124280FC801622F0E94BF
:105680001727F7012181822F6AE00E94E2368D9D63
:10569000C0011124280FC801622F0E941727F701AB
:1056A0002081822F6AE00E94E2368D9DC001112484
:1056B000280FC801622F0E9417276091C2057091C0
:1056C000C305C8010E943B27C8010E943E271F91C5
:1056D0000F91FF90EF90DF9008950F931F93611546
:1056E00071058105910569F481E090E0A0E0B0E0EA
:1056F0008093C4059093C505A093C605B093C705D4
:1057000008C06093C4057093C5058093C605909347
:10571000C7051093C9050093C805809170008E7F5E
:10572000809370008091B0008C7F8093B000809156
:10573000B100877F8093B1008091B6008F7D809308
:10574000B600809170008D7F809370008091B100D1
:1057500084608093B1008091B1008C7F8093B10010
:10576000CA01B90120E034E244E75BE40E946036FC
:1057700020E030E040E85CE30E9460360E94DE35C5
:1057800020E031E0261B370B3093D0052093CF0566
:105790001F910F9108950F931F938A012FE632E115
:1057A00043E85AE30E946D2B1F910F9108951092C8
:1057B000CA051092CB051092CC051092CD0510921F
:1057C000CE058091CF059091D0058093B200E0E79F
:1057D000F0E080818160808308958091CA05909176
:1057E000CB05A091CC05B091CD050196A11DB11DB1
:1057F0008093CA059093CB05A093CC05B093CD05BB
:105800008091CA059091CB05A091CC05B091CD05B2
:105810002091C4053091C5054091C6055091C7053A
:1058200082179307A407B50710F18091CE0588234E
:10583000F1F481E08093CE058091CA059091CB056B
:10584000A091CC05B091CD05821B930BA40BB50B99
:105850008093CA059093CB05A093CC05B093CD055A
:10586000E091C805F091C90509951092CE050895FB
:105870001F920F920FB60F9211242F933F934F93C5
:105880005F936F937F938F939F93AF93BF93EF93A8
:10589000FF938091CF059091D0058093B2000E9434
:1058A000ED2BFF91EF91BF91AF919F918F917F91E0
:1058B0006F915F914F913F912F910F900FBE0F907D
:1058C0001F9018958F929F92AF92BF92CF92DF92C6
:1058D000EF92FF920F931F93CF93DF937B018C0185
:1058E000EA012CE330E040E050E00E941537688385
:1058F000C801B7012CE330E040E050E00E941537CA
:10590000122F032FF42EE52E622F732F842F952F45
:105910002CE330E040E050E00E9415376983612FAE
:10592000702F8F2D9E2D2CE330E040E050E00E9440
:105930001537122F032FF42EE52E622F732F842F8D
:10594000952F28E130E040E050E00E9415376A834F
:10595000612F702F8F2D9E2D28E130E040E050E028
:105960000E94153779018A01C801B7016C5F7F4F2A
:105970008F4F9F4F27E030E040E050E00E94153706
:105980006F5F6B8320E0AA24BB24650101C02F5FF9
:10599000822E9924F401EE54F84FCF018370907059
:1059A000892B99F4CF0164E670E00E940237892BBD
:1059B00039F4CF0160E971E00E940237892B29F4A4
:1059C0008EE691E0A0E0B0E004C08DE691E0A0E0BA
:1059D000B0E0A80EB91ECA1EDB1EC501A0E0B0E0F3
:1059E000E816F9060A071B0790F62E83F401EE5419
:1059F000F84F83E0882E912C8E229F2281149104EF
:105A000099F4CF0164E670E00E940237892B39F4E3
:105A1000CF0160E971E00E940237892B29F48EE6FC
:105A200091E0A0E0B0E004C08DE691E0A0E0B0E03D
:105A3000A81AB90ACA0ADB0A980187010A191B09C0
:105A40002C093D09CF0164E670E00E9402377C0119
:105A5000CF0160E971E00E940237AC01E3EAF3E0B4
:105A600060E0613051F48114910449F4E114F104CF
:105A700041F44115510529F002C0808103C08CE139
:105A800001C08DE190E0A0E0B0E0081719072A07F7
:105A90003B0740F0081B190B2A0B3B0B6F5F31963D
:105AA0006C30F9F66F5F6D83802F8F5F8C83DF9191
:105AB000CF911F910F91FF90EF90DF90CF90BF900B
:105AC000AF909F908F900895EF92FF920F931F9346
:105AD0007B018C018091E8059091E905A091EA0590
