:100000000C9480010C94412D0C946E2D0C94B10134
:100010000C94B1010C94B1010C94B1010C94B10198
:100020000C94B1010C9437280C94B1010C94B101DB
:100030000C94B1010C94B1010C94B1010C94B10178
:100040000C949B2D0C94B1010C94822F0C94B10153
:100050000C94B1010C94B1010C94B1010C94B10158
:100060000C9410240C94B101322E322E30005365C2
:100070007475700053657276696365204C657665AA
:100080006C004D61782043757272656E740044692E
:100090006F646520436865636B0056656E7420521B
:1000A0006571276420436865636B0047726F756EE6
:1000B0006420436865636B004746492053656C665E
:1000C00020546573740052657365740045786974D3
:1000D00000446174652F54696D6500536574204D4B
:1000E0006F6E7468005365742044617900536574C1
:1000F00020596561720053657420486F7572005312
:100100006574204D696E7574650044656C61792075
:1001100054696D6572005365742053746172742064
:10012000486F757200536574205374617274204D6A
:10013000696E005365742053746F7020486F757238
:10014000005365742053746F70204D696E00506FBA
:10015000776572204F6E0053656C6620546573742A
:10016000004175746F204465746563740053766351
:10017000204C6576656C3A204C3100537663204CF8
:100180006576656C3A204C32002D2D537475636B87
:100190002052656C61792D2D002D2D45617274689A
:1001A0002047726F756E642D2D00544553542046C0
:1001B00041494C45440045565345204552524F5203
:1001C0000056454E5420524551554952454400442D
:1001D000494F44452043484B204641494C45440043
:1001E00047464349204641554C54004E4F20475204
:1001F0004F554E4400535455434B2052454C4159A2
:100200000053746F7070656400455620436F6E6EC6
:100210006563746564004556204E6F7420436F6EAD
:100220006E656374656400000E1517110E00000002
:10023000000E0E0E00000000080C0E0C080000520C
:1002400065616479004368617267696E6700526531
:10025000736574204E6F773F00536574204461745A
:10026000652F54696D653F00526573657474696EDE
:10027000672E2E2E002020200056657273696F6E47
:1002800020004F70656E20455653452020202020C9
:100290002020001F1C1F1E1F1E1F1F1E1F1E1F00B1
:1002A000000000240027002A00000000002500288C
:1002B000002B000000000023002600290004040495
:1002C00004040404040202020202020303030303FF
:1002D00003010204081020408001020408102001DC
:1002E00002040810200000000700020100000304BF
:1002F000060000000000000000000D2215237E30E3
:1003000011241FBECFEFD8E0DEBFCDBF14BE88E101
:100310000FB6F89480936000109260000FBE13E057
:10032000A0E0B1E0E8E2F7E602C005900D92A8393E
:10033000B107D9F716E0A8E9B3E001C01D92A734D0
:10034000B107E1F712E0C0E0D3E004C02297FE015C
:100350000E945733CA3FD107C9F70E94B8300C94A6
:1003600092330C940000FB01DC0102C005900D9259
:1003700041505040D8F70895FB01DC0105900D92E3
:100380000020E1F70895AEE0B0E0E9ECF1E00C9474
:1003900069330D891E8986E08C831A8309838FEF68
:1003A0009FE79E838D839E01275E3F4FCE0101967E
:1003B0006F89788DA9010E94E7012F813885020F8E
:1003C000131FF80110822E96E4E00C948533ABE005
:1003D000B0E0EDEEF1E00C945B333C012B015A01EF
:1003E000FC0117821682838181FD03C06FEF7FEFCE
:1003F000C6C19AE0892E1E010894211C311CF3010C
:100400002381F20123FD859123FF81912F01882310
:1004100009F4B2C1853239F423FD859123FF81911E
:100420002F01853229F490E0B3010E94DA03E7CF6F
:10043000982FFF24EE249924FFE1FF15D0F09B3282
:1004400069F09C3228F4903259F0933291F40EC046
:100450009D3249F0903369F441E024C052E0F52A1E
:1004600084E0F82A28C098E0F92A25C0E0E1FE2AB5
:1004700022C0F7FC29C0892F80538A3070F4F6FE21
:1004800005C0989C902C1124980E15C0E89CE02C77
:100490001124E80EF0E2FF2A0EC09E3229F4F6FC89
:1004A0006BC140E4F42A07C09C3619F450E8F52AE1
:1004B00002C0983649F4F20123FD959123FF9191F2
:1004C0002F01992309F0B8CF892F8554833018F074
:1004D0008052833038F444E050E0A40EB51E5FE350
:1004E00059830FC0933631F0933779F0933509F083
:1004F00056C020C0F5018081898342E050E0A40EFF
:10050000B51E610101E010E012C0F501C080D1808C
:10051000F6FC03C06FEF7FEF02C0692D70E042E090
:1005200050E0A40EB51EC6010E94CF038C015FE708
:10053000F52214C0F501C080D180F6FC03C06FEF36
:100540007FEF02C0692D70E042E050E0A40EB51EBE
:10055000C6010E94C4038C0150E8F52AF3FE07C0CF
:100560001AC080E290E0B3010E94DA03EA948E2D73
:1005700090E008171907A8F30EC0F601F7FC859163
:10058000F7FE81916F0190E0B3010E94DA03E11060
:10059000EA94015010400115110579F7EAC094362C
:1005A00011F0993669F5F7FE08C0F5012081318117
:1005B0004281538184E090E00AC0F50180819181FD
:1005C0009C01442737FD4095542F82E090E0A80E0F
:1005D000B91E9FE6F92257FF09C050954095309506
:1005E00021953F4F4F4F5F4FE0E8FE2ACA01B90106
:1005F000A1012AE030E00E940604D82ED21840C0A3
:10060000953729F41F2D1F7E2AE030E01DC01F2DD5
:10061000197F9F3661F0903720F4983509F0ACC00F
:100620000FC0903739F0983709F0A6C004C028E011
:1006300030E00AC0106114FD146020E130E004C015
:1006400014FD166020E132E017FF08C0F50160815B
:1006500071818281938144E050E008C0F50180817E
:100660009181BC0180E090E042E050E0A40EB51E14
:10067000A1010E940604D82ED2188FE7F82EF1228D
:10068000F6FE0BC05EEFF522D91438F4F4FE07C075
:10069000F2FC05C08FEEF82202C01D2D01C0192DFD
:1006A000F4FE0DC0FE01ED0DF11D8081803319F4C3
:1006B00099EEF92208C01F5FF2FE05C003C08F2D1E
:1006C000867809F01F5F0F2DF3FC14C0F0FE0FC0F9
:1006D0001E1510F09D2C0BC09D2C9E0C911A1E2DEA
:1006E00006C080E290E0B3010E94DA031F5F1E158E
:1006F000C0F304C01E1510F4E11A01C0EE2404FF7B
:100700000FC080E390E0B3010E94DA0302FF1DC036
:1007100001FD03C088E790E00EC088E590E00BC0C3
:10072000802F867891F001FF02C08BE201C080E249
:10073000F7FC8DE290E0B3010E94DA0306C080E38B
:1007400090E0B3010E94DA039A94D914C0F3DA94CA
:10075000F101ED0DF11D808190E0B3010E94DA03FB
:10076000DD20A9F706C080E290E0B3010E94DA0321
:10077000EA94EE20C1F743CEF30166817781CB0185
:100780002B96E2E10C947733FC01059061507040A8
:100790000110D8F7809590958E0F9F1F0895FC014A
:1007A0006150704001900110D8F7809590958E0FA0
:1007B0009F1F08950F931F93CF93DF938C01EB013D
:1007C0008B8181FF1BC082FF0DC02E813F818C81F8
:1007D0009D812817390764F4E881F9810193F98331
:1007E000E88306C0E885F985802F0995892B31F4C7
:1007F0008E819F8101969F838E8302C00FEF1FEF32
:10080000C801DF91CF911F910F910895FA01AA2796
:10081000283051F1203181F1E8946F936E7F6E5F43
:100820007F4F8F4F9F4FAF4FB1E03ED0B4E03CD0F1
:10083000670F781F891F9A1FA11D680F791F8A1FD4
:10084000911DA11D6A0F711D811D911DA11D20D03B
:1008500009F468943F912AE0269F11243019305DF5
:100860003193DEF6CF010895462F4770405D4193E6
:10087000B3E00FD0C9F7F6CF462F4F70405D4A3333
:1008800018F0495D31FD4052419302D0A9F7EACFFB
:10089000B4E0A6959795879577956795BA95C9F72A
:1008A00000976105710508959B01AC010A2E06941D
:1008B0005795479537952795BA95C9F7620F731FD6
:1008C000841F951FA01D08950F931F93CF93DF934F
:1008D000EC01663008F44DC08C8D80FD03C020E132
:1008E00030E002C020E530E0862F90E0281739077D
:1008F0000CF43FC068AB00E010E04423A1F1888114
:100900009981019781F588A9282F30E0C9010697C0
:100910008E9760F4B901882777FD8095982F25E898
:1009200030E040E050E00E94C63215C0C901C497D3
:100930004D97C8F4C901AA2797FDA095BA2F8056F4
:100940009F4FAF4FBF4F35E0880F991FAA1FBB1FA6
:100950003A95D1F7BC0170938B0060938A0081E0D7
:1009600090E099838883C801DF91CF911F910F9107
:10097000089586E088AB01E010E0BFCF81E080936E
:10098000B8040895FC0180818823C1F091819923E6
:1009900049F48281882331F48381882319F4848186
:1009A000882361F08381981721F4928184819817BC
:1009B00029F084E994E060E00E94032B089580917F
:1009C000630480FD02C081E001C082E060E070E06D
:1009D000813011F061E070E085EC94E040917704A3
:1009E0000E94EE2285EC94E062E070E040916304A6
:1009F0000E94EE220895FC01108285EC94E063E0F1
:100A000070E040E00E94EE22809163048F7B80932F
:100A100063040E94DF040895FC0181E0808385EC7B
:100A200094E063E070E041E00E94EE228091630474
:100A30008064809363040E94DF040895CF93DF9362
:100A4000EC0185EC94E063E070E00E94E7228F3FC8
:100A500049F4188285EC94E063E070E040E00E9485
:100A6000EE2201C0888385EC94E064E070E00E948F
:100A7000E7228F3F49F4198285EC94E064E070E04E
:100A800040E00E94EE2201C0898385EC94E065E09D
:100A900070E00E94E7228F3F51F485E08A8385EC65
:100AA00094E065E070E045E00E94EE2201C08A8398
:100AB00085EC94E066E070E00E94E7228F3F51F4FD
:100AC00086E08B8385EC94E066E070E046E00E946F
:100AD000EE2201C08B8385EC94E067E070E00E9419
:100AE000E7228F3F51F487E38C8385EC94E067E045
:100AF00070E047E30E94EE2201C08C8360E67AEE4C
:100B000080E090E04EEB54E00E94CA270E94D62776
:100B1000DF91CF9108950F931F938C0164EF71E0E3
:100B200080E090E00E94F12DF8018481882319F47F
:100B300027EE33E007C0813019F021EF33E002C027
:100B40002CEE33E0C9011F910F9108950F931F936D
:100B5000CF93DF93EC0189010E94462B888588237F
:100B600021F0CE01B8010E94F630DF91CF911F91A4
:100B70000F910895FC018085882319F0CF010E9410
:100B8000F63008950F931F938C0184E994E060E0A0
:100B900070E041E050E020E031E00E94A605D8017D
:100BA0001496EC91F0E0EE0FFF1FEF50FE4F6081C6
:100BB000718184E994E00E94BA0564EF71E080E0FD
:100BC00090E00E94F12DF8018481882329F481EBC3
:100BD00094E00E940C0504C081EB94E00E94FB04A9
:100BE00088E993E01F910F9108950F931F938C0153
:100BF00084E994E060E070E041E050E020E031E022
:100C00000E94A605D8011496EC91F0E0EE0FFF1FAC
:100C1000EF50FE4F6081718184E994E00E94BA0533
:100C200064EF71E080E090E00E94F12DF801848192
:100C3000882319F028E933E002C029EC33E0C90128
:100C40001F910F9108950F931F938C0184E994E0F5
:100C500060E070E041E050E020E031E00E94A60555
:100C6000D8011496EC91F0E0EE0FFF1FEF50FE4F0D
:100C70006081718184E994E00E94BA05F801848161
:100C80008823C1F480916304877F8093630485EC9B
:100C900094E062E070E0409163040E94EE2264EF11
:100CA00071E080E090E00E94F12D88E993E01F91CF
:100CB0000F910895809163048860E7CF0F931F938D
:100CC0008C0184E994E060E070E041E050E020E0D5
:100CD00031E00E94A605D8011496EC91F0E0EE0FE9
:100CE000FF1FEF50FE4F6081718184E994E00E9404
:100CF000BA05F80184818823C1F4809163048B7F55
:100D00008093630485EC94E062E070E040916304BA
:100D10000E94EE2264EF71E080E090E00E94F12DED
:100D200088E993E01F910F91089580916304846096
:100D3000E7CF0F931F938C0184E994E060E070E0AB
:100D400041E050E020E031E00E94A605D801149671
:100D5000EC91F0E0EE0FFF1FEF50FE4F60817181CC
:100D600084E994E00E94BA05F80184818823C1F4E3
:100D7000809164048E7F8093640485EC94E068E045
:100D800070E0409164040E94EE2264EF71E080E024
:100D900090E00E94F12D88E993E01F910F91089552
:100DA000809164048160E7CF0F931F938C0184E9E5
:100DB00094E060E070E041E050E020E031E00E942B
:100DC000A605D8011496EC91F0E0EE0FFF1FEF504E
:100DD000FE4F6081718184E994E00E94BA05F801B8
:100DE00084818823C1F4809163048D7F80936304A0
:100DF00085EC94E062E070E0409163040E94EE2292
:100E000064EF71E080E090E00E94F12D88E993E0CA
:100E10001F910F910895809163048260E7CFCF9373
:100E2000DF93EC01462F60E00E94462B88858823E3
:100E300039F06091C1017091C201CE010E94F6307B
:100E4000DF91CF910895CF93DF93EC018C818F5F79
:100E50008C83823008F01C8284E994E061E070E0C9
:100E60000E940F078C81E82FF0E020E030E08091B5
:100E7000B104882311F421E030E0E217F307B9F45C
:100E800084E994E060E070E041E050E020E031E08F
:100E90000E94A605EC81F0E0EE0FFF1FEF50FE4F21
:100EA0006081718184E994E00E94BA050EC0EE0F62
:100EB000FF1FEF50FE4F2081318184E994E060E014
:100EC00070E041E050E00E94A605DF91CF910895C7
:100ED000CF93DF93EC018C818F5F8C83833008F09C
:100EE0001C8284E994E061E070E00E940F07EC81CD
:100EF000F0E0EE0FFF1FE057FD4F2081318184E9C4
:100F000094E060E070E041E050E00E94A605DF91CF
:100F1000CF910895CF93DF93EC018C818F5F8C8309
:100F2000823008F01C8284E994E061E070E00E9465
:100F30000F07EC81F0E0EE0FFF1FEF50FE4F208116
:100F4000318184E994E060E070E041E050E00E948B
:100F5000A605DF91CF910895CF93DF93EC018C81AB
:100F60008F5F8C83823008F01C8284E994E061E01A
:100F700070E00E940F07EC81F0E0EE0FFF1FEF50D2
:100F8000FE4F2081318184E994E060E070E041E02F
:100F900050E00E94A605DF91CF910895CF93DF9393
:100FA000EC018C818F5F8C83823008F01C8284E995
:100FB00094E061E070E00E940F0784E994E060E053
:100FC00041E00E94462B809163049C8183FD03C015
:100FD000992319F008C0992331F084E994E060E086
:100FE00071E00E94BA05EC81F0E0EE0FFF1FEF50B8
:100FF000FE4F6081718184E994E00E94BA05DF911F
:10100000CF910895CF93DF93EC018C818F5F8C8318
:10101000823008F01C8284E994E061E070E00E9474
:101020000F0784E994E060E041E00E94462B809144
:1010300063049C8182FD03C0992319F008C09923A1
:1010400031F084E994E060E071E00E94BA05EC813F
:10105000F0E0EE0FFF1FEF50FE4F6081718184E9D9
:1010600094E00E94BA05DF91CF910895CF93DF936A
:10107000EC018C818F5F8C83823008F01C8284E9C4
:1010800094E061E070E00E940F0784E994E060E082
:1010900041E00E94462B809164049C8180FF17C030
:1010A000992331F084E994E060E071E00E94BA0590
:1010B000EC81F0E0EE0FFF1FEF50FE4F6081718179
:1010C00084E994E00E94BA05DF91CF9108959923B5
:1010D00049F3EECFCF93DF93EC018C818F5F8C834C
:1010E000823008F01C8284E994E061E070E00E94A4
:1010F0000F0784E994E060E041E00E94462B809174
:1011000063049C8181FD03C0992319F008C09923D1
:1011100031F084E994E060E071E00E94BA05EC816E
:10112000F0E0EE0FFF1FEF50FE4F6081718184E908
:1011300094E00E94BA05DF91CF910895CF93DF9399
:10114000EC018C818F5F8C83833008F01C8284E9F2
:1011500094E061E070E00E940F0784E994E060E0B1
:1011600041E00E94462B8091630480FD02C021E093
:1011700001C022E030E08C8190E001962817390709
:1011800031F484E994E060E071E00E94BA05EC81FA
:10119000F0E0EE0FFF1FE952FE4F6081718184E99C
:1011A00094E00E94BA05DF91CF910895CF92DF922B
:1011B000EF92FF920F931F93DF93CF93CDB7DEB7DC
:1011C00061970FB6F894DEBF0FBECDBF7C01262F0E
:1011D0006A01DC0118968C91882349F1C70160E00F
:1011E000422F0E94462B00D000D000D0EDB7FEB7B2
:1011F00031968E010F5F1F4FADB7BEB712961C938D
:101200000E93119782E091E093838283D582C4820A
:101210000E94C301198AEDB7FEB736960FB6F8944F
:10122000FEBF0FBEEDBFC701B8010E94F630619648
:101230000FB6F894DEBF0FBECDBFCF91DF911F91E7
:101240000F91FF90EF90DF90CF9008950F931F9331
:10125000DC0114962C912093BE04EDB7FEB73897AD
:101260000FB6F894FEBF0FBEEDBF319607E014E055
:10127000ADB7BEB712961C930E931197809198024A
:1012800090919902938382838091BD048483158217
:10129000268317820E94C301EDB7FEB738960FB6BA
:1012A000F894FEBF0FBEEDBF84E994E061E070E00A
:1012B000A8010E94D6084091BD048091BE044093CD
:1012C000B4048093B50405EC14E0C80166E070E056
:1012D0000E94EE22C80167E070E04091B5040E94D0
:1012E000EE220E94DF0464EF71E080E090E00E9453
:1012F000F12D88E993E01F910F910895FC018481FD
:101300008F5F84838C3308F0148224818091BE0423
:1013100047E054E02817B1F48DB79EB708970FB691
:10132000F8949EBF0FBE8DBFEDB7FEB73196ADB737
:10133000BEB712965C934E9311978091980290914C
:10134000990213C0ADB7BEB718970FB6F894BEBFD9
:101350000FBEADBFEDB7FEB7319612965C934E93BC
:1013600011978091C3019091C401938382838091EE
:10137000BD0484831582268317820E94C3018DB722
:101380009EB708960FB6F8949EBF0FBE8DBF84E936
:1013900094E061E070E047E054E00E94D6080895D0
:1013A0000F931F93DC0114962C912093BE04EDB78C
:1013B000FEB738970FB6F894FEBF0FBEEDBF31965B
:1013C00007E014E0ADB7BEB712961C930E931197C9
:1013D0008091980290919902938382838091BD04B9
:1013E00084831582268317820E94C301EDB7FEB75E
:1013F00038960FB6F894FEBF0FBEEDBF84E994E0B7
:1014000061E070E0A8010E94D6084091BD0480917F
:10141000BE044093B2048093B30405EC14E0C80109
:1014200064E070E00E94EE22C80165E070E0409147
:10143000B3040E94EE220E94DF0464EF71E080E0BA
:1014400090E00E94F12D88E993E01F910F9108959B
:10145000FC0184818F5F84838C3308F014822481A3
:101460008091BE0447E054E02817B1F48DB79EB7D1
:1014700008970FB6F8949EBF0FBE8DBFEDB7FEB7AD
:101480003196ADB7BEB712965C934E93119780918B
:1014900098029091990213C0ADB7BEB718970FB6D6
:1014A000F894BEBF0FBEADBFEDB7FEB73196129632
:1014B0005C934E9311978091C3019091C4019383E3
:1014C00082838091BD0484831582268317820E94C3
:1014D000C3018DB79EB708960FB6F8949EBF0FBE96
:1014E0008DBF84E994E061E070E047E054E00E9441
:1014F000D60808950F931F93DC0114962C91209326
:10150000BD04EDB7FEB738970FB6F894FEBF0FBE17
:10151000EDBF319607E014E0ADB7BEB712961C934D
:101520000E931197809196029091970293838283F4
:10153000248315828091BE04868317820E94C30192
:10154000EDB7FEB738960FB6F894FEBF0FBEEDBFED
:1015500084E994E061E070E0A8010E94D60864EF9D
:1015600071E080E090E00E94F12D8BEF93E01F91FD
:101570000F910895FC0184818F5F8483883108F086
:10158000148224818091BD0447E054E02817B1F40F
:101590008DB79EB708970FB6F8949EBF0FBE8DBF4C
:1015A000EDB7FEB73196ADB7BEB712965C934E93CA
:1015B0001197809196029091970213C0ADB7BEB774
:1015C00018970FB6F894BEBF0FBEADBFEDB7FEB70C
:1015D000319612965C934E9311978091C30190912E
:1015E000C40193838283248315828091BE04868301
:1015F00017820E94C3018DB79EB708960FB6F89464
:101600009EBF0FBE8DBF84E994E061E070E047E0CB
:1016100054E00E94D60808950F931F93DC0114969E
:101620002C912093BD04EDB7FEB738970FB6F89410
:10163000FEBF0FBEEDBF319607E014E0ADB7BEB7F9
:1016400012961C930E931197809196029091970297
:1016500093838283248315828091BE0486831782BC
:101660000E94C301EDB7FEB738960FB6F894FEBFDF
:101670000FBEEDBF84E994E061E070E0A8010E9434
:10168000D60864EF71E080E090E00E94F12D86EFD3
:1016900093E01F910F910895FC0184818F5F8483F3
:1016A000883108F0148224818091BD0447E054E021
:1016B0002817B1F48DB79EB708970FB6F8949EBF60
:1016C0000FBE8DBFEDB7FEB73196ADB7BEB7129660
:1016D0005C934E931197809196029091970213C05C
:1016E000ADB7BEB718970FB6F894BEBF0FBEADBF6B
:1016F000EDB7FEB7319612965C934E931197809199
:10170000C3019091C40193838283248315828091C5
:10171000BE04868317820E94C3018DB79EB70896C8
:101720000FB6F8949EBF0FBE8DBF84E994E061E0D0
:1017300070E047E054E00E94D6080895CF93DF930D
:10174000EC018C818F5F8C838C3308F01C8284E9E0
:1017500094E061E070E00E940F072C813091BD049D
:1017600087E094E0231731F54DB75EB74E505040F7
:101770000FB6F8945EBF0FBE4DBFEDB7FEB7319602
:10178000ADB7BEB712969C938E93119786E792E001
:10179000938382838091BB04848315828091BC04EF
:1017A000868317828091B9049091BA0491878087CB
:1017B000228722C0ADB7BEB71E970FB6F894BEBF42
:1017C0000FBEADBFEDB7FEB7319612969C938E93C8
:1017D000119785EF91E0938382838091BB0484838A
:1017E00015828091BC04868317828091B904909100
:1017F000BA049187808732871386248715860E94D2
:10180000C3014DB75EB7425F5F4F0FB6F8945EBF3E
:101810000FBE4DBF84E994E061E070E047E054E022
:101820000E94D608DF91CF9108950F931F93DC019A
:1018300014962C912093BD04EDB7FEB73E970FB6DA
:10184000F894FEBF0FBEEDBF319607E014E0ADB7D0
:10185000BEB712961C930E9311978CE592E093837A
:1018600082838091BB04848315828091BC0486832B
:1018700017828091B9049091BA049187808722875A
:1018800013868091BE04848715860E94C301EDB73C
:10189000FEB73E960FB6F894FEBF0FBEEDBF84E9CB
:1018A00094E061E070E0A8010E94D60864EF71E066
:1018B00080E090E00E94F12D8DED93E01F910F915B
:1018C0000895CF93DF93EC018C818F5F8C838831F7
:1018D00008F01C8284E994E061E070E00E940F0748
:1018E0004C818091BD0427E034E04817A1F48DB706
:1018F0009EB70E970FB6F8949EBF0FBE8DBFEDB783
:10190000FEB73196ADB7BEB712963C932E931197A2
:101910008CE592E011C0ADB7BEB71E970FB6F89434
:10192000BEBF0FBEADBFEDB7FEB7319612963C936A
:101930002E93119785EF91E0938382838091BB046E
:10194000848315828091BC04868317828091B904B8
:101950009091BA0491878087428713868091BE0454
:10196000848715860E94C3018DB79EB70E960FB669
:10197000F8949EBF0FBE8DBF84E994E061E070E0F3
:1019800047E054E00E94D608DF91CF9108950F936D
:101990001F93DC0114962C912093B9041092BA0481
:1019A000EDB7FEB73E970FB6F894FEBF0FBEEDBF82
:1019B000319607E014E0ADB7BEB712961C930E93B4
:1019C000119782E492E0938382838091BB048483A5
:1019D00015828091BC0486831782208711868091AE
:1019E000BD04828713868091BE04848715860E9479
:1019F000C301EDB7FEB73E960FB6F894FEBF0FBE1B
:101A0000EDBF84E994E061E070E0A8010E94D6088F
:101A100064EF71E080E090E00E94F12D88ED93E0AA
:101A20001F910F910895FC0184818F5F848385311C
:101A300010F08CE084836481262F30E08091B9041B
:101A40009091BA0447E054E028173907A1F48DB704
:101A50009EB70E970FB6F8949EBF0FBE8DBFEDB721
:101A6000FEB73196ADB7BEB712965C934E93119701
:101A700082E492E011C0ADB7BEB71E970FB6F894DE
:101A8000BEBF0FBEADBFEDB7FEB7319612965C93E9
:101A90004E93119785EF91E0938382838091BB04ED
:101AA000848315828091BC048683178260871186A7
:101AB0008091BD04828713868091BE048487158639
:101AC0000E94C3018DB79EB70E960FB6F8949EBFC5
:101AD0000FBE8DBF84E994E061E070E047E054E020
:101AE0000E94D60808950F931F93DC0114962C9141
:101AF0002093BC04EDB7FEB73E970FB6F894FEBF37
:101B00000FBEEDBF319607E014E0ADB7BEB7129639
:101B10001C930E93119788E292E0938382838091C5
:101B2000BB0484831582268317828091B904909127
:101B3000BA04918780878091BD0482871386809143
:101B4000BE04848715860E94C301EDB7FEB73E969A
:101B50000FB6F894FEBF0FBEEDBF84E994E061E0DC
:101B600070E0A8010E94D60864EF71E080E090E088
:101B70000E94F12D83ED93E01F910F910895CF9373
:101B8000DF93EC018C818F5F8C83803210F081E0D9
:101B90008C8384E994E061E070E00E940F072C815F
:101BA0008091BC0447E054E02817A1F48DB79EB79C
:101BB0000E970FB6F8949EBF0FBE8DBFEDB7FEB760
:101BC0003196ADB7BEB712965C934E93119788E2EB
:101BD00092E011C0ADB7BEB71E970FB6F894BEBF66
:101BE0000FBEADBFEDB7FEB7319612965C934E9324
:101BF000119785EF91E0938382838091BB04848366
:101C00001582268317828091B9049091BA04918736
:101C100080878091BD04828713868091BE0484876B
:101C200015860E94C3018DB79EB70E960FB6F89425
:101C30009EBF0FBE8DBF84E994E061E070E047E095
:101C400054E00E94D608DF91CF9108950F931F931F
:101C5000DC0114962C912093BB04EDB7FEB73E97A0
:101C60000FB6F894FEBF0FBEEDBF319607E014E04B
:101C7000ADB7BEB712961C930E9311978EE092E00B
:101C800093838283248315828091BC048683178288
:101C90008091B9049091BA04918780878091BD04A6
:101CA000828713868091BE04848715860E94C301B3
:101CB000EDB7FEB73E960FB6F894FEBF0FBEEDBF70
:101CC00084E994E061E070E0A8010E94D60864EF26
:101CD00071E080E090E00E94F12D8EEC93E01F9186
:101CE0000F910895CF93DF93EC018C818F5F8C83EC
:101CF0008D3010F081E08C8384E994E061E070E045
:101D00000E940F072C818091BB0447E054E0281704
:101D1000A1F48DB79EB70E970FB6F8949EBF0FBE75
:101D20008DBFEDB7FEB73196ADB7BEB712965C93D7
:101D30004E9311978EE092E011C0ADB7BEB71E97DB
:101D40000FB6F894BEBF0FBEADBFEDB7FEB731966C
:101D500012965C934E93119785EF91E09383828363
:101D6000248315828091BC04868317828091B904F4
:101D70009091BA04918780878091BD0482871386F1
:101D80008091BE04848715860E94C3018DB79EB7DB
:101D90000E960FB6F8949EBF0FBE8DBF84E994E0F7
:101DA00061E070E047E054E00E94D608DF91CF91F7
:101DB00008950F931F93CF93DF93EC011C828091C2
:101DC000630480FD04C08DED91E041E003C084EE2A
:101DD00091E042E098878F831D821E8202C09F5F40
:101DE0009E83AF81B8859E81FD01E90FF11D808141
:101DF0008823A9F7292F21502E83A20FB11D8C9182
:101E00008D833091770490E0EF81F885E90FF11D23
:101E10008081831711F49C8303C09F5F2917A0F76B
:101E2000413019F028E031E002C02BE031E000D071
:101E300000D000D0EDB7FEB7319607E014E0ADB7A3
:101E4000BEB712961C930E9311978EE091E0938388
:101E50008283358324830E94C301EDB7FEB7369693
:101E60000FB6F894FEBF0FBEEDBF84E994E060E0CA
:101E700070E0A8010E94D60800D000D000D0ADB715
:101E8000BEB71196EDB7FEB7128301838DE191E0E5
:101E900013969C938E9312978C81EF81F885E80FAF
:101EA000F11D808114968C93149715961C920E94B4
:101EB000C3018DB79EB706960FB6F8949EBF0FBEAE
:101EC0008DBF84E994E061E070E0A8010E94D6082B
:101ED000DF91CF911F910F910895AF92BF92CF9252
:101EE000EF920F931F93DF93CF9300D000D000D0D9
:101EF000CDB7DEB7DC0114962C912093BE04EDB76C
:101F0000FEB73E970FB6F894FEBF0FBEEDBF3196F9
:101F100007E014E0ADB7BEB712961C930E9311976D
:101F200086E792E0938382838091BB048483158249
:101F30008091BC04868317828091B9049091BA0481
:101F4000918780878091BD048287138624871586B8
:101F50000E94C301EDB7FEB73E960FB6F894FEBFE0
:101F60000FBEEDBF84E994E061E070E0A8010E943B
:101F7000D6086091B9047091BA045E010894A11C5E
:101F8000B11CC5014091BB042091BC040091BD046B
:101F9000E090BE04CC240E941C26C5010E94EE26BF
:101FA00064EF71E080E090E00E94F12D88E993E019
:101FB00026960FB6F894DEBF0FBECDBFCF91DF914E
:101FC0001F910F91EF90CF90BF90AF900895CF9356
:101FD000DF93EC0184E994E060E070E041E050E0E0
:101FE00020E031E00E94A6058C81EF81F885E80FA2
:101FF000F11D608180919C04882339F084E994E08C
:1020000070E04AE050E00E94CE3184E994E062E260
:1020100071E00E94BA0564EF71E080E090E00E94F8
:10202000F12D8091630480FD02C081E001C082E057
:1020300060E070E0813011F061E070E08C81EF8150
:10204000F885E80FF11D85EC94E040810E94EE22B6
:102050008C81EF81F885E80FF11D87E494E06081C1
:1020600040E00E94640488E993E0DF91CF910895F5
:10207000CF93DF93EC018C818F5F8C839E819817C7
:1020800008F41C8284E994E061E070E00E940F078C
:1020900084E994E060E041E00E94462B8C81EF816E
:1020A000F885E80FF11D909177048081981731F43D
:1020B00084E994E060E071E00E94BA058C81EF81D0
:1020C000F885E80FF11D608180919C04882339F028
:1020D00084E994E070E04AE050E00E94CE3184E967
:1020E00094E062E271E00E94BA05DF91CF91089519
:1020F000FC018481882319F42DE933E02EC081305E
:1021000019F422EA33E029C0823019F42BEA33E0D3
:1021100024C0833019F425EB33E01FC0843019F458
:102120002AEB33E01AC0853019F420EB33E015C0F8
:10213000893019F42FEB33E010C0863019F424EC09
:1021400033E00BC0873019F422EE33E006C084E997
:1021500094E00E94F32B20E030E0C9010895CF9372
:10216000DF93EC0184E994E00E94CD2B80FF52C004
:1021700031E00AC089819A81AB81BC810097A105B9
:10218000B10509F4188230E02881222361F0213062
:1021900009F045C089819A81AB81BC810097A10576
:1021A000B10509F43CC0332381F189819A81AB8167
:1021B000BC810097A105B10541F4222331F40E94AE
:1021C000E32D69837A838B839C830E94E32D9B019B
:1021D000AC0189819A81AB81BC81281B390B4A0BE8
:1021E0005B0B8881882339F424363105410551057C
:1021F000B4F081E008C0813091F4245F3140404068
:1022000050406CF082E088830AC019821A821B82D7
:102210001C8205C08881823009F0B5CFABCFDF9139
:10222000CF91089581E160E00E94B12E81E161E0EB
:102230000E94D72E0895CF93DF93EC011A82198262
:1022400082E00E942F2F892B19F081E0888301C042
:102250001882DF91CF9108950F931F938C0188E02E
:1022600060E00E94D72E87E060E00E94D72E89E0D0
:1022700060E00E94D72EF801868D8F7B868F0E94AA
:10228000C829035C1F4FF8016083718382839383A5
:102290000D5310400E94E32DF80165AB76AB87AB80
:1022A00090AF1F910F91089580914B04882321F0E6
:1022B00081E080934A04089580916504806880934A
:1022C000650487E494E00E942C1110928B00109218
:1022D0008A0082E090E0909348048093470481E074
:1022E0008093490408950F931F938C0188E061E067
:1022F0000E94D72E87E061E00E94D72E89E061E03E
:102300000E94D72EF801868D8064868F0E94C8298E
:10231000F80161AF72AF83AF94AF0E94E32DF80173
:1023200061AB72AB83AB94AB1F910F910895BF92D9
:10233000CF92DF92EF92FF920F931F93CF93DF9391
:10234000EC01B9A42FEFB21639F465E070E080E03B
:1023500090E00E94F12D34C283E00E942F2F8C0167
:1023600084E00E942F2F7C018E8D86FF31C08C8DE2
:1023700083FD8EC00E94E32D29A93AA94BA95CA92F
:10238000621B730B840B950B695E73408040904019
:1023900008F47EC00130110509F07AC0F1E0EF16B3
:1023A000F10409F075C087E089A7CE010E942C11C5
:1023B0008E898F3F11F08F5F8E8B0E94E32D6056C8
:1023C0007444824F9F4F6E877F87888B998BE2C1C1
:1023D00027E0B21609F58A899B89AC89BD890397E4
:1023E000A105B10508F0D4C10E94E32D2E853F85DB
:1023F00048895989621773078407950708F4C8C18B
:102400008A899B89AC89BD890196A11DB11D8A8BE2
:102410009B8BAC8BBD8B3CC08C8D84FD39C0012B5C
:1024200011F0EF28A1F588E0B81661F08B8D8823B4
:1024300049F40E94E32D6F8B788F898F9A8F8B8D53
:102440008F5F8B8F0E94E32D2DA93EA94FA958AD18
:10245000621B730B840B950B695E73408040904048
:1024600078F00E94E32D2F89388D498D5A8D621B9B
:10247000730B840B950B695E73408040904018F499
:1024800028E0B21629F488E089A708E084C11B8EF1
:1024900000E091E08A81882309F43EC086E089A7A4
:1024A00089859A85AB85BC850397A105B10508F0A0
:1024B00074C186E0B81651F08D858F3F11F08F5FA3
:1024C0008D8719861A861B861C861BC00E94E32DE9
:1024D0002D813E814F8158856217730784079507C8
:1024E00008F45BC1CE0102960E941B1189859A8572
:1024F000AB85BC850196A11DB11D89879A87AB87E5
:10250000BC870E94E32D60567444824F9F4F6D83B9
:102510007E838F83988741C1992309F476C08B2DE0
:102520008650833050F480E49FE190938B00809339
:102530008A001982188219A6BB244FEFC42E43E0EB
:10254000D42E00E010E0EE24FF2481E00E948F2EC4
:102550000817190714F48C0104C08C159D050CF4A0
:102560006C010894E11CF11CE4E6EE16F10469F735
:102570008C8D282F81FD13C188819981019709F0E5
:102580000EC18FA198A5C816D90608F408C105E0A8
:1025900015C089A19AA10817190710F002E00EC012
:1025A0008BA19CA10817190740F422FF00C18DA13F
:1025B0009EA18017910708F0FAC003E00B1529F1DE
:1025C0008BA5081739F00E94E32D6CA77DA78EA775
:1025D0009FA71BC00E94E32DCCA4DDA4EEA4FFA402
:1025E000013029F02AEF30E040E050E004C029E15A
:1025F00030E040E050E06C197D098E099F096217B8
:1026000073078407950708F009A70BA789A58B1501
:1026100009F49AC08130D9F1823009F448C083307E
:10262000A1F588A9282F30E0C90106978E9760F49C
:10263000B901882777FD8095982F25E830E040E0A4
:1026400050E00E94C63215C0C901C4974D97C8F426
:10265000C901AA2797FDA095BA2F80569F4FAF4F6B
:10266000BF4F35E0880F991FAA1FBB1F3A95D1F7BE
:10267000BC0170938B0060938A0081E090E09983A5
:102680008883CE010E9473115FC0843061F4CE0153
:102690000E942C1180E49FE190938B0080938A002C
:1026A0001982188251C08630C1F1853091F5CE0172
:1026B0000E942C1188A9282F30E0C90106978E9717
:1026C00060F4B901882777FD8095982F25E830E0E0
:1026D00040E050E00E94C63215C0C901C4974D9732
:1026E00098F5C901AA2797FDA095BA2F80569F4F4C
:1026F000AF4FBF4F25E0880F991FAA1FBB1F2A9518
:10270000D1F7BC0170938B0060938A0081E090E068
:102710000DC0873011F0883061F4CE010E942C1179
:1027200010928B0010928A0082E090E09983888357
:102730000BC080E49FE190938B0080938A00198204
:102740001882CE010E942C11BAA689A58330C1F54A
:102750008E010F5B1F4FF80180819181A281B381AF
:10276000CB5BDF4F88839983AA83BB83C554D0405A
:102770000E94C82929AD3AAD4BAD5CAD621B730B0D
:10278000840B950BF801608371838283938318C057
:1027900087E089A707E090E07DCE06E036CF8F8DF9
:1027A00098A10817190708F4F4CE01E007CF8DA10E
:1027B0009EA18017910710F000E000CF04E0FECE4C
:1027C000DF91CF911F910F91FF90EF90DF90CF900D
:1027D000BF900895DC015F96E5ECF1E08AE001909E
:1027E0000D928150E1F708951F93CF93DF93EC0191
:1027F000162F8C8D623019F481608C8F03C08E7F10
:102800008C8F11E060E070E0113011F061E070E059
:1028100085EC94E00E94E722682F81508E3F20F0E3
:102820001130E9F46CE006C0663010F416E00BC01D
:10283000113029F4162F613130F010E104C0162F49
:10284000613508F010E5CE010E94EA13CE01612F38
:1028500040E00E946404DF91CF911F91089568E1E8
:10286000E7CFCF93DF93EC016C81662321F4809155
:1028700063048F7D07C087E494E00E94F413809185
:10288000630480628093630484E994E060E070E014
:1028900041E050E020E031E00E94A605EC81F0E04C
:1028A000EE0FFF1FE952FE4F6081718184E994E0D1
:1028B0000E94BA0585EC94E062E070E04091630408
:1028C0000E94EE2264EF71E080E090E00E94F12D22
:1028D00088E993E0DF91CF9108950F931F93CF93F1
:1028E000DF938C0181E0F8018283118286E061E050
:1028F0000E94B12EC0E0D0E086E061E00E94D72EB9
:1029000080E49FE10E944A2E86E060E00E94D72E7C
:1029100080E49FE10E944A2EF8018181882321F4FE
:102920002196C233D10541F76AEF70E080E090E074
:102930000E94F12DF8011282DF91CF911F910F912A
:102940000895AF92BF92CF92DF92EF92FF920F93D2
:102950001F937C016B015A018C01045F1F4FC8015A
:10296000B9010E94BC01C701B601A50198010E94EE
:10297000A6051F910F91FF90EF90DF90CF90BF9031
:10298000AF900895CF92DF92EF92FF920F931F9333
:102990007C016B018C01045F1F4FC801BA010E94CA
:1029A000BC01C701B601A8010E94D6081F910F9172
:1029B000FF90EF90DF90CF9008950F931F938C01BD
:1029C00084E994E060E070E041E050E020E031E034
:1029D0000E94A605D8011496EC91F0E0EE0FFF1FBF
:1029E000EF50FE4F6081718184E994E00E94BA0546
:1029F00064EF71E080E090E00E94F12DF8018481A5
:102A00008823A1F484E994E061E070E048E652E0B4
:102A10000E94C2142EE088E190E00FB6F894A895C9
:102A2000809360000FBE20936000FFCF80E090E0B5
:102A30001F910F910895EF92FF920F931F938C01B6
:102A400074E9E72E74E0F72EC70160E070E041E41E
:102A500051E00E94C2142091BE04D80114962C9318
:102A6000EDB7FEB738970FB6F894FEBF0FBEEDBFB7
:102A7000319607E014E0ADB7BEB712961C930E93E3
:102A8000119780919802909199029383828380910B
:102A9000BD0484831582268317820E94C301EDB78B
:102AA000FEB738960FB6F894FEBF0FBEEDBFC70154
:102AB00061E070E0A8010E94D6081F910F91FF907D
:102AC000EF900895EF92FF920F931F938C01E4E92A
:102AD000EE2EE4E0FE2EC70160E070E045E251E03A
:102AE0000E94C2142091BE04D80114962C93EDB715
:102AF000FEB738970FB6F894FEBF0FBEEDBF319604
:102B000007E014E0ADB7BEB712961C930E93119771
:102B10008091980290919902938382838091BD0461
:102B200084831582268317820E94C301EDB7FEB706
:102B300038960FB6F894FEBF0FBEEDBFC70161E037
:102B400070E0A8010E94D6081F910F91FF90EF90AE
:102B50000895EF92FF920F931F938C01F4E9EF2EEB
:102B6000F4E0FF2EC70160E070E043E351E00E9413
:102B7000C2142091B4042093BD043091B504309365
:102B8000BE04D80114962C93EDB7FEB738970FB654
:102B9000F894FEBF0FBEEDBF319607E014E0ADB76D
:102BA000BEB712961C930E93119780919602909146
:102BB00097029383828324831582368317820E942F
:102BC000C301EDB7FEB738960FB6F894FEBF0FBE3F
:102BD000EDBFC70161E070E0A8010E94D6081F9117
:102BE0000F91FF90EF900895EF92FF920F931F9334
:102BF0008C01A4E9EA2EA4E0FA2EC70160E070E09F
:102C000046E151E00E94C2142091B2042093BD0419
:102C10003091B3043093BE04D80114962C93EDB7D1
:102C2000FEB738970FB6F894FEBF0FBEEDBF3196D2
:102C300007E014E0ADB7BEB712961C930E93119740
:102C400080919602909197029383828324831582C8
:102C5000368317820E94C301EDB7FEB738960FB6D0
:102C6000F894FEBF0FBEEDBFC70161E070E0A801A0
:102C70000E94D6081F910F91FF90EF900895CF9377
:102C8000DF93EC0190E08091B104882309F491E096
:102C90009C8384E994E060E070E04AE051E00E94A7
:102CA000C21484E994E061E070E00E940F0784E9B7
:102CB00094E060E070E041E050E020E031E00E940C
:102CC000A605EC81F0E0EE0FFF1FEF50FE4F608194
:102CD000718184E994E00E94BA05DF91CF91089553
:102CE0000F931F93FC01148204E914E0C80160E013
:102CF00070E04AE051E00E94C2144091900250916D
:102D00009102C80161E070E00E94D6081F910F9106
:102D10000895EF92FF920F931F938C0184E9E82EA0
:102D200084E0F82EC70160E070E04FEF50E00E94B1
:102D3000C2142091BE04D80114962C93EDB7FEB7AF
:102D40003E970FB6F894FEBF0FBEEDBF319607E079
:102D500014E0ADB7BEB712961C930E93119786E799
:102D600092E0938382838091BB0484831582809157
:102D7000BC04868317828091B9049091BA0491872C
:102D800080878091BD0482871386248715860E94E0
:102D9000C301EDB7FEB73E960FB6F894FEBF0FBE67
:102DA000EDBFC70161E070E0A8010E94D6081F9145
:102DB0000F91FF90EF900895EF92FF920F931F9362
:102DC0008C0194E9E92E94E0F92EC70160E070E0EF
:102DD00046EF50E00E94C2142091BD04D801149621
:102DE0002C93EDB7FEB73E970FB6F894FEBF0FBE1B
:102DF000EDBF319607E014E0ADB7BEB712961C9355
:102E00000E9311978CE592E0938382838091BB04AB
:102E1000848315828091BC04868317828091B904D3
:102E20009091BA0491878087228713868091BE048F
:102E3000848715860E94C301EDB7FEB73E960FB694
:102E4000F894FEBF0FBEEDBFC70161E070E0A801BE
:102E50000E94D6081F910F91FF90EF9008950F9355
:102E60001F93CF93DF93EC0184E994E060E070E07E
:102E70004DEE50E00E94C2148091B9048C838C50B6
:102E8000893040F08CE08C838CE090E09093BA0421
:102E90008093B9048DB79EB70E970FB6F8949EBF76
:102EA0000FBE8DBFEDB7FEB7319607E014E0ADB7AA
:102EB000BEB712961C930E93119782E492E093830F
:102EC00082838091BB04848315828091BC048683B5
:102ED00017828C81808711868091BD04828713863A
:102EE0008091BE04848715860E94C3018DB79EB76A
:102EF0000E960FB6F8949EBF0FBE8DBF84E994E086
:102F000061E070E0A8010E94D608DF91CF911F9187
:102F10000F910895EF92FF920F931F938C0124E974
:102F2000E22E24E0F22EC70160E070E045EE50E0B2
:102F30000E94C2142091BC04D80114962C93EDB7C2
:102F4000FEB73E970FB6F894FEBF0FBEEDBF3196A9
:102F500007E014E0ADB7BEB712961C930E9311971D
:102F600088E292E0938382838091BB0484831582FC
:102F7000268317828091B9049091BA049187808743
:102F80008091BD04828713868091BE048487158654
:102F90000E94C301EDB7FEB73E960FB6F894FEBF90
:102FA0000FBEEDBFC70161E070E0A8010E94D60826
:102FB0001F910F91FF90EF9008950F931F93DF9350
:102FC000CF9300D000D000D0CDB7DEB78C0184E91C
:102FD00094E060E070E04BED50E00E94C2140E946B
:102FE000322629833A834B835C836D837E83AFEBE8
:102FF000B4E0FE01319686E001900D928150E1F738
:103000003091C0043093BB047091C1047093BC0430
:103010002091BF0460E02093B9046093BA0440910A
:10302000C2044093BD045091C3045093BE04D80120
:1030300014963C93EDB7FEB73E970FB6F894FEBFDB
:103040000FBEEDBF319607E014E0ADB7BEB71296E4
:103050001C930E9311978EE092E0938382833483C6
:10306000158276831782208761874287138654876B
:1030700015860E94C301EDB7FEB73E960FB6F894D1
:10308000FEBF0FBEEDBF84E994E061E070E0A801EF
:103090000E94D60826960FB6F894DEBF0FBECDBFAD
:1030A000CF91DF911F910F9108950F931F93FC0112
:1030B000148204E914E0C80160E070E049E552E0E0
:1030C0000E94C2144091F1015091F201C80161E0E7
:1030D00070E00E94D6081F910F9108950F931F93DF
:1030E000FC01148204E914E0C80160E070E04EE4E1
:1030F00052E00E94C2144091F1015091F201C801C6
:1031000061E070E00E94D6081F910F910895EF9240
:10311000FF920F931F938C0154E9E52E54E0F52E96
:10312000FC0142815381C70160E070E00E94C2143B
:103130008091630490E043E0969587954A95E1F786
:103140008170F801848300D000D000D0ADB7BEB745
:10315000119607E014E0EDB7FEB71283018324E275
:1031600031E013963C932E931297E82FF0E0EE0F88
:10317000FF1FEF50FE4F8081918115969C938E9397
:1031800014970E94C3018DB79EB706960FB6F894A8
:103190009EBF0FBE8DBFC70161E070E0A8010E9415
:1031A000D6081F910F91FF90EF900895EF92FF9234
:1031B0000F931F938C01E4E9EE2EE4E0FE2EFC0158
:1031C00042815381C70160E070E00E94C214809187
:1031D000630490E096958795969587958170F801A0
:1031E000848300D000D000D0ADB7BEB7119607E001
:1031F00014E0EDB7FEB71283018324E231E01396A9
:103200003C932E931297E82FF0E0EE0FFF1FEF5044
:10321000FE4F8081918115969C938E9314970E9406
:10322000C3018DB79EB706960FB6F8949EBF0FBE2A
:103230008DBFC70161E070E0A8010E94D6081F9110
:103240000F91FF90EF900895EF92FF920F931F93CD
:10325000CF93DF938C0194E9E92E94E0F92ED80105
:1032600012964D915C911397C70160E070E00E9447
:10327000C214E0916404E170E801EC8300D000D056
:1032800000D0ADB7BEB7119607E014E0CDB7DEB7FA
:103290001A83098384E291E013969C938E9312978C
:1032A000F0E0EE0FFF1FEF50FE4F808191811596E9
:1032B0009C938E9314970E94C301EDB7FEB7369688
:1032C0000FB6F894FEBF0FBEEDBFC70161E070E01E
:1032D000A8010E94D608DF91CF911F910F91FF9016
:1032E000EF900895EF92FF920F931F938C0144E9A2
:1032F000E42E44E0F42EFC0142815381C70160E0DA
:1033000070E00E94C2148091630490E096958795C6
:103310008170F801848300D000D000D0ADB7BEB773
:10332000119607E014E0EDB7FEB71283018324E2A3
:1033300031E013963C932E931297E82FF0E0EE0FB6
:10334000FF1FEF50FE4F8081918115969C938E93C5
:1033500014970E94C3018DB79EB706960FB6F894D6
:103360009EBF0FBE8DBFC70161E070E0A8010E9443
:10337000D6081F910F91FF90EF900895CF93DF93A0
:10338000EC014A815B8184E994E060E070E00E9496
:10339000C2148091630485FD02C01C8206C080FDBA
:1033A00002C081E001C082E08C8384E994E061E0A6
:1033B00070E00E940F0784E994E060E070E041E073
:1033C00050E020E031E00E94A605EC81F0E0EE0F35
:1033D000FF1FE952FE4F6081718184E994E00E94F1
:1033E000BA05DF91CF910895FC0184818F5F8483BA
:1033F0008B3008F014828481843079F1853048F470
:103400008130E1F08130A8F08230E9F0833071F44E
:103410001FC0873089F1883028F4853019F1863053
:1034200029F425C0883069F1893069F14CEC50E00D
:103430002EC040919F035091A00329C04091A40346
:103440005091A50324C04091AD035091AE031FC01D
:103450004091B7035091B8031AC04091BC035091FA
:10346000BD0315C04091B2035091B30310C0409109
:10347000C6035091C7030BC04091E4035091E5038C
:1034800006C089E084834091C1035091C20384E95E
:1034900094E061E070E00E94C21408950F931F93BE
:1034A000FC01148204E914E042815381C80160E008
:1034B00070E00E94C21440919F035091A003C80184
:1034C00061E070E00E94C2141F910F910895EF9285
:1034D000FF920F931F938C019B017A0160E070E0D3
:1034E000A9010E94C214C80161E070E0A7010E9416
:1034F000C2141F910F91FF90EF9008956F927F92E9
:103500008F929F92AF92BF92CF92DF92EF92FF92F3
:103510000F931F93CF93DF936C0180E49FE190930F
:103520008B0080938A00F6011182108285E061E0B1
:103530000E94D72E84E994E06EE471E047E551E003
:103540000E94671AF601848D85FDE0C081E00E942B
:103550008F2E10928B0010928A0022E030E0F6014C
:1035600031832083855893400CF4D0C083E00E94BF
:103570002F2F8C0184E00E942F2F7C0188E061E0D6
:103580000E94D72E89E061E00E94D72E6AEF70E09A
:1035900080E090E00E94F12D83E00E942F2F3C01FB
:1035A00084E00E942F2F4C0188E060E00E94D72E1B
:1035B00089E060E00E94D72E6AEF70E080E090E042
:1035C0000E94F12D87E061E00E94D72E6AEF70E043
:1035D00080E090E00E94F12D83E00E942F2F5C019B
:1035E00084E00E942F2FEC0187E060E00E94D72E3C
:1035F0006AEF70E080E090E00E94F12D000F111F53
:103600000E0D1F1D0330110509F0BFC0C301880F47
:10361000991F880D991D9501220F331F2C0F3D1FF7
:103620008330910534F4813091052CF5892B31F0EC
:1036300002C0039751F0C0E0D0E03AC0233031051A
:1036400009F0A3C0C2E0D0E036C02330310519F440
:10365000C3E0D0E008C02115310519F4C2E0D0E084
:1036600002C0C0E0D0E02150304022303105A8F443
:10367000C1E0D0E015C02330310519F4C1E0D0E03D
:1036800002C0C4E0D0E0019721F42230310529F4D2
:1036900076C02130310509F475C0C130D10541F43F
:1036A00084E994E061E671E04DE651E00E94671A1A
:1036B000C230D10541F484E994E061E671E04BE762
:1036C00051E00E94671ACE010397029728F484E91B
:1036D00094E061E00E94972BC330D10529F484E97E
:1036E00094E069E971E007C0C430D10541F484E990
:1036F00094E069E871E04AEA51E00E94671A64EFD9
:1037000071E080E090E00E94F12D02C0C0E0D0E0C6
:10371000F601858D80FD16C03BC084E994E061E030
:103720000E94972B84E994E068EB70E04AEA51E04C
:103730000E94671A64EF71E080E090E00E94F12D32
:10374000C5E0D0E085E060E00E94D72E80E49FE1F4
:1037500090938B0080938A00F601118210828C2F47
:10376000DF91CF911F910F91FF90EF90DF90CF905D
:10377000BF90AF909F908F907F906F900895C2E020
:10378000D0E08BCFC2E0D0E093CFC4E0D0E090CFC8
:10379000C60102960E946D14F6018381882391F67A
:1037A000BCCF0F931F93CF93DF93EC0188858823C1
:1037B00051F08E01045F1F4FC8010E94BC01CE0171
:1037C000B8010E94F630DF91CF911F910F910895BB
:1037D0008F929F92AF92BF92CF92DF92EF92FF9221
:1037E0000F931F93DF93CF9300D000D000D0CDB7BD
:1037F000DEB7D82EC92E109170048091630480FD2D
:1038000003C0BB24B39402C0B2E0BB2E0E94322698
:1038100029833A834B835C836D837E83AFEBB4E073
:10382000FE01319686E001900D928150E1F7909172
:10383000700480917104981709F471C18DB79EB717
:1038400008970FB6F8949EBF0FBE8DBFEDB7FEB7B9
:103850003196A7E0EA2EA4E0FA2EADB7BEB71296D5
:10386000FC92EE9211978FEC91E093838283B48265
:10387000158280917704868317820E94C3018DB7D9
:103880009EB708960FB6F8949EBF0FBE8DBF153039
:1038900009F4C2C0163080F4123009F44BC0133062
:1038A00020F4113009F033C114C0133009F475C08D
:1038B000143009F02CC19CC0173009F4D7C0173060
:1038C00008F4BEC0183009F4E5C01F3F09F01FC15D
:1038D000F7C08DE061E00E94D72E85E060E00E9495
:1038E000D72E8D2D9C2D62E00E94972B8D2D9C2D27
:1038F0000E94F32B8D2D9C2D60E040E00E94462B12
:1039000081EB94E00E94C2048D2D9C2D6FE372E048
:103910000E94D11B8D2D9C2D6AE070E040E050E0AC
:1039200097010E94A6058D2D9C2D61E070E046E177
:1039300052E030C08DE061E00E94D72E85E061E06A
:103940000E94D72E8D2D9C2D63E00E94972B8D2DEC
:103950009C2D0E94F32B8D2D9C2D60E040E00E9459
:10396000462B81EB94E00E94C2048D2D9C2D6FE3C9
:1039700072E00E94D11B8D2D9C2D6AE070E040E02A
:1039800050E097010E94A6058D2D9C2D61E070E00E
:1039900049E052E00E94C2143EC28DE060E00E9405
:1039A000D72E85E060E00E94D72E8D2D9C2D66E0FD
:1039B0000E94972B8D2D9C2D0E94F32B8D2D9C2DDD
:1039C00060E040E00E94462B81EB94E00E94C2043C
:1039D0008D2D9C2D65E472E00E94D11B8D2D9C2DB8
:1039E0006AE070E040E050E097010E94A6059AC0AE
:1039F0008DE060E00E94D72E85E061E00E94D72E26
:103A00008D2D9C2D61E00E94972B8D2D9C2D66EBBA
:103A100071E041EC51E051C08DE060E00E94D72E92
:103A200085E061E00E94D72E8D2D9C2D61E00E94E3
:103A3000972B8D2D9C2D66EB71E04FEC51E03DC036
:103A40008DE060E00E94D72E85E061E00E94D72ED5
:103A50008D2D9C2D61E00E94972B8D2D9C2D66EB6A
:103A600071E040EE51E00E94671AC7C08DE060E04F
:103A70000E94D72E85E061E00E94D72E8D2D9C2DCF
:103A800061E00E94972B8D2D9C2D66EB71E04BEE33
:103A900051E013C08DE060E00E94D72E85E061E028
:103AA0000E94D72E8D2D9C2D61E00E94972B8D2D8D
:103AB0009C2D66EB71E045EF51E00E94671AABC1A7
:103AC0008DE060E00E94D72E85E061E00E94D72E55
:103AD0008D2D9C2D67E00E94972B8D2D9C2D0E9493
:103AE000F32B8D2D9C2D60E040E00E94462B8D2D08
:103AF0009C2D61E072E00E94D11B8D2D9C2D6AE00F
:103B000070E040E050E097010E94A60579C08DE08A
:103B100060E00E94D72E85E061E00E94D72E13302E
:103B200009F06BC0E0908804F090890400918A0449
:103B300010918B0480918C0490918D04A0918E043F
:103B4000B0918F04E816F9060A071B0709F463C150
:103B5000C801B7010E9495294C01C801B7010E9414
:103B60008F295C01C801B7010E9489297C010E944C
:103B7000322629833A834B835C836D837E83AFEB4C
:103B8000B4E0FE01319686E001900D928150E1F79C
:103B9000ADB7BEB71E970FB6F894BEBF0FBEADBF90
:103BA000EDB7FEB7319607E014E012961C930E9322
:103BB000119788E291E09383828395828482B78211
:103BC000A682F186E0868091C20482871386809166
:103BD000C304848715860E94C3018DB79EB70E96D5
:103BE0000FB6F8949EBF0FBE8DBF8D2D9C2D61E04A
:103BF00070E0A8010E94D6080EC11F3F09F00BC15A
:103C00008091050490910604892B09F004C18D2D43
:103C10009C2D60E040E00E94462B81EB94E00E94E6
:103C2000C2048D2D9C2D61E072E00E94D11B0E9488
:103C3000322629833A834B835C836D837E83AFEB8B
:103C4000B4E0FE01319686E001900D928150E1F7DB
:103C5000ADB7BEB71A970FB6F894BEBF0FBEADBFD3
:103C6000EDB7FEB7319607E014E012961C930E9361
:103C7000119783E491E0938382838091C2048483CB
:103C800015828091C304868317828091C404808743
:103C900011860E94C3018DB79EB70A960FB6F8949D
:103CA0009EBF0FBE8DBF8D2D9C2D60E070E041E06A
:103CB00050E098010E94A6058091B104882309F480
:103CC0007EC08D2D9C2D69E040E00E94462B8D2DFD
:103CD0009C2D62E00E94032B8D2D9C2D60E00E94A4
:103CE000032BADB7BEB718970FB6F894BEBF0FBE83
:103CF000ADBFEDB7FEB7319612961C930E93119798
:103D00008091C3019091C401938382838091B20416
:103D1000848315828091B304868317820E94C30135
:103D20008DB79EB708960FB6F8949EBF0FBE8DBF95
:103D30008D2D9C2D6BE070E040E050E098010E94DA
:103D4000A6058D2D9C2D69E041E00E94462B8D2D0E
:103D50009C2D61E00E94032B8D2D9C2D60E00E9424
:103D6000032BADB7BEB718970FB6F894BEBF0FBE02
:103D7000ADBFEDB7FEB7319612961C930E93119717
:103D80008091C3019091C401938382838091B40494
:103D9000848315828091B504868317820E94C301B3
:103DA0008DB79EB708960FB6F8949EBF0FBE8DBF15
:103DB0008D2D9C2D6BE070E041E050E029C0ADB747
:103DC000BEB718970FB6F894BEBF0FBEADBFEDB724
:103DD000FEB7319612961C930E93119782E591E0EF
:103DE00093838283B48215828091770486831782BD
:103DF0000E94C3018DB79EB708960FB6F8949EBF78
:103E00000FBE8DBF8D2D9C2D6AE070E040E050E02C
:103E100098010E94A60526960FB6F894DEBF0FBE45
:103E2000CDBFCF91DF911F910F91FF90EF90DF9069
:103E3000CF90BF90AF909F908F900895FF920F9377
:103E40001F938C01FF24FA94FC01F1A60E942C110F
:103E500010928B0010928A0082E090E0F80191832A
:103E6000808384E994E00E94E81BF801F2A61F9188
:103E70000F91FF900895FF920F931F93DF93CF93BD
:103E800000D000D000D0CDB7DEB78C01DC01179692
:103E90008C91813009F0A6C00E94322629833A8392
:103EA0004B835C836D837E83AFEBB4E0FE01319680
:103EB00086E001900D928150E1F78091C204F801F3
:103EC0008583F090C304F6828081882309F488C03A
:103ED0002181222351F48281882339F4838188232C
:103EE00021F48481882309F47BC0D80113965C9166
:103EF0001397251741F412969C91129714968C9162
:103F0000981709F46DC0F801828146E0849FF001A2
:103F10001124822F90E028E631E0BC01629FC001AD
:103F2000639F900D729F900D1124E80FF91FD80127
:103F300014968C91849FB0011124852F90E0DC01B0
:103F4000A29FC001A39F900DB29F900D1124680FF6
:103F5000791FF49EA0011124D80115968C9190E050
:103F6000DC01A29FC001A39F900DB29F900D112470
:103F7000480F591F6E177F0768F44E175F0718F038
:103F80004617570768F4E417F50718F16417750723
:103F900000F106C04E175F07E0F046175707C8F458
:103FA000209170042F3FE1F4809105049091060464
:103FB000892BB1F4209371041092700480E49FE186
:103FC00090938B0080938A001092480410924704CB
:103FD00007C04617570721F487E494E00E941E1F8C
:103FE000F801178226960FB6F894DEBF0FBECDBF3C
:103FF000CF91DF911F910F91FF9008950F931F9321
:10400000CF93DF93EC010E94AF108881813079F467
:1040100089819A81AB81BC810097A105B10509F026
:104020007AC01882AD81BE81109729F40DC082300C
:1040300009F071C013C0ED91FC9111970280F381DA
:10404000E02DCD01099567C0809170048F3F09F480
:1040500048C087E494E00E941E1F5DC089819A8158
:10406000AB81BC810097A105B10509F454C0198248
:104070001A821B821C82AD81BE81109709F440C058
:10408000ED91FC9111970480F581E02DCD0109950A
:10409000DC019E838D830097D9F083E0A839B807AF
:1040A00019F414960C911497ED91FC9111970190CD
:1040B000F081E02DCD010995ED81FE8183E0E839A5
:1040C000F80749F501500483CF010E94F41923C079
:1040D0008091B104882321F081E08093B8041BC053
:1040E0008FEF809371041092700480E49FE19093AD
:1040F0008B0080938A0010924804109247040BC0F2
:1041000087E494E00E941E1F08E913E0C8010E94A2
:104110004E1A1E830D83DF91CF911F910F91089549
:10412000EF92FF920F931F93CF93DF93EC0188E000
:1041300061E00E94B12E87E061E00E94B12E89E02B
:1041400061E00E94B12E83E060E00E94B12E84E025
:1041500060E00E94B12E83E061E00E94D72E84E0EF
:1041600061E00E94D72ECE010E942C111092800097
:1041700020E43FE1309387002093860081E1809323
:104180008100229A80918000806280938000309329
:104190008B0020938A001982188285EC94E062E0FB
:1041A00070E00E94E7228F3F11F41C8E05C08C8FB7
:1041B00080FD02C011E001C012E085EC94E068E0EF
:1041C00070E00E94E7228F3F11F41D8E01C08D8F99
:1041D0001E8E19861A861B861C861D861A8A1B8AC5
:1041E0001C8A1D8A1E8A1B8E19A61AA687E0E82E35
:1041F00008E0F02E09E0CE010E947E1A282F8C8D57
:10420000982F85FD05C0822F8150823008F4122F2F
:1042100093FD05C0233019F4E9A691E001C090E0B8
:104220008C8D84FD04C0243011F4F9A691E08D8DAD
:1042300080FD03C036C009A702C0992369F060EA77
:104240007BEB8DE090E00E94F12D89A5893099F2F9
:10425000873089F2883079F2CE01612F0E94F41301
:10426000CE0102960E941B118C8D86FD0CC08FEF33
:104270008AA719A680E49FE190938B0080938A001F
:104280001982188203C0CE010E941E1F8DE060E0DB
:104290000E94D72EDF91CF911F910F91FF90EF9049
:1042A0000895253051F6C7CF87E494E00E94971116
:1042B00084E994E00E94E81B80E094E00E94FE1FE5
:1042C00081EB94E00E943B1F0895EF92FF920F93C1
:1042D0001F938C018DE061E00E94B12E85E061E0CA
:1042E0000E94B12E8DE060E00E94D72E85E060E054
:1042F0000E94D72E81E0F8018387C80160E142E087
:1043000022E00E94002CC80167E00E94972B97E0F2
:10431000E92E94E0F92EC70167E272E048E050E030
:104320000E94B301C80160E0A7010E940B2BC701E6
:104330006FE272E048E050E00E94B301C80161E022
:10434000A7010E940B2BC70167E372E048E050E031
:104350000E94B301C80162E0A7010E940B2BC801B3
:104360000E94F32BC80160E070E042E852E00E9436
:10437000C214C80160E070E041E050E029E732E09B
:104380000E94A114C80168E670E00E94D11BC80118
:1043900065E772E00E94D11B60E273E080E090E08C
:1043A0000E94F12D1F910F91FF90EF9008958CE0E6
:1043B00095E00E945D230E94302681EB94E00E94EC
:1043C0001E0584E994E00E94652187E494E00E9440
:1043D0009020089588E10FB6F894809360001092C1
:1043E00060000FBE84E396E040E056E960E070E0D4
:1043F0000E94B32F80E064E571E143E050E00E9449
:104400001E2D0E94D72180E094E00E941211089591
:1044100060E241E00E943B2A089581E693E0909398
:104420009903809398038EE690E090939B0380938A
:104430009A0387E593E090939E0380939D0384E71E
:1044400090E09093A00380939F038DE493E090937A
:10445000A3038093A20382E890E09093A503809346
:10446000A40383E493E09093AC038093AB038EE8C2
:1044700090E09093AE038093AD0389E393E0909333
:10448000B1038093B00388EB90E09093B3038093E3
:10449000B2038FE293E09093B6038093B5038AE969
:1044A00090E09093B8038093B70385E293E09093F4
:1044B000BB038093BA038BEA90E09093BD03809393
:1044C000BC038BE193E09093C0038093BF0386EC21
:1044D00090E09093C2038093C10381E193E09093B5
:1044E000C5038093C40321ED30E03093C7032093CC
:1044F000C60387E093E09093CA038093C9038DEFCE
:1045000092E09093CF038093CE033093D103209316
:10451000D00383EF92E09093D4038093D30389EE8A
:1045200092E09093D9038093D8038FED92E090931B
:10453000DE038093DD0385ED92E09093E3038093A7
:10454000E2032AE031E03093E5032093E4038BECAF
:1045500092E09093E8038093E7033093EA0320937B
:10456000E90381EC92E09093ED038093EC0387EBF9
:1045700092E09093F2038093F1038DEA92E090939E
:10458000F7038093F60383EA92E09093FC03809311
:10459000FB03109200041092010410920204109286
:1045A000030410920404109206041092050484E996
:1045B00094E00E94082281E08093B8048FEB94E09D
:1045C00040E050E060E070E00E948B250895F9998A
:1045D000FECF72BD61BDF89A80B50895F999FECFFE
:1045E0001FBA72BD61BD40BD0FB6F894FA9AF99A30
:1045F0000FBE089581E080930B056093E80410924C
:10460000090510920A0508959091E6048091E70447
:10461000981710F080E00895E92FF0E0EA53FB4F7F
:1046200080819F5F9093E60408950895DF93CF9370
:104630000F92CDB7DEB7698380910B05882389F08F
:1046400080910A05803290F480910905E82FF0E00E
:10465000E751FB4F60838F5F8093090580930A05C4
:1046600005C0CE01019661E00E94F5230F90CF9125
:10467000DF9108950E94162308958091E80469EE61
:1046800074E040910A0521E00E94B22310920905CE
:1046900010920A0510920B050895413208F040E28D
:1046A000862F66EC74E00E947B231092E6048093D0
:1046B000E70408950E944D2308951092E604109295
:1046C000E7041092090510920A050E9468230895D4
:1046D00010920D05449A459AE9EBF0E080818E7FB7
:1046E000808380818D7F808388E48093B80085E417
:1046F0008093BC000895982F413210F040E030C004
:1047000080910D058823E1F781E080930D058FEFFF
:1047100080937805109233054150409334054F5FE4
:10472000990F916090930E0585EE8093BC00809167
:104730000D058130E1F380913305841710F4409129
:10474000330520E030E00AC0FB01E20FF31FD9017E
:10475000AD5EBA4F8C9180832F5F3F4F2417A0F33B
:10476000842F08951F93582F122F413210F081E0AB
:104770003AC080910D058823E1F782E080930D0512
:104780008FEF809378051092330540933405A3E1B1
:10479000B5E0FB0102C081918D938E2F861B84179B
:1047A000D0F3852F90E0880F991F80930E0585EE3A
:1047B0008093BC00112321F080910D058230E1F33C
:1047C000809178058F3F11F480E00DC080917805CD
:1047D000803211F482E007C080917805803311F0B7
:1047E00084E001C083E01F910895482F613210F0EA
:1047F00081E0089580910D05843011F082E00895E4
:1048000060935605A5E3B5E0842F9C01F90102C031
:1048100081918D938E2F841B8617D0F380E00895AD
:104820001F920F920FB60F9211242F933F934F9325
:104830005F936F937F938F939F93AF93BF93EF9308
:10484000FF938091B90090E0887F90708036910549
:1048500009F4DCC081369105CCF58832910509F464
:104860007BC089329105B4F48031910509F46FC0A1
:10487000813191053CF4009709F431C1089709F0A2
:1048800039C165C08831910509F466C0809709F087
:1048900031C17DC08034910509F49FC081349105F8
:1048A00044F48033910509F47DC0C89709F022C112
:1048B00084C08035910509F484C08835910509F4D8
:1048C00091C08834910509F015C198C088399105C7
:1048D00009F4FDC089399105ECF48837910509F494
:1048E00095C0893791054CF48836910509F48EC03E
:1048F0008037910509F0FEC089C08838910509F418
:10490000E6C08039910509F487C08038910509F027
:10491000F1C082C0803B910509F4B0C0813B910594
:104920004CF4803A910509F489C0883A910509F060
:10493000E1C0A4C0803C910509F4CDC0883C91053C
:1049400009F4C9C0883B910509F0D4C0ACC080917E
:104950000E058093BB00B9C090913305809134055A
:10496000981768F490913305E92FF0E0ED5EFA4F67
:1049700080818093BB009F5F90933305A6C085ED37
:104980008093BC008091BC0084FDFCCFB1C080E26C
:104990008093780585ED8093BC008091BC0084FDF8
:1049A000FCCFA6C080E38093780585ED8093BC00A2
:1049B0008091BC0084FDFCCF9BC088E38093780588
:1049C0008AC0809133059091BB00E82FF0E0ED5E46
:1049D000FA4F90838F5F80933305909133058091D8
:1049E000340571C0809133059091BB00E82FF0E051
:1049F000ED5EFA4F90838F5F8093330585ED809352
:104A0000BC008091BC0084FDFCCF72C083E0809329
:104A10000D051092770559C080917705803208F016
:104A200056C0809177059091BB00E82FF0E0E95ADD
:104A3000FA4F90838F5F8093770547C08091770509
:104A4000803230F4E0917705F0E0E95AFA4F1082B5
:104A500085ED8093BC008091BC0084FDFCCF10925A
:104A60000D0560917705E0911105F091120587E53C
:104A700095E070E00995109277052DC084E0809351
:104A80000D051092550510925605E0910F05F09115
:104A90001005099580915605882329F481E08093BB
:104AA00056051092350590915505E92FF0E0EB5C25
:104AB000FA4F80818093BB009F5F90935505909142
:104AC000550580915605981710F485EC01C085E8CE
:104AD0008093BC000FC085EC8093BC0009C010928D
:104AE000780585ED8093BC008091BC0084FDFCCFEF
:104AF00010920D05FF91EF91BF91AF919F918F9112
:104B00007F916F915F914F913F912F910F900FBEC9
:104B10000F901F901895EF92FF920F931F93CF93D2
:104B2000DF93EC017A018B0180E89CEBA2E9B7EC02
:104B3000E80EF91E0A1F1B1FC801B7012CE330E065
:104B400040E050E00E9418336D83C801B7012CE3A8
:104B500030E040E050E00E941833122F032FF42E73
:104B6000E52E622F732F842F952F2CE330E040E049
:104B700050E00E9418336C83612F702F8F2D9E2D73
:104B80002CE330E040E050E00E941833122F032F56
:104B9000F42EE52E622F732F842F952F28E130E01D
:104BA00040E050E00E9418336B83612F702F8F2DEF
:104BB0009E2D28E130E040E050E00E94183360E094
:104BC000A3E9BEEF70E0862F90E083709070892B90
:104BD00009F471E0E62FEF5F472F50E0CA018359D7
:104BE0009E4F2817390738F0CD01841B950B280FED
:104BF000391F6E2FE7CF688341E0E42FF0E0EE56D7
:104C0000FD4F8491772319F0423009F48F5F90E0D3
:104C1000542F5F5F2817390720F0281B390B452FC9
:104C2000ECCF4983822F8F5F8A83DF91CF911F91D1
:104C30000F91FF90EF900895CF92EF920F93FC01A8
:104C400087E0603D780710F0605D774060834183C6
:104C500022830383E482C5820F91EF90CF90089561
:104C600081E00895BF92CF92DF92EF92FF920F936F
:104C70001F93DF93CF9300D000D000D0CDB7DEB725
:104C80000CE015E0C80168E670E00E94FA2260912D
:104C9000790570917A05C8010E943A23C8010E94E3
:104CA0003D23C80168E670E047E050E00E945A23C7
:104CB000C8010E9404239FE7B92EB822C8010E94B0
:104CC0000423C82EC8010E940423D82EC8010E94C4
:104CD0000423C8010E940423E82EC8010E94042373
:104CE000F82EC8010E940423282F30E0B4E0359547
:104CF0002795BA95E1F74AEF5FEFB901649F9001FC
:104D0000659F300D749F300D1124820F90E02B2D84
:104D100030E0A4E035952795AA95E1F7B901649FA5
:104D20009001659F300D749F300D1124B20E2C2D13
:104D300030E0F4E035952795FA95E1F7B901649FE5
:104D40009001659F300D749F300D1124C20E2D2DE2
:104D500030E0E4E035952795EA95E1F7B901649FE5
:104D60009001659F300D749F300D1124D20E2E2DB1
:104D700030E074E0359527957A95E1F7B901649FA5
:104D80009001659F300D749F300D1124E20E2F2D80
:104D900030E064E0359527956A95E1F7B901649FA5
:104DA0009001659F300D749F300D1124F20E282F55
:104DB0003F2D4E2D5D2D6C2D7B2D80E026960FB660
:104DC000F894DEBF0FBECDBFCF91DF911F910F9141
:104DD000FF90EF90DF90CF90BF900895DF92EF9219
:104DE000FF920F931F937C010CE015E0C80168E669
:104DF00070E00E94FA226091790570917A05C801ED
:104E00000E943A23F7012581822F6AE00E94E53251
:104E100046E0D42E8D9DC0011124280FC801622FB9
:104E20000E941623F7012481822F6AE00E94E53256
:104E30008D9DC0011124280FC801622F0E941623E6
:104E4000F7012381822F6AE00E94E5328D9DC00127
:104E50001124280FC801622F0E941623C80160E0A8
:104E60000E941623F7012281822F6AE00E94E53218
:104E70008D9DC0011124280FC801622F0E941623A6
:104E8000F7012181822F6AE00E94E5328D9DC001E9
:104E90001124280FC801622F0E941623F7012081D8
:104EA000822F6AE00E94E5328D9DC0011124280FF7
:104EB000C801622F0E9416236091790570917A05CE
:104EC000C8010E943A23C8010E943D231F910F91FF
:104ED000FF90EF90DF9008950F931F936115710578
:104EE0008105910569F481E090E0A0E0B0E0809355
:104EF0007B0590937C05A0937D05B0937E0508C04B
:104F000060937B0570937C0580937D0590937E056F
:104F10001093800500937F05809170008E7F8093B1
:104F200070008091B0008C7F8093B0008091B100C0
:104F3000877F8093B1008091B6008F7D8093B6000B
:104F4000809170008D7F809370008091B1008460AB
:104F50008093B1008091B1008C7F8093B100CA0131
:104F6000B90120E034E244E75BE40E94633220E0D0
:104F700030E040E85CE30E9463320E94E13120E0CF
:104F800031E0261B370B30938705209386051F9150
:104F90000F9108950F931F938A012FE632E143E8A2
:104FA0005AE30E946C271F910F910895109281057A
:104FB0001092820510928305109284051092850547
:104FC00080918605909187058093B200E0E7F0E03C
:104FD0008081816080830895809181059091820510
:104FE000A0918305B09184050196A11DB11D809308
:104FF000810590938205A0938305B09384058091E9
:10500000810590918205A0918305B091840520913E
:105010007B0530917C0540917D0550917E0582177E
:105020009307A407B50710F1809185058823F1F453
:1050300081E0809385058091810590918205A09102
:105040008305B0918405821B930BA40BB50B809351
:10505000810590938205A0938305B0938405E09128
:105060007F05F091800509951092850508951F929E
:105070000F920FB60F9211242F933F934F935F938C
:105080006F937F938F939F93AF93BF93EF93FF9310
:1050900080918605909187058093B2000E94EC274D
:1050A000FF91EF91BF91AF919F918F917F916F9100
:1050B0005F914F913F912F910F900FBE0F901F90D6
:1050C00018958F929F92AF92BF92CF92DF92EF92FC
:1050D000FF920F931F93CF93DF937B018C01EA0123
:1050E0002CE330E040E050E00E9418336883C801B0
:1050F000B7012CE330E040E050E00E941833122F5B
:10510000032FF42EE52E622F732F842F952F2CE37F
:1051100030E040E050E00E9418336983612F702F27
:105120008F2D9E2D2CE330E040E050E00E9418339C
:10513000122F032FF42EE52E622F732F842F952F1D
:1051400028E130E040E050E00E9418336A83612F8C
:10515000702F8F2D9E2D28E130E040E050E00E941E
:10516000183379018A01C801B7016C5F7F4F8F4FF7
:105170009F4F27E030E040E050E00E9418336F5F1F
:105180006B8320E0AA24BB24650101C02F5F822E1F
:105190009924F401EE54F84FCF0183709070892B5D
:1051A00099F4CF0164E670E00E940533892B39F44D
:1051B000CF0160E971E00E940533892B29F48EE666
:1051C00091E0A0E0B0E004C08DE691E0A0E0B0E0A6
:1051D000A80EB91ECA1EDB1EC501A0E0B0E0E8168D
:1051E000F9060A071B0790F62E83F401EE54F84FD8
:1051F00083E0882E912C8E229F228114910499F4B1
:10520000CF0164E670E00E940533892B39F4CF01A9
:1052100060E971E00E940533892B29F48EE691E064
:10522000A0E0B0E004C08DE691E0A0E0B0E0A81AF4
:10523000B90ACA0ADB0A980187010A191B092C0955
:105240003D09CF0164E670E00E9405337C01CF0187
:1052500060E971E00E940533AC01E7E6F3E060E04D
:10526000613051F48114910449F4E114F10441F4E2
:105270004115510529F002C0808103C08CE101C0B5
:105280008DE190E0A0E0B0E0081719072A073B077E
:1052900040F0081B190B2A0B3B0B6F5F31966C30EB
:1052A000F9F66F5F6D83802F8F5F8C83DF91CF91D5
:1052B0001F910F91FF90EF90DF90CF90BF90AF9034
:1052C0009F908F900895EF92FF920F931F937B0111
:1052D0008C0180919F059091A005A091A105B091AE
:1052E000A205E816F9060A071B0771F0C801B70105
:1052F00044E955E00E946128E0929F05F092A005E4
:105300000093A1051093A2051F910F91FF90EF90BC
:1053100008950E9463298091940590E008950E9469
:1053200063298091950590E008950E9463298091FA
:10533000960590E0089560938A0570938B0580939D
:105340008C0590938D0520919A0230919B0240919B
:105350009C0250919D02260F371F481F591F209312
:105360008E0530938F05409390055093910582E010
:1053700090E090939305809392050E94E32D6093B3
:105380009B0570939C0580939D0590939E050895C1
:10539000EF92FF920F931F931CC02F5F3F4F4F4F11
:1053A0005F4F20938A0530938B0540938C05509373
:1053B0008D0588EE93E0A0E0B0E0E80EF91E0A1F2C
:1053C0001B1FE0929B05F0929C0500939D05109396
:1053D0009E050E94E32DE0909B05F0909C050091B6
:1053E0009D0510919E056E197F09800B910B2091F0
:1053F0008A0530918B0540918C0550918D05685E32
:1054000073408040904048F680918E0590918F05C2
:10541000A0919005B0919105281739074A075B07BD
:10542000E8F0E0918805F09189053097B9F0099589
:10543000611571058105910519F00E949B290EC027
:1054400020E030E08091920590919305892B11F036
:1054500021E030E0309393052093920560918A0516
:1054600070918B0580918C0590918D051F910F9106
:10547000FF90EF900895FC0187E793E0918380838C
:10548000442311F481E001C082E0808767831282A7
:1054900013860895682F8CE095E00E9416230895E6
:1054A0001F93162FFC01678160628CE095E070E02D
:1054B0000E94FA2289E00E944A2A812F0E944A2AE9
:1054C0008CE095E00E943D238823D1F71F91089539
:1054D0001F93162FFC01678160628CE095E070E0FD
:1054E0000E94FA2283E10E944A2A812F0E944A2ABE
:1054F0008CE095E00E943D238823D1F71F91089509
:10550000DF92EF92FF920F931F93CF93DF937C0173
:10551000062FD42EFC018385C62FD0E08130A1F563
:10552000628504FD6061C5FD6860C6FD646007FDBD
:105530006260DD2019F0162F106A02C0162F10626B
:10554000C701612F0E94682A1F7DC701612F0E9439
:10555000682AF7016285C0FD6061C1FD6860C2FD17
:105560006460C3FD6260DD2019F0162F106A02C06E
:10557000162F1062C701612F0E94682A1F7DC70184
:10558000612F0E94682A37C0D695C7959E0128775B
:10559000442319F0922F966002C0922F9460F70175
:1055A000838183FD02C010E001C010E8192BC70100
:1055B000612F0E94502A1B7FC701612F0E94502A31
:1055C000602F6F70660F660F660FDD2011F066604A
:1055D00001C06460F701838183FD02C010E001C057
:1055E00010E8162BC701612F0E94502A1B7FC701AC
:1055F000612F0E94502ADF91CF911F910F91FF9050
:10560000EF90DF90089541E00E94802A089540E0E5
:105610000E94802A0895EF92FF920F931F93CF93D9
:10562000DF938C017A01DC0118968C918823D1F0EC
:105630006770660F660F660F6064C8010E94072BD3
:10564000C0E0D0E0D801ED91FC91D701AC0FBD1FB7
:105650000190F081E02DC8016C9109952196C83028
:10566000D10581F7DF91CF911F910F91FF90EF90BE
:105670000895FC018085882341F06381862F846032
:1056800083836C60CF010E94072B0895DF93CF9333
:10569000CDB7DEB728970FB6F894DEBF0FBECDBFEB
:1056A0009C01FC0180858823D9F0FE013196ADE78D
:1056B000B3E088E00D9001928150E1F7F901858116
:1056C000841710F4482F4150E42FF0E0EE0FFF1F35
:1056D000EC0FFD1F8181680F6068C9010E94072BD4
:1056E00028960FB6F894DEBF0FBECDBFCF91DF91E5
:1056F00008950F931F93162F072FFC016781606297
:105700008CE095E070E00E94FA2282E10E944A2A31
:10571000812F0E944A2A802F0E944A2A8CE095E01D
:105720000E943D238823D1F71F910F910895FC011A
:105730008085882389F183858130F1F480EC91E0C4
:105740009287818760FF04C080E891E0928781871B
:1057500061FF05C0818592858F779287818762FF7F
:1057600005C0818592859E7F92878187618572853C
:10577000CF010E94792B08958381662311F0886000
:1057800001C0877F8383838183FD02C060E001C005
:1057900060E8CF010E94502A0895CF93DF93EC0177
:1057A00088858823E9F06F8160628CE095E070E085
:1057B0000E94FA2282E10E944A2A8CE095E00E942F
:1057C0003D236F8160628CE095E070E041E050E045
:1057D0000E945A238CE095E00E94042380958F71EB
:1057E000DF91CF910895FC018085882341F0CF019E
:1057F00061E00E94072B80ED97E00E944A2E0895F9
:10580000EF92FF920F931F93DF93CF930F92CDB739
:10581000DEB78C01F42EE22E62E370E080E090E0CF
:105820000E94F12D8CE095E00E945D23F8018385B4
:105830006781813061F560628CE095E070E00E94E4
:10584000FA2280E00E944A2A8FE10E944A2A8CE0D4
:1058500095E00E943D23F801678160628CE095E04D
:1058600070E00E94FA228CE00E944A2A8FE10E9496
:105870004A2A8CE095E00E943D23F801678160622E
:105880008CE095E070E00E94FA2281E034C0606212
:105890008CE095E070E00E94FA2280E00E944A2AA3
:1058A0008FEF0E944A2A80E00E944A2A80E00E94EC
:1058B0004A2A80E00E944A2A80E00E944A2A80E028
:1058C0000E944A2A80E00E944A2A80E00E944A2AD6
:1058D00080E00E944A2A80E00E944A2A8CE095E0FB
:1058E0000E943D23F801678160628CE095E070E0E2
:1058F0000E94FA2280E00E944A2A80E00E944A2AFE
:105900008CE095E00E943D23F1E0FF1520F4F801C2
:10591000828188608283F801F5821682EE2039F058
:10592000F1E0FF1621F4F801828184608283F8019E
:105930008085823089F48781BE016F5F7F4F40E0B0
:1059400021E00E94B223882321F481E0F8018087BE
:1059500003C0F80110866AC0F80183858130C1F464
:1059600012861186FF24C80168E30E94682AC801D4
:1059700068E10E94682AF394F3E0FF16A1F7C801DA
:1059800068E20E94682AC80168E00E94682A20C074
:10599000C8016CE90E94502AC80168E90E94502A97
:1059A000C8016CE90E94502AC80168E90E94502A87
:1059B000C8016CE90E94502AC80168E90E94502A77
:1059C000C80164E90E94502AC80160E90E94502A77
:1059D00065E070E080E090E00E94F12DF8016281C6
:1059E0006062C8010E94072B65E070E080E090E0F3
:1059F0000E94F12DF80162816062C8010E94072BAC
:105A000065E070E080E090E00E94F12D8CE0F8010C
:105A10008383C8010E94392BC8010E94F32B82E0C6
:105A2000F8018483C80166E00E94072B0F90CF9194
:105A3000DF911F910F91FF90EF900895823000F554
:105A4000E82FF0E0EE0FFF1FED55FA4F71836083F2
:105A5000882319F08130A1F408C0809169008C7FFF
:105A6000842B80936900E89A089580916900440F1F
:105A7000551F440F551F837F842B80936900E99A3B
:105A800008951F920F920FB60F9211242F933F93F8
:105A90004F935F936F937F938F939F93AF93BF9336
:105AA000EF93FF938091A3059091A405892B29F092
:105AB000E091A305F091A4050995FF91EF91BF91A5
:105AC000AF919F918F917F916F915F914F913F9196
:105AD0002F910F900FBE0F901F9018951F920F924D
