:100000000C94BE010C94A7350C94D4350C94EF01DC
:100010000C94EF010C94EF010C94EF010C94EF01A0
:100020000C94EF010C94EF010C94EF010C94EF0190
:100030000C94EF010C94EF010C94EF010C94EF0180
:100040000C9401360C94EF010C942D380C945F380D
:100050000C94EF010C94EF010C94EF010C94EF0160
:100060000C94CA020C94EF01CC2EDF2E172F2A2FEE
:10007000A331A331A331A331A331A331A331A331E0
:10008000A331A331A331A331A331362FA331592F8B
:10009000712F832F962FAB2FBD2FA331A331CD2FDF
:1000A000E12FA331A331A331A331A3310330962F24
:1000B0001530A33176309830A731A731A731A73159
:1000C000A731A731A731A731A731A731A731A73170
:1000D000A7319B30A731B230A731C130DA30EC30D4
:1000E0000831A731A731A731A731A731A731A731EF
:1000F0002131A731A7313E3159315E318931526505
:1001000073657474696E672E2E2E002020202030B7
:1001100041005665722E20004F70656E2045565383
:100120004500000E0C1F03060C0800080C0E0C08FE
:10013000000000000E0E0E000000000E1517110E3C
:100140000000312E302E33001F1C1F1E1F1E1F1FCC
:100150001E1F1E1F53657420446174652F54696D02
:10016000653F004368617267696E6700526561644C
:100170007900544553542044495341424C4544006E
:10018000436F6E6E656374656400536C656570697A
:100190006E670044697361626C6564005354554333
:1001A0004B2052454C4159004E4F2047524F554E1F
:1001B00044004F5645522054454D504552415455E8
:1001C000524500474643490047464349204641556A
:1001D0004C540044494F444520434845434B005646
:1001E000454E5420524551554952454400534552BD
:1001F00056494345205245515549524544004556BC
:100200005345204552524F520054455354204641C5
:10021000494C454400537663204C6576656C3A2022
:100220004C3200537663204C6576656C3A204C3135
:10023000004175746F204465746563740053656C88
:1002400066205465737400506F776572204F6E009E
:1002500054696D65204C696D69740043686172670B
:1002600065204C696D69740053746F70204D696E20
:100270000053746F7020486F75720053746172740C
:10028000204D696E00537461727420486F7572005E
:1002900044656C61792054696D6572004D696E75B5
:1002A000746500486F757200596561720044617928
:1002B000004D6F6E746800446174652F54696D65FC
:1002C00000457869740052657374617274005265F8
:1002D0007374617274204E6F773F0054656D706562
:1002E0007261747572652043686B004746492053FC
:1002F000656C66205465737400537475636B20528B
:10030000656C61792043686B0047726F756E64207D
:10031000436865636B004261636B6C696768742056
:10032000547970650056656E74205265712764209B
:10033000436865636B0044696F6465204368656367
:100340006B004D61782043757272656E7400536561
:100350007276696365204C6576656C0053657475CB
:10036000700053657474696E677300332E31312EDB
:10037000330037114D19673283358F3811241FBE72
:10038000CFEFD8E0DEBFCDBF14BE88E10FB6F89442
:1003900080936000109260000FBE13E0A0E0B1E017
:1003A000E2E6FBE702C005900D92A43AB107D9F747
:1003B00026E0A4EAB3E001C01D92A03DB207E1F738
:1003C00013E0CCE7D3E004C02297FE010E943D3A3F
:1003D000C237D107C9F70E94D3380C94AF3D0C94B3
:1003E00000001092110481E080930F0410920E041B
:1003F00088B1806388B9E9EBF0E080818E7F8083EB
:1004000080818D7F80838CE08093B80085E4809329
:10041000BC000895413208F03FC090911104911141
:10042000FCCF91E09093110420930F042FEF2093C1
:10043000A4031092E903240F2093E803909310047F
:1004400090911004880F892B8093100480910E04E2
:10045000813041F410920E04809110048093BB000F
:1004600085EC01C085EE8093BC0080911104813041
:10047000E1F38091E903841710F44091E9032AEE37
:1004800033E0FB01D9018A2F821B841718F48D9168
:100490008193F9CF842F089580E008950F9341321E
:1004A00008F046C0909111049111FCCF92E0909316
:1004B000110400930F049FEF9093A4031092E9039B
:1004C0004093E803FB016AEE73E0DB019A2F961B71
:1004D000941718F491919D93F9CF10921004909174
:1004E0001004880F892B8093100480910E048130B2
:1004F00041F410920E04809110048093BB0085ECAF
:1005000001C085EE8093BC00222321F0809111046C
:100510008230E1F38091A4038F3F61F08091A403C6
:10052000803251F08091A403803341F483E007C00E
:1005300081E005C080E003C082E001C084E00F914B
:100540000895613298F420911104243089F4609365
:10055000C603FC0188EC93E0DC012A2F281B261738
:1005600018F421912D93F9CF80E0089581E008954A
:1005700082E0089585ED8093BC008091BC0084FDED
:10058000FCCF10921104089585EC8093BC0010926A
:10059000110408951F920F920FB60F9211242F93FA
:1005A0003F934F935F936F937F938F939F93AF93FB
:1005B000BF93EF93FF938091B900887F803609F451
:1005C0009CC068F5883209F45BC090F4803109F46E
:1005D00054C038F4882309F4F5C0883009F44DC0BC
:1005E000F5C0883109F44CC0803209F45DC0EEC01A
:1005F000803409F468C048F4803309F455C0883366
:1006000009F0E4C08093A403A8C0803509F44FC06A
:10061000883509F45DC0883409F0D8C0D5C0883960
:1006200009F4C6C0A8F4883709F467C038F48836DE
:1006300009F463C0803709F460C0C8C0883809F481
:10064000B7C0803909F45FC0803809F0BFC05BC013
:10065000803B09F485C038F4803A09F466C0883AD2
:1006600009F47EC0B3C0803C09F4A6C0883C09F4FC
:10067000A3C0883B09F489C0A9C08091100410C0B0
:100680009091E9038091E803981770F5E091E903F0
:1006900081E08E0F8093E903F0E0E651FC4F80810A
:1006A0008093BB0085EC85C08093A4038DC0E0914E
:1006B000E90381E08E0F8093E9038091BB00F0E0B5
:1006C000E651FC4F80839091E9038091E8036DC06F
:1006D000E091E90381E08E0F8093E9038091BB00F4
:1006E000F0E0E651FC4F808380910F0481116CC0D3
:1006F00081E080930E0484EA60C083E0809311045B
:100700001092A503CFCF8091A503803208F050C08E
:10071000E091A50381E08E0F8093A5038091BB003B
:10072000F0E0EA55FC4F8083BDCF8091A503803275
:1007300030F4E091A503F0E0EA55FC4F10820E94EE
:10074000BA026091A50370E0E0910A04F0910B04F5
:1007500086EA93E009951092A5030E94C40236C070
:1007600084E0809311041092C7031092C603E091B5
:100770000C04F0910D0409958091C603811105C008
:1007800081E08093C6031092C803E091C70381E023
:100790008E0F8093C703F0E0E853FC4F8081809375
:1007A000BB009091C7038091C603981708F47ACFD5
:1007B00085E88093BC000AC085EC8093BC00109251
:1007C000110404C01092A4030E94BA02FF91EF9199
:1007D000BF91AF919F918F917F916F915F914F9159
:1007E0003F912F910F900FBE0F901F901895FC0115
:1007F0006115710561F0A081B1819281613071054F
:1008000079F412968C911297892B12968C93A08171
:10081000B18111968C91119792819095892304C092
:1008200011968C911197892B11968C930895FC0148
:100830007183608351E001C0550F4A95EAF75283F6
:10084000B9010C94F7036E3008F06E50FC01608320
:1008500008952091000140E4249F90011124FC019F
:1008600080818770822B80937C0080917A008064E5
:1008700080937A0080917A0086FDFCCF8091780089
:100880002091790090E0922B089587E194E00C94F8
:100890002507FC01A89515821482A081B1818C9155
:1008A0009281892319F081E083830895138208954A
:1008B000CF93DF93EC0120E030E042E069E270E0AA
:1008C0000E94170443E050E065E474E080E00E9479
:1008D000873522E030E046E069E270E0CE0106961E
:1008E0000E941704CE01DF91CF910C9449040F931D
:1008F0001F93CF93DF93EC0181E08D831C820DE386
:1009000010E08C81811119C001501109B1F0EE8104
:10091000FF8182819885892B82838DE890E20E94F5
:10092000A236EE81FF81828198859095892382830A
:100930008EE890E20E94A236E4CF62E370E080E0AD
:1009400090E00E947A36A895E881F98180819A81A9
:10095000892399F768EE73E080E090E00E947A3690
:100960001B821D8281E09C81911180E0DF91CF91FB
:100970001F910F910895DC01ED91FC911197228157
:1009800012968C91282B22830895BC0182E090E07E
:100990000C94BD3C61110C94BB04DC01ED91FC9105
:1009A0001197228112968C91809528232283089595
:1009B000FC01268520FF02C0611167E00C94CA117A
:1009C0002F923F924F925F926F927F928F929F925F
:1009D000AF92BF92CF92DF92EF92FF920F931F934D
:1009E000CF93DF93CDB7DEB760970FB6F894DEBF35
:1009F0000FBECDBF8C01A8950E944B366D837E83C0
:100A00008F839887212C312C88248A94982C540128
:100A100019821A821B821C82188A1F86C12CD12C33
:100A20007601C80145969A8789870E944B36AB01AB
:100A3000BC01DB01CA014D805E806F80788484191F
:100A40009509A609B7098397A105B10508F0A9C0C2
:100A500089859A854B875C876D877E870E942904EC
:100A60002C01612C712C4B855C856D857E859FEFFB
:100A700089169906A906B90659F191E0E1E04E16EA
:100A8000E2E05E06610471040CF490E081E0F1E0C4
:100A90008F16F2E09F06A104B1040CF480E09817D1
:100AA000B9F0DB01CA0189809A80AB80BC808819CB
:100AB0009909AA09BB090697A105B10548F08F85D8
:100AC00098890196988B8F8749835A836B837C839F
:100AD000EF85F889E130F10508F460C0E330F105F5
:100AE00088F0339709F05AC0910140E050E0C70107
:100AF000B6010E94193A69017A0180E090E0A0E015
:100B0000B0E411C0C301B2017250810991099B0187
:100B1000AC010E94D539C60ED71EE81EF91EFFEFA4
:100B20002F1A3F0A3BC0281739074A075B0740F4D2
:100B300062E0B695A795979587956A95D1F7F3CF1B
:100B400040E050E0BA010097A105B105F9F04C0171
:100B50005D01840E951EA61EB71E76956795579566
:100B60004795C814D904EA04FB0440F0C818D90812
:100B7000EA08FB08480F591F6A1F7B1F22E0B69541
:100B8000A795979587952A95D1F7DDCFF801EF596D
:100B9000FF4F40835183628373830BC05301420133
:100BA00044CFF801EF59FF4F108211821282138255
:100BB000A89560960FB6F894DEBF0FBECDBFDF914B
:100BC000CF911F910F91FF90EF90DF90CF90BF904A
:100BD000AF909F908F907F906F905F904F903F90DD
:100BE0002F900895CF92DF92EF92FF9220911604FA
:100BF000211108C0109212041092130410921404D0
:100C000010921504C0901204D0901304E0901404C4
:100C1000F0901504C60ED71EE81EF91EC0921204ED
:100C2000D0921304E0921404F09215042F5F2093E5
:100C30001604203261F410921604C701B601E5E0F3
:100C40009695879577956795EA95D1F703C06FEFED
:100C50007FEFCB01FF90EF90DF90CF900895CF937F
:100C6000DF93EC0161E044960E94230460E0CE0132
:100C70004596DF91CF910C942304CF93DF93EC0141
:100C8000FC01E95BFF4F8BA96081817090E00E94BD
:100C9000A73C8BA99CA9DF91CF910C94C504CF935D
:100CA000DF93EC0160E070E00E943B114EEF50E0FA
:100CB00061E070E080EB94E00E94371B8DA986FF15
:100CC00006C068EB7BE080E090E00E947A362EE080
:100CD00088E190E00FB6F894A895809360000FBE6D
:100CE000209360006CED75E080E090E0DF91CF91A3
:100CF0000C947A36AB0162E771E080EB94E00E94DD
:100D0000FD1B6CED75E080E090E00C947A36CF939B
:100D1000DF93EC018BA99CA98E719670892BF1F160
:100D200063E080EB94E00E94D8048BA981FF05C0AA
:100D300066E373E0CE010E947A068BA982FF05C0AC
:100D400065E273E0CE010E947A068BA983FF05C09D
:100D500069E073E0CE010E947A068BA984FF05C08A
:100D600069EF72E0CE010E947A068BA99CA991FFDF
:100D700005C06BEE72E0CE010E947A068BA99CA999
:100D800092FF05C06BED72E0CE010E947A0667E02B
:100D900080EB94E0DF91CF910C94D804DF91CF9158
:100DA0000895CF93DF93EC0146960E94BB04CE01D9
:100DB00049960E94BB04CE014C960E94BB048DA9AB
:100DC00080648DAB0E943834FE01E05BFF4F60838E
:100DD0007183828393830E944B36C85BDF4F6883A5
:100DE00079838A839B83DF91CF910895CF93DF939B
:100DF000EC0160E046960E94CA0460E0CE0149968C
:100E00000E94CA0460E0CE014C960E94CA048DA9DB
:100E10008F7B8DAB0E943834FE01EC5AFF4F60830C
:100E20007183828393830E944B36FE01E45BFF4F04
:100E30006083718382839383CB59DF4F1882198239
:100E40001A821B82DF91CF910895CF93DF93EC013B
:100E50008F81882319F081E08E830DC08DA9806871
:100E60008DABCE010E94F60660E070E0CE010E94DC
:100E70003B1181E08D83DF91CF910895FC0183A91F
:100E800094A9662311F08D7F01C0826094AB83AB7F
:100E900083A994A90C94C504FC0183A994A9662391
:100EA00011F09D7F01C0926094AB83AB83A994A99C
:100EB0000C94C504FC0183A994A9662311F09B7FBF
:100EC00001C0946094AB83AB83A994A90C94C5042E
:100ED000FC0183A994A9662311F08B7F01C0846073
:100EE00094AB83AB83A994A90C94C504FC0183A99A
:100EF00094A9662311F0877F09C011A612A613A634
:100F000014A615A216A217A210A6886094AB83ABF4
:100F100083A994A90C94C504FC0183A994A9662310
:100F200011F08F7E01C0806194AB83AB83A994A93B
:100F30000C94C504FC0183A994A9662311F08F7D4C
:100F400001C0806294AB83AB83A994A90C94C504BF
:100F50001F93CF93DF93EC01162F8091BE04613075
:100F600011F48E7F01C081608093BE04642F80EBFA
:100F700094E00E9404278BA99CA9111102C09160E2
:100F800001C09E7F9CAB8BAB8BA99CA90E94C50422
:100F900080E090E0DF91CF911F910895FC01E05C2B
:100FA000FF4F20812E5F223088F4DC01D5962C91F2
:100FB000D5972B7FD5962C93D597AF5BBF4F2FEF4F
:100FC0002C93108260E070E00C943B1108950F9315
:100FD0001F93CF93DF93EC018C01005C1F4FF8014E
:100FE00080818F3FB9F062E070E0CE010E943B113A
:100FF0008FEFF8018083CE010E94F60661E080EB5E
:1010000094E00E94042781E0DF91CF911F910F911E
:101010000C945132DF91CF911F910F9108950F934E
:101020001F93CF93DF93EC018C01005C1F4FF801FD
:101030008081813049F410928504109286041092C8
:1010400087041092880402C08E3FC1F060E070E017
:10105000CE010E943B118EEFF801808361E080EBAE
:1010600094E00E94042781E00E9451320E944B3696
:10107000C45BDF4F688379838A839B83DF91CF9141
:101080001F910F9108952AE0E1E0F1E0DC01D6968E
:1010900001900D922A95E1F70895CF92DF92EF9299
:1010A000FF920F931F93CF93DF93EC010E944B3677
:1010B0006B017C0101E012E0112339F0EF8DF8A102
:1010C000808199A1892309F410E0002301F1EAA1AC
:1010D000FBA180819CA18923C9F0111101C001E00D
:1010E0000E944B366C197D098E099F096431710588
:1010F0008105910508F3802F812BDF91CF911F91FE
:101100000F91FF90EF90DF90CF90089500E01123B2
:1011100091F3E6CFAF92BF92DF92EF92FF920F93DF
:101120001F93CF93DF9300D0CDB7DEB75C01A895B6
:1011300060E070E00E943B114DE352E067E472E032
:1011400080EB94E00E94FD1BF50183A985FDD5C0CD
:1011500066E970E080E090E00E947A36C50144962E
:101160000E9429048C0162E070E0C5010E943B11DD
:10117000053813400CF4BBC0C5010E944D08D82EA1
:10118000750186E1E80EF11CC7010E94BB048501D0
:10119000045E1F4FC8010E94BB046AEF70E080E04C
:1011A00090E00E947A36C5010E944D08382F60E019
:1011B000C7013A830E94CA0460E0C8010E94CA04C1
:1011C0006AEF70E080E090E00E947A3603501109E7
:1011D000C8010E94BB046AEF70E080E090E00E94CA
:1011E0007A36C5010E944D08282F60E0C801298386
:1011F0000E94CA046AEF70E080E090E00E947A36B4
:1012000029813A81E3E0DE1234C0333028F4F5015D
:1012100083A9313020F01FC0333061F09CC02330EF
:1012200011F010E001C012E084FD2BC0233009F062
:1012300094C027C0F50183A983FD02C0233021F0AB
:10124000222321F010E003C013E001C012E021507E
:101250002230B8F418C084FD04C02330A1F014E09B
:1012600003C0233081F010E0313041F4223049F4E2
:1012700070C0F50183A984FF70C06DC0213009F4EE
:1012800068C0113051F443E252E061E372E080EB58
:1012900094E00E94FD1B11E00AC0123041F445E1C8
:1012A00052E061E372E080EB94E00E94FD1B8DEF61
:1012B000810F823070F561E080EB94E00E94D804E9
:1012C000133049F448EA51E069E072E080EB94E0C1
:1012D0000E94FD1B34C01430F1F44CE951E069E088
:1012E00072E080EB94E00E94FD1B14E028C0F50141
:1012F00085A9816085AB11E001C010E0F50183A9EB
:1013000084FD09C0C5010E944D088370833029F710
:1013100002C01330A1F0F50123A934A931FD0FC09B
:10132000C50102960E947704882349F043EC51E0FE
:1013300069E072E080EB94E00E94FD1B15E08DEF08
:10134000810F833060F461E080EB94E00E94D80468
:1013500006C012E0A4CF10E0AACF14E0A8CF60E04E
:1013600070E0C5010E943B11A895812F0F900F904E
:10137000DF91CF911F910F91FF90EF90DF90BF9081
:10138000AF9008958F929F92AF92BF92CF92DF92CB
:10139000EF92FF920F931F93CF93DF935B016A014C
:1013A000F4E6EF2EF12C00E010E0CFEFD3E044960E
:1013B0004C01C4010E9429040817190728F08C1752
:1013C0009D0708F4EC01C80121E0E21AF10811F0D0
:1013D0008C01EFCFF501D183C083F6019183808327
:1013E000DF91CF911F910F91FF90EF90DF90CF9001
:1013F000BF90AF909F908F9008950F931F93CF93BE
:10140000DF9300D000D0CDB7DEB78C01FC0185A9F9
:10141000826085AB62E080EB94E00E94042781E06B
:101420000E9451320E94622CF80180819181892BA7
:10143000C9F724E630E0AE014F5F5F4FBE016D5F3C
:101440007F4FC8010E94C20929813A81F80186A90B
:1014500097A92817390730F3E05CFF4F1082F80195
:1014600085A98D7F85AB0F900F900F900F90DF9126
:10147000CF911F910F910895DF92EF92FF920F93FA
:101480001F93CF93DF938C01D42EFC0183A994A9E1
:10149000FC01E170FF2780FD02C088E101C080E50A
:1014A000E801C95BDF4F663030F0861750F0688383
:1014B000E12CF12C0AC086E08883EE24E394F12C21
:1014C00004C08883A2E0EA2EF12C21110EC06881AD
:1014D000EF2B11F022E001C021E081E090E021300B
:1014E00011F480E090E00E94A73CF8018081918196
:1014F000019729F4688170E0C8010E946411DD2021
:1015000029F061E080EB94E00E940427C701DF919D
:10151000CF911F910F91FF90EF90DF900895EF9280
:10152000FF920F931F93CF93DF931F92CDB7DEB738
:101530007C01162F042FFC0183A994A9623021F4A9
:10154000816094AB83AB05C08E7FF70194AB83AB16
:1015500011E0F70183A994A90E94C50481E090E0FD
:10156000113011F480E090E00E94933C9FEF980FBF
:101570009E3F20F0113049F58CE004C0863060F0C9
:10158000113029F4682F893140F068E106C0682FD6
:10159000813518F060E501C066E0C70169830E94EB
:1015A000430820E040E06981C7010E943C0A002313
:1015B00071F061E080EB94E00F90DF91CF911F918B
:1015C0000F91FF90EF900C94042788E1D9CF0F90F2
:1015D000DF91CF911F910F91FF90EF900895AF92FF
:1015E000BF92CF92DF92EF92FF920F931F93CF9310
:1015F000DF931F92CDB7DEB75C017C0120E4E20EE1
:10160000F11CD7011C92FC01EF5BFF4F108280E0C0
:101610000E94513282E090E00E94A13C8C018F3FF9
:10162000BFEF9B0761F090FF0AC08091BE0481600C
:101630008093BE0461E080EB94E00E94042722E0E6
:1016400030E040E063E270E0C50146960E94170476
:1016500022E030E047E069E270E0C50149960E946F
:10166000170422E030E041E063E270E0C5014C96EF
:101670000E94170421E030E043E069E270E0C50118
:101680004F960E94170421E030E044E069E270E0E8
:10169000C50182960E941704C50102960E94580453
:1016A000C5010E94F606C5010E9450110F3FEFEFE1
:1016B0001E0731F4D501D4961C921E92D39705C013
:1016C000F50114AB03AB00FF02C062E001C061E0B2
:1016D0008BE090E069830E94A13C6C018501075971
:1016E0001F4FD8018D939C9389E090E00E94A13C0C
:1016F000F501E559FF4F918380836981CD20C09426
:1017000019F4D8011D921C92019621F48CED90E001
:1017100091838083F501EF59FF4F1082118212826D
:10172000138234961082118212821382F50115AA57
:101730001786108A118A128A81E190E069830E94DB
:10174000933CF501838B11A612A613A614A682E181
:1017500090E00E94933CF50185A716A617A610AA53
:1017600011AA83E190E00E94933CF50182AB15A29F
:1017700016A217A210A6C5010E948706C5010E94E5
:101780008A08F50123A934A9698125FD05C09FEFC9
:10179000980F923008F4682F23FD02C0833039F18E
:1017A00090E024FD02C0843039F131FD02C0853063
:1017B00041F1992331F081E00E9451320E94622C64
:1017C000FDCF40E0C5010E948F0A80919F048823CD
:1017D000E1F0C5010F90DF91CF911F910F91FF9024
:1017E000EF90DF90CF90BF90AF900C940F0897E0F0
:1017F000D7019C9391E0D5CF98E0F701908391E0D9
:10180000D4CF89E0D7018C93D6CF0F90DF91CF91C1
:101810001F910F91FF90EF90DF90CF90BF90AF900E
:1018200008952F923F924F925F926F927F928F9284
:101830009F92AF92BF92CF92DF92EF92FF920F935F
:101840001F93CF93DF9300D000D01F92CDB7DEB7A8
:101850008C018FEF9FEF9A8389830E944B366B0137
:101860007C01580120E4A20EB11CD5018C918F3F60
:1018700021F4F801EF5BFF4F0CC48E3F09F04BC021
:10188000F80185A986FF2CC024E630E0AE014F5F49
:101890005F4FBE016D5F7F4FC8010E94C209298161
:1018A0003A81D801D8968D919C91D99728173907FC
:1018B00098F4F801E45BFF4F80819181A281B381AC
:1018C000C81AD90AEA0AFB0AB8EBCB16BBE0DB065A
:1018D000E104F10408F4D8C3C8010E94F606D4C399
:1018E00082FFD2C324E630E0AE014F5F5F4FBE01FE
:1018F0006D5F7F4FC8010E94C20929813A81F801BA
:1019000086A997A92817390708F4BEC385A98B7F34
:1019100085ABD5011C92F5017080C8010E944D086D
:10192000982ED801D5968C9186FF2CC0F801E85BE3
:10193000FF4F408151816281738116012701241A72
:10194000350A460A570A29EE221623E032064104D8
:10195000510408F4B9C0D801D3968C9183FD05C019
:10196000892D8370833009F496C36624639420E044
:10197000F80185A980FFABC0D5018C91833009F0B7
:10198000A6C0A6C3F7E07F1246C089819A8101965E
:1019900059F424E630E0AE014F5F5F4FBE016D5F4A
:1019A0007F4FC8010E94C20929813A81D801D69689
:1019B0008D919C91D7972817390718F0F50110825F
:1019C00013C4F80181A592A5A3A5B4A586309105FD
:1019D000A105B105D0F445A156A167A170A51601D6
:1019E0002701241A350A460A570A21EE221623E94E
:1019F000320624E04206510440F00196A11DB11DBB
:101A000081A792A7A3A7B4A75FC087E0D5018C9355
:101A1000612C27E05CC0F80183A984FD55C0892DA5
:101A20008370833009F44CC0F8E07F1669F0F80148
:101A300086A597A5A0A9B1A9892B8A2B8B2B21F468
:101A4000C6A6D7A6E0AAF1AAF801E45BFF4F808101
:101A50009181A281B38116012701281A390A4A0A05
:101A60005B0A29EE221623E032064104510490F06D
:101A7000F80186A597A5A0A9B1A916012701281AE2
:101A8000390A4A0A5B0A29EE221623E0320641048B
:101A9000510420F438E0731217C00CC048E07416EB
:101AA00049F062A96F5F6E3F28F462AB83E190E07A
:101AB0000E94A73C88E0F5018083612C28E007C0E4
:101AC00016A617A610AA11AA6624639420E0F801AE
:101AD0008581882309F462C086E0D5018C9378164D
:101AE00099F063896F5F6E3F28F4638B81E190E02A
:101AF0000E94A73CF8011786108A118A128AC386B1
:101B0000D486E586F68648C024E630E0AE014F5F15
:101B10005F4FBE016D5F7F4FC8010E94C2092981DE
:101B20003A81F80186A997A92817390738F0D50115
:101B30001C92C80102960E94490456C3F80183858D
:101B40009485A585B68516012701281A390A4A0AFF
:101B50005B0A20EE221623E9320624E042065104F5
:101B6000D8F087859089A189B2890196A11DB11D00
:101B70008787908BA18BB28B0797A105B10508F0E1
:101B8000F0C2C80102960E944904D8011B961D921A
:101B90001D921D921C921E97612C26E0F80183A9CC
:101BA00094A9A8014E5B5F4F4A0192FD1BC0809132
:101BB0009704909198048E3E924074F4809193041F
:101BC00090919404863C92403CF4809195049091CD
:101BD0009604863C924034F08AE0F5018083612CC3
:101BE0002AE050C0662009F44DC08CEF870D873085
:101BF00040F460E070E0C8010E943B11D5011C92E6
:101C0000712C24E630E0AE014F5F5F4FBE016D5F87
:101C10007F4FC8010E94C209F80143A941FD0CC0D1
:101C200080819181019741F42B813C8186AD97ADF4
:101C30002817390708F06AC289819A81D801D69697
:101C40002D913C91D7978217930708F05DC2D80178
:101C5000D8962D913C91D9978217930708F050C2DE
:101C6000DA962D913C91DB978217930708F43EC2D8
:101C70008D919C91019709F043C223E0271147C23F
:101C800066246394D4012C93F5018081871509F4AF
:101C9000C4C08130B9F5C8010E94F60660E070E06A
:101CA000C8010E943B116091850470918604809167
:101CB00087049091880420E13EE040E050E00E94DB
:101CC000193ABA01A9018091890490918A04A091DE
:101CD0008B04B0918C04480F591F6A1F7B1F4093DF
:101CE000890450938A0460938B0470938C048DE074
:101CF00090E00E94B53CF801E359FF4F10823D97F8
:101D000010827CC0823061F4C8010E94F606F8019E
:101D1000E95BFF4F608170E0C8010E9464116EC0F2
:101D20008330F9F4F801E95BFF4F608170E0C8018E
:101D30000E946411D801D3968D919C91D49791FD06
:101D400014C2C80102960E947704882309F40DC2C8
:101D500089E0F501808360E070E0C8010E943B11DA
:101D600000C2843021F4C8010E94F6062CC08630DF
:101D700049F4C8010E94F60660E070E0C8010E94C4
:101D80003B113CC08A3091F460E070E0C8010E94D1
:101D90003B110E944B366C197D098E099F096838EA
:101DA000734181059105B0F4A895F3CF853071F4A6
:101DB000C8010E94F606F801E95BFF4F608170E000
:101DC000C8010E94641160E070E009C0873089F2A8
:101DD000883061F4C8010E94F60662E070E0C80134
:101DE0000E943B11C8010E94FD0908C060E070E03C
:101DF000C8010E943B11C8010E94F60681E00E94C2
:101E00005132E1E07E1209C01092850410928604DE
:101E1000109287041092880418C0611016C0F3E075
:101E20007F1213C0F801E85BFF4F80819181A2818E
:101E3000B381C81AD90AEA0AFB0A21EDC21627E0C3
:101E4000D206E104F10408F48CC1F801EF5BFF4F06
:101E50007082D5018C91833031F4BA968081918162
:101E60001816190624F0F80185A984FF32C0C801AC
:101E70000E94E004F801EF59FF4F60817181828177
:101E800093810E94F2059B01AC016F3FFFEF7F073A
:101E90008F079F07F1F0F801E559FF4FA081B1814D
:101EA0000E945B3A3297C080D180EE24D7FCE09448
:101EB000FE2C6C197D098E099F09349797FD59C135
:101EC00060837183828393838091BE048068809352
:101ED000BE04D5018C91833009F086C17801BCE540
:101EE000EB0EF11C6801E8E5CE0ED11CF6018081F5
:101EF0009181A281B381F70180839183A283B3830F
:101F00000E943834F801E05BFF4F80809180A2800E
:101F1000B380681979098A099B09D6016D937D936D
:101F20008D939C931397F80123A934A932FD57C0D0
:101F3000D701CD90DD90ED90FC906C157D058E0560
:101F40009F0509F44CC0822F817090E00E94933C61
:101F500090918D04209197043091980490FD16C0C3
:101F60002A38B2E03B070CF009C14091930450912C
:101F700094044A3852400CF001C1409195045091AC
:101F800096044A3852400CF0F9C013C0293542E09B
:101F900034077CF440919304509194044D365240A0
:101FA00044F440919504509196044D3652400CF4FF
:101FB00003C191FDEAC02C3B32400CF0E2C02091FD
:101FC000930430919404283A32400CF0DAC0209106
:101FD000950430919604283A32400CF0D2C0F801B2
:101FE000E359FF4FA081AA23E1F0B0E020E83EEEE4
:101FF00046E350E00E94503AC0908504D090860499
:10200000E0908704F0908804C616D706E806F90623
:1020100040F01082F80185A9846085ABC8010E9458
:102020000F085801F0E6AF0EB11CD5018C91882342
:1020300009F4DAC00E944B366B017C01F801E85BC1
:10204000FF4F80819181A281B381C81AD90AEA0A1F
:10205000FB0AF501A081B0E020EA3BEB4DE050E047
:102060000E94503AC616D706E806F90608F4BCC026
:102070001082D801D5968C91D5978460D5968C9393
:10208000C8010E940F08B0C0F801EF5BFF4FD501F7
:102090008C918083A9C087E0F5018083C8010E94EC
:1020A000F606F7E07F1651F0F80165A56F5F6E3F09
:1020B00028F465A782E190E00E94A73CD80195969C
:1020C000CD92DD92ED92FC929897612C27E050CC56
:1020D000911007C041E062E0C8012D830E948F0A81
:1020E0002D81F80185A98E7F85ABF1CCF80124AD57
:1020F00035AD2817390730F442FDBFCD24E007C0C5
:1021000022E0BCCD20E0BACD21E0B8CD25E0D4015D
:102110008C91F801ED5BFF4F281729F0C082D18226
:10212000E282F382ADCD80819181A281B381B7013A
:10213000A601481B590B6A0B7B0B213029F489E15E
:1021400090E0A0E0B0E004C08AEF90E0A0E0B0E052
:10215000481759076A077B0708F492CDF5012083D9
:102160008FCDC8010E94FD093FC0C8010E94D10661
:1021700045CE1082118212821382A6CE869591607E
:102180001CC086958695926018C02B3832400CF0A2
:1021900026CF20919304309194042B3832400CF0D8
:1021A0001ECF20919504309196042B3832400CF0CC
:1021B00016CF86959D7F01C09E7F90938D0421E070
:1021C00040E0682FC8010E943C0AD8018D919C9183
:1021D000019709F404CFF801E95BFF4F608170E0DB
:1021E000C8010E946411FBCE0F900F900F900F90CA
:1021F0000F90DF91CF911F910F91FF90EF90DF90A3
:10220000CF90BF90AF909F908F907F906F905F9096
:102210004F903F902F900895CF92DF92EF92FF92D0
:102220000F931F93FC01E05CFF4F2081FC012630DF
:1022300029F4C384D484E584F68404C0C5A0D6A060
:10224000E7A0F0A40E944B368B019C01C701B601A8
:1022500060527C468B4F9F4F601B710B820B930B20
:102260001F910F91FF90EF90DF90CF90089587E13D
:1022700094E00C942F064FB7F8946115710539F46A
:1022800020E43FE130938B0020938A0004C0109239
:102290008B0010928A00FC01718360834FBF089508
:1022A000E0E8F0E0108220E43FE1309387002093E3
:1022B000860021E120938100229A208120622083E0
:1022C00060E070E00C943B11AB019B01265031099A
:1022D0002E32310538F465E8649F9001659F300D1A
:1022E000112414C09B01245331092D313105D0F440
:1022F000662757FD6095762F40565F4F6F4F7F4F93
:102300009A0145E0220F331F4A95E1F730938B0085
:1023100020938A0021E030E0FC013183208380E0BB
:1023200090E0089581E090E00895FC01138212820C
:1023300083E591E091838083442311F082E001C022
:1023400081E083872287618714820895682F84ED56
:1023500095E00C940535CF93DF93D62FC72FFC0162
:1023600091859062692F70E084ED95E00E946B3555
:1023700082E10E94A6118D2F0E94A6118C2F0E942F
:10238000A61184ED95E00E9480358111FACFDF918E
:10239000CF910895FC018385882309F182858823E4
:1023A00011F087E0682760FD03C080EC91E002C077
:1023B00080E891E09587848761FF05C084859585D5
:1023C0008F779587848762FF05C0848595859E7F7A
:1023D0009587848764857585CF010C94AB1108952A
:1023E000CF93C62FFC0191859062692F70E084ED38
:1023F00095E00E946B3583E10E94A6118C2F0E940C
:10240000A61184ED95E00E9480358111FACFCF911D
:102410000895EF92FF920F931F93CF93DF931F9234
:10242000CDB7DEB77C01162FFC01858564FD806188
:1024300015FD886016FD846017FD8260082F442317
:1024400011F0006A01C00062602FC70149830E9439
:10245000F011602F6F7DC7010E94F011F701858593
:10246000498110FD806111FD886012FD846013FDBB
:102470008260182F442311F0106A01C01062612F8E
:10248000C7010E94F011612F6F7DC7010F90DF918E
:10249000CF911F910F91FF90EF900C94F01140E0BD
:1024A0000C940912FC012385222339F061E00E947B
:1024B0004F1280ED97E00C94A2360895CF93DF93EE
:1024C000CDB7DEB728970FB6F894DEBF0FBECDBFED
:1024D000FC012385222319F128E0E7E4F1E0DE0185
:1024E000119601900D922A95E1F7FC01278124179E
:1024F00010F44FEF420FFE013196E40FF11DE40F8F
:10250000F11D2081260F2068622F28960FB6F894BF
:10251000DEBF0FBECDBFDF91CF910C944F12289636
:102520000FB6F894DEBF0FBECDBFDF91CF910895F7
:10253000FC012385222339F06581262F2460258321
:102540006C600C944F120895CF92DF92EF92FF923D
:102550000F931F93CF93DF9300D0CDB7DEB76C01FD
:10256000DC011B968C91882319F16770B8E06B9F92
:10257000B00111246064C60149835A830E944F123E
:102580004981042F5A81152FE12CF12CF80161911A
:102590008F01D601ED91FC910190F081E02DC601F3
:1025A0000995BFEFEB1AFB0AE8E0EE16F10471F7AC
:1025B0000F900F90DF91CF911F910F91FF90EF90AF
:1025C000DF90CF900895FC012385222319F041E08C
:1025D0000E94091281E090E008950F931F93CF931A
:1025E000DF93EC01142F022F6985606270E084EDA7
:1025F00095E00E946B3580E00E94A6118FE10E9459
:10260000A61184ED95E00E948035882319F08B8512
:10261000823061F16985606270E084ED95E00E942E
:102620006B358CE00E94A6118FE10E94A61184ED0B
:1026300095E00E948035882319F08B858230B1F0B7
:102640006985606270E084ED95E00E946B3581E001
:102650000E94A61180E00E94A61184ED95E00E94E0
:1026600080359B85882341F0923031F41B86DF91C1
:10267000CF911F910F910895923011F481E08B87D3
:10268000123018F08C8188608C831F831886002399
:1026900029F0113019F48C8184608C831D861C868E
:1026A00013E068E3CE010E94F01168E1CE010E94C0
:1026B000F0111150B1F768E2CE010E94F01168E00C
:1026C000CE010E94F01165E070E080E090E00E9491
:1026D0007A366C816062CE010E944F1265E070E034
:1026E00080E090E00E947A366C816062CE010E94A8
:1026F0004F1265E070E080E090E00E947A368CE056
:102700008D83CE010E949812CE010E94521282E067
:102710008E8366E0CE01DF91CF911F910F910C94D3
:102720004F12CF93DF93EC018B858823F1F06985FD
:10273000606270E084ED95E00E946B3582E10E945A
:10274000A61184ED95E00E9480356985606270E095
:1027500041E050E084ED95E00E945E3584ED95E027
:102760000E94B53480958F7101C080E0DF91CF91D8
:102770000895CF93DF93C62F68E170E084ED95E074
:102780000E946B356C2F84ED95E00E94053584ED39
:1027900095E00E94803542E068E184ED95E00E947A
:1027A0005B3584ED95E00E94B534D82FCC2784EDBD
:1027B00095E00E94B5349E01282BC901DF91CF918D
:1027C0000895CF93DF93EC0166E00E94B91384353E
:1027D000910539F467E0CE010E94B9138115944048
:1027E00029F018828881DF91CF91089581E0888354
:1027F000F9CFFC0120812223A9F065E00E94B913E2
:102800009C013F7194FD306F4AE0429FC001439F9D
:10281000900D112497FD0F9634E0959587953A9584
:10282000E1F7089580E090E00895DC011496EC91C2
:10283000149715968C911597E81740F4F0E0EE0F79
:10284000FF1FEF5EFE4F80819181089514961C92C8
:1028500080E090E00895DC011496EC9114971596B1
:102860008C91E81740F4F0E0EE0FFF1FE95DFE4F9A
:1028700080819181089580EB94E00E94521280E063
:1028800090E00895CF93DF93EC0164EF71E080E076
:1028900090E00E947A368C81882329F0813031F4CF
:1028A0008CE195E005C081E295E002C087E195E00A
:1028B000DF91CF910895FC0191818381911108C02E
:1028C0002281211105C0811103C02481222341F0FE
:1028D000981711F081E00895928184819813FACFBE
:1028E00080E00895CF92EF920F93CF93DF9300D0C3
:1028F00000D000D0CDB7DEB790E0CE2CE02E022F76
:10290000242F462FBC01CE0101960E94DF32CE015A
:1029100001960E948C3326960FB6F894DEBF0FBE48
:10292000CDBFDF91CF910F91EF90CF900895CF93CE
:10293000DF93EC010E94F5322093AA043093AB049C
:102940004093AC045093AD046093AE047093AF0415
:10295000EAEAF4E01F927F9384811F928F93838130
:102960001F928F9382811F928F9381811F928F93E9
:1029700080811F928F9327E531E03F932F93DF9360
:10298000CF930E949F3A8DB79EB740960FB6F894AA
:102990009EBF0FBE8DBFDF91CF910895BF92CF92A2
:1029A000DF92EF92FF920F931F93CF93DF93B42E9A
:1029B0001092F304C3EFD4E02AE0C22ED12CE12C14
:1029C000F12C8E01A70196010E94193A605D6A936D
:1029D000B901CA01611571058105910599F72C2F7F
:1029E000201B2B0D121674F3CE01DF91CF911F9196
:1029F0000F91FF90EF90DF90CF90BF900895FC0172
:102A0000108286EE90E097838683918780879387F4
:102A10008287CF0105960C94E11320E041E060E24B
:102A20000C9495111F93CF93DF93EC01162FBA01ED
:102A300048E050E084ED94E00E94633A44ED54E0B5
:102A4000612FCE01DF91CF911F910C94A4120F93AF
:102A50001F93CF93DF93EC0189010E945E12B801AE
:102A6000CE01DF91CF911F910F910C942039CF931C
:102A7000DF93EC0129E631E041E050E060E070E0F6
:102A800080EB94E00E942715EC81F0E0EE0FFF1F31
:102A9000E55CFE4F6081718180EB94E00E942039FB
:102AA00061E08C81811160E041E087E194E00E9467
:102AB000A80781E09C81911180E0809302058DE759
:102AC00095E0DF91CF910895CF93DF93EC016C8176
:102AD000611102C061E006C040E087E194E00E941D
:102AE0008F0A60E087E194E00E949A0729E631E0CE
:102AF00041E050E060E070E080EB94E00E94271538
:102B0000EC81F0E0EE0FFF1FE55FFE4F6081718109
:102B100080EB94E00E94203960914A0470914B044C
:102B200082E090E00E94BD3C64EF71E080E090E0C4
:102B30000E947A368DE795E0DF91CF910895CF938B
:102B4000DF93EC0129E631E041E050E060E070E025
:102B500080EB94E00E9427156C8170E04AE050E021
:102B600080EB94E00E94CC3968E771E080EB94E060
:102B70000E94203964EF71E080E090E00E947A3694
:102B80006C8180914A0480FF02C022E001C021E0F4
:102B900081E090E0213011F480E090E00E94A73CB9
:102BA00020E040E06C8187E194E00E943C0A8DE7E0
:102BB00095E0DF91CF910895CF93DF93EC0129E663
:102BC00031E041E050E060E070E080EB94E00E9492
:102BD0002715EC81F0E0EE0FFF1FE15CFE4F6081F6
:102BE000718180EB94E00E94203961E08C81811139
:102BF00060E087E194E00E943E0764EF71E080E0CE
:102C000090E00E947A368DE795E0DF91CF910895AC
:102C1000CF93DF93EC0129E631E041E050E060E042
:102C200070E080EB94E00E942715EC81F0E0EE0F5D
:102C3000FF1FE15CFE4F6081718180EB94E00E9498
:102C4000203961E08C81811160E087E194E00E948D
:102C50004C0764EF71E080E090E00E947A368DE7E7
:102C600095E0DF91CF910895CF93DF93EC0129E6B2
:102C700031E041E050E060E070E080EB94E00E94E1
:102C80002715EC81F0E0EE0FFF1FE15CFE4F608145
:102C9000718180EB94E00E94203961E08C81811188
:102CA00060E087E194E00E945A0764EF71E080E001
:102CB00090E00E947A368DE795E0DF91CF910895FC
:102CC000CF93DF93EC0129E631E041E050E060E092
:102CD00070E080EB94E00E942715EC81F0E0EE0FAD
:102CE000FF1FE15CFE4F6081718180EB94E00E94E8
:102CF000203961E08C81811160E087E194E00E94DD
:102D0000680764EF71E080E090E00E947A368DE71A
:102D100095E0DF91CF910895CF93DF93EC0129E601
:102D200031E041E050E060E070E080EB94E00E9430
:102D30002715EC81F0E0EE0FFF1FE15CFE4F608194
:102D4000718180EB94E00E94203961E08C818111D7
:102D500060E087E194E00E94760764EF71E080E034
:102D600090E00E947A368DE795E0DF91CF9108954B
:102D7000CF93DF93EC0129E631E041E050E060E0E1
:102D800070E080EB94E00E942715EC81F0E0EE0FFC
:102D9000FF1FE15CFE4F6081718180EB94E00E9437
:102DA000203961E08C81811160E087E194E00E942C
:102DB0008C0764EF71E080E090E00E947A368DE746
:102DC00095E0DF91CF910895CF93DF93EC0129E651
:102DD00031E041E050E060E070E080EB94E00E9480
:102DE0002715EC81F0E0EE0FFF1FE15CFE4F6081E4
:102DF000718180EB94E00E94203964EF71E080E003
:102E000090E00E947A368C81811103C08FE395E0B7
:102E100002C08DE795E0DF91CF910895CF93DF93C6
:102E2000EC0129E631E041E050E060E070E080EB49
:102E300094E00E942715EC81F0E0EE0FFF1FE15CAB
:102E4000FE4F6081718180EB94E00E94203964EF35
:102E500071E080E090E00E947A368C81811104C09C
:102E600087E194E00E944F0680E090E0DF91CF91EF
:102E700008950F931F93CF93DF93EC018C01015FB3
:102E80001F4F40E150E0C8010E947E3A1F8EB801FA
:102E9000CE01DF91CF911F910F910C942039EF92C9
:102EA000FF920F931F93CF93DF93EC01F62EE42E46
:102EB0008C01015F1F4F40E150E0B901C8010E9441
:102EC0007E3A1F8E4E2D6F2DCE010E945E12B801EC
:102ED000CE01DF91CF911F910F91FF90EF900C9455
:102EE000203921E030E043E066E270E00C94170402
:102EF0000F931F93CF93DF93EC0180EB94E00E943C
:102F00009113982F917080FD0CC08B81823049F411
:102F10004C815D816E817F81452B462B472B09F4C7
:102F20001B828B81882351F08130E9F54C815D81D2
:102F30006E817F81452B462B472BA9F1992371F197
:102F40004C815D816E817F81452B462B472B41F45F
:102F5000811106C00E944B366C837D838E839F83D4
:102F60000E944B360C811D812E813F81601B710BAD
:102F7000820B930B2B81211107C0623371058105F0
:102F80009105B8F181E008C0213099F5643F7140A6
:102F90008105910570F182E08B832BC01C821D821C
:102FA0001E821F8226C0992321F1488559856A8592
:102FB0007B85452B462B472BE1F08230D1F40E94D4
:102FC0004B36088519852A853B85601B710B820B62
:102FD000930B603177428105910558F01886198668
:102FE0001A861B8682E0DF91CF911F910F910C947E
:102FF0006232DF91CF911F910F910895FC0183817F
:10300000813051F44481558166817781452B462B6F
:10301000472B11F41382089580E00895FC01838109
:10302000823099F44481558166817781411551053B
:103030006105710551F0408751876287738714825B
:1030400015821682178281E0089580E00895DC01E0
:103050008BED91E011969C938E9382E693E013960C
:103060009C938E93129715961C92159715962C91FA
:103070001597E22FF0E0EE0FFF1FE95DFE4F808114
:103080009181892B29F02F5F15962C931597EECF00
:10309000089520915704225031E0223008F430E0A6
:1030A000FC0136830895DC0185EE91E011969C9336
:1030B0008E938CE593E013969C938E9312971596BE
:1030C0001C92159715962C911597E22FF0E0EE0FB4
:1030D000FF1FEF5EFE4F80819181892B29F02F5FCA
:1030E00015962C931597EECF0895CF93DF93EC01AF
:1030F00084E090E00E94933C8F3F39F4188260E0B6
:1031000084E090E00E94A73C01C0888385E090E0C5
:103110000E94933C8F3F39F4198260E085E090E093
:103120000E94A73C01C0898386E090E00E94933C06
:103130008F3F41F485E08A8365E086E090E00E945D
:10314000A73C01C08A8387E090E00E94933C8F3FB8
:1031500041F486E08B8366E087E090E00E94A73C24
:1031600001C08B8388E090E00E94933C8F3F49F43C
:1031700087E38C8367E388E090E0DF91CF910C9444
:10318000A73C8C83DF91CF910895CF92DF92EF928D
:10319000FF92CF93DF93EC018091570484508730E6
:1031A00008F474C08881882309F470C0CE010E949D
:1031B0005B14882309F46AC00E944B366B017C01C2
:1031C0008F819885A985BA85A7019601281B390B9F
:1031D0004A0B5B0BDA01C901893E9340A105B10599
:1031E00008F454C00E94F532E52F2093AA043093CE
:1031F000AB044093AC045093AD046093AE04709361
:10320000AF045D838091AE048E8399814A8150E042
:103210002CE3929F400D511D11249B812C8130E0A5
:103220006CE3969F200D311D112490E06CE3E69F26
:10323000800D911D112424173507A8F484179507D4
:1032400030F02817390730F04817590778F08217FF
:10325000930778F4809157048E3FA1F487E194E0BE
:103260000E94CE070FC08417950788F7821793072F
:1032700048F02F5F3F4F2817390720F087E194E08F
:103280000E940F08CF82D886E986FA86DF91CF9117
:10329000FF90EF90DF90CF90089583E895E00E9433
:1032A00027188DE795E00E94531889EF91E09093DD
:1032B0007905809378058EE493E090937B05809365
:1032C0007A0583E092E0909372058093710582E421
:1032D00093E090937405809373058DE092E0909352
:1032E0006D0580936C0586E393E090936F05809362
:1032F0006E058FEE91E0909368058093670586E1F7
:1033000093E090936A058093690587E192E090933A
:103310006305809362058BEE92E090936505809340
:10332000640581E292E090935E0580935D058BEDEC
:1033300092E09093600580935F058BE292E090931A
:1033400059058093580585E293E090935B0580933F
:103350005A0585E392E0909354058093530589E0E4
:1033600093E090935605809355058FE392E09093F8
:103370004F0580934E0589EF92E09093510580931D
:10338000500589E492E090934A058093490586ECC4
:1033900092E090934C0580934B0583E592E09093E7
:1033A00045058093440587EB92E090934705809311
:1033B00046052DE532E03093400520933F0527E692
:1033C00032E030933B0520933A0590933D0580937E
:1033D0003C0581E792E090933605809335058BE7B5
:1033E00092E0909331058093300585E892E09093C8
:1033F0002C0580932B058FE892E09093270580930E
:10340000260580E992E0909329058093280529E913
:1034100032E0309322052093210590932405809378
:10342000230583EA92E090931D0580931C058DEAA5
:1034300092E0909318058093170587EB92E09093A4
:1034400013058093120581EC92E090930E05809312
:103450000D058BEC92E090930905809308058BE5B0
:1034600092E090930B0580930A0585ED92E090938E
:1034700004058093030580E592E090930605809310
:1034800005051092F7041092F8041092F9041092B6
:10349000FA041092FB041092FC041092FD041092A6
:1034A000FE041092FF04109201051092000580EBBB
:1034B00094E00E940D1540E050E0BA018AEA94E0E1
:1034C0000E94813280EA95E1AFEFBFEF8093A604BE
:1034D0009093A704A093A804B093A9041092920417
:1034E0000895CF92DF92EF92FF920F931F93CF93A5
:1034F000DF93EC010E944B366B017C0189819A813C
:10350000AB81BC81B701A601481B590B6A0B7B0B31
:10351000483E53406105710508F468C0CE01059628
:103520000E94F9139F838E8368E670E084ED95E036
:103530000E946B356EE084ED95E00E94053560E2F7
:1035400084ED95E00E94053584ED95E00E9480357C
:1035500068E670E084ED95E00E946B3561E184EDF2
:1035600095E00E94053584ED95E00E94803542E0AB
:1035700050E068E670E084ED95E00E945E3584EDF1
:1035800095E00E94B5348C0184ED95E00E94B5343D
:103590009C01332766E0359527956A95E1F7C801C8
:1035A0009927880F991F880F991F282B392B2F3F98
:1035B00083E0380719F41986188614C031FD3E6F70
:1035C00039872887288539854AE0429FC001439F73
:1035D000900D112497FD0396959587959595879560
:1035E00099878887C982DA82EB82FC82DF91CF914A
:1035F0001F910F91FF90EF90DF90CF900895CF92A1
:10360000DF92EF92FF920F931F93CF93DF937C0192
:103610008A01462F60E00E945E12F80101900020AE
:10362000E9F73197DE2ED01A80E18D1510F4E0E134
:10363000DE2EC02EC02FD12F8C2F8C198D1528F483
:103640006991C7010E94E312F7CF80E1D81631F0EB
:1036500060E2C7010E94E312D394F7CFDF91CF91CC
:103660001F910F91FF90EF90DF90CF900895EF9210
:10367000FF920F931F93CF93DF93EC017B01BA016D
:103680008C01015F1F4F40E150E0C8010E947E3A6B
:103690001F8EA801B701CE01DF91CF911F910F912D
:1036A000FF90EF900C94FF1ACF93DF93EC01A89555
:1036B0001E8622E042E060E10E94ED1267E0CE014A
:1036C0000E94CA1167E0CE010E94D8044AE351E08B
:1036D00060E0CE010E94121542E351E061E0CE01AC
:1036E0000E9412154AE251E062E0CE010E941215DA
:1036F00042E251E063E0CE010E941215CE010E9429
:10370000521248E151E060E070E0CE010E94371BA8
:1037100022E131E041E050E060E070E0CE010E9443
:103720004F176BE673E0CE010E9439176CED75E020
:1037300080E090E00E947A36A895DF91CF910895BD
:1037400084ED95E00E9444350E94F3328FE994E0C5
:103750000E94751880EB94E00E94541B0E94463230
:1037600087E194E00C94EF0A88E10FB6F894809317
:103770006000109260000FBE60E971E080E090E0B0
:103780000E947A3626E040E052EC61E070E083E38C
:1037900096E00E94CB3784EF94E00E9471170E945C
:1037A000A01B8DE894E00E94FF142FE088E190E0D8
:1037B0000FB6F894A895809360000FBE2093600028
:1037C0008DE090E00E949B3C6F3F7F4F8F4F9F4F5B
:1037D00039F440E050E0BA018DE090E00E94B53C41
:1037E0008DE090E00E949B3C6093890470938A0472
:1037F00080938B0490938C0408950F931F93CF9321
:10380000DF93EC018A01AB0160E070E00E94371B9E
:10381000A80161E070E0CE01DF91CF911F910F917F
:103820000C94371BCF93DF93EC011C828E8188238D
:1038300099F02C81E22FF0E0EE0FFF1FE95DFE4FC3
:103840008081918135E08830930719F42F5F2C83B4
:10385000F0CF83509540D1F34A815B8160E070E006
:1038600080EB94E00E94371BEC81F0E0EE0FFF1F2D
:10387000E95DFE4F0190F081E02D4281538161E0CE
:1038800070E080EB94E0DF91CF910C94371BFC014A
:1038900084818F5F84832581281708F414828681B0
:1038A000882399F03481A32FB0E0AA0FBB1FA95D34
:1038B000BE4F8D919C9145E08830940719F43F5F8D
:1038C0003483F0CF83509540D1F3E481E21758F46C
:1038D000F0E0EE0FFF1FE95DFE4F0190F081E02D5B
:1038E0004281538102C041EC52E061E070E080EB24
:1038F00094E00C94371BFC0114824281538160E0F8
:1039000070E080EB94E00E94371BE0911101F09190
:1039100012014281538161E070E080EB94E00C94ED
:10392000371BFC0184818F5F84839581981708F48D
:103930001482E481E91758F4F0E0EE0FFF1FEF5E08
:10394000FE4F0190F081E02D4281538102C041EC95
:1039500052E061E070E080EB94E00C94371BCF9371
:10396000DF93EC014A815B8160E070E080EB94E0E2
:103970000E94371BE1E080910205813009F4E0E00C
:10398000EC83F0E0EE0FFF1FE55CFE4F81818F932B
:1039900080818F938BE691E09F938F9384ED94E0E9
:1039A0009F938F930E949F3A0F900F900F900F90CC
:1039B0000F900F9044ED54E061E070E080EB94E0F4
:1039C000DF91CF910C94FF1ACF93DF93EC0180919C
:1039D0004A0480FD46C086E08D8388E18E838FE6B1
:1039E00091E09F938F9380913A018F938091390159
:1039F0008F9384ED94E09F938F930E949F3A44EDC0
:103A000054E060E070E080EB94E00E94FF1A909137
:103A10005E049C838D810F900F900F900F900F90FC
:103A20000F90981708F48C838C811F928F9385E7F1
:103A300091E09F938F9384ED94E09F938F930E94E6
:103A40009F3A0F900F900F900F900F900F9044EDB2
:103A500054E061E070E080EB94E0DF91CF910C9452
:103A6000FF1A86E08D8380E58E8382E791E0B9CFEF
:103A7000CF93DF93EC014A815B8160E070E080EBE3
:103A800094E00E94371BE0914A04F0914B04F695B4
:103A9000E795E170EC83F0E0EE0FFF1FE15CFE4F75
:103AA00081818F9380818F938BE691E09F938F9399
:103AB00084ED94E09F938F930E949F3A0F900F9014
:103AC0000F900F900F900F9044ED54E061E070E084
:103AD00080EB94E0DF91CF910C94FF1ACF93DF93AA
:103AE000EC014A815B8160E070E080EB94E00E9431
:103AF000371BE0914B04E695E170EC83F0E0EE0FAC
:103B0000FF1FE15CFE4F81818F9380818F938BE655
:103B100091E09F938F9384ED94E09F938F930E9405
:103B20009F3A0F900F900F900F900F900F9044EDD1
:103B300054E061E070E080EB94E0DF91CF910C9471
:103B4000FF1ACF93DF93EC014A815B8160E070E064
:103B500080EB94E00E94371BE0914B04E2FBEE27E0
:103B6000E0F9EC83F0E0EE0FFF1FE15CFE4F818196
:103B70008F9380818F938BE691E09F938F9384ED59
:103B800094E09F938F930E949F3A0F900F900F9015
:103B90000F900F900F9044ED54E061E070E080EBE7
:103BA00094E0DF91CF910C94FF1ACF93DF93EC0157
:103BB0004A815B8160E070E080EB94E00E94371BFB
:103BC000E0914A04F0914B04F695E795F695E79558
:103BD000E170EC83F0E0EE0FFF1FE15CFE4F8181AE
:103BE0008F9380818F938BE691E09F938F9384EDE9
:103BF00094E09F938F930E949F3A0F900F900F90A5
:103C00000F900F900F9044ED54E061E070E080EB76
:103C100094E0DF91CF910C94FF1ACF93DF93EC01E6
:103C20004A815B8160E070E080EB94E00E94371B8A
:103C3000E0914A04F0914B0483E0F695E7958A956C
:103C4000E1F7E170EC83F0E0EE0FFF1FE15CFE4F67
:103C500081818F9380818F938BE691E09F938F93E7
:103C600084ED94E09F938F930E949F3A0F900F9062
:103C70000F900F900F900F9044ED54E061E070E0D2
:103C800080EB94E0DF91CF910C94FF1ACF93DF93F8
:103C9000EC014A815B8160E070E080EB94E00E947F
:103CA000371BE0914A04F0914B0424E0F695E79528
:103CB0002A95E1F7E170EC83F0E0EE0FFF1FE15C85
:103CC000FE4F81818F9380818F938BE691E09F934C
:103CD0008F9384ED94E09F938F930E949F3A0F906F
:103CE0000F900F900F900F900F9044ED54E061E013
:103CF00070E080EB94E0DF91CF910C94FF1AFC010F
:103D000014824EEC52E060E070E080EB94E00E94A0
:103D1000371B40913F015091400161E070E080EB22
:103D200094E00C94FF1ACF92DF92EF92FF920F93E0
:103D30001F93CF93DF93EC01C62ED42EF22E1E2DAF
:103D40001092D404E11006C069E671E084ED94E0BD
:103D50000E948D3A6C2D70E080E090E042E00E947D
:103D6000CE14BC0184ED94E00E948D3A6AE771E0C4
:103D700084ED94E00E948D3A113031F469E671E0EF
:103D800084ED94E00E948D3A6D2D70E080E090E02B
:103D900042E00E94CE14BC0184ED94E00E948D3A72
:103DA0006AE771E084ED94E00E948D3A123031F4BC
:103DB00069E671E084ED94E00E948D3ABE0180E0F6
:103DC00090E042E00E94CE14BC0184ED94E00E9499
:103DD0008D3A69EF72E084ED94E00E948D3A1330E1
:103DE00031F469E671E084ED94E00E948D3A6F2D24
:103DF00070E080E090E042E00E94CE14BC0184EDCF
:103E000094E00E948D3A6CE771E084ED94E00E94AA
:103E10008D3A143031F469E671E084ED94E00E944B
:103E20008D3A602F70E080E090E042E00E94CE1476
:103E3000BC0184ED94E00E948D3A44ED54E061E0D1
:103E400070E080EB94E0DF91CF911F910F91FF9094
:103E5000EF90DF90CF900C94FF1AEF920F93CF93D7
:103E6000DF93EC0141EB52E060E070E080EB94E026
:103E70000E94371B0E94F5322093AA043093AB04B2
:103E80004093AC045093AD046093AE047093AF04C0
:103E900030939C0440939B04822F90E090939E0467
:103EA00080939D04252F50939A04062F60939904C4
:103EB0003C83E12C632F0E94931EDF91CF910F91E1
:103EC000EF900895EF920F93FC01648160939C043E
:103ED000E12C0091990420919A0440919B048091D7
:103EE0009D0490919E040E94931E64EF71E080E017
:103EF00090E00E947A368AE395E00F91EF90089562
:103F0000EF920F93CF93DF93EC014DEA52E060E024
:103F100070E080EB94E00E94371B40919B044C833F
:103F2000EE24E3940091990420919A0460919C04FA
:103F300080919D0490919E040E94931EDF91CF91E9
:103F40000F91EF900895EF920F93FC0144814093FD
:103F50009B04EE24E3940091990420919A046091CB
:103F60009C0480919D0490919E040E94931E64EF96
:103F700071E080E090E00E947A3685E395E00F9151
:103F8000EF900895EF920F93CF93DF93EC0148EAFF
:103F900052E060E070E080EB94E00E94371B80917B
:103FA0009D0491EF980F9B3010F48C8308C08FE034
:103FB0008C838FE090E090939E0480939D048C818D
:103FC00042E0E42E0091990420919A0440919B04D0
:103FD00060919C0490E00E94931EDF91CF910F911D
:103FE000EF900895EF920F93FC0184818F5F8A31E7
:103FF00008F08FE08483848152E0E52E00919904DB
:1040000020919A0440919B0460919C0490E00E944E
:10401000931E0F91EF900895EF920F93FC0184810E
:1040200090E090939E0480939D0462E0E62E0091C0
:10403000990420919A0440919B0460919C040E94F1
:10404000931E64EF71E080E090E00E947A3680E396
:1040500095E00F91EF900895EF920F93CF93DF9338
:10406000EC0143EA52E060E070E080EB94E00E94F3
:10407000371B20919A042C8373E0E72E009199045A
:1040800040919B0460919C0480919D0490919E04BA
:104090000E94931EDF91CF910F91EF900895EF92C0
:1040A0000F93FC01248120939A04E3E0EE2E00910B
:1040B000990440919B0460919C0480919D0490918F
:1040C0009E040E94931E64EF71E080E090E00E94E5
:1040D0007A368BE295E00F91EF900895EF920F936F
:1040E000CF93DF93EC014CE952E060E070E080EBAD
:1040F00094E00E94371B009199040C83F4E0EF2EAA
:1041000020919A0440919B0460919C0480919D04AD
:1041100090919E040E94931EDF91CF910F91EF909A
:104120000895CF92EF920F93CF93DF9300D000D0FA
:1041300000D0CDB7DEB7FC01048100939904A4E060
:10414000EA2E20919A0440919B0460919C048091F6
:104150009D0490919E040E94931E60919D04709115
:104160009E04C12CE090990400919A0420919B0434
:1041700040919C04CE0101960E94DF32CE0101964F
:104180000E948C3364EF71E080E090E00E947A3608
:104190008DE795E026960FB6F894DEBF0FBECDBF33
:1041A000DF91CF910F91EF90CF900895FC01148291
:1041B00044E551E060E070E080EB94E00E94371B42
:1041C00040913F015091400161E070E080EB94E04C
:1041D0000C94FF1A1F93CF93DF93182FD62FC42F61
:1041E0001092D404411106C069E671E084ED94E0B8
:1041F0000E948D3A612F70E080E090E042E00E94E2
:10420000CE14BC0184ED94E00E948D3A6CE771E01D
:1042100084ED94E00E948D3AC13031F469E671E09A
:1042200084ED94E00E948D3A6D2F70E080E090E084
:1042300042E00E94CE14BC0184ED94E00E948D3ACD
:1042400044ED54E061E070E080EB94E0DF91CF91C9
:104250001F910C94FF1ACF93DF93EC0145E852E0D5
:1042600060E070E080EB94E00E94371BEFE9F4E03F
:10427000818180939A046281609399048C8340E0E9
:10428000DF91CF910C94EA20FC0184818F5F88310B
:1042900010F4848301C0148240E060919904848109
:1042A0000C94EA20FC01848180939A0440E06091A0
:1042B00099040E94EA2064EF71E080E090E00E949F
:1042C0007A3682E195E00895CF93DF93EC0141E7E0
:1042D00052E060E070E080EB94E00E94371BEFE971
:1042E000F4E0838180939A046481609399048C83C1
:1042F00040E0DF91CF910C94EA20FC0184818F5F34
:10430000883110F4848301C0148240E060919904E4
:1043100084810C94EA20FC01848180939A0440E01B
:10432000609199040E94EA2064EF71E080E090E0DF
:104330000E947A368DE095E00895CF93DF93EC01EB
:104340004BE752E060E070E080EB94E00E94371BA6
:10435000609199046C8341E080919A04DF91CF9140
:104360000C94EA20FC0184818F5F8C3310F48483E9
:1043700001C0148241E0648180919A040C94EA2087
:10438000CF93DF93FC0164816093990441E08091B5
:104390009A040E94EA208091990460919A046093A3
:1043A000A004C1EAD4E0888385E090E00E94A73CA5
:1043B000688186E090E00E94A73C87E194E00E943B
:1043C0003D0664EF71E080E090E00E947A3683E879
:1043D00095E0DF91CF910895CF93DF93EC0148E60C
:1043E00052E060E070E080EB94E00E94371B609147
:1043F00099046C8341E080919A04DF91CF910C94F1
:10440000EA20FC0184818F5F8C3310F4848301C027
:10441000148241E0648180919A040C94EA20CF9345
:10442000DF93FC0164816093990441E080919A04D8
:104430000E94EA208091990460919A046093A204FA
:10444000C3EAD4E0888387E090E00E94A73C6881BB
:1044500088E090E00E94A73C87E194E00E943D063E
:1044600064EF71E080E090E00E947A3683E895E0A6
:10447000DF91CF910895FC01148240E952E060E0A1
:1044800070E080EB94E00E94371B40913301509123
:10449000340161E070E080EB94E00C94FF1ACF935C
:1044A000DF93EC011092D404662331F069E671E0E9
:1044B00084ED94E00E94983A6C81611103C06EE72C
:1044C00071E00DC070E080E090E040E00E94CE140A
:1044D000BC0184ED94E00E948D3A62E871E084EDC5
:1044E00094E00E948D3A44ED54E061E070E080EB8E
:1044F00094E0DF91CF910C94FF1ACF93DF93EC01FE
:10450000809184048C834BE552E060E070E080EBA6
:1045100094E00E94371B61E0CE01DF91CF910C94B3
:104520004F22FC018481853010F48F5F01C08B5FC6
:1045300084838481893208F0148261E0909184043C
:104540008481981360E0CF010C944F22CF93DF93C6
:10455000EC0161E00E944F228C81809384048C8165
:1045600081111092770464EF71E080E090E00E9486
:104570007A368C81811103C083E895E002C080E027
:1045800090E0DF91CF910895CF93DF93FC01C48138
:10459000FFE0CF9FE00111241092D404662331F094
:1045A00069E671E084ED94E00E94983A209719F44E
:1045B0006EE771E02BC0CC33D10570F4BE0180E012
:1045C00090E040E00E94CE14BC0184ED94E00E9493
:1045D0008D3A67E871E01AC0CE016CE370E00E948A
:1045E000F139EC0180E090E040E00E94CE14BC0183
:1045F00084ED94E00E948D3ACD2B31F06CE871E0AF
:1046000084ED94E00E948D3A6FE871E084ED94E0CF
:104610000E948D3A44ED54E061E070E080EB94E05C
:10462000DF91CF910C94FF1ACF93DF93EC0180912F
:1046300077048C8340E552E060E070E080EB94E02A
:104640000E94371B61E0CE01DF91CF910C94C42210
:10465000FC018481843010F48F5F05C08C3010F42D
:104660008E5F01C08C5F84838481813208F0148264
:1046700061E0909177048481981360E0CF010C94FD
:10468000C422CF93DF93EC0161E00E94C4228C81AD
:10469000809377048C8181111092840464EF71E01F
:1046A00080E090E00E947A368C81811103C083E81B
:1046B00095E002C080E090E0DF91CF9108950F93E4
:1046C0001F93CF93DF93EC01062F462F60E00E94EB
:1046D0005E1210E160E2CE010E94E3121150D1F7A8
:1046E000402F60E0CE01DF91CF911F910F910C948C
:1046F0005E12CF93DF93EC018C818F5F823010F4D8
:104700008C8301C01C8261E070E080EB94E00E9429
:104710005F2341E060E080EB94E00E945E1269E676
:1047200071E080EB94E00E942039EC81F0E0EE0F24
:10473000FF1FE55CFE4F6081718180EB94E0DF91AB
:10474000CF910C942039CF93DF93EC014A815B81A8
:1047500060E070E080EB94E00E94371B80914A0497
:1047600085FD02C01C8206C080FF02C082E001C03D
:1047700081E08C8361E070E080EB94E00E945F2335
:1047800029E631E041E050E060E070E080EB94E049
:104790000E942715EC81F0E0EE0FFF1FE55FFE4F52
:1047A0006081718180EB94E0DF91CF910C9420398E
:1047B000CF93DF93EC018C818F5F833010F48C8377
:1047C00001C01C8261E070E080EB94E00E945F23F6
:1047D00041E060E080EB94E00E945E1280914A0428
:1047E00080FF02C022E001C021E030E08C8190E037
:1047F00001962817390731F469E671E080EB94E0FF
:104800000E942039EC81F0E0EE0FFF1FE55FFE4FC4
:104810006081718180EB94E0DF91CF910C9420391D
:10482000CF93DF93EC0190914A048C8190FF02C0FA
:104830008E3410F08F5F01C08E5F8C839C818E81DF
:10484000891710F48D818C8361E070E080EB94E037
:104850000E945F2341E060E080EB94E00E945E12E2
:1048600090915E048C81981306C069E671E080EB3C
:1048700094E00E9420396C8170E04AE050E080EBC7
:1048800094E00E94CC3968E771E080EB94E0DF911E
:10489000CF910C942039CF93DF93EC018C818F5F03
:1048A000823010F48C8301C01C8261E070E080EBE8
:1048B00094E00E945F2341E060E080EB94E00E947E
:1048C0005E1290914A048C8191FD03C0882319F0F7
:1048D00008C0882331F069E671E080EB94E00E9423
:1048E0002039EC81F0E0EE0FFF1FE15CFE4F6081AC
:1048F000718180EB94E0DF91CF910C942039CF93BC
:10490000DF93EC018C818F5F823010F48C8301C0C7
:104910001C8261E070E080EB94E00E945F2341E044
:1049200060E080EB94E00E945E1280914A049091D6
:104930004B042C8191FD03C0222319F008C02223CF
:1049400031F069E671E080EB94E00E942039EC815F
:10495000F0E0EE0FFF1FE15CFE4F6081718180EBA4
:1049600094E0DF91CF910C942039CF93DF93EC0149
:104970008C818F5F823010F48C8301C01C8261E0D7
:1049800070E080EB94E00E945F2341E060E080EB08
:1049900094E00E945E1280914A0490914B042C8115
:1049A00092FD03C0222319F008C0222331F069E6EA
:1049B00071E080EB94E00E942039EC81F0E0EE0F92
:1049C000FF1FE15CFE4F6081718180EB94E0DF911D
:1049D000CF910C942039CF93DF93EC018C818F5FC2
:1049E000823010F48C8301C01C8261E070E080EBA7
:1049F00094E00E945F2341E060E080EB94E00E943D
:104A00005E1290914A048C8192FD03C0882319F0B4
:104A100008C0882331F069E671E080EB94E00E94E1
:104A20002039EC81F0E0EE0FFF1FE15CFE4F60816A
:104A3000718180EB94E0DF91CF910C942039CF937A
:104A4000DF93EC018C818F5F823010F48C8301C086
:104A50001C8261E070E080EB94E00E945F2341E003
:104A600060E080EB94E00E945E1290914A048C8199
:104A700093FD03C0882319F008C0882331F069E64C
:104A800071E080EB94E00E942039EC81F0E0EE0FC1
:104A9000FF1FE15CFE4F6081718180EB94E0DF914C
:104AA000CF910C942039CF93DF93EC018C818F5FF1
:104AB000823010F48C8301C01C8261E070E080EBD6
:104AC00094E00E945F2341E060E080EB94E00E946C
:104AD0005E1290914A048C8194FD03C0882319F0E2
:104AE00008C0882331F069E671E080EB94E00E9411
:104AF0002039EC81F0E0EE0FFF1FE15CFE4F60819A
:104B0000718180EB94E0DF91CF910C942039CF93A9
:104B1000DF93EC018C818F5F823010F48C8301C0B5
:104B20001C8261E070E080EB94E00E945F23EC81E6
:104B3000F0E0EE0FFF1FE15CFE4F2081318141E08C
:104B400050E060E070E080EB94E0DF91CF910C9456
:104B50002715CF93DF93EC018C818F5F823010F4A7
:104B60008C8301C01C8261E070E080EB94E00E94C5
:104B70005F23EC81F0E0EE0FFF1FE15CFE4F208130
:104B8000318141E050E060E070E080EB94E0DF9143
:104B9000CF910C942715EF920F93CF93DF93EC01F5
:104BA0008C818F5F8D3008F081E08C8361E070E054
:104BB00080EB94E00E945F23E12C00919904209106
:104BC0009A0440919B046C8180919D0490919E0475
:104BD0000E94931EDF91CF910F91EF900895EF9275
:104BE0000F93CF93DF93EC018C818F5F803208F0BD
:104BF00081E08C8361E070E080EB94E00E945F23B1
:104C0000EE24E3940091990420919A044C816091E0
:104C10009C0480919D0490919E040E94931EDF91BC
:104C2000CF910F91EF900895EF920F93CF93DF9371
:104C3000EC018C818F5F883110F48C8301C01C8261
:104C400061E070E080EB94E00E945F23E3E0EE2EF1
:104C5000009199042C8140919B0460919C04809167
:104C60009D0490919E040E94931EDF91CF910F911D
:104C7000EF900895EF920F93CF93DF93EC018C8127
:104C80008F5F8C3310F48C8301C01C8261E070E074
:104C900080EB94E00E945F23F4E0EF2E0C812091E2
:104CA0009A0440919B0460919C0480919D04909192
:104CB0009E040E94931EDF91CF910F91EF90089573
:104CC000CF93DF93EC018C818F5F833010F48C8362
:104CD00001C01C8261E070E080EB94E00E945F23E1
:104CE000EC81F0E0EE0FFF1FED5CFE4F2081318183
:104CF00041E050E060E070E080EB94E0DF91CF9124
:104D00000C942715CF93DF93EC0181E090919F04E1
:104D1000911180E08C8340E952E060E070E080EB2C
:104D200094E00E94371B61E070E080EB94E00E9409
:104D30005F2329E631E041E050E060E070E080EB85
:104D400094E00E942715EC81F0E0EE0FFF1FE15C7C
:104D5000FE4F6081718180EB94E0DF91CF910C94E4
:104D60002039CF93DF93EC018C818F5F823010F478
:104D70008C8301C01C8261E070E080EB94E00E94B3
:104D80005F23EC81F0E081E090E020919F042223FA
:104D900011F080E090E0E817F907C1F429E631E06E
:104DA00041E050E060E070E080EB94E00E94271565
:104DB000EC81F0E0EE0FFF1FE15CFE4F608171813E
:104DC00080EB94E0DF91CF910C942039EE0FFF1F20
:104DD000E15CFE4F2081318141E050E060E070E015
:104DE00080EB94E0DF91CF910C942715FC0120819A
:104DF000222349F00E945B14882329F060E080EBB5
:104E000094E00C94E31208956F927F929F92AF9278
:104E1000CF92DF92EF92FF920F931F93CF93DF9386
:104E2000EC01062F8E8586FD70C410915704809189
:104E30004A0480FF03C032E0A32E02C0AA24A39438
:104E400090905E040E944B366B017C019091570458
:104E50008091580498131DC001111BC088A199A10D
:104E6000AAA1BBA1A7019601281B390B4A0B5B0B1A
:104E7000DA01C901883E9340A105B10508F445C493
:104E8000C8A2D9A2EAA2FBA280914C0481FD1BC258
:104E9000CEC198EEC90E93E0D91EE11CF11C1F9201
:104EA0009F921F92AF9281E793E09F938F9384ED3F
:104EB000682E84E0782E7F926F920E949F3A2DB7E1
:104EC0003EB7285F3F4F0FB6F8943EBF0FBE2DBFD1
:104ED000163009F561E0CE010E94D80448EC51E09B
:104EE0000CC01A3008F069C1173009F055C161E0F3
:104EF000CE010E94D80448EA51E0023031F46EEF4E
:104F000071E0CE010E94FD1BA9CF60E070E0CE01F0
:104F10000E94371BA3CF173008F032C1133031F590
:104F200066E0CE010E94D804CE010E94521240E0F9
:104F300060E0CE010E945E1280918404882321F0FB
:104F400063E0CE010E94E31280917704882321F070
:104F500060E0CE010E94E3128FE994E00E94F62601
:104F600063E671E0CE010E94391778CF143008F063
:104F7000F4C0113009F06EC062E0CE010E94D80486
:104F8000CE010E94521240E060E0CE010E945E120B
:104F90008FE994E00E94F6266CE671E0CE010E9453
:104FA000391724ED34E040E050E06AE070E0CE01D3
:104FB0000E94271560918504709186048091870472
:104FC0009091880420E13EE040E050E00E94193AD0
:104FD0005F934F933F932F9383E991E09F938F9338
:104FE0007F926F920E949F3A24ED34E041E050E0BE
:104FF00060E070E0CE010E942715609189047091F5
:105000008A0480918B0490918C0428EE33E040E078
:1050100050E00E94193A5F934F933F932F938AE990
:1050200091E09F938F937F926F920E949F3A24ED1D
:1050300034E041E050E067E070E0CE010E942715C7
:105040002DB73EB7205F3F4F0FB6F8943EBF0FBE5F
:105050002DBF04CF123009F001CF63E0CE010E94D2
:10506000D804CE010E94521240E060E0CE010E94BE
:105070005E1280918404882321F063E0CE010E94B7
:10508000E31280917704882321F060E0CE010E9432
:10509000E3128FE994E00E94F62660E871E0CE0109
:1050A0000E94391724ED34E040E050E06AE070E0FF
:1050B000CE010E942715609185047091860480912D
:1050C00087049091880420E13EE040E050E00E9497
:1050D000193A5F934F933F932F9383E991E09F9306
:1050E0008F9324ED622E24E0722E7F926F920E94A5
:1050F0009F3A930141E050E060E070E0CE010E94F1
:1051000027156091890470918A0480918B04909195
:105110008C0428EE33E040E050E00E94193A5F939F
:105120004F933F932F938AE991E09F938F937F92C0
:105130006F920E949F3A930141E050E067E070E077
:10514000CE010E9427154DB75EB7405F5F4F0FB687
:10515000F8945EBF0FBE4DBF81CE143039F461E0CC
:10516000CE010E94D8044FED51E0C9CE153009F0B0
:1051700075CE61E0CE010E94D80443ED51E0BFCE70
:10518000193009F0AECE61E0CE010E94D80443ECA4
:1051900051E069E072E0B5CE183009F05FCE61E011
:1051A000CE010E94D804023019F46DEE71E002C005
:1051B0006EEF71E04CE951E0A4CE1E3FD9F465E0FA
:1051C000CE010E94D804CE010E94521240E060E05D
:1051D000CE010E945E126AE871E0CE010E9439178A
:1051E00024ED34E040E050E06AE070E0CE010E943F
:1051F000271534CE1F3F78F065E0CE010E94D80419
:10520000CE010E94521240E060E0CE010E945E1288
:1052100063E971E0E2CF1A3009F020CE61E0CE01FF
:105220000E94D80442EB51E06DEE71E06ACE8AEF45
:10523000810F823008F047C069E773E084ED94E0A5
:105240000E94983A87E194E00E940C1128EE33E026
:1052500040E050E00E94193AC90137FD56C26CE3A4
:1052600070E00E94053A9F938F937F936F9388EB32
:1052700091E09F938F938EEE94E09F938F930E9483
:105280009F3A6EEE74E084ED94E00E948D3A4DB743
:105290005EB7485F5F4F0FB6F8945EBF0FBE4DBF5D
:1052A00044ED54E061E070E0CE01DF91CF911F91B9
:1052B0000F91FF90EF90DF90CF90AF909F907F90F5
:1052C0006F900C94FF1A0E94F5322093AA04309339
:1052D000AB044093AC045093AD046093AE04709360
:1052E000AF04133021F080914C0484FF5AC08E85A6
:1052F00087FF3EC08F778E8760917C0470917D041C
:1053000080917E0490917F04683E33E073078105AD
:10531000910508F4FDC028EE33E040E050E00E9423
:10532000193AF22E032F24E630E040E050E00E94CC
:10533000193A3F932F930F93FF9282EA91E09F9344
:105340008F9384ED94E09F938F930E949F3A8DB743
:105350009EB708960FB6F8949EBF0FBE8DBF24ED82
:1053600034E040E050E06AE070E0CE010E94271592
:105370001330B9F420917C0430917D0440917E0477
:1053800050917F0480914A04C0908504D090860497
:10539000E0908704F090880480FFC1C0A0EFB0E0E7
:1053A000C0C01E3F09F0B1C140E060E0CE010E94E4
:1053B0005E128FE994E00E94F6266AE871E0CE0161
:1053C0000E9439178091AF041F928F938091AE0491
:1053D0001F928F938091AD041F928F9383EB91E086
:1053E0009F938F9304ED14E01F930F930E949F3AB5
:1053F000980141E050E060E070E0CE010E94271586
:105400002DB73EB7265F3F4F0FB6F8943EBF0FBE95
:105410002DBF80919F04882309F451C040E069E0CA
:10542000CE010E945E1262E0CE010E94E31260E0B3
:10543000CE010E94E3128091A1041F928F9380916C
:10544000A0041F928F9398EBE92E91E0F92EFF9222
:10545000EF921F930F930E949F3A980140E050E013
:105460006BE070E0CE010E94271541E069E0CE01BB
:105470000E945E1261E0CE010E94E31260E0CE0164
:105480000E94E3128091A3041F928F938091A20443
:105490001F928F93FF92EF921F930F930E949F3A58
:1054A0004DB75EB7405F5F4F0FB6F8945EBF0FBE5B
:1054B0004DBF980141E050E06BE070E01AC01F92D0
:1054C0009F921F92AF9281E793E09F938F931F93D8
:1054D0000F930E949F3A8DB79EB708960FB6F89427
:1054E0009EBF0FBE8DBF24ED34E040E050E06AE087
:1054F00070E0CE01DF91CF911F910F91FF90EF905F
:10550000DF90CF90AF909F907F906F900C94271575
:105510006BE071E084ED94E00E94773A20CFA8E739
:10552000B0E00E94503A28EE33E040E050E00E94A4
:10553000193A2C0D3D1D4E1D5F1D2093850430939F
:105540008604409387045093880460918504709189
:105550008604809187049091880420E13EE040E039
:1055600050E00E94193A5F934F933F932F9383E942
:1055700091E09F938F9304ED14E01F930F930E948B
:105580009F3A980141E050E060E070E0CE010E9457
:1055900027156091890470918A0480918B04909101
:1055A0008C0428EE33E040E050E00E94193A5F930B
:1055B0004F933F932F938AE991E09F938F931F938B
:1055C0000F930E949F3A980141E050E067E070E03D
:1055D000CE010E94271580918D042DB73EB7205F24
:1055E0003F4F0FB6F8943EBF0FBE2DBF80FF7DC06A
:1055F00061E070E080EB94E00E945F23E09193040F
:10560000F0919404309779F1CF016AE070E00E9444
:10561000053A97FF03C09195819591099F938F93C8
:10562000CF016AE070E00E94053A7F936F938AEAA7
:1056300091E09F938F9384ED94E09F938F930E94CA
:105640009F3A24ED34E041E050E060E070E0CE01AC
:105650000E9427154DB75EB7485F5F4F0FB6F894AD
:105660005EBF0FBE4DBFE0919504F0919604309758
:1056700071F1CF016AE070E00E94053A97FF03C024
:105680009195819591099F938F93CF016AE070E086
:105690000E94053A7F936F938AEA91E09F938F93DC
:1056A00084ED94E09F938F930E949F3A24ED34E021
:1056B00041E050E065E070E0CE010E9427158DB713
:1056C0009EB708960FB6F8949EBF0FBE8DBF80910F
:1056D0008D04982F9670963029F48B7F80938D04DB
:1056E00061E004C0846080938D0466E0CE01DF91A8
:1056F000CF911F910F91FF90EF90DF90CF90AF90DF
:105700009F907F906F900C94D804DF91CF911F9160
:105710000F91FF90EF90DF90CF90AF909F907F9090
:105720006F9008951F93CF93DF93EC01A89580911C
:105730005704845011E0873008F010E0CE010E9439
:105740007817CE010E94FE178823C9F08C859D85AD
:10575000009709F04BC0112329F08C859D85009797
:10576000A1F47CC0809157048E5F823008F09FC006
:1057700087E194E0DF91CF911F910C94CE07CE0189
:105780000E940E188111E9CF99C0DC01ED91FC91C6
:105790000480F581E02D09959D878C87009781F124
:1057A000B5E083389B0721F0E5E08D379E0721F4B3
:1057B000DC0114961C9101C010E0DC01ED91FC911C
:1057C0000190F081E02D0995EC85FD85B5E0E33889
:1057D000FB0729F025E0ED37F20709F06FC0112330
:1057E00009F46CC0115014838C859D85DC01ED910A
:1057F000FC910280F381E02DDF91CF911F910994FC
:10580000112339F087E194E0DF91CF911F910C943F
:105810004F0680919F04811104C087E194E00E94AB
:10582000CE079091BE04892F8F7B8093BE042E8576
:10583000213021F49E7B9093BE0403C0816080934D
:10584000BE0461E080EB94E00E94042761E080EBFD
:1058500094E0DF91CF911F910C94042783E895E0A9
:105860000E9449188091BE04809581708E8767E000
:1058700080EB94E00E94D8048091BE048064809301
:10588000BE04112319F08DE795E006C087E194E08E
:105890000E940F0883E895E09D878C878C859D8505
:1058A000DC01ED91FC910190F081E02DA5CF87E125
:1058B00094E0DF91CF911F910C940F08DF91CF916D
:1058C0001F9108950E944D3284EF94E00E94922B24
:1058D0008DE894E00C94711ACF93DF93EC0181E092
:1058E000888361E084E090E00E94A73C87E194E037
:1058F0000E943D06CE010E94C51861E080EB94E055
:10590000DF91CF910C940427FC01108260E084E0C9
:1059100090E00E94A73C87E194E00E943D0661E090
:1059200080EB94E00C940427CF93DF93EC0129E6FD
:1059300031E041E050E060E070E080EB94E00E94F4
:105940002715EC81F0E0EE0FFF1FE15CFE4F608158
:10595000718180EB94E00E94203964EF71E080E077
:1059600090E00E947A368C81811105C08FE994E025
:105970000E946C2C04C08FE994E00E94842C83E880
:1059800095E0DF91CF910895A89587E194E00E947A
:10599000110C60E080EB94E00E9404270E94622CCE
:1059A0008FE994E00C94C51808950895FC0116AA97
:1059B000128210A208956115710599F0FB01019002
:1059C0000020E9F7AF0141505109461B570BE09108
:1059D0003306F09134060280F381E02D83E396E0F4
:1059E000099480E090E00895FC01908180ED890F9A
:1059F0008A3040F08FEB890F863018F489EC890FDC
:105A000001C080E08295807F918120ED290F2A30AE
:105A100038F02FEB290F263020F49753890F089583
:105A2000820F0895CF93FC0120E030E0A901C191DD
:105A3000CC2399F0AAE0B0E00E94503A2C2F3327F3
:105A400027FD309520533109442737FD4095542FC9
:105A5000260F371F481F591FEACFCA01B901CF913E
:105A60000895CF93DF93EC011F928DE08F93809187
:105A700057041F928F931F9284E28F938BED92E0D5
:105A80009F938F9384ED94E09F938F930E949F3A0E
:105A9000E881F9810480F581E02DCE010995E88146
:105AA000F9810284F385E02D64ED74E0CE0109955F
:105AB0008DB79EB70A960FB6F8949EBF0FBE8DBFE6
:105AC000E881F9810680F781E02DCE01DF91CF9149
:105AD0000994CF93DF93EC011F928DE08F931F9277
