:100000000C943E030C9496200C94C3200C946F0324
:100010000C946F030C946F030C946F030C946F0398
:100020000C946F030C946F030C946F030C946F0388
:100030000C946F030C946F030C946F030C946F0378
:100040000C94F0200C946F030C94D7220C946F0343
:100050000C946F030C946F030C946F030C946F0358
:100060000C94B4180C946F03312E302E3500536568
:100070007475700053657276696365204C657665AA
:100080006C004D61782043757272656E740044692E
:100090006F646520436865636B0056656E7420521B
:1000A0006571276420436865636B0047726F756EE6
:1000B0006420436865636B0052657365740045781E
:1000C000697400656E61626C656400646973616285
:1000D0006C656400506F776572204F6E0053656CDD
:1000E000662054657374004175746F2044657465AF
:1000F000637400537663204C6576656C3A204C310E
:1001000000537663204C6576656C3A204C3200458E
:10011000565345204552524F520056454E54205298
:10012000455155495245440044494F4445204348B0
:100130004B204641494C45440047464349204641EF
:10014000554C54004E4F2047524F554E4400535487
:1001500055434B2052454C41590053746F707065A4
:100160006400455620436F6E6E6563746564004598
:1001700056204E6F7420436F6E6E65637465640025
:100180006F6E00526573657474696E672E2E2E0053
:100190002000207020002D3E0073746174653A20A9
:1001A000005365745376634C6576656C3A20002085
:1001B00020200056657273696F6E20004F70656E67
:1001C000204556534520202020202020004F7065D8
:1001D0006E5F455653453E2000556E6B6E6F776ED1
:1001E00020436F6D6D616E64202D2D2074797065D4
:1001F000203F206F722068656C7020666F722063EC
:100200006F6D6D616E64206C697374005361766903
:100210006E672053657474696E677320746F204530
:100220004550524F4D007361766500410043757231
:1002300072656E74204361706163697479206E6FBA
:10024000773A2000496E76616C696420437572725A
:10025000656E7420436170616369747900293A2086
:10026000002D00456E74657220616D70732028004A
:1002700047524541544552205448414E2054484528
:100280002052415445442056414C5545204F46206C
:100290005448452045565345004F4620594F555226
:1002A000204349524355495420425245414B4552FF
:1002B000204F52005741524E494E47202D20444F67
:1002C000204E4F54205345542043555252454E54CE
:1002D00020484947484552205448414E203830254F
:1002E00000616D7000737475636B2072656C617969
:1002F00020636865636B2000726C7963686B200013
:1003000067726F756E6420636865636B2000676E4B
:100310006463686B200064696F646520636865636B
:100320006B200064696F63686B200076656E7420D3
:1003300072657175697265642000766E747265719C
:10034000200073657269616C206465627567676916
:100350006E67200073646267200073657420007309
:10036000646267206F6E2F6F6666202D2074757231
:100370006E2073657269616C206465627567676978
:100380006E67206F6E2F6F666600726C7963686BA4
:10039000206F6E2F6F6666202D207475726E20732D
:1003A0007475636B2072656C617920636865636B3B
:1003B000206F6E2F6F666600676E6463686B206FD8
:1003C0006E2F6F6666202D207475726E2067726FB7
:1003D000756E6420636865636B206F6E2F6F666651
:1003E0000064696F63686B206F6E2F6F6666202DE7
:1003F00020656E61626C652F64697361626C652053
:1004000064696F646520636865636B00766E7472FF
:100410006571206F6E2F6F6666202D20656E61629C
:100420006C652F64697361626C652076656E7420FB
:1004300072657175697265642073746174650061B9
:100440006D7020202D205365742045565345204360
:10045000757272656E7420436170616369747900AE
:1004600053657420436F6D6D616E6473202D20554C
:10047000736167653A2073657420616D7000736500
:10048000740073617665202D20577269746520733E
:10049000657474696E677320746F20454550524FC0
:1004A0004D0073686F77202D20446973706C6179FB
:1004B0002073657474696E677320616E6420766161
:1004C0006C7565730073657420202D204368616E20
:1004D00067652053657474696E67730068656C7036
:1004E000202D20446973706C617920636F6D6D619C
:1004F0006E64730048656C7020436F6D6D616E644F
:1005000073003F0068656C7000537475636B205214
:10051000656C617920436865636B3A200047726FB0
:10052000756E6420436865636B3A200044696F64AC
:100530006520436865636B3A200056656E742052EF
:10054000657175697265643A20004D617820437564
:100550007272656E742043617061636974793A20C8
:10056000004D696E2043757272656E742043617030
:1005700061636974793A200043757272656E742004
:1005800063617061636974792028416D7073293AE1
:10059000200053657276696365206C6576656C3AF8
:1005A000200053657474696E67730073686F770019
:1005B0004F70656E5F455653453E200074797065F7
:1005C000203F206F722068656C7020666F72206318
:1005D0006F6D6D616E64206C69737400536F667427
:1005E00077617265202D204F70656E20455653450A
:1005F00020004861726477617265202D2041746D1E
:10060000656C2041544D454741333238502D41559A
:10061000004F70656E2045565345000000000024D1
:100620000027002A0000000000250028002B000001
:10063000000000230026002900040404040404042C
:100640000402020202020203030303030301020481
:100650000810204080010204081020010204081044
:100660002000000007000201000003040600000053
:10067000000000000000D710BC17D32311241FBEB8
:10068000CFEFD8E0DEBFCDBF14BE88E10FB6F8943F
:1006900080936000109260000FBE12E0A0E0B1E015
:1006A000E4E5FCE402C005900D92AC33B107D9F744
:1006B00014E0ACE3B2E001C01D92A239B107E1F74A
:1006C00016E0CCE7D6E004C02297FE010E94ED259B
:1006D000C637D107C9F70E940D240C9428260C9424
:1006E0000000FB01DC018D91059080190110D9F308
:1006F000990B0895FB01DC0105900D920020E1F7B4
:100700000895FB01DC014150504030F08D9105907F
:10071000801919F40020B9F7881B990B0895FB0183
:10072000DC014150504048F005900D920020C9F77F
:1007300001C01D9241505040E0F70895AEE0B0E096
:10074000E4EAF3E00C94FF250D891E8986E08C8392
:100750001A8309838FEF9FE79E838D839E01275E17
:100760003F4FCE0101966F89788DA9010E94C20387
:100770002F813885020F131FF80110822E96E4E0B6
:100780000C941B26ABE0B0E0E8ECF3E00C94F12510
:100790003C012B015A01FC0117821682838181FDE5
:1007A00003C06FEF7FEFC6C19AE0892E1E01089447
:1007B000211C311CF3012381F20123FD859123FFCC
:1007C00081912F01882309F4B2C1853239F423FDC8
:1007D000859123FF81912F01853229F490E0B301A7
:1007E0000E94B505E7CF982FFF24EE249924FFE15E
:1007F000FF15D0F09B3269F09C3228F4903259F00A
:10080000933291F40EC09D3249F0903369F441E087
:1008100024C052E0F52A84E0F82A28C098E0F92A9A
:1008200025C0E0E1FE2A22C0F7FC29C0892F8053B1
:100830008A3070F4F6FE05C0989C902C1124980E16
:1008400015C0E89CE02C1124E80EF0E2FF2A0EC04F
:100850009E3229F4F6FC6BC140E4F42A07C09C36B2
:1008600019F450E8F52A02C0983649F4F20123FD44
:10087000959123FF91912F01992309F0B8CF892FEA
:100880008554833018F08052833038F444E050E0CF
:10089000A40EB51E5FE359830FC0933631F0933732
:1008A00079F0933509F056C020C0F5018081898325
:1008B00042E050E0A40EB51E610101E010E012C05C
:1008C000F501C080D180F6FC03C06FEF7FEF02C05E
:1008D000692D70E042E050E0A40EB51EC6010E94F2
:1008E000AA058C015FE7F52214C0F501C080D18014
:1008F000F6FC03C06FEF7FEF02C0692D70E042E0AD
:1009000050E0A40EB51EC6010E949F058C0150E860
:10091000F52AF3FE07C01AC080E290E0B3010E94FE
:10092000B505EA948E2D90E008171907A8F30EC0BC
:10093000F601F7FC8591F7FE81916F0190E0B3011C
:100940000E94B505E110EA9401501040011511050F
:1009500079F7EAC0943611F0993669F5F7FE08C0C8
:10096000F501208131814281538184E090E00AC009
:10097000F501808191819C01442737FD4095542FDA
:1009800082E090E0A80EB91E9FE6F92257FF09C049
:1009900050954095309521953F4F4F4F5F4FE0E880
:1009A000FE2ACA01B901A1012AE030E00E94E10556
:1009B000D82ED21840C0953729F41F2D1F7E2AE06B
:1009C00030E01DC01F2D197F9F3661F0903720F455
:1009D000983509F0ACC00FC0903739F0983709F05E
:1009E000A6C004C028E030E00AC0106114FD146005
:1009F00020E130E004C014FD166020E132E017FF72
:100A000008C0F501608171818281938144E050E0EA
:100A100008C0F50180819181BC0180E090E042E056
:100A200050E0A40EB51EA1010E94E105D82ED218F7
:100A30008FE7F82EF122F6FE0BC05EEFF522D914F7
:100A400038F4F4FE07C0F2FC05C08FEEF82202C0B5
:100A50001D2D01C0192DF4FE0DC0FE01ED0DF11D7F
:100A60008081803319F499EEF92208C01F5FF2FEED
:100A700005C003C08F2D867809F01F5F0F2DF3FC92
:100A800014C0F0FE0FC01E1510F09D2C0BC09D2C45
:100A90009E0C911A1E2D06C080E290E0B3010E94C8
:100AA000B5051F5F1E15C0F304C01E1510F4E11A32
:100AB00001C0EE2404FF0FC080E390E0B3010E9468
:100AC000B50502FF1DC001FD03C088E790E00EC020
:100AD00088E590E00BC0802F867891F001FF02C07E
:100AE0008BE201C080E2F7FC8DE290E0B3010E944E
:100AF000B50506C080E390E0B3010E94B5059A9465
:100B0000D914C0F3DA94F101ED0DF11D808190E06C
:100B1000B3010E94B505DD20A9F706C080E290E090
:100B2000B3010E94B505EA94EE20C1F743CEF3016C
:100B300066817781CB012B96E2E10C940D26FC01B6
:100B40000590615070400110D8F7809590958E0FF8
:100B50009F1F0895FC016150704001900110D8F76B
:100B6000809590958E0F9F1F08950F931F93CF939D
:100B7000DF938C01EB018B8181FF1BC082FF0DC0D5
:100B80002E813F818C819D812817390764F4E8818B
:100B9000F9810193F983E88306C0E885F985802F00
:100BA0000995892B31F48E819F8101969F838E83D5
:100BB00002C00FEF1FEFC801DF91CF911F910F917E
:100BC0000895FA01AA27283051F1203181F1E894E3
:100BD0006F936E7F6E5F7F4F8F4F9F4FAF4FB1E030
:100BE0003ED0B4E03CD0670F781F891F9A1FA11D2B
:100BF000680F791F8A1F911DA11D6A0F711D811D2C
:100C0000911DA11D20D009F468943F912AE0269FF0
:100C100011243019305D3193DEF6CF010895462F4F
:100C20004770405D4193B3E00FD0C9F7F6CF462F30
:100C30004F70405D4A3318F0495D31FD4052419399
:100C400002D0A9F7EACFB4E0A69597958795779556
:100C50006795BA95C9F700976105710508959B01DD
:100C6000AC010A2E06945795479537952795BA9566
:100C7000C9F7620F731F841F951FA01D0895FC0103
:100C8000CB0106978E9780F489E190E09C01629FEA
:100C9000C001639F900D729F900D112466E070E07B
:100CA0000E948725615005C0CB01C4974D97F8F489
:100CB00061566623E1F02FB7F89483E680938000B5
:100CC0008BE18093810089EF90E09093890080937D
:100CD0008800862F90E090938B0080938A002FBF2E
:100CE00081E090E09383828320E030E002C021E045
:100CF00030E0C9010895CF93DF93FC016630F8F02E
:100D0000878980FD03C020E130E002C020E530E0AB
:100D1000862F90E02817390794F062A7C0E0D0E052
:100D2000442349F082819381019729F462A5CF0180
:100D300070E00E943F06CE01DF91CF91089586E0DA
:100D400082A7C1E0D0E0ECCFFC018481882319F4B4
:100D500021E432E01BC0813019F426E432E016C0F1
:100D6000823019F42FE432E011C0833019F424E505
:100D700032E00CC0843019F429E532E007C0853038
:100D800019F020E030E002C02EE532E0C9010895FC
:100D9000EF92FF920F931F938C0179010E945E1FC7
:100DA000C801B7010E944B241F910F91FF90EF9053
:100DB00008950F931F938C01462F60E00E945E1FE1
:100DC0006091820170918301C8010E944B241F91A0
:100DD0000F910895CF93DF93EC018C818F5F8C830B
:100DE000823008F01C828DEE92E061E070E00E949B
:100DF000D906EC81F0E0EE0FFF1FE354FE4F208197
:100E000031818DEE92E060E070E041E050E00E94C0
:100E1000C806DF91CF910895CF93DF93EC018C81C9
:100E20008F5F8C83823008F01C828DEE92E061E04F
:100E300070E00E94D9068DEE92E060E041E00E94F1
:100E40005E1F8091C1029C8183FD03C0992319F02C
:100E500008C0992331F08DEE92E060E071E00E94CD
:100E60004B24EC81F0E0EE0FFF1FE354FE4F608156
:100E700071818DEE92E00E944B24DF91CF91089515
:100E8000CF93DF93EC018C818F5F8C83823008F0ED
:100E90001C828DEE92E061E070E00E94D9068DEE3A
:100EA00092E060E041E00E945E1F8091C1029C815F
:100EB00082FD03C0992319F008C0992331F08DEE0B
:100EC00092E060E071E00E944B24EC81F0E0EE0FD4
:100ED000FF1FE354FE4F608171818DEE92E00E940E
:100EE0004B24DF91CF910895CF93DF93EC018C8158
:100EF0008F5F8C83823008F01C828DEE92E061E07F
:100F000070E00E94D9068DEE92E060E041E00E9420
:100F10005E1F8091C1029C8181FD03C0992319F05D
:100F200008C0992331F08DEE92E060E071E00E94FC
:100F30004B24EC81F0E0EE0FFF1FE354FE4F608185
:100F400071818DEE92E00E944B24DF91CF91089544
:100F5000CF93DF93EC018C818F5F8C83833008F01B
:100F60001C828DEE92E061E070E00E94D9068DEE69
:100F700092E060E041E00E945E1F8091C10280FD2E
:100F800002C021E001C022E030E08C8190E00196B7
:100F90002817390731F48DEE92E060E071E00E948D
:100FA0004B24EC81F0E0EE0FFF1FE056FE4F608116
:100FB00071818DEE92E00E944B24DF91CF910895D4
:100FC0000F931F938C018DEE92E060E070E041E0A2
:100FD00050E020E031E00E94C806D8011496EC9160
:100FE000F0E0EE0FFF1FE354FE4F608171818DEE44
:100FF00092E00E944B24F80184818823C1F48091FF
:10100000C102877F8093C1028FE193E062E070E0CC
:101010004091C1020E94951764EF71E080E090E07A
:101020000E9446218CE392E01F910F9108958091D8
:10103000C1028860E7CF0F931F938C018DEE92E081
:1010400060E070E041E050E020E031E00E94C8063E
:10105000D8011496EC91F0E0EE0FFF1FE354FE4F21
:10106000608171818DEE92E00E944B24F8018481B1
:101070008823C1F48091C1028B7F8093C1028FE1EC
:1010800093E062E070E04091C1020E94951764EF26
:1010900071E080E090E00E9446218CE392E01F9195
:1010A0000F9108958091C1028460E7CF0F931F9341
:1010B0008C018DEE92E060E070E041E050E020E0D5
:1010C00031E00E94C806D8011496EC91F0E0EE0FD2
:1010D000FF1FE354FE4F608171818DEE92E00E940C
:1010E0004B24F80184818823C1F48091C1028D7F53
:1010F0008093C1028FE193E062E070E04091C10211
:101100000E94951764EF71E080E090E00E94462114
:101110008CE392E01F910F9108958091C10282604B
:10112000E7CF8091C10280FD02C081E001C082E072
:1011300060E070E0813011F061E070E08FE193E0F9
:101140004091D4020E9495178FE193E062E070E035
:101150004091C1020E9495170895CF92DF92EF92BD
:10116000FF920F931F93DF93CF93CDB7DEB76997AD
:101170000FB6F894DEBF0FBECDBF6C01262F7A01EB
:1011800060E0422F0E945E1F00D000D000D0EDB77B
:10119000FEB731968E010F5F1F4FADB7BEB71296E7
:1011A0001C930E93119782E091E093838283F582E2
:1011B000E4820E949E03198A8DB79EB706960FB6E9
:1011C000F8949EBF0FBE8DBFC601B8010E944B248C
:1011D00069960FB6F894DEBF0FBECDBFCF91DF91F9
:1011E0001F910F91FF90EF90DF90CF900895EF92B5
:1011F000FF920F931F938C019B017A0160E070E0D6
:10120000A9010E94AD08C80161E070E0A7010E9439
:10121000AD081F910F91FF90EF900895FC0114828B
:101220004091BD015091BE018DEE92E068E071E009
:101230000E94F70808950F931F93CF93DF93EC015B
:101240001C828091C10280FD04C086EA91E041E0E9
:1012500003C08DEA91E042E098878F831D821E8251
:1012600002C09F5F9E83AF81B8859E81FD01E90F1B
:10127000F11D80818823A9F7292F21502E83A20FE9
:10128000B11D8C918D833091D40290E00AC0EF8122
:10129000F885E90FF11D8081831711F49C8303C049
:1012A0009F5F9217A0F3413019F023E131E002C0B3
:1012B00026E131E000D000D000D0EDB7FEB7319686
:1012C0000AE612E0ADB7BEB712961C930E931197C3
:1012D00089E191E093838283358324830E949E0376
:1012E000EDB7FEB736960FB6F894FEBF0FBEEDBF52
:1012F0008DEE92E060E070E0A8010E94AD0800D0A1
:1013000000D000D0ADB7BEB71196EDB7FEB71283CF
:10131000018388E291E013969C938E9312978C81BF
:10132000EF81F885E80FF11D808114968C93149756
:1013300015961C920E949E038DB79EB706960FB617
:10134000F8949EBF0FBE8DBF8DEE92E061E070E01D
:10135000A8010E94AD08DF91CF911F910F910895D0
:10136000CF93DF93EC018DEE92E060E070E041E01E
:1013700050E020E031E00E94C8068C81EF81F885C2
:10138000E80FF11D60818DEE92E070E04AE050E0E0
:101390000E9423258DEE92E06DE271E00E944B24C5
:1013A00064EF71E080E090E00E9446218091C102EC
:1013B00080FD02C081E001C082E060E070E0813029
:1013C00011F061E070E08C81EF81F885E80FF11D8C
:1013D0008FE193E040810E9495178C81EF81F88521
:1013E000E80FF11D8AEA92E0608140E00E947B06EE
:1013F0008CE392E0DF91CF910895CF93DF93EC01DE
:101400008C818F5F8C839E81981708F41C828DEEEF
:1014100092E061E070E00E94D9068DEE92E060E01B
:1014200041E00E945E1F8C81EF81F885E80FF11D7D
:101430009091D4028081981731F48DEE92E060E0B3
:1014400071E00E944B248C81EF81F885E80FF11D3B
:1014500060818DEE92E070E04AE050E00E9423252A
:101460008DEE92E06DE271E00E944B24DF91CF910E
:101470000895CF93DF93EC0181E10E94E4210A9764
:101480000CF052C031E00AC089819A81AB81BC81E5
:101490000097A105B10509F4188230E028812223C4
:1014A00061F0213009F045C089819A81AB81BC810E
:1014B0000097A105B10509F43CC0332381F189816E
:1014C0009A81AB81BC810097A105B10541F422232B
:1014D00031F40E94382169837A838B839C830E9434
:1014E00038219B01AC0189819A81AB81BC81281B89
:1014F000390B4A0B5B0B8881882339F4243631057C
:1015000041055105B4F081E008C0813091F4245FB9
:101510003140404050406CF082E088830AC019821C
:101520001A821B821C8205C08881823009F0B5CFE7
:10153000ABCFDF91CF9108950F931F938C018AE079
:1015400061E00E940622E7E5F6E0E491D801EC9321
:10155000E3E4F6E0E4911196EC938E2F90E0880F8F
:10156000991F8B5D994FFC01A591B4912FB7F89409
:10157000109280008C91F8019081892B8C932FBF61
:10158000138212821F910F9108950F931F938C0164
:1015900088E060E00E942C22F801808D8F7B808F94
:1015A0000E94961BF80167AB70AF81AF92AF0E94AB
:1015B0003821F80167A770AB81AB92AB1F910F91F7
:1015C00008958091C20280688093C20282EC92E00A
:1015D00048970E94C50A8091AB0290E0880F991F3E
:1015E0008B5D994FFC01A591B4912FB7F89410929F
:1015F00080009C918091AA02809598239C932FBF94
:1016000082E090E09093AD028093AC0281E0809301
:10161000AE0208950F931F938C0188E061E00E9451
:101620002C22F801808D8064808F0E94961BF80127
:1016300063AB74AB85AB96AB0E943821F80163A70E
:1016400074A785A796A71F910F910895DC0159965D
:10165000E4E8F1E08AE001900D928150E1F708950D
:10166000CF92DF92EF92FF920F931F938C017B0139
:101670006A01FC01828D938DB9010E947A03F80101
:10168000228D338DC801B701A6010E94C8061F91A3
:101690000F91FF90EF90DF90CF900895EF92FF921F
:1016A0000F931F938C017B01FC01828D938DBA01F6
:1016B0000E947A03F801428D538DC801B7010E9440
:1016C000AD081F910F91FF90EF9008950F931F9316
:1016D0008C018DEE92E060E070E041E050E020E0AF
:1016E00031E00E94C806D8011496EC91F0E0EE0FAC
:1016F000FF1FE354FE4F608171818DEE92E00E94E6
:101700004B2464EF71E080E090E00E944621F801F4
:1017100084818823A1F48DEE92E061E070E043E8DB
:1017200051E00E944E0B2EE088E190E00FB6F89455
:10173000A895809360000FBE20936000FFCF80E0EB
:1017400090E01F910F910895EF92FF920F931F93D6
:101750008C013DEEE32E32E0F32EFC0142815381F9
:10176000C70160E070E00E944E0B8091C10290E0E2
:1017700023E0969587952A95E1F78170F801848397
:1017800000D000D000D0ADB7BEB711960AE612E087
:10179000EDB7FEB7128301832FE231E013963C933D
:1017A0002E931297E82FF0E0EE0FFF1FE354FE4F49
:1017B0008081918115969C938E9314970E949E032D
:1017C0008DB79EB706960FB6F8949EBF0FBE8DBF1D
:1017D000C70161E070E0A8010E94AD081F910F9160
:1017E000FF90EF900895EF92FF920F931F938C015B
:1017F0006DEEE62E62E0F62EFC0142815381C701B8
:1018000060E070E00E944E0B8091C10290E09695DE
:101810008795969587958170F801848300D000D0D4
:1018200000D0ADB7BEB711960AE612E0EDB7FEB72D
:10183000128301832FE231E013963C932E9312978B
:10184000E82FF0E0EE0FFF1FE354FE4F80819181FF
:1018500015969C938E9314970E949E038DB79EB706
:1018600006960FB6F8949EBF0FBE8DBFC70161E00C
:1018700070E0A8010E94AD081F910F91FF90EF90BA
:101880000895EF92FF920F931F938C01FDEEEF2EC0
:10189000F2E0FF2EFC0142815381C70160E070E05D
:1018A0000E944E0B8091C10290E0969587958170C1
:1018B000F801848300D000D000D0ADB7BEB7119638
:1018C0000AE612E0EDB7FEB7128301832FE231E0A2
:1018D00013963C932E931297E82FF0E0EE0FFF1F24
:1018E000E354FE4F8081918115969C938E931497BB
:1018F0000E949E038DB79EB706960FB6F8949EBFC2
:101900000FBE8DBFC70161E070E0A8010E94AD0865
:101910001F910F91FF90EF9008950F931F93CF9316
:10192000DF93EC014A815B818DEE92E060E070E034
:101930000E944E0B8091C10285FD02C01C8206C030
:1019400080FD02C081E001C082E08C8300D000D025
:1019500000D0ADB7BEB711960AE612E0EDB7FEB7FC
:10196000128301838FE291E013969C938E931297DA
:10197000EC81F0E0EE0FFF1FE056FE4F8081918179
:1019800015969C938E9314970E949E038DB79EB7D5
:1019900006960FB6F8949EBF0FBE8DBF8DEE92E0F7
:1019A00061E070E0A8010E94AD08DF91CF911F9126
:1019B0000F910895FC0184818F5F8483873008F044
:1019C000148284818230D1F0833028F4882361F03E
:1019D000813039F40EC08430D9F08430A0F08530E5
:1019E000E1F04EEB50E01DC04091430250914402A3
:1019F00018C0409148025091490213C040915102D1
:101A0000509152020EC0409156025091570209C0A7
:101A100040915B0250915C0204C040916002509181
:101A200061028DEE92E061E070E00E944E0B08953D
:101A30000F931F93FC0114820DEE12E0428153813B
:101A4000C80160E070E00E944E0B4091430250914B
:101A50004402C80161E070E00E944E0B1F910F919B
:101A60000895EF92FF920F931F938C019B017A01CF
:101A700060E070E0A9010E944E0BC80161E070E0D7
:101A8000A7010E944E0B1F910F91FF90EF900895B8
:101A9000EF92FF920F931F93CF93DF93EC01898115
:101AA00090E0880F991F8B5D994FFC01A591B4912F
:101AB0002FB7F894109280008C919881892B8C9389
:101AC0002FBF1B821A8285E061E00E942C228DEEDE
:101AD00092E064ED70E04DED50E00E94310D8F8991
:101AE00085FD57C081E00E94E421298130E0220F6A
:101AF000331F2B5D394FF901A591B4914FB7F8947D
:101B0000109280003C912881209532233C934FBF56
:101B100022E030E03B832A8318161906D4F588E0CA
:101B200061E00E942C2264EF71E080E090E00E946E
:101B3000462183E00E9484228C0184E00E9484225A
:101B40007C0188E060E00E942C22012B91F4EF28B8
:101B500081F48DEE92E067EE70E041E051E00E948A
:101B6000310D64EF71E080E090E00E94462102E0D8
:101B700011C08DEE92E067EE70E043EF50E00E94FE
:101B8000310D64EF71E080E090E00E94462101E0B9
:101B900001C000E085E060E00E942C22898190E095
:101BA000880F991F8B5D994FFC01A591B4912FB7B8
:101BB000F894109280008C919881892B8C932FBF80
:101BC0001B821A82802FDF91CF911F910F91FF907E
:101BD000EF9008958F929F92AF92BF92CF92DF9233
:101BE000EF92FF920F931F93CF93DF93EC0100913D
:101BF000CD028091C10280FD03C0EE24E39402C0B7
:101C000062E0E62E8091CE02081709F452C1053039
:101C100009F4EFC0063080F4023009F45BC00330F1
:101C200020F4013009F03DC114C0033009F494C020
:101C3000043009F036C1CBC0073009F400C10730C9
:101C400008F4EBC0083009F40CC10F3F09F029C1BA
:101C50001AC18DE061E00E942C2285E060E00E94C4
:101C60002C22CE0162E00E94D71D2DB73EB728502E
:101C700030400FB6F8943EBF0FBE2DBFEDB7FEB794
:101C800031960AE612E0ADB7BEB712961C930E93DA
:101C900011978EE891E093838283E482158280918C
:101CA000D402868317820E949E032DB73EB7285F19
:101CB0003F4F0FB6F8943EBF0FBE2DBFCE0160E080
:101CC00070E0A8010E94AD08CE0161E070E04FE62F
:101CD00051E03FC08DE061E00E942C2285E061E090
:101CE0000E942C22CE0163E00E94D71D8DB79EB7C3
:101CF00008970FB6F8949EBF0FBE8DBFEDB7FEB725
:101D000031960AE612E0ADB7BEB712961C930E9359
:101D100011978EE891E093838283E482158280910B
:101D2000D402868317820E949E032DB73EB7285F98
:101D30003F4F0FB6F8943EBF0FBE2DBFCE0160E0FF
:101D400070E0A8010E94AD08CE0161E070E042E6BB
:101D500051E00E944E0BFFC08DE060E00E942C22FB
:101D600085E060E00E942C22CE0166E00E94D71D33
:101D70008DB79EB708970FB6F8949EBF0FBE8DBF64
:101D8000EDB7FEB731960AE612E0ADB7BEB71296D0
:101D90001C930E93119783E391E093838283E482F3
:101DA00015828091D402868317820E949E032DB7EC
:101DB0003EB7285F3F4F0FB6F8943EBF0FBE2DBF12
:101DC000CE0160E070E0A8010E94AD0875C08DE012
:101DD00060E00E942C2285E061E00E942C22CE016E
:101DE00061E00E94D71DCE016FE071E04AE151E051
:101DF00011C08DE060E00E942C2285E061E00E942D
:101E00002C22CE0161E00E94D71DCE016FE071E06F
:101E100048E251E00E94310D9EC08DE060E00E94DA
:101E20002C2285E061E00E942C22CE0161E00E941C
:101E3000D71DCE016FE071E049E351E0EBCF8DE0BB
:101E400060E00E942C2285E061E00E942C22CE01FD
:101E500061E00E94D71DCE016FE071E044E451E0E3
:101E6000D9CF8DE060E00E942C2285E061E00E94E5
:101E70002C22CE0161E00E94D71DCE016FE071E0FF
:101E80004EE451E0C7CF8DE060E00E942C2285E057
:101E900061E00E942C22CE0160E070E04AE551E052
:101EA00058CF8DE060E00E942C2285E061E00E9426
:101EB0002C22033009F04FC08090E5029090E6029A
:101EC000A090E702B090E8028091E9029091EA02C6
:101ED000A091EB02B091EC0288169906AA06BB0607
:101EE000D1F1C501B4010E94631B6C01C501B401AD
:101EF0000E945D1B7C01C501B4010E94571BADB758
:101F0000BEB71A970FB6F894BEBF0FBEADBFEDB700
:101F1000FEB731960AE612E012961C930E931197C3
:101F200025E431E033832283D582C482F782E682BE
:101F3000918780870E949E032DB73EB7265F3F4F53
:101F40000FB6F8943EBF0FBE2DBFCE0161E070E02A
:101F5000A8010E94AD08DF91CF911F910F91FF90D2
:101F6000EF90DF90CF90BF90AF909F908F900895AB
:101F70000F931F938C018FEFF80183A3C8010E9478
:101F8000C50AF801818190E0880F991F8B5D994FF8
:101F9000FC01A591B4912FB7F894109280009C9108
:101FA000F8018081809598239C932FBF82E090E078
:101FB000938382838DEE92E00E94EA0D8FEFF80109
:101FC00084A31F910F9108950F931F93CF93DF93D5
:101FD000EC010E94390A8881813079F489819A81E3
:101FE000AB81BC810097A105B10509F07BC01882C7
:101FF000AD81BE81109729F475C0823009F072C09E
:1020000009C0ED91FC9111970280F381E02DCD0183
:10201000099568C089819A81AB81BC810097A1052F
:10202000B10509F45FC019821A821B821C82AD813E
:10203000BE81109709F446C0ED91FC911197048080
:10204000F581E02DCD010995DC019E838D830097FC
:10205000D9F082E0AC33B80719F414960C911497B8
:10206000ED91FC9111970190F081E02DCD01099542
:10207000ED81FE8182E0EC33F807A1F50150048385
:10208000CF010E94DA0C2EC08FEF8093CE02109207
:10209000CD028091AB0290E0880F991F8B5D994F24
:1020A000FC01A591B4912FB7F894109280008C9107
:1020B0009091AA02892B8C932FBF1092AD0210929F
:1020C000AC0210C08091CD028250823058F08AEA72
:1020D00092E00E94B80F0CE312E0C8010E94180DB4
:1020E0001E830D83DF91CF911F910F9108950F9360
:1020F0001F938C01FC01828D938D0E947A03F8015D
:10210000628D738DC8010E944B241F910F91089519
:102110000F931F938C018DE061E00E94062285E001
:1021200061E00E9406228DE060E00E942C2285E0A2
:1021300060E00E942C22C80160E142E020E00E94A1
:10214000951FC80160E070E04CEB51E00E944E0B1F
:1021500064EF71E080E090E00E944621C80160E0F9
:1021600070E041E050E023EB31E00E94300BC80109
:1021700068E670E00E947710C8016FEA71E00E9483
:10218000771064EF71E080E090E00E9446211F919B
:102190000F9108950F931F938C010E94AA1D8AE648
:1021A00092E0F801938F828F1F910F91089586E03E
:1021B00092E090933D0280933C028EE690E09093F3
:1021C0003F0280933E028CEF91E090934202809315
:1021D000410284E790E0909344028093430282EFAF
:1021E00091E0909347028093460282E890E09093BA
:1021F00049028093480288EE91E0909350028093C8
:102200004F028EE890E090935202809351028EED3F
:1022100091E090935502809354028AE990E0909364
:1022200057028093560284ED91E090935A02809376
:1022300059028BEA90E090935C0280935B028AECF7
:1022400091E090935F0280935E0288EB90E0909320
:1022500061028093600210926302109264021092F5
:102260006502109266021092670210926902109243
:1022700068028DEE92E00E94CA1010921A0310922A
:1022800019038AE692E090931C0380931B0380E479
:1022900090E090931E0380931D0308950F931F9366
:1022A0008C01FC0144895589828993890E948F039E
:1022B000F801628973898FE794E00E944B241F9193
:1022C0000F9108956F927F929F92AF92BF92CF929B
:1022D000DF92EF92FF920F931F93CF93DF93EC0166
:1022E0009BA02FEF921639F465E070E080E090E05B
:1022F0000E94462121C283E00E9484228C0184E056
:102300000E9484227C01888D86FF31C08F8983FDE5
:102310006FC00E9438212BA53CA54DA55EA5621B70
:10232000730B840B950B695E73408040904008F4FA
:102330005FC00130110509F05BC0F1E0EF16F10458
:1023400009F056C087E08BA3CE010E94C50A8E8992
:102350008F3F11F08F5F8E8B0E943821605674443E
:10236000824F9F4F6E877F87888B998BCEC127E0E6
:10237000921609F58A899B89AC89BD890397A105C5
:10238000B10508F0C0C10E9438212E853F854889DB
:102390005989621773078407950708F4B4C18A89BD
:1023A0009B89AC89BD890196A11DB11D8A8B9B8B30
:1023B000AC8BBD8B1DC08F8984FD1AC088E0981638
:1023C00079F00E9438212FA538A949A95AA9621B82
:1023D000730B840B950B695E73408040904040F016
:1023E000012B11F0EF2821F488E08BA318E08EC1B7
:1023F00010E091E08C818823D9F186E08BA3898558
:102400009A85AB85BC850397A105B10508F080C10D
:10241000F6E09F1651F08D858F3F11F08F5F8D870D
:1024200019861A861B861C8618C00E9438212D81A9
:102430003E814F815885621773078407950708F41A
:1024400067C11C8289859A85AB85BC850196A11DD3
:10245000B11D89879A87AB87BC870E943821605657
:102460007444824F9F4F6D837E838F83988750C1C2
:10247000992309F481C0892D86508230B0F4898176
:1024800090E0880F991F8B5D994FFC01A591B49145
:102490002FB7F894109280008C919881892B8C939F
:1024A0002FBF1B821A821BA299241FEF612E13E0FB
:1024B000712EAA24BB2400E010E081E00E94E421F8
:1024C000A816B90614F45C0104C0861597050CF42F
:1024D0003C010F5F1F4F0436110579F7A5018F8965
:1024E000682F81FD17C18A819B81019709F012C174
:1024F00089A19AA16816790608F40CC115E015C0E7
:102500008B8D9C8D2817390710F012E00EC08D8D31
:102510009E8D2817390740F462FF05C18F8D98A161
:102520008217930708F0FFC013E0191529F18DA158
:10253000181739F00E9438216EA37FA388A799A7A6
:102540001BC00E943821CEA0DFA0E8A4F9A411305E
:1025500029F02AEF30E040E050E004C029E130E00B
:1025600040E050E06C197D098E099F0962177307DE
:102570008407950708F01BA31DA38BA1891509F4F7
:10258000A5C0813079F0823049F1833049F46AA5E1
:10259000CE0170E00E943F06CE010E940A0B5DC092
:1025A0008430C1F4CE010E94C50A898190E0880F71
:1025B000991F8B5D994FFC01A591B4912FB7F894A9
:1025C000109280008C919881892B8C932FBF1B8255
:1025D0001A8243C0863079F0853049F4CE010E94DA
:1025E000C50A6AA5CE0170E00E943F0636C087305A
:1025F00011F08830D9F4CE010E94C50A898190E09B
:10260000880F991F8B5D994FFC01A591B4912FB74D
:10261000F894109280009C918881809598239C93D7
:102620002FBF82E090E09B838A8317C0898190E06E
:10263000880F991F8B5D994FFC01A591B4912FB71D
:10264000F894109280008C919881892B8C932FBFE5
:102650001B821A82CE010E94C50A8F8987FF36C06D
:1026600089E093E069E971E00E944E118FE794E000
:10267000692D70E04AE050E00E94232589E093E054
:1026800066E971E00E944E116BA18FE794E070E063
:102690004AE050E00E94232589E093E062E971E07E
:1026A0000E944E118FE794E0B3014AE050E00E948F
:1026B000232589E093E060E971E00E944E118FE7E5
:1026C00094E0B5014AE050E00E946C259CA28BA1E9
:1026D000833091F58BAD9CADADADBEADEF968883EB
:1026E0009983AA83BB83EF970E94961B2BA93CA9D1
:1026F0004DA95EA9621B730B840B950B6BAF7CAF6E
:102700008DAF9EAF19C087E08BA317E090E072CE2B
:1027100016E032CF9A01898D9A8D4817590708F42F
:10272000EFCE11E002CF8F8D98A18217930710F0A2
:1027300010E0FBCE14E0F9CEDF91CF911F910F9105
:10274000FF90EF90DF90CF90BF90AF909F907F90E1
:102750006F9008951F93CF93DF93EC01162F8F890D
:1027600087FF0EC089E093E061EA71E00E944E119C
:102770008FE794E0612F70E04AE050E00E946C2502
:102780008F89123019F481608F8B03C08E7F8F8BFD
:1027900011E060E070E0113011F061E070E08FE175
:1027A00093E00E948E17682F81508E3F20F01130E9
:1027B000E9F46CE006C0663010F416E00BC011308E
:1027C00029F4162F613130F010E104C0162F613565
:1027D00008F010E5CE010E94260BCE01612F40E0EB
:1027E0000E947B06DF91CF911F91089560E1E7CFB2
:1027F000CF93DF93EC016C81662321F48091C102B9
:102800008F7D07C08AEA92E00E94AA138091C102DC
:1028100080628093C1028DEE92E060E070E041E062
:1028200050E020E031E00E94C806EC81F0E0EE0FBD
:10283000FF1FE056FE4F608171818DEE92E00E9495
:102840004B248FE193E062E070E04091C1020E946E
:10285000951764EF71E080E090E00E9446218CE3E0
:1028600092E0DF91CF9108951F93CF93DF93EC0116
:1028700088E061E00E94062283E060E00E94062278
:1028800084E060E00E94062283E061E00E942C2246
:1028900084E061E00E942C22CE010E94C50ACE0194
:1028A0000E949C0A8FE193E062E070E00E948E1724
:1028B0008F3F11F41F8A05C08F8B80FD02C011E08D
:1028C00001C012E0188E19861A861B861C861D868A
:1028D0001A8A1B8A1C8A1D8A1E8A1BA21CA2CE0170
:1028E0000E94480D8111182FCE01612F0E94AA135A
:1028F0001C828DE060E00E942C22DF91CF911F911D
:1029000008950F931F938C01FC0144895589828996
:1029100093890E948F03F801628973898FE794E09D
:102920000E9461251F910F9108958FE794E064E55F
:1029300071E00E94612508950F931F938C0161E15E
:1029400076E00E948114C80162EF75E00E94811454
:10295000C8016CED75E00E948114C80168E670E062
:102960000E948114C8010E9495141F910F9108952F
:102970000F931F9310E00AE08FE794E00E949023EA
:10298000982F90539A3020F4109F102D1124190F76
:102990008D3091F7812F1F910F9108950F931F9301
:1029A000CF93DF93EC018FE794E00E946523892B9E
:1029B00009F461C28FE794E00E949023182F8FE7FB
:1029C00094E0612F40E050E00E9436251D30F9F080
:1029D000812F81568A3128F08F5C8A3010F01032B6
:1029E00041F488899989FE01E80FF91F1083019647
:1029F0000BC088899989009709F42FC2183019F003
:102A00001F3709F02AC20197998B888B26C2E88963
:102A1000F989EC0FFD1F1082CE010E949514CE01A2
:102A20006BEA75E00E947103892B09F086C0CE0124
:102A30000E949C14CE0162EA75E00E948114CE01CE
:102A400062E975E00E944E118091C10280FD02C0D2
:102A500061E001C062E08FE794E070E04AE050E09E
:102A60000E946C25CE0168E775E00E944E116091CE
:102A7000D4028FE794E070E04AE050E00E946C25B9
:102A8000CE0161E675E00E944E118FE794E066E0AA
:102A900070E04AE050E00E946C25CE016AE475E0E7
:102AA0000E944E118FE794E060E570E04AE050E04C
:102AB0000E946C25CE016AE375E00E944E11809160
:102AC000C10282FF03C06BEC70E002C063EC70E0F7
:102AD000CE010E948114CE016CE275E00E944E117D
:102AE0008091C10281FF03C06BEC70E002C063EC17
:102AF00070E0CE010E948114CE016DE175E00E946C
:102B00004E118091C10283FF03C06BEC70E002C0E4
:102B100063EC70E0CE010E948114CE0169E075E0A3
:102B20000E944E118091C10284FF03C06BEC70E0E3
:102B300002C063EC70E0CE017BC1CE0164E075E0C1
:102B40000E947103892B41F0CE0162E075E00E9482
:102B50007103892B09F086C1CE0164EF74E00E94F5
:102B60008114CE010E949514CE016CED74E00E9498
:102B70008114CE0165EC74E00E948114CE0162EAFA
:102B800074E00E948114CE0162E874E051C1CE016C
:102B900060E674E00E948114CE010E949514CE017B
:102BA0006FE374E00E948114CE016CE074E00E9437
:102BB0008114CE0161EE73E00E948114CE0168EBB6
:102BC00073E00E948114CE016AE873E00E948114D0
:102BD000CE016FE573E02CC1CE016AE573E044E0FD
:102BE00050E00E948103892B09F010C18E010C5F17
:102BF0001F4FC80164E573E045E050E00E94810387
:102C0000892BA9F4CE0162E473E00E944E11CE013B
:102C1000099660E871E00E947103892B21F480918C
:102C2000C102806859C08091C1028F777CC0C80101
:102C30006AE373E047E050E00E948103892BA9F426
:102C4000CE016BE273E00E944E11CE010B9660E85C
:102C500071E00E947103892B21F48091C1028B7F66
:102C60003BC08091C10284605EC0C80163E273E032
:102C700047E050E00E948103892BA9F4CE0166E170
:102C800073E00E944E11CE010B9660E871E00E9445
:102C90007103892B21F48091C1028D7F1DC0809129
:102CA000C102826040C0C8016EE073E047E050E0BE
:102CB0000E948103892BD1F4CE0160E073E00E9471
:102CC0004E11CE010B9660E871E00E947103892BD2
:102CD00049F48091C102877F8093C102CE0163ECE9
:102CE00070E0A6C08091C10288601DC0C80168EF75
:102CF00072E047E050E00E948103892BD1F4CE01BD
:102D000065EE72E00E944E11C801079660E871E01E
:102D10000E947103892B21F48091C1028F7EDCCF48
:102D20008091C10280618093C102CE016BEC70E0A2
:102D30007FC0C80161EE72E00E947103892B09F027
:102D400074C0CE0164EB72E00E948114CE0169E987
:102D500072E00E948114CE0160E772E00E9481144B
:102D6000CE010E949514CE0163E672E00E944E11DE
:102D70008FE794E066E070E04AE050E00E9423258F
:102D8000CE0161E672E00E944E118091C10280FD89
:102D900003C060E170E002C060E570E08FE794E09E
:102DA0004AE050E00E942325CE016DE572E00E94CA
:102DB0004E11CE010E94B814182F8FE794E0612FB6
:102DC00070E04AE050E00E946C258AEA92E0612FB0
:102DD00041E00E947B06892B29F0CE0164E472E079
:102DE0000E948114CE016DE272E00E944E1160914A
:102DF000D4028FE794E070E04AE050E00E9423257F
:102E0000CE016BE272E00E944E1114C0CE0166E268
:102E100072E00E947103892B41F4CE016CE072E0F4
:102E20000E9481140E94910805C0CE0169ED71E0F5
:102E30000E948114CE010E949514CE010E94951427
:102E4000CE016DEC71E00E944E118FE794E00E947C
:102E5000B423198A188A18820EC0888999890F9715
:102E600051F4D5CDCE016EE774E00E947103892B39
:102E700009F48DCEB1CEDF91CF911F910F910895BE
:102E800089E093E00E94CE148AEA92E00E946211E7
:102E90008DEE92E00E94EA0D83E692E00E94E40F3C
:102EA00008950F931F938C010E949C14C8016CEB32
:102EB00075E00E948114C80160EB75E00E944E111C
:102EC0008FE794E00E94B4231F910F9108958DEE37
:102ED00092E00E9488108AEA92E00E94341489E00D
:102EE00093E00E945117089588E10FB6F8948093FB
:102EF0006000109260000FBE8FE794E040E056E95A
:102F000060E070E00E94082380E061EE7AE043E038
:102F100050E00E9473200E9467170895F999FECF30
:102F200072BD61BDF89A80B50895F999FECF1FBAB8
:102F300072BD61BD40BD0FB6F894FA9AF99A0FBE02
:102F4000089581E0809365036093420310926303C8
:102F50001092640308959091400380914103981763
:102F600010F080E00895E92FF0E0E05EFC4F8081F2
:102F70009F5F9093400308950895DF93CF930F923E
:102F8000CDB7DEB7698380916503882389F080918E
:102F90006403803290F480916303E82FF0E0ED5BEE
:102FA000FC4F60838F5F809363038093640305C04D
:102FB000CE01019661E00E9499180F90CF91DF91A8
:102FC00008958091420363E473E04091640321E03B
:102FD0000E945618109263031092640310926503C6
:102FE0000895413208F040E2862F60E273E00E94CB
:102FF0001F18109240038093410308950E94F11717
:1030000008951092400310924103109263031092AE
:1030100064030E940C18089510926703449A459A1D
:10302000E9EBF0E080818E7F808380818D7F8083DB
:1030300088E48093B80085E48093BC000895982FBD
:10304000413210F040E030C0809167038823E1F7FF
:1030500081E0809367038FEF8093D20310928D03FA
:10306000415040938E034F5F990F91609093680396
:1030700085EE8093BC00809167038130E1F38091FD
:103080008D03841710F440918D0320E030E00AC0D6
:10309000FB01E20FF31FD901A359BC4F8C91808330
:1030A0002F5F3F4F2417A0F3842F08951F93582FAD
:1030B000122F413210F081E03AC0809167038823DB
:1030C000E1F782E0809367038FEF8093D203109241
:1030D0008D0340938E03ADE6B3E0FB0102C0819106
:1030E0008D938E2F861B8417D0F3852F90E0880F49
:1030F000991F8093680385EE8093BC00112321F013
:10310000809167038230E1F38091D2038F3F11F405
:1031100080E00DC08091D203803211F482E007C0BC
:103120008091D203803311F084E001C083E01F91CD
:103130000895482F613210F081E00895809167036F
:10314000843011F082E008956093B003AFE8B3E0FB
:10315000842F9C01F90102C081918D938E2F841BD5
:103160008617D0F380E008951F920F920FB60F924A
:1031700011242F933F934F935F936F937F938F937C
:103180009F93AF93BF93EF93FF938091B90090E02B
:10319000887F90708036910509F4DCC081369105F6
:1031A000CCF58832910509F47BC089329105B4F4DD
:1031B0008031910509F46FC0813191053CF400978D
:1031C00009F431C1089709F039C165C0883191050A
:1031D00009F466C0809709F031C17DC08034910543
:1031E00009F49FC08134910544F48033910509F4BA
:1031F0007DC0C89709F022C184C08035910509F4CB
:1032000084C08835910509F491C08834910509F08E
:1032100015C198C08839910509F4FDC08939910517
:10322000ECF48837910509F495C0893791054CF481
:103230008836910509F48EC08037910509F0FEC0EB
:1032400089C08838910509F4E6C08039910509F4F0
:1032500087C08038910509F0F1C082C0803B91059C
:1032600009F4B0C0813B91054CF4803A910509F412
:1032700089C0883A910509F0E1C0A4C0803C91055D
:1032800009F4CDC0883C910509F4C9C0883B91057B
:1032900009F0D4C0ACC0809168038093BB00B9C072
:1032A00090918D0380918E03981768F490918D030F
:1032B000E92FF0E0E359FC4F80818093BB009F5FD2
:1032C00090938D03A6C085ED8093BC008091BC00D7
:1032D00084FDFCCFB1C080E28093D20385ED809362
:1032E000BC008091BC0084FDFCCFA6C080E380932D
:1032F000D20385ED8093BC008091BC0084FDFCCF9F
:103300009BC088E38093D2038AC080918D03909103
:10331000BB00E82FF0E0E359FC4F90838F5F809370
:103320008D0390918D0380918E0371C080918D03E8
:103330009091BB00E82FF0E0E359FC4F90838F5F42
:1033400080938D0385ED8093BC008091BC0084FD4B
:10335000FCCF72C083E0809367031092D10359C001
:103360008091D103803208F056C08091D1039091B2
:10337000BB00E82FF0E0EF54FC4F90838F5F809309
:10338000D10347C08091D103803230F4E091D10362
:10339000F0E0EF54FC4F108285ED8093BC008091EB
:1033A000BC0084FDFCCF109267036091D103E091D3
:1033B0006B03F0916C0381EB93E070E00995109240
:1033C000D1032DC084E0809367031092AF03109265
:1033D000B003E0916903F0916A0309958091B0030D
:1033E000882329F481E08093B00310928F03909199
:1033F000AF03E92FF0E0E157FC4F80818093BB00E1
:103400009F5F9093AF039091AF038091B0039817A3
:1034100010F485EC01C085E88093BC000FC085ECFA
:103420008093BC0009C01092D20385ED8093BC004C
:103430008091BC0084FDFCCF10926703FF91EF9157
:10344000BF91AF919F918F917F916F915F914F91BC
:103450003F912F910F900FBE0F901F9018958F9254
:103460009F92AF92BF92CF92DF92EF92FF920F9313
:103470001F93CF93DF937B018C01EA012CE330E0B3
:1034800040E050E00E949A256883C801B7012CE310
:1034900030E040E050E00E949A25122F032FF42ED6
:1034A000E52E622F732F842F952F2CE330E040E020
:1034B00050E00E949A256983612F702F8F2D9E2DD9
:1034C0002CE330E040E050E00E949A25122F032FB9
:1034D000F42EE52E622F732F842F952F28E130E0F4
:1034E00040E050E00E949A256A83612F702F8F2D53
:1034F0009E2D28E130E040E050E00E949A257901BD
:103500008A01C801B7016C5F7F4F8F4F9F4F27E043
:1035100030E040E050E00E949A256F5F6B8320E02E
:10352000AA24BB24650101C02F5F822E9924F401D7
:10353000EE54F84FCF0183709070892B99F4CF012E
:1035400064E670E00E948725892B39F4CF0160E999
:1035500071E00E948725892B29F48EE691E0A0E096
:10356000B0E004C08DE691E0A0E0B0E0A80EB91E86
:10357000CA1EDB1EC501A0E0B0E0E816F9060A0786
:103580001B0790F62E83F401EE54F84F83E0882E4B
:10359000912C8E229F228114910499F4CF0164E62C
:1035A00070E00E948725892B39F4CF0160E971E032
:1035B0000E948725892B29F48EE691E0A0E0B0E0F7
:1035C00004C08DE691E0A0E0B0E0A81AB90ACA0AEA
:1035D000DB0A980187010A191B092C093D09CF0153
:1035E00064E670E00E9487257C01CF0160E971E00C
:1035F0000E948725AC01ECE0F2E060E0613051F41C
:103600008114910449F4E114F10441F44115510588
:1036100029F002C0808103C08CE101C08DE190E0FF
:10362000A0E0B0E0081719072A073B0740F0081B85
:10363000190B2A0B3B0B6F5F31966C30F9F66F5FFD
:103640006D83802F8F5F8C83DF91CF911F910F91BE
:10365000FF90EF90DF90CF90BF90AF909F908F90B2
:103660000895EF92FF920F931F937B018C0180913D
:10367000EA039091EB03A091EC03B091ED03E816FF
:10368000F9060A071B0771F0C801B7014FED53E0B7
:103690000E942F1AE092EA03F092EB030093EC03EE
:1036A0001093ED031F910F91FF90EF9008950E94EA
:1036B000311B8091DF0390E008950E94311B8091BF
:1036C000E00390E008950E94311B8091E10390E0B7
:1036D00008956093D5037093D6038093D703909396
:1036E000D8032091C1013091C2014091C301509192
:1036F000C401260F371F481F591F2093D903309349
:10370000DA034093DB035093DC0382E090E0909374
:10371000DE038093DD030E9438216093E6037093FB
:10372000E7038093E8039093E9030895EF92FF92F3
:103730000F931F931CC02F5F3F4F4F4F5F4F20933E
:10374000D5033093D6034093D7035093D80388EE24
:1037500093E0A0E0B0E0E80EF91E0A1F1B1FE09204
:10376000E603F092E7030093E8031093E9030E9455
:103770003821E090E603F090E7030091E803109110
:10378000E9036E197F09800B910B2091D5033091CD
:10379000D6034091D7035091D803685E73408040B0
:1037A000904048F68091D9039091DA03A091DB0311
:1037B000B091DC03281739074A075B07E8F0E0916E
:1037C000D303F091D4033097B9F0099561157105D1
:1037D0008105910519F00E94691B0EC020E030E0C0
:1037E0008091DD039091DE03892B11F021E030E020
:1037F0003093DE032093DD036091D5037091D603EF
:103800008091D7039091D8031F910F91FF90EF9073
:103810000895682F86E693E00E94BD170895EF9201
:10382000FF920F931F93FC01F62EE72E06E613E09E
:1038300060816062C80170E00E94A11782E10E946D
:10384000091C8F2D0E94091C8E2D0E94091CC80185
:103850000E94E1171F910F91FF90EF900895FF9242
:103860000F931F93CF93DF93EC01162FF42E60314B
:1038700008F04AC0683010F40CE002C018500DE0A7
:103880006881606286E693E070E00E94A117802F55
:103890000E94091C86E693E00E94E117688160623D
:1038A00086E693E070E041E050E00E94FE1786E675
:1038B00093E00E94AB17282F81E0F81651F481E0C5
:1038C00090E002C0880F991F1A95E2F7122F182B6B
:1038D0000AC081E090E002C0880F991F1A95E2F7B4
:1038E000182F109512236881606286E693E070E0DD
:1038F0000E94A117802F0E94091C812F0E94091C81
:1039000086E693E00E94E117DF91CF911F910F911E
:10391000FF900895EF92FF920F931F93CF93DF9341
:10392000EC01162FE42E603108F04EC0683020F410
:1039300092E1F92E04E104C0185083E1F82E05E16C
:103940006881606286E693E070E00E94A117802F94
:103950000E94091C86E693E00E94E117688160627C
:1039600086E693E070E041E050E00E94FE1786E6B4
:1039700093E00E94AB17282F81E0E81651F481E014
:1039800090E002C0880F991F1A95E2F7122F182BAA
:103990000AC081E090E002C0880F991F1A95E2F7F3
:1039A000182F109512236881606286E693E070E01C
:1039B0000E94A1178F2D0E94091C812F0E94091CB3
:1039C00086E693E00E94E117DF91CF911F910F915E
:1039D000FF90EF900895EF92FF920F931F938C0149
:1039E00026E6E22E23E0F22EFC0160816062C70130
:1039F00070E00E94A11782E10E94091CC7010E9489
:103A0000E117F80160816062C70170E042E050E0B8
:103A10000E94FE17C7010E94AB17082FC7010E9422
:103A2000AB17382F20E010E0022B132BC8011F9199
:103A30000F91FF90EF900895FF920F931F93CF93F4
:103A4000DF93EC01162FF42E603108F049C0683086
:103A500010F400E002C0185001E06881606286E660
:103A600093E070E00E94A117802F0E94091C86E657
:103A700093E00E94E1176881606286E693E070E05F
:103A800041E050E00E94FE1786E693E00E94AB17EB
:103A9000282FFF2051F481E090E002C0880F991F89
:103AA0001A95E2F7122F182B0AC081E090E002C0AD
:103AB000880F991F1A95E2F7182F10951223688125
:103AC000606286E693E070E00E94A117802F0E945A
:103AD000091C812F0E94091C86E693E00E94E117D1
:103AE000DF91CF911F910F91FF900895CF93DF93B6
:103AF000EC01683008F067E0688386E693E00E9496
:103B000001186881606286E693E070E00E94A11768
:103B100080E00E94091C8FEF0E94091C86E693E05A
:103B20000E94E1176881606286E693E070E00E947F
:103B3000A11781E00E94091C8FEF0E94091C86E6F4
:103B400093E00E94E117DF91CF91089560E00E9419
:103B5000761D0895FC018CE192E091838083108EA4
:103B6000128A8FE082838EE083838DE084838CE0F1
:103B700085838BE086838AE0878389E0808715864A
:103B800081E0868782E0878783E0808B84E0818B79
:103B90000895FC01808D8F3F29F0CF0149960E9446
:103BA0001C1D0895862F642F0E9406220895CF922F
:103BB000DF92EF92FF920F931F93062FE9E1CE2E33
:103BC000D12CC80ED91E10E0A801569547955695E0
:103BD000479561E0E62EF12C4E255F254170C60128
:103BE00068E00E948A1CA801569547954E255F25DE
:103BF0004170C60167E00E948A1C0E251F250170D6
:103C0000C60166E0402F0E948A1C1F910F91FF9011
:103C1000EF90DF90CF900895FC01808D8F3F29F0C9
:103C2000CF0149960E948A1C0895862F642F0E9416
:103C30002C2208950F931F938C01F801648140E0BA
:103C40000E940C1E81E090E00E949F21C801F801B3
:103C5000648141E00E940C1E81E090E00E949F215F
:103C6000C801F801648140E00E940C1E84E690E0E7
:103C70000E949F211F910F910895CF92DF92EF92A2
:103C8000FF920F931F93CF93DF93F82EE92E282FE7
:103C9000392FC9018C01C0E0D0E0C62EDD248F2D64
:103CA0009E2DF801658141E00E94C91DA6010C2EE0
:103CB00002C0559547950A94E2F741708F2D9E2DCD
:103CC000F80165810E940C1E21960F5F1F4FC830BE
:103CD000D10529F78F2D9E2D0E941A1EDF91CF91BD
:103CE0001F910F91FF90EF90DF90CF900895AF92CA
:103CF000BF92CF92DF92EF92FF920F931F93CF93D9
:103D0000DF936C01E62EFC01808D8F3F09F46FC0BC
:103D1000F9E1AF2EB12CAC0CBD1CC5010E94EB1C0F
:103D2000AC01D601E0E0F0E001E010E06E2D70E0C3
:103D300015962C911597C1E0D0E0C801022E02C063
:103D4000880F991F0A94E2F7809590958423952314
:103D5000AB010E2E02C0559547950A94E2F74170CB
:103D6000507002C0440F551F2A95E2F7482B592B7B
:103D700031961196E430F105D9F68E01F6010480F2
:103D800002C0000F111F0A94E2F70095109504235A
:103D90001523C501B8010E940F1C81E090E00E942C
:103DA0009F217E01F601048002C0EE0CFF1C0A94E4
:103DB000E2F7E02AF12AC501B7010E940F1C81E059
:103DC00090E00E949F21F601048002C0CC0FDD1F0D
:103DD0000A94E2F7C095D095EC22FD22C501B70107
:103DE0000E940F1C84E690E00E949F2121C0860162
:103DF000C0E0D0E0A62EBB24C601F801658141E0F9
:103E00000E94C91DA5010C2E02C0559547950A9424
:103E1000E2F74170C601F80165810E940C1E2196EF
:103E20000F5F1F4FC430D10539F7C6010E941A1E1B
:103E3000DF91CF911F910F91FF90EF90DF90CF9086
:103E4000BF90AF9008951F93CF93DF93EC01162F8F
:103E50006A810E940C1E6B816F3F21F0CE0140E011
:103E60000E940C1E8A8984FF05C0CE01612F0E942A
:103E70003D1E0EC0612F70E0A4E075956795AA9570
:103E8000E1F7CE010E94771ECE01612F0E94771EBE
:103E9000DF91CF911F91089541E00E94231F089563
:103EA00040E00E94231F0895FC016389862F8460EF
:103EB000838B6C60CF010E94501F0895DF93CF93D6
:103EC000CDB7DEB728970FB6F894DEBF0FBECDBFD3
:103ED0009C01FE013196A2E2B2E088E00D900192D1
:103EE0008150E1F7F9018689841710F4482F415079
:103EF000E42FF0E0EE0FFF1FEC0FFD1F8181680F34
:103F00006068C9010E94501F28960FB6F894DEBF62
:103F10000FBECDBFCF91DF91089561E00E94501F89
:103F200080ED97E00E949F2108959F92AF92BF92EB
:103F3000CF92DF92EF92FF920F931F93CF93DF9375
:103F4000EC01A42E922E888D8F3F09F452C086E694
:103F500093E00E94011819E1E12EF12CEC0EFD1EF8
:103F6000C7010E94A61DC70168E041E00E941C1D18
:103F7000C70166E041E00E941C1DC70167E041E007
:103F80000E941C1DCE0167E00E94D71D6B81662335
:103F900021F0C70141E00E941C1DC7016A8141E078
:103FA0000E941C1DC7016C8141E00E941C1D6E0116
:103FB0008E01BB24C701F801658141E00E941C1DF0
:103FC000B3940F5F1F4FF4E0BF16A1F710E0C701D5
:103FD000F601658540E00E941C1DC701F60165855C
:103FE00041E00E942F1C1F5F0894C11CD11C15309A
:103FF00071F7F1E0FA1518F48A8988608A8BAE8A25
:104000001F8A992031F081E0A81619F48A8984600A
:104010008A8B80E593EC0E949F21CE016A8140E06B
:104020000E940C1ECE016C8140E00E940C1E6B8130
:104030006F3F21F0CE0140E00E940C1E6A8964FDB2
:104040001DC0CE0163E00E94771E84E991E10E94C9
:104050009F21CE0163E00E94771E84E991E10E94D6
:104060009F21CE0163E00E94771E86E990E00E94C6
:104070009F21CE0162E00E94771E16C06062CE01D1
:104080000E94501F84E991E10E949F216A89606229
:10409000CE010E94501F86E990E00E949F216A890C
:1040A0006062CE010E94501F6A896062CE010E9448
:1040B000501F84E08B8BCE010E94541FCE010E94C2
:1040C0008D1F82E08C8BCE0166E00E94501FDF9135
:1040D000CF911F910F91FF90EF90DF90CF90BF9005
:1040E000AF909F900895823000F5E82FF0E0EE0F3A
:1040F000FF1FE251FC4F71836083882319F08130E8
:10410000A1F408C0809169008C7F842B80936900A2
:10411000E89A089580916900440F551F440F551F78
:10412000837F842B80936900E99A08951F920F92F0
:104130000FB60F9211242F933F934F935F936F937A
:104140007F938F939F93AF93BF93EF93FF93809150
:10415000EE039091EF03892B29F0E091EE03F091AB
:10416000EF030995FF91EF91BF91AF919F918F91CF
:104170007F916F915F914F913F912F910F900FBE63
:104180000F901F9018951F920F920FB60F92112447
:104190002F933F934F935F936F937F938F939F934F
:1041A000AF93BF93EF93FF938091F0039091F1034E
:1041B000892B29F0E091F003F091F1030995FF912B
:1041C000EF91BF91AF919F918F917F916F915F918F
:1041D0004F913F912F910F900FBE0F901F90189508
:1041E0001F920F920FB60F9211242F933F938F932C
:1041F0009F93AF93BF938091F6039091F703A091A3
:10420000F803B091F9033091FA030196A11DB11D95
:10421000232F2D5F2D3720F02D570196A11DB11DA5
:104220002093FA038093F6039093F703A093F80387
:10423000B093F9038091F2039091F303A091F403FA
:10424000B091F5030196A11DB11D8093F2039093E7
:10425000F303A093F403B093F503BF91AF919F9143
:104260008F913F912F910F900FBE0F901F90189537
:104270008FB7F8942091F6033091F7034091F8033B
:104280005091F9038FBFB901CA0108959B01AC0198
:104290007FB7F8948091F2039091F303A091F40317
:1042A000B091F50366B5A89B05C06F3F19F0019664
:1042B000A11DB11D7FBFBA2FA92F982F8827860F68
:1042C000911DA11DB11D62E0880F991FAA1FBB1F80
:1042D0006A95D1F7BC012DC0FFB7F8948091F20325
:1042E0009091F303A091F403B091F503E6B5A89B78
:1042F00005C0EF3F19F00196A11DB11DFFBFBA2FF8
:10430000A92F982F88278E0F911DA11DB11DE2E0C6
:10431000880F991FAA1FBB1FEA95D1F7861B970B21
:10432000885E9340C8F22150304040405040685170
:104330007C4F211531054105510571F6089501970E
:1043400039F0880F991F880F991F02970197F1F78D
:104350000895789484B5826084BD84B5816084BDFD
:1043600085B5826085BD85B5816085BDEEE6F0E0EE
:10437000808181608083E1E8F0E01082808182604A
:104380008083808181608083E0E8F0E080818160CB
:104390008083E1EBF0E0808184608083E0EBF0E0FB
:1043A000808181608083EAE7F0E08081846080839F
:1043B0008081826080838081816080838081806849
:1043C00080831092C1000895982F8E3008F09E507F
:1043D00097708091C5018295880F880F807C892B0A
:1043E00080937C0080917A00806480937A00809131
:1043F0007A0086FDFCCF2091780040917900942FBF
:1044000080E030E0282B392BC9010895482F50E077
:10441000CA01835B994FFC012491475C594FFA0113
:1044200084918823C1F0E82FF0E0EE0FFF1FE55ED6
:10443000F94FA591B491662341F49FB7F8948C91FC
:10444000209582238C939FBF08959FB7F8948C91F9
:10445000822B8C939FBF0895482F50E0CA018F593B
:10446000994FFC012491CA01835B994FFC0134915F
:10447000475C594FFA019491992309F444C02223CF
:1044800051F1233071F0243028F42130A1F0223092
:1044900011F514C02630B1F02730C1F02430D9F422
:1044A00004C0809180008F7703C0809180008F7D51
:1044B0008093800010C084B58F7702C084B58F7D53
:1044C00084BD09C08091B0008F7703C08091B00097
:1044D0008F7D8093B000E92FF0E0EE0FFF1FEB5DC2
:1044E000F94FA591B491662341F49FB7F8948C914C
:1044F000309583238C939FBF08959FB7F8948C9138
:10450000832B8C939FBF0895682F70E0CB018F5948
:10451000994FFC012491CB01835B994FFC0144919D
:10452000675C794FFB019491992319F420E030E006
:104530003CC0222351F1233071F0243028F4213083
:10454000A1F0223011F514C02630B1F02730C1F0AF
:104550002430D9F404C0809180008F7703C080910B
:1045600080008F7D8093800010C084B58F7702C05B
:1045700084B58F7D84BD09C08091B0008F7703C062
:104580008091B0008F7D8093B000892F90E0880FDC
:10459000991F815D994FFC01A591B4918C9120E008
:1045A00030E0842311F021E030E0C90108951F922A
:1045B0000F920FB60F9211242F933F934F938F9327
:1045C0009F93EF93FF934091C600E0917B04F0919D
:1045D0007C0431969F012F773070319780917D0454
:1045E00090917E042817390739F0E550FC4F40833D
:1045F00030937C0420937B04FF91EF919F918F91E6
:104600004F913F912F910F900FBE0F901F901895D3
:10461000CF93DF93EC019A01AB01E885F985203057
:1046200081EE380780E0480780E0580709F449C068
:1046300081E090E00A8802C0880F991F0A94E2F78F
:10464000808360E079E08DE390E00E94BC252150FA
:10465000304040405040CA01B90122E030E040E023
:1046600050E00E94BC25EC81FD813083EE81FF810A
:104670002083EA85FB85208141E050E0CA010E8459
:1046800002C0880F991F0A94E2F7282B2083EA853D
:10469000FB852081CA010F8402C0880F991F0A94EC
:1046A000E2F7282B2083EA85FB858081088802C0F9
:1046B000440F551F0A94E2F7842B8083DF91CF913A
:1046C0000895108220E130E0CECFDC011296ED910A
:1046D000FC911397E058FF4F219131918081918196
:1046E000281B390B2F773070C9010895DC01129611
:1046F000ED91FC911397EE57FF4F208131819291FC
:104700008291E058F0408217930719F42FEF3FEFA2
:1047100005C0E20FF31F8081282F30E0C901089502
:10472000DC011296ED91FC911397DF01AE57BF4F5C
:104730002D913C911197E058FF4F80819181E05875
:10474000F0408217930719F42FEF3FEF0BC0E20FF1
:10475000F31F80812F5F3F4F2F7730702D933C9355
:10476000282F30E0C9010895DC011296ED91FC91EB
:104770001397EE57FF4F8081918192938293089512
:10478000FC01A085B18521898C9190E0022E02C0A8
:10479000959587950A94E2F780FFF6CF0484F58516
:1047A000E02D608308958EE292E0909380048093E0
:1047B0007F048BEF93E0909382048093810485ECD7
:1047C00090E0909384048093830484EC90E0909331
:1047D00086048093850480EC90E090938804809315
:1047E000870481EC90E090938A048093890486EC9E
:1047F00090E090938C0480938B0484E080938D04EC
:1048000083E080938E0487E080938F0485E080931B
:10481000900481E08093910408950E94A9210E9450
:1048200074170E944017FDCF0F931F93CF93DF9310
:104830008C01EB0109C02196D801ED91FC9101900A
:10484000F081E02DC801099568816623A1F7DF9109
:10485000CF911F910F910895EF92FF920F931F93A5
:10486000CF93DF938C017B01EA010CC0D7016D91DE
:104870007D01D801ED91FC910190F081E02DC801FE
:1048800009952197209791F7DF91CF911F910F9173
:10489000FF90EF900895DC01ED91FC910280F3818F
:1048A000E02D099508952F923F924F925F926F925B
:1048B0007F928F929F92AF92BF92CF92DF92EF92B0
:1048C000FF920F931F93DF93CF93CDB7DEB7A097DF
:1048D0000FB6F894DEBF0FBECDBF1C016A017B018D
:1048E000411551056105710549F440E350E060E070
:1048F00070E020E030E00E94ED2456C08824992426
:104900005401422E55246624772401E010E00C0F58
:104910001D1F080D191DC701B601A30192010E94B8
:104920009A25F80160830894811C911CA11CB11C7C
:10493000C701B601A30192010E949A25C901DA01BB
:104940006C017D01C114D104E104F104F1F681E0B0
:10495000E82EF12CEC0EFD1EE80CF91C3E0108942B
:10496000611C711CD501C4010197A109B1096C0139
:10497000C818D90816C0F601EE0DFF1D40814A3057
:1049800010F4405D01C0495C552747FD5095652FE7
:10499000752FC10120E030E00E94ED240894E10869
:1049A000F1086E147F0439F7A0960FB6F894DEBFB5
:1049B0000FBECDBFCF91DF911F910F91FF90EF9070
:1049C000DF90CF90BF90AF909F908F907F906F902F
:1049D0005F904F903F902F900895EF92FF920F932A
:1049E0001F93CF93DF93EC017A018B0121153105E1
:1049F00041F4E881F9810190F081E02D642F09955F
:104A00001BC02A303105B1F477FF10C04DE250E0F1
:104A100060E070E020E030E00E94ED241095009509
:104A2000F094E094E11CF11C011D111DCE01B801B0
:104A3000A7012AE00E945324DF91CF911F910F918B
:104A4000FF90EF900895EF92FF920F931F937B01D9
:104A50009A010027F7FC0095102FB801A7010E94CA
:104A6000ED241F910F91FF90EF900895EF92FF9228
:104A70000F931F93E62E9A01FF24E7FCF0940F2D6D
:104A80001F2DB801A7010E94ED241F910F91FF90E7
:104A9000EF9008950F931F938C014DE050E060E07C
:104AA00070E020E030E00E94ED24C8014AE050E0D0
:104AB00060E070E020E030E00E94ED241F910F9153
:104AC00008950F931F938C010E944B24C8010E94EC
:104AD0004A251F910F910895CF92DF92EF92FF9296
:104AE0000F931F938C016B019A01EE24D7FCE09485
:104AF000FE2CB701A6010E94ED24C8010E944A25A0
:104B00001F910F91FF90EF90DF90CF90089597FB4A
:104B1000092E07260AD077FD04D049D006D0002000
:104B20001AF4709561957F4F0895F6F790958195E9
:104B30009F4F0895A1E21A2EAA1BBB1BFD010DC0B9
:104B4000AA1FBB1FEE1FFF1FA217B307E407F5073D
:104B500020F0A21BB30BE40BF50B661F771F881F19
:104B6000991F1A9469F760957095809590959B01AF
:104B7000AC01BD01CF01089597FB092E05260ED08B
:104B800057FD04D0D7DF0AD0001C38F4509540956B
:104B9000309521953F4F4F4F5F4F0895F6F7909511
:104BA0008095709561957F4F8F4F9F4F0895AA1BF9
:104BB000BB1B51E107C0AA1FBB1FA617B70710F008
:104BC000A61BB70B881F991F5A95A9F7809590953A
:104BD000BC01CD010895EE0FFF1F0590F491E02D6B
:104BE00009942F923F924F925F926F927F928F9291
:104BF0009F92AF92BF92CF92DF92EF92FF920F936C
:104C00001F93CF93DF93CDB7DEB7CA1BDB0B0FB675
:104C1000F894DEBF0FBECDBF09942A883988488832
:104C20005F846E847D848C849B84AA84B984C884C8
:104C3000DF80EE80FD800C811B81AA81B981CE0FBF
:104C4000D11D0FB6F894DEBF0FBECDBFED010895A4
:044C5000F894FFCF06
:104C54002B00252D313673005265736574204E6F19
:104C6400773F004C32004C31002573204D61782091
:104C740043757272656E74002B2564410041002BEC
:104C84002573004368617267696E6720204C256450
:104C94003A25644100253032643A253032643A259D
:104CA40030326400002020202020202020202020DA
:104CB4002020202020004175746F004C6576656CBF
:104CC4002031004C6576656C203200596573004EC6
:104CD4006F0055016B030C03B2020000040152651E
:104CE40061647920202020204C25643A2564410009
:104CF40066016B017301060A0C0E0F10000A1014F2
:104D0400191E23282D32373C41464B50007B017F2E
:104D1400012C01000001000000000E09EA06660BE8
:104D240000000000A40B0C07E00700000000F30BD8
:104D340040071B0800000000410C740756080000DF
:104D440000001B09FD09B009000000008D0CA80734
:104D5400F81300000000180DDA0CA4061F1C1F1E17
:104D64001F1E1F1F1E1F1E1F000000004C1F1424A7
:104D74002C24000040001400540000000000C02354
:0C4D840014242C24652390237623B423F0
:00000001FF
