:100000000C9492010C9406330C9433330C94C3017A
:100010000C94C3010C94C3010C94C3010C94C30150
:100020000C94C3010C94002E0C94C3010C94C301D6
:100030000C94C3010C94C3010C94C3010C94C30130
:100040000C9460330C94C3010C9447350C94C30199
:100050000C94C3010C94C3010C94C3010C94C30110
:100060000C94D9290C94C301332E332E3400474607
:10007000492053656C66205465737400536574752C
:10008000700053657276696365204C6576656C0017
:100090004D61782043757272656E740044696F64B7
:1000A0006520436865636B0056656E742052657108
:1000B000276420436865636B004261636B6C69670A
:1000C000687420547970650047726F756E642043C0
:1000D0006865636B0052657374617274004578697A
:1000E0007400446174652F54696D65005365742014
:1000F0004D6F6E74680053657420446179005365D8
:100100007420596561720053657420486F757200E0
:10011000536574204D696E7574650044656C617932
:100120002054696D65720053657420537461727454
:1001300020486F7572005365742053746172742087
:100140004D696E005365742053746F7020486F754D
:1001500072005365742053746F70204D696E0050A7
:100160006F776572204F6E0053656C66205465731F
:1001700074004175746F2044657465637400537630
:1001800063204C6576656C3A204C310053766320D1
:100190004C6576656C3A204C32002D2D5374756396
:1001A0006B2052656C61792D2D002D2D4561727487
:1001B000682047726F756E642D2D0054455354208E
:1001C0004641494C45440045565345204552524FFF
:1001D000520056454E54205245515549524544000F
:1001E00044494F44452043484B204641494C4544EF
:1001F0000047464349204641554C54004E4F204746
:10020000524F554E4400535455434B2052454C4198
:10021000590053746F707065640057616974696E3A
:100220006700536C656570696E6700455620436FC3
:100230006E6E6563746564004556204E6F7420438E
:100240006F6E6E656374656400000E1517110E0005
:100250000000000E0E0E00000000080C0E0C08003E
:10026000005265616479004368617267696E670076
:1002700052657374617274204E6F773F00536574DA
:1002800020446174652F54696D653F002020200073
:1002900056657273696F6E20004F70656E2045560B
:1002A0005345202020202020200052657374617265
:1002B00074696E672E2E2E001F1C1F1E1F1E1F1F0F
:1002C0001E1F1E1F00000000240027002A0000003F
:1002D0000000250028002B0000000000230026005D
:1002E00029000404040404040404020202020202B9
:1002F00003030303030301020408102040800102EA
:100300000408102001020408102000000007000269
:100310000100000304060000000000000000162396
:10032000DE28433611241FBECFEFD8E0DEBFCDBF9D
:1003300014BE88E10FB6F8948093600010926000BC
:100340000FBE13E0A0E0B1E0E2EFF2E702C00590DB
:100350000D92A63DB107D9F716E0A6EDB3E001C0B6
:100360001D92A33AB107E1F713E0C4E2D3E004C061
:100370002297FE010E943C39CE31D107C9F70E9475
:100380007D360C9477390C940000FB01DC0102C02F
:1003900005900D9241505040D8F70895FB01DC01C3
:1003A0004150504048F005900D920020C9F701C01F
:1003B0001D9241505040E0F70895FB01DC0104C05C
:1003C0008D910190801921F441505040C8F7881B4D
:1003D000990B0895FB01DC0101900D920020E1F7DB
:1003E0000895DF92EF92FF920F931F937B018C0190
:1003F000FB010995D82EC8010196F7010995982FA0
:100400008D2D1F910F91FF90EF90DF900895DF9257
:10041000EF92FF920F931F93D72E7A018C01FA016E
:100420000995C80101966D2DF70109951F910F914E
:10043000FF90EF90DF900895AEE0B0E0E2E2F2E0EE
:100440000C944E390D891E8986E08C831A830983AA
:100450008FEF9FE79E838D839E01275E3F4FCE01E6
:1004600001966F89788DA9010E9440022F813885FD
:10047000020F131FF80110822E96E4E00C946A39E3
:10048000ABE0B0E0E6E4F2E00C9440393C012B0133
:100490005A01FC0117821682838181FD03C06FEF30
:1004A0007FEFC6C19AE0892E1E010894211C311CE1
:1004B000F3012381F20123FD859123FF81912F0117
:1004C000882309F4B2C1853239F423FD859123FFD5
:1004D00081912F01853229F490E0B3010E94330409
:1004E000E7CF982FFF24EE249924FFE1FF15D0F0E9
:1004F0009B3269F09C3228F4903259F0933291F497
:100500000EC09D3249F0903369F441E024C052E0BE
:10051000F52A84E0F82A28C098E0F92A25C0E0E10D
:10052000FE2A22C0F7FC29C0892F80538A3070F43C
:10053000F6FE05C0989C902C1124980E15C0E89CDE
:10054000E02C1124E80EF0E2FF2A0EC09E3229F4BE
:10055000F6FC6BC140E4F42A07C09C3619F450E85D
:10056000F52A02C0983649F4F20123FD959123FF44
:1005700091912F01992309F0B8CF892F85548330A9
:1005800018F08052833038F444E050E0A40EB51ED9
:100590005FE359830FC0933631F0933779F0933589
:1005A00009F056C020C0F5018081898342E050E007
:1005B000A40EB51E610101E010E012C0F501C0807B
:1005C000D180F6FC03C06FEF7FEF02C0692D70E0B1
:1005D00042E050E0A40EB51EC6010E9428048C0122
:1005E0005FE7F52214C0F501C080D180F6FC03C09E
:1005F0006FEF7FEF02C0692D70E042E050E0A40E83
:10060000B51EC6010E941D048C0150E8F52AF3FEB8
:1006100007C01AC080E290E0B3010E943304EA945C
:100620008E2D90E008171907A8F30EC0F601F7FC0D
:100630008591F7FE81916F0190E0B3010E94330430
:10064000E110EA94015010400115110579F7EAC054
:10065000943611F0993669F5F7FE08C0F50120814E
:1006600031814281538184E090E00AC0F5018081AC
:1006700091819C01442737FD4095542F82E090E002
:10068000A80EB91E9FE6F92257FF09C05095409564
:10069000309521953F4F4F4F5F4FE0E8FE2ACA014A
:1006A000B901A1012AE030E00E945F04D82ED218DF
:1006B00040C0953729F41F2D1F7E2AE030E01DC071
:1006C0001F2D197F9F3661F0903720F4983509F07F
:1006D000ACC00FC0903739F0983709F0A6C004C0FD
:1006E00028E030E00AC0106114FD146020E130E021
:1006F00004C014FD166020E132E017FF08C0F501C8
:10070000608171818281938144E050E008C0F501ED
:1007100080819181BC0180E090E042E050E0A40E35
:10072000B51EA1010E945F04D82ED2188FE7F82EC3
:10073000F122F6FE0BC05EEFF522D91438F4F4FE78
:1007400007C0F2FC05C08FEEF82202C01D2D01C0CB
:10075000192DF4FE0DC0FE01ED0DF11D80818033D9
:1007600019F499EEF92208C01F5FF2FE05C003C01C
:100770008F2D867809F01F5F0F2DF3FC14C0F0FE5B
:100780000FC01E1510F09D2C0BC09D2C9E0C911AB5
:100790001E2D06C080E290E0B3010E9433041F5F6B
:1007A0001E15C0F304C01E1510F4E11A01C0EE249A
:1007B00004FF0FC080E390E0B3010E94330402FF06
:1007C0001DC001FD03C088E790E00EC088E590E001
:1007D0000BC0802F867891F001FF02C08BE201C030
:1007E00080E2F7FC8DE290E0B3010E94330406C082
:1007F00080E390E0B3010E9433049A94D914C0F3CB
:10080000DA94F101ED0DF11D808190E0B3010E94B9
:100810003304DD20A9F706C080E290E0B3010E9416
:100820003304EA94EE20C1F743CEF3016681778169
:10083000CB012B96E2E10C945C39FC0105906150F0
:1008400070400110D8F7809590958E0F9F1F0895E6
:10085000FC016150704001900110D8F7809590958F
:100860008E0F9F1F08950F931F93CF93DF938C01DB
:10087000EB018B8181FF1BC082FF0DC02E813F8168
:100880008C819D812817390764F4E881F9810193EF
:10089000F983E88306C0E885F985802F0995892BBF
:1008A00031F48E819F8101969F838E8302C00FEF6A
:1008B0001FEFC801DF91CF911F910F910895FA01A9
:1008C000AA27283051F1203181F1E8946F936E7F8F
:1008D0006E5F7F4F8F4F9F4FAF4FB1E03ED0B4E080
:1008E0003CD0670F781F891F9A1FA11D680F791FC1
:1008F0008A1F911DA11D6A0F711D811D911DA11DD2
:1009000020D009F468943F912AE0269F11243019E1
:10091000305D3193DEF6CF010895462F4770405D7C
:100920004193B3E00FD0C9F7F6CF462F4F70405D2B
:100930004A3318F0495D31FD4052419302D0A9F786
:10094000EACFB4E0A6959795879577956795BA9580
:10095000C9F700976105710508959B01AC010A2E46
:1009600006945795479537952795BA95C9F7620F1D
:10097000731F841F951FA01D08959C01F999FECF38
:1009800032BD21BDF89A80B508959C01F999FECF3A
:100990001FBA32BD21BD60BD0FB6F894FA9AF99A1C
:1009A0000FBE089581E0809316050895FC018081B3
:1009B0008823E1F09181992349F48281882331F4DD
:1009C0008381882319F48481882381F08381981797
:1009D00021F492818481981749F08091F204882350
:1009E00029F089EE94E060E00E94CD300895FC018A
:1009F000F999FECF84E090E092BD81BDF89A80B570
:100A00008F3F79F41082F999FECF1FBA84E090E00D
:100A100092BD81BD10BC0FB6F894FA9AF99A0FBE38
:100A200001C08083F999FECF85E090E092BD81BD41
:100A3000F89A80B58F3F79F41182F999FECF1FBAE9
:100A400085E090E092BD81BD10BC0FB6F894FA9A93
:100A5000F99A0FBE01C08183F999FECF86E090E03C
:100A600092BD81BDF89A80B58F3F89F485E082837D
:100A7000F999FECF1FBA86E090E092BD81BD85E076
:100A800080BD0FB6F894FA9AF99A0FBE01C082831E
:100A9000F999FECF87E090E092BD81BDF89A80B5CC
:100AA0008F3F89F486E08383F999FECF1FBA87E0F0
:100AB00090E092BD81BD86E080BD0FB6F894FA9AB1
:100AC000F99A0FBE01C08383F999FECF88E090E0C8
:100AD00092BD81BDF89A80B58F3F89F487E3848306
:100AE000F999FECF1FBA88E090E092BD81BD87E3FF
:100AF00080BD0FB6F894FA9AF99A0FBE01C08483AC
:100B000060E67AEE80E090E042ED54E00E94932DA2
:100B10000E949F2D08950F931F938C0164EF71E045
:100B200080E090E00E94B633F8018481882319F4B4
:100B30002BE234E007C0813019F025E334E002C035
:100B400020E334E0C9011F910F9108950F931F9383
:100B5000CF93DF93EC0189018985882339F0CE0199
:100B60000E941531CE01B8010E94BB36DF91CF91B2
:100B70001F910F910895FC018185882319F0CF0101
:100B80000E94BB3608950F931F938C0189EE94E069
:100B900060E070E041E050E020E031E00E94A60516
:100BA000D8011496EC91F0E0EE0FFF1FEB5DFD4FC6
:100BB0006081718189EE94E00E94BB0564EF71E071
:100BC00080E090E00E94B633F8018481882319F018
:100BD00026ED33E002C02DE034E0C9011F910F91F2
:100BE0000895CF93DF93EC01462F60E00E9415310A
:100BF0008985882339F06091D8017091D901CE019F
:100C00000E94BB36DF91CF910895CF93DF93EC0123
:100C10008C818F5F8C83823008F01C8289EE94E097
:100C200061E070E00E94F1058C81E82FF0E020E0A7
:100C300030E080910F05882311F421E030E0E217C5
:100C4000F307B9F489EE94E060E070E041E050E031
:100C500020E031E00E94A605EC81F0E0EE0FFF1FDE
:100C6000EB5DFD4F6081718189EE94E00E94BB05D0
:100C70000EC0EE0FFF1FEB5DFD4F2081318189EE2D
:100C800094E060E070E041E050E00E94A605DF9152
:100C9000CF910895CF93DF93EC018C818F5F8C838C
:100CA000833008F01C8289EE94E061E070E00E94DD
:100CB000F105EC81F0E0EE0FFF1FEC53FD4F2081BA
:100CC000318189EE94E060E070E041E050E00E9404
:100CD000A605DF91CF910895CF93DF93EC018C812E
:100CE0008F5F8C83823008F01C8289EE94E061E093
:100CF00070E00E94F105EC81F0E0EE0FFF1FEB5D6C
:100D0000FD4F2081318189EE94E060E070E041E0A8
:100D100050E00E94A605DF91CF910895CF93DF9315
:100D2000EC018C818F5F8C83823008F01C8289EE0D
:100D300094E061E070E00E94F105EC81F0E0EE0FDC
:100D4000FF1FEB5DFD4F2081318189EE94E060E073
:100D500070E041E050E00E94A605DF91CF91089538
:100D6000CF93DF93EC018C818F5F8C83823008F00E
:100D70001C8289EE94E061E070E00E94F10589EE4A
:100D800094E060E041E00E9415318091AC049C81C8
:100D900083FD03C0992319F008C0992331F089EE2F
:100DA00094E060E071E00E94BB05EC81F0E0EE0FA2
:100DB000FF1FEB5DFD4F6081718189EE94E00E9421
:100DC000BB05DF91CF910895CF93DF93EC018C8128
:100DD0008F5F8C83823008F01C8289EE94E061E0A2
:100DE00070E00E94F10589EE94E060E041E00E942D
:100DF00015318091AC049C8182FD03C0992319F0C8
:100E000008C0992331F089EE94E060E071E00E941F
:100E1000BB05EC81F0E0EE0FFF1FEB5DFD4F608145
:100E2000718189EE94E00E94BB05DF91CF91089516
:100E3000CF93DF93EC018C818F5F8C83823008F03D
:100E40001C8289EE94E061E070E00E94F10589EE79
:100E500094E060E041E00E9415318091AC049091F3
:100E6000AD042C8191FD03C0222319F008C0222378
:100E700031F089EE94E060E071E00E94BB05EC8106
:100E8000F0E0EE0FFF1FEB5DFD4F6081718189EE99
:100E900094E00E94BB05DF91CF910895CF93DF933B
:100EA000EC018C818F5F8C83823008F01C8289EE8C
:100EB00094E061E070E00E94F10589EE94E060E06A
:100EC00041E00E9415318091AC049C8181FD03C0FA
:100ED000992319F008C0992331F089EE94E060E07D
:100EE00071E00E94BB05EC81F0E0EE0FFF1FEB5DAF
:100EF000FD4F6081718189EE94E00E94BB05DF9116
:100F0000CF910895CF93DF93EC018C818F5F8C8319
:100F1000833008F01C8289EE94E061E070E00E946A
:100F2000F10589EE94E060E041E00E941531809186
:100F3000AC0480FD02C021E001C022E030E08C81E1
:100F400090E001962817390731F489EE94E060E0CB
:100F500071E00E94BB05EC81F0E0EE0FFF1FEC5F3B
:100F6000FD4F6081718189EE94E00E94BB05DF91A5
:100F7000CF910895CF93DF93EC018C818F5F8C83A9
:100F8000823008F01C8289EE94E061E070E00E94FB
:100F9000F10589EE94E060E041E00E94153189EEB0
:100FA00094E060E071E00E94BB05EC81F0E0EE0FA0
:100FB000FF1FE65FFD4F6081718189EE94E00E9422
:100FC000BB05DF91CF910895CF93DF93EC018C8126
:100FD0008F5F8C839E81981708F41C8289EE94E0C1
:100FE00061E070E00E94F10589EE94E060E041E08C
:100FF0000E9415318C81EF81F885E80FF11D9091E9
:10100000C0048081981731F489EE94E060E071E0CB
:101010000E94BB058C81EF81F885E80FF11D60818E
:101020008091F204882339F089EE94E070E04AE080
:1010300050E00E94B33789EE94E062E071E00E94D4
:10104000BB05DF91CF910895FC01948185819817AC
:1010500050F4E92FF0E0EE0FFF1FE652FE4F019033
:10106000F081E02D0AC08091F204882321F089EEFE
:1010700094E00E94C731E0E0F0E0CF010895CF9303
:10108000DF93EC0189EE94E00E94A13180FF52C011
:1010900031E00AC089819A81AB81BC810097A105AA
:1010A000B10509F4188230E02881222361F0213053
:1010B00009F045C089819A81AB81BC810097A10567
:1010C000B10509F43CC0332381F189819A81AB8158
:1010D000BC810097A105B10541F4222331F40E949F
:1010E000A83369837A838B839C830E94A8339B01F6
:1010F000AC0189819A81AB81BC81281B390B4A0BD9
:101100005B0B8881882339F424363105410551056C
:10111000B4F081E008C0813091F4245F3140404058
:1011200050406CF082E088830AC019821A821B82C8
:101130001C8205C08881823009F0B5CFABCFDF912A
:10114000CF91089581E160E00E94763481E161E011
:101150000E949C3408952F923F924F925F926F921B
:101160007F928F929F92AF92BF92CF92DF92EF9237
:10117000FF920F931F93DF93CF93CDB7DEB72E97D8
:101180000FB6F894DEBF0FBECDBF9C878B870E9441
:10119000A83369837A838B839C83EE24EA94FE2CA4
:1011A00087011E821D822224332421011E861D8672
:1011B0001F82188619861A8695C080E00E945434D2
:1011C0003C01882477FC8094982C2FEFE2162FEFB7
:1011D000F2062FEF02072FEF120781F190E031E0C6
:1011E000E31632E0F30630E0030730E013070CF0BB
:1011F00091E080E041E0641642E0740640E084063D
:1012000040E094060CF081E09817C1F0D601C501CA
:101210002F81388549855A85821B930BA40BB50B0A
:101220000697A105B10550F04D855E854F5F5F4F74
:101230005E874D87AF82B886C986DA868D859E85A2
:101240008130910508F44CC08330910520F003975C
:1012500009F046C014C0A401930120503240404020
:101260005040CA01B9010E94AB38260E371E481EF5
:10127000591EED81FE813196FE83ED8331C08D8153
:101280009E819C0140E050E0C201B1010E94FD3806
:1012900079018A0141E0A42EB12CC12CD12C05C0CA
:1012A0000894A11CB11CC11CD11CC601B501A6012A
:1012B00095010E94AB38E616F7060807190780F774
:1012C000EB85FC85E35BFF4FFC87EB870894A10867
:1012D000B108C108D108A082B182C282D3821EC0E7
:1012E000840173010E94A8335B016C01DC01CB0116
:1012F00029813A814B815C81821B930BA40BB50B36
:101300008397A105B10508F458CF4B855C85435BF5
:101310005F4FFA0110821182128213822E960FB64D
:10132000F894DEBF0FBECDBFCF91DF911F910F911B
:10133000FF90EF90DF90CF90BF90AF909F908F90F5
:101340007F906F905F904F903F902F900895AF9255
:10135000BF92CF92DF92EF92FF920F931F93CF93A2
:10136000DF936B015A015FEFE52E53E0F52E00E0AD
:1013700010E0C0E0D0E081E00E9454340817190763
:1013800014F48C0104C08E159F050CF47C01219689
:10139000C436D10581F7F601F182E082F5011183AF
:1013A0000083DF91CF911F910F91FF90EF90DF901D
:1013B000CF90BF90AF900895CF93DF93EC011A8246
:1013C000198282E00E94F434892B19F081E088832D
:1013D00001C01882DF91CF9108950F931F938C0164
:1013E00088E060E00E949C3487E060E00E949C34CA
:1013F00089E060E00E949C34F801868D8F7B868FA7
:101400000E94912F035C1F4FF801608371838283D8
:1014100093830D5310400E94A833F80165AB76AB5F
:1014200087AB90AF0F5A1F4FF801108211821282C2
:1014300013821F910F91089580919404882321F0C5
:1014400081E08093930408958091AE048068809336
:10145000AE0480E994E00E94ED0910928B00109296
:101460008A0082E090E0909391048093900481E060
:101470008093920408950F931F938C0188E061E09C
:101480000E949C3487E061E00E949C3489E061E026
:101490000E949C34F801868D8064868F0E94912F73
:1014A000F80161AF72AF83AF94AF0E94A833F80127
:1014B00061AB72AB83AB94AB1F910F9108959F9278
:1014C000AF92BF92CF92DF92EF92FF920F931F9352
:1014D000DF93CF9300D000D0CDB7DEB76C010E9470
:1014E000A8337B018C01D60199969C90BFEF9B1687
:1014F00039F465E070E080E090E00E94B6336EC39E
:10150000EEEF9E16D9F5D6015E968C915E9786FF1A
:1015100065C3D5968D919D910D90BC91A02DE81637
:10152000F9060A071B0708F459C3C601BE016F5F1D
:101530007F4FAE014D5F5F4F24E630E00E94A70968
:101540002B813C81F60181A192A12817390790F4E3
:1015500085A996A9A7A9B0ADE81AF90A0A0B1B0B31
:10156000F8EBEF16FBE0FF06F0E00F07F0E01F07D7
:1015700008F434C3C6010E94ED0930C383E00E9421
:10158000F4345C0184E00E94F4349C01D6015E9640
:101590008C915E9786FF47C05C968C915C9783FD2B
:1015A000B3C0D1968D919D910D90BC91A02DB801A5
:1015B000A701481B590B6A0B7B0BDB01CA01895E33
:1015C0009340A040B04008F49FC061E0A616B1046B
:1015D00009F09AC02130310509F096C087E0D601A4
:1015E00099968C93C6010E94ED09F60186898F3F7A
:1015F00011F08F5F868B20EA3BEB4DE050E0E20E6E
:10160000F31E041F151FD6011E96ED92FD920D9339
:101610001C93519720E634E442EF5FEFE20EF31E95
:10162000041F151F28C047E0941639F5D6015296BD
:101630002D913D914D915C91559723303105410598
:101640005105A8F41E968D919D910D90BC91A02DF1
:10165000E816F9060A071B0750F02F5F3F4F4F4F60
:101660005F4FF601228B338B448B558B4DC087E047
:10167000D60199968C9327E043C0F601848D84FDB2
:1016800043C0AB2819F0232B09F03CC0F8E09F16AB
:1016900061F0D6015B968C91882339F4F601E78AD4
:1016A000F08E018F128F81E0838FF60185A996A9B4
:1016B000A7A9B0ADA8019701281B390B4A0B5B0BFA
:1016C000DA01C901895E9340A040B04088F0878963
:1016D000908DA18DB28DB801A701481B590B6A0BE3
:1016E0007B0BDB01CA01895E9340A040B04018F437
:1016F00068E0961649F488E0D60199968C9328E024
:1017000090E004C0F601138E20E091E0D60112961D
:101710008C911297882309F453C086E099968C9394
:10172000999719968D919D910D90BC91A02D03973D
:10173000A105B10508F039C2B6E09B16B1F0F6017B
:1017400085858F3F11F08F5F8587D60119961D9291
:101750001D921D921C921C9720EA3BEB4DE050E03D
:10176000E20EF31E041F151F24C0F6018581968129
:10177000A781B085E816F9060A071B0708F415C209
:10178000C60102960E94DC09F60181859285A38537
:10179000B4850196A11DB11D81879287A387B48767
:1017A00020EA3BEB4DE050E0E20EF31E041F151F54
:1017B000D6011596ED92FD920D931C931897F5C1E5
:1017C000992309F477C0892D8650833058F480E43A
:1017D0009FE190938B0080938A00F6011182108222
:1017E00011A69924C601BE016F5F7F4FAE014D5F08
:1017F0005F4F24E630E00E94A709D6015C964C9129
:101800005C9741FDD4C18D919C911197019709F08E
:10181000CEC129813A8197968D919C9198972817EE
:10182000390708F4C4C125E01BC0F60181A192A1CB
:101830002817390710F022E013C0D60193968D9136
:101840009C9194972817390750F442FFBDC1959693
:101850008D919C9196978217930708F0B5C123E06C
:10186000291541F1F60183A5281741F0D6019C9670
:10187000ED92FD920D931C939F971CC0F60144A519
:1018800055A566A577A5213029F08AEF90E0A0E064
:10189000B0E004C089E190E0A0E0B0E0E41AF50A0D
:1018A000060B170BE816F9060A071B0718F0D601F6
:1018B00099962C93F60123A781A5891509F4BBC03D
:1018C000813069F4C6010E94ED0980E49FE19093A4
:1018D0008B0080938A00D6011D921C92ACC082308E
:1018E00009F458C08330B1F5F60180A9282F30E003
:1018F000C90106978E9760F4B901882777FD809516
:10190000982F25E830E040E050E00E94AB3815C049
:10191000C901C4974D97D0F4C901AA2797FDA09596
:10192000BA2F80569F4FAF4FBF4FE5E0880F991FEA
:10193000AA1FBB1FEA95D1F7BC0170938B0060937F
:101940008A0081E090E0D6018D939C93C6010E94AD
:101950003B0A71C0843069F4C6010E94ED0980E43D
:101960009FE190938B0080938A00F6011182108290
:1019700062C0863069F4C6010E94ED0910928B00A6
:1019800010928A0082E090E0D6018D939C9353C020
:10199000853099F5C6010E94ED09F60180A9282F2E
:1019A00030E0C90106978E9760F4B901882777FD6A
:1019B0008095982F25E830E040E050E00E94AB3859
:1019C00015C0C901C4974D97B0F5C901AA2797FD65
:1019D000A095BA2F80569F4FAF4FBF4F75E0880F2D
:1019E000991FAA1FBB1F7A95D1F7BC0170938B007A
:1019F00060938A0081E090E0C7CF873069F4C60128
:101A00000E94ED0910928B0010928A0082E090E013
:101A1000F601918380830FC0883009F4ACCF80E455
:101A20009FE190938B0080938A00F60111821082CF
:101A3000C6010E94ED09D6019A969C929A979996B2
:101A40008C91833071F4E7E5F0E0CE0EDF1ED60115
:101A50008D919C91E9EAFFEFCE0EDF1E1816190654
:101A60002CF0D6015E968C9184FF71C0C6010E9455
:101A7000AB08EDE4F0E0CE0EDF1ED6012D913D91D6
:101A80004D915C91E3EBFFEFCE0EDF1E80911D05C3
:101A9000882341F410921E0510921F051092200514
:101AA00010922105E0901E05F0901F050091200581
:101AB00010912105E20EF31E041F151FE0921E0572
:101AC000F0921F05009320051093210580911D05BC
:101AD0008F5F80931D058032D1F510921D0565E062
:101AE00016950795F794E7946A95D1F727E530E0C6
:101AF000C20ED31ED6012D913C91442737FD40954F
:101B0000542FC801B7010E94AB38F60132912291DF
:101B10006F014BEA5FEFC40ED51E442737FD409599
:101B2000542F620F731F841F951FF601EF5AFF4F4A
:101B3000608371838283938397FF04C01082118234
:101B4000128213828091F60480688093F604D60195
:101B500099968C91833009F041C086010F5B1F4F2D
:101B6000F80180819181A281B38125E430E0C20E29
:101B7000D31EF60180839183A283B3832BEB3FEFC7
:101B8000C20ED31E0E94912FD601D9962D913D9160
:101B90004D915C91DC97621B730B840B950BF801E4
:101BA000608371838283938319C026E083CE2B8167
:101BB0003C81D6015F968D919C91909728173907AB
:101BC00008F433CE21E04CCEF60185A196A1821710
:101BD000930710F020E044CE24E042CE0F900F9007
:101BE0000F900F90CF91DF911F910F91FF90EF9089
:101BF000DF90CF90BF90AF909F900895FC018585B6
:101C000080FF02C0611167E0CF010E946631089534
:101C1000DC015F96E2EFF1E08AE001900D928150E5
:101C2000E1F708950F931F93CF93DF938C0181E029
:101C3000F8018283118286E061E00E947634C0E080
:101C4000D0E086E061E00E949C3480E49FE10E9445
:101C50000F3486E060E00E949C3480E49FE10E94A3
:101C60000F34F8018181882321F42196C233D105F4
:101C700041F782E00E94F4340197D9F3F80112820F
:101C8000DF91CF911F910F910895DF92EF92FF9214
:101C90000F931F93CF93DF93FC01262F142FF52E64
:101CA0008185882359F1DE2EEF2ECF0160E0422F8F
:101CB0000E941531A12FBF2DFD0101900020E9F7F1
:101CC00031970E2F011B013108F000E1812F9F2D6C
:101CD0009C01E90110E006C08D2D9E2D69910E94A6
:101CE000CD301F5F1017C0F3102F06C08D2D9E2D15
:101CF00060E20E94CD301F5F1031C0F3DF91CF91C1
:101D00001F910F91FF90EF90DF900895FC01848167
:101D10008F5F84838C3308F01482248180911C05AA
:101D200040E554E02817B1F48DB79EB708970FB679
:101D3000F8949EBF0FBE8DBFEDB7FEB73196ADB71D
:101D4000BEB712965C934E9311978091CC029091FE
:101D5000CD0213C0ADB7BEB718970FB6F894BEBF8B
:101D60000FBEADBFEDB7FEB7319612965C934E93A2
:101D700011978091F0019091F1019383828380917A
:101D80001B0584831582268317820E941C028DB74F
:101D90009EB708960FB6F8949EBF0FBE8DBF89EE12
:101DA00094E061E070E040E554E00E94450E089543
:101DB000FC0184818F5F84838C3308F0148224813A
:101DC00080911C0540E554E02817B1F48DB79EB70B
:101DD00008970FB6F8949EBF0FBE8DBFEDB7FEB744
:101DE0003196ADB7BEB712965C934E931197809122
:101DF000CC029091CD0213C0ADB7BEB718970FB605
:101E0000F894BEBF0FBEADBFEDB7FEB731961296C8
:101E10005C934E9311978091F0019091F10193831F
:101E2000828380911B0584831582268317820E94FA
:101E30001C028DB79EB708960FB6F8949EBF0FBED2
:101E40008DBF89EE94E061E070E040E554E00E94CF
:101E5000450E08950F931F93DC0114962C91209347
:101E60001B05EDB7FEB738970FB6F894FEBF0FBE4F
:101E7000EDBF319600E514E0ADB7BEB712961C93E6
:101E80000E9311978091CA029091CB029383828323
:101E90002483158280911C05868317820E941C0270
:101EA000EDB7FEB738960FB6F894FEBF0FBEEDBF84
:101EB00089EE94E061E070E0A8010E94450E64EFB5
:101EC00071E080E090E00E94B6338FE394E01F91D0
:101ED0000F910895FC0184818F5F8483883108F01D
:101EE0001482248180911B0540E554E02817B1F449
:101EF0008DB79EB708970FB6F8949EBF0FBE8DBFE3
:101F0000EDB7FEB73196ADB7BEB712965C934E9360
:101F100011978091CA029091CB0213C0ADB7BEB7A2
:101F200018970FB6F894BEBF0FBEADBFEDB7FEB7A2
:101F3000319612965C934E9311978091F001909197
:101F4000F101938382832483158280911C0586830B
:101F500017820E941C028DB79EB708960FB6F894A0
:101F60009EBF0FBE8DBF89EE94E061E070E040E55A
:101F700054E00E94450E08950F931F93DC011496C0
:101F80002C9120931B05EDB7FEB738970FB6F89448
:101F9000FEBF0FBEEDBF319600E514E0ADB7BEB792
:101FA00012961C930E9311978091CA029091CB02C6
:101FB000938382832483158280911C0586831782F4
:101FC0000E941C02EDB7FEB738960FB6F894FEBF1C
:101FD0000FBEEDBF89EE94E061E070E0A8010E94C1
:101FE000450E64EF71E080E090E00E94B6338AE332
:101FF00094E01F910F910895FC0184818F5F848389
:10200000883108F01482248180911B0540E554E05A
:102010002817B1F48DB79EB708970FB6F8949EBFF6
:102020000FBE8DBFEDB7FEB73196ADB7BEB71296F6
:102030005C934E9311978091CA029091CB0213C08A
:10204000ADB7BEB718970FB6F894BEBF0FBEADBF01
:10205000EDB7FEB7319612965C934E93119780912F
:10206000F0019091F1019383828324831582809102
:102070001C05868317820E941C028DB79EB70896A6
:102080000FB6F8949EBF0FBE8DBF89EE94E061E05D
:1020900070E040E554E00E94450E0895AF92BF9273
:1020A000CF92EF920F931F93DF93CF9300D000D086
:1020B00000D0CDB7DEB7DC0114962C9120931C051F
:1020C000EDB7FEB73E970FB6F894FEBF0FBEEDBF5B
:1020D000319600E514E0ADB7BEB712961C930E938F
:1020E00011978AEA92E09383828380911905848311
:1020F000158280911A058683178280911705909129
:1021000018059187808780911B0582871386248715
:1021100015860E941C02EDB7FEB73E960FB6F894E6
:10212000FEBF0FBEEDBF89EE94E061E070E0A80154
:102130000E94450E60911705709118055E01089484
:10214000A11CB11CC5014091190520911A050091EF
:102150001B05E0901C05CC240E94E52BC5010E94C4
:10216000B72C64EF71E080E090E00E94B63386ED1A
:1021700093E026960FB6F894DEBF0FBECDBFCF9189
:10218000DF911F910F91EF90CF90BF90AF90089586
:10219000CF93DF93EC018C818F5F8C838C3308F0BD
:1021A0001C8289EE94E061E070E00E94F1052C81D0
:1021B00030911B0580E594E0231731F54DB75EB7EC
:1021C0004E5050400FB6F8945EBF0FBE4DBFEDB7F6
:1021D000FEB73196ADB7BEB712969C938E9311970A
:1021E0008AEA92E093838283809119058483158221
:1021F00080911A05868317828091170590911805A2
:1022000091878087228722C0ADB7BEB71E970FB6D1
:10221000F894BEBF0FBEADBFEDB7FEB731961296B4
:102220009C938E93119789E292E0938382838091AD
:1022300019058483158280911A05868317828091FF
:102240001705909118059187808732871386248718
:1022500015860E941C024DB75EB7425F5F4F0FB6F6
:10226000F8945EBF0FBE4DBF89EE94E061E070E070
:1022700040E554E00E94450EDF91CF9108950F9301
:102280001F93DC0114962C9120931B05EDB7FEB72C
:102290003E970FB6F894FEBF0FBEEDBF319600E536
:1022A00014E0ADB7BEB712961C930E93119780E958
:1022B00092E09383828380911905848315828091B3
:1022C0001A058683178280911705909118059187CA
:1022D00080872287138680911C05848715860E943B
:1022E0001C02EDB7FEB73E960FB6F894FEBF0FBEC8
:1022F000EDBF89EE94E061E070E0A8010E94450E18
:1023000064EF71E080E090E00E94B63381E294E0F7
:102310001F910F910895CF93DF93EC018C818F5F14
:102320008C83883108F01C8289EE94E061E070E0D3
:102330000E94F1054C8180911B0520E534E048178F
:10234000A1F48DB79EB70E970FB6F8949EBF0FBE3F
:102350008DBFEDB7FEB73196ADB7BEB712963C93C1
:102360002E93119780E992E011C0ADB7BEB71E97CA
:102370000FB6F894BEBF0FBEADBFEDB7FEB7319636
:1023800012963C932E93119789E292E09383828375
:10239000809119058483158280911A05868317829E
:1023A0008091170590911805918780874287138641
:1023B00080911C05848715860E941C028DB79EB7EC
:1023C0000E960FB6F8949EBF0FBE8DBF89EE94E0B7
:1023D00061E070E040E554E00E94450EDF91CF914E
:1023E00008950F931F93DC0114962C9120931705E9
:1023F00010921805EDB7FEB73E970FB6F894FEBFE2
:102400000FBEEDBF319600E514E0ADB7BEB7129632
:102410001C930E93119786E792E0938382838091B9
:1024200019058483158280911A0586831782208777
:10243000118680911B058287138680911C058487F5
:1024400015860E941C02EDB7FEB73E960FB6F894B3
:10245000FEBF0FBEEDBF89EE94E061E070E0A80121
:102460000E94450E64EF71E080E090E00E94B63378
:102470008CE194E01F910F910895FC0184818F5F9E
:102480008483853110F08CE084836481262F30E0D2
:10249000809117059091180540E554E028173907F9
:1024A000A1F48DB79EB70E970FB6F8949EBF0FBEDE
:1024B0008DBFEDB7FEB73196ADB7BEB712965C9340
:1024C0004E93119786E792E011C0ADB7BEB71E9745
:1024D0000FB6F894BEBF0FBEADBFEDB7FEB73196D5
:1024E00012965C934E93119789E292E093838283D4
:1024F000809119058483158280911A05868317823D
:102500006087118680911B058287138680911C0548
:10251000848715860E941C028DB79EB70E960FB653
:10252000F8949EBF0FBE8DBF89EE94E061E070E02D
:1025300040E554E00E94450E08950F931F93DC017F
:1025400014962C9120931A05EDB7FEB73E970FB65F
:10255000F894FEBF0FBEEDBF319600E514E0ADB7B5
:10256000BEB712961C930E9311978CE592E093835D
:102570008283809119058483158226831782809136
:102580001705909118059187808780911B05828798
:10259000138680911C05848715860E941C02EDB766
:1025A000FEB73E960FB6F894FEBF0FBEEDBF89EEA4
:1025B00094E061E070E0A8010E94450E64EF71E0D4
:1025C00080E090E00E94B63387E194E01F910F9184
:1025D0000895CF93DF93EC018C818F5F8C838032E1
:1025E00010F081E08C8389EE94E061E070E00E945D
:1025F000F1052C8180911A0540E554E02817A1F4DB
:102600008DB79EB70E970FB6F8949EBF0FBE8DBFC5
:10261000EDB7FEB73196ADB7BEB712965C934E9349
:1026200011978CE592E011C0ADB7BEB71E970FB6FB
:10263000F894BEBF0FBEADBFEDB7FEB73196129690
:102640005C934E93119789E292E093838283809109
:10265000190584831582268317828091170590912E
:1026600018059187808780911B058287138680914A
:102670001C05848715860E941C028DB79EB70E9696
:102680000FB6F8949EBF0FBE8DBF89EE94E061E057
:1026900070E040E554E00E94450EDF91CF9108952F
:1026A0000F931F93DC0114962C9120931905EDB71D
:1026B000FEB73E970FB6F894FEBF0FBEEDBF319642
:1026C00000E514E0ADB7BEB712961C930E931197B8
:1026D00082E492E0938382832483158280911A0599
:1026E00086831782809117059091180591878087BE
:1026F00080911B058287138680911C05848715862F
:102700000E941C02EDB7FEB73E960FB6F894FEBFCE
:102710000FBEEDBF89EE94E061E070E0A8010E9479
:10272000450E64EF71E080E090E00E94B63382E1F4
:1027300094E01F910F910895CF93DF93EC018C816A
:102740008F5F8C838D3010F081E08C8389EE94E074
:1027500061E070E00E94F1052C818091190540E54F
:1027600054E02817A1F48DB79EB70E970FB6F894D2
:102770009EBF0FBE8DBFEDB7FEB73196ADB7BEB7EA
:1027800012965C934E93119782E492E011C0ADB71C
:10279000BEB71E970FB6F894BEBF0FBEADBFEDB764
:1027A000FEB7319612965C934E93119789E292E0B0
:1027B000938382832483158280911A0586831782EE
:1027C00080911705909118059187808780911B054E
:1027D0008287138680911C05848715860E941C02BF
:1027E0008DB79EB70E960FB6F8949EBF0FBE8DBFE5
:1027F00089EE94E061E070E040E554E00E94450E0F
:10280000DF91CF9108950F931F93CF93DF93EC0146
:102810001C828091AC0480FD04C08EE092E041E017
:1028200003C085E192E042E098878F831D821E827B
:1028300002C09F5F9E83AF81B8859E81FD01E90F35
:10284000F11D80818823A9F7292F21502E83A20F03
:10285000B11D8C918D833091C00490E0EF81F8859B
:10286000E90FF11D8081831711F49C8303C09F5FE2
:102870002917A0F7413019F024E031E002C027E029
:1028800031E000D000D000D0EDB7FEB7319600E5C2
:1028900014E0ADB7BEB712961C930E9311978AE061
:1028A00091E093838283358324830E941C02EDB7D9
:1028B000FEB736960FB6F894FEBF0FBEEDBF89EE99
:1028C00094E060E070E0A8010E94450E00D000D0C6
:1028D00000D0ADB7BEB71196EDB7FEB71283018336
:1028E00089E191E013969C938E9312978C81EF81EE
:1028F000F885E80FF11D808114968C931497159636
:102900001C920E941C028DB79EB706960FB6F894D3
:102910009EBF0FBE8DBF89EE94E061E070E0A8011C
:102920000E94450EDF91CF911F910F910895CF9294
:10293000DF92EF92FF920F931F938C01D62EC42E3D
:10294000FEE0EF2EF12CE80EF91EFC01478DC701C9
:10295000B90150E00E94CE01F801878DE80FF11D0A
:102960001586C8016D2D4C2D0E941531C801B70187
:102970000E94BB361F910F91FF90EF90DF90CF9098
:102980000895CF92DF92EF92FF920F931F938C01E5
:102990006B01BA01AEE0EA2EF12CE80EF91EFC0143
:1029A000478DC70150E00E94CE01F801878DE80FE6
:1029B000F11D1586C801B601A7010E94450E1F91A1
:1029C0000F91FF90EF90DF90CF900895EF92FF92DC
:1029D0000F931F938C01B9EEEB2EB4E0FB2EC701D1
:1029E00060E070E042E551E00E94C11420911C05B6
:1029F000D80114962C93EDB7FEB738970FB6F8941C
:102A0000FEBF0FBEEDBF319600E514E0ADB7BEB717
:102A100012961C930E9311978091CC029091CD0247
:102A20009383828380911B0584831582268317827A
:102A30000E941C02EDB7FEB738960FB6F894FEBFA1
:102A40000FBEEDBFC70161E070E0A8010E94450E16
:102A50001F910F91FF90EF900895EF92FF920F93C7
:102A60001F938C0189EEE82E84E0F82EC70160E008
:102A700070E046E351E00E94C11420911C05D8018A
:102A800014962C93EDB7FEB738970FB6F894FEBFA7
:102A90000FBEEDBF319600E514E0ADB7BEB712969C
:102AA0001C930E9311978091CC029091CD02938349
:102AB000828380911B0584831582268317820E945E
:102AC0001C02EDB7FEB738960FB6F894FEBF0FBEE6
:102AD000EDBFC70161E070E0A8010E94450E1F91A3
:102AE0000F91FF90EF900895EF92FF920F931F9335
:102AF0008C0199EEE92E94E0F92EC70160E070E0B8
:102B000044E451E00E94C1142091120520931B055A
:102B10003091130530931C05D80114962C93EDB712
:102B2000FEB738970FB6F894FEBF0FBEEDBF3196D3
:102B300000E514E0ADB7BEB712961C930E93119743
:102B40008091CA029091CB02938382832483158261
:102B5000368317820E941C02EDB7FEB738960FB677
:102B6000F894FEBF0FBEEDBFC70161E070E0A801A1
:102B70000E94450E1F910F91FF90EF900895EF92E4
:102B8000FF920F931F938C0129EEE22E24E0F22E88
:102B9000C70160E070E047E251E00E94C11420915B
:102BA000100520931B053091110530931C05D801A9
:102BB00014962C93EDB7FEB738970FB6F894FEBF76
:102BC0000FBEEDBF319600E514E0ADB7BEB712966B
:102BD0001C930E9311978091CA029091CB0293831C
:102BE000828324831582368317820E941C02EDB7EC
:102BF000FEB738960FB6F894FEBF0FBEEDBFC70103
:102C000061E070E0A8010E94450E1F910F91FF90B6
:102C1000EF900895CF93DF93EC0190E080910F0542
:102C2000882309F491E09C8389EE94E060E070E0F1
:102C30004BE151E00E94C11489EE94E061E070E044
:102C40000E94F10589EE94E060E070E041E050E020
:102C500020E031E00E94A605EC81F0E0EE0FFF1FBE
:102C6000EB5DFD4F6081718189EE94E00E94BB05B0
:102C7000DF91CF9108950F931F93FC01148209EE09
:102C800014E0C80160E070E04BE151E00E94C11423
:102C90004091C4025091C502C80161E070E00E94F9
:102CA000450E1F910F910895EF92FF920F931F937E
:102CB0008C0149EEE42E44E0F42EC70160E070E0A0
:102CC00040E151E00E94C11420911C05D8011496E6
:102CD0002C93EDB7FEB73E970FB6F894FEBF0FBE2C
:102CE000EDBF319600E514E0ADB7BEB712961C9368
:102CF0000E9311978AEA92E093838283809119055B
:102D00008483158280911A05868317828091170526
:102D1000909118059187808780911B058287138683
:102D2000248715860E941C02EDB7FEB73E960FB6AB
:102D3000F894FEBF0FBEEDBFC70161E070E0A801CF
:102D40000E94450E1F910F91FF90EF900895EF9212
:102D5000FF920F931F938C0159EEE52E54E0F52E50
:102D6000C70160E070E047E051E00E94C11420918B
:102D70001B05D80114962C93EDB7FEB73E970FB6FE
:102D8000F894FEBF0FBEEDBF319600E514E0ADB77D
:102D9000BEB712961C930E93119780E992E093832D
:102DA0008283809119058483158280911A05868318
:102DB0001782809117059091180591878087228747
:102DC000138680911C05848715860E941C02EDB72E
:102DD000FEB73E960FB6F894FEBF0FBEEDBFC7011B
:102DE00061E070E0A8010E94450E1F910F91FF90D5
:102DF000EF9008950F931F93CF93DF93EC0189EE2B
:102E000094E060E070E04EEF50E00E94C1148091C9
:102E100017058C838C50893040F08CE08C838CE0DB
:102E200090E090931805809317058DB79EB70E9785
:102E30000FB6F8949EBF0FBE8DBFEDB7FEB73196AB
:102E400000E514E0ADB7BEB712961C930E93119730
:102E500086E792E0938382838091190584831582AB
:102E600080911A05868317828C81808711868091D4
:102E70001B058287138680911C05848715860E9416
:102E80001C028DB79EB70E960FB6F8949EBF0FBE6C
:102E90008DBF89EE94E061E070E0A8010E94450ECC
:102EA000DF91CF911F910F910895EF92FF920F93B1
:102EB0001F938C0169EEE62E64E0F62EC70160E0F8
:102EC00070E046EF50E00E94C11420911A05D8012D
:102ED00014962C93EDB7FEB73E970FB6F894FEBF4D
:102EE0000FBEEDBF319600E514E0ADB7BEB7129648
:102EF0001C930E9311978CE592E0938382838091CB
:102F00001905848315822683178280911705909175
:102F100018059187808780911B0582871386809191
:102F20001C05848715860E941C02EDB7FEB73E96ED
:102F30000FB6F894FEBF0FBEEDBFC70161E070E0B1
:102F4000A8010E94450E1F910F91FF90EF900895E8
:102F50000F931F93DF93CF9300D000D000D0CDB755
:102F6000DEB78C0189EE94E060E070E04CEE50E05A
:102F70000E94C1140E94FB2B29833A834B835C83FC
:102F80006D837E83A9E0B5E0FE01319686E0019075
:102F90000D928150E1F730910A0530931905709137
:102FA0000B0570931A052091090560E02093170521
:102FB0006093180540910C0540931B0550910D0539
:102FC00050931C05D80114963C93EDB7FEB73E977D
:102FD0000FB6F894FEBF0FBEEDBF319600E514E0CA
:102FE000ADB7BEB712961C930E93119782E492E090
:102FF0009383828334831582768317822087618747
:1030000042871386548715860E941C02EDB7FEB7CF
:103010003E960FB6F894FEBF0FBEEDBF89EE94E06A
:1030200061E070E0A8010E94450E26960FB6F89464
:10303000DEBF0FBECDBFCF91DF911F910F910895DD
:103040000F931F93FC01148209EE14E0C80160E0A5
:1030500070E04DE752E00E94C1144091250250916A
:103060002602C80161E070E00E94450E1F910F9199
:1030700008950F931F93FC01148209EE14E0C80118
:1030800060E070E040E752E00E94C11440912502E8
:1030900050912602C80161E070E00E94450E1F9128
:1030A0000F910895EF92FF920F931F938C01F9EE09
:1030B000EF2EF4E0FF2EFC0142815381C70160E056
:1030C00070E00E94C1142091AC043091AD04E3E0A3
:1030D00036952795EA95E1F72170F801248300D011
:1030E00000D000D0ADB7BEB7119600E514E0EDB743
:1030F000FEB7128301838EE191E013969C938E9329
:103100001297E22FF0E0EE0FFF1FEB5DFD4F808185
:10311000918115969C938E9314970E941C028DB7F3
:103120009EB706960FB6F8949EBF0FBE8DBFC7011F
:1031300061E070E0A8010E94450E1F910F91FF9081
:10314000EF900895EF92FF920F931F938C0129EE59
:10315000E22E24E0F22EFC0142815381C70160E09F
:1031600070E00E94C1142091AC043091AD043695FA
:103170002795369527952170F801248300D000D03B
:1031800000D0ADB7BEB7119600E514E0EDB7FEB7BD
:10319000128301838EE191E013969C938E93129794
:1031A000E22FF0E0EE0FFF1FEB5DFD4F808191817C
:1031B00015969C938E9314970E941C028DB79EB710
:1031C00006960FB6F8949EBF0FBE8DBFC70161E093
:1031D00070E0A8010E94450E1F910F91FF90EF90A3
:1031E0000895EF92FF920F931F93CF93DF938C017B
:1031F00049EEE42E44E0F42EDC0112964D915C91F0
:103200001397C70160E070E00E94C114E091AD0423
:10321000E695E170E801EC8300D000D000D0ADB7B6
:10322000BEB7119600E514E0CDB7DEB71A83098367
:103230008EE191E013969C938E931297F0E0EE0F3F
:10324000FF1FEB5DFD4F8081918115969C938E93BE
:1032500014970E941C02EDB7FEB736960FB6F8948D
:10326000FEBF0FBEEDBFC70161E070E0A8010E9484
:10327000450EDF91CF911F910F91FF90EF90089530
:10328000EF92FF920F931F938C0179EEE72E74E07B
:10329000F72EFC0142815381C70160E070E00E947B
:1032A000C1142091AC043091AD043695279521705E
:1032B000F801248300D000D000D0ADB7BEB711967E
:1032C00000E514E0EDB7FEB7128301838EE191E0D3
:1032D00013969C938E931297E22FF0E0EE0FFF1F50
:1032E000EB5DFD4F8081918115969C938E93149791
:1032F0000E941C028DB79EB706960FB6F8949EBF2B
:103300000FBE8DBFC70161E070E0A8010E94450EAD
:103310001F910F91FF90EF900895CF93DF93EC01F1
:103320004A815B8189EE94E060E070E00E94C11404
:103330008091AC0485FD02C01C8206C080FD02C0E5
:1033400081E001C082E08C8389EE94E061E070E06E
:103350000E94F10589EE94E060E070E041E050E009
:1033600020E031E00E94A605EC81F0E0EE0FFF1FA7
:10337000EC5FFD4F6081718189EE94E00E94BB0596
:10338000DF91CF9108950F931F93CF93DF93EC01BB
:103390004A815B8189EE94E060E070E00E94C11494
:1033A000E0E080914F04813009F0E1E0EC8300D04F
:1033B00000D000D0ADB7BEB7119600E514E0CDB790
:1033C000DEB71A8309838EE191E013969C938E9366
:1033D0001297F0E0EE0FFF1FE65FFD4F80819181B5
:1033E00015969C938E9314970E941C028DB79EB7DE
:1033F00006960FB6F8949EBF0FBE8DBF89EE94E07F
:1034000061E070E0A8010E94450EDF91CF911F910D
:103410000F910895DC0114968C9114978F5F149688
:103420008C93149715969C911597981718F41496E9
:103430001C9214971496EC91149715968C91E8179A
:1034400018F04DED50E00AC0F0E0EE0FFF1FE6521D
:10345000FE4F0190F081E02D4281538189EE94E08E
:1034600061E070E00E94C11408950F931F93FC0166
:10347000148209EE14E042815381C80160E070E0DB
:103480000E94C114E091DA01F091DB014281538185
:10349000C80161E070E00E94C1141F910F9108956E
:1034A000EF92FF920F931F938C019B017A0160E0D2
:1034B00070E0A9010E94C114C80161E070E0A70199
:1034C0000E94C1141F910F91FF90EF9008956F9289
:1034D0007F928F929F92AF92BF92CF92DF92EF92A4
:1034E000FF920F931F93CF93DF936C0180E49FE1D2
:1034F00090938B0080938A00F6011182108285E000
:1035000061E00E949C3489EE94E06FE571E048E64A
:1035100051E00E94501AF601848D85FD05C166E9CF
:1035200070E080E090E00E94B63381E00E94543465
:1035300010928B0010928A0022E030E0F601318375
:103540002083855893400CF4EFC083E00E94F4344C
:103550008C0184E00E94F4347C0188E061E00E94E8
:103560009C3489E061E00E949C346AEF70E080E066
:1035700090E00E94B63383E00E94F4343C0184E082
:103580000E94F4344C0188E060E00E949C3489E0A1
:1035900060E00E949C346AEF70E080E090E00E945E
:1035A000B63387E061E00E949C346AEF70E080E00F
:1035B00090E00E94B63383E00E94F4345C0184E022
:1035C0000E94F434EC0187E060E00E949C346AEFD2
:1035D00070E080E090E00E94B633000F111F0E0DE6
:1035E0001F1D0330110509F05EC09301220F331F28
:1035F000280D391DA501440F551F4C0F5D1F2330A9
:10360000310534F4213031058CF5232B31F0E1C044
:103610002330310509F0DDC011C04330510519F4E4
:10362000C2E0D0E002C0C0E0D0E0F601848D84FDAD
:103630003FC04330510509F0C9C03AC0F601848D3E
:1036400083FD06C04330510519F4C3E0D0E008C043
:103650004115510519F4C2E0D0E002C0C0E0D0E04D
:10366000415050404230510518F525C0F601848D77
:1036700084FD06C04330510549F0C4E0D0E008C0E5
:103680004330510519F0C0E0D0E002C0C1E0D0E005
:103690002130310521F44230510551F491C04130BF
:1036A000510531F490C0F601848D84FF8FC091C024
:1036B000C130D10559F489EE94E062E771E04EE73C
:1036C00051E00E94501AC1E0D0E00BC0C230D105D9
:1036D00041F489EE94E062E771E04CE851E00E9429
:1036E000501ACE010397029728F489EE94E061E026
:1036F0000E94FE0DC330D10529F489EE94E06AEAF8
:1037000071E007C0C430D10541F489EE94E06AE964
:1037100071E04BEB51E00E94501A64EF71E080E0E1
:1037200090E00E94B63302C0C0E0D0E0F601848D84
:10373000958D91FD1DC0C60102960E94120EF601E4
:1037400083818823A9F489EE94E061E00E94FE0D54
:1037500089EE94E06EE670E04BEB51E00E94501A67
:1037600064EF71E080E090E00E94B633C5E0D0E005
:10377000CE010397039738F48DE060E00E949C34FB
:1037800085E061E002C085E060E00E949C3480E456
:103790009FE190938B0080938A00F6011182108242
:1037A0008C2FDF91CF911F910F91FF90EF90DF90C1
:1037B000CF90BF90AF909F908F907F906F90089523
:1037C000C2E0D0E075CFC2E0D0E080CFC4E0D0E06E
:1037D0007DCFC0E0D0E07ACF89EE94E061E070E088
:1037E0004AEA52E00E94C1142EE088E190E00FB650
:1037F000F894A895809360000FBE20936000089510
:103800000F931F938C0189EE94E060E070E041E03B
:1038100050E020E031E00E94A605D8011496EC911A
:10382000F0E0EE0FFF1FEB5DFD4F6081718189EECF
:1038300094E00E94BB0564EF71E080E090E00E949C
:10384000B633F8018481882319F40E94EC1BFFCF62
:1038500080E090E01F910F9108950F931F93CF93F5
:10386000DF93EC018985882389F08E01025F1F4F69
:103870004F8DC80150E00E94CE018F8DFE01E80FF0
:10388000F11D1586CE01B8010E94BB36DF91CF91A4
:103890001F910F9108956F927F928F929F92AF9296
:1038A000BF92CF92DF92EF92FF920F931F93DF931D
:1038B000CF93CDB7DEB72C970FB6F894DEBF0FBE0F
:1038C000CDBF3C01162FE090B9048091AC0480FD7F
:1038D00003C0FF24F39402C002E0F02E8091BA04EA
:1038E000E81609F4A8C32DB73EB7285030400FB6EC
:1038F000F8943EBF0FBE2DBFEDB7FEB7319680E501
:1039000094E0ADB7BEB712969C938E9311978CEF4F
:1039100091E093838283F48215828091C004868330
:1039200017820E941C02EDB7FEB738960FB6F894C6
:10393000FEBF0FBEEDBFF5E0EF1609F4C6C0FE15E1
:10394000A0F022E0E21609F459C02E1528F031E06B
:10395000E31609F048C121C083E0E81609F480C0ED
:1039600094E0E91609F03FC19EC0A8E0EA1609F408
:10397000E2C0AE1548F0B6E0EB1609F4B8C0E7E0D7
:10398000EE1609F030C1C5C0FEEFEF1609F403C111
:103990002FEFE21609F027C1E2C08DE061E00E943E
:1039A0009C3485E060E00E949C34C30162E00E9488
:1039B000FE0DD30119968C91882319F0C3010E9442
:1039C000C731C30160E040E00E9415318FE095E00F
:1039D0000E94D604C30161E672E00E942D1CC3015F
:1039E0006AE070E040E050E020E534E00E94A60587
:1039F000C30161E070E048E352E02FC08DE061E078
:103A00000E949C3485E061E00E949C34C30163E025
:103A10000E94FE0DF3018185882319F0C3010E94E5
:103A2000C731C30160E040E00E9415318FE095E0AE
:103A30000E94D604C30161E672E00E942D1CC301FE
:103A40006AE070E040E050E020E534E00E94A60526
:103A5000C30161E070E04BE252E00E94C114CBC0B0
:103A60008DE060E00E949C3485E060E00E949C3420
:103A7000C30166E00E94FE0DD30119968C91882344
:103A800019F0C3010E94C731C30160E040E00E9409
:103A900015318FE095E00E94D604C30167E672E01D
:103AA0000E942D1CA8C08DE060E00E949C3485E03F
:103AB00061E00E949C34C30161E00E94FE0DC301DD
:103AC00067EC71E042ED51E047C08DE060E00E949C
:103AD0009C3485E061E00E949C34C30161E00E9457
:103AE000FE0DC30167EC71E040EE51E035C08DE0A2
:103AF00060E00E949C3485E061E00E949C34C30138
:103B000061E00E94FE0DC30167EC71E041EF51E0FE
:103B100023C08DE060E00E949C3485E061E00E945B
:103B20009C34C30161E00E94FE0DC30167EC71E0AB
:103B30004CEF51E011C08DE060E00E949C3485E0C4
:103B400061E00E949C34C30161E00E94FE0DC3014C
:103B500067EC71E046E052E00E94501A4CC08DE0E4
:103B600060E00E949C3485E061E00E949C34C301C7
:103B700065E00E94FE0DF3018185882319F0C301E1
:103B80000E94C731C30160E040E00E941531C301CB
:103B900062E172E01CC08DE061E00E949C3485E02F
:103BA00061E00E949C34C30165E00E94FE0DD301D8
:103BB00019968C91882319F0C3010E94C731C30163
:103BC00060E040E00E941531C30162E272E00E94B1
:103BD0002D1CC3016AE070E040E050E020E534E0D5
:103BE0000E94A60508C08DE060E00E949C3485E03C
:103BF00061E00E949C34112359F4B3E0EB1621F0EC
:103C00008091AE0484FF72C0F301858587FF6EC08A
:103C1000D3011D968C911D978F771D968C93809064
:103C2000E1049090E204A090E304B090E404B8EEC4
:103C30008B16B3E09B06B0E0AB06B0E0BB0608F421
:103C400046C0C501B40128EE33E040E050E00E94D8
:103C5000FD388901C501B40128EE33E040E050E0B1
:103C60000E94FD386E5C7F4F8F4F9F4F24E630E0FF
:103C700040E050E00E94FD382A30310524F00F5F0B
:103C80001F4F20E030E0EDB7FEB738970FB6F8943D
:103C9000FEBF0FBEEDBF319680E594E0ADB7BEB775
:103CA00012969C938E93119782E291E09383828384
:103CB00015830483378326830E941C02EDB7FEB769
:103CC00038960FB6F894FEBF0FBEEDBF06C080E574
:103CD00094E06AE271E00E94EA01C3016AE070E0E8
:103CE00040E050E020E534E00E94A6050E94FB2B56
:103CF0002F83388749875A876B877C87DE01119627
:103D0000FE01379686E001900D928150E1F7F3E0D5
:103D1000EF1609F05BC08090D1049090D204A0907F
:103D2000D304B090D4048091D5049091D604A0918E
:103D3000D704B091D80488169906AA06BB0609F4E0
:103D400070C1C501B4010E945E2F6C01C501B401B0
:103D50000E94582F8C01C501B4010E94522F2DB72B
:103D60003EB72E5030400FB6F8943EBF0FBE2DBF69
:103D7000EDB7FEB73196B0E5EB2EB4E0FB2EADB754
:103D8000BEB71296FC92EE92119721E331E0338395
:103D90002283D582C48217830683918780878C8192
:103DA000828713868D81848715860E941C02EDB759
:103DB000FEB73E960FB6F894FEBF0FBEEDBFC3012F
:103DC00061E070E0A7010E94450E2BC1FEEFEF16E7
:103DD00009F027C180914D0490914E04892B09F080
:103DE00020C1CE01019669E075E046E050E00E94F6
:103DF000DD01009709F415C1E62CC72CC30160E072
:103E000040E00E9415318FE095E00E94D604809139
:103E10000F05882319F462E272E002C06AE172E0E1
:103E2000C3010E942D1C2DB73EB72A5030400FB65B
:103E3000F8943EBF0FBE2DBFEDB7FEB7319600E53B
:103E400014E0ADB7BEB712961C930E9311978CE495
:103E500091E0938382838C81848315828D81868314
:103E600017828E81808711860E941C02EDB7FEB7F3
:103E70003A960FB6F894FEBF0FBEEDBFC30160E0E7
:103E800070E041E050E098010E94A60580910F0586
:103E9000882309F498C08E2D9C2D69E040E00E9493
:103EA0001531D30119968C91882329F08E2D9C2DE4
:103EB00062E00E94CD30F3018185882329F08E2DA8
:103EC0009C2D60E00E94CD302DB73EB72850304089
:103ED0000FB6F8943EBF0FBE2DBFEDB7FEB73196BB
:103EE00000E514E0ADB7BEB712961C930E93119780
:103EF0008091F0019091F10193838283809110056C
:103F00008483158280911105868317820E941C028A
:103F1000EDB7FEB738960FB6F894FEBF0FBEEDBFF3
:103F2000C3016BE070E040E050E098010E94A605FC
:103F30008E2D9C2D69E041E00E941531D301199628
:103F40008C91882329F08E2D9C2D61E00E94CD302C
:103F5000F3018185882329F08E2D9C2D60E00E943D
:103F6000CD302DB73EB7285030400FB6F8943EBF45
:103F70000FBE2DBFEDB7FEB7319600E514E0ADB72B
:103F8000BEB712961C930E9311978091F0019091F9
:103F9000F10193838283809112058483158280913D
:103FA0001305868317820E941C02EDB7FEB7389670
:103FB0000FB6F894FEBF0FBEEDBFC3016BE070E01B
:103FC00041E050E02BC02DB73EB7285030400FB62F
:103FD000F8943EBF0FBE2DBFEDB7FEB73196ADB71B
:103FE000BEB712961C930E9311978CEF91E09383BA
:103FF0008283F48215828091C004868317820E9496
:104000001C02EDB7FEB738960FB6F894FEBF0FBE90
:10401000EDBFC3016AE070E040E050E098010E940B
:10402000A605A9E0B5E0FE01319686E001900D926B
:104030008150E1F704C0112309F055CCDECD2C9658
:104040000FB6F894DEBF0FBECDBFCF91DF911F91A9
:104050000F91FF90EF90DF90CF90BF90AF909F9027
:104060008F907F906F900895FC018585613011F4E9
:104070008E7F01C081608587CF01642F0E944B1C19
:104080000895FF920F931F93CF93DF93EC01F42ECB
:104090008C8D80FD02C080E101C080E5663030F08B
:1040A000861748F068AB00E010E008C086E088ABF7
:1040B00001E010E003C088AB02E010E08C8D9D8D24
:1040C00068A9F999FECF1FBA8170907092BD81BD29
:1040D00060BD0FB6F894FA9AF99A0FBE888199815B
:1040E000019779F5262F30E0C90106978E9760F485
:1040F000B901882777FD8095982F25E830E040E0CA
:1041000050E00E94AB3815C0C901C4974D97C8F460
:10411000C901AA2797FDA095BA2F80569F4FAF4F90
:10412000BF4F25E0880F991FAA1FBB1F2A95D1F703
:10413000BC0170938B0060938A0081E090E09983CA
:104140008883FF2029F089EE94E061E00E944B1CF7
:10415000C801DF91CF911F910F91FF900895CF93E8
:10416000DF93EC0189EE94E060E070E041E050E024
:1041700020E031E00E94A6058C81EF81F885E80FF0
:10418000F11D60818091F204882339F089EE94E07A
:1041900070E04AE050E00E94B33789EE94E062E0BC
:1041A00071E00E94BB0564EF71E080E090E00E9446
:1041B000B6332091AC043091AD048C81EF81F88549
:1041C000E80FF11D6081F999FECF1FBA21703070A0
:1041D00032BD21BD60BD0FB6F894FA9AF99A0FBEB0
:1041E00080E994E040E00E94412086ED93E0DF9179
:1041F000CF9108951F93CF93DF93EC0189A58E3F54
:10420000D1F080E49FE190938B0080938A00198223
:1042100018821EEF19A789EE94E060E00E944B1C03
:104220001AA70E94A8336854744F8F4F9F4F6DABED
:104230007EAB8FAB98AFDF91CF911F9108950F9315
:104240001F93DF93CF9300D000D000D0CDB7DEB75F
:104250008C01FC018781813009F081C00E94FB2B19
:1042600029833A834B835C836D837E83A9E0B5E029
:10427000FE01319686E001900D928150E1F7809128
:104280000C05F801858360910D0566838081882384
:1042900009F463C02181222351F48281882339F4F7
:1042A0008381882321F48481882309F456C0F8018E
:1042B0003381231729F492818481981709F44DC022
:1042C0009CE3299FA0011124F8018281480F511D10
:1042D000399F900111248481280F311D8581899F88
:1042E000C0011124860F911D2417350750F484173F
:1042F000950718F02817390750F04817590708F1A3
:1043000003C084179507E8F082179307E8F48091BB
:10431000B9048E3F11F580914D0490914E04892B84
:10432000E1F48FEF8093BA041092B90480E49FE126
:1043300090938B0080938A001092910410929004C5
:104340000CC08217930748F02F5F3F4F281739079B
:1043500020F080E994E00E94FA20F8011782269666
:104360000FB6F894DEBF0FBECDBFCF91DF911F9186
:104370000F9108950F931F93CF93DF93EC01062FB6
:104380000E943F088881813079F489819A81AB81CC
:10439000BC810097A105B10509F0AAC01882A985C2
:1043A000BA85109729F40DC0823009F0A1C023C04E
:1043B000ED91FC9111970280F381E02DCD010995DB
:1043C00097C0002309F094C08091B9048F3F19F081
:1043D0008E3F09F089C08FEF8093BA041092B90420
:1043E00080E49FE190938B0080938A001092910467
:1043F000109290047DC089819A81AB81BC81009725
:10440000A105B10509F474C08D839E83AF83B8877D
:1044100019821A821B821C82A985BA85109709F419
:104420004CC0ED91FC9111970480F581E02DCD01F8
:104430000995DC019A8789870097E1F083E0A63D22
:10444000B80719F414960C911497ED91FC911197FB
:104450000190F081E02DCD010995E985FA8583E091
:10446000E63DF80709F044C001500483CF010E94E3
:104470000A1A3EC080910F05882321F081E08093C5
:1044800016050FC08FEF8093BA041092B90480E430
:104490009FE190938B0080938A0010929104109278
:1044A000900489EE94E06B8541E00E94342089EE0F
:1044B00094E061E00E944B1C1BC080E994E00E94E4
:1044C000FA208091F604809581708B8789EE94E0C4
:1044D00060E041E00E94342006ED13E0C8010E9434
:1044E000351A1A87098704C080E994E00E94FA20EF
:1044F000DF91CF911F910F91089580E994E00E9480
:104500005F0A89EE94E060E00E944B1C84E494E032
:1045100060E00E94BA218FE095E00E941F2108957B
:10452000EF92FF920F931F938C01FC0115868DE093
:1045300061E00E94763485E061E00E9476348DE08F
:1045400060E00E949C3485E060E00E949C3481E041
:10455000F8018487C80160E142E022E00E94D43182
:10456000C80167E00E946631C80167E00E94FE0D45
:1045700030E5E32E34E0F32EC70169E472E048E051
:1045800050E00E94C501C80160E0A7010E94DA3036
:10459000C70161E572E048E050E00E94C501C80132
:1045A00061E0A7010E94DA30C70169E572E048E0E6
:1045B00050E00E94C501C80162E0A7010E94DA3004
:1045C000C8010E94C731C80160E070E049E952E0CB
:1045D0000E94C114C80160E070E041E050E020E9B1
:1045E00032E00E949714C80168E670E00E942D1C1A
:1045F000C8016CE872E00E942D1C60E273E080E06C
:1046000090E00E94B6331F910F91FF90EF900895B4
:104610000F931F938C0160E241E020E00E94043080
:1046200081E1F801878F1F910F9108958FE993E041
:104630009093D7038093D6038CE790E09093D903AF
:104640008093D80320E0322F3F5FE22FF0E0EE0F9F
:10465000FF1FE652FE4F80819181892B11F0232F9D
:10466000F2CF2093DB038BE893E09093DD038093FC
:10467000DC0382E890E09093DF038093DE0381E81F
:1046800093E09093E2038093E10380E990E09093BC
:10469000E4038093E30387E793E09093EB03809335
:1046A000EA038CE990E09093ED038093EC0385E9B5
:1046B00093E09093F0038093EF0389EB90E0909365
:1046C000F2038093F1038DE693E09093F5038093DA
:1046D000F4038EE690E09093F7038093F60383E66D
:1046E00093E09093FA038093F90388EA90E0909323
:1046F000FC038093FB0389E593E09093FF03809391
:10470000FE0388EC90E090930104809300048FE412
:1047100093E0909304048093030485ED90E09093DC
:1047200006048093050485E493E090930904809344
:10473000080422EE30E030930B0420930A048BE34C
:1047400093E090930E0480930D0481E393E09093A3
:10475000130480931204309315042093140487E209
:1047600093E090931804809317048DE193E0909365
:104770001D0480931C0483E193E0909322048093B2
:10478000210489E093E090932704809326042BE191
:1047900031E030932904209328048FEF92E0909326
:1047A0002C0480932B0430932E0420932D0485EF4A
:1047B00092E090933104809330048BEE92E09093DA
:1047C00036048093350481EE92E090933B0480930D
:1047D0003A0487ED92E09093400480933F04109256
:1047E000440410924504109246041092470410921B
:1047F00048041092490410924A0410924B041092FB
:104800004C0410924E0410924D0489EE94E00E94E4
:10481000082389E095E040E050E060E070E00E940D
:10482000542B81E08093160508956091AC0470913B
:10483000AD0482E090E045EC54E00E940702089548
:104840000F931F93CF93DF93EC01162F042F8C8DC2
:104850009D8D623021F481609D8F8C8F04C08E7F8E
:104860009D8F8C8F11E00E941524F999FECF80E076
:1048700090E0113011F081E090E092BD81BDF89A96
:1048800060B5862F81508E3F20F0113009F56CE025
:1048900006C0663010F416E00BC0113029F4162F54
:1048A000613130F010E104C0162F613508F010E5D9
:1048B000CE010E94080ECE01612F40E00E944120EF
:1048C000002341F089EE94E061E00E944B1C02C09D
:1048D00068E1E3CFDF91CF911F910F910895AF92DF
:1048E000BF92CF92DF92EF92FF920F931F93CF93DD
:1048F000DF93EC0182E090E06DEB74E00E94F10147
:104900008C012FEF8F3F920741F090FF06C089EE98
:1049100094E060E041E00E94342088E061E00E9481
:10492000763487E061E00E94763489E061E00E949D
:10493000763483E060E00E94763484E060E00E9498
:10494000763483E061E00E949C3484E061E00E9460
:104950009C34CE010E94ED091092800020E43FE1DA
:10496000309387002093860081E180938100229A12
:104970008091800080628093800030938B00209330
:104980008A00198218828FEF0F3F180719F41D8EC5
:104990001C8E07C01D8F0C8F00FD03C0DD24D39437
:1049A00002C0F2E0DF2E8BE090E06DEB74E00E943D
:1049B000F1018C01E5E5EE2EF12CEC0EFD1EF70168
:1049C0009183808389E090E06DEB74E00E94F101B7
:1049D000C95ADF4F99838883C755D0400F5F1F4F57
:1049E00019F4F70111821082FE01E95AFF4F80810C
:1049F00091818F5F9F4F21F48CED90E091838083B4
:104A0000C35BDF4F19921992199219921882198279
:104A10001A821B82C155D0401E8E19861A861B86AB
:104A20001C861D861A8A1B8A1C8A1D8A1E8A1B8E5A
:104A300019A61AA677E0A72E68E0B62E59E0C52E73
:104A4000CE010E94671A382F9C8D95FD04C08150BD
:104A5000823008F4D32E93FD05C0333019F4A9A693
:104A600021E001C020E08C8D84FD04C0343011F4BD
:104A7000B9A621E08C8D9D8D91FD04C0353011F4D7
:104A8000C9A602C02223D9F00E94A8337B018C0161
:104A900005C084E494E061E00E94BA210E94A8333A
:104AA0006E197F09800B910B605A7B4B8D409040B3
:104AB00080F32FC0873021F2883009F4C1CFCE01B6
:104AC0006D2D40E00E942024CE0102960E94DC0958
:104AD0008C8D86FD0CC08FEF8AA719A680E49FE11C
:104AE00090938B0080938A001982188203C0CE01B4
:104AF0000E94FA208DE060E00E949C34DF91CF910B
:104B00001F910F91FF90EF90DF90CF90BF90AF90EB
:104B1000089589A5893071F693CF88E695E00E94C3
:104B200026290E94F92B8FE095E00E94F70489EE78
:104B300094E00E94902280E994E00E946F240895FE
:104B400088E10FB6F89480936000109260000FBE69
:104B500080E996E040E052EC61E070E00E94783538
:104B600084E494E00E94A20880E06CE17AE043E0F3
:104B700050E00E94E3320E948D2508951F93CF9349
:104B8000DF93EC01162F89EE94E00E9434208C8D87
:104B90009D8D112311F4916001C09E7F9D8F8C8F9C
:104BA0000E94152480E996E06BE571E00E94BB3617
:104BB0006C8D7D8D80E996E040E150E00E946C377D
:104BC00080E090E0DF91CF911F910895CF93DF9324
:104BD000EC0189EE94E060E070E041E050E020E01C
:104BE00031E00E94A605EC81F0E0EE0FFF1FE65FCA
:104BF000FD4F6081718189EE94E00E94BB0560E009
:104C00008C81882309F461E080E994E040E00E940F
:104C1000BE2590E08C81882309F491E090934F04A5
:104C200089EE94E060E040E00E94342064EF71E09F
:104C300080E090E00E94B63386ED93E0DF91CF9163
:104C40000895FC01848D958D662311F08F7B01C042
:104C50008064958F848F0E9415240895FC01848DB3
:104C6000958D662311F08F7D01C08062958F848FB2
:104C70000E9415240895CF93DF93EC016C81662385
:104C800021F480E994E061E008C080E994E040E02C
:104C90000E94202480E994E060E00E942E2689EEA4
:104CA00094E060E070E041E050E020E031E00E94FC
:104CB000A605EC81F0E0EE0FFF1FEC5FFD4F608179
:104CC000718189EE94E00E94BB050E94152464EF77
:104CD00071E080E090E00E94B63386ED93E0DF91D2
:104CE000CF910895FC01848D958D662311F0877F07
:104CF00009C0128A138A148A158A16861786108AA2
:104D0000118A8860958F848F0E94152408950F93CF
:104D10001F938C0189EE94E060E070E041E050E088
:104D200020E031E00E94A605D8011496EC91F0E055
:104D3000EE0FFF1FEB5DFD4F6081718189EE94E006
:104D40000E94BB0560E0F8018481882309F461E0DA
:104D500080E994E00E94722664EF71E080E090E0C8
:104D60000E94B63386ED93E01F910F910895FC01E8
:104D7000848D958D662311F08B7F01C08460958FA3
:104D8000848F0E94152408950F931F938C0189EE40
:104D900094E060E070E041E050E020E031E00E940B
:104DA000A605D8011496EC91F0E0EE0FFF1FEB5D25
:104DB000FD4F6081718189EE94E00E94BB0560E047
:104DC000F8018481882309F461E080E994E00E947D
:104DD000B72664EF71E080E090E00E94B63386ED84
:104DE00093E01F910F910895FC01848D958D6623AA
:104DF00011F09D7F01C09260958F848F0E941524D1
:104E000008950F931F938C0189EE94E060E070E0A9
:104E100041E050E020E031E00E94A605D801149660
:104E2000EC91F0E0EE0FFF1FEB5DFD4F60817181B3
:104E300089EE94E00E94BB0560E0F801848188233C
:104E400009F461E080E994E00E94F42664EF71E0E7
:104E500080E090E00E94B63386ED93E01F910F91C1
:104E60000895FC01848D958D662311F08D7F01C01E
:104E70008260958F848F0E94152408950F931F934D
:104E80008C0189EE94E060E070E041E050E020E0C9
:104E900031E00E94A605D8011496EC91F0E0EE0FE7
:104EA000FF1FEB5DFD4F6081718189EE94E00E94F0
:104EB000BB0560E0F8018481882309F461E080E9A2
:104EC00094E00E94312764EF71E080E090E00E945E
:104ED000B63386ED93E01F910F9108958091AC0455
:104EE0009091AD042091C004F999FECF1FBA817052
:104EF000907092BD81BD20BD0FB6F894FA9AF99AD0
:104F00000FBE0E9415240895FC011082F999FECF6E
:104F10001FBA84E090E092BD81BD10BC0FB6F8943A
:104F2000FA9AF99A0FBE80E994E061E00E94212686
:104F30000E946E2789EE94E061E00E944B1C089568
:104F40001F93CF93DF93EC0181E08883F999FECF23
:104F50001FBA84E090E092BD81BD11E010BD0FB694
:104F6000F894FA9AF99A0FBE80E994E060E00E9402
:104F700021260E946E271F83CE010E941F2189EEE9
:104F800094E061E00E944B1CDF91CF911F91089546
:104F90000F931F938C0189EE94E060E070E041E094
:104FA00050E020E031E00E94A605D8011496EC9173
:104FB000F0E0EE0FFF1FEB5DFD4F6081718189EE28
:104FC00094E00E94BB0564EF71E080E090E00E94F5
:104FD000B633F8018481882329F48FE095E00E949C
:104FE000A02704C08FE095E00E94842786ED93E01F
:104FF0001F910F9108950F931F93DC0114962C912C
:1050000020931C05EDB7FEB738970FB6F894FEBF96
:105010000FBEEDBF319600E514E0ADB7BEB71296F6
:105020001C930E9311978091CC029091CD029383A3
:10503000828380911B0584831582268317820E94B8
:105040001C02EDB7FEB738960FB6F894FEBF0FBE40
:10505000EDBF89EE94E061E070E0A8010E94450E8A
:1050600020911B0530911C052093120530931305E8
:10507000F999FECF1FBA87E090E092BD81BD20BDB7
:105080000FB6F894FA9AF99A0FBEF999FECF1FBAA3
:1050900088E090E092BD81BD30BD0FB6F894FA9AD9
:1050A000F99A0FBE0E946E2764EF71E080E090E0F5
:1050B0000E94B63386ED93E01F910F9108950F93F0
:1050C0001F93DC0114962C9120931C05EDB7FEB7BD
:1050D00038970FB6F894FEBF0FBEEDBF319600E5CE
:1050E00014E0ADB7BEB712961C930E931197809142
:1050F000CC029091CD029383828380911B0584839F
:105100001582268317820E941C02EDB7FEB73896DF
:105110000FB6F894FEBF0FBEEDBF89EE94E061E0DC
:1051200070E0A8010E94450E20911B0530911C05DE
:105130002093100530931105F999FECF1FBA85E031
:1051400090E092BD81BD20BD0FB6F894FA9AF99A0D
:105150000FBEF999FECF1FBA86E090E092BD81BDE7
:1051600030BD0FB6F894FA9AF99A0FBE0E946E27D6
:1051700064EF71E080E090E00E94B63386ED93E04A
:105180001F910F91089581E0809367056093440516
:1051900010926505109266050895909142058091E0
:1051A0004305981710F080E00895E92FF0E0EE5DD8
:1051B000FA4F80819F5F9093420508950895DF9391
:1051C000CF930F92CDB7DEB76983809167058823AF
:1051D00089F080916605803290F480916505E82F12
:1051E000F0E0EB5BFA4F60838F5F809365058093FF
:1051F000660505C0CE01019661E00E94BE290F90B0
:10520000CF91DF9108950E94DF2808958091440591
:1052100065E475E04091660521E00E947B291092CB
:10522000650510926605109267050895413208F0F1
:1052300040E2862F62E275E00E9444291092420506
:105240008093430508950E941629089510924205FF
:105250001092430510926505109266050E9431294F
:10526000089510926905449A459AE9EBF0E080812F
:105270008E7F808380818D7F808388E48093B800D7
:1052800085E48093BC000895982F413210F040E0EF
:1052900030C0809169058823E1F781E0809369053A
:1052A0008FEF8093D40510928F0541504093900565
:1052B0004F5F990F916090936A0585EE8093BC00D3
:1052C000809169058130E1F380918F05841710F496
:1052D00040918F0520E030E00AC0FB01E20FF31F90
:1052E000D901A159BA4F8C9180832F5F3F4F24176A
:1052F000A0F3842F08951F93582F122F413210F0DE
:1053000081E03AC0809169058823E1F782E08093CB
:1053100069058FEF8093D40510928F054093900517
:10532000AFE6B5E0FB0102C081918D938E2F861B05
:105330008417D0F3852F90E0880F991F80936A051A
:1053400085EE8093BC00112321F0809169058230A5
:10535000E1F38091D4058F3F11F480E00DC080917E
:10536000D405803211F482E007C08091D4058033E7
:1053700011F084E001C083E01F910895482F61324D
:1053800010F081E0089580916905843011F082E089
:1053900008956093B205A1E9B5E0842F9C01F9015D
:1053A00002C081918D938E2F841B8617D0F380E0ED
:1053B00008951F920F920FB60F9211242F933F93CF
:1053C0004F935F936F937F938F939F93AF93BF930D
:1053D000EF93FF938091B90090E0887F90708036C2
:1053E000910509F4DCC081369105CCF58832910530
:1053F00009F47BC089329105B4F48031910509F438
:105400006FC0813191053CF4009709F431C10897D0
:1054100009F039C165C08831910509F466C08097EB
:1054200009F031C17DC08034910509F49FC08134F9
:10543000910544F48033910509F47DC0C89709F0C3
:1054400022C184C08035910509F484C08835910556
:1054500009F491C08834910509F015C198C08839C4
:10546000910509F4FDC089399105ECF4883791055F
:1054700009F495C0893791054CF48836910509F4F3
:105480008EC08037910509F0FEC089C0883891052B
:1054900009F4E6C08039910509F487C08038910588
:1054A00009F0F1C082C0803B910509F4B0C0813B96
:1054B00091054CF4803A910509F489C0883A910528
:1054C00009F0E1C0A4C0803C910509F4CDC0883C3E
:1054D000910509F4C9C0883B910509F0D4C0ACC05E
:1054E00080916A058093BB00B9C090918F0580912F
:1054F0009005981768F490918F05E92FF0E0E15935
:10550000FA4F80818093BB009F5F90938F05A6C068
:1055100085ED8093BC008091BC0084FDFCCFB1C0C0
:1055200080E28093D40585ED8093BC008091BC001F
:1055300084FDFCCFA6C080E38093D40585ED8093E5
:10554000BC008091BC0084FDFCCF9BC088E38093AD
:10555000D4058AC080918F059091BB00E82FF0E0C0
:10556000E159FA4F90838F5F80938F0590918F055B
:105570008091900571C080918F059091BB00E82FBC
:10558000F0E0E159FA4F90838F5F80938F0585EDAE
:105590008093BC008091BC0084FDFCCF72C083E08E
:1055A000809369051092D30559C08091D30580324C
:1055B00008F056C08091D3059091BB00E82FF0E031
:1055C000ED54FA4F90838F5F8093D30547C080914D
:1055D000D305803230F4E091D305F0E0ED54FA4F7A
:1055E000108285ED8093BC008091BC0084FDFCCFCF
:1055F000109269056091D305E0916D05F0916E05FB
:1056000083EB95E070E009951092D3052DC084E0FE
:10561000809369051092B1051092B205E0916B0577
:10562000F0916C0509958091B205882329F481E0F9
:105630008093B205109291059091B105E92FF0E0A9
:10564000EF56FA4F80818093BB009F5F9093B10526
:105650009091B1058091B205981710F485EC01C0C6
:1056600085E88093BC000FC085EC8093BC0009C026
:105670001092D40585ED8093BC008091BC0084FD20
:10568000FCCF10926905FF91EF91BF91AF919F916F
:105690008F917F916F915F914F913F912F910F90DB
:1056A0000FBE0F901F901895EF92FF920F931F93CC
:1056B000CF93DF93EC017A018B0180E89CEBA2E9A8
:1056C000B7ECE80EF91E0A1F1B1FC801B7012CE337
:1056D00030E040E050E00E94FD386D83C801B70122
:1056E0002CE330E040E050E00E94FD38122F032F01
:1056F000F42EE52E622F732F842F952F2CE330E0AC
:1057000040E050E00E94FD386C83612F702F8F2D98
:105710009E2D2CE330E040E050E00E94FD38122F37
:10572000032FF42EE52E622F732F842F952F28E15F
:1057300030E040E050E00E94FD386B83612F702F15
:105740008F2D9E2D28E130E040E050E00E94FD3892
:1057500060E0A3E9BEEF70E0862F90E08370907068
:10576000892B09F471E0E62FEF5F472F50E0CA0163
:1057700083599E4F2817390738F0CD01841B950BAC
:10578000280F391F6E2FE7CF688341E0E42FF0E048
:10579000E954FD4F8491772319F0423009F48F5F6B
:1057A00090E0542F5F5F2817390720F0281B390B32
:1057B000452FECCF4983822F8F5F8A83DF91CF9172
:1057C0001F910F91FF90EF900895CF92EF920F935A
:1057D000FC0187E0603D780710F0605D77406083F2
:1057E000418322830383E482C5820F91EF90CF909F
:1057F000089581E00895BF92CF92DF92EF92FF92D9
:105800000F931F93DF93CF9300D000D000D0CDB77C
:10581000DEB708E615E0C80168E670E00E94C3281C
:105820006091D5057091D605C8010E940329C80171
:105830000E940629C80168E670E047E050E00E9437
:105840002329C8010E94CD289FE7B92EB822C8019C
:105850000E94CD28C82EC8010E94CD28D82EC8018C
:105860000E94CD28C8010E94CD28E82EC8010E94C0
:10587000CD28F82EC8010E94CD28282F30E0B4E0B2
:1058800035952795BA95E1F74AEF5FEFB901649F27
:105890009001659F300D749F300D1124820F90E0B0
:1058A0002B2D30E0A4E035952795AA95E1F7B901B5
:1058B000649F9001659F300D749F300D1124B20ECE
:1058C0002C2D30E0F4E035952795FA95E1F7B901F4
:1058D000649F9001659F300D749F300D1124C20E9E
:1058E0002D2D30E0E4E035952795EA95E1F7B901F3
:1058F000649F9001659F300D749F300D1124D20E6E
:105900002E2D30E074E0359527957A95E1F7B901B1
:10591000649F9001659F300D749F300D1124E20E3D
:105920002F2D30E064E0359527956A95E1F7B901B0
:10593000649F9001659F300D749F300D1124F20E0D
:10594000282F3F2D4E2D5D2D6C2D7B2D80E0269632
:105950000FB6F894DEBF0FBECDBFCF91DF911F9180
:105960000F91FF90EF90DF90CF90BF900895DF925E
:10597000EF92FF920F931F937C0108E615E0C80198
:1059800068E670E00E94C3286091D5057091D60545
:10599000C8010E940329F7012581822F6AE00E9435
:1059A000CA3846E0D42E8D9DC0011124280FC801AD
:1059B000622F0E94DF28F7012481822F6AE00E9473
:1059C000CA388D9DC0011124280FC801622F0E9482
:1059D000DF28F7012381822F6AE00E94CA388D9D5B
:1059E000C0011124280FC801622F0E94DF28C801BE
:1059F00060E00E94DF28F7012281822F6AE00E9486
:105A0000CA388D9DC0011124280FC801622F0E9441
:105A1000DF28F7012181822F6AE00E94CA388D9D1C
:105A2000C0011124280FC801622F0E94DF28F7014E
:105A30002081822F6AE00E94CA388D9DC001112406
:105A4000280FC801622F0E94DF286091D505709150
:105A5000D605C8010E940329C8010E9406291F918A
:105A60000F91FF90EF90DF9008950F931F936115B2
:105A700071058105910569F481E090E0A0E0B0E056
:105A80008093D7059093D805A093D905B093DA05F4
:105A900008C06093D7057093D8058093D90590937B
:105AA000DA051093DC050093DB05809170008E7F92
:105AB000809370008091B0008C7F8093B0008091C3
:105AC000B100877F8093B1008091B6008F7D809375
:105AD000B600809170008D7F809370008091B1003E
