:100000000C9421010C94A71A0C94D41A0C9452014C
:100010000C9452010C9452010C9452010C94520114
:100020000C9452010C94CB150C9452010C94520177
:100030000C9452010C9452010C9452010C945201F4
:100040000C94011B0C9452010C94E81C0C9452016A
:100050000C9452010C9452010C9452010C945201D4
:100060000C9405140C945201322E302E300053653E
:100070007475700053657276696365204C657665AA
:100080006C004D61782043757272656E740044692E
:100090006F646520436865636B0056656E7420521B
:1000A0006571276420436865636B0047726F756EE6
:1000B0006420436865636B0052657365740045781E
:1000C000697400506F776572204F6E0053656C66DF
:1000D0002054657374004175746F204465746563C2
:1000E0007400537663204C6576656C3A204C310081
:1000F000537663204C6576656C3A204C32002D2D8A
:10010000537475636B2052656C61792D2D002D2D14
:1001100045617274682047726F756E642D2D0054AE
:10012000455354204641494C4544004556534520CB
:100130004552524F520056454E5420524551554952
:100140005245440044494F44452043484B204641D2
:10015000494C45440047464349204641554C5400CC
:100160004E4F2047524F554E4400535455434B2059
:1001700052454C41590053746F7070656400455688
:1001800020436F6E6E6563746564004556204E6F44
:100190007420436F6E6E65637465640052656164BC
:1001A00079004368617267696E67005265736574B0
:1001B000204E6F773F00526573657474696E672EC9
:1001C0002E2E002020200056657273696F6E20006D
:1001D0004F70656E2045565345202020202020205A
:1001E0000000000000240027002A00000000002575
:1001F0000028002B00000000002300260029000436
:1002000004040404040404020202020202030303BD
:1002100003030301020408102040800102040810B7
:100220002001020408102000000007000201000065
:1002300003040600000000000000000078120D1307
:10024000E41D11241FBECFEFD8E0DEBFCDBF14BE2A
:1002500088E10FB6F89480936000109260000FBEA2
:1002600012E0A0E0B1E0E2E1F0E402C005900D92FE
:10027000A431B107D9F714E0A4E1B2E001C01D92A6
:10028000A936B107E1F712E0C2E4D2E004C0229738
:10029000FE010E94CC1FCC33D107C9F70E941E1E5D
:1002A0000C9407200C940000FB01DC0105900D92DA
:1002B0000020E1F70895AEE0B0E0E1E6F1E00C9453
:1002C000DE1F0D891E8986E08C831A8309838FEFD8
:1002D0009FE79E838D839E01275E3F4FCE0101964F
:1002E0006F89788DA9010E947F012F813885020FC7
:1002F000131FF80110822E96E4E00C94FA1FABE075
:10030000B0E0E5E8F1E00C94D01F3C012B015A016C
:10031000FC0117821682838181FD03C06FEF7FEF9E
:10032000C6C19AE0892E1E010894211C311CF301DC
:100330002381F20123FD859123FF81912F018823E1
:1003400009F4B2C1853239F423FD859123FF8191EF
:100350002F01853229F490E0B3010E947203E7CFA8
:10036000982FFF24EE249924FFE1FF15D0F09B3253
:1003700069F09C3228F4903259F0933291F40EC017
:100380009D3249F0903369F441E024C052E0F52AEF
:1003900084E0F82A28C098E0F92A25C0E0E1FE2A86
:1003A00022C0F7FC29C0892F80538A3070F4F6FEF2
:1003B00005C0989C902C1124980E15C0E89CE02C48
:1003C0001124E80EF0E2FF2A0EC09E3229F4F6FC5A
:1003D0006BC140E4F42A07C09C3619F450E8F52AB2
:1003E00002C0983649F4F20123FD959123FF9191C3
:1003F0002F01992309F0B8CF892F8554833018F045
:100400008052833038F444E050E0A40EB51E5FE320
:1004100059830FC0933631F0933779F0933509F053
:1004200056C020C0F5018081898342E050E0A40ECF
:10043000B51E610101E010E012C0F501C080D1805D
:10044000F6FC03C06FEF7FEF02C0692D70E042E061
:1004500050E0A40EB51EC6010E9467038C015FE741
:10046000F52214C0F501C080D180F6FC03C06FEF07
:100470007FEF02C0692D70E042E050E0A40EB51E8F
:10048000C6010E945C038C0150E8F52AF3FE07C008
:100490001AC080E290E0B3010E947203EA948E2DAC
:1004A00090E008171907A8F30EC0F601F7FC859134
:1004B000F7FE81916F0190E0B3010E947203E11099
:1004C000EA94015010400115110579F7EAC09436FD
:1004D00011F0993669F5F7FE08C0F50120813181E8
:1004E0004281538184E090E00AC0F50180819181CE
:1004F0009C01442737FD4095542F82E090E0A80EE0
:10050000B91E9FE6F92257FF09C0509540953095D6
:1005100021953F4F4F4F5F4FE0E8FE2ACA01B901D6
:10052000A1012AE030E00E949E03D82ED21840C0DC
:10053000953729F41F2D1F7E2AE030E01DC01F2DA6
:10054000197F9F3661F0903720F4983509F0ACC0E0
:100550000FC0903739F0983709F0A6C004C028E0E2
:1005600030E00AC0106114FD146020E130E004C0E6
:1005700014FD166020E132E017FF08C0F50160812C
:1005800071818281938144E050E008C0F50180814F
:100590009181BC0180E090E042E050E0A40EB51EE5
:1005A000A1010E949E03D82ED2188FE7F82EF122C7
:1005B000F6FE0BC05EEFF522D91438F4F4FE07C046
:1005C000F2FC05C08FEEF82202C01D2D01C0192DCE
:1005D000F4FE0DC0FE01ED0DF11D8081803319F494
:1005E00099EEF92208C01F5FF2FE05C003C08F2DEF
:1005F000867809F01F5F0F2DF3FC14C0F0FE0FC0CA
:100600001E1510F09D2C0BC09D2C9E0C911A1E2DBA
:1006100006C080E290E0B3010E9472031F5F1E15C6
:10062000C0F304C01E1510F4E11A01C0EE2404FF4B
:100630000FC080E390E0B3010E94720302FF1DC06F
:1006400001FD03C088E790E00EC088E590E00BC094
:10065000802F867891F001FF02C08BE201C080E21A
:10066000F7FC8DE290E0B3010E94720306C080E3C4
:1006700090E0B3010E9472039A94D914C0F3DA9403
:10068000F101ED0DF11D808190E0B3010E94720334
:10069000DD20A9F706C080E290E0B3010E9472035A
:1006A000EA94EE20C1F743CEF30166817781CB0156
:1006B0002B96E2E10C94EC1FFC0105906150704018
:1006C0000110D8F7809590958E0F9F1F0895FC011B
:1006D0006150704001900110D8F7809590958E0F71
:1006E0009F1F08950F931F93CF93DF938C01EB010E
:1006F0008B8181FF1BC082FF0DC02E813F818C81C9
:100700009D812817390764F4E881F9810193F98301
:10071000E88306C0E885F985802F0995892B31F497
:100720008E819F8101969F838E8302C00FEF1FEF02
:10073000C801DF91CF911F910F910895FA01AA2767
:10074000283051F1203181F1E8946F936E7F6E5F14
:100750007F4F8F4F9F4FAF4FB1E03ED0B4E03CD0C2
:10076000670F781F891F9A1FA11D680F791F8A1FA5
:10077000911DA11D6A0F711D811D911DA11D20D00C
:1007800009F468943F912AE0269F11243019305DC6
:100790003193DEF6CF010895462F4770405D4193B7
:1007A000B3E00FD0C9F7F6CF462F4F70405D4A3304
:1007B00018F0495D31FD4052419302D0A9F7EACFCC
:1007C000B4E0A6959795879577956795BA95C9F7FB
:1007D00000976105710508959B01AC010A2E0694EE
:1007E0005795479537952795BA95C9F7620F731FA7
:1007F000841F951FA01D08950F931F93CF93DF9320
:10080000EC01663008F44DC08A8D80FD03C020E104
:1008100030E002C020E530E0862F90E0281739074D
:100820000CF43FC06DA700E010E04423A1F18881E3
:100830009981019781F58DA5282F30E0C901069790
:100840008E9760F4B901882777FD8095982F25E869
:1008500030E040E050E00E94471F15C0C901C49736
:100860004D97C8F4C901AA2797FDA095BA2F8056C5
:100870009F4FAF4FBF4F35E0880F991FAA1FBB1F77
:100880003A95D1F7BC0170938B0060938A0081E0A8
:1008900090E099838883C801DF91CF911F910F91D8
:1008A000089586E08DA701E010E0BFCF0F931F935E
:1008B000CF93DF93EC0189010E94AC1888858823CF
:1008C00021F0CE01B8010E945C1EDF91CF911F91F3
:1008D0000F910895FC018085882319F0CF010E94B3
:1008E0005C1E0895CF93DF93EC01462F60E00E94D9
:1008F000AC188885882339F0609164017091650196
:10090000CE010E945C1EDF91CF910895CF93DF93BB
:10091000EC018C818F5F8C83823008F01C828CEC20
:1009200092E061E070E00E947204EC81F0E0EE0F72
:10093000FF1FEB56FE4F208131818CEC92E060E08E
:1009400070E041E050E00E945604DF91CF9108959D
:10095000CF93DF93EC018C818F5F8C83823008F022
:100960001C828CEC92E061E070E00E9472048CECDE
:1009700092E060E041E00E94AC1880919C029C8172
:1009800083FD03C0992319F008C0992331F08CEC42
:1009900092E060E071E00E946A04EC81F0E0EE0F0A
:1009A000FF1FEB56FE4F608171818CEC92E00E943C
:1009B0006A04DF91CF910895CF93DF93EC018C818E
:1009C0008F5F8C83823008F01C828CEC92E061E0B7
:1009D00070E00E9472048CEC92E060E041E00E94C2
:1009E000AC1880919C029C8182FD03C0992319F070
:1009F00008C0992331F08CEC92E060E071E00E9435
:100A00006A04EC81F0E0EE0FFF1FEB56FE4F6081B1
:100A100071818CEC92E00E946A04DF91CF9108957D
:100A2000CF93DF93EC018C818F5F8C83823008F051
:100A30001C828CEC92E061E070E00E9472048CEC0D
:100A400092E060E041E00E94AC1880919C029C81A1
:100A500081FD03C0992319F008C0992331F08CEC73
:100A600092E060E071E00E946A04EC81F0E0EE0F39
:100A7000FF1FEB56FE4F608171818CEC92E00E946B
:100A80006A04DF91CF910895CF93DF93EC018C81BD
:100A90008F5F8C83833008F01C828CEC92E061E0E5
:100AA00070E00E9472048CEC92E060E041E00E94F1
:100AB000AC1880919C0280FD02C021E001C022E0C0
:100AC00030E08C8190E001962817390731F48CECE6
:100AD00092E060E071E00E946A04EC81F0E0EE0FC9
:100AE000FF1FE858FE4F608171818CEC92E00E94FC
:100AF0006A04DF91CF9108950F931F938C018CECC2
:100B000092E060E070E041E050E020E031E00E94DF
:100B10005604D8011496EC91F0E0EE0FFF1FEB564F
:100B2000FE4F608171818CEC92E00E946A04F801B2
:100B300084818823C1F480919C02877F80939C02EA
:100B400089EE92E062E070E040919C020E94E61221
:100B500064EF71E080E090E00E94571B84E192E036
:100B60001F910F91089580919C028860E7CF0F93A9
:100B70001F938C018CEC92E060E070E041E050E06B
:100B800020E031E00E945604D8011496EC91F0E088
:100B9000EE0FFF1FEB56FE4F608171818CEC92E0EF
:100BA0000E946A04F80184818823C1F480919C0228
:100BB0008B7F80939C0289EE92E062E070E040912E
:100BC0009C020E94E61264EF71E080E090E00E94D7
:100BD000571B84E192E01F910F91089580919C0230
:100BE0008460E7CF0F931F938C018CEC92E060E060
:100BF00070E041E050E020E031E00E945604D8016E
:100C00001496EC91F0E0EE0FFF1FEB56FE4F608163
:100C100071818CEC92E00E946A04F801848188233F
:100C2000C1F480919C028D7F80939C0289EE92E0BA
:100C300062E070E040919C020E94E61264EF71E075
:100C400080E090E00E94571B84E192E01F910F9199
:100C5000089580919C028260E7CFCF92DF92EF925D
:100C6000FF920F931F93DF93CF93CDB7DEB76197BA
:100C70000FB6F894DEBF0FBECDBF7C01262F6A01F0
:100C8000DC0118968C91882349F1C70160E0422F5E
:100C90000E94AC1800D000D000D0EDB7FEB731965E
:100CA0008E010F5F1F4FADB7BEB712961C930E9308
:100CB000119782E091E093838283D582C4820E945F
:100CC0005B01198AEDB7FEB736960FB6F894FEBFF2
:100CD0000FBEEDBFC701B8010E945C1E61960FB642
:100CE000F894DEBF0FBECDBFCF91DF911F910F9162
:100CF000FF90EF90DF90CF9008950F931F93CF93C5
:100D0000DF93EC011C8280919C0280FD04C08EE781
:100D100091E041E003C085E891E042E098878F834D
:100D20001D821E8202C09F5F9E83AF81B8859E8117
:100D3000FD01E90FF11D80818823A9F7292F21509A
:100D40002E83A20FB11D8C918D833091AF0290E064
:100D5000EF81F885E90FF11D8081831711F49C83E1
:100D600003C09F5F2917A0F7413019F028E031E058
:100D700002C02BE031E000D000D000D0EDB7FEB7CC
:100D8000319602E412E0ADB7BEB712961C930E93F3
:100D900011978EE091E093838283358324830E94B0
:100DA0005B01EDB7FEB736960FB6F894FEBF0FBEE7
:100DB000EDBF8CEC92E060E070E0A8010E942D068F
:100DC00000D000D000D0ADB7BEB71196EDB7FEB7DA
:100DD000128301838DE191E013969C938E93129779
:100DE0008C81EF81F885E80FF11D808114968C933A
:100DF000149715961C920E945B018DB79EB70696BC
:100E00000FB6F8949EBF0FBE8DBF8CEC92E061E0F0
:100E100070E0A8010E942D06DF91CF911F910F91E4
:100E20000895CF93DF93EC018CEC92E060E070E0EA
:100E300041E050E020E031E00E9456048C81EF81D7
:100E4000F885E80FF11D60818091D402882339F084
:100E50008CEC92E070E04AE050E00E94341F8CEC91
:100E600092E062E271E00E946A0464EF71E080E067
:100E700090E00E94571B80919C0280FD02C081E09F
:100E800001C082E060E070E0813011F061E070E06C
:100E90008C81EF81F885E80FF11D89EE92E04081A9
:100EA0000E94E6128C81EF81F885E80FF11D82E83F
:100EB00092E0608140E00E94FC0384E192E0DF91D7
:100EC000CF910895CF93DF93EC018C818F5F8C835A
:100ED0009E81981708F41C828CEC92E061E070E02F
:100EE0000E9472048CEC92E060E041E00E94AC1839
:100EF0008C81EF81F885E80FF11D9091AF02808120
:100F0000981731F48CEC92E060E071E00E946A0482
:100F10008C81EF81F885E80FF11D60818091D4020A
:100F2000882339F08CEC92E070E04AE050E00E94B7
:100F3000341F8CEC92E062E271E00E946A04DF915F
:100F4000CF910895FC018481882319F429E132E0CE
:100F50001FC0813019F42EE132E01AC0823019F43A
:100F600027E232E015C0833019F42CE232E010C0E1
:100F7000843019F421E332E00BC0883019F426E301
:100F800032E006C08CEC92E00E94591920E030E07B
:100F9000C9010895CF93DF93EC018CEC92E00E949D
:100FA000331980FF52C031E00AC089819A81AB8138
:100FB000BC810097A105B10509F4188230E02881B1
:100FC000222361F0213009F045C089819A81AB81EB
:100FD000BC810097A105B10509F43CC0332381F120
:100FE00089819A81AB81BC810097A105B10541F44B
:100FF000222331F40E94491B69837A838B839C836B
:101000000E94491B9B01AC0189819A81AB81BC8103
:10101000281B390B4A0B5B0B8881882339F4243653
:10102000310541055105B4F081E008C0813091F4EB
:10103000245F3140404050406CF082E088830AC019
:1010400019821A821B821C8205C08881823009F0B5
:10105000B5CFABCFDF91CF91089581E160E00E94E1
:10106000171C81E161E00E943D1C0895CF93DF933E
:10107000EC0182E00E94951C892B19F081E08883A5
:1010800001C01882DF91CF9108950F931F938C01B7
:1010900088E060E00E943D1C87E060E00E943D1C0B
:1010A000F801838D8F7B838F0E945C17F80162AFFC
:1010B00073AF84AF95AF0E94491BF80162AB73AB6D
:1010C00084AB95AB1F910F9108950F931F930DE97A
:1010D00012E080919D02806880939D020B51104028
:1010E000C8010E94450810928B0010928A0082E08D
:1010F00090E0F8019183808381E0809384021F91C6
:101100000F9108950F931F938C0188E061E00E9476
:101110003D1C87E061E00E943D1CF801838D8064E6
:10112000838F0E945C17F80166AB77AB80AF91AFFD
:101130000E94491BF80166A777A780AB91AB1F916E
:101140000F910895BF92CF92DF92EF92FF920F938B
:101150001F93CF93DF93EC01BEA02FEFB21639F4AB
:1011600065E070E080E090E00E94571B34C283E0AD
:101170000E94951C8C0184E00E94951C7C018B8D43
:1011800086FF31C08A8D83FD8EC00E94491B2EA52B
:101190003FA548A959A9621B730B840B950B695E87
:1011A00073408040904008F47EC00130110509F082
:1011B0007AC0F1E0EF16F10409F075C087E08EA364
:1011C000CE010E9445088C898F3F11F08F5F8C8B78
:1011D0000E94491B60567444824F9F4F6C877D87E5
:1011E0008E879F87E2C127E0B21609F58889998921
:1011F000AA89BB890397A105B10508F0D4C10E9453
:10120000491B2C853D854E855F85621773078407D2
:10121000950708F4C8C188899989AA89BB8901966C
:10122000A11DB11D888B998BAA8BBB8B3CC08A8D6D
:1012300084FD39C0012B11F0EF28A1F588E0B81624
:1012400061F0898D882349F40E94491B6D8B7E8B48
:101250008F8B988F898D8F5F898F0E94491B2AA958
:101260003BA94CA95DA9621B730B840B950B695EAE
:1012700073408040904078F00E94491B2D893E8940
:101280004F89588D621B730B840B950B695E7340FD
:101290008040904018F428E0B21629F488E08EA32C
:1012A00008E084C1198E00E091E08A81882309F466
:1012B0003EC086E08EA38F819885A985BA85039765
:1012C000A105B10508F074C186E0B81651F08B8510
:1012D0008F3F11F08F5F8B871F82188619861A86C1
:1012E0001BC00E94491B2B813C814D815E8162178E
:1012F00073078407950708F45BC1CE0102960E942C
:1013000036088F819885A985BA850196A11DB11DE2
:101310008F839887A987BA870E94491B60567444B7
:10132000824F9F4F6B837C838D839E8341C1992322
:1013300009F476C08B2D8650833050F480E49FE111
:1013400090938B0080938A00198218821EA2BB247E
:101350005FEFC52E53E0D52E00E010E0EE24FF2411
:1013600081E00E94F51B0817190714F48C0104C0D2
:101370008C159D050CF46C010894E11CF11CE4E64D
:10138000EE16F10469F78A8D282F81FD13C188813B
:101390009981019709F00EC18CA19DA1C816D906AB
:1013A00008F408C105E015C08E8D9F8D0817190738
:1013B00010F002E00EC088A199A10817190740F4A7
:1013C00022FF00C18AA19BA18017910708F0FAC0F3
:1013D00003E00B1529F188A5081739F00E94491B75
:1013E00069A77AA78BA79CA71BC00E94491BC9A409
:1013F000DAA4EBA4FCA4013029F02AEF30E040E0AD
:1014000050E004C029E130E040E050E06C197D0973
:101410008E099F09621773078407950708F00EA3CA
:1014200008A78EA18B1509F49AC08130D9F18230BA
:1014300009F448C08330A1F58DA5282F30E0C901FB
:1014400006978E9760F4B901882777FD8095982FCD
:1014500025E830E040E050E00E94471F15C0C90178
:10146000C4974D97C8F4C901AA2797FDA095BA2F34
:1014700080569F4FAF4FBF4F45E0880F991FAA1F5F
:10148000BB1F4A95D1F7BC0170938B0060938A0013
:1014900081E090E099838883CE010E9482085FC03A
:1014A000843061F4CE010E94450880E49FE190936E
:1014B0008B0080938A001982188251C08630C1F156
:1014C000853091F5CE010E9445088DA5282F30E08A
:1014D000C90106978E9760F4B901882777FD80953A
:1014E000982F25E830E040E050E00E94471F15C0EB
:1014F000C901C4974D9798F5C901AA2797FDA095F2
:10150000BA2F80569F4FAF4FBF4F35E0880F991FBE
:10151000AA1FBB1F3A95D1F7BC0170938B00609353
:101520008A0081E090E00DC0873011F0883061F4CE
:10153000CE010E94450810928B0010928A0082E032
:1015400090E0998388830BC080E49FE190938B00A7
:1015500080938A0019821882CE010E944508BFA29A
:101560008EA18330C1F58E01025C1F4FF80180818E
:101570009181A281B381CE5BDF4F88839983AA8357
:10158000BB83C254D0400E945C172EA93FA948AD2E
:1015900059AD621B730B840B950BF801608371834B
:1015A0008283938318C087E08EA307E090E07DCE0E
:1015B00006E036CF8C8D9D8D0817190708F4F4CE00
:1015C00001E007CF8AA19BA18017910710F000E0EE
:1015D00000CF04E0FECEDF91CF911F910F91FF90DD
:1015E000EF90DF90CF90BF900895DC015C96E6E627
:1015F000F1E08AE001900D928150E1F708951F9388
:10160000CF93DF93EC01162F8A8D623019F481603D
:101610008A8F03C08E7F8A8F11E060E070E0113006
:1016200011F061E070E089EE92E00E94DF12682F15
:1016300081508E3F20F01130E9F46CE006C0663036
:1016400010F416E00BC0113029F4162F613130F080
:1016500010E104C0162F613508F010E5CE010E949C
:10166000F50ACE01612F40E00E94FC03DF91CF918B
:101670001F91089568E1E7CFCF93DF93EC016C8170
:10168000662321F480919C028F7D07C082E892E05E
:101690000E94FF0A80919C02806280939C028CECE5
:1016A00092E060E070E041E050E020E031E00E9434
:1016B0005604EC81F0E0EE0FFF1FE858FE4F60810A
:1016C00071818CEC92E00E946A0489EE92E062E003
:1016D00070E040919C020E94E61264EF71E080E0AD
:1016E00090E00E94571B84E192E0DF91CF91089532
:1016F000AF92BF92CF92DF92EF92FF920F931F9320
:101700007C016B015A018C01045F1F4FC801B901B4
:101710000E945401C701B601A50198010E94560418
:101720001F910F91FF90EF90DF90CF90BF90AF90FF
:101730000895CF92DF92EF92FF920F931F937C0157
:101740006B018C01045F1F4FC801BA010E94540154
:10175000C701B601A8010E942D061F910F91FF90AD
:10176000EF90DF90CF9008950F931F938C018CEC36
:1017700092E060E070E041E050E020E031E00E9463
:101780005604D8011496EC91F0E0EE0FFF1FEB56D3
:10179000FE4F608171818CEC92E00E946A0464EFDC
:1017A00071E080E090E00E94571BF801848188235B
:1017B000A1F48CEC92E061E070E046EB51E00E9415
:1017C000990B2EE088E190E00FB6F894A8958093ED
:1017D00060000FBE20936000FFCF80E090E01F917B
:1017E0000F9108950F931F93FC0114820CEC12E0EB
:1017F000C80160E070E04BEA51E00E94990B409113
:10180000950150919601C80161E070E00E942D069B
:101810001F910F910895EF92FF920F931F938C01E8
:101820003CECE32E32E0F32EFC0142815381C701F0
:1018300060E070E00E94990B80919C0290E023E0B0
:10184000969587952A95E1F78170F801848300D0F9
:1018500000D000D0ADB7BEB7119602E412E0EDB7EC
:10186000FEB71283018324E231E013963C932E935A
:101870001297E82FF0E0EE0FFF1FEB56FE4F80812E
:10188000918115969C938E9314970E945B018DB75E
:101890009EB706960FB6F8949EBF0FBE8DBFC701C8
:1018A00061E070E0A8010E942D061F910F91FF904A
:1018B000EF900895EF92FF920F931F938C016CECC1
:1018C000E62E62E0F62EFC0142815381C70160E002
:1018D00070E00E94990B80919C0290E0969587950C
:1018E000969587958170F801848300D000D000D050
:1018F000ADB7BEB7119602E412E0EDB7FEB71283A2
:10190000018324E231E013963C932E931297E82F43
:10191000F0E0EE0FFF1FEB56FE4F80819181159690
:101920009C938E9314970E945B018DB79EB7069689
:101930000FB6F8949EBF0FBE8DBFC70161E070E087
:10194000A8010E942D061F910F91FF90EF9008951E
:10195000EF92FF920F931F938C01FCECEF2EF2E0BD
:10196000FF2EFC0142815381C70160E070E00E94BC
:10197000990B80919C0290E0969587958170F80173
:10198000848300D000D000D0ADB7BEB7119602E47A
:1019900012E0EDB7FEB71283018324E231E0139623
:1019A0003C932E931297E82FF0E0EE0FFF1FEB56BB
:1019B000FE4F8081918115969C938E9314970E947F
:1019C0005B018DB79EB706960FB6F8949EBF0FBE0B
:1019D0008DBFC70161E070E0A8010E942D061F9134
:1019E0000F91FF90EF900895CF93DF93EC014A8120
:1019F0005B818CEC92E060E070E00E94990B80913A
:101A00009C0285FD02C01C8206C080FD02C081E0F0
:101A100001C082E08C838CEC92E061E070E00E9477
:101A200072048CEC92E060E070E041E050E020E075
:101A300031E00E945604EC81F0E0EE0FFF1FE85801
:101A4000FE4F608171818CEC92E00E946A04DF910C
:101A5000CF910895FC0184818F5F84838A3008F0E0
:101A600014828481853011F487E0848384818730F7
:101A700011F488E0848384818230D1F0833028F4AB
:101A8000882361F0813039F40EC08430D9F084307D
:101A9000A0F08830E1F04EEB50E01DC040911B02F9
:101AA00050911C0218C0409120025091210213C095
:101AB0004091290250912A020EC040912E0250916D
:101AC0002F0209C0409133025091340204C040916A
:101AD0003802509139028CEC92E061E070E00E9493
:101AE000990B08950F931F93FC0114820CEC12E0E4
:101AF00042815381C80160E070E00E94990B4091DF
:101B00001B0250911C02C80161E070E00E94990B19
:101B10001F910F910895EF92FF920F931F938C01E5
:101B20009B017A0160E070E0A9010E94990BC80155
:101B300061E070E0A7010E94990B1F910F91FF9047
:101B4000EF9008956F927F928F929F92AF92BF9283
:101B5000CF92DF92EF92FF920F931F93CF93DF9379
:101B60003C0180E49FE190938B0080938A00F30115
:101B70001182108285E061E00E943D1C8CEC92E0B5
:101B800063EC70E04CEC50E00E948B0DF301828D11
:101B900085FDD8C081E00E94F51B10928B00109249
:101BA0008A0022E030E0F30131832083855893409E
:101BB0000CF4C8C083E00E94951C8C0184E00E9454
:101BC000951C7C0188E061E00E943D1C6AEF70E09A
:101BD00080E090E00E94571B83E00E94951C4C011E
:101BE00084E00E94951C5C0188E060E00E943D1C3E
:101BF0006AEF70E080E090E00E94571B87E061E0B0
:101C00000E943D1C6AEF70E080E090E00E94571B4C
:101C100083E00E94951C6C0184E00E94951CEC01FD
:101C200087E060E00E943D1C6AEF70E080E090E099
:101C30000E94571B000F111F0E0D1F1D03301105B1
:101C400009F0A5C0C401880F991F8A0D9B1D96013C
:101C5000220F331F2C0F3D1F8330910534F4813048
:101C600091052CF5892B31F002C0039751F0C0E0AB
:101C7000D0E03AC02330310509F089C0C2E0D0E09D
:101C800036C02330310519F4C3E0D0E008C0211577
:101C9000310519F4C2E0D0E002C0C0E0D0E021502C
:101CA000304022303105A8F4C1E0D0E015C0233027
:101CB000310519F4C1E0D0E002C0C4E0D0E00197E2
:101CC00021F42230310529F45CC02130310509F4BA
:101CD0005BC0C130D10541F48CEC92E066ED70E060
:101CE00042EE50E00E948B0DC230D10541F48CECE5
:101CF00092E066ED70E040EF50E00E948B0DCE0167
:101D00000397029728F48CEC92E067E00E94FD189C
:101D1000C330D10529F48CEC92E06EE071E007C08D
:101D2000C430D10541F48CEC92E06EEF70E04FE1ED
:101D300051E00E948B0D64EF71E080E090E00E9422
:101D4000571B02C0C0E0D0E085E060E00E943D1C6F
:101D500080E49FE190938B0080938A00F3011182CD
:101D600010828C2FDF91CF911F910F91FF90EF90F8
:101D7000DF90CF90BF90AF909F908F907F906F90AB
:101D80000895C2E0D0E0A5CFC2E0D0E0ADCFC4E07E
:101D9000D0E0AACFFF920F931F93CF93DF93EC0174
:101DA00088E061E00E94171C87E061E00E94171C38
:101DB00083E060E00E94171C84E060E00E94171C32
:101DC00083E061E00E943D1C84E061E00E943D1CD4
:101DD000CE010E9445081092800020E43FE130933C
:101DE00087002093860081E180938100229A809170
:101DF000800080628093800030938B0020938A0063
:101E00001982188289EE92E062E070E00E94DF128F
:101E10008F3F11F41A8E05C08A8F80FD02C011E039
:101E200001C012E01B8E1F82188619861A861B8637
:101E3000188A198A1A8A1B8A1C8A198E1EA21FA246
:101E400097E0F92E08E0CE010E94A20D982F8A8D0E
:101E5000282F85FD05C0892F8150823008F4192F65
:101E600023FD05C0933019F4FEA221E001C020E05B
:101E70008A8D84FD04C0943011F40EA302C0222385
:101E800051F060EA7BEB8DE090E00E94571B8EA141
:101E900087508230C0F2CE01612F0E94FF0ACE012E
:101EA00002960E9436088DE060E00E943D1CDF91A2
:101EB000CF911F910F91FF9008950F931F93CF9390
:101EC000DF93EC018885882351F08E01045F1F4F5A
:101ED000C8010E945401CE01B8010E945C1EDF912E
:101EE000CF911F910F9108956F927F928F929F9241
:101EF000AF92BF92CF92DF92EF92FF920F931F9318
:101F0000CF93DF93782E692E0091A80280919C02D6
:101F100080FD02C021E001C022E08091A9020817E3
:101F200009F462C18DB79EB708970FB6F8949EBFAB
:101F30000FBE8DBFEDB7FEB73196C2E4D2E0ADB7AC
:101F4000BEB71296DC93CE93119780E791E093830E
:101F50008283248315828091AF02868317820E9438
:101F60005B012DB73EB7285F3F4F0FB6F8943EBFD9
:101F70000FBE2DBF053009F4B6C0063080F4023024
:101F800009F447C0033020F4013009F025C114C022
:101F9000033009F46DC0043009F01EC190C0073051
:101FA00009F4CBC0073008F4B4C0083009F4D9C034
:101FB0000F3F09F011C1E9C08DE061E00E943D1CB6
:101FC00085E060E00E943D1C872D962D67E00E9411
:101FD000FD18872D962D0E945919872D962D60E0AA
:101FE00040E00E94AC18872D962D6CE971E00E94AC
:101FF0005D0F872D962D6AE070E040E050E09E0175
:102000000E945604872D962D61E070E04BE851E068
:102010002CC08DE061E00E943D1C85E061E00E94E3
:102020003D1C872D962D67E00E94FD18872D962D6B
:102030000E945919872D962D60E040E00E94AC184F
:10204000872D962D6CE971E00E945D0F872D962DEE
:102050006AE070E040E050E09E010E945604872D47
:10206000962D61E070E04EE751E00E94990B0FC1A0
:102070008DE060E00E943D1C85E060E00E943D1C18
:10208000872D962D67E00E94FD18872D962D0E94C2
:102090005919872D962D60E040E00E94AC18872DDD
:1020A000962D62EA71E00E945D0F872D962D6AE001
:1020B00070E040E050E09E010E94560498C08DE020
:1020C00060E00E943D1C85E061E00E943D1C872D80
:1020D000962D67E00E94FD18872D962D6BE271E02A
:1020E00046E351E013C08DE060E00E943D1C85E0B6
:1020F00061E00E943D1C872D962D67E00E94FD182F
:10210000872D962D6BE271E044E451E00E948B0D27
:10211000BEC08DE060E00E943D1C85E061E00E9451
:102120003D1C872D962D67E00E94FD18872D962D6A
:102130006BE271E045E551E0E9CF8DE060E00E949F
:102140003D1C85E061E00E943D1C872D962D67E0D7
:102150000E94FD18872D962D6BE271E040E651E05C
:10216000D5CF8DE060E00E943D1C85E061E00E94DB
:102170003D1C872D962D67E00E94FD18872D962D1A
:102180006BE271E04AE651E0C1CF8DE060E00E9471
:102190003D1C85E061E00E943D1C872D962D67E087
:1021A0000E94FD18872D962D0E945919872D962D76
:1021B00060E040E00E94AC18872D962D66E771E044
:1021C0000E945D0F872D962D6AE070E040E050E0A0
:1021D0009E010E9456045BC08DE060E00E943D1CA1
:1021E00085E061E00E943D1C033009F050C0809002
:1021F000C0029090C102A090C202B090C302809130
:10220000C4029091C502A091C602B091C70288167F
:102210009906AA06BB06D9F1C501B4010E94291787
:102220006C01C501B4010E9423177C01C501B401F2
:102230000E941D17ADB7BEB71A970FB6F894BEBF70
:102240000FBEADBFEDB7FEB7319602E412E01296B5
:102250001C930E93119728E231E033832283D582B9
:10226000C482F782E682918780870E945B012DB746
:102270003EB7265F3F4F0FB6F8943EBF0FBE2DBF4F
:10228000872D962D61E070E0A8010E942D06DF9158
:10229000CF911F910F91FF90EF90DF90CF90BF9063
:1022A000AF909F908F907F906F900895FF920F93C3
:1022B0001F938C01FF24FA94FC01F6A20E944508AA
:1022C00010928B0010928A0082E090E0F8019183D6
:1022D00080838CEC92E00E94740FF801F7A21F91AA
:1022E0000F91FF9008950F931F93CF93DF93EC010D
:1022F0000E94CA078881813079F489819A81AB81F3
:10230000BC810097A105B10509F071C01882AD81AB
:10231000BE81109729F40DC0823009F068C013C047
:10232000ED91FC9111970280F381E02DCD0109958B
:102330005EC08091A8028F3F09F43FC082E892E01E
:102340000E94561154C089819A81AB81BC8100974B
:10235000A105B10509F44BC019821A821B821C82A7
:10236000AD81BE811097C1F1ED91FC911197048070
:10237000F581E02DCD010995DC019E838D830097C9
:10238000D9F082E0A431B80719F414960C9114978F
:10239000ED91FC9111970190F081E02DCD0109950F
:1023A000ED81FE8182E0E431F80709F501500483F4
:1023B000CF010E942A0D1BC08FEF8093A9021092BB
:1023C000A80280E49FE190938B0080938A00109292
:1023D0008302109282020BC082E892E00E945611A2
:1023E00004E112E0C8010E94720D1E830D83DF918B
:1023F000CF911F910F91089582E892E00E94A20868
:102400008CEC92E00E94740F8BE392E00E947311B7
:1024100008950F931F938C018DE061E00E94171CBB
:1024200085E061E00E94171C8DE060E00E943D1C89
:1024300085E060E00E943D1C81E0F8018387C801CF
:1024400060E142E022E00E946619C80167E00E9454
:10245000FD18C80160E070E040ED51E00E94990B6A
:10246000C80160E070E041E050E027EC31E00E94FC
:10247000780BC80168E670E00E945D0FC80163EC4C
:1024800071E00E945D0F60E273E080E090E00E94E6
:10249000571B1F910F9108958CEC92E00E94091236
:1024A00082E892E00E94CA0E089588E10FB6F8947F
:1024B00080936000109260000FBE86E594E040E0DB
:1024C00056E960E070E00E94191D80E065E678E062
:1024D00043E050E00E94841A0E944C128BE392E089
:1024E0000E942D08089560E241E00E94CF170895F0
:1024F0008EED91E090931502809314028EE690E0A9
:10250000909317028093160284ED91E090931A0243
:102510008093190284E790E090931C0280931B0241
:102520008AEC91E090931F0280931E0282E890E073
:10253000909321028093200280EC91E090932802F6
:10254000809327028EE890E090932A0280932902DC
:1025500086EB91E090932D0280932C028AE990E023
:1025600090932F0280932E028CEA91E09093320296
:10257000809331028BEA90E090933402809333028F
:1025800082EA91E0909337028093360288EB90E0E4
:10259000909339028093380210923B0210923C02D1
:1025A00010923D0210923E0210923F0210924102A0
:1025B000109240028CEC92E00E9473120895F999F7
:1025C000FECF72BD61BDF89A80B50895F999FECF2E
:1025D0001FBA72BD61BD40BD0FB6F894FA9AF99A60
:1025E0000FBE089581E080932F0360930C03109237
:1025F0002D0310922E03089590910A0380910B03EE
:10260000981710F080E00895E92FF0E0E651FD4FB3
:1026100080819F5F90930A0308950895DF93CF937D
:102620000F92CDB7DEB7698380912F03882389F09D
:1026300080912E03803290F480912D03E82FF0E0FA
:10264000E35FFC4F60838F5F80932D0380932E03A5
:1026500005C0CE01019661E00E94EA130F90CF9170
:10266000DF91089580910C036DE073E040912E039B
:1026700021E00E94A71310922D0310922E031092B6
:102680002F030895413208F040E2862F6AEE72E08F
:102690000E94701310920A0380930B0308950E9406
:1026A0004213089510920A0310920B0310922D0307
:1026B00010922E030E945D13089510923103449AE4
:1026C000459AE9EBF0E080818E7F808380818D7F69
:1026D000808388E48093B80085E48093BC000895EB
:1026E000982F413210F040E030C0809131038823B0
:1026F000E1F781E0809331038FEF80939C03109288
:1027000057034150409358034F5F990F9160909346
:10271000320385EE8093BC00809131038130E1F378
:1027200080915703841710F44091570320E030E064
:102730000AC0FB01E20FF31FD901A95CBC4F8C91C9
:1027400080832F5F3F4F2417A0F3842F08951F939A
:10275000582F122F413210F081E03AC0809131039E
:102760008823E1F782E0809331038FEF80939C030D
:102770001092570340935803A7E3B3E0FB0102C054
:1027800081918D938E2F861B8417D0F3852F90E037
:10279000880F991F8093320385EE8093BC0011232C
:1027A00021F0809131038230E1F380919C038F3FCF
:1027B00011F480E00DC080919C03803211F482E01E
:1027C00007C080919C03803311F084E001C083E056
:1027D0001F910895482F613210F081E00895809193
:1027E0003103843011F082E0089560937A03A9E503
:1027F000B3E0842F9C01F90102C081918D938E2F4B
:10280000841B8617D0F380E008951F920F920FB6B5
:102810000F9211242F933F934F935F936F937F9366
:102820008F939F93AF93BF93EF93FF938091B900E2
:1028300090E0887F90708036910509F4DCC0813685
:102840009105CCF58832910509F47BC08932910558
:10285000B4F48031910509F46FC0813191053CF4E5
:10286000009709F431C1089709F039C165C0883172
:10287000910509F466C0809709F031C17DC08034AC
:10288000910509F49FC08134910544F4803391058A
:1028900009F47DC0C89709F022C184C08035910534
:1028A00009F484C08835910509F491C088349105F4
:1028B00009F015C198C08839910509F4FDC089391E
:1028C0009105ECF48837910509F495C08937910595
:1028D0004CF48836910509F48EC08037910509F0D3
:1028E000FEC089C08838910509F4E6C08039910599
:1028F00009F487C08038910509F0F1C082C0803B9F
:10290000910509F4B0C0813B91054CF4803A9105E2
:1029100009F489C0883A910509F0E1C0A4C0803C5F
:10292000910509F4CDC0883C910509F4C9C0883BE4
:10293000910509F0D4C0ACC0809132038093BB00F4
:10294000B9C09091570380915803981768F49091FB
:102950005703E92FF0E0E95CFC4F80818093BB00D6
:102960009F5F90935703A6C085ED8093BC00809134
:10297000BC0084FDFCCFB1C080E280939C0385ED58
:102980008093BC008091BC0084FDFCCFA6C080E396
:1029900080939C0385ED8093BC008091BC0084FDF6
:1029A000FCCF9BC088E380939C038AC0809157032F
:1029B0009091BB00E82FF0E0E95CFC4F90838F5FC3
:1029C00080935703909157038091580371C0809171
:1029D00057039091BB00E82FF0E0E95CFC4F908337
:1029E0008F5F8093570385ED8093BC008091BC007E
:1029F00084FDFCCF72C083E08093310310929B036F
:102A000059C080919B03803208F056C080919B038F
:102A10009091BB00E82FF0E0E558FC4F90838F5F6A
:102A200080939B0347C080919B03803230F4E091F8
:102A30009B03F0E0E558FC4F108285ED8093BC00CD
:102A40008091BC0084FDFCCF1092310360919B0308
:102A5000E0913503F09136038BE793E070E0099540
:102A600010929B032DC084E0809331031092790370
:102A700010927A03E0913303F09134030995809129
:102A80007A03882329F481E080937A031092590312
:102A900090917903E92FF0E0E75AFC4F8081809311
:102AA000BB009F5F909379039091790380917A03A3
:102AB000981710F485EC01C085E88093BC000FC026
:102AC00085EC8093BC0009C010929C0385ED809337
:102AD000BC008091BC0084FDFCCF10923103FF91BB
:102AE000EF91BF91AF919F918F917F916F915F9186
:102AF0004F913F912F910F900FBE0F901F901895FF
:102B00008091A3039091A403A091A503B091A60383
:102B10000196A11DB11D8093A3039093A403A093DC
:102B2000A503B093A6038091A3039091A403A09161
:102B3000A503B091A60320919D0330919E0340917F
:102B40009F035091A00382179307A407B50710F1C4
:102B50008091A7038823F1F481E08093A7038091FB
:102B6000A3039091A403A091A503B091A603821B97
:102B7000930BA40BB50B8093A3039093A403A09392
:102B8000A503B093A603E091A103F091A2030995D8
:102B90001092A70308951F920F920FB60F9211245F
:102BA0002F933F934F935F936F937F938F939F9355
:102BB000AF93BF93EF93FF938091A8039091A903E4
:102BC0008093B2000E948015FF91EF91BF91AF9169
:102BD0009F918F917F916F915F914F913F912F9135
:102BE0000F900FBE0F901F9018958F929F92AF92EB
:102BF000BF92CF92DF92EF92FF920F931F93CF93EA
:102C0000DF937B018C01EA012CE330E040E050E0EF
:102C10000E948D1F6883C801B7012CE330E040E0BB
:102C200050E00E948D1F122F032FF42EE52E622FED
:102C3000732F842F952F2CE330E040E050E00E946A
:102C40008D1F6983612F702F8F2D9E2D2CE330E017
:102C500040E050E00E948D1F122F032FF42EE52E2E
:102C6000622F732F842F952F28E130E040E050E051
:102C70000E948D1F6A83612F702F8F2D9E2D28E15A
:102C800030E040E050E00E948D1F79018A01C801C8
:102C9000B7016C5F7F4F8F4F9F4F27E030E040E0E0
:102CA00050E00E948D1F6F5F6B8320E0AA24BB243D
:102CB000650101C02F5F822E9924F401EE54F84F74
:102CC000CF0183709070892B99F4CF0164E670E096
:102CD0000E947A1F892B39F4CF0160E971E00E94CC
:102CE0007A1F892B29F48EE691E0A0E0B0E004C0C1
:102CF0008DE691E0A0E0B0E0A80EB91ECA1EDB1E72
:102D0000C501A0E0B0E0E816F9060A071B0790F637
:102D10002E83F401EE54F84F83E0882E912C8E22FE
:102D20009F228114910499F4CF0164E670E00E941F
:102D30007A1F892B39F4CF0160E971E00E947A1F74
:102D4000892B29F48EE691E0A0E0B0E004C08DE686
:102D500091E0A0E0B0E0A81AB90ACA0ADB0A98011B
:102D600087010A191B092C093D09CF0164E670E0AF
:102D70000E947A1F7C01CF0160E971E00E947A1FF6
:102D8000AC01E4EEF1E060E0613051F481149104B3
:102D900049F4E114F10441F44115510529F002C050
:102DA000808103C08CE101C08DE190E0A0E0B0E043
:102DB000081719072A073B0740F0081B190B2A0BB5
:102DC0003B0B6F5F31966C30F9F66F5F6D83802F30
:102DD0008F5F8C83DF91CF911F910F91FF90EF90C8
:102DE000DF90CF90BF90AF909F908F900895EF921B
:102DF000FF920F931F937B018C018091C1039091EF
:102E0000C203A091C303B091C403E816F9060A07F0
:102E10001B0771F0C801B70146EB53E00E94F5159E
:102E2000E092C103F092C2030093C3031093C40362
:102E30001F910F91FF90EF9008950E94F7168091D7
:102E4000B60390E008950E94F7168091B70390E0D2
:102E500008950E94F7168091B80390E0089560935A
:102E6000AC037093AD038093AE039093AF032091B6
:102E7000990130919A0140919B0150919C01260F3C
:102E8000371F481F591F2093B0033093B10340935D
:102E9000B2035093B30382E090E09093B503809324
:102EA000B4030E94491B6093BD037093BE038093DB
:102EB000BF039093C0030895EF92FF920F931F9367
:102EC0001CC02F5F3F4F4F4F5F4F2093AC03309399
:102ED000AD034093AE035093AF0388EE93E0A0E0C0
:102EE000B0E0E80EF91E0A1F1B1FE092BD03F0922E
:102EF000BE030093BF031093C0030E94491BE090E0
:102F0000BD03F090BE030091BF031091C0036E1982
:102F10007F09800B910B2091AC033091AD03409160
:102F2000AE035091AF03685E73408040904048F616
:102F30008091B0039091B103A091B203B091B3031B
:102F4000281739074A075B07E8F0E091AA03F091D8
:102F5000AB033097B9F009956115710581059105AD
:102F600019F00E942F170EC020E030E08091B403CA
:102F70009091B503892B11F021E030E03093B50337
:102F80002093B4036091AC037091AD038091AE03C4
:102F90009091AF031F910F91FF90EF900895FC0166
:102FA00084EF91E091838083442311F481E001C098
:102FB00082E080876783128213860895682F80E3FA
:102FC00093E00E940E1308951F93162FFC01678152
:102FD000606280E393E070E00E94F21289E00E9458
:102FE000DE17812F0E94DE1780E393E00E943213E8
:102FF0008823D1F71F9108951F93162FFC01678135
:10300000606280E393E070E00E94F21283E10E942C
:10301000DE17812F0E94DE1780E393E00E943213B7
:103020008823D1F71F910895DF92EF92FF920F93BB
:103030001F93CF93DF937C01062FD42EFC01838551
:10304000C62FD0E08130A1F5628504FD6061C5FD29
:103050006860C6FD646007FD6260DD2019F0162F10
:10306000106A02C0162F1062C701612F0E94FC1760
:103070001F7DC701612F0E94FC17F7016285C0FD0B
:103080006061C1FD6860C2FD6460C3FD6260DD20F7
:1030900019F0162F106A02C0162F1062C701612F97
:1030A0000E94FC171F7DC701612F0E94FC1737C0CB
:1030B000D695C7959E012877442319F0922F9660E4
:1030C00002C0922F9460F701838183FD02C010E05B
:1030D00001C010E8192BC701612F0E94E4171B7F64
:1030E000C701612F0E94E417602F6F70660F660F93
:1030F000660FDD2011F0666001C06460F701838116
:1031000083FD02C010E001C010E8162BC701612F3B
:103110000E94E4171B7FC701612F0E94E417DF9113
:10312000CF911F910F91FF90EF90DF90089541E0B4
:103130000E941418089540E00E9414180895FC019C
:103140008085882341F06381862F846083836C604F
:10315000CF010E949B180895DF93CF93CDB7DEB7C0
:1031600028970FB6F894DEBF0FBECDBF9C01FC01BF
:1031700080858823D9F0FE013196AAEFB1E088E07E
:103180000D9001928150E1F7F9018581841710F4C7
:10319000482F4150E42FF0E0EE0FFF1FEC0FFD1F12
:1031A0008181680F6068C9010E949B1828960FB63C
:1031B000F894DEBF0FBECDBFCF91DF9108950F937E
:1031C0001F93162F072FFC016781606280E393E055
:1031D00070E00E94F21282E10E94DE17812F0E94AD
:1031E000DE17802F0E94DE1780E393E00E943213E7
:1031F0008823D1F71F910F910895FC0180858823C2
:1032000089F183858130F1F480EC91E092878187A8
:1032100060FF04C080E891E09287818761FF05C06C
:10322000818592858F779287818762FF05C081852E
:1032300092859E7F9287818761857285CF010E94EA
:10324000DF1808958381662311F0886001C0877FAD
:103250008383838183FD02C060E001C060E8CF0109
:103260000E94E4170895CF93DF93EC0188858823AB
:10327000E9F06F81606280E393E070E00E94F212F7
:1032800082E10E94DE1780E393E00E9432136F8197
:10329000606280E393E070E041E050E00E944F13F1
:1032A00080E393E00E94FC1280958F71DF91CF91B3
:1032B0000895FC018085882341F0CF0161E00E94E0
:1032C0009B1880ED97E00E94B01B0895EF92FF924B
:1032D0000F931F93DF93CF930F92CDB7DEB78C017F
:1032E000F42EE22E62E370E080E090E00E94571B33
:1032F00080E393E00E945213F80183856781813057
:1033000061F5606280E393E070E00E94F21280E079
:103310000E94DE178FE10E94DE1780E393E00E9497
:103320003213F8016781606280E393E070E00E94ED
:10333000F2128CE00E94DE178FE10E94DE1780E31C
:1033400093E00E943213F8016781606280E393E0AA
:1033500070E00E94F21281E034C0606280E393E08A
:1033600070E00E94F21280E00E94DE178FEF0E9450
:10337000DE1780E00E94DE1780E00E94DE1780E00A
:103380000E94DE1780E00E94DE1780E00E94DE17B8
:1033900080E00E94DE1780E00E94DE1780E00E943D
:1033A000DE1780E00E94DE1780E393E00E94321374
:1033B000F8016781606280E393E070E00E94F2129E
:1033C00080E00E94DE1780E00E94DE1780E393E039
:1033D0000E943213F1E0FF1520F4F8018281886029
:1033E0008283F801F5821682EE2039F0F1E0FF16B3
:1033F00021F4F801828184608283F8018085823023
:1034000089F48781BE016F5F7F4F40E021E00E9419
:10341000A713882321F481E0F801808703C0F80115
:1034200010866AC0F80183858130C1F41286118646
:10343000FF24C80168E30E94FC17C80168E10E94EC
:10344000FC17F394F3E0FF16A1F7C80168E20E94AD
:10345000FC17C80168E00E94FC1720C0C8016CE995
:103460000E94E417C80168E90E94E417C8016CE9EA
:103470000E94E417C80168E90E94E417C8016CE9DA
:103480000E94E417C80168E90E94E417C80164E9D2
:103490000E94E417C80160E90E94E41765E070E04B
:1034A00080E090E00E94571BF80162816062C801D1
:1034B0000E949B1865E070E080E090E00E94571B3E
:1034C000F80162816062C8010E949B1865E070E0AB
:1034D00080E090E00E94571B8CE0F8018383C801D4
:1034E0000E949F18C8010E94591982E0F801848344
:1034F000C80166E00E949B180F90CF91DF911F9149
:103500000F91FF90EF900895823000F5E82FF0E0E2
:10351000EE0FFF1FEB53FC4F71836083882319F07C
:103520008130A1F408C0809169008C7F842B809346
:103530006900E89A089580916900440F551F440F6F
:10354000551F837F842B80936900E99A08951F9209
:103550000F920FB60F9211242F933F934F935F93C7
:103560006F937F938F939F93AF93BF93EF93FF934B
:103570008091C5039091C603892B29F0E091C50382
:10358000F091C6030995FF91EF91BF91AF919F9183
:103590008F917F916F915F914F913F912F910F90FC
:1035A0000FBE0F901F9018951F920F920FB60F929B
:1035B00011242F933F934F935F936F937F938F9338
:1035C0009F93AF93BF93EF93FF938091C703909125
:1035D000C803892B29F0E091C703F091C80309952E
:1035E000FF91EF91BF91AF919F918F917F916F91DB
:1035F0005F914F913F912F910F900FBE0F901F90B1
:1036000018951F920F920FB60F9211242F933F938C
:103610008F939F93AF93BF938091CD039091CE03EF
:10362000A091CF03B091D0033091D1030196A11D99
:10363000B11D232F2D5F2D3720F02D570196A11D91
:10364000B11D2093D1038093CD039093CE03A0931B
:10365000CF03B093D0038091C9039091CA03A09186
:10366000CB03B091CC030196A11DB11D8093C9037A
:103670009093CA03A093CB03B093CC03BF91AF91B7
:103680009F918F913F912F910F900FBE0F901F90A0
:1036900018958FB7F8942091CD033091CE034091C7
:1036A000CF035091D0038FBFB901CA0108959B0188
:1036B000AC017FB7F8948091C9039091CA03A0919F
:1036C000CB03B091CC0366B5A89B05C06F3F19F042
:1036D0000196A11DB11D7FBFBA2FA92F982F882752
:1036E000860F911DA11DB11D62E0880F991FAA1FB1
:1036F000BB1F6A95D1F7BC012DC0FFB7F89480912C
:10370000C9039091CA03A091CB03B091CC03E6B555
:10371000A89B05C0EF3F19F00196A11DB11DFFBF89
:10372000BA2FA92F982F88278E0F911DA11DB11D8B
:10373000E2E0880F991FAA1FBB1FEA95D1F7861BED
:10374000970B885E9340C8F2215030404040504073
:1037500068517C4F211531054105510571F60895D9
:10376000019739F0880F991F880F991F02970197C9
:10377000F1F70895789484B5826084BD84B5816042
:1037800084BD85B5826085BD85B5816085BDEEE669
:10379000F0E0808181608083E1E8F0E01082808148
:1037A00082608083808181608083E0E8F0E08081B6
:1037B00081608083E1EBF0E0808184608083E0EBD6
:1037C000F0E0808181608083EAE7F0E080818460BE
:1037D000808380818260808380818160808380811A
:1037E000806880831092C1000895982F8E3008F071
:1037F0009E50977080919D018295880F880F807CE4
:10380000892B80937C0080917A00806480937A0079
:1038100080917A0086FDFCCF20917800409179005C
:10382000942F80E030E0282B392BC9010895482FD0
:1038300050E0CA018D5E9D4FFC01249141505E4FC6
:10384000FA0184918823C1F0E82FF0E0EE0FFF1F0A
:10385000EF51FE4FA591B491662341F49FB7F894C0
:103860008C91209582238C939FBF08959FB7F894E5
:103870008C91822B8C939FBF0895482F50E0CA01F2
:10388000895D9D4FFC012491CA018D5E9D4FFC0115
:10389000349141505E4FFA019491992309F444C048
:1038A000222351F1233071F0243028F42130A1F08B
:1038B000223011F514C02630B1F02730C1F0243089
:1038C000D9F404C0809180008F7703C0809180007C
:1038D0008F7D8093800010C084B58F7702C084B53F
:1038E0008F7D84BD09C08091B0008F7703C0809127
:1038F000B0008F7D8093B000E92FF0E0EE0FFF1F46
:10390000E551FE4FA591B491662341F49FB7F89419
:103910008C91309583238C939FBF08959FB7F89423
:103920008C91832B8C939FBF0895682F70E0CB01FF
:10393000895D9D4FFC012491CB018D5E9D4FFC0163
:10394000449161507E4FFB019491992319F420E03A
:1039500030E03CC0222351F1233071F0243028F4B0
:103960002130A1F0223011F514C02630B1F02730FB
:10397000C1F02430D9F404C0809180008F7703C057
:10398000809180008F7D8093800010C084B58F77F8
:1039900002C084B58F7D84BD09C08091B0008F774F
:1039A00003C08091B0008F7D8093B000892F90E09C
:1039B000880F991F8B509E4FFC01A591B4918C915B
:1039C00020E030E0842311F021E030E0C9010895C7
:1039D0001F920F920FB60F9211242F933F934F9384
:1039E0008F939F93EF93FF934091C600E091520411
:1039F000F091530431969F012F7730703197809169
:103A00005404909155042817390739F0EE52FC4FB1
:103A100040833093530420935204FF91EF919F9180
:103A20008F914F913F912F910F900FBE0F901F904C
:103A30001895CF93DF93EC019A01AB01E885F985E6
:103A4000203081EE380780E0480780E0580709F40D
:103A500049C081E090E00A8802C0880F991F0A944B
:103A6000E2F7808360E079E08DE390E00E94AF1F91
:103A70002150304040405040CA01B90122E030E0BE
:103A800040E050E00E94AF1FEC81FD813083EE8169
:103A9000FF812083EA85FB85208141E050E0CA0157
:103AA0000E8402C0880F991F0A94E2F7282B208306
:103AB000EA85FB852081CA010F8402C0880F991F07
:103AC0000A94E2F7282B2083EA85FB858081088809
:103AD00002C0440F551F0A94E2F7842B8083DF91C4
:103AE000CF910895108220E130E0CECFDC01129614
:103AF000ED91FC911397E058FF4F21913191808116
:103B00009181281B390B2F773070C9010895DC0192
:103B10001296ED91FC911397EE57FF4F2081318162
:103B200092918291E058F0408217930719F42FEF99
:103B30003FEF05C0E20FF31F8081282F30E0C9015D
:103B40000895DC011296ED91FC911397DF01AE57B9
:103B5000BF4F2D913C911197E058FF4F808191818B
:103B6000E058F0408217930719F42FEF3FEF0BC096
:103B7000E20FF31F80812F5F3F4F2F7730702D931F
:103B80003C93282F30E0C9010895DC011296ED9195
:103B9000FC911397EE57FF4F80819181929382930E
:103BA0000895FC01A085B18521898C9190E0022EB9
:103BB00002C0959587950A94E2F780FFF6CF0484BA
:103BC000F585E02D6083089586E092E09093570498
:103BD0008093560482ED93E09093590480935804A7
:103BE00085EC90E090935B0480935A0484EC90E021
:103BF00090935D0480935C0480EC90E090935F046C
:103C000080935E0481EC90E0909361048093600463
:103C100086EC90E0909363048093620484E0809348
:103C2000640483E08093650487E08093660485E004
:103C30008093670481E08093680408950E94BA1B12
:103C40000E9455120E94FC11FDCF0F931F93CF933A
:103C5000DF938C01EB0109C02196D801ED91FC9115
:103C60000190F081E02DC801099568816623A1F7D4
:103C7000DF91CF911F910F910895EF92FF920F93D3
:103C80001F93CF93DF938C017B01EA010CC0D70116
:103C90006D917D01D801ED91FC910190F081E02DB5
:103CA000C80109952197209791F7DF91CF911F9136
:103CB0000F91FF90EF900895DC01ED91FC9102804F
:103CC000F381E02D099508952F923F924F925F92D4
:103CD0006F927F928F929F92AF92BF92CF92DF921C
:103CE000EF92FF920F931F93DF93CF93CDB7DEB781
:103CF000A0970FB6F894DEBF0FBECDBF1C016A01BE
:103D00007B01411551056105710549F440E350E01F
:103D100060E070E020E030E00E94FE1E56C0882483
:103D200099245401422E55246624772401E010E0A2
:103D30000C0F1D1F080D191DC701B601A30192012B
:103D40000E948D1FF80160830894811C911CA11CA6
:103D5000B11CC701B601A30192010E948D1FC901C8
:103D6000DA016C017D01C114D104E104F104F1F622
:103D700081E0E82EF12CEC0EFD1EE80CF91C3E0152
:103D80000894611C711CD501C4010197A109B109F6
:103D90006C01C818D90816C0F601EE0DFF1D408150
:103DA0004A3010F4405D01C0495C552747FD5095ED
:103DB000652F752FC10120E030E00E94FE1E08949F
:103DC000E108F1086E147F0439F7A0960FB6F89455
:103DD000DEBF0FBECDBFCF91DF911F910F91FF903E
:103DE000EF90DF90CF90BF90AF909F908F907F909B
:103DF0006F905F904F903F902F900895EF92FF92B9
:103E00000F931F93CF93DF93EC017A018B01211560
:103E1000310541F4E881F9810190F081E02D642FB2
:103E200009951BC02A303105B1F477FF10C04DE26F
:103E300050E060E070E020E030E00E94FE1E10954F
:103E40000095F094E094E11CF11C011D111DCE01C0
:103E5000B801A7012AE00E94641EDF91CF911F9153
:103E60000F91FF90EF900895EF92FF920F931F93A1
:103E70007B019A010027F7FC0095102FB801A701DC
:103E80000E94FE1E1F910F91FF90EF900895629F78
:103E9000D001739FF001829FE00DF11D649FE00D42
:103EA000F11D929FF00D839FF00D749FF00D659FA3
:103EB000F00D9927729FB00DE11DF91F639FB00DA2
:103EC000E11DF91FBD01CF0111240895AA1BBB1BE1
:103ED00051E107C0AA1FBB1FA617B70710F0A61B0A
:103EE000B70B881F991F5A95A9F780959095BC012B
:103EF000CD01089597FB092E07260AD077FD04D03F
:103F0000E5DF06D000201AF4709561957F4F089583
:103F1000F6F7909581959F4F0895A1E21A2EAA1B5E
:103F2000BB1BFD010DC0AA1FBB1FEE1FFF1FA21769
:103F3000B307E407F50720F0A21BB30BE40BF50B66
:103F4000661F771F881F991F1A9469F760957095EF
:103F5000809590959B01AC01BD01CF01089597FB21
:103F6000092E05260ED057FD04D0D7DF0AD0001C3D
:103F700038F450954095309521953F4F4F4F5F4F06
:103F80000895F6F790958095709561957F4F8F4FC6
:103F90009F4F0895EE0FFF1F0590F491E02D0994B7
:103FA0002F923F924F925F926F927F928F929F9249
:103FB000AF92BF92CF92DF92EF92FF920F931F9337
:103FC000CF93DF93CDB7DEB7CA1BDB0B0FB6F894E8
:103FD000DEBF0FBECDBF09942A88398848885F8428
:103FE0006E847D848C849B84AA84B984C884DF8099
:103FF000EE80FD800C811B81AA81B981CE0FD11D7D
:104000000FB6F894DEBF0FBECDBFED010895F89452
:02401000FFCFE0
:104012002B00252D313673004C32004C31002573B4
:10402200204D61782043757272656E74002B256491
:10403200410041002B257300253032643A2530328D
:10404200643A2530326400202020202020202020C5
:1040520020202020202020004175746F004C6576BE
:10406200656C2031004C6576656C203200596573B1
:10407200004E6F0037016B030C03B2020000040113
:104082004C25643A2564410048014D015501060A58
:104092000C0E0F10000A1014191E23282D32373C63
:1040A20041464B50005D0161012C010000010000FE
:1040B2000000F20B8604B40B000000000B0CA804F5
:1040C2007C05000000005A0CDC04B705000000006B
:1040D200A80C1005F205000000007D06620711071A
:1040E20000000000F40C44053C0B00000000720DBF
:1040F2002A0DA2071F1C1F1E1F1E1F1F1E1F1E1F71
:10410200000000009718251E3D1E0000400014000C
:10411200540000000000D11D251E3D1E761DA11D6C
:04412200871DC51D13
:00000001FF
