:100000000C94BE010C94F7350C9424360C94EF013B
:100010000C94EF010C94EF010C94EF010C94EF01A0
:100020000C94EF010C94EF010C94EF010C94EF0190
:100030000C94EF010C94EF010C94EF010C94EF0180
:100040000C9451360C94EF010C947D380C94AF381D
:100050000C94EF010C94EF010C94EF010C94EF0160
:100060000C94CA020C94EF01732F862FBE2FD12F50
:100070003832383238323832383238323832383230
:1000800038323832383238323832DD2F38320030B8
:1000900018302A303D3052306430383238327430C3
:1000A000883038323832383238323832AA303D303F
:1000B000BC3038321D313F313C323C323C323C3274
:1000C0003C323C323C323C323C323C323C323C32C0
:1000D0003C3242313C3257313C3266317D318F31D6
:1000E000A9313C323C323C323C323C323C323C3234
:1000F000C0313C323C32DB31F431F83121325265CF
:1001000073657474696E672E2E2E002020202030B7
:1001100041005665722E20004F70656E2045565383
:100120004500000E0C1F03060C0800080C0E0C08FE
:10013000000000000E0E0E000000000E1517110E3C
:100140000000312E302E33001F1C1F1E1F1E1F1FCC
:100150001E1F1E1F53657420446174652F54696D02
:10016000653F004368617267696E6700526561644C
:100170007900544553542044495341424C4544006E
:10018000436F6E6E656374656400536C656570697A
:100190006E670044697361626C6564005354554333
:1001A0004B2052454C4159004E4F2047524F554E1F
:1001B00044004F5645522054454D504552415455E8
:1001C000524500474643490047464349204641556A
:1001D0004C540044494F444520434845434B005646
:1001E000454E5420524551554952454400534552BD
:1001F00056494345205245515549524544004556BC
:100200005345204552524F520054455354204641C5
:10021000494C454400537663204C6576656C3A2022
:100220004C3200537663204C6576656C3A204C3135
:10023000004175746F204465746563740053656C88
:1002400066205465737400506F776572204F6E009E
:1002500054696D65204C696D69740043686172670B
:1002600065204C696D69740053746F70204D696E20
:100270000053746F7020486F75720053746172740C
:10028000204D696E00537461727420486F7572005E
:1002900044656C61792054696D6572004D696E75B5
:1002A000746500486F757200596561720044617928
:1002B000004D6F6E746800446174652F54696D65FC
:1002C00000457869740052657374617274005265F8
:1002D0007374617274204E6F773F0054656D706562
:1002E0007261747572652043686B004746492053FC
:1002F000656C66205465737400537475636B20528B
:10030000656C61792043686B0047726F756E64207D
:10031000436865636B004261636B6C696768742056
:10032000547970650056656E74205265712764209B
:10033000436865636B0044696F6465204368656367
:100340006B004D61782043757272656E7400536561
:100350007276696365204C6576656C0053657475CB
:10036000700053657474696E677300332E392E31D3
:1003700030003612041AA42ED335DF3811241FBEE4
:10038000CFEFD8E0DEBFCDBF14BE88E10FB6F89442
:1003900080936000109260000FBE13E0A0E0B1E017
:1003A000E2E0FCE702C005900D92A239B107D9F74F
:1003B00026E0A2E9B3E001C01D92AC3BB207E1F731
:1003C00013E0CCE7D3E004C02297FE010E948D3AEF
:1003D000C237D107C9F70E9423390C94FF3D0C9412
:1003E00000001092FF0381E08093FD031092FC0354
:1003F00088B1806388B9E9EBF0E080818E7F8083EB
:1004000080818D7F80838CE08093B80085E4809329
:10041000BC000895413208F03FC09091FF03911154
:10042000FCCF91E09093FF032093FD032FEF2093E7
:1004300092031092D703240F2093D6039093FE03C8
:100440009091FE03880F892B8093FE038091FC031B
:10045000813041F41092FC038091FE038093BB0035
:1004600085EC01C085EE8093BC008091FF03813054
:10047000E1F38091D703841710F44091D70328ED5E
:1004800033E0FB01D9018A2F821B841718F48D9168
:100490008193F9CF842F089580E008950F9341321E
:1004A00008F046C09091FF039111FCCF92E0909329
:1004B000FF030093FD039FEF909392031092D703E5
:1004C0004093D603FB0168ED73E0DB019A2F961B86
:1004D000941718F491919D93F9CF1092FE03909187
:1004E000FE03880F892B8093FE038091FC038130EB
:1004F00041F41092FC038091FE038093BB0085ECD5
:1005000001C085EE8093BC00222321F08091FF037F
:100510008230E1F3809192038F3F61F080919203EA
:10052000803251F080919203803341F483E007C020
:1005300081E005C080E003C082E001C084E00F914B
:100540000895613298F42091FF03243089F4609378
:10055000B403FC0186EB93E0DC012A2F281B26174D
:1005600018F421912D93F9CF80E0089581E008954A
:1005700082E0089585ED8093BC008091BC0084FDED
:10058000FCCF1092FF03089585EC8093BC0010927D
:10059000FF0308951F920F920FB60F9211242F930D
:1005A0003F934F935F936F937F938F939F93AF93FB
:1005B000BF93EF93FF938091B900887F803609F451
:1005C0009CC068F5883209F45BC090F4803109F46E
:1005D00054C038F4882309F4F5C0883009F44DC0BC
:1005E000F5C0883109F44CC0803209F45DC0EEC01A
:1005F000803409F468C048F4803309F455C0883366
:1006000009F0E4C080939203A8C0803509F44FC07C
:10061000883509F45DC0883409F0D8C0D5C0883960
:1006200009F4C6C0A8F4883709F467C038F48836DE
:1006300009F463C0803709F460C0C8C0883809F481
:10064000B7C0803909F45FC0803809F0BFC05BC013
:10065000803B09F485C038F4803A09F466C0883AD2
:1006600009F47EC0B3C0803C09F4A6C0883C09F4FC
:10067000A3C0883B09F489C0A9C08091FE0310C0C3
:100680009091D7038091D603981770F5E091D70326
:1006900081E08E0F8093D703F0E0E852FC4F808119
:1006A0008093BB0085EC85C0809392038DC0E09160
:1006B000D70381E08E0F8093D7038091BB00F0E0D9
:1006C000E852FC4F80839091D7038091D6036DC090
:1006D000E091D70381E08E0F8093D7038091BB0018
:1006E000F0E0E852FC4F80838091FD0381116CC0E3
:1006F00081E08093FC0384EA60C083E08093FF0381
:1007000010929303CFCF80919303803208F050C0B2
:10071000E091930381E08E0F809393038091BB005F
:10072000F0E0EC56FC4F8083BDCF80919303803284
:1007300030F4E0919303F0E0EC56FC4F10820E94FD
:10074000BA026091930370E0E091F803F091F9032D
:1007500084E993E00995109293030E94C40236C085
:1007600084E08093FF031092B5031092B403E091EC
:10077000FA03F091FB0309958091B403811105C040
:1007800081E08093B4031092B603E091B50381E059
:100790008E0F8093B503F0E0EA54FC4F8081809384
:1007A000BB009091B5038091B403981708F47ACFF9
:1007B00085E88093BC000AC085EC8093BC00109251
:1007C000FF0304C0109292030E94BA02FF91EF91BE
:1007D000BF91AF919F918F917F916F915F914F9159
:1007E0003F912F910F900FBE0F901F901895089575
:1007F0001F93CF93DF93EC01162F688180EC95E077
:100800000E94B135612F80EC95E00E94553580EC57
:1008100095E00E94D03542E0688180EC95E00E942E
:10082000AB3580EC95E00E940535D82FCC2780ECC5
:1008300095E00E9405359E01282BC901DF91CF91DB
:100840001F910895CF93DF93EC01688366E00E94C7
:10085000F8038435910559F467E0CE010E94F8034E
:1008600021E08115944009F020E0822F01C080E052
:10087000DF91CF91089565E00E94F8039C01AC01DF
:100880005F706AE0649FC001659F900D112444E091
:10089000969587954A95E1F7A0E0B0E034FF03C054
:1008A0009150A109B1090895DC01ED91FC910190ED
:1008B000F081E02D0994FC01608308950F931F934C
:1008C000CF93DF931F92CDB7DEB7062F152FFC0114
:1008D000608180EC95E049830E94B135602F80EC07
:1008E00095E00E945535612F70E080EC95E00E9404
:1008F00054044981642F712F80EC95E00E945404C8
:1009000080EC95E00F90DF91CF911F910F910C94A7
:10091000D0351F93CF93DF93EC01162F688180ECC5
:1009200095E00E94B135612F80EC95E00E9455352D
:1009300080EC95E00E94D035688180EC95E00E94C3
:10094000B13542E0688180EC95E00E94AB3580ECE7
:1009500095E00E940535D82F80E0C82F80EC95E007
:100960000E940535C82BD92B80EC95E00E94D0352C
:10097000CE01DF91CF911F910895CF93DF93EC01CA
:10098000462F50E04064516162E00E945E0440E006
:1009900050EC65E0CE010E945E046FE1CE010E9442
:1009A000890421E08837910509F020E0822FDF914A
:1009B000CF91089563E00E94890480FD0FC0DC019F
:1009C0002DE231E341E050E00E94AB3A20E432E412
:1009D0004FE050E00E94693AC901089580E090E03C
:1009E0000895FC016115710561F0A081B1819281CA
:1009F0006130710579F412968C911297892B1296B9
:100A00008C93A081B18111968C91119792819095D0
:100A1000892304C011968C911197892B11968C9380
:100A20000895FC017183608351E001C0550F4A9520
:100A3000EAF75283B9010C94F1046E3008F06E505D
:100A4000FC01608308952091000140E4249F9001FF
:100A50001124FC0180818770822B80937C0080911F
:100A60007A00806480937A0080917A0086FDFCCFC2
:100A7000809178002091790090E0922B089585E094
:100A800094E00C943108FC01A89515821482A08191
:100A9000B1818C919281892319F081E0838308953B
:100AA00013820895CF93DF93EC0120E030E042E021
:100AB00069E270E00E94110543E050E06FE375E0E9
:100AC00080E00E94D73522E030E046E069E270E045
:100AD000CE0106960E941105CE01DF91CF910C94B4
:100AE00043050F931F93CF93DF93EC0181E08D8338
:100AF0001C820DE310E08C81811119C00150110995
:100B0000B1F0EE81FF8182819885892B82838DE807
:100B100090E20E94F236EE81FF8182819885909565
:100B2000892382838EE890E20E94F236E4CF62E36A
:100B300070E080E090E00E94CA36A895E881F981D3
:100B400080819A81892399F768EE73E080E090E0D4
:100B50000E94CA361B821D8281E09C81911180E037
:100B6000DF91CF911F910F910895DC01ED91FC91E0
:100B70001197228112968C91282B22830895BC0113
:100B800082E090E00C940D3D61110C94B505DC0100
:100B9000ED91FC911197228112968C9180952823DA
:100BA00022830895FC01268520FF02C0611167E0C1
:100BB0000C94C9122F923F924F925F926F927F9244
:100BC0008F929F92AF92BF92CF92DF92EF92FF925D
:100BD0000F931F93CF93DF93CDB7DEB760970FB618
:100BE000F894DEBF0FBECDBF8C01A8950E949B3646
:100BF0006D837E838F839887212C312C88248A945F
:100C0000982C540119821A821B821C82188A1F8612
:100C1000C12CD12C7601C80145969A8789870E94FC
:100C20009B36AB01BC01DB01CA014D805E806F8049
:100C3000788484199509A609B7098397A105B10598
:100C400008F08BC089859A854B875C876D877E8786
:100C50000E9423052C01612C712C4B855C856D85D0
:100C60007E859FEF89169906A906B90659F191E08C
:100C7000E1E04E16E2E05E06610471040CF490E0DF
:100C800081E0F1E08F16F2E09F06A104B1040CF4BC
:100C900080E09817B9F0DB01CA0189809A80AB80A7
:100CA000BC8088199909AA09BB090697A105B10555
:100CB00048F08F8598890196988B8F8749835A834E
:100CC0006B837C83EF85F889E130F10508F442C03D
:100CD000E330F10580F03397E9F5910140E050E011
:100CE000C701B6010E94693A49015A01C12CD12CB1
:100CF0007601C39411C0C301B201725081099109F8
:100D00009B01AC010E94253AC60ED71EE81EF91EB3
:100D1000FFEF2F1A3F0A1EC0A7019601C701B601B7
:100D20000E94253A86169706A806B90630F02FEFDE
:100D3000C21AD20AE20AF20AEFCFF801EF59FF4FC6
:100D400081E0C81AD108E108F108C082D182E282AC
:100D5000F3820BC05301420162CFF801EF59FF4FFC
:100D60001082118212821382A89560960FB6F894B1
:100D7000DEBF0FBECDBFDF91CF911F910F91FF90CE
:100D8000EF90DF90CF90BF90AF909F908F907F902B
:100D90006F905F904F903F902F900895CF92DF9289
:100DA000EF92FF9220910404211108C010920004D8
:100DB000109201041092020410920304C0900004E7
:100DC000D0900104E0900204F0900304C60ED71EF8
:100DD000E81EF91EC0920004D0920104E0920204C1
:100DE000F09203042F5F20930404203261F41092E8
:100DF0000404C701B60125E0969587957795679518
:100E00002A95D1F703C06FEF7FEFCB01FF90EF90F2
:100E1000DF90CF900895CF93DF93EC0161E044968B
:100E20000E941D0560E0CE014596DF91CF910C94A4
:100E30001D05CF93DF93EC018BA9FE01E95BFF4F0A
:100E400080FD04C0608180E090E003C0608181E0AB
:100E500090E00E94F73C8BA99CA9DF91CF910C9464
:100E6000BF05CF93DF93EC0160E070E00E943A127F
:100E70004EEF50E061E070E08FE994E00E94F71BD4
:100E80008DA986FF06C068EB7BE080E090E00E94C1
:100E9000CA362EE088E190E00FB6F894A8958093CA
:100EA00060000FBE209360006CED75E080E090E084
:100EB000DF91CF910C94CA36CF93DF93EC018BA9CD
:100EC0009CA98E719670892B09F474C063E08FE938
:100ED00094E00E94D2058BA981FF0EC046E353E047
:100EE00062E771E08FE994E00E94DB1C6CED75E035
:100EF00080E090E00E94CA368BA982FF0EC045E2D6
:100F000053E062E771E08FE994E00E94DB1C6CED36
:100F100075E080E090E00E94CA368BA983FF0EC086
:100F200049E053E062E771E08FE994E00E94DB1C46
:100F30006CED75E080E090E00E94CA368BA984FFDA
:100F40000EC049EF52E062E771E08FE994E00E9441
:100F5000DB1C6CED75E080E090E00E94CA368BA946
:100F60009CA991FF0EC04BEE52E062E771E08FE961
:100F700094E00E94DB1C6CED75E080E090E00E9444
:100F8000CA368BA99CA992FF0EC04BED52E062E7D6
:100F900071E08FE994E00E94DB1C6CED75E080E06D
:100FA00090E00E94CA3667E08FE994E0DF91CF912C
:100FB0000C94D205DF91CF910895CF93DF93EC018C
:100FC00046960E94B505CE0149960E94B505CE0110
:100FD0004C960E94B5058DA980648DAB0E94883423
:100FE000FE01E05BFF4F60837183828393830E94E5
:100FF0009B36C85BDF4F688379838A839B83DF914D
:10100000CF910895CF93DF93EC0160E046960E9464
:10101000C40560E0CE0149960E94C40560E0CE019F
:101020004C960E94C4058DA98F7B8DAB0E9488349D
:10103000FE01EC5AFF4F60837183828393830E9489
:101040009B36FE01E45BFF4F608371838283938351
:10105000CB59DF4F188219821A821B82DF91CF9100
:101060000895CF93DF93EC018F81882319F081E0FD
:101070008E830DC08DA980688DABCE010E940208C1
:1010800060E070E0CE010E943A1281E08D83DF9132
:10109000CF910895FC0183A994A9662311F08D7F57
:1010A00001C0826094AB83AB83A994A90C94BF0563
:1010B000FC0183A994A9662311F09D7F01C0926071
:1010C00094AB83AB83A994A90C94BF05FC0183A9BD
:1010D00094A9662311F09B7F01C0946094AB83AB0D
:1010E00083A994A90C94BF05FC0183A994A9662344
:1010F00011F08B7F01C0846094AB83AB83A994A96A
:101100000C94BF05FC0183A994A9662311F0877F85
:1011100009C011A612A613A614A615A216A217A2FC
:1011200010A6886094AB83AB83A994A90C94BF05E7
:10113000FC0183A994A9662311F08F7E01C0806110
:1011400094AB83AB83A994A90C94BF05FC0183A93C
:1011500094A9662311F08F7D01C0806294AB83ABAC
:1011600083A994A90C94BF051F93CF93DF93EC013F
:10117000162F8091AD04613011F48E7F01C0816023
:101180008093AD04642F8FE994E00E94E2278BA93D
:101190009CA9111102C0916001C09E7F9CAB8BABDA
:1011A0008BA99CA90E94BF0580E090E0DF91CF91C0
:1011B0001F910895FC01E05CFF4F20812E5F2230DB
:1011C00088F4DC01D5962C91D5972B7FD5962C935E
:1011D000D597AF5BBF4F2FEF2C93108260E070E08C
:1011E0000C943A1208950F931F93CF93DF93EC0161
:1011F0008C01005C1F4FF80180818F3FC1F062E0DD
:1012000070E0CE010E943A128FEFF8018083CE0188
:101210000E94020861E08FE994E00E94E22789E7DA
:1012200095E0DF91CF911F910F910C941E2EDF91CD
:10123000CF911F910F9108950F931F93CF93DF9339
:10124000EC018C01005C1F4FF80180818E3FC9F0DA
:1012500060E070E0CE010E943A128EEFF8018083C8
:1012600061E08FE994E00E94E22789E795E00E941F
:101270001E2E0E949B36C45BDF4F688379838A836E
:101280009B83DF91CF911F910F9108952AE0E1E0B8
:10129000F1E0DC01D69601900D922A95E1F70895D0
:1012A000CF92DF92EF92FF920F931F93CF93DF9332
:1012B000EC010E949B366B017C0101E012E01123DE
:1012C00039F0EF8DF8A1808199A1892309F410E00C
:1012D000002301F1EAA1FBA180819CA18923C9F02F
:1012E000111101C001E00E949B366C197D098E0925
:1012F0009F09643171058105910508F3802F812BC9
:10130000DF91CF911F910F91FF90EF90DF90CF90E1
:10131000089500E0112391F3E6CFAF92BF92DF92E0
:10132000EF92FF920F931F93CF93DF9300D0CDB72F
:10133000DEB75C01A89560E070E00E943A124DE3D0
:1013400052E067E472E08FE994E00E94DB1CF50153
:1013500083A985FDD5C066E970E080E090E00E9439
:10136000CA36C50144960E9423058C0162E070E0F4
:10137000C5010E943A12053813400CF4BBC0C501E8
:101380000E945009D82E750186E1E80EF11CC701B4
:101390000E94B5058501045E1F4FC8010E94B50576
:1013A0006AEF70E080E090E00E94CA36C5010E94BA
:1013B0005009382F60E0C7013A830E94C40560E0FD
:1013C000C8010E94C4056AEF70E080E090E00E94CE
:1013D000CA3603501109C8010E94B5056AEF70E0D2
:1013E00080E090E00E94CA36C5010E945009282F73
:1013F00060E0C80129830E94C4056AEF70E080E0C4
:1014000090E00E94CA3629813A81E3E0DE1234C0BE
:10141000333028F4F50183A9313020F01FC0333078
:1014200061F09CC0233011F010E001C012E084FD97
:101430002BC0233009F094C027C0F50183A983FD98
:1014400002C0233021F0222321F010E003C013E07A
:1014500001C012E021502230B8F418C084FD04C04D
:101460002330A1F014E003C0233081F010E03130CC
:1014700041F4223049F470C0F50183A984FF70C0A3
:101480006DC0213009F468C0113051F443E252E0DC
:1014900061E372E08FE994E00E94DB1C11E00AC076
:1014A000123041F445E152E061E372E08FE994E0EB
:1014B0000E94DB1C8DEF810F823070F561E08FE9B7
:1014C00094E00E94D205133049F448EA51E069E003
:1014D00072E08FE994E00E94DB1C34C01430F1F418
:1014E0004CE951E069E072E08FE994E00E94DB1C76
:1014F00014E028C0F50185A9816085AB11E001C029
:1015000010E0F50183A984FD09C0C5010E945009BE
:101510008370833029F702C01330A1F0F50123A9AD
:1015200034A931FD0FC0C50102960E9471058823C0
:1015300049F043EC51E069E072E08FE994E00E94E9
:10154000DB1C15E08DEF810F833060F461E08FE9E3
:1015500094E00E94D20506C012E0A4CF10E0AACF0A
:1015600014E0A8CF60E070E0C5010E943A12A8958F
:10157000812F0F900F90DF91CF911F910F91FF90CE
:10158000EF90DF90BF90AF9008958F929F92AF92AF
:10159000BF92CF92DF92EF92FF920F931F93CF9360
:1015A000DF935B016A0134E6E32EF12CC0E0D0E06A
:1015B0000FEF13E044964C01C4010E942305382F1D
:1015C000292FC817D90734F0801791070CF48C0124
:1015D0003C2F2D2F81E0E81AF10819F0C32FD22FEC
:1015E000EBCFF50111830083F60130832183DF9176
:1015F000CF911F910F91FF90EF90DF90CF90BF9010
:10160000AF909F908F9008950F931F93CF93DF9388
:1016100000D000D0CDB7DEB78C01FC0185A9826077
:1016200085AB62E08FE994E00E94E2270E94562D8C
:10163000F80180819181892BC9F724E630E0AE0161
:101640004F5F5F4FBE016D5F7F4FC8010E94C50AAB
:1016500029813A81F80186A997A92817390730F31B
:10166000E05CFF4F1082F80185A98D7F85AB0F905C
:101670000F900F900F90DF91CF911F910F910895D0
:10168000DF92EF92FF920F931F93CF93DF938C0122
:10169000D42EFC0183A994A9FC01E170FF2780FDF1
:1016A00002C080E101C080E5E801C95BDF4F663020
:1016B00030F0861750F06883E12CF12C0AC086E0E8
:1016C0008883EE24E394F12C04C0888342E0E42E66
:1016D000F12C21110EC06881EF2B11F022E001C026
:1016E00021E081E090E0213011F480E090E00E9460
:1016F000F73CF80180819181019729F4688170E0BD
:10170000C8010E946312DD2029F061E08FE994E0B6
:101710000E94E227C701DF91CF911F910F91FF90A7
:10172000EF90DF900895EF92FF920F931F93CF9366
:10173000DF931F92CDB7DEB77C01162F042FFC017B
:1017400083A994A9623021F4816094AB83AB05C076
:101750008E7FF70194AB83AB11E0F70183A994A9C5
:101760000E94BF0581E090E0113011F480E090E02C
:101770000E94E33C9FEF980F9E3F20F0113049F507
:101780008CE004C0863060F0113029F4682F81317C
:1017900040F060E106C0682F813518F060E501C0B7
:1017A00066E0C70169830E94460920E040E0698144
:1017B000C7010E94400B002371F061E08FE994E0C3
:1017C0000F90DF91CF911F910F91FF90EF900C94AC
:1017D000E22788E1D9CF0F90DF91CF911F910F9130
:1017E000FF90EF900895CF92DF92EF92FF920F93C8
:1017F0001F93CF93DF931F92CDB7DEB76C0182E0CA
:1018000090E00E94F13C8C018F3F2FEF920761F036
:1018100090FF0AC08091AD0481608093AD0461E0C7
:101820008FE994E00E94E22722E030E040E063E2AA
:1018300070E0C60146960E94110522E030E047E0C4
:1018400069E270E0C60149960E94110522E030E08D
:1018500041E063E270E0C6014C960E94110521E070
:1018600030E043E069E270E0C6014F960E94110546
:1018700021E030E044E069E270E0C60182960E9417
:101880001105C60102960E945205C6010E94020877
:10189000C6010E944F120F3F8FEF180731F4D60197
:1018A000D4961C921E92D39705C0F60114AB03ABDD
:1018B00000FF02C062E001C061E08BE090E069835C
:1018C0000E94F13C7C01860107591F4FD8018D937E
:1018D0009C9389E090E00E94F13CF601E559FF4FAE
:1018E000918380836981EF20E09419F4D8011D92DF
:1018F0001C92019621F48CED90E091838083F60197
:10190000EF59FF4F10821182128213823496108297
:10191000118212821382F60115AA1786108A118A83
:10192000128A81E190E069830E94E33CF601838B97
:1019300011A612A613A614A682E190E00E94E33C31
:10194000F60185A716A617A610AA11AA83E190E0B2
:101950000E94E33CF60182AB15A216A217A210A6C4
:101960008601005C1F4FF801108231961082C6017B
:101970000E945C07C6010E948D09D601D3962D9165
:101980003C91D497698125FD05C09FEF980F923057
:1019900008F4682F23FD02C0833011F190E024FD8C
:1019A00002C0843011F131FD02C0853019F1992354
:1019B00019F00E94562DFDCF40E0C6010E94930B06
:1019C00080918E048823D1F0C6010F90DF91CF91D2
:1019D0001F910F91FF90EF90DF90CF900C941C0916
:1019E00097E0F801908391E0DACF98E0D8019C93DA
:1019F00091E0D9CF89E0F8018083DBCF0F90DF91B0
:101A0000CF911F910F91FF90EF90DF90CF900895AD
:101A10002F923F924F925F926F927F928F929F92FE
:101A2000AF92BF92CF92DF92EF92FF920F931F93EC
:101A3000CF93DF9300D000D01F92CDB7DEB78C01DB
:101A400081E89FEF9A8389830E949B366B017C011A
:101A5000580120E4A20EB11CD5018C918F3F21F4D6
:101A6000F801EF5BFF4FF4C38E3F09F049C0F80166
:101A700085A986FF2CC024E630E0AE014F5F5F4FA2
:101A8000BE016D5F7F4FC8010E94C50A29813A815E
:101A9000D801D8968D919C91D9972817390798F439
:101AA000F801E45BFF4F80819181A281B381C81A64
:101AB000D90AEA0AFB0AB8EBCB16BBE0DB06E10465
:101AC000F10408F4C0C3C8010E940208BCC382FF2D
:101AD000BAC324E630E0AE014F5F5F4FBE016D5FD9
:101AE0007F4FC8010E94C50A29813A81F80186A961
:101AF00097A92817390708F4A6C385A98B7F85AB5A
:101B0000D5017C90C8010E945009982EF80185A942
:101B100086FF2BC0E85BFF4F40815181628173815A
:101B200016012701241A350A460A570A29EE2216F9
:101B300023E032064104510408F4BAC0D801D39618
:101B40008C9183FD05C0892D8370833009F482C395
:101B50006624639420E0F80185A980FFACC0D5011C
:101B60008C91833009F0A7C092C3F7E07F1247C081
:101B700089819A8181389F4F59F424E630E0AE0183
:101B80004F5F5F4FBE016D5F7F4FC8010E94C50A66
:101B900029813A81D801D6968D919C91D7972817A3
:101BA000390718F0F50110821EC4F80181A592A52D
:101BB000A3A5B4A586309105A105B105D0F445A132
:101BC00056A167A170A516012701241A350A460AF5
:101BD000570A21EE221623E9320624E04206510478
:101BE00040F00196A11DB11D81A792A7A3A7B4A79C
:101BF0005FC087E0D5018C93612C27E05CC0F801C1
:101C000083A984FD55C0892D8370833009F44CC0AD
:101C1000F8E07F1669F0F80186A597A5A0A9B1A9FB
:101C2000892B8A2B8B2B21F4C6A6D7A6E0AAF1AA72
:101C3000F801E45BFF4F80819181A281B38116019D
:101C40002701281A390A4A0A5B0A29EE221623E0DC
:101C500032064104510490F0F80186A597A5A0A989
:101C6000B1A916012701281A390A4A0A5B0A29EE86
:101C7000221623E032064104510420F438E07312A6
:101C800017C00CC048E0741649F062A96F5F6E3F40
:101C900028F462AB83E190E00E94F73C88E0F50114
:101CA0008083612C28E007C016A617A610AA11AAE7
:101CB0006624639420E0F8018581882309F462C0DA
:101CC00086E0D5018C93781699F063896F5F6E3F3B
:101CD00028F4638B81E190E00E94F73CF8011786BD
:101CE000108A118A128AC386D486E586F68648C091
:101CF00024E630E0AE014F5F5F4FBE016D5F7F4F66
:101D0000C8010E94C50A29813A81F80186A997A9CC
:101D10002817390738F0D5011C92C80102960E9495
:101D2000430561C3F80183859485A585B6851601B1
:101D30002701281A390A4A0A5B0A20EE221623E9EB
:101D4000320624E042065104D8F087859089A189A3
:101D5000B2890196A11DB11D8787908BA18BB28B93
:101D60000797A105B10508F0F0C2C80102960E94CC
:101D70004305D8011B961D921D921D921C921E9721
:101D8000612C26E0F80183A994A9A8014E5B5F4F5E
:101D90004A0192FD1BC080918604909187048E3E7B
:101DA000924074F48091820490918304863C924026
:101DB0003CF48091840490918504863C924034F0F8
:101DC0008AE0F5018083612C2AE043C0662009F493
:101DD00040C08CEF870D873040F460E070E0C801B0
:101DE0000E943A12D5011C92712C24E630E0AE011B
:101DF0004F5F5F4FBE016D5F7F4FC8010E94C50AF4
:101E0000F80143A941FD0CC080819181019741F403
:101E10002B813C8186AD97AD2817390708F093C216
:101E200089819A81D801D6962D913C91D7978217B6
:101E3000930708F053C2D801D8962D913C91D997B9
:101E40008217930708F431C222E027114AC26624A0
:101E50006394F4012083D5018C91871509F4BBC0EC
:101E60008130D9F5C8010E94020860E070E0C80125
:101E70000E943A128EEF870D823040F56091730414
:101E800070917404809175049091760420E13EE095
:101E900040E050E00E94693ABA01A90180917704BC
:101EA00090917804A0917904B0917A04480F591F59
:101EB0006A1F7B1F409377045093780460937904E2
:101EC00070937A048DE090E00E94053DF801E3599B
:101ED000FF4F10823D9710827AC0823061F4C801B2
:101EE0000E940208F801E95BFF4F608170E0C801C1
:101EF0000E94631231C28330E9F4F801E95BFF4FBD
:101F0000608170E0C8010E946312F80183A994A95E
:101F100091FD1FC2C80102960E947105882309F431
:101F200018C289E0D5018C9360E070E0C8010E947E
:101F30003A120BC2843021F4C8010E9402082CC05E
:101F4000863049F4C8010E94020860E070E0C801D0
:101F50000E943A123CC08A3091F460E070E0C801FF
:101F60000E943A120E949B366C197D098E099F09C6
:101F70006838734181059105B0F4A895F3CF853099
:101F800071F4C8010E940208F801E95BFF4F60810B
:101F900070E0C8010E94631260E070E009C0873001
:101FA00089F2883061F4C8010E94020862E070E0A2
:101FB000C8010E943A12C8010E94040B08C060E0E8
:101FC00070E0C8010E943A12C8010E94020889E725
:101FD00095E00E941E2E611017C063E0262E72103D
:101FE00013C0F801E85BFF4F80819181A281B3812A
:101FF000C81AD90AEA0AFB0A21EDC21627E0D2065E
:10200000E104F10408F4A1C1F801EF5BFF4F708215
:10201000D5018C91833031F4BA9680819181181664
:10202000190624F0F80185A984FF32C0C8010E9476
:10203000DA05F801EF59FF4F608171818281938148
:102040000E94CE069B01AC016F3FEFEF7E078E072B
:102050009E07F1F0F801E559FF4FA081B1810E9480
:10206000AB3A3297C080D180EE24D7FCE094FE2CAE
:102070006C197D098E099F09349797FD79C160839A
:102080007183828393838091AD0480688093AD04D3
:10209000D5018C91833009F0A6C17801BCE5EB0E27
:1020A000F11C6801E8E5CE0ED11CF601808191811A
:1020B000A281B381F70180839183A283B3830E94BD
:1020C0008834F801E05BFF4F80809180A280B3806C
:1020D000681979098A099B09D6016D937D938D93BF
:1020E0009C931397F80123A934A932FD57C0D70157
:1020F000CD90DD90ED90FC906C157D058E059F05D3
:1021000009F44CC0822F817090E00E94E33C9091D2
:102110007B04209186043091870490FD16C02A38F4
:10212000B2E03B070CF029C1409182045091830436
:102130004A3852400CF021C14091840450918504EA
:102140004A3852400CF019C113C0293542E0340717
:102150007CF440918204509183044D36524044F403
:1021600040918404509185044D3652400CF423C1B3
:1021700091FD0AC12C3B32400CF002C12091820437
:1021800030918304283A32400CF0FAC02091840444
:1021900030918504283A32400CF0F2C0F801E3593E
:1021A000FF4FA081AA23E1F0B0E020E83EEE46E335
:1021B00050E00E94A03AC0907304D0907404E09064
:1021C0007504F0907604C616D706E806F90640F0C6
:1021D0001082F80185A9846085ABC8010E941C09A2
:1021E0005801F0E6AF0EB11CD5018C91882309F49B
:1021F000FAC00E949B366B017C01F801E85BFF4F3F
:1022000080819181A281B381C81AD90AEA0AFB0AA6
:10221000F501A081B0E020EA3BEB4DE050E00E94E8
:10222000A03AC616D706E806F90608F4DCC0108204
:10223000D801D5968C91D5978460D5968C93C8019A
:102240000E941C09D0C0F801EF5BFF4FD5018C91B3
:102250008083C9C087E0F5018083C8010E9402081D
:10226000F7E07F1651F0F80165A56F5F6E3F28F427
:1022700065A782E190E00E94F73CD8019596CD9247
:10228000DD92ED92FC929897612C27E064CC91103E
:1022900007C041E062E0C8012D830E94930B2D81AD
:1022A000F80185A98E7F85AB06CD2D913C911197C4
:1022B0002130310509F03FC0DA962D913C91DB9732
:1022C0008217930748F442FF36C0DC962D913C916B
:1022D000DD972817390778F523E0B7CD21E0B5CD94
:1022E00024E0F4018081F801ED5BFF4F281729F00D
:1022F000C082D182E282F382AACD80819181A281C3
:10230000B381B701A601481B590B6A0B7B0B213027
:1023100029F489E190E0A0E0B0E004C08AEF90E009
:10232000A0E0B0E0481759076A077B0708F48FCD93
:10233000D5012C938CCDF80124AD35AD2817390784
:1023400078F220E082CD25E0CCCFC8010E94040BBA
:102350004AC0C8010E94DD07B1E07B1238CE10925E
:1023600073041092740410927504109276042FCEA8
:10237000108211821282138286CE869591601CC0D3
:1023800086958695926018C02B3832400CF006CFA7
:1023900020918204309183042B3832400CF0FECE21
:1023A00020918404309185042B3832400CF0F6CE15
:1023B00086959D7F01C09E7F90937B0421E040E045
:1023C000682FC8010E94400BD8018D919C91019704
:1023D00009F4E4CEF801E95BFF4F608170E0C801C9
:1023E0000E946312DBCE0F900F900F900F900F9012
:1023F000DF91CF911F910F91FF90EF90DF90CF90E1
:10240000BF90AF909F908F907F906F905F904F9014
:102410003F902F900895CF92DF92EF92FF920F930B
:102420001F93FC01E05CFF4F2081FC01263029F462
:10243000C384D484E584F68404C0C5A0D6A0E7A0F4
:10244000F0A40E949B368B019C01C701B60160522B
:102450007C468B4F9F4F601B710B820B930B1F9120
:102460000F91FF90EF90DF90CF90089585E094E07A
:102470000C940B074FB7F8946115710539F420E4FB
:102480003FE130938B0020938A0004C010928B00B0
:1024900010928A00FC01718360834FBF0895E0E8C9
:1024A000F0E0108220E43FE1309387002093860023
:1024B00021E120938100229A20812062208360E024
:1024C00070E00C943A12AB019B01265031092E3278
:1024D000310538F465E8649F9001659F300D112443
:1024E00014C09B01245331092D313105D0F46627E6
:1024F00057FD6095762F40565F4F6F4F7F4F9A0183
:1025000045E0220F331F4A95E1F730938B0020936B
:102510008A0021E030E0FC013183208380E090E0FC
:10252000089581E090E00895FC01138212828BE50A
:1025300091E091838083442311F082E001C081E027
:1025400083872287618714820895682F80EC95E045
:102550000C945535CF93DF93D62FC72FFC0191856F
:102560009062692F70E080EC95E00E94BB3582E1BB
:102570000E94A5128D2F0E94A5128C2F0E94A512D9
:1025800080EC95E00E94D0358111FACFDF91CF9198
:102590000895FC018385882309F18285882311F041
:1025A00087E0682760FD03C080EC91E002C080E80E
:1025B00091E09587848761FF05C0848595858F7735
:1025C0009587848762FF05C0848595859E7F958762
:1025D000848764857585CF010C94AA120895CF93E2
:1025E000C62FFC0191859062692F70E080EC95E028
:1025F0000E94BB3583E10E94A5128C2F0E94A51278
:1026000080EC95E00E94D0358111FACFCF910895EA
:10261000EF92FF920F931F93CF93DF931F92CDB74B
:10262000DEB77C01162FFC01858564FD806115FDF8
:10263000886016FD846017FD8260082F442311F026
:10264000006A01C00062602FC70149830E94EF1237
:10265000602F6F7DC7010E94EF12F70185854981C8
:1026600010FD806111FD886012FD846013FD8260A1
:10267000182F442311F0106A01C01062612FC701A6
:102680000E94EF12612F6F7DC7010F90DF91CF91F4
:102690001F910F91FF90EF900C94EF1240E00C947B
:1026A0000813FC012385222339F061E00E944E13B8
:1026B00080ED97E00C94F2360895CF93DF93CDB779
:1026C000DEB728970FB6F894DEBF0FBECDBFFC0172
:1026D0002385222319F128E0EFE4F1E0DE011196D1
:1026E00001900D922A95E1F7FC012781241710F43F
:1026F0004FEF420FFE013196E40FF11DE40FF11D83
:102700002081260F2068622F28960FB6F894DEBF2E
:102710000FBECDBFDF91CF910C944E1328960FB60C
:10272000F894DEBF0FBECDBFDF91CF910895FC01BD
:102730002385222339F06581262F246025836C6050
:102740000C944E130895CF92DF92EF92FF920F9365
:102750001F93CF93DF9300D0CDB7DEB76C01DC01C0
:102760001B968C91882319F16770B8E06B9FB001BC
:1027700011246064C60149835A830E944E13498123
:10278000042F5A81152FE12CF12CF80161918F0152
:10279000D601ED91FC910190F081E02DC6010995E3
:1027A000BFEFEB1AFB0AE8E0EE16F10471F70F90A9
:1027B0000F90DF91CF911F910F91FF90EF90DF90DD
:1027C000CF900895FC012385222319F041E00E9457
:1027D000081381E090E008950F931F93CF93DF9348
:1027E000EC01142F022F6985606270E080EC95E0A7
:1027F0000E94BB3580E00E94A5128FE10E94A512C5
:1028000080EC95E00E94D035882319F08B858230CA
:1028100061F16985606270E080EC95E00E94BB35F3
:102820008CE00E94A5128FE10E94A51280EC95E039
:102830000E94D035882319F08B858230B1F06985EC
:10284000606270E080EC95E00E94BB3581E00E9400
:10285000A51280E00E94A51280EC95E00E94D03580
:102860009B85882341F0923031F41B86DF91CF9114
:102870001F910F910895923011F481E08B871230EF
:1028800018F08C8188608C831F831886002329F0C0
:10289000113019F48C8184608C831D861C8613E0B2
:1028A00068E3CE010E94EF1268E1CE010E94EF12B0
:1028B0001150B1F768E2CE010E94EF1268E0CE013C
:1028C0000E94EF1265E070E080E090E00E94CA365E
:1028D0006C816062CE010E944E1365E070E080E082
:1028E00090E00E94CA366C816062CE010E944E1355
:1028F00065E070E080E090E00E94CA368CE08D8355
:10290000CE010E949713CE010E94511382E08E8364
:1029100066E0CE01DF91CF911F910F910C944E1381
:10292000CF93DF93EC018B858823F1F0698560629A
:1029300070E080EC95E00E94BB3582E10E94A51218
:1029400080EC95E00E94D0356985606270E041E0DE
:1029500050E080EC95E00E94AE3580EC95E00E945E
:10296000053580958F7101C080E0DF91CF9108958A
:10297000DC011496EC91149715968C911597E81735
:1029800040F4F0E0EE0FFF1FEF5EFE4F808191817B
:10299000089514961C9280E090E00895DC0114964E
:1029A000EC91149715968C91E81740F4F0E0EE0F37
:1029B000FF1FE95DFE4F8081918108958FE994E0CA
:1029C0000E94511380E090E00895CF93DF93EC01D3
:1029D00064EF71E080E090E00E94CA368C81882329
:1029E00029F0813031F48BE095E005C080E195E07D
:1029F00002C086E095E0DF91CF910895FC019181BE
:102A00008381911108C02281211105C0811103C069
:102A10002481222341F0981711F081E008959281DA
:102A200084819813FACF80E00895CF92EF920F93AC
:102A3000CF93DF9300D000D000D0CDB7DEB790E0C9
:102A4000CE2CE02E022F242F462FBC01CE01019662
:102A50000E942F33CE0101960E94DC3326960FB6DA
:102A6000F894DEBF0FBECDBFDF91CF910F91EF90F5
:102A7000CF900895CF93DF93EC010E9445332093CC
:102A8000990430939A0440939B0450939C04609360
:102A90009D0470939E04E9E9F4E01F927F93848182
:102AA0001F928F9383811F928F9382811F928F93A6
:102AB00081811F928F9380811F928F932FE531E048
:102AC0003F932F93DF93CF930E94EF3A8DB79EB73A
:102AD00040960FB6F8949EBF0FBE8DBFDF91CF9189
:102AE0000895BF92CF92DF92EF92FF920F931F93C0
:102AF000CF93DF93B42E1092E20461157105810526
:102B0000910569F480E38093E104AFEFA40FC1EE77
:102B1000D4E0EC2FFD2F9A2F9C1B20E319C0C2EEAE
:102B2000D4E02AE0C22ED12CE12CF12C8E01A70199
:102B300096010E94693A605D6A93AC2FA01BAB0DB1
:102B4000B901CA01611571058105910581F7E1CFD0
:102B5000892F8E0F181614F42293FACFA7FDA0E048
:102B6000CE018A1B9109A7FD9395DF91CF911F910B
:102B70000F91FF90EF90DF90CF90BF900895CF938B
:102B8000DF93EC01188286EE90E098878F839A8716
:102B900089879C878B8768E1CE0105960E94220475
:102BA00060E0CE010696DF91CF910C94BD0420E049
:102BB00041E060E20C9494120F931F93CF93DF9344
:102BC000EC0189010E945D13B801CE01DF91CF9124
:102BD0001F910F910C947039CF93DF93EC0121E793
:102BE00031E041E050E060E070E08FE994E00E9465
:102BF000DC15EC81F0E0EE0FFF1FED5BFE4F608116
:102C000071818FE994E00E94703961E08C818111BB
:102C100060E041E085E094E00E94B40881E09C819E
:102C2000911180E08093F1048CE695E0DF91CF91E3
:102C30000895CF93DF93EC016C81611102C061E0D4
:102C400006C040E085E094E00E94930B60E085E0E0
:102C500094E00E94A60821E731E041E050E060E006
:102C600070E08FE994E00E94DC15EC81F0E0EE0F5B
:102C7000FF1FE55FFE4F608171818FE994E00E9444
:102C80007039609138047091390482E090E00E94BC
:102C90000D3D64EF71E080E090E00E94CA368CE662
:102CA00095E0DF91CF910895CF93DF93EC0121E779
:102CB00031E041E050E060E070E08FE994E00E9494
:102CC000DC156C8170E04AE050E08FE994E00E94EE
:102CD0001C3A60E871E08FE994E00E94703964EF7B
:102CE00071E080E090E00E94CA366C8180913804E7
:102CF00080FF02C022E001C021E081E090E02130AD
:102D000011F480E090E00E94F73C20E040E06C810C
:102D100085E094E00E94400B8CE695E0DF91CF9136
:102D20000895CF93DF93EC0121E731E041E050E0DB
:102D300060E070E08FE994E00E94DC15EC81F0E047
:102D4000EE0FFF1FE95BFE4F608171818FE994E018
:102D50000E94703961E08C81811160E085E094E02F
:102D60000E944A0864EF71E080E090E00E94CA3659
:102D70008CE695E0DF91CF910895CF93DF93EC013E
:102D800021E731E041E050E060E070E08FE994E05D
:102D90000E94DC15EC81F0E0EE0FFF1FE95BFE4FB7
:102DA000608171818FE994E00E94703961E08C81CB
:102DB000811160E085E094E00E94580864EF71E0C2
:102DC00080E090E00E94CA368CE695E0DF91CF91DA
:102DD0000895CF93DF93EC0121E731E041E050E02B
:102DE00060E070E08FE994E00E94DC15EC81F0E097
:102DF000EE0FFF1FE95BFE4F608171818FE994E068
:102E00000E94703961E08C81811160E085E094E07E
:102E10000E94660864EF71E080E090E00E94CA368C
:102E20008CE695E0DF91CF910895CF93DF93EC018D
:102E300021E731E041E050E060E070E08FE994E0AC
:102E40000E94DC15EC81F0E0EE0FFF1FE95BFE4F06
:102E5000608171818FE994E00E94703961E08C811A
:102E6000811160E085E094E00E94740864EF71E0F5
:102E700080E090E00E94CA368CE695E0DF91CF9129
:102E80000895CF93DF93EC0121E731E041E050E07A
:102E900060E070E08FE994E00E94DC15EC81F0E0E6
:102EA000EE0FFF1FE95BFE4F608171818FE994E0B7
:102EB0000E94703961E08C81811160E085E094E0CE
:102EC0000E94820864EF71E080E090E00E94CA36C0
:102ED0008CE695E0DF91CF910895CF93DF93EC01DD
:102EE00021E731E041E050E060E070E08FE994E0FC
:102EF0000E94DC15EC81F0E0EE0FFF1FE95BFE4F56
:102F0000608171818FE994E00E94703961E08C8169
:102F1000811160E085E094E00E94980864EF71E020
:102F200080E090E00E94CA368CE695E0DF91CF9178
:102F30000895CF93DF93EC0121E731E041E050E0C9
:102F400060E070E08FE994E00E94DC15EC81F0E035
:102F5000EE0FFF1FE95BFE4F608171818FE994E006
:102F60000E94703964EF71E080E090E00E94CA3600
:102F70008C81811103C08EE295E002C08CE695E061
:102F8000DF91CF910895CF93DF93EC0121E731E0FA
:102F900041E050E060E070E08FE994E00E94DC15D1
:102FA000EC81F0E0EE0FFF1FE95BFE4F6081718165
:102FB0008FE994E00E94703964EF71E080E090E066
:102FC0000E94CA368C81811104C085E094E00E9481
:102FD000310780E090E0DF91CF9108950F931F9328
:102FE000CF93DF93EC018C01015F1F4F40E150E074
:102FF000C8010E94CE3A1F8EB801CE01DF91CF9159
:103000001F910F910C947039EF92FF920F931F93C1
:10301000CF93DF93EC01F62EE42E8C01015F1F4F5E
:1030200040E150E0B901C8010E94CE3A1F8E4E2DFA
:103030006F2DCE010E945D13B801CE01DF91CF91BB
:103040001F910F91FF90EF900C94703921E030E0C8
:1030500043E066E270E00C9411050F931F93CF9349
:10306000DF93EC018FE994E00E949014982F917007
:1030700080FD0CC08B81823049F44C815D816E8172
:103080007F81452B462B472B09F41B828B8188239C
:1030900051F08130E9F54C815D816E817F81452B56
:1030A000462B472BA9F1992371F14C815D816E81EB
:1030B0007F81452B462B472B41F4811106C00E948E
:1030C0009B366C837D838E839F830E949B360C810D
:1030D0001D812E813F81601B710B820B930B2B8115
:1030E000211107C06233710581059105C8F181E0A6
:1030F00008C02130A9F5643F71408105910580F138
:1031000082E08B832DC01C821D821E821F8228C0FC
:10311000992331F1488559856A857B85452B462B56
:10312000472BF1F08230E1F40E949B360885198527
:103130002A853B85601B710B820B930B60317742B4
:103140008105910568F0188619861A861B8662E04B
:1031500089E795E0DF91CF911F910F910C943E2E5E
:10316000DF91CF911F910F910895FC0183818130F0
:1031700051F44481558166817781452B462B472B3D
:1031800011F41382089580E00895FC018381823058
:1031900099F4448155816681778141155105610516
:1031A000710551F0408751876287738714821582B9
:1031B0001682178281E0089580E00895DC0183EE95
:1031C00091E011969C938E9382E693E013969C93E4
:1031D0008E93129715961C92159715962C9115970C
:1031E000E22FF0E0EE0FFF1FE95DFE4F808191813D
:1031F000892B29F02F5F15962C931597EECF089504
:1032000020914504225031E0223008F430E0FC01E6
:1032100036830895DC018DEE91E011969C938E9398
:103220008CE593E013969C938E93129715961C92BF
:10323000159715962C911597E22FF0E0EE0FFF1FD2
:10324000EF5EFE4F80819181892B29F02F5F1596CB
:103250002C931597EECF0895CF93DF93EC0184E084
:1032600090E00E94E33C8F3F39F4188260E084E0F4
:1032700090E00E94F73C01C0888385E090E00E94C6
:10328000E33C8F3F39F4198260E085E090E00E94D2
:10329000F73C01C0898386E090E00E94E33C8F3FC9
:1032A00041F485E08A8365E086E090E00E94F73C87
:1032B00001C08A8387E090E00E94E33C8F3F41F4A5
:1032C00086E08B8366E087E090E00E94F73C01C0D7
:1032D0008B8388E090E00E94E33C8F3F49F487E3D2
:1032E0008C8367E388E090E0DF91CF910C94F73C0A
:1032F0008C83DF91CF910895CF92DF92EF92FF926E
:10330000CF93DF93EC01809145048450873008F41B
:1033100074C08881882309F470C0CE010E94FE1415
:10332000882309F46AC00E949B366B017C018F815F
:103330009885A985BA85A7019601281B390B4A0BE8
:103340005B0BDA01C901893E9340A105B10508F480
:1033500054C00E944533E52F2093990430939A047A
:1033600040939B0450939C0460939D0470939E042F
:103370005D8380919D048E8399814A8150E02CE386
:10338000929F400D511D11249B812C8130E06CE3F4
:10339000969F200D311D112490E06CE3E69F800D77
:1033A000911D112424173507A8F48417950730F0D0
:1033B0002817390730F04817590778F08217930714
:1033C00078F4809145048E3FA1F485E094E00E945A
:1033D000DA080FC08417950788F78217930748F01B
:1033E0002F5F3F4F2817390720F085E094E00E94B7
:1033F0001C09CF82D886E986FA86DF91CF91FF90AB
:10340000EF90DF90CF90089582E795E00E94DE185C
:103410008CE695E00E940A1981E092E0909368059D
:10342000809367058EE493E090936A058093690525
:103430008BE092E0909361058093600582E493E0D5
:10344000909363058093620585E192E090935C051B
:1034500080935B0586E393E090935E0580935D0522
:1034600087EF91E0909357058093560586E193E0AE
:1034700090935905809358058FE192E090935205FF
:10348000809351058BEE92E0909354058093530501
:1034900089E292E090934D0580934C058BED92E08C
:1034A00090934F0580934E0583E392E090934805F7
:1034B0008093470585E293E090934A058093490500
:1034C0008DE392E0909343058093420589E093E079
:1034D000909345058093440587E492E090933E05E0
:1034E00080933D0589EF92E09093400580933F05DE
:1034F00081E592E0909339058093380586EC92E05F
:1035000090933B0580933A058BE592E090933405C8
:103510008093330587EB92E09093360580933505D1
:1035200025E632E030932F0520932E052FE632E07A
:1035300030932A052093290590932C0580932B0521
:1035400089E792E0909325058093240583E892E033
:103550009093200580931F058DE892E090931B05C2
:1035600080931A0587E992E09093160580931505DC
:1035700080E992E0909318058093170521EA32E0E4
:103580003093110520931005909313058093120535
:103590008BEA92E090930C0580930B0585EB92E00B
:1035A00090930705809306058FEB92E090930205B8
:1035B0008093010589EC92E09093FD048093FC04D4
:1035C00083ED92E09093F8048093F7048BE592E00A
:1035D0009093FA048093F9048DED92E09093F304B4
:1035E0008093F20480E592E09093F5048093F404D4
:1035F0001092E6041092E7041092E8041092E90495
:103600001092EA041092EB041092EC041092ED0474
:103610001092EE041092F0041092EF048FE994E0FF
:103620000E94D71540E050E0BA0189E994E00E9479
:10363000D13280EA95E1AFEFBFEF8093950490938C
:103640009604A0939704B093980480E894E00E94B5
:10365000F70360E481E894E00C945B04CF92DF927E
:10366000EF92FF920F931F93CF93DF93EC010E9491
:103670009B366B017C0189819A81AB81BC81A7015A
:103680009601281B390B4A0B5B0BDA01C901883EF6
:103690009340A105B10508F469C0CE0106960E94C9
:1036A000DA049C878B87CE0105960E943B048F3FEE
:1036B00048E0940719F098878F8302C018861F820C
:1036C00068E670E080EC95E00E94BB356EE080EC2F
:1036D00095E00E94553560E280EC95E00E945535FA
:1036E00080EC95E00E94D03568E670E080EC95E0D3
:1036F0000E94BB3561E180EC95E00E94553580EC7D
:1037000095E00E94D03542E050E068E670E080EC41
:1037100095E00E94AE3580EC95E00E9405355AE0B8
:10372000859F800111241A87098780EC95E00E940B
:103730000535992756E0959587955A95E1F745E027
:10374000489F9001499F300D112435952795200FF2
:10375000311F2D3F89E0380719F03A87298702C0C9
:103760001A861986C982DA82EB82FC82DF91CF91B8
:103770001F910F91FF90EF90DF90CF900895CF921F
:10378000DF92EF92FF920F931F93CF93DF937C0111
:103790008A01462F60E00E945D13F801019000202D
:1037A000E9F73197DE2ED01A80E18D1510F470E123
:1037B000D72EC02EC02FD12F8C2F8C198D1528F409
:1037C0006991C7010E94E213F7CF80E1D81631F06A
:1037D00060E2C7010E94E213D394F7CFDF91CF914B
:1037E0001F910F91FF90EF90DF90CF900895EF928F
:1037F000FF920F931F93CF93DF93EC017B01BA01EC
:103800008C01015F1F4F40E150E0C8010E94CE3A99
:103810001F8EA801B701CE01DF91CF911F910F91AB
:10382000FF90EF900C94BF1BCF93DF93EC01A89512
:103830001E8622E042E060E10E94EC1367E0CE01C8
:103840000E94C91267E0CE010E94D20548E050E014
:103850006AE371E083EC94E00E94B33A43EC54E0F5
:1038600060E0CE010E94A31348E050E062E371E003
:1038700083EC94E00E94B33A43EC54E061E0CE0163
:103880000E94A31348E050E06AE271E083EC94E008
:103890000E94B33A43EC54E062E0CE010E94A313CD
:1038A00048E050E062E271E083EC94E00E94B33AB9
:1038B00043EC54E063E0CE010E94A313CE010E94CA
:1038C000511348E151E060E070E0CE010E94F71B27
:1038D00022E131E041E050E060E070E0CE010E9482
:1038E00004186BE673E0CE010E94EE176CED75E0F4
:1038F00080E090E00E94CA36A895DF91CF910895AC
:1039000080EC95E00E9494350E9443338EE894E069
:103910000E942C198FE994E00E94141C85E094E029
:103920000C94F30B88E10FB6F8948093600010922A
:1039300060000FBE60E971E080E090E00E94CA364E
:1039400026E040E052EC61E070E08FE196E00E94FA
:103950001B3883EE94E00E9426180E94801C8BE79F
:1039600094E00E94BF152FE088E190E00FB6F89434
:10397000A895809360000FBE209360008DE090E0DA
:103980000E94EB3C6F3F7F4F8F4F9F4F39F440E0D9
:1039900050E0BA018DE090E00E94053D8DE090E09E
:1039A0000E94EB3C609377047093780480937904D1
:1039B00090937A0408950F931F93CF93DF93EC01B4
:1039C0008A01AB0160E070E00E94F71BA80161E092
:1039D00070E0CE01DF91CF911F910F910C94F71BF6
:1039E000CF93DF93EC011C828E81882399F02C8188
:1039F000E22FF0E0EE0FFF1FE95DFE4F8081918125
:103A000034E0873F930719F42F5F2C83F0CF825F58
:103A10009440D1F34A815B8160E070E08FE994E0EB
:103A20000E94F71BEC81F0E0EE0FFF1FE95DFE4FF7
:103A30000190F081E02D4281538161E070E08FE9D7
:103A400094E0DF91CF910C94F71BFC0184818F5F90
:103A500084832581281708F414828681882399F0AD
:103A60003481A32FB0E0AA0FBB1FA95DBE4F8D917B
:103A70009C9144E0873F940719F43F5F3483F0CF73
:103A8000825F9440D1F3E481E21758F4F0E0EE0F46
:103A9000FF1FE95DFE4F0190F081E02D42815381CF
:103AA00002C041EC52E061E070E08FE994E00C94D8
:103AB000F71BFC0114824281538160E070E08FE9C2
:103AC00094E00E94F71BE0911101F09112014281F4
:103AD000538161E070E08FE994E00C94F71BFC01E6
:103AE00084818F5F84839581981708F41482E48120
:103AF000E91758F4F0E0EE0FFF1FEF5EFE4F019064
:103B0000F081E02D4281538102C041EC52E061E03E
:103B100070E08FE994E00C94F71BCF93DF93EC01F6
:103B20004A815B8160E070E08FE994E00E94F71BBE
:103B3000E1E08091F104813009F4E0E0EC83F0E011
:103B4000EE0FFF1FED5BFE4F81818F9380818F937E
:103B500083E791E09F938F9383EC94E09F938F93FF
:103B60000E94EF3A0F900F900F900F900F900F90D0
:103B700043EC54E061E070E08FE994E0DF91CF9195
:103B80000C94BF1BCF93DF93EC018091380480FD30
:103B900046C086E08D8380E18E8387E791E09F9326
:103BA0008F9380913A018F93809139018F9383ECA9
:103BB00094E09F938F930E94EF3A43EC54E060E0CF
:103BC00070E08FE994E00E94BF1B90914C049C83AD
:103BD0008D810F900F900F900F900F900F9098176E
:103BE00008F48C838C811F928F938DE791E09F93D3
:103BF0008F9383EC94E09F938F930E94EF3A0F9002
:103C00000F900F900F900F900F9043EC54E061E0F5
:103C100070E08FE994E0DF91CF910C94BF1B86E0B8
:103C20008D8380E58E838AE791E0B9CFCF93DF93D0
:103C3000EC014A815B8160E070E08FE994E00E94D2
:103C4000F71BE0913804F0913904F695E795E1709F
:103C5000EC83F0E0EE0FFF1FE95BFE4F81818F9355
:103C600080818F9383E791E09F938F9383EC94E01F
:103C70009F938F930E94EF3A0F900F900F900F90A9
:103C80000F900F9043EC54E061E070E08FE994E016
:103C9000DF91CF910C94BF1BCF93DF93EC014A814E
:103CA0005B8160E070E08FE994E00E94F71BE09197
:103CB0003904E695E170EC83F0E0EE0FFF1FE95B5D
:103CC000FE4F81818F9380818F9383E791E09F9353
:103CD0008F9383EC94E09F938F930E94EF3A0F9021
:103CE0000F900F900F900F900F9043EC54E061E015
:103CF00070E08FE994E0DF91CF910C94BF1BCF93DC
:103D0000DF93EC014A815B8160E070E08FE994E031
:103D10000E94F71BE0913904E2FBEE27E0F9EC8307
:103D2000F0E0EE0FFF1FE95BFE4F81818F938081F2
:103D30008F9383E791E09F938F9383EC94E09F931D
:103D40008F930E94EF3A0F900F900F900F900F906B
:103D50000F9043EC54E061E070E08FE994E0DF9174
:103D6000CF910C94BF1BCF93DF93EC014A815B8111
:103D700060E070E08FE994E00E94F71BE091380466
:103D8000F0913904F695E795F695E795E170EC83A7
:103D9000F0E0EE0FFF1FE95BFE4F81818F93808182
:103DA0008F9383E791E09F938F9383EC94E09F93AD
:103DB0008F930E94EF3A0F900F900F900F900F90FB
:103DC0000F9043EC54E061E070E08FE994E0DF9104
:103DD000CF910C94BF1BCF93DF93EC014A815B81A1
:103DE00060E070E08FE994E00E94F71BE0913804F6
:103DF000F091390483E0F695E7958A95E1F7E17053
:103E0000EC83F0E0EE0FFF1FE95BFE4F81818F93A3
:103E100080818F9383E791E09F938F9383EC94E06D
:103E20009F938F930E94EF3A0F900F900F900F90F7
:103E30000F900F9043EC54E061E070E08FE994E064
:103E4000DF91CF910C94BF1BCF93DF93EC014A819C
:103E50005B8160E070E08FE994E00E94F71BE091E5
:103E60003804F091390424E0F695E7952A95E1F7B6
:103E7000E170EC83F0E0EE0FFF1FE95BFE4F818104
:103E80008F9380818F9383E791E09F938F9383EC4F
:103E900094E09F938F930E94EF3A0F900F900F90B2
:103EA0000F900F900F9043EC54E061E070E08FE9C9
:103EB00094E0DF91CF910C94BF1BFC0114824EEC77
:103EC00052E060E070E08FE994E00E94F71B4091BF
:103ED00047015091480161E070E08FE994E00C9453
:103EE000BF1BCF92DF92EF92FF920F931F93CF935E
:103EF000DF93EC01C62ED42EF22E1E2D1092C30499
:103F0000E11006C061E771E083EC94E00E94DD3AC5
:103F10006C2D70E080E090E042E00E947115BC01E1
:103F200083EC94E00E94DD3A62E871E083EC94E077
:103F30000E94DD3A113031F461E771E083EC94E0E6
:103F40000E94DD3A6D2D70E080E090E042E00E943A
:103F50007115BC0183EC94E00E94DD3A62E871E0E7
:103F600083EC94E00E94DD3A123031F461E771E0B5
:103F700083EC94E00E94DD3ABE0180E090E042E0F4
:103F80000E947115BC0183EC94E00E94DD3A61E06F
:103F900073E083EC94E00E94DD3A133031F461E782
:103FA00071E083EC94E00E94DD3A6F2D70E080E0D8
:103FB00090E042E00E947115BC0183EC94E00E9405
:103FC000DD3A64E871E083EC94E00E94DD3A14305D
:103FD00031F461E771E083EC94E00E94DD3A602FF8
:103FE00070E080E090E042E00E947115BC0183EC3B
:103FF00094E00E94DD3A43EC54E061E070E08FE928
:1040000094E0DF91CF911F910F91FF90EF90DF909F
:10401000CF900C94BF1BEF920F93CF93DF93EC01E3
:1040200041EB52E060E070E08FE994E00E94F71B02
:104030000E9445332093990430939A0440939B0443
:1040400050939C0460939D0470939E0430938B0462
:1040500040938A04822F90E090938D0480938C0487
:10406000252F50938904062F609388043C83E12C0C
:10407000632F0E94711FDF91CF910F91EF900895F0
:10408000EF920F93FC01648160938B04E12C00910B
:1040900088042091890440918A0480918C04909135
:1040A0008D040E94711F64EF71E080E090E00E9437
:1040B000CA3689E295E00F91EF900895EF920F9341
:1040C000CF93DF93EC014DEA52E060E070E08FE9BE
:1040D00094E00E94F71B40918A044C83EE24E39401
:1040E000009188042091890460918B0480918C0454
:1040F00090918D040E94711FDF91CF910F91EF90ED
:104100000895EF920F93FC01448140938A04EE24BA
:10411000E394009188042091890460918B0480913C
:104120008C0490918D040E94711F64EF71E080E017
:1041300090E00E94CA3684E295E00F91EF900895D6
:10414000EF920F93CF93DF93EC0148EA52E060E0E7
:1041500070E08FE994E00E94F71B80918C0491EF4E
:10416000980F9B3010F48C8308C08FE08C838FE015
:1041700090E090938D0480938C048C8142E0E42E37
:10418000009188042091890440918A0460918B04F5
:1041900090E00E94711FDF91CF910F91EF900895F1
:1041A000EF920F93FC0184818F5F8A3108F08FE0DA
:1041B0008483848152E0E52E009188042091890453
:1041C00040918A0460918B0490E00E94711F0F91CE
:1041D000EF900895EF920F93FC01848190E090930B
:1041E0008D0480938C0462E0E62E00918804209177
:1041F000890440918A0460918B040E94711F64EFCE
:1042000071E080E090E00E94CA368FE195E00F9166
:10421000EF900895EF920F93CF93DF93EC0143EA71
:1042200052E060E070E08FE994E00E94F71B20917B
:1042300089042C8373E0E72E0091880440918A045E
:1042400060918B0480918C0490918D040E94711F69
:10425000DF91CF910F91EF900895EF920F93FC01B2
:10426000248120938904E3E0EE2E0091880440919C
:104270008A0460918B0480918C0490918D040E943B
:10428000711F64EF71E080E090E00E94CA368AE11D
:1042900095E00F91EF900895EF920F93CF93DF93F6
:1042A000EC014CE952E060E070E08FE994E00E949C
:1042B000F71B009188040C83F4E0EF2E2091890411
:1042C00040918A0460918B0480918C0490918D04BC
:1042D0000E94711FDF91CF910F91EF900895CF92BF
:1042E000EF920F93CF93DF9300D000D000D0CDB7E3
:1042F000DEB7FC01048100938804A4E0EA2E20913B
:10430000890440918A0460918B0480918C0490917F
:104310008D040E94711F60918C0470918D04C12CDA
:10432000E09088040091890420918A0440918B04D4
:10433000CE0101960E942F33CE0101960E94DC33FC
:1043400064EF71E080E090E00E94CA368CE695E070
:1043500026960FB6F894DEBF0FBECDBFDF91CF918A
:104360000F91EF90CF900895FC01148244E551E045
:1043700060E070E08FE994E00E94F71B40914701F4
:104380005091480161E070E08FE994E00C94BF1B0C
:104390001F93CF93DF93182FD62FC42F1092C304EF
:1043A000411106C061E771E083EC94E00E94DD3AC0
:1043B000612F70E080E090E042E00E947115BC0146
:1043C00083EC94E00E94DD3A64E871E083EC94E0D1
:1043D0000E94DD3AC13031F461E771E083EC94E092
:1043E0000E94DD3A6D2F70E080E090E042E00E9494
:1043F0007115BC0183EC94E00E94DD3A43EC54E07B
:1044000061E070E08FE994E0DF91CF911F910C940F
:10441000BF1BCF93DF93EC0145E852E060E070E012
:104420008FE994E00E94F71BEEE8F4E0818180932D
:1044300089046281609388048C8340E0DF91CF918E
:104440000C94C821FC0184818F5F883110F484832F
:1044500001C0148240E06091880484810C94C821DA
:10446000FC0184818093890440E0609188040E946B
:10447000C82164EF71E080E090E00E94CA3681E0DC
:1044800095E00895CF93DF93EC0141E752E060E0BF
:1044900070E08FE994E00E94F71BEEE8F4E083817E
:1044A000809389046481609388048C8340E0DF9169
:1044B000CF910C94C821FC0184818F5F883110F466
:1044C000848301C0148240E06091880484810C944C
:1044D000C821FC0184818093890440E060918804B4
:1044E0000E94C82164EF71E080E090E00E94CA362B
:1044F0008CEF94E00895CF93DF93EC014BE752E00B
:1045000060E070E08FE994E00E94F71B60918804FE
:104510006C8341E080918904DF91CF910C94C82194
:10452000FC0184818F5F8C3310F4848301C014827A
:1045300041E06481809189040C94C821CF93DF937A
:10454000FC0164816093880441E0809189040E94A9
:10455000C821809188046091890460938F04C0E928
:10456000D4E0888385E090E00E94F73C688186E093
:1045700090E00E94F73C85E094E00E94190764EF08
:1045800071E080E090E00E94CA3682E795E0DF911A
:10459000CF910895CF93DF93EC0148E652E060E0BD
:1045A00070E08FE994E00E94F71B609188046C83AF
:1045B00041E080918904DF91CF910C94C821FC01E6
:1045C00084818F5F8C3310F4848301C0148241E0B6
:1045D0006481809189040C94C821CF93DF93FC01FE
:1045E00064816093880441E0809189040E94C8211D
:1045F000809188046091890460939104C2E9D4E0B9
:10460000888387E090E00E94F73C688188E090E032
:104610000E94F73C85E094E00E94190764EF71E086
:1046200080E090E00E94CA3682E795E0DF91CF916A
:104630000895FC01148240E952E060E070E08FE9E7
:1046400094E00E94F71B409133015091340161E0E6
:1046500070E08FE994E00C94BF1BCF93DF93EC01E3
:104660001092C304662331F061E771E083EC94E0BB
:104670000E94E83A6C81611103C066E871E00DC0E8
:1046800070E080E090E040E00E947115BC0183EC96
:1046900094E00E94DD3A6AE871E083EC94E00E94C5
:1046A000DD3A43EC54E061E070E08FE994E0DF91A3
:1046B000CF910C94BF1BCF93DF93EC0180917204D8
:1046C0008C834BE552E060E070E08FE994E00E945B
:1046D000F71B61E0CE01DF91CF910C942D23FC01FB
:1046E0008481853010F48F5F01C08B5F8483848167
:1046F000893208F0148261E09091720484819813E9
:1047000060E0CF010C942D23CF93DF93EC0161E0A7
:104710000E942D238C81809372048C8181111092D0
:10472000650464EF71E080E090E00E94CA368C81FD
:10473000811103C082E795E002C080E090E0DF9144
:10474000CF910895CF93DF93FC01C481FFE0CF9F09
:10475000E00111241092C304662331F061E771E097
:1047600083EC94E00E94E83A209719F466E871E03F
:104770002BC0CC33D10570F4BE0180E090E040E066
:104780000E947115BC0183EC94E00E94DD3A6FE851
:1047900071E01AC0CE016CE370E00E94413AEC0176
:1047A00080E090E040E00E947115BC0183EC94E051
:1047B0000E94DD3ACD2B31F064E971E083EC94E0A6
:1047C0000E94DD3A67E971E083EC94E00E94DD3AF3
:1047D00043EC54E061E070E08FE994E0DF91CF9129
:1047E0000C94BF1BCF93DF93EC01809165048C8305
:1047F00040E552E060E070E08FE994E00E94F71B32
:1048000061E0CE01DF91CF910C94A223FC01848161
:10481000843010F48F5F05C08C3010F48E5F01C0BF
:104820008C5F84838481813208F0148261E09091EE
:1048300065048481981360E0CF010C94A223CF9388
:10484000DF93EC0161E00E94A2238C8180936504D8
:104850008C8181111092720464EF71E080E090E02D
:104860000E94CA368C81811103C082E795E002C0A4
:1048700080E090E0DF91CF9108950F931F93CF9345
:10488000DF93EC01062F462F60E00E945D1310E1DC
:1048900060E2CE010E94E2131150D1F7402F60E098
:1048A000CE01DF91CF911F910F910C945D13CF93A7
:1048B000DF93EC018C818F5F823010F48C8301C018
:1048C0001C8261E070E08FE994E00E943D2441E0A9
:1048D00060E08FE994E00E945D1361E771E08FE989
:1048E00094E00E947039EC81F0E0EE0FFF1FED5B69
:1048F000FE4F608171818FE994E0DF91CF910C943C
:104900007039CF93DF93EC014A815B8160E070E006
:104910008FE994E00E94F71B8091380485FD02C066
:104920001C8206C080FF02C082E001C081E08C834F
:1049300061E070E08FE994E00E943D2421E731E0DE
:1049400041E050E060E070E08FE994E00E94DC1507
:10495000EC81F0E0EE0FFF1FE55FFE4F608171819B
:104960008FE994E0DF91CF910C947039CF93DF936E
:10497000EC018C818F5F833010F48C8301C01C822A
:1049800061E070E08FE994E00E943D2441E060E046
:104990008FE994E00E945D138091380480FF02C08B
:1049A00022E001C021E030E08C8190E001962817E0
:1049B000390731F461E771E08FE994E00E947039C2
:1049C000EC81F0E0EE0FFF1FE55FFE4F608171812B
:1049D0008FE994E0DF91CF910C947039CF93DF93FE
:1049E000EC01909138048C8190FF02C08E3410F05D
:1049F0008F5F01C08E5F8C839C818E81891710F43C
:104A00008D818C8361E070E08FE994E00E943D2409
:104A100041E060E08FE994E00E945D1390914C04C6
:104A20008C81981306C061E771E08FE994E00E94E1
:104A300070396C8170E04AE050E08FE994E00E94A8
:104A40001C3A60E871E08FE994E0DF91CF910C941B
:104A50007039CF93DF93EC018C818F5F823010F43B
:104A60008C8301C01C8261E070E08FE994E00E94B9
:104A70003D2441E060E08FE994E00E945D13909155
:104A800038048C8191FD03C0882319F008C0882365
:104A900031F061E771E08FE994E00E947039EC81B8
:104AA000F0E0EE0FFF1FE95BFE4F608171818FE93F
:104AB00094E0DF91CF910C947039CF93DF93EC01A8
:104AC0008C818F5F823010F48C8301C01C8261E086
:104AD00070E08FE994E00E943D2441E060E08FE9BE
:104AE00094E00E945D1380913804909139042C81E8
:104AF00091FD03C0222319F008C0222331F061E7A1
:104B000071E08FE994E00E947039EC81F0E0EE0FE3
:104B1000FF1FE95BFE4F608171818FE994E0DF91B7
:104B2000CF910C947039CF93DF93EC018C818F5F20
:104B3000823010F48C8301C01C8261E070E08FE948
:104B400094E00E943D2441E060E08FE994E00E94FF
:104B50005D1380913804909139042C8192FD03C03B
:104B6000222319F008C0222331F061E771E08FE9B8
:104B700094E00E947039EC81F0E0EE0FFF1FE95BDA
:104B8000FE4F608171818FE994E0DF91CF910C94A9
:104B90007039CF93DF93EC018C818F5F823010F4FA
:104BA0008C8301C01C8261E070E08FE994E00E9478
:104BB0003D2441E060E08FE994E00E945D13909114
:104BC00038048C8192FD03C0882319F008C0882323
:104BD00031F061E771E08FE994E00E947039EC8177
:104BE000F0E0EE0FFF1FE95BFE4F608171818FE9FE
:104BF00094E0DF91CF910C947039CF93DF93EC0167
:104C00008C818F5F823010F48C8301C01C8261E044
:104C100070E08FE994E00E943D2441E060E08FE97C
:104C200094E00E945D13909138048C8193FD03C041
:104C3000882319F008C0882331F061E771E08FE91B
:104C400094E00E947039EC81F0E0EE0FFF1FE95B09
:104C5000FE4F608171818FE994E0DF91CF910C94D8
:104C60007039CF93DF93EC018C818F5F823010F429
:104C70008C8301C01C8261E070E08FE994E00E94A7
:104C80003D2441E060E08FE994E00E945D13909143
:104C900038048C8194FD03C0882319F008C0882350
:104CA00031F061E771E08FE994E00E947039EC81A6
:104CB000F0E0EE0FFF1FE95BFE4F608171818FE92D
:104CC00094E0DF91CF910C947039CF93DF93EC0196
:104CD0008C818F5F823010F48C8301C01C8261E074
:104CE00070E08FE994E00E943D24EC81F0E0EE0F4B
:104CF000FF1FE95BFE4F2081318141E050E060E021
:104D000070E08FE994E0DF91CF910C94DC15CF93A4
:104D1000DF93EC018C818F5F823010F48C8301C0B3
:104D20001C8261E070E08FE994E00E943D24EC81F8
:104D3000F0E0EE0FFF1FE95BFE4F2081318141E083
:104D400050E060E070E08FE994E0DF91CF910C9447
:104D5000DC15EF920F93CF93DF93EC018C818F5F83
:104D60008D3008F081E08C8361E070E08FE994E0A1
:104D70000E943D24E12C00918804209189044091F7
:104D80008A046C8180918C0490918D040E94711F23
:104D9000DF91CF910F91EF900895EF920F93CF9302
:104DA000DF93EC018C818F5F803208F081E08C838F
:104DB00061E070E08FE994E00E943D24EE24E394EA
:104DC00000918804209189044C8160918B0480912A
:104DD0008C0490918D040E94711FDF91CF910F91EF
:104DE000EF900895EF920F93CF93DF93EC018C81B6
:104DF0008F5F883110F48C8301C01C8261E070E009
:104E00008FE994E00E943D24E3E0EE2E00918804B7
:104E10002C8140918A0460918B0480918C04909144
:104E20008D040E94711FDF91CF910F91EF90089533
:104E3000EF920F93CF93DF93EC018C818F5F8C33D4
:104E400010F48C8301C01C8261E070E08FE994E073
:104E50000E943D24F4E0EF2E0C81209189044091C2
:104E60008A0460918B0480918C0490918D040E943F
:104E7000711FDF91CF910F91EF900895CF93DF9342
:104E8000EC018C818F5F833010F48C8301C01C8215
:104E900061E070E08FE994E00E943D24EC81F0E055
:104EA000EE0FFF1FED5CFE4F2081318141E050E0AD
:104EB00060E070E08FE994E0DF91CF910C94DC1515
:104EC000CF93DF93EC0181E090918E04911180E00B
:104ED0008C8340E952E060E070E08FE994E00E944A
:104EE000F71B61E070E08FE994E00E943D2421E728
:104EF00031E041E050E060E070E08FE994E00E9432
:104F0000DC15EC81F0E0EE0FFF1FE95BFE4F6081E6
:104F100071818FE994E0DF91CF910C947039CF9338
:104F2000DF93EC018C818F5F823010F48C8301C0A1
:104F30001C8261E070E08FE994E00E943D24EC81E6
:104F4000F0E081E090E020918E04222311F080E0D7
:104F500090E0E817F907C1F421E731E041E050E0C3
:104F600060E070E08FE994E00E94DC15EC81F0E0F5
:104F7000EE0FFF1FE95BFE4F608171818FE994E0C6
:104F8000DF91CF910C947039EE0FFF1FE95BFE4F5C
:104F90002081318141E050E060E070E08FE994E0F1
:104FA000DF91CF910C94DC15FC012081222349F084
:104FB0000E94FE14882329F060E08FE994E00C94AD
:104FC000E21308956F927F929F92AF92CF92DF92F9
:104FD000EF92FF920F931F93CF93DF93EC01062F75
:104FE0008E8586FD81C4109145048091380480FF30
:104FF00003C032E0A32E02C0AA24A39490904C04D4
:105000000E949B366B017C0190914504809146047F
:1050100098131DC001111BC088A199A1AAA1BBA111
:10502000A7019601281B390B4A0B5B0BDA01C9015A
:10503000883E9340A105B10508F456C4C8A2D9A280
:10504000EAA2FBA280913A0481FD1BC2CEC138EED8
:10505000C30E33E0D31EE11CF11C1F929F921F92DE
:10506000AF928BE391E09F938F9383EC682E84E063
:10507000782E7F926F920E94EF3A4DB75EB7485FED
:105080005F4F0FB6F8945EBF0FBE4DBF163009F5E7
:1050900061E0CE010E94D20548EC51E00CC01A300C
:1050A00008F069C1173009F055C161E0CE010E94D6
:1050B000D20548EA51E0023031F46EEF71E0CE01E2
:1050C0000E94DB1CA9CF60E070E0CE010E94F71BBC
:1050D000A3CF173008F032C1133031F566E0CE01AE
:1050E0000E94D205CE010E94511340E060E0CE0143
:1050F0000E945D1380917204882321F063E0CE0149
:105100000E94E21380916504882321F060E0CE01C3
:105110000E94E2138EE894E00E94D42763E671E0D7
:10512000CE010E94EE1778CF143008F0F4C0113091
:1051300009F06EC062E0CE010E94D205CE010E944D
:10514000511340E060E0CE010E945D138EE894E0D0
:105150000E94D4276CE671E0CE010E94EE1723EC8A
:1051600034E040E050E06AE070E0CE010E94DC15DF
:105170006091730470917404809175049091760429
:1051800020E13EE040E050E00E94693A5F934F9397
:105190003F932F938BE991E09F938F937F926F9230
:1051A0000E94EF3A23EC34E041E050E060E070E030
:1051B000CE010E94DC156091770470917804809193
:1051C000790490917A0428EE33E040E050E00E94A8
:1051D000693A5F934F933F932F9382EA91E09F93B5
:1051E0008F937F926F920E94EF3A23EC34E041E07C
:1051F00050E067E070E0CE010E94DC152DB73EB7AD
:10520000205F3F4F0FB6F8943EBF0FBE2DBF04CFB7
:10521000123009F001CF63E0CE010E94D205CE0129
:105220000E94511340E060E0CE010E945D13809126
:105230007204882321F063E0CE010E94E213809182
:105240006504882321F060E0CE010E94E2138EE81D
:1052500094E00E94D42760E871E0CE010E94EE172E
:1052600023EC34E040E050E06AE070E0CE010E94C0
:10527000DC156091730470917404809175049091B1
:10528000760420E13EE040E050E00E94693A5F93FE
:105290004F933F932F938BE991E09F938F9323EC50
:1052A000622E24E0722E7F926F920E94EF3A930159
:1052B00041E050E060E070E0CE010E94DC156091BA
:1052C0007704709178048091790490917A0428EEA3
:1052D00033E040E050E00E94693A5F934F933F9380
:1052E0002F9382EA91E09F938F937F926F920E9417
:1052F000EF3A930141E050E067E070E0CE010E9498
:10530000DC154DB75EB7405F5F4F0FB6F8945EBFD8
:105310000FBE4DBF81CE143039F461E0CE010E9442
:10532000D2054FED51E0C9CE153009F075CE61E0E0
:10533000CE010E94D20543ED51E0BFCE193009F0F5
:10534000AECE61E0CE010E94D20543EC51E069E0AF
:1053500072E0B5CE183009F05FCE61E0CE010E9458
:10536000D205023019F46DEE71E002C06EEF71E00B
:105370004CE951E0A4CE1E3FD9F465E0CE010E9475
:10538000D205CE010E94511340E060E0CE010E94A0
:105390005D136AE871E0CE010E94EE1723EC34E061
:1053A00040E050E06AE070E0CE010E94DC1534CEAF
:1053B0001F3F78F065E0CE010E94D205CE010E9429
:1053C000511340E060E0CE010E945D1363E971E09B
:1053D000E2CF1A3009F020CE61E0CE010E94D20562
:1053E00042EB51E06DEE71E06ACE8AEF810F8230C0
:1053F00008F047C067E673E083EC94E00E94E83A67
:1054000085E094E00E940B1228EE33E040E050E08B
:105410000E94693AC90137FD67C26CE370E00E94DF
:10542000553A9F938F937F936F9380EC91E09F9376
:105430008F938DED94E09F938F930E94EF3A6DEDE3
:1054400074E083EC94E00E94DD3A4DB75EB7485FAC
:105450005F4F0FB6F8945EBF0FBE4DBF43EC54E0F4
:1054600061E070E0CE01DF91CF911F910F91FF902D
:10547000EF90DF90CF90AF909F907F906F900C94C3
:10548000BF1B0E9445332093990430939A044093A4
:105490009B0450939C0460939D0470939E0413306E
:1054A00021F080913A0484FF5AC08E8587FF3EC068
:1054B0008F778E8760916A0470916B0480916C0481
:1054C00090916D04683E53E075078105910508F4DD
:1054D000FDC028EE33E040E050E00E94693AF22E31
:1054E000032F24E630E040E050E00E94693A3F9309
:1054F0002F930F93FF928AEA91E09F938F9383EC0F
:1055000094E09F938F930E94EF3A8DB79EB70896D1
:105510000FB6F8949EBF0FBE8DBF23EC34E040E081
:1055200050E06AE070E0CE010E94DC151330B9F45F
:1055300020916A0430916B0440916C0450916D0489
:1055400080913804C0907304D0907404E090750486
:10555000F090760480FFC1C0A0EFB0E0C0C01E3F55
:1055600009F0C2C140E060E0CE010E945D138EE808
:1055700094E00E94D4276AE871E0CE010E94EE1701
:1055800080919E041F928F9380919D041F928F9310
:1055900080919C041F928F938BEB91E09F938F934C
:1055A00003EC14E01F930F930E94EF3A980141E03F
:1055B00050E060E070E0CE010E94DC154DB75EB7B0
:1055C000465F5F4F0FB6F8945EBF0FBE4DBF809130
:1055D0008E04882309F450C040E069E0CE010E94A7
:1055E0005D1362E0CE010E94E21360E0CE010E94F2
:1055F000E213809190041F928F9380918F041F92E9
:105600008F9390ECE92E91E0F92EFF92EF921F9389
:105610000F930E94EF3A980140E050E06BE070E099
:10562000CE010E94DC1541E069E0CE010E945D13CD
:1056300061E0CE010E94E21360E0CE010E94E2131D
:10564000809192041F928F93809191041F928F9367
:10565000FF92EF921F930F930E94EF3A8DB79EB780
:1056600040960FB6F8949EBF0FBE8DBF980141E0E3
:1056700050E06BE070E01BC01F929F921F92AF92B0
:105680008BE391E09F938F931F930F930E94EF3AC8
:105690002DB73EB7285F3F4F0FB6F8943EBF0FBE01
:1056A0002DBF23EC34E040E050E06AE070E0CE0132
:1056B000DF91CF911F910F91FF90EF90DF90CF90EE
:1056C000AF909F907F906F900C94DC156BE071E031
:1056D00083EC94E00E94C73A20CFA8E7B0E00E9494
:1056E000A03A28EE33E040E050E00E94693A2C0DE9
:1056F0003D1D4E1D5F1D2093730430937404409331
:1057000075045093760460917304709174048091D1
:1057100075049091760420E13EE040E050E00E9464
:10572000693A5F934F933F932F938BE991E09F9357
:105730008F9303EC14E01F930F930E94EF3A9801AC
:1057400041E050E060E070E0CE010E94DC15609125
:105750007704709178048091790490917A0428EE0E
:1057600033E040E050E00E94693A5F934F933F93EB
:105770002F9382EA91E09F938F931F930F930E9440
:10578000EF3A980141E050E067E070E0CE010E94FE
:10579000DC1580917B042DB73EB7205F3F4F0FB6DD
:1057A000F8943EBF0FBE2DBF80FF89C061E070E05E
:1057B0008FE994E00E943D248091820490918304BB
:1057C000009709F16AE070E00E94553A9F938F9329
:1057D0007F936F9382EB91E09F938F931F930F932F
:1057E0000E94EF3A980141E050E060E070E0CE01A5
:1057F0000E94DC154DB75EB7485F5F4F0FB6F89457
:105800005EBF0FBE4DBF80918404909185040097C8
:1058100019F16AE070E00E94553A9F938F937F934D
:105820006F9382EB91E09F938F9383EC94E09F932F
:105830008F930E94EF3A23EC34E041E050E065E0C2
:1058400070E0CE010E94DC158DB79EB708960FB6AA
:10585000F8949EBF0FBE8DBF8091860490918704FF
:10586000009721F16AE070E00E94553A9F938F9370
:105870007F936F9382EB91E09F938F9383EC94E0FF
:105880009F938F930E94EF3A23EC34E041E050E085
:105890006BE070E0CE010E94DC152DB73EB7285FAB
:1058A0003F4F0FB6F8943EBF0FBE2DBF80917B04D3
:1058B000982F9670963029F0846080937B0466E080
:1058C00004C08B7F80937B0461E0CE01DF91CF9198
:1058D0001F910F91FF90EF90DF90CF90AF909F902E
:1058E0007F906F900C94D205DF91CF911F910F9113
:1058F000FF90EF90DF90CF90AF909F907F906F9050
:1059000008950F931F93CF93DF93EC01A895809197
:105910004504845001E0873008F000E0CE010E9489
:105920002D18CE010E94B5188823D1F08C859D8555
:10593000009709F04AC0002329F08C859D850097C7
:10594000A9F47EC0809145048E5F823008F0A1C02A
:1059500085E094E0DF91CF911F910F910C94DA08CC
:10596000CE010E94C5188111E8CF9BC0DC01ED91EA
:10597000FC910480F581E02D09959D878C87009727
:1059800079F1B5E082379B0721F0E5E08C369E0780
:1059900019F4DC0114961C91DC01ED91FC9101904D
:1059A000F081E02D0995EC85FD85B5E0E237FB0738
:1059B00029F025E0EC36F20709F073C0112309F451
:1059C00070C0115014838C859D85DC01ED91FC9194
:1059D0000280F381E02DDF91CF911F910F91099407
:1059E000002341F085E094E0DF91CF911F910F916A
:1059F0000C94310780918E04811104C085E094E0FD
:105A00000E94DA089091AD04892F8F7B8093AD04BA
:105A10002E85213021F49E7B9093AD0403C08160DC
:105A20008093AD0461E08FE994E00E94E22761E099
:105A30008FE994E0DF91CF911F910F910C94E227B1
:105A400082E795E00E9400198091AD0480958170F5
:105A50008E8767E08FE994E00E94D2058091AD04C3
:105A600080648093AD04002319F08CE695E006C0B5
:105A700085E094E00E941C0982E795E09D878C8771
:105A80008C859D85DC01ED91FC910190F081E02DEC
:105A9000A2CF85E094E0DF91CF911F910F910C94FC
:105AA0001C09DF91CF911F910F91089589E795E02F
:105AB0000E94533283EE94E00E94812C8BE794E0A5
:105AC0000C942E1BCF93DF93EC0181E0888361E07F
:105AD00084E090E00E94F73C85E094E00E94190782
