:100000000C9479010C94002C0C942D2C0C94AA01C6
:100010000C94AA010C94AA010C94AA010C94AA01B4
:100020000C94AA010C94FA260C94AA010C94AA012F
:100030000C94AA010C94AA010C94AA010C94AA0194
:100040000C945A2C0C94AA010C94412E0C94AA01E5
:100050000C94AA010C94AA010C94AA010C94AA0174
:100060000C94D3220C94AA01322E312E3000536509
:100070007475700053657276696365204C657665AA
:100080006C004D61782043757272656E740044692E
:100090006F646520436865636B0056656E7420521B
:1000A0006571276420436865636B0047726F756EE6
:1000B0006420436865636B0052657365740045781E
:1000C000697400446174652F54696D6500536574EB
:1000D000204D6F6E7468005365742044617900533D
:1000E000657420596561720053657420486F75729C
:1000F00000536574204D696E7574650044656C61CC
:10010000792054696D65720053657420537461726F
:100110007420486F75720053657420537461727453
:10012000204D696E005365742053746F7020486FC2
:100130007572005365742053746F70204D696E00A2
:10014000506F776572204F6E0053656C6620546562
:100150007374004175746F20446574656374005353
:100160007663204C6576656C3A204C31005376639B
:10017000204C6576656C3A204C32002D2D537475F9
:10018000636B2052656C61792D2D002D2D456172B8
:1001900074682047726F756E642D2D00544553545A
:1001A000204641494C45440045565345204552524E
:1001B0004F520056454E54205245515549524544E0
:1001C0000044494F44452043484B204641494C4553
:1001D000440047464349204641554C54004E4F2069
:1001E00047524F554E4400535455434B2052454CB3
:1001F00041590053746F7070656400455620436F19
:100200006E6E6563746564004556204E6F742043BE
:100210006F6E6E656374656400000E1517110E0035
:100220000000000E0E0E00000000080C0E0C08006E
:10023000005265616479004368617267696E6700A6
:100240005265736574204E6F773F00536574204488
:100250006174652F54696D653F00526573657474F0
:10026000696E672E2E2E002020200056657273695D
:100270006F6E20004F70656E20455653452020203C
:1002800020202020001F1C1F1E1F1E1F1F1E1F1EA0
:100290001F00000000240027002A000000000025A5
:1002A0000028002B00000000002300260029000485
:1002B000040404040404040202020202020303030D
:1002C0000303030102040810204080010204081007
:1002D00020010204081020000000070002010000B5
:1002E000030406000000000000000000DC20D8210C
:1002F0003D2F11241FBECFEFD8E0DEBFCDBF14BE0F
:1003000088E10FB6F89480936000109260000FBEF1
:1003100013E0A0E0B1E0E6EAF4E602C005900D9239
:10032000AE38B107D9F716E0AEE8B3E001C01D92D0
:10033000A933B107E1F712E0C2EFD2E004C022977F
:10034000FE010E941632CC3ED107C9F70E94772FDA
:100350000C9451320C940000FB01DC0102C00590AA
:100360000D9241505040D8F70895FB01DC010590F3
:100370000D920020E1F70895AEE0B0E0E2ECF1E08C
:100380000C9428320D891E8986E08C831A83098398
:100390008FEF9FE79E838D839E01275E3F4FCE01A7
:1003A00001966F89788DA9010E94E0012F8138851F
:1003B000020F131FF80110822E96E4E00C944432D1
:1003C000ABE0B0E0E6EEF1E00C941A323C012B0118
:1003D0005A01FC0117821682838181FD03C06FEFF1
:1003E0007FEFC6C19AE0892E1E010894211C311CA2
:1003F000F3012381F20123FD859123FF81912F01D8
:10040000882309F4B2C1853239F423FD859123FF95
:1004100081912F01853229F490E0B3010E94D3032A
:10042000E7CF982FFF24EE249924FFE1FF15D0F0A9
:100430009B3269F09C3228F4903259F0933291F457
:100440000EC09D3249F0903369F441E024C052E07F
:10045000F52A84E0F82A28C098E0F92A25C0E0E1CE
:10046000FE2A22C0F7FC29C0892F80538A3070F4FD
:10047000F6FE05C0989C902C1124980E15C0E89C9F
:10048000E02C1124E80EF0E2FF2A0EC09E3229F47F
:10049000F6FC6BC140E4F42A07C09C3619F450E81E
:1004A000F52A02C0983649F4F20123FD959123FF05
:1004B00091912F01992309F0B8CF892F855483306A
:1004C00018F08052833038F444E050E0A40EB51E9A
:1004D0005FE359830FC0933631F0933779F093354A
:1004E00009F056C020C0F5018081898342E050E0C8
:1004F000A40EB51E610101E010E012C0F501C0803C
:10050000D180F6FC03C06FEF7FEF02C0692D70E071
:1005100042E050E0A40EB51EC6010E94C8038C0143
:100520005FE7F52214C0F501C080D180F6FC03C05E
:100530006FEF7FEF02C0692D70E042E050E0A40E43
:10054000B51EC6010E94BD038C0150E8F52AF3FEDA
:1005500007C01AC080E290E0B3010E94D303EA947E
:100560008E2D90E008171907A8F30EC0F601F7FCCE
:100570008591F7FE81916F0190E0B3010E94D30352
:10058000E110EA94015010400115110579F7EAC015
:10059000943611F0993669F5F7FE08C0F50120810F
:1005A00031814281538184E090E00AC0F50180816D
:1005B00091819C01442737FD4095542F82E090E0C3
:1005C000A80EB91E9FE6F92257FF09C05095409525
:1005D000309521953F4F4F4F5F4FE0E8FE2ACA010B
:1005E000B901A1012AE030E00E94FF03D82ED21801
:1005F00040C0953729F41F2D1F7E2AE030E01DC032
:100600001F2D197F9F3661F0903720F4983509F03F
:10061000ACC00FC0903739F0983709F0A6C004C0BD
:1006200028E030E00AC0106114FD146020E130E0E1
:1006300004C014FD166020E132E017FF08C0F50188
:10064000608171818281938144E050E008C0F501AE
:1006500080819181BC0180E090E042E050E0A40EF6
:10066000B51EA1010E94FF03D82ED2188FE7F82EE5
:10067000F122F6FE0BC05EEFF522D91438F4F4FE39
:1006800007C0F2FC05C08FEEF82202C01D2D01C08C
:10069000192DF4FE0DC0FE01ED0DF11D808180339A
:1006A00019F499EEF92208C01F5FF2FE05C003C0DD
:1006B0008F2D867809F01F5F0F2DF3FC14C0F0FE1C
:1006C0000FC01E1510F09D2C0BC09D2C9E0C911A76
:1006D0001E2D06C080E290E0B3010E94D3031F5F8D
:1006E0001E15C0F304C01E1510F4E11A01C0EE245B
:1006F00004FF0FC080E390E0B3010E94D30302FF28
:100700001DC001FD03C088E790E00EC088E590E0C1
:100710000BC0802F867891F001FF02C08BE201C0F0
:1007200080E2F7FC8DE290E0B3010E94D30306C0A3
:1007300080E390E0B3010E94D3039A94D914C0F3EC
:10074000DA94F101ED0DF11D808190E0B3010E947A
:10075000D303DD20A9F706C080E290E0B3010E9438
:10076000D303EA94EE20C1F743CEF301668177818B
:10077000CB012B96E2E10C943632FC0105906150DE
:1007800070400110D8F7809590958E0F9F1F0895A7
:10079000FC016150704001900110D8F78095909550
:1007A0008E0F9F1F08950F931F93CF93DF938C019C
:1007B000EB018B8181FF1BC082FF0DC02E813F8129
:1007C0008C819D812817390764F4E881F9810193B0
:1007D000F983E88306C0E885F985802F0995892B80
:1007E00031F48E819F8101969F838E8302C00FEF2B
:1007F0001FEFC801DF91CF911F910F910895FA016A
:10080000AA27283051F1203181F1E8946F936E7F4F
:100810006E5F7F4F8F4F9F4FAF4FB1E03ED0B4E040
:100820003CD0670F781F891F9A1FA11D680F791F81
:100830008A1F911DA11D6A0F711D811D911DA11D92
:1008400020D009F468943F912AE0269F11243019A2
:10085000305D3193DEF6CF010895462F4770405D3D
:100860004193B3E00FD0C9F7F6CF462F4F70405DEC
:100870004A3318F0495D31FD4052419302D0A9F747
:10088000EACFB4E0A6959795879577956795BA9541
:10089000C9F700976105710508959B01AC010A2E07
:1008A00006945795479537952795BA95C9F7620FDE
:1008B000731F841F951FA01D08950F931F93CF933F
:1008C000DF93EC01663008F44DC08C8D80FD03C0D1
:1008D00020E130E002C020E530E0862F90E02817CC
:1008E00039070CF43FC068AB00E010E04423A1F1ED
:1008F00088819981019781F588A9282F30E0C90165
:1009000006978E9760F4B901882777FD8095982F18
:1009100025E830E040E050E00E94853115C0C90173
:10092000C4974D97C8F4C901AA2797FDA095BA2F7F
:1009300080569F4FAF4FBF4F35E0880F991FAA1FBA
:10094000BB1F3A95D1F7BC0170938B0060938A006E
:1009500081E090E099838883C801DF91CF911F9156
:100960000F91089586E088AB01E010E0BFCF81E0F1
:100970008093AA040895FC0180818823C1F09181AD
:10098000992349F48281882331F48381882319F4DF
:100990008481882361F08381981721F49281848176
:1009A000981729F085E894E060E00E94C72908952F
:1009B0008091540480FD02C081E001C082E060E0CB
:1009C00070E0813011F061E070E087EB94E04091DD
:1009D00068040E94B12187EB94E062E070E04091EE
:1009E00054040E94B1210895FC01108287EB94E029
:1009F00063E070E040E00E94B121809154048F7B5D
:100A0000809354040E94D8040895FC0181E08083FF
:100A100087EB94E063E070E041E00E94B1218091B7
:100A200054048064809354040E94D8040895CF93A2
:100A3000DF93EC0187EB94E063E070E00E94AA2171
:100A40008F3F49F4188287EB94E063E070E040E068
:100A50000E94B12101C0888387EB94E064E070E0DC
:100A60000E94AA218F3F49F4198287EB94E064E049
:100A700070E040E00E94B12101C0898387EB94E0DF
:100A800065E070E00E94AA218F3F51F485E08A83DF
:100A900087EB94E065E070E045E00E94B12101C081
:100AA0008A8387EB94E066E070E00E94AA218F3F82
:100AB00051F486E08B8387EB94E066E070E046E0DB
:100AC0000E94B12101C08B8387EB94E067E070E066
:100AD0000E94AA218F3F51F487E38C8387EB94E037
:100AE00067E070E047E30E94B12101C08C8360E6BB
:100AF0007AEE80E090E047EB54E00E948D260E9461
:100B00009926DF91CF9108950F931F938C0164EF85
:100B100071E080E090E00E94B02CF801848188238D
:100B200019F428ED33E007C0813019F022EE33E0EC
:100B300002C02DED33E0C9011F910F9108950F936D
:100B40001F93CF93DF93EC0189010E940F2A8985BF
:100B5000882321F0CE01B8010E94B52FDF91CF91FB
:100B60001F910F910895FC018185882319F0CF0111
:100B70000E94B52F08950F931F938C0185E894E090
:100B800060E070E041E050E020E031E00E949F052D
:100B9000D8011496EC91F0E0EE0FFF1FEF50FE4FDE
:100BA0006081718185E894E00E94B30564EF71E093
:100BB00080E090E00E94B02CF8018481882329F421
:100BC00083EA94E00E94050504C083EA94E00E9451
:100BD000F4048EE893E01F910F9108950F931F93F3
:100BE0008C0185E894E060E070E041E050E020E0B6
:100BF00031E00E949F05D8011496EC91F0E0EE0FD1
:100C0000FF1FEF50FE4F6081718185E894E00E94E4
:100C1000B30564EF71E080E090E00E94B02CF80131
:100C20008481882319F02EE833E002C02AEB33E0F8
:100C3000C9011F910F9108950F931F938C0185E8AF
:100C400094E060E070E041E050E020E031E00E949C
:100C50009F05D8011496EC91F0E0EE0FFF1FEF50C6
:100C6000FE4F6081718185E894E00E94B305F80130
:100C700084818823C1F480915404877F8093540435
:100C800087EB94E062E070E0409154040E94B1214F
:100C900064EF71E080E090E00E94B02C8EE893E079
:100CA0001F910F910895809154048860E7CF0F93AE
:100CB0001F938C0185E894E060E070E041E050E033
:100CC00020E031E00E949F05D8011496EC91F0E0FD
:100CD000EE0FFF1FEF50FE4F6081718185E894E0B9
:100CE0000E94B305F80184818823C1F480915404E3
:100CF0008B7F8093540487EB94E062E070E0409136
:100D000054040E94B12164EF71E080E090E00E9401
:100D1000B02C8EE893E01F910F91089580915404B8
:100D20008460E7CF0F931F938C0185E894E060E027
:100D300070E041E050E020E031E00E949F05D801E2
:100D40001496EC91F0E0EE0FFF1FEF50FE4F608124
:100D5000718185E894E00E94B305F80184818823BD
:100D6000C1F4809154048D7F8093540487EB94E008
:100D700062E070E0409154040E94B12164EF71E0A0
:100D800080E090E00E94B02C8EE893E01F910F91DC
:100D90000895809154048260E7CFCF93DF93EC01F4
:100DA000462F60E00E940F2A8985882339F06091E0
:100DB000C1017091C201CE010E94B52FDF91CF9188
:100DC0000895CF93DF93EC018C818F5F8C83823009
:100DD00008F01C8285E894E061E070E00E94CD0696
:100DE0008C81E82FF0E020E030E08091A30488239C
:100DF00011F421E030E0E217F307B9F485E894E05C
:100E000060E070E041E050E020E031E00E949F05AA
:100E1000EC81F0E0EE0FFF1FEF50FE4F608171811B
:100E200085E894E00E94B3050EC0EE0FFF1FEF505F
:100E3000FE4F2081318185E894E060E070E041E080
:100E400050E00E949F05DF91CF910895CF93DF93EB
:100E5000EC018C818F5F8C83833008F01C8285E8E5
:100E600094E061E070E00E94CD06EC81F0E0EE0FCE
:100E7000FF1FE057FD4F2081318185E894E060E05D
:100E800070E041E050E00E949F05DF91CF9108950E
:100E9000CF93DF93EC018C818F5F8C83823008F0DD
:100EA0001C8285E894E061E070E00E94CD06EC8150
:100EB000F0E0EE0FFF1FEF50FE4F2081318185E8FB
:100EC00094E060E070E041E050E00E949F05DF9117
:100ED000CF910895CF93DF93EC018C818F5F8C834A
:100EE000823008F01C8285E894E061E070E00E94A6
:100EF000CD06EC81F0E0EE0FFF1FEF50FE4F20819A
:100F0000318185E894E060E070E041E050E00E94CB
:100F10009F05DF91CF910895CF93DF93EC018C81F2
:100F20008F5F8C83823008F01C8285E894E061E05A
:100F300070E00E94CD0685E894E060E041E00E9408
:100F40000F2A809154049C8183FD03C0992319F0DA
:100F500008C0992331F085E894E060E071E00E94D8
:100F6000B305EC81F0E0EE0FFF1FEF50FE4F608104
:100F7000718185E894E00E94B305DF91CF910895D7
:100F8000CF93DF93EC018C818F5F8C83823008F0EC
:100F90001C8285E894E061E070E00E94CD0685E85F
:100FA00094E060E041E00E940F2A809154049C810B
:100FB00082FD03C0992319F008C0992331F085E818
:100FC00094E060E071E00E94B305EC81F0E0EE0F88
:100FD000FF1FEF50FE4F6081718185E894E00E9411
:100FE000B305DF91CF910895CF93DF93EC018C810E
:100FF0008F5F8C83823008F01C8285E894E061E08A
:1010000070E00E94CD0685E894E060E041E00E9437
:101010000F2A809154049C8181FD03C0992319F00B
:1010200008C0992331F085E894E060E071E00E9407
:10103000B305EC81F0E0EE0FFF1FEF50FE4F608133
:10104000718185E894E00E94B305DF91CF91089506
:10105000CF93DF93EC018C818F5F8C83833008F01A
:101060001C8285E894E061E070E00E94CD0685E88E
:1010700094E060E041E00E940F2A8091540480FDDA
:1010800002C021E001C022E030E08C8190E00196B6
:101090002817390731F485E894E060E071E00E9498
:1010A000B305EC81F0E0EE0FFF1FE952FE4F6081C7
:1010B000718185E894E00E94B305DF91CF91089596
:1010C000CF92DF92EF92FF920F931F93DF93CF9314
:1010D000CDB7DEB761970FB6F894DEBF0FBECDBFB8
:1010E0007C01262F6A01DC0119968C91882349F135
:1010F000C70160E0422F0E940F2A00D000D000D02C
:10110000EDB7FEB731968E010F5F1F4FADB7BEB77B
:1011100012961C930E93119782E091E09383828341
:10112000D582C4820E94BC01198AEDB7FEB73696FB
:101130000FB6F894FEBF0FBEEDBFC701B8010E9405
:10114000B52F61960FB6F894DEBF0FBECDBFCF911D
:10115000DF911F910F91FF90EF90DF90CF90089556
:101160000F931F93DC0114962C912093B004EDB7DC
:10117000FEB738970FB6F894FEBF0FBEEDBF31969D
:1011800008EF13E0ADB7BEB712961C930E931197FC
:101190008091980290919902938382838091AF0409
:1011A00084831582268317820E94BC01EDB7FEB7A7
:1011B00038960FB6F894FEBF0FBEEDBF85E894E0F9
:1011C00061E070E0A8010E9460084091AF04809146
:1011D000B0044093A6048093A70407EB14E0C80171
:1011E00066E070E00E94B121C80167E070E04091C4
:1011F000A7040E94B1210E94D80464EF71E080E04E
:1012000090E00E94B02C8EE893E01F910F9108951A
:10121000FC0184818F5F84838C3308F014822481E5
:101220008091B00448EF53E02817B1F48DB79EB712
:1012300008970FB6F8949EBF0FBE8DBFEDB7FEB7EF
:101240003196ADB7BEB712965C934E9311978091CD
:1012500098029091990213C0ADB7BEB718970FB618
:10126000F894BEBF0FBEADBFEDB7FEB73196129674
:101270005C934E9311978091C3019091C401938325
:1012800082838091AF0484831582268317820E9413
:10129000BC018DB79EB708960FB6F8949EBF0FBEDF
:1012A0008DBF85E894E061E070E048EF53E00E9474
:1012B000600808950F931F93DC0114962C912093DE
:1012C000B004EDB7FEB738970FB6F894FEBF0FBE67
:1012D000EDBF319608EF13E0ADB7BEB712961C9381
:1012E0000E93119780919802909199029383828333
:1012F0008091AF0484831582268317820E94BC01EB
:10130000EDB7FEB738960FB6F894FEBF0FBEEDBF2F
:1013100085E894E061E070E0A8010E9460084091D7
:10132000AF048091B0044093A4048093A50407EB1C
:1013300014E0C80164E070E00E94B121C80165E0DA
:1013400070E04091A5040E94B1210E94D80464EF8E
:1013500071E080E090E00E94B02C8EE893E01F9155
:101360000F910895FC0184818F5F84838C3308F092
:10137000148224818091B00448EF53E02817B1F41F
:101380008DB79EB708970FB6F8949EBF0FBE8DBF5E
:10139000EDB7FEB73196ADB7BEB712965C934E93DC
:1013A0001197809198029091990213C0ADB7BEB782
:1013B00018970FB6F894BEBF0FBEADBFEDB7FEB71E
:1013C000319612965C934E9311978091C301909140
:1013D000C401938382838091AF0484831582268322
:1013E00017820E94BC018DB79EB708960FB6F8947D
:1013F0009EBF0FBE8DBF85E894E061E070E048EFCE
:1014000053E00E94600808950F931F93DC01149627
:101410002C912093AF04EDB7FEB738970FB6F89430
:10142000FEBF0FBEEDBF319608EF13E0ADB7BEB7FC
:1014300012961C930E9311978091960290919702A9
:1014400093838283248315828091B00486831782DC
:101450000E94BC01EDB7FEB738960FB6F894FEBFF8
:101460000FBEEDBF85E894E061E070E0A8010E9446
:10147000600864EF71E080E090E00E94B02C8CEE98
:1014800093E01F910F910895FC0184818F5F848305
:10149000883108F0148224818091AF0448EF53E032
:1014A0002817B1F48DB79EB708970FB6F8949EBF72
:1014B0000FBE8DBFEDB7FEB73196ADB7BEB7129672
:1014C0005C934E931197809196029091970213C06E
:1014D000ADB7BEB718970FB6F894BEBF0FBEADBF7D
:1014E000EDB7FEB7319612965C934E9311978091AB
:1014F000C3019091C40193838283248315828091D8
:10150000B004868317820E94BC018DB79EB70896EF
:101510000FB6F8949EBF0FBE8DBF85E894E061E0E2
:1015200070E048EF53E00E94600808950F931F9306
:10153000DC0114962C912093AF04EDB7FEB73897D9
:101540000FB6F894FEBF0FBEEDBF319608EF13E063
:10155000ADB7BEB712961C930E9311978091960269
:101560009091970293838283248315828091B004A3
:10157000868317820E94BC01EDB7FEB738960FB67E
:10158000F894FEBF0FBEEDBF85E894E061E070E027
:10159000A8010E94600864EF71E080E090E00E9482
:1015A000B02C87EE93E01F910F910895FC01848188
:1015B0008F5F8483883108F0148224818091AF0486
:1015C00048EF53E02817B1F48DB79EB708970FB6D0
:1015D000F8949EBF0FBE8DBFEDB7FEB73196ADB785
:1015E000BEB712965C934E9311978091960290919C
:1015F000970213C0ADB7BEB718970FB6F894BEBF29
:101600000FBEADBFEDB7FEB7319612965C934E9309
:1016100011978091C3019091C401938382832483A5
:1016200015828091B004868317820E94BC018DB719
:101630009EB708960FB6F8949EBF0FBE8DBF85E883
:1016400094E061E070E048EF53E00E946008089584
:10165000CF93DF93EC018C818F5F8C838C3308F008
:101660001C8285E894E061E070E00E94CD062C8148
:101670003091AF0488EF93E0231731F54DB75EB793
:101680004E5050400FB6F8945EBF0FBE4DBFEDB741
:10169000FEB73196ADB7BEB712969C938E93119755
:1016A00086E792E0938382838091AD0484831582E0
:1016B0008091AE04868317828091AB049091AC0434
:1016C00091878087228722C0ADB7BEB71E970FB61D
:1016D000F894BEBF0FBEADBFEDB7FEB73196129600
:1016E0009C938E93119785EF91E0938382838091F1
:1016F000AD04848315828091AE0486831782809125
:10170000AB049091AC04918780873287138624873D
:1017100015860E94BC014DB75EB7425F5F4F0FB6A2
:10172000F8945EBF0FBE4DBF85E894E061E070E0C5
:1017300048EF53E00E946008DF91CF9108950F9326
:101740001F93DC0114962C912093AF04EDB7FEB7E4
:101750003E970FB6F894FEBF0FBEEDBF319608EF6F
:1017600013E0ADB7BEB712961C930E9311978CE59C
:1017700092E0938382838091AD048483158280916B
:10178000AE04868317828091AB049091AC0491875C
:101790008087228713868091B004848715860E94F3
:1017A000BC01EDB7FEB73E960FB6F894FEBF0FBE74
:1017B000EDBF85E894E061E070E0A8010E94600858
:1017C00064EF71E080E090E00E94B02C8EEC93E03A
:1017D0001F910F910895CF93DF93EC018C818F5F60
:1017E0008C83883108F01C8285E894E061E070E029
:1017F0000E94CD064C818091AF0428EF33E048175A
:10180000A1F48DB79EB70E970FB6F8949EBF0FBE8A
:101810008DBFEDB7FEB73196ADB7BEB712963C930C
:101820002E9311978CE592E011C0ADB7BEB71E970D
:101830000FB6F894BEBF0FBEADBFEDB7FEB7319681
:1018400012963C932E93119785EF91E093838283B8
:101850008091AD04848315828091AE0486831782C3
:101860008091AB049091AC04918780874287138666
:101870008091B004848715860E94BC018DB79EB705
:101880000E960FB6F8949EBF0FBE8DBF85E894E00C
:1018900061E070E048EF53E00E946008DF91CF9173
:1018A00008950F931F93DC0114962C912093AB04A1
:1018B0001092AC04EDB7FEB73E970FB6F894FEBF9A
:1018C0000FBEEDBF319608EF13E0ADB7BEB712966D
:1018D0001C930E93119782E492E09383828380910C
:1018E000AD04848315828091AE048683178220879D
:1018F00011868091AF04828713868091B00484871B
:1019000015860E94BC01EDB7FEB73E960FB6F8945F
:10191000FEBF0FBEEDBF85E894E061E070E0A80176
:101920000E94600864EF71E080E090E00E94B02CBB
:1019300089EC93E01F910F910895FC0184818F5FE2
:101940008483853110F08CE084836481262F30E01D
:101950008091AB049091AC0448EF53E0281739070D
:10196000A1F48DB79EB70E970FB6F8949EBF0FBE29
:101970008DBFEDB7FEB73196ADB7BEB712965C938B
:101980004E93119782E492E011C0ADB7BEB71E9797
:101990000FB6F894BEBF0FBEADBFEDB7FEB7319620
:1019A00012965C934E93119785EF91E09383828317
:1019B0008091AD04848315828091AE048683178262
:1019C000608711868091AF04828713868091B0046E
:1019D000848715860E94BC018DB79EB70E960FB600
:1019E000F8949EBF0FBE8DBF85E894E061E070E083
:1019F00048EF53E00E94600808950F931F93DC01A5
:101A000014962C912093AE04EDB7FEB73E970FB617
:101A1000F894FEBF0FBEEDBF319608EF13E0ADB7EF
:101A2000BEB712961C930E93119788E292E09383AF
:101A300082838091AD0484831582268317828091EE
:101A4000AB049091AC04918780878091AF0482872A
:101A500013868091B004848715860E94BC01EDB77F
:101A6000FEB73E960FB6F894FEBF0FBEEDBF85E8F9
:101A700094E061E070E0A8010E94600864EF71E00A
:101A800080E090E00E94B02C84EC93E01F910F91D5
:101A90000895CF93DF93EC018C818F5F8C8380322C
:101AA00010F081E08C8385E894E061E070E00E94B2
:101AB000CD062C818091AE0448EF53E02817A1F4A5
:101AC0008DB79EB70E970FB6F8949EBF0FBE8DBF11
:101AD000EDB7FEB73196ADB7BEB712965C934E9395
:101AE000119788E292E011C0ADB7BEB71E970FB64E
:101AF000F894BEBF0FBEADBFEDB7FEB731961296DC
:101B00005C934E93119785EF91E09383828380914C
:101B1000AD0484831582268317828091AB04909153
:101B2000AC04918780878091AF048287138680916F
:101B3000B004848715860E94BC018DB79EB70E96AF
:101B40000FB6F8949EBF0FBE8DBF85E894E061E0AC
:101B500070E048EF53E00E946008DF91CF91089554
:101B60000F931F93DC0114962C912093AD04EDB7D5
:101B7000FEB73E970FB6F894FEBF0FBEEDBF31968D
:101B800008EF13E0ADB7BEB712961C930E931197F2
:101B90008EE092E093838283248315828091AE0449
:101BA000868317828091AB049091AC0491878087E3
:101BB0008091AF04828713868091B0048487158654
:101BC0000E94BC01EDB7FEB73E960FB6F894FEBF7B
:101BD0000FBEEDBF85E894E061E070E0A8010E94CF
:101BE000600864EF71E080E090E00E94B02C8FEB21
:101BF00093E01F910F910895CF93DF93EC018C81B7
:101C00008F5F8C838D3010F081E08C8385E894E0C9
:101C100061E070E00E94CD062C818091AD0448EF18
:101C200053E02817A1F48DB79EB70E970FB6F8941E
:101C30009EBF0FBE8DBFEDB7FEB73196ADB7BEB735
:101C400012965C934E9311978EE092E011C0ADB75F
:101C5000BEB71E970FB6F894BEBF0FBEADBFEDB7AF
:101C6000FEB7319612965C934E93119785EF91E0F3
:101C700093838283248315828091AE0486831782A6
:101C80008091AB049091AC04918780878091AF04E0
:101C9000828713868091B004848715860E94BC01D8
:101CA0008DB79EB70E960FB6F8949EBF0FBE8DBF30
:101CB00085E894E061E070E048EF53E00E9460083E
:101CC000DF91CF9108950F931F93CF93DF93EC0192
:101CD0001C828091540480FD04C08DED91E041E0B0
:101CE00003C084EE91E042E098878F831D821E82BC
:101CF00002C09F5F9E83AF81B8859E81FD01E90F81
:101D0000F11D80818823A9F7292F21502E83A20F4E
:101D1000B11D8C918D833091680490E0EF81F8853E
:101D2000E90FF11D8081831711F49C8303C09F5F2D
:101D30002917A0F7413019F028E031E002C02BE06C
:101D400031E000D000D000D0EDB7FEB7319608EFFB
:101D500013E0ADB7BEB712961C930E9311978EE0A9
:101D600091E093838283358324830E94BC01EDB785
:101D7000FEB736960FB6F894FEBF0FBEEDBF85E8EE
:101D800094E060E070E0A8010E94600800D000D0FC
:101D900000D0ADB7BEB71196EDB7FEB71283018381
:101DA0008DE191E013969C938E9312978C81EF8135
:101DB000F885E80FF11D808114968C931497159681
:101DC0001C920E94BC018DB79EB706960FB6F89480
:101DD0009EBF0FBE8DBF85E894E061E070E0A80172
:101DE0000E946008DF91CF911F910F910895AF92EB
:101DF000BF92CF92EF920F931F93DF93CF9300D0B8
:101E000000D000D0CDB7DEB7DC0114962C91209322
:101E1000B004EDB7FEB73E970FB6F894FEBF0FBE05
:101E2000EDBF319608EF13E0ADB7BEB712961C9325
:101E30000E93119786E792E0938382838091AD049D
:101E4000848315828091AE04868317828091AB04CF
:101E50009091AC04918780878091AF04828713862C
:101E6000248715860E94BC01EDB7FEB73E960FB6DB
:101E7000F894FEBF0FBEEDBF85E894E061E070E02E
:101E8000A8010E9460086091AB047091AC045E01EF
:101E90000894A11CB11CC5014091AD042091AE0471
:101EA0000091AF04E090B004CC240E94DF24C5016F
:101EB0000E94B12564EF71E080E090E00E94B02CB8
:101EC0008EE893E026960FB6F894DEBF0FBECDBF26
:101ED000CF91DF911F910F91EF90CF90BF90AF9076
:101EE0000895CF93DF93EC0185E894E060E070E023
:101EF00041E050E020E031E00E949F058C81EF81BD
:101F0000F885E80FF11D608180918E04882339F0F7
:101F100085E894E070E04AE050E00E948D3085E86A
:101F200094E062E271E00E94B30564EF71E080E04A
:101F300090E00E94B02C8091540480FD02C081E0AA
:101F400001C082E060E070E0813011F061E070E09B
:101F50008C81EF81F885E80FF11D87EB94E04081DB
:101F60000E94B1218C81EF81F885E80FF11D88E393
:101F700094E0608140E00E945D048EE893E0DF9190
:101F8000CF910895CF93DF93EC018C818F5F8C8389
:101F90009E81981708F41C8285E894E061E070E067
:101FA0000E94CD0685E894E060E041E00E940F2A9F
:101FB0008C81EF81F885E80FF11D90916804808194
:101FC000981731F485E894E060E071E00E94B30571
:101FD0008C81EF81F885E80FF11D608180918E047E
:101FE000882339F085E894E070E04AE050E00E94F0
:101FF0008D3085E894E062E271E00E94B305DF91E4
:10200000CF910895FC018481882319F423E933E0FA
:1020100029C0813019F428E933E024C0823019F452
:1020200021EA33E01FC0833019F426EA33E01AC0F6
:10203000843019F42BEA33E015C0893019F420EB11
:1020400033E010C0863019F425EB33E00BC0873045
:1020500019F423ED33E006C085E894E00E94C12A1C
:1020600020E030E0C9010895CF93DF93EC0185E8CB
:1020700094E00E949B2A80FF52C031E00AC089810F
:102080009A81AB81BC810097A105B10509F4188242
:1020900030E02881222361F0213009F045C0898198
:1020A0009A81AB81BC810097A105B10509F43CC0C0
:1020B000332381F189819A81AB81BC810097A1058D
:1020C000B10541F4222331F40E94A22C69837A8362
:1020D0008B839C830E94A22C9B01AC0189819A81F5
:1020E000AB81BC81281B390B4A0B5B0B8881882391
:1020F00039F42436310541055105B4F081E008C0BA
:10210000813091F4245F3140404050406CF082E0D7
:1021100088830AC019821A821B821C8205C08881AA
:10212000823009F0B5CFABCFDF91CF91089581E137
:1021300060E00E94702D81E161E00E94962D08957B
:10214000CF93DF93EC011A82198282E00E94EE2D78
:10215000892B19F081E0888301C01882DF91CF912B
:1021600008950F931F938C0188E060E00E94962DE4
:1021700087E060E00E94962D89E060E00E94962D45
:10218000F801868D8F7B868F0E948B28035C1F4F02
:10219000F80160837183828393830D5310400E9402
:1021A000A22CF80165AB76AB87AB90AF1F910F9176
:1021B00008950F931F9306E514E0809156048068FC
:1021C000809356040E511040C8010E94B110109225
:1021D0008B0010928A0082E090E0F8019183808366
:1021E00081E080933A041F910F9108950F931F93FC
:1021F0008C0188E061E00E94962D87E061E00E94FA
:10220000962D89E061E00E94962DF801868D80640C
:10221000868F0E948B28F80161AF72AF83AF94AFB5
:102220000E94A22CF80161AB72AB83AB94AB1F91FF
:102230000F910895BF92CF92DF92EF92FF920F938A
:102240001F93CF93DF93EC01B9A42FEFB21639F4AB
:1022500065E070E080E090E00E94B02C34C283E042
:102260000E94EE2D8C0184E00E94EE2D7C018E8D6B
:1022700086FF31C08C8D83FD8EC00E94A22C29A9BF
:102280003AA94BA95CA9621B730B840B950B695E81
:1022900073408040904008F47EC00130110509F081
:1022A0007AC0F1E0EF16F10409F075C087E089A764
:1022B000CE010E94B1108E898F3F11F08F5F8E8BFF
:1022C0000E94A22C60567444824F9F4F6E877F8776
:1022D000888B998BE2C127E0B21609F58A899B8920
:1022E000AC89BD890397A105B10508F0D4C10E944E
:1022F000A22C2E853F854889598962177307840768
:10230000950708F4C8C18A899B89AC89BD89019663
:10231000A11DB11D8A8B9B8BAC8BBD8B3CC08C8D62
:1023200084FD39C0012B11F0EF28A1F588E0B81623
:1023300061F08B8D882349F40E94A22C6F8B788FDB
:10234000898F9A8F8B8D8F5F8B8F0E94A22C2DA9E6
:102350003EA94FA958AD621B730B840B950B695EA8
:1023600073408040904078F00E94A22C2F89388DD5
:10237000498D5A8D621B730B840B950B695E7340FC
:102380008040904018F428E0B21629F488E089A72C
:1023900008E084C11B8E00E091E08A81882309F463
:1023A0003EC086E089A789859A85AB85BC85039761
:1023B000A105B10508F074C186E0B81651F08D850D
:1023C0008F3F11F08F5F8D8719861A861B861C86BA
:1023D0001BC00E94A22C2D813E814F81588562171F
:1023E00073078407950708F45BC1CE0102960E942B
:1023F000A01089859A85AB85BC850196A11DB11D6C
:1024000089879A87AB87BC870E94A22C6056744448
:10241000824F9F4F6D837E838F83988741C199231D
:1024200009F476C08B2D8650833050F480E49FE110
:1024300090938B0080938A001982188219A6BB247E
:10244000EE24FF240FEFC02E03E0D02E00E010E0BA
:1024500081E00E944E2D0817190714F48C0104C066
:102460008C159D050CF46C010894E11CF11CE4E64C
:10247000EE16F10469F78C8D282F81FD13C1888138
:102480009981019709F00EC18FA198A5C816D906A8
:1024900008F408C105E015C089A19AA10817190719
:1024A00010F002E00EC08BA19CA10817190740F4A0
:1024B00022FF00C18DA19EA18017910708F0FAC0EC
:1024C00003E00B1529F18BA5081739F00E94A22C07
:1024D0006CA77DA78EA79FA71BC00E94A22CCCA48F
:1024E000DDA4EEA4FFA4013029F02AEF30E040E0A3
:1024F00050E004C029E130E040E050E06C197D0973
:102500008E099F09621773078407950708F009A7CA
:102510000BA789A58B1509F49AC08130D9F18230B7
:1025200009F448C08330A1F588A9282F30E0C901FB
:1025300006978E9760F4B901882777FD8095982FCC
:1025400025E830E040E050E00E94853115C0C90127
:10255000C4974D97C8F4C901AA2797FDA095BA2F33
:1025600080569F4FAF4FBF4F15E0880F991FAA1F8E
:10257000BB1F1A95D1F7BC0170938B0060938A0042
:1025800081E090E099838883CE010E94F6105FC0BD
:10259000843061F4CE010E94B11080E49FE19093F9
:1025A0008B0080938A001982188251C08630C1F155
:1025B000853091F5CE010E94B11088A9282F30E016
:1025C000C90106978E9760F4B901882777FD809539
:1025D000982F25E830E040E050E00E94853115C09A
:1025E000C901C4974D9798F5C901AA2797FDA095F1
:1025F000BA2F80569F4FAF4FBF4FF5E0880F991FFE
:10260000AA1FBB1FFA95D1F7BC0170938B00609392
:102610008A0081E090E00DC0873011F0883061F4CD
:10262000CE010E94B11010928B0010928A0082E0BD
:1026300090E0998388830BC080E49FE190938B00A6
:1026400080938A0019821882CE010E94B110BAA626
:1026500089A58330C1F58E010F5B1F4FF801808182
:102660009181A281B381CB5BDF4F88839983AA8359
:10267000BB83C554D0400E948B2829AD3AAD4BADE9
:102680005CAD621B730B840B950BF8016083718347
:102690008283938318C087E089A707E090E07DCE0E
:1026A00006E036CF8F8D98A10817190708F4F4CEED
:1026B00001E007CF8DA19EA18017910710F000E0E7
:1026C00000CF04E0FECEDF91CF911F910F91FF90DC
:1026D000EF90DF90CF90BF900895DC015F96E5EC1E
:1026E000F1E08AE001900D928150E1F708951F9387
:1026F000CF93DF93EC01162F8C8D623019F481603B
:102700008C8F03C08E7F8C8F11E060E070E0113001
:1027100011F061E070E087EB94E00E94AA21682F3D
:1027200081508E3F20F01130E9F46CE006C0663035
:1027300010F416E00BC0113029F4162F613130F07F
:1027400010E104C0162F613508F010E5CE010E949B
:102750006D13CE01612F40E00E945D04DF91CF91A7
:102760001F91089568E1E7CFCF93DF93EC016C816F
:10277000662321F4809154048F7D07C088E394E0A0
:102780000E9477138091540480628093540485E8FA
:1027900094E060E070E041E050E020E031E00E9431
:1027A0009F05EC81F0E0EE0FFF1FE952FE4F6081C4
:1027B000718185E894E00E94B30587EB94E062E0C4
:1027C00070E0409154040E94B12164EF71E080E018
:1027D00090E00E94B02C8EE893E0DF91CF910895B5
:1027E000AF92BF92CF92DF92EF92FF920F931F931F
:1027F0007C016B015A018C01035F1F4FC801B901B5
:102800000E94B501C701B601A50198010E949F056C
:102810001F910F91FF90EF90DF90CF90BF90AF90FE
:102820000895CF92DF92EF92FF920F931F937C0156
:102830006B018C01035F1F4FC801BA010E94B501F3
:10284000C701B601A8010E9460081F910F91FF9077
:10285000EF90DF90CF9008950F931F938C0185E840
:1028600094E060E070E041E050E020E031E00E9460
:102870009F05D8011496EC91F0E0EE0FFF1FEF508A
:10288000FE4F6081718185E894E00E94B30564EF9A
:1028900071E080E090E00E94B02CF80184818823F0
:1028A000A1F485E894E061E070E04AE552E00E941E
:1028B00011142EE088E190E00FB6F894A89580936B
:1028C00060000FBE20936000FFCF80E090E01F917A
:1028D0000F910895EF92FF920F931F938C0125E8BB
:1028E000E22E24E0F22EC70160E070E043E351E005
:1028F0000E9411142091B004D80114962C93EDB7C6
:10290000FEB738970FB6F894FEBF0FBEEDBF3196F5
:1029100008EF13E0ADB7BEB712961C930E93119754
:102920008091980290919902938382838091AF0461
:1029300084831582268317820E94BC01EDB7FEB7FF
:1029400038960FB6F894FEBF0FBEEDBFC70161E029
:1029500070E0A8010E9460081F910F91FF90EF9016
:102960000895EF92FF920F931F938C0135E8E32EA9
:1029700034E0F32EC70160E070E047E151E00E94CF
:1029800011142091B004D80114962C93EDB7FEB722
:1029900038970FB6F894FEBF0FBEEDBF319608EF23
:1029A00013E0ADB7BEB712961C930E9311978091AA
:1029B000980290919902938382838091AF048483DB
:1029C0001582268317820E94BC01EDB7FEB73896A8
:1029D0000FB6F894FEBF0FBEEDBFC70161E070E017
:1029E000A8010E9460081F910F91FF90EF90089539
:1029F000EF92FF920F931F938C0145E8E42E44E081
:102A0000F42EC70160E070E045E251E00E9411142D
:102A10002091A6042093AF043091A7043093B00412
:102A2000D80114962C93EDB7FEB738970FB6F894EB
:102A3000FEBF0FBEEDBF319608EF13E0ADB7BEB7D6
:102A400012961C930E931197809196029091970283
:102A50009383828324831582368317820E94BC016C
:102A6000EDB7FEB738960FB6F894FEBF0FBEEDBFB8
:102A7000C70161E070E0A8010E9460081F910F91FA
:102A8000FF90EF900895EF92FF920F931F938C01A8
:102A900055E8E52E54E0F52EC70160E070E048E00F
:102AA00051E00E9411142091A4042093AF043091AE
:102AB000A5043093B004D80114962C93EDB7FEB75B
:102AC00038970FB6F894FEBF0FBEEDBF319608EFF2
:102AD00013E0ADB7BEB712961C930E931197809179
:102AE0009602909197029383828324831582368382
:102AF00017820E94BC01EDB7FEB738960FB6F89466
:102B0000FEBF0FBEEDBFC70161E070E0A8010E94EB
:102B100060081F910F91FF90EF900895CF93DF937E
:102B2000EC0190E08091A304882309F491E09C8358
:102B300085E894E060E070E04CEF50E00E941114F2
:102B400085E894E061E070E00E94CD0685E894E0BD
:102B500060E070E041E050E020E031E00E949F053D
:102B6000EC81F0E0EE0FFF1FEF50FE4F60817181AE
:102B700085E894E00E94B305DF91CF9108950F930B
:102B80001F93FC01148205E814E0C80160E070E0C6
:102B90004CEF50E00E94111440919002509191022C
:102BA000C80161E070E00E9460081F910F910895D4
:102BB000EF92FF920F931F938C0175E8E72E74E05C
:102BC000F72EC70160E070E041EF50E00E94111461
:102BD0002091B004D80114962C93EDB7FEB73E9720
:102BE0000FB6F894FEBF0FBEEDBF319608EF13E0AD
:102BF000ADB7BEB712961C930E93119786E792E07D
:102C0000938382838091AD04848315828091AE0486
:102C1000868317828091AB049091AC049187808762
:102C20008091AF0482871386248715860E94BC0199
:102C3000EDB7FEB73E960FB6F894FEBF0FBEEDBFE0
:102C4000C70161E070E0A8010E9460081F910F9128
:102C5000FF90EF900895EF92FF920F931F938C01D6
:102C6000E5E8EE2EE4E0FE2EC70160E070E048EEFD
:102C700050E00E9411142091AF04D80114962C93B7
:102C8000EDB7FEB73E970FB6F894FEBF0FBEEDBF8F
:102C9000319608EF13E0ADB7BEB712961C930E93B2
:102CA00011978CE592E0938382838091AD048483B5
:102CB00015828091AE04868317828091AB04909137
:102CC000AC0491878087228713868091B004848723
:102CD00015860E94BC01EDB7FEB73E960FB6F8947C
:102CE000FEBF0FBEEDBFC70161E070E0A8010E940A
:102CF00060081F910F91FF90EF9008950F931F931D
:102D0000CF93DF93EC0185E894E060E070E04FED55
:102D100050E00E9411148091AB048C838C50893058
:102D200040F08CE08C838CE090E09093AC04809336
:102D3000AB048DB79EB70E970FB6F8949EBF0FBE2B
:102D40008DBFEDB7FEB7319608EF13E0ADB7BEB754
:102D500012961C930E93119782E492E093838283E0
:102D60008091AD04848315828091AE04868317829E
:102D70008C81808711868091AF0482871386809131
:102D8000B004848715860E94BC018DB79EB70E964D
:102D90000FB6F8949EBF0FBE8DBF85E894E061E04A
:102DA00070E0A8010E946008DF91CF911F910F9100
:102DB0000895EF92FF920F931F938C01F5E8EF2E89
:102DC000F4E0FF2EC70160E070E047ED50E00E94A4
:102DD00011142091AE04D80114962C93EDB7FEB7D0
:102DE0003E970FB6F894FEBF0FBEEDBF319608EFC9
:102DF00013E0ADB7BEB712961C930E93119788E2FD
:102E000092E0938382838091AD048483158226832C
:102E100017828091AB049091AC0491878087809158
:102E2000AF04828713868091B004848715860E9440
:102E3000BC01EDB7FEB73E960FB6F894FEBF0FBECD
:102E4000EDBFC70161E070E0A8010E9460081F911A
:102E50000F91FF90EF9008950F931F93DF93CF93FF
:102E600000D000D000D0CDB7DEB78C0185E894E06B
:102E700060E070E04DEC50E00E9411140E94F524D7
:102E800029833A834B835C836D837E83A1EBB4E01B
:102E9000FE01319686E001900D928150E1F730916C
:102EA000B2043093AD047091B3047093AE042091DA
:102EB000B10460E02093AB046093AC044091B4048F
:102EC0004093AF045091B5045093B004D8011496C8
:102ED0003C93EDB7FEB73E970FB6F894FEBF0FBE1A
:102EE000EDBF319608EF13E0ADB7BEB712961C9355
:102EF0000E9311978EE092E0938382833483158240
:102F000076831782208761874287138654871586C8
:102F10000E94BC01EDB7FEB73E960FB6F894FEBF17
:102F20000FBEEDBF85E894E061E070E0A8010E946B
:102F3000600826960FB6F894DEBF0FBECDBFCF91C6
:102F4000DF911F910F9108950F931F93FC0114823D
:102F500005E814E0C80160E070E04BE452E00E9434
:102F600011144091F1015091F201C80161E070E04B
:102F70000E9460081F910F9108950F931F93FC0109
:102F8000148205E814E0C80160E070E040E452E01B
:102F90000E9411144091F1015091F201C80161E0C9
:102FA00070E00E9460081F910F910895EF92FF92C8
:102FB0000F931F938C0135E8E32E34E0F32EFC01D0
:102FC00042815381C70160E070E00E94111480913A
:102FD000540490E023E0969587952A95E1F7817057
:102FE000F801848300D000D000D0ADB7BEB71196F1
:102FF00008EF13E0EDB7FEB71283018324E231E05E
:1030000013963C932E931297E82FF0E0EE0FFF1FDC
:10301000EF50FE4F8081918115969C938E9314976B
:103020000E94BC018DB79EB706960FB6F8949EBF5E
:103030000FBE8DBFC70161E070E0A8010E9460086B
:103040001F910F91FF90EF900895EF92FF920F93D1
:103050001F938C0165E8E62E64E0F62EFC014281A8
:103060005381C70160E070E00E9411148091540404
:1030700090E096958795969587958170F801848361
:1030800000D000D000D0ADB7BEB7119608EF13E066
:10309000EDB7FEB71283018324E231E013963C932F
:1030A0002E931297E82FF0E0EE0FFF1FEF50FE4F28
:1030B0008081918115969C938E9314970E94BC01F8
:1030C0008DB79EB706960FB6F8949EBF0FBE8DBF04
:1030D000C70161E070E0A8010E9460081F910F9194
:1030E000FF90EF900895EF92FF920F931F938C0142
:1030F000F5E8EF2EF4E0FF2EFC0142815381C70179
:1031000060E070E00E9411148091540490E0969564
:1031100087958170F801848300D000D000D0ADB7CE
:10312000BEB7119608EF13E0EDB7FEB71283018327
:1031300024E231E013963C932E931297E82FF0E0AF
:10314000EE0FFF1FEF50FE4F8081918115969C93EB
:103150008E9314970E94BC018DB79EB706960FB64A
:10316000F8949EBF0FBE8DBFC70161E070E0A8015B
:103170000E9460081F910F91FF90EF900895CF93E8
:10318000DF93EC014A815B8185E894E060E070E0C8
:103190000E9411148091540485FD02C01C8206C057
:1031A00080FD02C081E001C082E08C8385E894E06C
:1031B00061E070E00E94CD0685E894E060E070E098
:1031C00041E050E020E031E00E949F05EC81F0E01A
:1031D000EE0FFF1FE952FE4F6081718185E894E098
:1031E0000E94B305DF91CF910895FC0184818F5F28
:1031F00084838B3008F014828481843079F18530A7
:1032000048F48130E1F08130A8F08230E9F0833079
:1032100071F41FC0873071F1883028F4853019F1BE
:10322000863029F422C0883051F1893051F14EEBBB
:1032300050E02BC0409195035091960326C04091D9
:103240009A0350919B0321C04091A3035091A40382
:103250001CC04091A8035091A90317C04091AD0331
:103260005091AE0312C086E084834091B703509121
:10327000B8030BC04091D5035091D60306C089E036
:1032800084834091B2035091B30385E894E061E0F8
:1032900070E00E94111408950F931F93FC01148293
:1032A00005E814E042815381C80160E070E00E94AB
:1032B00011144091950350919603C80161E070E0AC
:1032C0000E9411141F910F910895EF92FF920F9396
:1032D0001F938C019B017A0160E070E0A9010E94BC
:1032E0001114C80161E070E0A7010E9411141F9140
:1032F0000F91FF90EF9008956F927F928F929F921F
:10330000AF92BF92CF92DF92EF92FF920F931F93F3
:10331000CF93DF934C0180E49FE190938B008093E7
:103320008A00F4011182108285E061E00E94962DEE
:1033300085E894E060E471E049E451E00E94651999
:10334000F401848D85FDE0C081E00E944E2D109235
:103350008B0010928A0022E030E0F4013183208358
:10336000855893400CF4D0C083E00E94EE2D8C0170
:1033700084E00E94EE2D7C0188E061E00E94962DA1
:1033800089E061E00E94962D6AEF70E080E090E0B5
:103390000E94B02C83E00E94EE2D3C0184E00E944C
:1033A000EE2D5C0188E060E00E94962D89E060E0EF
:1033B0000E94962D6AEF70E080E090E00E94B02CB1
:1033C00087E061E00E94962D6AEF70E080E090E077
:1033D0000E94B02C83E00E94EE2D6C0184E00E94DC
:1033E000EE2DEC0187E060E00E94962D6AEF70E020
:1033F00080E090E00E94B02C000F111F0E0D1F1DE9
:103400000330110509F0A5C0C301880F991F8A0D6B
:103410009B1D9601220F331F2C0F3D1F83309105FA
:1034200034F4813091052CF5892B31F002C00397DB
:1034300051F0C0E0D0E03AC02330310509F089C036
:10344000C2E0D0E036C02330310519F4C3E0D0E04B
:1034500008C02115310519F4C2E0D0E002C0C0E077
:10346000D0E02150304022303105A8F4C1E0D0E056
:1034700015C02330310519F4C1E0D0E002C0C4E02A
:10348000D0E0019721F42230310529F45CC02130CD
:10349000310509F45BC0C130D10541F485E894E001
:1034A00063E571E04FE551E00E946519C230D10536
:1034B00041F485E894E063E571E04DE651E00E9457
:1034C0006519CE010397029728F485E894E067E038
:1034D0000E94602AC330D10529F485E894E06BE8A6
:1034E00071E007C0C430D10541F485E894E06BE792
:1034F00071E04CE951E00E94651964EF71E080E0F1
:1035000090E00E94B02C02C0C0E0D0E085E060E016
:103510000E94962D80E49FE190938B0080938A0017
:10352000F401118210828C2FDF91CF911F910F91A6
:10353000FF90EF90DF90CF90BF90AF909F908F90D3
:103540007F906F900895C2E0D0E0A5CFC2E0D0E0B8
:10355000ADCFC4E0D0E0AACF0F931F93CF93DF93FA
:10356000EC018985882351F08E01035F1F4FC8014C
:103570000E94B501CE01B8010E94B52FDF91CF9115
:103580001F910F9108958F929F92AF92BF92CF9209
:10359000DF92EF92FF920F931F93DF93CF9300D0B0
:1035A00000D000D0CDB7DEB7D82EC92E109161045F
:1035B0008091540480FD03C0BB24B39402C022E078
:1035C000B22E0E94F52429833A834B835C836D835A
:1035D0007E83A1EBB4E0FE01319686E001900D926E
:1035E0008150E1F79091610480916204981709F489
:1035F00071C18DB79EB708970FB6F8949EBF0FBEE6
:103600008DBFEDB7FEB7319698EFE92E93E0F92E16
:10361000ADB7BEB71296FC92EE9211978FEC91E087
:1036200093838283B4821582809168048683178293
:103630000E94BC018DB79EB708960FB6F8949EBF46
:103640000FBE8DBF153009F4C2C0163080F41230A1
:1036500009F44BC0133020F4113009F033C114C009
:10366000133009F475C0143009F02CC19CC0173018
:1036700009F4D7C0173008F4BEC0183009F4E5C00B
:103680001F3F09F01FC1F7C08DE061E00E94962D39
:1036900085E060E00E94962D8D2D9C2D67E00E94B4
:1036A000602A8D2D9C2D0E94C12A8D2D9C2D60E0BD
:1036B00040E00E940F2A83EA94E00E94BB048D2D13
:1036C0009C2D61E372E00E94AC1A8D2D9C2D6AE066
:1036D00070E040E050E097010E949F058D2D9C2DE9
:1036E00061E070E048E052E030C08DE061E00E94AF
:1036F000962D85E061E00E94962D8D2D9C2D67E032
:103700000E94602A8D2D9C2D0E94C12A8D2D9C2DFA
:1037100060E040E00E940F2A83EA94E00E94BB042C
:103720008D2D9C2D61E372E00E94AC1A8D2D9C2D95
:103730006AE070E040E050E097010E949F058D2D07
:103740009C2D61E070E04BEF51E00E9411143EC2ED
:103750008DE060E00E94962D85E060E00E94962D4D
:103760008D2D9C2D67E00E94602A8D2D9C2D0E943E
:10377000C12A8D2D9C2D60E040E00E940F2A83EA33
:1037800094E00E94BB048D2D9C2D67E372E00E94A3
:10379000AC1A8D2D9C2D6AE070E040E050E097015E
:1037A0000E949F059AC08DE060E00E94962D85E002
:1037B00061E00E94962D8D2D9C2D67E00E94602A6D
:1037C0008D2D9C2D68EA71E043EB51E051C08DE0F6
:1037D00060E00E94962D85E061E00E94962D8D2D7F
:1037E0009C2D67E00E94602A8D2D9C2D68EA71E077
:1037F00041EC51E03DC08DE060E00E94962D85E0F7
:1038000061E00E94962D8D2D9C2D67E00E94602A1C
:103810008D2D9C2D68EA71E042ED51E00E94651902
:10382000C7C08DE060E00E94962D85E061E00E94B7
:10383000962D8D2D9C2D67E00E94602A8D2D9C2D4C
:1038400068EA71E04DED51E013C08DE060E00E9448
:10385000962D85E061E00E94962D8D2D9C2D67E0D0
:103860000E94602A8D2D9C2D68EA71E047EE51E0A0
:103870000E946519ABC18DE060E00E94962D85E045
:1038800061E00E94962D8D2D9C2D67E00E94602A9C
:103890008D2D9C2D0E94C12A8D2D9C2D60E040E035
:1038A0000E940F2A8D2D9C2D63EF71E00E94AC1AAF
:1038B0008D2D9C2D6AE070E040E050E097010E9461
:1038C0009F0579C08DE060E00E94962D85E061E063
:1038D0000E94962D133009F06BC0E0907904F090AF
:1038E0007A0400917B0410917C0480917D04909176
:1038F0007E04A0917F04B0918004E816F9060A07BF
:103900001B0709F463C1C801B7010E9458284C0184
:10391000C801B7010E9452285C01C801B7010E948A
:103920004C287C010E94F52429833A834B835C83D5
:103930006D837E83A1EBB4E0FE01319686E00190B9
:103940000D928150E1F7ADB7BEB71E970FB6F89450
:10395000BEBF0FBEADBFEDB7FEB7319608EF13E0A7
:1039600012961C930E93119788E291E093838283C1
:1039700095828482B782A682F186E0868091B40423
:10398000828713868091B504848715860E94BC01C6
:103990008DB79EB70E960FB6F8949EBF0FBE8DBF23
:1039A0008D2D9C2D61E070E0A8010E9460080EC181
:1039B0001F3F09F00BC18091F6039091F703892B0B
:1039C00009F004C18D2D9C2D60E040E00E940F2A7B
:1039D00083EA94E00E94BB048D2D9C2D63EF71E07F
:1039E0000E94AC1A0E94F52429833A834B835C839E
:1039F0006D837E83A1EBB4E0FE01319686E00190F9
:103A00000D928150E1F7ADB7BEB71A970FB6F89493
:103A1000BEBF0FBEADBFEDB7FEB7319608EF13E0E6
:103A200012961C930E93119783E491E09383828303
:103A30008091B404848315828091B50486831782B3
:103A40008091B604808711860E94BC018DB79EB715
:103A50000A960FB6F8949EBF0FBE8DBF8D2D9C2D7C
:103A600060E070E041E050E098010E949F05809185
:103A7000A304882309F47EC08D2D9C2D69E040E0CD
:103A80000E940F2A8D2D9C2D62E00E94C7298D2D4A
:103A90009C2D60E00E94C729ADB7BEB718970FB63E
:103AA000F894BEBF0FBEADBFEDB7FEB7319612960C
:103AB0001C930E9311978091C3019091C40193833D
:103AC00082838091A404848315828091A5048683D7
:103AD00017820E94BC018DB79EB708960FB6F89466
:103AE0009EBF0FBE8DBF8D2D9C2D6BE070E040E022
:103AF00050E098010E949F058D2D9C2D69E041E0CA
:103B00000E940F2A8D2D9C2D61E00E94C7298D2DCA
:103B10009C2D60E00E94C729ADB7BEB718970FB6BD
:103B2000F894BEBF0FBEADBFEDB7FEB7319612968B
:103B30001C930E9311978091C3019091C4019383BC
:103B400082838091A604848315828091A704868352
:103B500017820E94BC018DB79EB708960FB6F894E5
:103B60009EBF0FBE8DBF8D2D9C2D6BE070E041E0A0
:103B700050E029C0ADB7BEB718970FB6F894BEBFD6
:103B80000FBEADBFEDB7FEB7319612961C930E93E4
:103B9000119782E591E093838283B48215828091AC
:103BA0006804868317820E94BC018DB79EB7089671
:103BB0000FB6F8949EBF0FBE8DBF8D2D9C2D6AE071
:103BC00070E040E050E098010E949F0526960FB6F5
:103BD000F894DEBF0FBECDBFCF91DF911F910F9143
:103BE000FF90EF90DF90CF90BF90AF909F908F901D
:103BF0000895FF920F931F938C01FF24FA94FC0108
:103C0000F1A60E94B11010928B0010928A0082E0FF
:103C100090E0F8019183808385E894E00E94C31AC4
:103C2000F801F2A61F910F91FF900895FF920F9354
:103C30001F93DF93CF9300D000D000D0CDB7DEB775
:103C40008C01DC0117968C91813009F0A6C00E948E
:103C5000F52429833A834B835C836D837E83A1EBB8
:103C6000B4E0FE01319686E001900D928150E1F7BB
:103C70008091B404F8018583F090B504F6828081C8
:103C8000882309F488C02181222351F4828188236A
:103C900039F48381882321F48481882309F47BC04B
:103CA000D80113965C911397251741F412969C91B5
:103CB000129714968C91981709F46DC0F8018281BF
:103CC00046E0849FF0011124822F90E028E631E045
:103CD000BC01629FC001639F900D729F900D1124E3
:103CE000E80FF91FD80114968C91849FB00111241C
:103CF000852F90E0DC01A29FC001A39F900DB29F91
:103D0000900D1124680F791FF49EA0011124D80191
:103D100015968C9190E0DC01A29FC001A39F900DAD
:103D2000B29F900D1124480F591F6E177F0768F43A
:103D30004E175F0718F04617570768F4E417F507A2
:103D400018F16417750700F106C04E175F07E0F021
:103D500046175707C8F4209161042F3FE1F4809182
:103D6000F6039091F703892BB1F42093620410922B
:103D7000610480E49FE190938B0080938A0010920D
:103D800039041092380407C04617570721F488E316
:103D900094E00E94F91DF801178226960FB6F89458
:103DA000DEBF0FBECDBFCF91DF911F910F91FF906E
:103DB00008950F931F93CF93DF93EC010E9434106B
:103DC0008881813079F489819A81AB81BC810097A7
:103DD000A105B10509F07AC01882AD81BE811097A6
:103DE00029F40DC0823009F071C013C0ED91FC912F
:103DF00011970280F381E02DCD01099567C0809174
:103E000061048F3F09F448C088E394E00E94F91DE3
:103E10005DC089819A81AB81BC810097A105B10504
:103E200009F454C019821A821B821C82AD81BE81A2
:103E3000109709F440C0ED91FC9111970480F58131
:103E4000E02DCD010995DC019E838D830097D9F08B
:103E500083E0AE38B80719F414960C911497ED91DD
:103E6000FC9111970190F081E02DCD010995ED8134
:103E7000FE8183E0EE38F80749F501500483CF0155
:103E80000E94F51823C08091A304882321F081E0CB
:103E90008093AA041BC08FEF809362041092610488
:103EA00080E49FE190938B0080938A001092390404
:103EB000109238040BC088E394E00E94F91D0EE8CC
:103EC00013E0C8010E944C191E830D83DF91CF912E
:103ED0001F910F910895FF920F931F93CF93DF933C
:103EE000EC0188E061E00E94702D87E061E00E94B3
:103EF000702D89E061E00E94702D83E060E00E94F7
:103F0000702D84E060E00E94702D83E061E00E94EB
:103F1000962D84E061E00E94962DCE010E94B110A2
:103F20001092800020E43FE13093870020938600C8
:103F300081E180938100229A809180008062809349
:103F4000800030938B0020938A001982188287EBBF
:103F500094E062E070E00E94AA218F3F11F41C8E71
:103F600005C08C8F80FD02C011E001C012E087EB1C
:103F700094E068E070E00E94AA218F3F11F41D8E4A
:103F800001C08D8F1E8E19861A861B861C861D8683
:103F90001A8A1B8A1C8A1D8A1E8A1B8E19A61AA6BB
:103FA00037E0F32E08E0CE010E947C19982F8C8D0B
:103FB000282F85FD05C0892F8150823008F4192FE4
:103FC00023FD05C0933019F4F9A621E001C020E0DB
:103FD0008C8D84FD04C0943011F409A702C0222303
:103FE00069F060EA7BEB8DE090E00E94B02C89A53F
:103FF0008930C9F28730B9F28830A9F2CE01612F39
:104000000E947713CE0102960E94A0108C8D86FD2F
:104010000CC08FEF8AA719A680E49FE190938B00D4
:1040200080938A001982188203C0CE010E94F91D74
:104030008DE060E00E94962DDF91CF911F910F914E
:10404000FF90089588E394E00E941A1185E894E0B7
:104050000E94C31A81EF93E00E94D91E83EA94E084
:104060000E94161E0895EF92FF920F931F938C01EA
:104070008DE061E00E94702D85E061E00E94702D6E
:104080008DE060E00E94962D85E060E00E94962D14
:1040900081E0F8018487C80160E142E022E00E94EB
:1040A000CE2AC80167E00E94602A48EFE42E43E070
:1040B000F42EC70169E172E048E050E00E94AC01D3
:1040C000C80160E0A7010E94D429C70161E272E043
:1040D00048E050E00E94AC01C80161E0A7010E94E5
:1040E000D429C70169E272E048E050E00E94AC01C7
:1040F000C80162E0A7010E94D429C8010E94C12A18
:10410000C80160E070E044E752E00E941114C80169
:1041100060E070E041E050E02BE632E00E94F013F6
:10412000C80168E670E00E94AC1AC80167E672E058
:104130000E94AC1A60E273E080E090E00E94B02C34
:104140001F910F91FF90EF9008958EEF94E00E94E1
:1041500020220E94F32483EA94E00E94170585E858
:1041600094E00E94332088E394E00E946B1F08953E
:1041700088E10FB6F89480936000109260000FBE43
:1041800086E296E040E056E960E070E00E94722E20
:1041900080E069ED70E143E050E00E94DD2B0E9479
:1041A000A52081EF93E00E949710089560E241E01E
:1041B00020E00E94FE28089587E593E090938F0306
:1041C00080938E038EE690E090939103809390030A
:1041D0008DE493E0909394038093930384E790E0BD
:1041E000909396038093950383E493E090939903CF
:1041F0008093980382E890E090939B0380939A03C6
:1042000089E393E09093A2038093A1038EE890E06A
:104210009093A4038093A3038FE293E09093A7036A
:104220008093A6038AE990E09093A9038093A80362
:1042300085E293E09093AC038093AB038BEA90E02C
:104240009093AE038093AD038BE193E09093B10321
:104250008093B00388EB90E09093B3038093B20314
:1042600081E193E09093B6038093B50323EC30E0B3
:104270003093B8032093B70387E093E09093BB0398
:104280008093BA038DEF92E09093C0038093BF03B5
:104290003093C2032093C10383EF92E09093C50350
:1042A0008093C40389EE92E09093CA038093C9037C
:1042B0008FED92E09093CF038093CE0385ED92E053
:1042C0009093D4038093D3032CEF30E03093D60344
:1042D0002093D5038BEC92E09093D9038093D8037D
:1042E0003093DB032093DA0381EC92E09093DE03BA
:1042F0008093DD0387EB92E09093E3038093E203E6
:104300008DEA92E09093E8038093E70383EA92E0DA
:104310009093ED038093EC031092F1031092F2035B
:104320001092F3031092F4031092F5031092F70326
:104330001092F60385E894E00E94D62081E08093F5
:10434000AA0481EB94E040E050E060E070E00E945D
:104350004E240895F999FECF72BD61BDF89A80B5DB
:104360000895F999FECF1FBA72BD61BD40BD0FB669
:10437000F894FA9AF99A0FBE089581E08093FD04AB
:104380006093DA041092FB041092FC04089590915B
:10439000D8048091D904981710F080E00895E92F8F
:1043A000F0E0E854FB4F80819F5F9093D80408951C
:1043B0000895DF93CF930F92CDB7DEB769838091D5
:1043C000FD04882389F08091FC04803290F4809170
:1043D000FB04E82FF0E0E552FB4F60838F5F809392
:1043E000FB048093FC0405C0CE01019661E00E94AD
:1043F000B8220F90CF91DF9108950E94D92108959E
:104400008091DA046BED74E04091FC0421E00E949D
:1044100075221092FB041092FC041092FD04089582
:10442000413208F040E2862F68EB74E00E943E22A1
:104430001092D8048093D90408950E941022089500
:104440001092D8041092D9041092FB041092FC042C
:104450000E942B2208951092FF04449A459AE9EB9A
:10446000F0E080818E7F808380818D7F808388E4EF
:104470008093B80085E48093BC000895982F413262
:1044800010F040E030C08091FF048823E1F781E024
:104490008093FF048FEF80936A05109225054150A9
:1044A000409326054F5F990F91609093000585EE2C
:1044B0008093BC008091FF048130E1F38091250559
:1044C000841710F44091250520E030E00AC0FB017C
:1044D000E20FF31FD901AB5FBA4F8C9180832F5F3E
:1044E0003F4F2417A0F3842F08951F93582F122FA6
:1044F000413210F081E03AC08091FF048823E1F757
:1045000082E08093FF048FEF80936A051092250567
:1045100040932605A5E0B5E0FB0102C081918D9393
:104520008E2F861B8417D0F3852F90E0880F991F5C
:104530008093000585EE8093BC00112321F08091CB
:10454000FF048230E1F380916A058F3F11F480E02F
:104550000DC080916A05803211F482E007C080911D
:104560006A05803311F084E001C083E01F91089553
:10457000482F613210F081E008958091FF0484306B
:1045800011F082E0089560934805A7E2B5E0842F1A
:104590009C01F90102C081918D938E2F841B861797
:1045A000D0F380E008951F920F920FB60F9211245E
:1045B0002F933F934F935F936F937F938F939F932B
:1045C000AF93BF93EF93FF938091B90090E0887F02
:1045D00090708036910509F4DCC081369105CCF5E8
:1045E0008832910509F47BC089329105B4F4803199
:1045F000910509F46FC0813191053CF4009709F4ED
:1046000031C1089709F039C165C08831910509F4B5
:1046100066C0809709F031C17DC08034910509F4EE
:104620009FC08134910544F48033910509F47DC025
:10463000C89709F022C184C08035910509F484C06F
:104640008835910509F491C08834910509F015C1A8
:1046500098C08839910509F4FDC089399105ECF4B9
:104660008837910509F495C0893791054CF488364F
:10467000910509F48EC08037910509F0FEC089C00C
:104680008838910509F4E6C08039910509F487C09E
:104690008038910509F0F1C082C0803B910509F492
:1046A000B0C0813B91054CF4803A910509F489C072
:1046B000883A910509F0E1C0A4C0803C910509F455
:1046C000CDC0883C910509F4C9C0883B910509F02B
:1046D000D4C0ACC0809100058093BB00B9C090915C
:1046E000250580912605981768F490912505E92FF6
:1046F000F0E0EB5FFA4F80818093BB009F5F909367
:104700002505A6C085ED8093BC008091BC0084FD8A
:10471000FCCFB1C080E280936A0585ED8093BC0038
:104720008091BC0084FDFCCFA6C080E380936A0525
:1047300085ED8093BC008091BC0084FDFCCF9BC0C4
:1047400088E380936A058AC0809125059091BB001B
:10475000E82FF0E0EB5FFA4F90838F5F80932505A1
:10476000909125058091260571C080912505909135
:10477000BB00E82FF0E0EB5FFA4F90838F5F8093F0
:10478000250585ED8093BC008091BC0084FDFCCFA5
:1047900072C083E08093FF041092690559C0809134
:1047A0006905803208F056C0809169059091BB0080
:1047B000E82FF0E0E75BFA4F90838F5F8093690505
:1047C00047C080916905803230F4E0916905F0E0DE
:1047D000E75BFA4F108285ED8093BC008091BC00AE
:1047E00084FDFCCF1092FF0460916905E091030500
:1047F000F091040589E495E070E00995109269054F
:104800002DC084E08093FF04109247051092480564
:10481000E0910105F09102050995809148058823F2
:1048200029F481E08093480510922705909147056F
:10483000E92FF0E0E95DFA4F80818093BB009F5F34
:10484000909347059091470580914805981710F47B
:1048500085EC01C085E88093BC000FC085EC809397
:10486000BC0009C010926A0585ED8093BC00809160
:10487000BC0084FDFCCF1092FF04FF91EF91BF912B
:10488000AF919F918F917F916F915F914F913F91E8
:104890002F910F900FBE0F901F901895EF92FF92DF
:1048A0000F931F93CF93DF93EC017A018B0180E884
:1048B0009CEBA2E9B7ECE80EF91E0A1F1B1FC8010A
:1048C000B7012CE330E040E050E00E94D7316D8327
:1048D000C801B7012CE330E040E050E00E94D7313E
:1048E000122F032FF42EE52E622F732F842F952F76
:1048F0002CE330E040E050E00E94D7316C83612F20
:10490000702F8F2D9E2D2CE330E040E050E00E9470
:10491000D731122F032FF42EE52E622F732F842F01
:10492000952F28E130E040E050E00E94D7316B83C2
:10493000612F702F8F2D9E2D28E130E040E050E058
:104940000E94D73160E0A3E9BEEF70E0862F90E0CF
:1049500083709070892B09F471E0E62FEF5F472F89
:1049600050E0CA0183599E4F2817390738F0CD010E
:10497000841B950B280F391F6E2FE7CF688341E00A
:10498000E42FF0E0EC57FD4F8491772319F042308B
:1049900009F48F5F90E0542F5F5F2817390720F0EC
:1049A000281B390B452FECCF4983822F8F5F8A83D9
:1049B000DF91CF911F910F91FF90EF900895CF92CB
:1049C000EF920F93FC0187E0603D780710F0605D87
:1049D00077406083418322830383E482C5820F9101
:1049E000EF90CF90089581E00895BF92CF92DF922B
:1049F000EF92FF920F931F93DF93CF9300D000D0DD
:104A000000D0CDB7DEB70EEF14E0C80168E670E065
:104A10000E94BD2160916B0570916C05C8010E94D8
:104A2000FD21C8010E940022C80168E670E047E04D
:104A300050E00E941D22C8010E94C7219FE7B92EA5
:104A4000B822C8010E94C721C82EC8010E94C721F0
:104A5000D82EC8010E94C721C8010E94C721E82E94
:104A6000C8010E94C721F82EC8010E94C721282F23
:104A700030E0B4E035952795BA95E1F74AEF5FEF5E
:104A8000B901649F9001659F300D749F300D112412
:104A9000820F90E02B2D30E0A4E035952795AA9564
:104AA000E1F7B901649F9001659F300D749F300D4F
:104AB0001124B20E2C2D30E0F4E035952795FA95AF
:104AC000E1F7B901649F9001659F300D749F300D2F
:104AD0001124C20E2D2D30E0E4E035952795EA959E
:104AE000E1F7B901649F9001659F300D749F300D0F
:104AF0001124D20E2E2D30E074E0359527957A954D
:104B0000E1F7B901649F9001659F300D749F300DEE
:104B10001124E20E2F2D30E064E0359527956A953B
:104B2000E1F7B901649F9001659F300D749F300DCE
:104B30001124F20E282F3F2D4E2D5D2D6C2D7B2D37
:104B400080E026960FB6F894DEBF0FBECDBFCF91A2
:104B5000DF911F910F91FF90EF90DF90CF90BF906A
:104B60000895DF92EF92FF920F931F937C010EEF57
:104B700014E0C80168E670E00E94BD2160916B05F9
:104B800070916C05C8010E94FD21F7012581822FDB
:104B90006AE00E94A43146E0D42E8D9DC00111240C
:104BA000280FC801622F0E94D921F7012481822F8A
:104BB0006AE00E94A4318D9DC0011124280FC80114
:104BC000622F0E94D921F7012381822F6AE00E947F
:104BD000A4318D9DC0011124280FC801622F0E94AD
:104BE000D921C80160E00E94D921F7012281822FDA
:104BF0006AE00E94A4318D9DC0011124280FC801D4
:104C0000622F0E94D921F7012181822F6AE00E9440
:104C1000A4318D9DC0011124280FC801622F0E946C
:104C2000D921F7012081822F6AE00E94A4318D9D55
:104C3000C0011124280FC801622F0E94D921609160
:104C40006B0570916C05C8010E94FD21C8010E948E
:104C500000221F910F91FF90EF90DF9008950F9326
:104C60001F93611571058105910569F481E090E05C
:104C7000A0E0B0E080936D0590936E05A0936F0562
:104C8000B093700508C060936D0570936E058093B6
:104C90006F059093700510937205009371058091D4
:104CA00070008E7F809370008091B0008C7F809325
:104CB000B0008091B100877F8093B1008091B600F1
:104CC0008F7D8093B600809170008D7F80937000FF
:104CD0008091B10084608093B1008091B1008C7F9D
:104CE0008093B100CA01B90120E034E244E75BE4FB
:104CF0000E94223120E030E040E85CE30E94223153
:104D00000E94A03020E031E0261B370B309379055C
:104D1000209378051F910F9108950F931F938A0197
:104D20002FE632E143E85AE30E942F261F910F91AC
:104D300008951092730510927405109275051092E3
:104D4000760510927705809178059091790580938A
:104D5000B200E0E7F0E08081816080830895809177
:104D6000730590917405A0917505B0917605019633
:104D7000A11DB11D8093730590937405A0937505D3
:104D8000B09376058091730590917405A091750597
:104D9000B091760520916D0530916E0540916F05BB
:104DA0005091700582179307A407B50710F1809101
:104DB00077058823F1F481E080937705809173056E
:104DC00090917405A0917505B0917605821B930BA7
:104DD000A40BB50B8093730590937405A093750590
:104DE000B0937605E0917105F091720509951092E6
:104DF000770508951F920F920FB60F9211242F93EB
:104E00003F934F935F936F937F938F939F93AF9352
:104E1000BF93EF93FF9380917805909179058093EC
:104E2000B2000E94AF26FF91EF91BF91AF919F9189
:104E30008F917F916F915F914F913F912F910F9043
:104E40000FBE0F901F9018958F929F92AF92BF92B6
:104E5000CF92DF92EF92FF920F931F93CF93DF9346
:104E60007B018C01EA012CE330E040E050E00E943D
:104E7000D7316883C801B7012CE330E040E050E04F
:104E80000E94D731122F032FF42EE52E622F732F9D
:104E9000842F952F2CE330E040E050E00E94D73182
:104EA0006983612F702F8F2D9E2D2CE330E040E021
:104EB00050E00E94D731122F032FF42EE52E622FDF
:104EC000732F842F952F28E130E040E050E00E94BE
:104ED000D7316A83612F702F8F2D9E2D28E130E00E
:104EE00040E050E00E94D73179018A01C801B70142
:104EF0006C5F7F4F8F4F9F4F27E030E040E050E0E6
:104F00000E94D7316F5F6B8320E0AA24BB24650128
:104F100001C02F5F822E9924F401EE54F84FCF0187
:104F200083709070892B99F4CF0164E670E00E9441
:104F3000C431892B39F4CF0160E971E00E94C4319A
:104F4000892B29F48EE691E0A0E0B0E004C08DE664
:104F500091E0A0E0B0E0A80EB91ECA1EDB1EC5019C
:104F6000A0E0B0E0E816F9060A071B0790F62E83CA
:104F7000F401EE54F84F83E0882E912C8E229F226C
:104F80008114910499F4CF0164E670E00E94C43169
:104F9000892B39F4CF0160E971E00E94C431892B7B
:104FA00029F48EE691E0A0E0B0E004C08DE691E047
:104FB000A0E0B0E0A81AB90ACA0ADB0A9801870182
:104FC0000A191B092C093D09CF0164E670E00E9413
:104FD000C4317C01CF0160E971E00E94C431AC01B1
:104FE000EDE5F3E060E0613051F48114910449F49F
:104FF000E114F10441F44115510529F002C080810A
:1050000003C08CE101C08DE190E0A0E0B0E00817A2
:1050100019072A073B0740F0081B190B2A0B3B0B0B
:105020006F5F31966C30F9F66F5F6D83802F8F5F05
:105030008C83DF91CF911F910F91FF90EF90DF90C4
:10504000CF90BF90AF909F908F900895EF92FF9276
:105050000F931F937B018C01809191059091920594
:10506000A0919305B0919405E816F9060A071B076D
:1050700071F0C801B70146E855E00E942427E0928C
:105080009105F092920500939305109394051F915A
:105090000F91FF90EF9008950E9426288091860539
:1050A00090E008950E9426288091870590E0089559
:1050B0000E9426288091880590E0089560937C05E1
:1050C00070937D0580937E0590937F0520919A02D1
:1050D00030919B0240919C0250919D02260F371FF8
:1050E000481F591F20938005309381054093820506
:1050F0005093830582E090E090938505809384052A
:105100000E94A22C60938D0570938E0580938F056D
:10511000909390050895EF92FF920F931F931CC0F8
:105120002F5F3F4F4F4F5F4F20937C0530937D059E
:1051300040937E0550937F0588EE93E0A0E0B0E0B9
:10514000E80EF91E0A1F1B1FE0928D05F0928E05D6
:1051500000938F05109390050E94A22CE0908D057E
:10516000F0908E0500918F05109190056E197F09C2
:10517000800B910B20917C0530917D0540917E053F
:1051800050917F05685E73408040904048F6809162
:10519000800590918105A0918205B0918305281723
:1051A00039074A075B07E8F0E0917A05F0917B0543
:1051B0003097B9F00995611571058105910519F0D0
:1051C0000E945E280EC020E030E08091840590911E
:1051D0008505892B11F021E030E03093850520937F
:1051E000840560917C0570917D0580917E0590918C
:1051F0007F051F910F91FF90EF900895FC018DE6C0
:1052000093E091838083442311F481E001C082E024
:10521000818720876783128214860895682F8EEF16
:1052200094E00E94D92108951F93162FFC016781F5
:1052300060628EEF94E070E00E94BD2189E00E94E0
:105240000E29812F0E940E298EEF94E00E940022E9
:105250008823D1F71F9108951F93162FFC016781B2
:1052600060628EEF94E070E00E94BD2183E10E94B5
:105270000E29812F0E940E298EEF94E00E940022B9
:105280008823D1F71F910895DF92EF92FF920F9339
:105290001F93CF93DF937C01062FD42EFC018485CE
:1052A000C62FD0E08130A1F5638504FD6061C5FDA6
:1052B0006860C6FD646007FD6260DD2019F0162F8E
:1052C000106A02C0162F1062C701612F0E942C299C
:1052D0001F7DC701612F0E942C29F7016385C0FD46
:1052E0006061C1FD6860C2FD6460C3FD6260DD2075
:1052F00019F0162F106A02C0162F1062C701612F15
:105300000E942C291F7DC701612F0E942C2937C0C4
:10531000D695C7959E012877442319F0922F966061
:1053200002C0922F9460F701838183FD02C010E0D8
:1053300001C010E8192BC701612F0E9414291B7F9F
:10534000C701612F0E941429602F6F70660F660FCE
:10535000660FDD2011F0666001C06460F701838193
:1053600083FD02C010E001C010E8162BC701612FB9
:105370000E9414291B7FC701612F0E941429DF910D
:10538000CF911F910F91FF90EF90DF900895FC0156
:105390008185882321F0CF0141E00E9444290895AE
:1053A00040E00E9444290895EF92FF920F931F93CB
:1053B000CF93DF938C017A01DC0119968C918823BD
:1053C000D1F06770660F660F660F6064C8010E94B7
:1053D000D029C0E0D0E0D801ED91FC91D701AC0F0D
:1053E000BD1F0190F081E02DC8016C9109952196B7
:1053F000C830D10581F7DF91CF911F910F91FF90B8
:10540000EF900895FC018185882341F06381862F08
:10541000846083836C60CF010E94D0290895DF935C
:10542000CF93CDB7DEB728970FB6F894DEBF0FBE87
:10543000CDBF9C01FC0181858823D9F0FE01319606
:10544000A3E7B3E088E00D9001928150E1F7F90104
:105450008581841710F4482F4150E42FF0E0EE0FBF
:10546000FF1FEC0FFD1F8181680F6068C9010E945A
:10547000D02928960FB6F894DEBF0FBECDBFCF91CE
:10548000DF9108950F931F93162F072FFC0167815B
:1054900060628EEF94E070E00E94BD2182E10E9484
:1054A0000E29812F0E940E29802F0E940E298EEF37
:1054B00094E00E9400228823D1F71F910F91089554
:1054C000FC0181858823B1F18085882311F087E074
:1054D000682784858130F1F480EC91E0938782879E
:1054E00060FF04C080E891E09387828761FF05C078
:1054F000828593858F779387828762FF05C0828537
:1055000093859E7F9387828762857385CF010E94F2
:10551000422A08958381662311F0886001C0877F45
:105520008383838183FD02C060E001C060E8CF0116
:105530000E9414290895CF93DF93EC018985882375
:10554000E9F06F8160628EEF94E070E00E94BD210F
:1055500082E10E940E298EEF94E00E9400226F816A
:1055600060628EEF94E070E041E050E00E941D2206
:105570008EEF94E00E94C72180958F71DF91CF91CB
:105580000895FC018185882341F0CF0161E00E94EC
:10559000D02980ED97E00E94092D08950F931F9365
:1055A000CF93DF93EC01142F022F62E370E080E0D1
:1055B00090E00E94B02C8EEF94E00E9420228C8517
:1055C0006F818130B1F560628EEF94E070E00E94EF
:1055D000BD2180E00E940E298FE10E940E298EEFEE
:1055E00094E00E940022882321F08985823009F40A
:1055F00066C06F8160628EEF94E070E00E94BD2112
:105600008CE00E940E298FE10E940E298EEF94E01B
:105610000E940022882321F08985823009F44FC03E
:105620006F8160628EEF94E070E00E94BD2181E0A6
:1056300038C060628EEF94E070E00E94BD2180E08F
:105640000E940E298FEF0E940E2980E00E940E29F1
:1056500080E00E940E2980E00E940E2980E00E94D6
:105660000E2980E00E940E2980E00E940E2980E031
:105670000E940E2980E00E940E2980E00E940E29DF
:105680008EEF94E00E940022882319F089858230F1
:10569000B1F06F8160628EEF94E070E00E94BD21F6
:1056A00080E00E940E2980E00E940E298EEF94E097
:1056B0000E940022882329F08985823011F41986FE
:1056C00077C08985823011F481E08987123018F023
:1056D0008A8188608A831D831E82002329F011300D
:1056E00019F48A8184608A838C858130B9F41B86A1
:1056F0001A8610E0CE0168E30E942C29CE0168E1F1
:105700000E942C291F5F1330A9F7CE0168E20E9486
:105710002C29CE0168E00E942C2920C0CE016CE922
:105720000E941429CE0168E90E941429CE016CE977
:105730000E941429CE0168E90E941429CE016CE967
:105740000E941429CE0168E90E941429CE0164E95F
:105750000E941429CE0160E90E94142965E070E0DE
:1057600080E090E00E94B02C6A816062CE010E94CD
:10577000D02965E070E080E090E00E94B02C6A8162
:105780006062CE010E94D02965E070E080E090E088
:105790000E94B02C8CE08B83CE010E94022ACE01A5
:1057A0000E94C12A82E08C83CE0166E00E94D0294B
:1057B000DF91CF911F910F910895823000F5E82F6E
:1057C000F0E0EE0FFF1FEB56FA4F718360838823E2
:1057D00019F08130A1F408C0809169008C7F842B7E
:1057E00080936900E89A089580916900440F551FDD
:1057F000440F551F837F842B80936900E99A089595
:105800001F920F920FB60F9211242F933F934F9335
:105810005F936F937F938F939F93AF93BF93EF9318
:10582000FF938091950590919605892B29F0E09141
:105830009505F09196050995FF91EF91BF91AF9174
:105840009F918F917F916F915F914F913F912F9198
:105850000F900FBE0F901F9018951F920F920FB6CA
:105860000F9211242F933F934F935F936F937F93E6
:105870008F939F93AF93BF93EF93FF93809197057F
:1058800090919805892B29F0E0919705F091980562
:105890000995FF91EF91BF91AF919F918F917F916A
:1058A0006F915F914F913F912F910F900FBE0F908D
:1058B0001F9018951F920F920FB60F9211242F93DD
:1058C0003F938F939F93AF93BF9380919D0590914A
:1058D0009E05A0919F05B091A0053091A10501966C
:1058E000A11DB11D232F2D5F2D3720F02D570196BF
:1058F000A11DB11D2093A10580939D0590939E0548
:10590000A0939F05B093A0058091990590919A0569
:10591000A0919B05B0919C050196A11DB11D80939E
:10592000990590939A05A0939B05B0939C05BF9110
:10593000AF919F918F913F912F910F900FBE0F903C
:105940001F9018958FB7F89420919D0530919E0572
:1059500040919F055091A0058FBFB901CA010895DC
:105960009B01AC017FB7F8948091990590919A05BD
:10597000A0919B05B0919C0566B5A89B05C06F3FA3
:1059800019F00196A11DB11D7FBFBA2FA92F982F25
:105990008827860F911DA11DB11D62E0880F991FF8
:1059A000AA1FBB1F6A95D1F7BC012DC0FFB7F894A1
:1059B0008091990590919A05A0919B05B0919C05C5
:1059C000E6B5A89B05C0EF3F19F00196A11DB11DDA
:1059D000FFBFBA2FA92F982F88278E0F911DA11DC9
:1059E000B11DE2E0880F991FAA1FBB1FEA95D1F7EE
:1059F000861B970B885E9340C8F221503040404090
:105A0000504068517C4F211531054105510571F613
:105A10000895019739F0880F991F880F991F0297F1
:105A20000197F1F70895789484B5826084BD84B5B8
:105A3000816084BD85B5826085BD85B5816085BD89
:105A4000EEE6F0E0808181608083E1E8F0E01082A2
:105A5000808182608083808181608083E0E8F0E0E3
:105A6000808181608083E1EBF0E0808184608083CD
:105A7000E0EBF0E0808181608083EAE7F0E0808104
:105A80008460808380818260808380818160808364
:105A90008081806880831092C1000895982F8E3095
:105AA00008F09E50977080919E028295880F880F13
:105AB000807C892B80937C0080917A008064809325
:105AC0007A0080917A0086FDFCCF20917800409189
:105AD0007900942F80E030E0282B392BC9010895FC
