:100000000C9479010C94032C0C94302C0C94AA01C0
:100010000C94AA010C94AA010C94AA010C94AA01B4
:100020000C94AA010C94F9260C94AA010C94AA0130
:100030000C94AA010C94AA010C94AA010C94AA0194
:100040000C945D2C0C94AA010C94442E0C94AA01DF
:100050000C94AA010C94AA010C94AA010C94AA0174
:100060000C94D2220C94AA01322E312E300053650A
:100070007475700053657276696365204C657665AA
:100080006C004D61782043757272656E740044692E
:100090006F646520436865636B0056656E7420521B
:1000A0006571276420436865636B0047726F756EE6
:1000B0006420436865636B0052657365740045781E
:1000C000697400446174652F54696D6500536574EB
:1000D000204D6F6E7468005365742044617900533D
:1000E000657420596561720053657420486F75729C
:1000F00000536574204D696E7574650044656C61CC
:10010000792054696D65720053657420537461726F
:100110007420486F75720053657420537461727453
:10012000204D696E005365742053746F7020486FC2
:100130007572005365742053746F70204D696E00A2
:10014000506F776572204F6E0053656C6620546562
:100150007374004175746F20446574656374005353
:100160007663204C6576656C3A204C31005376639B
:10017000204C6576656C3A204C32002D2D537475F9
:10018000636B2052656C61792D2D002D2D456172B8
:1001900074682047726F756E642D2D00544553545A
:1001A000204641494C45440045565345204552524E
:1001B0004F520056454E54205245515549524544E0
:1001C0000044494F44452043484B204641494C4553
:1001D000440047464349204641554C54004E4F2069
:1001E00047524F554E4400535455434B2052454CB3
:1001F00041590053746F7070656400455620436F19
:100200006E6E6563746564004556204E6F742043BE
:100210006F6E6E656374656400000E1517110E0035
:100220000000000E0E0E00000000080C0E0C08006E
:10023000005265616479004368617267696E6700A6
:100240005265736574204E6F773F00536574204488
:100250006174652F54696D653F00526573657474F0
:10026000696E672E2E2E002020200056657273695D
:100270006F6E20004F70656E20455653452020203C
:1002800020202020001F1C1F1E1F1E1F1F1E1F1EA0
:100290001F00000000240027002A000000000025A5
:1002A0000028002B00000000002300260029000485
:1002B000040404040404040202020202020303030D
:1002C0000303030102040810204080010204081007
:1002D00020010204081020000000070002010000B5
:1002E000030406000000000000000000DB20D7210E
:1002F000402F11241FBECFEFD8E0DEBFCDBF14BE0C
:1003000088E10FB6F89480936000109260000FBEF1
:1003100013E0A0E0B1E0ECEAF4E602C005900D9233
:10032000A039B107D9F716E0A0E9B3E001C01D92EA
:10033000AA33B107E1F712E0C2EFD2E004C022977E
:10034000FE010E941932CC3ED107C9F70E947A2FD4
:100350000C9454320C940000FB01DC0102C00590A7
:100360000D9241505040D8F70895FB01DC010590F3
:100370000D920020E1F70895AEE0B0E0E2ECF1E08C
:100380000C942B320D891E8986E08C831A83098395
:100390008FEF9FE79E838D839E01275E3F4FCE01A7
:1003A00001966F89788DA9010E94E0012F8138851F
:1003B000020F131FF80110822E96E4E00C944732CE
:1003C000ABE0B0E0E6EEF1E00C941D323C012B0115
:1003D0005A01FC0117821682838181FD03C06FEFF1
:1003E0007FEFC6C19AE0892E1E010894211C311CA2
:1003F000F3012381F20123FD859123FF81912F01D8
:10040000882309F4B2C1853239F423FD859123FF95
:1004100081912F01853229F490E0B3010E94D3032A
:10042000E7CF982FFF24EE249924FFE1FF15D0F0A9
:100430009B3269F09C3228F4903259F0933291F457
:100440000EC09D3249F0903369F441E024C052E07F
:10045000F52A84E0F82A28C098E0F92A25C0E0E1CE
:10046000FE2A22C0F7FC29C0892F80538A3070F4FD
:10047000F6FE05C0989C902C1124980E15C0E89C9F
:10048000E02C1124E80EF0E2FF2A0EC09E3229F47F
:10049000F6FC6BC140E4F42A07C09C3619F450E81E
:1004A000F52A02C0983649F4F20123FD959123FF05
:1004B00091912F01992309F0B8CF892F855483306A
:1004C00018F08052833038F444E050E0A40EB51E9A
:1004D0005FE359830FC0933631F0933779F093354A
:1004E00009F056C020C0F5018081898342E050E0C8
:1004F000A40EB51E610101E010E012C0F501C0803C
:10050000D180F6FC03C06FEF7FEF02C0692D70E071
:1005100042E050E0A40EB51EC6010E94C8038C0143
:100520005FE7F52214C0F501C080D180F6FC03C05E
:100530006FEF7FEF02C0692D70E042E050E0A40E43
:10054000B51EC6010E94BD038C0150E8F52AF3FEDA
:1005500007C01AC080E290E0B3010E94D303EA947E
:100560008E2D90E008171907A8F30EC0F601F7FCCE
:100570008591F7FE81916F0190E0B3010E94D30352
:10058000E110EA94015010400115110579F7EAC015
:10059000943611F0993669F5F7FE08C0F50120810F
:1005A00031814281538184E090E00AC0F50180816D
:1005B00091819C01442737FD4095542F82E090E0C3
:1005C000A80EB91E9FE6F92257FF09C05095409525
:1005D000309521953F4F4F4F5F4FE0E8FE2ACA010B
:1005E000B901A1012AE030E00E94FF03D82ED21801
:1005F00040C0953729F41F2D1F7E2AE030E01DC032
:100600001F2D197F9F3661F0903720F4983509F03F
:10061000ACC00FC0903739F0983709F0A6C004C0BD
:1006200028E030E00AC0106114FD146020E130E0E1
:1006300004C014FD166020E132E017FF08C0F50188
:10064000608171818281938144E050E008C0F501AE
:1006500080819181BC0180E090E042E050E0A40EF6
:10066000B51EA1010E94FF03D82ED2188FE7F82EE5
:10067000F122F6FE0BC05EEFF522D91438F4F4FE39
:1006800007C0F2FC05C08FEEF82202C01D2D01C08C
:10069000192DF4FE0DC0FE01ED0DF11D808180339A
:1006A00019F499EEF92208C01F5FF2FE05C003C0DD
:1006B0008F2D867809F01F5F0F2DF3FC14C0F0FE1C
:1006C0000FC01E1510F09D2C0BC09D2C9E0C911A76
:1006D0001E2D06C080E290E0B3010E94D3031F5F8D
:1006E0001E15C0F304C01E1510F4E11A01C0EE245B
:1006F00004FF0FC080E390E0B3010E94D30302FF28
:100700001DC001FD03C088E790E00EC088E590E0C1
:100710000BC0802F867891F001FF02C08BE201C0F0
:1007200080E2F7FC8DE290E0B3010E94D30306C0A3
:1007300080E390E0B3010E94D3039A94D914C0F3EC
:10074000DA94F101ED0DF11D808190E0B3010E947A
:10075000D303DD20A9F706C080E290E0B3010E9438
:10076000D303EA94EE20C1F743CEF301668177818B
:10077000CB012B96E2E10C943932FC0105906150DB
:1007800070400110D8F7809590958E0F9F1F0895A7
:10079000FC016150704001900110D8F78095909550
:1007A0008E0F9F1F08950F931F93CF93DF938C019C
:1007B000EB018B8181FF1BC082FF0DC02E813F8129
:1007C0008C819D812817390764F4E881F9810193B0
:1007D000F983E88306C0E885F985802F0995892B80
:1007E00031F48E819F8101969F838E8302C00FEF2B
:1007F0001FEFC801DF91CF911F910F910895FA016A
:10080000AA27283051F1203181F1E8946F936E7F4F
:100810006E5F7F4F8F4F9F4FAF4FB1E03ED0B4E040
:100820003CD0670F781F891F9A1FA11D680F791F81
:100830008A1F911DA11D6A0F711D811D911DA11D92
:1008400020D009F468943F912AE0269F11243019A2
:10085000305D3193DEF6CF010895462F4770405D3D
:100860004193B3E00FD0C9F7F6CF462F4F70405DEC
:100870004A3318F0495D31FD4052419302D0A9F747
:10088000EACFB4E0A6959795879577956795BA9541
:10089000C9F700976105710508959B01AC010A2E07
:1008A00006945795479537952795BA95C9F7620FDE
:1008B000731F841F951FA01D08950F931F93CF933F
:1008C000DF93EC01663008F44DC08C8D80FD03C0D1
:1008D00020E130E002C028E130E0862F90E02817C8
:1008E00039070CF43FC068AB00E010E04423A1F1ED
:1008F00088819981019781F588A9282F30E0C90165
:1009000006978E9760F4B901882777FD8095982F18
:1009100025E830E040E050E00E94883115C0C90170
:10092000C4974D97C8F4C901AA2797FDA095BA2F7F
:1009300080569F4FAF4FBF4F35E0880F991FAA1FBA
:10094000BB1F3A95D1F7BC0170938B0060938A006E
:1009500081E090E099838883C801DF91CF911F9156
:100960000F91089586E088AB01E010E0BFCF81E0F1
:100970008093AB040895FC0180818823C1F09181AC
:10098000992349F48281882331F48381882319F4DF
:100990008481882361F08381981721F49281848176
:1009A000981729F087E894E060E00E94C52908952F
:1009B0008091560480FD02C081E001C082E060E0C9
:1009C00070E0813011F061E070E088EB94E04091DC
:1009D0006A040E94B02188EB94E062E070E04091EC
:1009E00056040E94B0210895FC01108288EB94E027
:1009F00063E070E040E00E94B021809156048F7B5C
:100A0000809356040E94D8040895FC0181E08083FD
:100A100088EB94E063E070E041E00E94B0218091B7
:100A200056048064809356040E94D8040895CF939E
:100A3000DF93EC0188EB94E063E070E00E94A92171
:100A40008F3F49F4188288EB94E063E070E040E067
:100A50000E94B02101C0888388EB94E064E070E0DC
:100A60000E94A9218F3F49F4198288EB94E064E049
:100A700070E040E00E94B02101C0898388EB94E0DF
:100A800065E070E00E94A9218F3F51F485E08A83E0
:100A900088EB94E065E070E045E00E94B02101C081
:100AA0008A8388EB94E066E070E00E94A9218F3F82
:100AB00051F486E08B8388EB94E066E070E046E0DA
:100AC0000E94B02101C08B8388EB94E067E070E066
:100AD0000E94A9218F3F51F487E38C8388EB94E037
:100AE00067E070E047E30E94B02101C08C8360E6BC
:100AF0007AEE80E090E047EB54E00E948C260E9462
:100B00009826DF91CF9108950F931F938C0164EF86
:100B100071E080E090E00E94B32CF801848188238A
:100B200019F42AED33E007C0813019F024EE33E0E8
:100B300002C02FED33E0C9011F910F9108950F936B
:100B40001F93CF93DF93EC0189010E94082A8885C7
:100B5000882321F0CE01B8010E94B82FDF91CF91F8
:100B60001F910F910895FC018085882319F0CF0112
:100B70000E94B82F08950F931F938C0187E894E08B
:100B800060E070E041E050E020E031E00E949F052D
:100B9000D8011496EC91F0E0EE0FFF1FEC50FE4FE1
:100BA0006081718187E894E00E94B30564EF71E091
:100BB00080E090E00E94B32CF8018481882329F41E
:100BC00084EA94E00E94050504C084EA94E00E944F
:100BD000F40480E993E01F910F9108950F931F9300
:100BE0008C0187E894E060E070E041E050E020E0B4
:100BF00031E00E949F05D8011496EC91F0E0EE0FD1
:100C0000FF1FEC50FE4F6081718187E894E00E94E5
:100C1000B30564EF71E080E090E00E94B32CF8012E
:100C20008481882319F020E933E002C02CEB33E003
:100C3000C9011F910F9108950F931F938C0187E8AD
:100C400094E060E070E041E050E020E031E00E949C
:100C50009F05D8011496EC91F0E0EE0FFF1FEC50C9
:100C6000FE4F6081718187E894E00E94B305F8012E
:100C700084818823C1F480915604877F8093560431
:100C800088EB94E062E070E0409156040E94B0214D
:100C900064EF71E080E090E00E94B32C80E993E083
:100CA0001F910F910895809156048860E7CF0F93AC
:100CB0001F938C0187E894E060E070E041E050E031
:100CC00020E031E00E949F05D8011496EC91F0E0FD
:100CD000EE0FFF1FEC50FE4F6081718187E894E0BA
:100CE0000E94B305F80184818823C1F480915604E1
:100CF0008B7F8093560488EB94E062E070E0409133
:100D000056040E94B02164EF71E080E090E00E9400
:100D1000B32C80E993E01F910F91089580915604C0
:100D20008460E7CF0F931F938C0187E894E060E025
:100D300070E041E050E020E031E00E949F05D801E2
:100D40001496EC91F0E0EE0FFF1FEC50FE4F608127
:100D5000718187E894E00E94B305F80184818823BB
:100D6000C1F4809156048D7F8093560488EB94E003
:100D700062E070E0409156040E94B02164EF71E09F
:100D800080E090E00E94B32C80E993E01F910F91E6
:100D90000895809156048260E7CFCF93DF93EC01F2
:100DA000462F60E00E94082A8885882339F06091E8
:100DB000C1017091C201CE010E94B82FDF91CF9185
:100DC0000895CF93DF93EC018C818F5F8C83823009
:100DD00008F01C8287E894E061E070E00E94CD0694
:100DE0008C81E82FF0E020E030E08091A40488239B
:100DF00011F421E030E0E217F307B9F487E894E05A
:100E000060E070E041E050E020E031E00E949F05AA
:100E1000EC81F0E0EE0FFF1FEC50FE4F608171811E
:100E200087E894E00E94B3050EC0EE0FFF1FEC5060
:100E3000FE4F2081318187E894E060E070E041E07E
:100E400050E00E949F05DF91CF910895CF93DF93EB
:100E5000EC018C818F5F8C83833008F01C8287E8E3
:100E600094E061E070E00E94CD06EC81F0E0EE0FCE
:100E7000FF1FED56FD4F2081318187E894E060E04F
:100E800070E041E050E00E949F05DF91CF9108950E
:100E9000CF93DF93EC018C818F5F8C83823008F0DD
:100EA0001C8287E894E061E070E00E94CD06EC814E
:100EB000F0E0EE0FFF1FEC50FE4F2081318187E8FC
:100EC00094E060E070E041E050E00E949F05DF9117
:100ED000CF910895CF93DF93EC018C818F5F8C834A
:100EE000823008F01C8287E894E061E070E00E94A4
:100EF000CD06EC81F0E0EE0FFF1FEC50FE4F20819D
:100F0000318187E894E060E070E041E050E00E94C9
:100F10009F05DF91CF910895CF93DF93EC018C81F2
:100F20008F5F8C83823008F01C8287E894E061E058
:100F300070E00E94CD0687E894E060E041E00E9406
:100F4000082A809156049C8183FD03C0992319F0DF
:100F500008C0992331F087E894E060E071E00E94D6
:100F6000B305EC81F0E0EE0FFF1FEC50FE4F608107
:100F7000718187E894E00E94B305DF91CF910895D5
:100F8000CF93DF93EC018C818F5F8C83823008F0EC
:100F90001C8287E894E061E070E00E94CD0687E85B
:100FA00094E060E041E00E94082A809156049C8110
:100FB00082FD03C0992319F008C0992331F087E816
:100FC00094E060E071E00E94B305EC81F0E0EE0F88
:100FD000FF1FEC50FE4F6081718187E894E00E9412
:100FE000B305DF91CF910895CF93DF93EC018C810E
:100FF0008F5F8C83823008F01C8287E894E061E088
:1010000070E00E94CD0687E894E060E041E00E9435
:10101000082A809156049C8181FD03C0992319F010
:1010200008C0992331F087E894E060E071E00E9405
:10103000B305EC81F0E0EE0FFF1FEC50FE4F608136
:10104000718187E894E00E94B305DF91CF91089504
:10105000CF93DF93EC018C818F5F8C83833008F01A
:101060001C8287E894E061E070E00E94CD0687E88A
:1010700094E060E041E00E94082A8091560480FDDF
:1010800002C021E001C022E030E08C8190E00196B6
:101090002817390731F487E894E060E071E00E9496
:1010A000B305EC81F0E0EE0FFF1FE952FE4F6081C7
:1010B000718187E894E00E94B305DF91CF91089594
:1010C000CF92DF92EF92FF920F931F93DF93CF9314
:1010D000CDB7DEB761970FB6F894DEBF0FBECDBFB8
:1010E0007C01262F6A01DC0118968C91882349F136
:1010F000C70160E0422F0E94082A00D000D000D033
:10110000EDB7FEB731968E010F5F1F4FADB7BEB77B
:1011100012961C930E93119782E091E09383828341
:10112000D582C4820E94BC01198AEDB7FEB73696FB
:101130000FB6F894FEBF0FBEEDBFC701B8010E9405
:10114000B82F61960FB6F894DEBF0FBECDBFCF911A
:10115000DF911F910F91FF90EF90DF90CF90089556
:101160000F931F93DC0114962C912093B104EDB7DB
:10117000FEB738970FB6F894FEBF0FBEEDBF31969D
:101180000AEF13E0ADB7BEB712961C930E931197FA
:1011900080919B0290919C02938382838091B00402
:1011A00084831582268317820E94BC01EDB7FEB7A7
:1011B00038960FB6F894FEBF0FBEEDBF87E894E0F7
:1011C00061E070E0A8010E9460084091B004809145
:1011D000B1044093A7048093A80408EB14E0C8016D
:1011E00066E070E00E94B021C80167E070E04091C5
:1011F000A8040E94B0210E94D80464EF71E080E04E
:1012000090E00E94B32C80E993E01F910F91089524
:10121000FC0184818F5F84838C3308F014822481E5
:101220008091B1044AEF53E02817B1F48DB79EB70F
:1012300008970FB6F8949EBF0FBE8DBFEDB7FEB7EF
:101240003196ADB7BEB712965C934E9311978091CD
:101250009B0290919C0213C0ADB7BEB718970FB612
:10126000F894BEBF0FBEADBFEDB7FEB73196129674
:101270005C934E9311978091C3019091C401938325
:1012800082838091B00484831582268317820E9412
:10129000BC018DB79EB708960FB6F8949EBF0FBEDF
:1012A0008DBF87E894E061E070E04AEF53E00E9470
:1012B000600808950F931F93DC0114962C912093DE
:1012C000B104EDB7FEB738970FB6F894FEBF0FBE66
:1012D000EDBF31960AEF13E0ADB7BEB712961C937F
:1012E0000E93119780919B0290919C02938382832D
:1012F0008091B00484831582268317820E94BC01EA
:10130000EDB7FEB738960FB6F894FEBF0FBEEDBF2F
:1013100087E894E061E070E0A8010E9460084091D5
:10132000B0048091B1044093A5048093A60408EB17
:1013300014E0C80164E070E00E94B021C80165E0DB
:1013400070E04091A6040E94B0210E94D80464EF8E
:1013500071E080E090E00E94B32C80E993E01F915F
:101360000F910895FC0184818F5F84838C3308F092
:10137000148224818091B1044AEF53E02817B1F41C
:101380008DB79EB708970FB6F8949EBF0FBE8DBF5E
:10139000EDB7FEB73196ADB7BEB712965C934E93DC
:1013A000119780919B0290919C0213C0ADB7BEB77C
:1013B00018970FB6F894BEBF0FBEADBFEDB7FEB71E
:1013C000319612965C934E9311978091C301909140
:1013D000C401938382838091B00484831582268321
:1013E00017820E94BC018DB79EB708960FB6F8947D
:1013F0009EBF0FBE8DBF87E894E061E070E04AEFCA
:1014000053E00E94600808950F931F93DC01149627
:101410002C912093B004EDB7FEB738970FB6F8942F
:10142000FEBF0FBEEDBF31960AEF13E0ADB7BEB7FA
:1014300012961C930E9311978091990290919A02A3
:1014400093838283248315828091B10486831782DB
:101450000E94BC01EDB7FEB738960FB6F894FEBFF8
:101460000FBEEDBF87E894E061E070E0A8010E9444
:10147000600864EF71E080E090E00E94B32C8EEE93
:1014800093E01F910F910895FC0184818F5F848305
:10149000883108F0148224818091B0044AEF53E02F
:1014A0002817B1F48DB79EB708970FB6F8949EBF72
:1014B0000FBE8DBFEDB7FEB73196ADB7BEB7129672
:1014C0005C934E9311978091990290919A0213C068
:1014D000ADB7BEB718970FB6F894BEBF0FBEADBF7D
:1014E000EDB7FEB7319612965C934E9311978091AB
:1014F000C3019091C40193838283248315828091D8
:10150000B104868317820E94BC018DB79EB70896EE
:101510000FB6F8949EBF0FBE8DBF87E894E061E0E0
:1015200070E04AEF53E00E94600808950F931F9304
:10153000DC0114962C912093B004EDB7FEB73897D8
:101540000FB6F894FEBF0FBEEDBF31960AEF13E061
:10155000ADB7BEB712961C930E9311978091990266
:1015600090919A0293838283248315828091B1049F
:10157000868317820E94BC01EDB7FEB738960FB67E
:10158000F894FEBF0FBEEDBF87E894E061E070E025
:10159000A8010E94600864EF71E080E090E00E9482
:1015A000B32C89EE93E01F910F910895FC01848183
:1015B0008F5F8483883108F0148224818091B00485
:1015C0004AEF53E02817B1F48DB79EB708970FB6CE
:1015D000F8949EBF0FBE8DBFEDB7FEB73196ADB785
:1015E000BEB712965C934E93119780919902909199
:1015F0009A0213C0ADB7BEB718970FB6F894BEBF26
:101600000FBEADBFEDB7FEB7319612965C934E9309
:1016100011978091C3019091C401938382832483A5
:1016200015828091B104868317820E94BC018DB718
:101630009EB708960FB6F8949EBF0FBE8DBF87E881
:1016400094E061E070E04AEF53E00E946008089582
:10165000CF93DF93EC018C818F5F8C838C3308F008
:101660001C8287E894E061E070E00E94CD062C8146
:101670003091B0048AEF93E0231731F54DB75EB790
:101680004E5050400FB6F8945EBF0FBE4DBFEDB741
:10169000FEB73196ADB7BEB712969C938E93119755
:1016A00089E792E0938382838091AE0484831582DC
:1016B0008091AF04868317828091AC049091AD0431
:1016C00091878087228722C0ADB7BEB71E970FB61D
:1016D000F894BEBF0FBEADBFEDB7FEB73196129600
:1016E0009C938E93119788EF91E0938382838091EE
:1016F000AE04848315828091AF0486831782809123
:10170000AC049091AD04918780873287138624873B
:1017100015860E94BC014DB75EB7425F5F4F0FB6A2
:10172000F8945EBF0FBE4DBF87E894E061E070E0C3
:101730004AEF53E00E946008DF91CF9108950F9324
:101740001F93DC0114962C912093B004EDB7FEB7E3
:101750003E970FB6F894FEBF0FBEEDBF31960AEF6D
:1017600013E0ADB7BEB712961C930E9311978FE599
:1017700092E0938382838091AE048483158280916A
:10178000AF04868317828091AC049091AD04918759
:101790008087228713868091B104848715860E94F2
:1017A000BC01EDB7FEB73E960FB6F894FEBF0FBE74
:1017B000EDBF87E894E061E070E0A8010E94600856
:1017C00064EF71E080E090E00E94B32C80ED93E044
:1017D0001F910F910895CF93DF93EC018C818F5F60
:1017E0008C83883108F01C8287E894E061E070E027
:1017F0000E94CD064C818091B0042AEF33E0481757
:10180000A1F48DB79EB70E970FB6F8949EBF0FBE8A
:101810008DBFEDB7FEB73196ADB7BEB712963C930C
:101820002E9311978FE592E011C0ADB7BEB71E970A
:101830000FB6F894BEBF0FBEADBFEDB7FEB7319681
:1018400012963C932E93119788EF91E093838283B5
:101850008091AE04848315828091AF0486831782C1
:101860008091AC049091AD04918780874287138664
:101870008091B104848715860E94BC018DB79EB704
:101880000E960FB6F8949EBF0FBE8DBF87E894E00A
:1018900061E070E04AEF53E00E946008DF91CF9171
:1018A00008950F931F93DC0114962C912093AC04A0
:1018B0001092AD04EDB7FEB73E970FB6F894FEBF99
:1018C0000FBEEDBF31960AEF13E0ADB7BEB712966B
:1018D0001C930E93119785E492E093838283809109
:1018E000AE04848315828091AF048683178220879B
:1018F00011868091B004828713868091B104848719
:1019000015860E94BC01EDB7FEB73E960FB6F8945F
:10191000FEBF0FBEEDBF87E894E061E070E0A80174
:101920000E94600864EF71E080E090E00E94B32CB8
:101930008BEC93E01F910F910895FC0184818F5FE0
:101940008483853110F08CE084836481262F30E01D
:101950008091AC049091AD044AEF53E02817390709
:10196000A1F48DB79EB70E970FB6F8949EBF0FBE29
:101970008DBFEDB7FEB73196ADB7BEB712965C938B
:101980004E93119785E492E011C0ADB7BEB71E9794
:101990000FB6F894BEBF0FBEADBFEDB7FEB7319620
:1019A00012965C934E93119788EF91E09383828314
:1019B0008091AE04848315828091AF048683178260
:1019C000608711868091B004828713868091B1046C
:1019D000848715860E94BC018DB79EB70E960FB600
:1019E000F8949EBF0FBE8DBF87E894E061E070E081
:1019F0004AEF53E00E94600808950F931F93DC01A3
:101A000014962C912093AF04EDB7FEB73E970FB616
:101A1000F894FEBF0FBEEDBF31960AEF13E0ADB7ED
:101A2000BEB712961C930E9311978BE292E09383AC
:101A300082838091AE0484831582268317828091ED
:101A4000AC049091AD04918780878091B004828727
:101A500013868091B104848715860E94BC01EDB77E
:101A6000FEB73E960FB6F894FEBF0FBEEDBF87E8F7
:101A700094E061E070E0A8010E94600864EF71E00A
:101A800080E090E00E94B32C86EC93E01F910F91D0
:101A90000895CF93DF93EC018C818F5F8C8380322C
:101AA00010F081E08C8387E894E061E070E00E94B0
:101AB000CD062C818091AF044AEF53E02817A1F4A2
:101AC0008DB79EB70E970FB6F8949EBF0FBE8DBF11
:101AD000EDB7FEB73196ADB7BEB712965C934E9395
:101AE00011978BE292E011C0ADB7BEB71E970FB64B
:101AF000F894BEBF0FBEADBFEDB7FEB731961296DC
:101B00005C934E93119788EF91E093838283809149
:101B1000AE0484831582268317828091AC04909151
:101B2000AD04918780878091B0048287138680916D
:101B3000B104848715860E94BC018DB79EB70E96AE
:101B40000FB6F8949EBF0FBE8DBF87E894E061E0AA
:101B500070E04AEF53E00E946008DF91CF91089552
:101B60000F931F93DC0114962C912093AE04EDB7D4
:101B7000FEB73E970FB6F894FEBF0FBEEDBF31968D
:101B80000AEF13E0ADB7BEB712961C930E931197F0
:101B900081E192E093838283248315828091AF0454
:101BA000868317828091AC049091AD0491878087E1
:101BB0008091B004828713868091B1048487158652
:101BC0000E94BC01EDB7FEB73E960FB6F894FEBF7B
:101BD0000FBEEDBF87E894E061E070E0A8010E94CD
:101BE000600864EF71E080E090E00E94B32C81EC2B
:101BF00093E01F910F910895CF93DF93EC018C81B7
:101C00008F5F8C838D3010F081E08C8387E894E0C7
:101C100061E070E00E94CD062C818091AE044AEF15
:101C200053E02817A1F48DB79EB70E970FB6F8941E
:101C30009EBF0FBE8DBFEDB7FEB73196ADB7BEB735
:101C400012965C934E93119781E192E011C0ADB76B
:101C5000BEB71E970FB6F894BEBF0FBEADBFEDB7AF
:101C6000FEB7319612965C934E93119788EF91E0F0
:101C700093838283248315828091AF0486831782A5
:101C80008091AC049091AD04918780878091B004DD
:101C9000828713868091B104848715860E94BC01D7
:101CA0008DB79EB70E960FB6F8949EBF0FBE8DBF30
:101CB00087E894E061E070E04AEF53E00E9460083A
:101CC000DF91CF9108950F931F93CF93DF93EC0192
:101CD0001C828091560480FD04C08DED91E041E0AE
:101CE00003C084EE91E042E098878F831D821E82BC
:101CF00002C09F5F9E83AF81B8859E81FD01E90F81
:101D0000F11D80818823A9F7292F21502E83A20F4E
:101D1000B11D8C918D8330916A0490E0EF81F8853C
:101D2000E90FF11D8081831711F49C8303C09F5F2D
:101D30002917A0F7413019F028E031E002C02BE06C
:101D400031E000D000D000D0EDB7FEB731960AEFF9
:101D500013E0ADB7BEB712961C930E9311978EE0A9
:101D600091E093838283358324830E94BC01EDB785
:101D7000FEB736960FB6F894FEBF0FBEEDBF87E8EC
:101D800094E060E070E0A8010E94600800D000D0FC
:101D900000D0ADB7BEB71196EDB7FEB71283018381
:101DA0008DE191E013969C938E9312978C81EF8135
:101DB000F885E80FF11D808114968C931497159681
:101DC0001C920E94BC018DB79EB706960FB6F89480
:101DD0009EBF0FBE8DBF87E894E061E070E0A80170
:101DE0000E946008DF91CF911F910F910895AF92EB
:101DF000BF92CF92EF920F931F93DF93CF9300D0B8
:101E000000D000D0CDB7DEB7DC0114962C91209322
:101E1000B104EDB7FEB73E970FB6F894FEBF0FBE04
:101E2000EDBF31960AEF13E0ADB7BEB712961C9323
:101E30000E93119789E792E0938382838091AE0499
:101E4000848315828091AF04868317828091AC04CD
:101E50009091AD04918780878091B004828713862A
:101E6000248715860E94BC01EDB7FEB73E960FB6DB
:101E7000F894FEBF0FBEEDBF87E894E061E070E02C
:101E8000A8010E9460086091AC047091AD045E01ED
:101E90000894A11CB11CC5014091AE042091AF046F
:101EA0000091B004E090B104CC240E94DE24C5016E
:101EB0000E94B02564EF71E080E090E00E94B32CB6
:101EC00080E993E026960FB6F894DEBF0FBECDBF33
:101ED000CF91DF911F910F91EF90CF90BF90AF9076
:101EE0000895CF93DF93EC0187E894E060E070E021
:101EF00041E050E020E031E00E949F058C81EF81BD
:101F0000F885E80FF11D608180918F04882339F0F6
:101F100087E894E070E04AE050E00E94903087E863
:101F200094E062E271E00E94B30564EF71E080E04A
:101F300090E00E94B32C8091560480FD02C081E0A5
:101F400001C082E060E070E0813011F061E070E09B
:101F50008C81EF81F885E80FF11D88EB94E04081DA
:101F60000E94B0218C81EF81F885E80FF11D8AE392
:101F700094E0608140E00E945D0480E993E0DF919D
:101F8000CF910895CF93DF93EC018C818F5F8C8389
:101F90009E81981708F41C8287E894E061E070E065
:101FA0000E94CD0687E894E060E041E00E94082AA4
:101FB0008C81EF81F885E80FF11D90916A04808192
:101FC000981731F487E894E060E071E00E94B3056F
:101FD0008C81EF81F885E80FF11D608180918F047D
:101FE000882339F087E894E070E04AE050E00E94EE
:101FF000903087E894E062E271E00E94B305DF91DF
:10200000CF910895FC018481882319F425E933E0F8
:1020100029C0813019F42AE933E024C0823019F450
:1020200023EA33E01FC0833019F428EA33E01AC0F2
:10203000843019F42DEA33E015C0893019F422EB0D
:1020400033E010C0863019F427EB33E00BC0873043
:1020500019F425ED33E006C087E894E00E94B52A24
:1020600020E030E0C9010895CF93DF93EC0187E8C9
:1020700094E00E948F2A80FF52C031E00AC089811B
:102080009A81AB81BC810097A105B10509F4188242
:1020900030E02881222361F0213009F045C0898198
:1020A0009A81AB81BC810097A105B10509F43CC0C0
:1020B000332381F189819A81AB81BC810097A1058D
:1020C000B10541F4222331F40E94A52C69837A835F
:1020D0008B839C830E94A52C9B01AC0189819A81F2
:1020E000AB81BC81281B390B4A0B5B0B8881882391
:1020F00039F42436310541055105B4F081E008C0BA
:10210000813091F4245F3140404050406CF082E0D7
:1021100088830AC019821A821B821C8205C08881AA
:10212000823009F0B5CFABCFDF91CF91089581E137
:1021300060E00E94732D81E161E00E94992D089575
:10214000CF93DF93EC011A82198282E00E94F12D75
:10215000892B19F081E0888301C01882DF91CF912B
:1021600008950F931F938C0188E060E00E94992DE1
:1021700087E060E00E94992D89E060E00E94992D3F
:10218000F801868D8F7B868F0E948A28035C1F4F03
:10219000F80160837183828393830D5310400E9402
:1021A000A52CF80165AB76AB87AB90AF1F910F9173
:1021B00008950F931F9308E514E0809158048068F8
:1021C000809358040E511040C8010E94B110109223
:1021D0008B0010928A0082E090E0F8019183808366
:1021E00081E080933C041F910F9108950F931F93FA
:1021F0008C0188E061E00E94992D87E061E00E94F7
:10220000992D89E061E00E94992DF801868D806406
:10221000868F0E948A28F80161AF72AF83AF94AFB6
:102220000E94A52CF80161AB72AB83AB94AB1F91FC
:102230000F910895BF92CF92DF92EF92FF920F938A
:102240001F93CF93DF93EC01B9A42FEFB21639F4AB
:1022500065E070E080E090E00E94B32C34C283E03F
:102260000E94F12D8C0184E00E94F12D7C018E8D65
:1022700086FF31C08C8D83FD8EC00E94A52C29A9BC
:102280003AA94BA95CA9621B730B840B950B695E81
:1022900073408040904008F47EC00130110509F081
:1022A0007AC0F1E0EF16F10409F075C087E089A764
:1022B000CE010E94B1108E898F3F11F08F5F8E8BFF
:1022C0000E94A52C60567444824F9F4F6E877F8773
:1022D000888B998BE2C127E0B21609F58A899B8920
:1022E000AC89BD890397A105B10508F0D4C10E944E
:1022F000A52C2E853F854889598962177307840765
:10230000950708F4C8C18A899B89AC89BD89019663
:10231000A11DB11D8A8B9B8BAC8BBD8B3CC08C8D62
:1023200084FD39C0012B11F0EF28A1F588E0B81623
:1023300061F08B8D882349F40E94A52C6F8B788FD8
:10234000898F9A8F8B8D8F5F8B8F0E94A52C2DA9E3
:102350003EA94FA958AD621B730B840B950B695EA8
:1023600073408040904078F00E94A52C2F89388DD2
:10237000498D5A8D621B730B840B950B695E7340FC
:102380008040904018F428E0B21629F488E089A72C
:1023900008E084C11B8E00E091E08A81882309F463
:1023A0003EC086E089A789859A85AB85BC85039761
:1023B000A105B10508F074C186E0B81651F08D850D
:1023C0008F3F11F08F5F8D8719861A861B861C86BA
:1023D0001BC00E94A52C2D813E814F81588562171C
:1023E00073078407950708F45BC1CE0102960E942B
:1023F000A01089859A85AB85BC850196A11DB11D6C
:1024000089879A87AB87BC870E94A52C6056744445
:10241000824F9F4F6D837E838F83988741C199231D
:1024200009F476C08B2D8650833050F480E49FE110
:1024300090938B0080938A001982188219A6BB247E
:102440000FEFC02E03E0D02E00E010E0EE24FF24BA
:1024500081E00E94512D0817190714F48C0104C063
:102460008C159D050CF46C010894E11CF11CE4E64C
:10247000EE16F10469F78C8D282F81FD13C1888138
:102480009981019709F00EC18FA198A5C816D906A8
:1024900008F408C105E015C089A19AA10817190719
:1024A00010F002E00EC08BA19CA10817190740F4A0
:1024B00022FF00C18DA19EA18017910708F0FAC0EC
:1024C00003E00B1529F18BA5081739F00E94A52C04
:1024D0006CA77DA78EA79FA71BC00E94A52CCCA48C
:1024E000DDA4EEA4FFA4013029F02AEF30E040E0A3
:1024F00050E004C029E130E040E050E06C197D0973
:102500008E099F09621773078407950708F009A7CA
:102510000BA789A58B1509F49AC08130D9F18230B7
:1025200009F448C08330A1F588A9282F30E0C901FB
:1025300006978E9760F4B901882777FD8095982FCC
:1025400025E830E040E050E00E94883115C0C90124
:10255000C4974D97C8F4C901AA2797FDA095BA2F33
:1025600080569F4FAF4FBF4F15E0880F991FAA1F8E
:10257000BB1F1A95D1F7BC0170938B0060938A0042
:1025800081E090E099838883CE010E94F6105FC0BD
:10259000843061F4CE010E94B11080E49FE19093F9
:1025A0008B0080938A001982188251C08630C1F155
:1025B000853091F5CE010E94B11088A9282F30E016
:1025C000C90106978E9760F4B901882777FD809539
:1025D000982F25E830E040E050E00E94883115C097
:1025E000C901C4974D9798F5C901AA2797FDA095F1
:1025F000BA2F80569F4FAF4FBF4FF5E0880F991FFE
:10260000AA1FBB1FFA95D1F7BC0170938B00609392
:102610008A0081E090E00DC0873011F0883061F4CD
:10262000CE010E94B11010928B0010928A0082E0BD
:1026300090E0998388830BC080E49FE190938B00A6
:1026400080938A0019821882CE010E94B110BAA626
:1026500089A58330C1F58E010F5B1F4FF801808182
:102660009181A281B381CB5BDF4F88839983AA8359
:10267000BB83C554D0400E948A2829AD3AAD4BADEA
:102680005CAD621B730B840B950BF8016083718347
:102690008283938318C087E089A707E090E07DCE0E
:1026A00006E036CF8F8D98A10817190708F4F4CEED
:1026B00001E007CF8DA19EA18017910710F000E0E7
:1026C00000CF04E0FECEDF91CF911F910F91FF90DC
:1026D000EF90DF90CF90BF900895DC015F96E5EC1E
:1026E000F1E08AE001900D928150E1F708951F9387
:1026F000CF93DF93EC01162F8C8D623019F481603B
:102700008C8F03C08E7F8C8F11E060E070E0113001
:1027100011F061E070E088EB94E00E94A921682F3D
:1027200081508E3F20F01130E9F46CE006C0663035
:1027300010F416E00BC0113029F4162F613130F07F
:1027400010E104C0162F693108F018E1CE010E9493
:102750006D13CE01612F40E00E945D04DF91CF91A7
:102760001F91089560E5E7CFCF93DF93EC016C8173
:10277000662321F4809156048F7D07C08AE394E09C
:102780000E9477138091560480628093560487E8F4
:1027900094E060E070E041E050E020E031E00E9431
:1027A0009F05EC81F0E0EE0FFF1FE952FE4F6081C4
:1027B000718187E894E00E94B30588EB94E062E0C1
:1027C00070E0409156040E94B02164EF71E080E017
:1027D00090E00E94B32C80E993E0DF91CF910895BF
:1027E000AF92BF92CF92DF92EF92FF920F931F931F
:1027F0007C016B015A018C01045F1F4FC801B901B4
:102800000E94B501C701B601A50198010E949F056C
:102810001F910F91FF90EF90DF90CF90BF90AF90FE
:102820000895CF92DF92EF92FF920F931F937C0156
:102830006B018C01045F1F4FC801BA010E94B501F2
:10284000C701B601A8010E9460081F910F91FF9077
:10285000EF90DF90CF9008950F931F938C0187E83E
:1028600094E060E070E041E050E020E031E00E9460
:102870009F05D8011496EC91F0E0EE0FFF1FEC508D
:10288000FE4F6081718187E894E00E94B30564EF98
:1028900071E080E090E00E94B32CF80184818823ED
:1028A000A1F487E894E061E070E04AE552E00E941C
:1028B00011142EE088E190E00FB6F894A89580936B
:1028C00060000FBE20936000FFCF80E090E01F917A
:1028D0000F910895EF92FF920F931F938C0127E8B9
:1028E000E22E24E0F22EC70160E070E043E351E005
:1028F0000E9411142091B104D80114962C93EDB7C5
:10290000FEB738970FB6F894FEBF0FBEEDBF3196F5
:102910000AEF13E0ADB7BEB712961C930E93119752
:1029200080919B0290919C02938382838091B0045A
:1029300084831582268317820E94BC01EDB7FEB7FF
:1029400038960FB6F894FEBF0FBEEDBFC70161E029
:1029500070E0A8010E9460081F910F91FF90EF9016
:102960000895EF92FF920F931F938C0137E8E32EA7
:1029700034E0F32EC70160E070E047E151E00E94CF
:1029800011142091B104D80114962C93EDB7FEB721
:1029900038970FB6F894FEBF0FBEEDBF31960AEF21
:1029A00013E0ADB7BEB712961C930E9311978091AA
:1029B0009B0290919C02938382838091B0048483D4
:1029C0001582268317820E94BC01EDB7FEB73896A8
:1029D0000FB6F894FEBF0FBEEDBFC70161E070E017
:1029E000A8010E9460081F910F91FF90EF90089539
:1029F000EF92FF920F931F938C0147E8E42E44E07F
:102A0000F42EC70160E070E045E251E00E9411142D
:102A10002091A7042093B0043091A8043093B1040E
:102A2000D80114962C93EDB7FEB738970FB6F894EB
:102A3000FEBF0FBEEDBF31960AEF13E0ADB7BEB7D4
:102A400012961C930E9311978091990290919A027D
:102A50009383828324831582368317820E94BC016C
:102A6000EDB7FEB738960FB6F894FEBF0FBEEDBFB8
:102A7000C70161E070E0A8010E9460081F910F91FA
:102A8000FF90EF900895EF92FF920F931F938C01A8
:102A900057E8E52E54E0F52EC70160E070E048E00D
:102AA00051E00E9411142091A5042093B0043091AC
:102AB000A6043093B104D80114962C93EDB7FEB759
:102AC00038970FB6F894FEBF0FBEEDBF31960AEFF0
:102AD00013E0ADB7BEB712961C930E931197809179
:102AE000990290919A02938382832483158236837C
:102AF00017820E94BC01EDB7FEB738960FB6F89466
:102B0000FEBF0FBEEDBFC70161E070E0A8010E94EB
:102B100060081F910F91FF90EF900895CF93DF937E
:102B2000EC0190E08091A404882309F491E09C8357
:102B300087E894E060E070E04CEF50E00E941114F0
:102B400087E894E061E070E00E94CD0687E894E0B9
:102B500060E070E041E050E020E031E00E949F053D
:102B6000EC81F0E0EE0FFF1FEC50FE4F60817181B1
:102B700087E894E00E94B305DF91CF9108950F9309
:102B80001F93FC01148207E814E0C80160E070E0C4
:102B90004CEF50E00E941114409193025091940226
:102BA000C80161E070E00E9460081F910F910895D4
:102BB000EF92FF920F931F938C0177E8E72E74E05A
:102BC000F72EC70160E070E041EF50E00E94111461
:102BD0002091B104D80114962C93EDB7FEB73E971F
:102BE0000FB6F894FEBF0FBEEDBF31960AEF13E0AB
:102BF000ADB7BEB712961C930E93119789E792E07A
:102C0000938382838091AE04848315828091AF0484
:102C1000868317828091AC049091AD049187808760
:102C20008091B00482871386248715860E94BC0198
:102C3000EDB7FEB73E960FB6F894FEBF0FBEEDBFE0
:102C4000C70161E070E0A8010E9460081F910F9128
:102C5000FF90EF900895EF92FF920F931F938C01D6
:102C6000E7E8EE2EE4E0FE2EC70160E070E048EEFB
:102C700050E00E9411142091B004D80114962C93B6
:102C8000EDB7FEB73E970FB6F894FEBF0FBEEDBF8F
:102C900031960AEF13E0ADB7BEB712961C930E93B0
:102CA00011978FE592E0938382838091AE048483B1
:102CB00015828091AF04868317828091AC04909135
:102CC000AD0491878087228713868091B104848721
:102CD00015860E94BC01EDB7FEB73E960FB6F8947C
:102CE000FEBF0FBEEDBFC70161E070E0A8010E940A
:102CF00060081F910F91FF90EF9008950F931F931D
:102D0000CF93DF93EC0187E894E060E070E04FED53
:102D100050E00E9411148091AC048C838C50893057
:102D200040F08CE08C838CE090E09093AD04809335
:102D3000AC048DB79EB70E970FB6F8949EBF0FBE2A
:102D40008DBFEDB7FEB731960AEF13E0ADB7BEB752
:102D500012961C930E93119785E492E093838283DD
:102D60008091AE04848315828091AF04868317829C
:102D70008C81808711868091B00482871386809130
:102D8000B104848715860E94BC018DB79EB70E964C
:102D90000FB6F8949EBF0FBE8DBF87E894E061E048
:102DA00070E0A8010E946008DF91CF911F910F9100
:102DB0000895EF92FF920F931F938C01F7E8EF2E87
:102DC000F4E0FF2EC70160E070E047ED50E00E94A4
:102DD00011142091AF04D80114962C93EDB7FEB7CF
:102DE0003E970FB6F894FEBF0FBEEDBF31960AEFC7
:102DF00013E0ADB7BEB712961C930E9311978BE2FA
:102E000092E0938382838091AE048483158226832B
:102E100017828091AC049091AD0491878087809156
:102E2000B004828713868091B104848715860E943E
:102E3000BC01EDB7FEB73E960FB6F894FEBF0FBECD
:102E4000EDBFC70161E070E0A8010E9460081F911A
:102E50000F91FF90EF9008950F931F93DF93CF93FF
:102E600000D000D000D0CDB7DEB78C0187E894E069
:102E700060E070E04DEC50E00E9411140E94F424D8
:102E800029833A834B835C836D837E83A2EBB4E01A
:102E9000FE01319686E001900D928150E1F730916C
:102EA000B3043093AE047091B4047093AF042091D6
:102EB000B20460E02093AC046093AD044091B5048B
:102EC0004093B0045091B6045093B104D8011496C5
:102ED0003C93EDB7FEB73E970FB6F894FEBF0FBE1A
:102EE000EDBF31960AEF13E0ADB7BEB712961C9353
:102EF0000E93119781E192E093838283348315824C
:102F000076831782208761874287138654871586C8
:102F10000E94BC01EDB7FEB73E960FB6F894FEBF17
:102F20000FBEEDBF87E894E061E070E0A8010E9469
:102F3000600826960FB6F894DEBF0FBECDBFCF91C6
:102F4000DF911F910F9108950F931F93FC0114823D
:102F500007E814E0C80160E070E04BE452E00E9432
:102F600011144091F4015091F501C80161E070E045
:102F70000E9460081F910F9108950F931F93FC0109
:102F8000148207E814E0C80160E070E040E452E019
:102F90000E9411144091F4015091F501C80161E0C3
:102FA00070E00E9460081F910F910895EF92FF92C8
:102FB0000F931F938C0137E8E32E34E0F32EFC01CE
:102FC00042815381C70160E070E00E94111480913A
:102FD000560490E023E0969587952A95E1F7817055
:102FE000F801848300D000D000D0ADB7BEB71196F1
:102FF0000AEF13E0EDB7FEB71283018324E231E05C
:1030000013963C932E931297E82FF0E0EE0FFF1FDC
:10301000EC50FE4F8081918115969C938E9314976E
:103020000E94BC018DB79EB706960FB6F8949EBF5E
:103030000FBE8DBFC70161E070E0A8010E9460086B
:103040001F910F91FF90EF900895EF92FF920F93D1
:103050001F938C0167E8E62E64E0F62EFC014281A6
:103060005381C70160E070E00E9411148091560402
:1030700090E096958795969587958170F801848361
:1030800000D000D000D0ADB7BEB711960AEF13E064
:10309000EDB7FEB71283018324E231E013963C932F
:1030A0002E931297E82FF0E0EE0FFF1FEC50FE4F2B
:1030B0008081918115969C938E9314970E94BC01F8
:1030C0008DB79EB706960FB6F8949EBF0FBE8DBF04
:1030D000C70161E070E0A8010E9460081F910F9194
:1030E000FF90EF900895EF92FF920F931F938C0142
:1030F000F7E8EF2EF4E0FF2EFC0142815381C70177
:1031000060E070E00E9411148091560490E0969562
:1031100087958170F801848300D000D000D0ADB7CE
:10312000BEB711960AEF13E0EDB7FEB71283018325
:1031300024E231E013963C932E931297E82FF0E0AF
:10314000EE0FFF1FEC50FE4F8081918115969C93EE
:103150008E9314970E94BC018DB79EB706960FB64A
:10316000F8949EBF0FBE8DBFC70161E070E0A8015B
:103170000E9460081F910F91FF90EF900895CF93E8
:10318000DF93EC014A815B8187E894E060E070E0C6
:103190000E9411148091560485FD02C01C8206C055
:1031A00080FD02C081E001C082E08C8387E894E06A
:1031B00061E070E00E94CD0687E894E060E070E096
:1031C00041E050E020E031E00E949F05EC81F0E01A
:1031D000EE0FFF1FE952FE4F6081718187E894E096
:1031E0000E94B305DF91CF910895FC0184818F5F28
:1031F00084838B3008F014828481843079F18530A7
:1032000048F48130E1F08130A8F08230E9F0833079
:1032100071F41FC0873071F1883028F4853019F1BE
:10322000863029F422C0883051F1893051F14EEBBB
:1032300050E02BC0409197035091980326C04091D5
:103240009C0350919D0321C04091A5035091A6037A
:103250001CC04091AA035091AB0317C04091AF032B
:103260005091B00312C086E084834091B90350911D
:10327000BA030BC04091D7035091D80306C089E030
:1032800084834091B4035091B50387E894E061E0F2
:1032900070E00E94111408950F931F93FC01148293
:1032A00007E814E042815381C80160E070E00E94A9
:1032B00011144091970350919803C80161E070E0A8
:1032C0000E9411141F910F910895EF92FF920F9396
:1032D0001F938C019B017A0160E070E0A9010E94BC
:1032E0001114C80161E070E0A7010E9411141F9140
:1032F0000F91FF90EF9008956F927F928F929F921F
:10330000AF92BF92CF92DF92EF92FF920F931F93F3
:10331000CF93DF934C0180E49FE190938B008093E7
:103320008A00F4011182108285E061E00E94992DEB
:1033300087E894E060E471E049E451E00E94651997
:10334000F401848D85FDE0C081E00E94512D109232
:103350008B0010928A0022E030E0F4013183208358
:10336000855893400CF4D0C083E00E94F12D8C016D
:1033700084E00E94F12D7C0188E061E00E94992D9B
:1033800089E061E00E94992D6AEF70E080E090E0B2
:103390000E94B32C83E00E94F12D3C0184E00E9446
:1033A000F12D5C0188E060E00E94992D89E060E0E9
:1033B0000E94992D6AEF70E080E090E00E94B32CAB
:1033C00087E061E00E94992D6AEF70E080E090E074
:1033D0000E94B32C83E00E94F12D6C0184E00E94D6
:1033E000F12DEC0187E060E00E94992D6AEF70E01A
:1033F00080E090E00E94B32C000F111F0E0D1F1DE6
:103400000330110509F0A5C0C301880F991F8A0D6B
:103410009B1D9601220F331F2C0F3D1F83309105FA
:1034200034F4813091052CF5892B31F002C00397DB
:1034300051F0C0E0D0E03AC02330310509F089C036
:10344000C2E0D0E036C02330310519F4C3E0D0E04B
:1034500008C02115310519F4C2E0D0E002C0C0E077
:10346000D0E02150304022303105A8F4C1E0D0E056
:1034700015C02330310519F4C1E0D0E002C0C4E02A
:10348000D0E0019721F42230310529F45CC02130CD
:10349000310509F45BC0C130D10541F487E894E0FF
:1034A00063E571E04FE551E00E946519C230D10536
:1034B00041F487E894E063E571E04DE651E00E9455
:1034C0006519CE010397029728F487E894E061E03C
:1034D0000E94592AC330D10529F487E894E06BE8AB
:1034E00071E007C0C430D10541F487E894E06BE790
:1034F00071E04CE951E00E94651964EF71E080E0F1
:1035000090E00E94B32C02C0C0E0D0E085E060E013
:103510000E94992D80E49FE190938B0080938A0014
:10352000F401118210828C2FDF91CF911F910F91A6
:10353000FF90EF90DF90CF90BF90AF909F908F90D3
:103540007F906F900895C2E0D0E0A5CFC2E0D0E0B8
:10355000ADCFC4E0D0E0AACF0F931F93CF93DF93FA
:10356000EC018885882351F08E01045F1F4FC8014C
:103570000E94B501CE01B8010E94B82FDF91CF9112
:103580001F910F9108958F929F92AF92BF92CF9209
:10359000DF92EF92FF920F931F93DF93CF9300D0B0
:1035A00000D000D0CDB7DEB7D82EC92E109163045D
:1035B0008091560480FD03C0BB24B39402C022E076
:1035C000B22E0E94F42429833A834B835C836D835B
:1035D0007E83A2EBB4E0FE01319686E001900D926D
:1035E0008150E1F79091630480916404981709F485
:1035F00071C18DB79EB708970FB6F8949EBF0FBEE6
:103600008DBFEDB7FEB731969AEFE92E93E0F92E14
:10361000ADB7BEB71296FC92EE9211978FEC91E087
:1036200093838283B482158280916A048683178291
:103630000E94BC018DB79EB708960FB6F8949EBF46
:103640000FBE8DBF153009F4C2C0163080F41230A1
:1036500009F44BC0133020F4113009F033C114C009
:10366000133009F475C0143009F02CC19CC0173018
:1036700009F4D7C0173008F4BEC0183009F4E5C00B
:103680001F3F09F01FC1F7C08DE061E00E94992D36
:1036900085E060E00E94992D8D2D9C2D62E00E94B6
:1036A000592A8D2D9C2D0E94B52A8D2D9C2D60E0D0
:1036B00040E00E94082A84EA94E00E94BB048D2D19
:1036C0009C2D61E372E00E94AC1A8D2D9C2D6AE066
:1036D00070E040E050E097010E949F058D2D9C2DE9
:1036E00061E070E048E052E030C08DE061E00E94AF
:1036F000992D85E061E00E94992D8D2D9C2D63E030
:103700000E94592A8D2D9C2D0E94B52A8D2D9C2D0D
:1037100060E040E00E94082A84EA94E00E94BB0432
:103720008D2D9C2D61E372E00E94AC1A8D2D9C2D95
:103730006AE070E040E050E097010E949F058D2D07
:103740009C2D61E070E04BEF51E00E9411143EC2ED
:103750008DE060E00E94992D85E060E00E94992D47
:103760008D2D9C2D66E00E94592A8D2D9C2D0E9446
:10377000B52A8D2D9C2D60E040E00E94082A84EA45
:1037800094E00E94BB048D2D9C2D67E372E00E94A3
:10379000AC1A8D2D9C2D6AE070E040E050E097015E
:1037A0000E949F059AC08DE060E00E94992D85E0FF
:1037B00061E00E94992D8D2D9C2D61E00E94592A77
:1037C0008D2D9C2D68EA71E043EB51E051C08DE0F6
:1037D00060E00E94992D85E061E00E94992D8D2D79
:1037E0009C2D61E00E94592A8D2D9C2D68EA71E084
:1037F00041EC51E03DC08DE060E00E94992D85E0F4
:1038000061E00E94992D8D2D9C2D61E00E94592A26
:103810008D2D9C2D68EA71E042ED51E00E94651902
:10382000C7C08DE060E00E94992D85E061E00E94B4
:10383000992D8D2D9C2D61E00E94592A8D2D9C2D56
:1038400068EA71E04DED51E013C08DE060E00E9448
:10385000992D85E061E00E94992D8D2D9C2D61E0D0
:103860000E94592A8D2D9C2D68EA71E047EE51E0A7
:103870000E946519ABC18DE060E00E94992D85E042
:1038800061E00E94992D8D2D9C2D67E00E94592AA0
:103890008D2D9C2D0E94B52A8D2D9C2D60E040E041
:1038A0000E94082A8D2D9C2D63EF71E00E94AC1AB6
:1038B0008D2D9C2D6AE070E040E050E097010E9461
:1038C0009F0579C08DE060E00E94992D85E061E060
:1038D0000E94992D133009F06BC0E0907B04F090AA
:1038E0007C0400917D0410917E0480917F0490916E
:1038F0008004A0918104B0918204E816F9060A07B9
:103900001B0709F463C1C801B7010E9457284C0185
:10391000C801B7010E9451285C01C801B7010E948B
:103920004B287C010E94F42429833A834B835C83D7
:103930006D837E83A2EBB4E0FE01319686E00190B8
:103940000D928150E1F7ADB7BEB71E970FB6F89450
:10395000BEBF0FBEADBFEDB7FEB731960AEF13E0A5
:1039600012961C930E93119788E291E093838283C1
:1039700095828482B782A682F186E0868091B50422
:10398000828713868091B604848715860E94BC01C5
:103990008DB79EB70E960FB6F8949EBF0FBE8DBF23
:1039A0008D2D9C2D61E070E0A8010E9460080EC181
:1039B0001F3F09F00BC18091F8039091F903892B07
:1039C00009F004C18D2D9C2D60E040E00E94082A82
:1039D00084EA94E00E94BB048D2D9C2D63EF71E07E
:1039E0000E94AC1A0E94F42429833A834B835C839F
:1039F0006D837E83A2EBB4E0FE01319686E00190F8
:103A00000D928150E1F7ADB7BEB71A970FB6F89493
:103A1000BEBF0FBEADBFEDB7FEB731960AEF13E0E4
:103A200012961C930E93119783E491E09383828303
:103A30008091B504848315828091B60486831782B1
:103A40008091B704808711860E94BC018DB79EB714
:103A50000A960FB6F8949EBF0FBE8DBF8D2D9C2D7C
:103A600060E070E041E050E098010E949F05809185
:103A7000A404882309F47EC08D2D9C2D69E040E0CC
:103A80000E94082A8D2D9C2D62E00E94C5298D2D53
:103A90009C2D60E00E94C529ADB7BEB718970FB640
:103AA000F894BEBF0FBEADBFEDB7FEB7319612960C
:103AB0001C930E9311978091C3019091C40193833D
:103AC00082838091A504848315828091A6048683D5
:103AD00017820E94BC018DB79EB708960FB6F89466
:103AE0009EBF0FBE8DBF8D2D9C2D6BE070E040E022
:103AF00050E098010E949F058D2D9C2D69E041E0CA
:103B00000E94082A8D2D9C2D61E00E94C5298D2DD3
:103B10009C2D60E00E94C529ADB7BEB718970FB6BF
:103B2000F894BEBF0FBEADBFEDB7FEB7319612968B
:103B30001C930E9311978091C3019091C4019383BC
:103B400082838091A704848315828091A804868350
:103B500017820E94BC018DB79EB708960FB6F894E5
:103B60009EBF0FBE8DBF8D2D9C2D6BE070E041E0A0
:103B700050E029C0ADB7BEB718970FB6F894BEBFD6
:103B80000FBEADBFEDB7FEB7319612961C930E93E4
:103B9000119782E591E093838283B48215828091AC
:103BA0006A04868317820E94BC018DB79EB708966F
:103BB0000FB6F8949EBF0FBE8DBF8D2D9C2D6AE071
:103BC00070E040E050E098010E949F0526960FB6F5
:103BD000F894DEBF0FBECDBFCF91DF911F910F9143
:103BE000FF90EF90DF90CF90BF90AF909F908F901D
:103BF0000895FF920F931F938C01FF24FA94FC0108
:103C0000F1A60E94B11010928B0010928A0082E0FF
:103C100090E0F8019183808387E894E00E94C31AC2
:103C2000F801F2A61F910F91FF900895FF920F9354
:103C30001F93DF93CF9300D000D000D0CDB7DEB775
:103C40008C01DC0117968C91813009F0A6C00E948E
:103C5000F42429833A834B835C836D837E83A2EBB8
:103C6000B4E0FE01319686E001900D928150E1F7BB
:103C70008091B504F8018583F090B604F6828081C6
:103C8000882309F488C02181222351F4828188236A
:103C900039F48381882321F48481882309F47BC04B
:103CA000D80113965C911397251741F412969C91B5
:103CB000129714968C91981709F46DC0F8018281BF
:103CC00046E0849FF0011124822F90E028E631E045
:103CD000BC01629FC001639F900D729F900D1124E3
:103CE000E80FF91FD80114968C91849FB00111241C
:103CF000852F90E0DC01A29FC001A39F900DB29F91
:103D0000900D1124680F791FF49EA0011124D80191
:103D100015968C9190E0DC01A29FC001A39F900DAD
:103D2000B29F900D1124480F591F6E177F0768F43A
:103D30004E175F0718F04617570768F4E417F507A2
:103D400018F16417750700F106C04E175F07E0F021
:103D500046175707C8F4209163042F3FE1F4809180
:103D6000F8039091F903892BB1F420936404109225
:103D7000630480E49FE190938B0080938A0010920B
:103D80003B0410923A0407C04617570721F48AE310
:103D900094E00E94F91DF801178226960FB6F89458
:103DA000DEBF0FBECDBFCF91DF911F910F91FF906E
:103DB00008950F931F93CF93DF93EC010E9434106B
:103DC0008881813079F489819A81AB81BC810097A7
:103DD000A105B10509F07AC01882AD81BE811097A6
:103DE00029F40DC0823009F071C013C0ED91FC912F
:103DF00011970280F381E02DCD01099567C0809174
:103E000063048F3F09F448C08AE394E00E94F91DDF
:103E10005DC089819A81AB81BC810097A105B10504
:103E200009F454C019821A821B821C82AD81BE81A2
:103E3000109709F440C0ED91FC9111970480F58131
:103E4000E02DCD010995DC019E838D830097D9F08B
:103E500083E0A039B80719F414960C911497ED91EA
:103E6000FC9111970190F081E02DCD010995ED8134
:103E7000FE8183E0E039F80749F501500483CF0162
:103E80000E94F51823C08091A404882321F081E0CA
:103E90008093AB041BC08FEF809364041092630483
:103EA00080E49FE190938B0080938A0010923B0402
:103EB00010923A040BC08AE394E00E94F91D00E9D5
:103EC00013E0C8010E944C191E830D83DF91CF912E
:103ED0001F910F910895FF920F931F93CF93DF933C
:103EE000EC0188E061E00E94732D87E061E00E94B0
:103EF000732D89E061E00E94732D83E060E00E94F1
:103F0000732D84E060E00E94732D83E061E00E94E5
:103F1000992D84E061E00E94992DCE010E94B1109C
:103F20001092800020E43FE13093870020938600C8
:103F300081E180938100229A809180008062809349
:103F4000800030938B0020938A001982188288EBBE
:103F500094E062E070E00E94A9218F3F11F41C8E72
:103F600005C08C8F80FD02C011E001C012E088EB1B
:103F700094E068E070E00E94A9218F3F11F41D8E4B
:103F800001C08D8F1E8E19861A861B861C861D8683
:103F90001A8A1B8A1C8A1D8A1E8A1B8E19A61AA6BB
:103FA00037E0F32E08E0CE010E947C19982F8C8D0B
:103FB000282F85FD05C0892F8150823008F4192FE4
:103FC00023FD05C0933019F4F9A621E001C020E0DB
:103FD0008C8D84FD04C0943011F409A702C0222303
:103FE00069F060EA7BEB8DE090E00E94B32C89A53C
:103FF0008930C9F28730B9F28830A9F2CE01612F39
:104000000E947713CE0102960E94A0108C8D86FD2F
:104010000CC08FEF8AA719A680E49FE190938B00D4
:1040200080938A001982188203C0CE010E94F91D74
:104030008DE060E00E94992DDF91CF911F910F914B
:10404000FF9008958AE394E00E941A1187E894E0B3
:104050000E94C31A83EF93E00E94D91E84EA94E081
:104060000E94161E0895EF92FF920F931F938C01EA
:104070008DE061E00E94732D85E061E00E94732D68
:104080008DE060E00E94992D85E060E00E94992D0E
:1040900081E0F8018387C80160E142E022E00E94EC
:1040A000C22AC80167E00E94592A4AEFE42E43E081
:1040B000F42EC70169E172E048E050E00E94AC01D3
:1040C000C80160E0A7010E94CD29C70161E272E04A
:1040D00048E050E00E94AC01C80161E0A7010E94E5
:1040E000CD29C70169E272E048E050E00E94AC01CE
:1040F000C80162E0A7010E94CD29C8010E94B52A2B
:10410000C80160E070E044E752E00E941114C80169
:1041100060E070E041E050E02BE632E00E94F013F6
:10412000C80168E670E00E94AC1AC80167E672E058
:104130000E94AC1A60E273E080E090E00E94B32C31
:104140001F910F91FF90EF9008958FEF94E00E94E0
:104150001F220E94F22484EA94E00E94170587E857
:1041600094E00E9433208AE394E00E946B1F08953C
:1041700088E10FB6F89480936000109260000FBE43
:1041800087E296E040E056E960E070E00E94752E1C
:1041900080E069ED70E143E050E00E94E02B0E9476
:1041A000A52083EF93E00E949710089560E241E01C
:1041B0000E94FD2808958AE593E0909391038093EF
:1041C00090038EE690E0909393038093920380E5B2
:1041D00093E0909396038093950384E790E0909307
:1041E00098038093970386E493E090939B038093D6
:1041F0009A0382E890E090939D0380939C038CE364
:1042000093E09093A4038093A3038EE890E09093AF
:10421000A6038093A50382E393E09093A903809380
:10422000A8038AE990E09093AB038093AA0388E205
:1042300093E09093AE038093AD038BEA90E090936C
:10424000B0038093AF038EE193E09093B303809328
:10425000B20388EB90E09093B5038093B40384E1BC
:1042600093E09093B8038093B70323EC30E030934E
:10427000BA032093B9038AE093E09093BD0380933F
:10428000BC0380E093E09093C2038093C10330931A
:10429000C4032093C30386EF92E09093C7038093F7
:1042A000C6038CEE92E09093CC038093CB0382EE16
:1042B00092E09093D1038093D00388ED92E09093A5
:1042C000D6038093D5032CEF30E03093D8032093AE
:1042D000D7038EEC92E09093DB038093DA03309364
:1042E000DD032093DC0384EC92E09093E003809361
:1042F000DF038AEB92E09093E5038093E40380EB85
:1043000092E09093EA038093E90386EA92E0909327
:10431000EF038093EE031092F3031092F4031092D4
:10432000F5031092F6031092F7031092F90310921E
:10433000F80387E894E00E94D62081E08093AB04E4
:1043400082EB94E040E050E060E070E00E944D2499
:104350000895F999FECF72BD61BDF89A80B50895B0
:10436000F999FECF1FBA72BD61BD40BD0FB6F8947A
:10437000FA9AF99A0FBE089581E08093FE04609343
:10438000DB041092FC041092FD0408959091D9046E
:104390008091DA04981710F080E00895E92FF0E09A
:1043A000E754FB4F80819F5F9093D904089508954F
:1043B000DF93CF930F92CDB7DEB769838091FE0470
:1043C000882389F08091FD04803290F48091FC0470
:1043D000E82FF0E0E452FB4F60838F5F8093FC0492
:1043E0008093FD0405C0CE01019661E00E94B722D2
:1043F0000F90CF91DF9108950E94D8210895809168
:10440000DB046CED74E04091FD0421E00E94742215
:104410001092FC041092FD041092FE0408954132A3
:1044200008F040E2862F69EB74E00E943D22109272
:10443000D9048093DA0408950E940F2208951092FF
:10444000D9041092DA041092FC041092FD040E9428
:104450002A22089510920005449A459AE9EBF0E06B
:1044600080818E7F808380818D7F808388E48093AC
:10447000B80085E48093BC000895982F413210F075
:1044800040E030C0809100058823E1F781E080930F
:1044900000058FEF80936B051092260541504093E5
:1044A00027054F5F990F91609093010585EE8093EA
:1044B000BC00809100058130E1F3809126058417CE
:1044C00010F44091260520E030E00AC0FB01E20F25
:1044D000F31FD901AA5FBA4F8C9180832F5F3F4FA2
:1044E0002417A0F3842F08951F93582F122F4132C1
:1044F00010F081E03AC0809100058823E1F782E066
:10450000809300058FEF80936B05109226054093F2
:104510002705A6E0B5E0FB0102C081918D938E2FA7
:10452000861B8417D0F3852F90E0880F991F809306
:10453000010585EE8093BC00112321F080910005D8
:104540008230E1F380916B058F3F11F480E00DC064
:1045500080916B05803211F482E007C080916B0579
:10456000803311F084E001C083E01F910895482F4B
:10457000613210F081E0089580910005843011F0DF
:1045800082E0089560934905A8E2B5E0842F9C017C
:10459000F90102C081918D938E2F841B8617D0F371
:1045A00080E008951F920F920FB60F9211242F935F
:1045B0003F934F935F936F937F938F939F93AF93AB
:1045C000BF93EF93FF938091B90090E0887F907044
:1045D0008036910509F4DCC081369105CCF588322E
:1045E000910509F47BC089329105B4F480319105BD
:1045F00009F46FC0813191053CF4009709F431C191
:10460000089709F039C165C08831910509F466C081
:10461000809709F031C17DC08034910509F49FC0B5
:104620008134910544F48033910509F47DC0C89725
:1046300009F022C184C08035910509F484C0883511
:10464000910509F491C08834910509F015C198C00D
:104650008839910509F4FDC089399105ECF4883752
:10466000910509F495C0893791054CF48836910578
:1046700009F48EC08037910509F0FEC089C08838E2
:10468000910509F4E6C08039910509F487C08038A6
:10469000910509F0F1C082C0803B910509F4B0C0DA
:1046A000813B91054CF4803A910509F489C0883A20
:1046B000910509F0E1C0A4C0803C910509F4CDC08A
:1046C000883C910509F4C9C0883B910509F0D4C024
:1046D000ACC0809101058093BB00B9C090912605C4
:1046E00080912705981768F490912605E92FF0E04E
:1046F000EA5FFA4F80818093BB009F5F909326050D
:10470000A6C085ED8093BC008091BC0084FDFCCFE9
:10471000B1C080E280936B0585ED8093BC008091F1
:10472000BC0084FDFCCFA6C080E380936B0585EDC3
:104730008093BC008091BC0084FDFCCF9BC088E3CB
:1047400080936B058AC0809126059091BB00E82F6D
:10475000F0E0EA5FFA4F90838F5F80932605909197
:1047600026058091270571C0809126059091BB0098
:10477000E82FF0E0EA5FFA4F90838F5F8093260581
:1047800085ED8093BC008091BC0084FDFCCF72C09D
:1047900083E08093000510926A0559C080916A05F4
:1047A000803208F056C080916A059091BB00E82FD6
:1047B000F0E0E65BFA4F90838F5F80936A0547C015
:1047C00080916A05803230F4E0916A05F0E0E65BA2
:1047D000FA4F108285ED8093BC008091BC0084FD6F
:1047E000FCCF1092000560916A05E0910405F091FC
:1047F00005058AE495E070E0099510926A052DC0E0
:1048000084E0809300051092480510924905E091DC
:104810000205F0910305099580914905882329F443
:1048200081E0809349051092280590914805E92F71
:10483000F0E0E85DFA4F80818093BB009F5F90932A
:1048400048059091480580914905981710F485EC2A
:1048500001C085E88093BC000FC085EC8093BC004C
:1048600009C010926B0585ED8093BC008091BC005F
:1048700084FDFCCF10920005FF91EF91BF91AF91A5
:104880009F918F917F916F915F914F913F912F9168
:104890000F900FBE0F901F901895EF92FF920F93FD
:1048A0001F93CF93DF93EC017A018B0180E89CEB9F
:1048B000A2E9B7ECE80EF91E0A1F1B1FC801B701D9
:1048C0002CE330E040E050E00E94DA316D83C80113
:1048D000B7012CE330E040E050E00E94DA31122FC3
:1048E000032FF42EE52E622F732F842F952F2CE3A8
:1048F00030E040E050E00E94DA316C83612F702F8D
:104900008F2D9E2D2CE330E040E050E00E94DA3104
:10491000122F032FF42EE52E622F732F842F952F45
:1049200028E130E040E050E00E94DA316B83612FF3
:10493000702F8F2D9E2D28E130E040E050E00E9446
:10494000DA3160E0A3E9BEEF70E0862F90E083707B
:104950009070892B09F471E0E62FEF5F472F50E04C
:10496000CA0183599E4F2817390738F0CD01841B9F
:10497000950B280F391F6E2FE7CF688341E0E42F96
:10498000F0E0EC57FD4F8491772319F0423009F4A1
:104990008F5F90E0542F5F5F2817390720F0281BA6
:1049A000390B452FECCF4983822F8F5F8A83DF91AC
:1049B000CF911F910F91FF90EF900895CF92EF92BA
:1049C0000F93FC0187E0603D780710F0605D774051
:1049D0006083418322830383E482C5820F91EF9039
:1049E000CF90089581E00895BF92CF92DF92EF9229
:1049F000FF920F931F93DF93CF9300D000D000D08E
:104A0000CDB7DEB70FEF14E0C80168E670E00E9492
:104A1000BC2160916C0570916D05C8010E94FC215C
:104A2000C8010E94FF21C80168E670E047E050E03D
:104A30000E941C22C8010E94C6219FE7B92EB822FD
:104A4000C8010E94C621C82EC8010E94C621D82EC6
:104A5000C8010E94C621C8010E94C621E82EC801D3
:104A60000E94C621F82EC8010E94C621282F30E0DE
:104A7000B4E035952795BA95E1F74AEF5FEFB901B4
:104A8000649F9001659F300D749F300D1124820F3B
:104A900090E02B2D30E0A4E035952795AA95E1F71D
:104AA000B901649F9001659F300D749F300D1124F2
:104AB000B20E2C2D30E0F4E035952795FA95E1F70C
:104AC000B901649F9001659F300D749F300D1124D2
:104AD000C20E2D2D30E0E4E035952795EA95E1F7FB
:104AE000B901649F9001659F300D749F300D1124B2
:104AF000D20E2E2D30E074E0359527957A95E1F7AA
:104B0000B901649F9001659F300D749F300D112491
:104B1000E20E2F2D30E064E0359527956A95E1F798
:104B2000B901649F9001659F300D749F300D112471
:104B3000F20E282F3F2D4E2D5D2D6C2D7B2D80E00C
:104B400026960FB6F894DEBF0FBECDBFCF91DF9192
:104B50001F910F91FF90EF90DF90CF90BF9008953D
:104B6000DF92EF92FF920F931F937C010FEF14E0FF
:104B7000C80168E670E00E94BC2160916C057091EC
:104B80006D05C8010E94FC21F7012581822F6AE092
:104B90000E94A73146E0D42E8D9DC0011124280F1C
:104BA000C801622F0E94D821F7012481822F6AE078
:104BB0000E94A7318D9DC0011124280FC801622FCA
:104BC0000E94D821F7012381822F6AE00E94A73139
:104BD0008D9DC0011124280FC801622F0E94D82189
:104BE000C80160E00E94D821F7012281822F6AE08B
:104BF0000E94A7318D9DC0011124280FC801622F8A
:104C00000E94D821F7012181822F6AE00E94A731FA
:104C10008D9DC0011124280FC801622F0E94D82148
:104C2000F7012081822F6AE00E94A7318D9DC0018B
:104C30001124280FC801622F0E94D82160916C05B1
:104C400070916D05C8010E94FC21C8010E94FF21DE
:104C50001F910F91FF90EF90DF9008950F931F9396
:104C6000611571058105910569F481E090E0A0E08E
:104C7000B0E080936E0590936F05A0937005B0939C
:104C8000710508C060936E0570936F058093700581
:104C900090937105109373050093720580917000D5
:104CA0008E7F809370008091B0008C7F8093B000E5
:104CB0008091B100877F8093B1008091B6008F7D95
:104CC0008093B600809170008D7F809370008091FA
:104CD000B10084608093B1008091B1008C7F80939B
:104CE000B100CA01B90120E034E244E75BE40E946C
:104CF000253120E030E040E85CE30E9425310E944D
:104D0000A33020E031E0261B370B30937A05209347
:104D100079051F910F9108950F931F938A012FE634
:104D200032E143E85AE30E942E261F910F91089525
:104D30001092740510927505109276051092770501
:104D4000109278058091790590917A058093B20050
:104D5000E0E7F0E0808181608083089580917405B0
:104D600090917505A0917605B09177050196A11DEA
:104D7000B11D8093740590937505A0937605B0934B
:104D800077058091740590917505A0917605B09195
:104D9000770520916E0530916F0540917005509117
:104DA000710582179307A407B50710F18091780564
:104DB0008823F1F481E080937805809174059091C7
:104DC0007505A0917605B0917705821B930BA40B16
:104DD000B50B8093740590937505A0937605B093F9
:104DE0007705E0917205F0917305099510927805A9
:104DF00008951F920F920FB60F9211242F933F9395
:104E00004F935F936F937F938F939F93AF93BF93D2
:104E1000EF93FF938091790590917A058093B2008A
:104E20000E94AE26FF91EF91BF91AF919F918F911C
:104E30007F916F915F914F913F912F910F900FBE96
:104E40000F901F9018958F929F92AF92BF92CF9222
:104E5000DF92EF92FF920F931F93CF93DF937B012B
:104E60008C01EA012CE330E040E050E00E94DA31AE
:104E70006883C801B7012CE330E040E050E00E94B5
:104E8000DA31122F032FF42EE52E622F732F842F89
:104E9000952F2CE330E040E050E00E94DA31698346
:104EA000612F702F8F2D9E2D2CE330E040E050E0DD
:104EB0000E94DA31122F032FF42EE52E622F732F6A
:104EC000842F952F28E130E040E050E00E94DA3155
:104ED0006A83612F702F8F2D9E2D28E130E040E0F6
:104EE00050E00E94DA3179018A01C801B7016C5F94
:104EF0007F4F8F4F9F4F27E030E040E050E00E940F
:104F0000DA316F5F6B8320E0AA24BB24650101C006
:104F10002F5F822E9924F401EE54F84FCF01837055
:104F20009070892B99F4CF0164E670E00E94C7313C
:104F3000892B39F4CF0160E971E00E94C731892BD8
:104F400029F48EE691E0A0E0B0E004C08DE691E0A7
:104F5000A0E0B0E0A80EB91ECA1EDB1EC501A0E08D
:104F6000B0E0E816F9060A071B0790F62E83F40155
:104F7000EE54F84F83E0882E912C8E229F228114CC
:104F8000910499F4CF0164E670E00E94C731892B47
:104F900039F4CF0160E971E00E94C731892B29F40F
:104FA0008EE691E0A0E0B0E004C08DE691E0A0E0E4
:104FB000B0E0A81AB90ACA0ADB0A980187010A19DF
:104FC0001B092C093D09CF0164E670E00E94C7313E
:104FD0007C01CF0160E971E00E94C731AC01E0E6DD
:104FE000F3E060E0613051F48114910449F4E1147C
:104FF000F10441F44115510529F002C0808103C03C
:105000008CE101C08DE190E0A0E0B0E00817190745
:105010002A073B0740F0081B190B2A0B3B0B6F5F5D
:1050200031966C30F9F66F5F6D83802F8F5F8C83C4
:10503000DF91CF911F910F91FF90EF90DF90CF9074
:10504000BF90AF909F908F900895EF92FF920F9333
:105050001F937B018C018091920590919305A09103
:105060009405B0919505E816F9060A071B0771F03B
:10507000C801B70147E855E00E942327E092920556
:10508000F092930500939405109395051F910F914D
:10509000FF90EF9008950E9425288091870590E069
:1050A00008950E9425288091880590E008950E9427
:1050B00025288091890590E0089560937D0570937F
:1050C0007E0580937F059093800520919D0230910D
:1050D0009E0240919F025091A002260F371F481F49
:1050E000591F209381053093820540938305509387
:1050F000840582E090E090938605809385050E9468
:10510000A52C60938E0570938F05809390059093E6
:1051100091050895EF92FF920F931F931CC02F5F8C
:105120003F4F4F4F5F4F20937D0530937E05409357
:105130007F055093800588EE93E0A0E0B0E0E80E94
:10514000F91E0A1F1B1FE0928E05F0928F05009337
:105150009005109391050E94A52CE0908E05F0908B
:105160008F0500919005109191056E197F09800BB4
:10517000910B20917D0530917E0540917F055091E6
:105180008005685E73408040904048F680918105BC
:1051900090918205A0918305B09184052817390765
:1051A0004A075B07E8F0E0917B05F0917C053097BA
:1051B000B9F00995611571058105910519F00E94F5
:1051C0005D280EC020E030E0809185059091860535
:1051D000892B11F021E030E030938605209385057E
:1051E00060917D0570917E0580917F05909180058D
:1051F0001F910F91FF90EF900895FC0180E793E0DD
:1052000091838083442311F481E001C082E0808790
:105210006783128213860895682F8FEF94E00E94AF
:10522000D82108951F93162FFC01678160628FEFCC
:1052300094E070E00E94BC2189E00E940C29812F3B
:105240000E940C298FEF94E00E94FF218823D1F760
:105250001F9108951F93162FFC01678160628FEFE5
:1052600094E070E00E94BC2183E10E940C29812F10
:105270000E940C298FEF94E00E94FF218823D1F730
:105280001F910895DF92EF92FF920F931F93CF9398
:10529000DF937C01062FD42EFC018385C62FD0E03E
:1052A0008130A1F5628504FD6061C5FD6860C6FDC1
:1052B000646007FD6260DD2019F0162F106A02C0DD
:1052C000162F1062C701612F0E942A291F7DC70176
:1052D000612F0E942A29F7016285C0FD6061C1FD2E
:1052E0006860C2FD6460C3FD6260DD2019F0162FA6
:1052F000106A02C0162F1062C701612F0E942A296E
:105300001F7DC701612F0E942A2937C0D695C795F6
:105310009E012877442319F0922F966002C0922FA5
:105320009460F701838183FD02C010E001C010E8A2
:10533000192BC701612F0E9412291B7FC701612F02
:105340000E941229602F6F70660F660F660FDD20B6
:1053500011F0666001C06460F701838183FD02C0C3
:1053600010E001C010E8162BC701612F0E9412291E
:105370001B7FC701612F0E941229DF91CF911F91DE
:105380000F91FF90EF90DF90089541E00E94422935
:10539000089540E00E9442290895EF92FF920F93F2
:1053A0001F93CF93DF938C017A01DC0118968C91C7
:1053B0008823D1F06770660F660F660F6064C801BE
:1053C0000E94C929C0E0D0E0D801ED91FC91D7013D
:1053D000AC0FBD1F0190F081E02DC8016C910995C3
:1053E0002196C830D10581F7DF91CF911F910F91A0
:1053F000FF90EF900895FC018085882341F0638140
:10540000862F846083836C60CF010E94C929089530
:10541000DF93CF93CDB7DEB728970FB6F894DEBFF2
:105420000FBECDBF9C01FC0180858823D9F0FE0111
:105430003196A6E7B3E088E00D9001928150E1F744
:10544000F9018581841710F4482F4150E42FF0E0D2
:10545000EE0FFF1FEC0FFD1F8181680F6068C9010F
:105460000E94C92928960FB6F894DEBF0FBECDBFA3
:10547000CF91DF9108950F931F93162F072FFC01F3
:10548000678160628FEF94E070E00E94BC2182E14E
:105490000E940C29812F0E940C29802F0E940C2928
:1054A0008FEF94E00E94FF218823D1F71F910F9185
:1054B0000895FC018085882389F183858130F1F48A
:1054C00080EC91E09287818760FF04C080E891E0E2
:1054D0009287818761FF05C0818592858F7792874A
:1054E000818762FF05C0818592859E7F9287818733
:1054F00061857285CF010E943B2A089583816623CE
:1055000011F0886001C0877F8383838183FD02C09F
:1055100060E001C060E8CF010E9412290895CF9396
:10552000DF93EC0188858823E9F06F8160628FEF5B
:1055300094E070E00E94BC2182E10E940C298FEF70
:1055400094E00E94FF216F8160628FEF94E070E031
:1055500041E050E00E941C228FEF94E00E94C6219F
:1055600080958F71DF91CF910895FC01808588230C
:1055700041F0CF0161E00E94C92980ED97E00E94CF
:105580000C2D0895EF92FF920F931F93DF93CF930B
:105590000F92CDB7DEB78C01F42EE22E62E370E0FD
:1055A00080E090E00E94B32C8FEF94E00E941F22D5
:1055B000F80183856781813061F560628FEF94E047
:1055C00070E00E94BC2180E00E940C298FE10E94C3
:1055D0000C298FEF94E00E94FF21F801678160623F
:1055E0008FEF94E070E00E94BC218CE00E940C29B7
:1055F0008FE10E940C298FEF94E00E94FF21F801B7
:10560000678160628FEF94E070E00E94BC2181E0CE
:1056100034C060628FEF94E070E00E94BC2180E0B3
:105620000E940C298FEF0E940C2980E00E940C2917
:1056300080E00E940C2980E00E940C2980E00E94FA
:105640000C2980E00E940C2980E00E940C2980E057
:105650000E940C2980E00E940C2980E00E940C2905
:105660008FEF94E00E94FF21F801678160628FEF65
:1056700094E070E00E94BC2180E00E940C2980E050
:105680000E940C298FEF94E00E94FF21F1E0FF15AA
:1056900020F4F801828188608283F801F582168205
:1056A000EE2039F0F1E0FF1621F4F80182818460E8
:1056B0008283F8018085823089F48781BE016F5F23
:1056C0007F4F40E021E00E947422882321F481E092
:1056D000F801808703C0F80110866AC0F80183854D
:1056E0008130C1F412861186FF24C80168E30E944C
:1056F0002A29C80168E10E942A29F394F3E0FF16E1
:10570000A1F7C80168E20E942A29C80168E00E9446
:105710002A2920C0C8016CE90E941229C80168E941
:105720000E941229C8016CE90E941229C80168E987
:105730000E941229C8016CE90E941229C80168E977
:105740000E941229C80164E90E941229C80160E977
:105750000E94122965E070E080E090E00E94B32C86
:10576000F80162816062C8010E94C92965E070E0A9
:1057700080E090E00E94B32CF80162816062C80171
:105780000E94C92965E070E080E090E00E94B32C9F
:105790008CE0F8018383C8010E94FB29C8010E94A4
:1057A000B52A82E0F8018483C80166E00E94C92915
:1057B0000F90CF91DF911F910F91FF90EF9008957F
:1057C000823000F5E82FF0E0EE0FFF1FEA56FA4FA7
:1057D00071836083882319F08130A1F408C080911F
:1057E00069008C7F842B80936900E89A08958091EA
:1057F0006900440F551F440F551F837F842B8093EE
:105800006900E99A08951F920F920FB60F92112422
:105810002F933F934F935F936F937F938F939F93B8
:10582000AF93BF93EF93FF93809196059091970567
:10583000892B29F0E0919605F09197050995FF9144
:10584000EF91BF91AF919F918F917F916F915F91F8
:105850004F913F912F910F900FBE0F901F90189571
:105860001F920F920FB60F9211242F933F934F93D5
:105870005F936F937F938F939F93AF93BF93EF93B8
:10588000FF938091980590919905892B29F0E091DB
:105890009805F09199050995FF91EF91BF91AF910E
:1058A0009F918F917F916F915F914F913F912F9138
:1058B0000F900FBE0F901F9018951F920F920FB66A
:1058C0000F9211242F933F938F939F93AF93BF9386
:1058D00080919E0590919F05A091A005B091A10592
:1058E0003091A2050196A11DB11D232F2D5F2D37EB
:1058F00020F02D570196A11DB11D2093A205809384
:105900009E0590939F05A093A005B093A10580915B
:105910009A0590919B05A0919C05B0919D050196DB
:10592000A11DB11D80939A0590939B05A0939C05A2
:10593000B0939D05BF91AF919F918F913F912F9112
:105940000F900FBE0F901F9018958FB7F89420916D
:105950009E0530919F054091A0055091A1058FBFF4
:10596000B901CA0108959B01AC017FB7F8948091F9
:105970009A0590919B05A0919C05B0919D0566B5F7
:10598000A89B05C06F3F19F00196A11DB11D7FBFF7
:10599000BA2FA92F982F8827860F911DA11DB11D01
:1059A00062E0880F991FAA1FBB1F6A95D1F7BC013F
:1059B0002DC0FFB7F89480919A0590919B05A09116
:1059C0009C05B0919D05E6B5A89B05C0EF3F19F079
:1059D0000196A11DB11DFFBFBA2FA92F982F8827AF
:1059E0008E0F911DA11DB11DE2E0880F991FAA1F06
:1059F000BB1FEA95D1F7861B970B885E9340C8F2D0
:105A0000215030404040504068517C4F21153105B5
:105A10004105510571F60895019739F0880F991FD6
:105A2000880F991F02970197F1F70895789484B52C
:105A3000826084BD84B5816084BD85B5826085BD8A
:105A400085B5816085BDEEE6F0E080818160808370
:105A5000E1E8F0E010828081826080838081816053
:105A60008083E0E8F0E0808181608083E1EBF0E01A
:105A7000808184608083E0EBF0E0808181608083BE
:105A8000EAE7F0E0808184608083808182608083A7
:105A90008081816080838081806880831092C100D2
:105AA0000895982F8E3008F09E5097708091A10233
:105AB0008295880F880F807C892B80937C00809151
:105AC0007A00806480937A0080917A0086FDFCCF12
:105AD0002091780040917900942F80E030E0282BCD
